{
  "address": "0x195c3182320D98bA0F8443220FEB771a69438251",
  "abi": [
    {
      "inputs": [],
      "name": "CallbackAlreadyActive",
      "type": "error"
    },
    {
      "inputs": [],
      "name": "CallbackAlreadyActive",
      "type": "error"
    },
    {
      "inputs": [],
      "name": "CallbackStillActive",
      "type": "error"
    },
    {
      "inputs": [],
      "name": "CallbackStillActive",
      "type": "error"
    },
    {
      "inputs": [],
      "name": "DeadlineExpired",
      "type": "error"
    },
    {
      "inputs": [
        {
          "internalType": "uint256",
          "name": "maxFeeBps",
          "type": "uint256"
        }
      ],
      "name": "FeeTooHigh",
      "type": "error"
    },
    {
      "inputs": [
        {
          "internalType": "uint256",
          "name": "maxFeeBps",
          "type": "uint256"
        }
      ],
      "name": "FeeTooHigh",
      "type": "error"
    },
    {
      "inputs": [],
      "name": "IllegalJumpInSplit",
      "type": "error"
    },
    {
      "inputs": [],
      "name": "InconsistentPartPayerOut",
      "type": "error"
    },
    {
      "inputs": [],
      "name": "InconsistentPartTokenOut",
      "type": "error"
    },
    {
      "inputs": [],
      "name": "InsufficientAmountRemaining",
      "type": "error"
    },
    {
      "inputs": [],
      "name": "InsufficientEthValue",
      "type": "error"
    },
    {
      "inputs": [],
      "name": "InsufficientOutputAmount",
      "type": "error"
    },
    {
      "inputs": [],
      "name": "InsufficientTokensDelivered",
      "type": "error"
    },
    {
      "inputs": [],
      "name": "InvalidSgReceiveSrcAddress",
      "type": "error"
    },
    {
      "inputs": [],
      "name": "InvalidSgReceiverSender",
      "type": "error"
    },
    {
      "inputs": [],
      "name": "JumpMustBeLastCommand",
      "type": "error"
    },
    {
      "inputs": [],
      "name": "NativeTokenNotSupported",
      "type": "error"
    },
    {
      "inputs": [],
      "name": "NotEnoughParts",
      "type": "error"
    },
    {
      "inputs": [],
      "name": "UnexpectedPayerForWrap",
      "type": "error"
    },
    {
      "inputs": [],
      "name": "UnexpectedTokenForUnwrap",
      "type": "error"
    },
    {
      "inputs": [],
      "name": "UnexpectedTokenForWrap",
      "type": "error"
    },
    {
      "inputs": [],
      "name": "UnexpectedTokenOut",
      "type": "error"
    },
    {
      "inputs": [],
      "name": "UnhandledCommand",
      "type": "error"
    },
    {
      "inputs": [],
      "name": "UnhandledPoolKind",
      "type": "error"
    },
    {
      "inputs": [],
      "name": "UnhandledPoolKind",
      "type": "error"
    },
    {
      "anonymous": false,
      "inputs": [
        {
          "indexed": true,
          "internalType": "address",
          "name": "partner",
          "type": "address"
        },
        {
          "indexed": true,
          "internalType": "address",
          "name": "token",
          "type": "address"
        },
        {
          "indexed": false,
          "internalType": "uint256",
          "name": "partnerFee",
          "type": "uint256"
        },
        {
          "indexed": false,
          "internalType": "uint256",
          "name": "protocolFee",
          "type": "uint256"
        }
      ],
      "name": "Fee",
      "type": "event"
    },
    {
      "anonymous": false,
      "inputs": [
        {
          "indexed": true,
          "internalType": "address",
          "name": "partner",
          "type": "address"
        },
        {
          "indexed": true,
          "internalType": "address",
          "name": "tokenIn",
          "type": "address"
        },
        {
          "indexed": true,
          "internalType": "address",
          "name": "tokenOut",
          "type": "address"
        },
        {
          "indexed": false,
          "internalType": "uint256",
          "name": "amountIn",
          "type": "uint256"
        },
        {
          "indexed": false,
          "internalType": "uint256",
          "name": "amountOut",
          "type": "uint256"
        }
      ],
      "name": "Warp",
      "type": "event"
    },
    {
      "inputs": [
        {
          "internalType": "uint16",
          "name": "",
          "type": "uint16"
        },
        {
          "internalType": "bytes",
          "name": "_srcAddress",
          "type": "bytes"
        },
        {
          "internalType": "uint256",
          "name": "",
          "type": "uint256"
        },
        {
          "internalType": "address",
          "name": "_token",
          "type": "address"
        },
        {
          "internalType": "uint256",
          "name": "amountLD",
          "type": "uint256"
        },
        {
          "internalType": "bytes",
          "name": "payload",
          "type": "bytes"
        }
      ],
      "name": "sgReceive",
      "outputs": [],
      "stateMutability": "nonpayable",
      "type": "function"
    },
    {
      "inputs": [
        {
          "components": [
            {
              "internalType": "address",
              "name": "partner",
              "type": "address"
            },
            {
              "internalType": "uint16",
              "name": "feeBps",
              "type": "uint16"
            },
            {
              "internalType": "uint16",
              "name": "slippageBps",
              "type": "uint16"
            },
            {
              "internalType": "address",
              "name": "recipient",
              "type": "address"
            },
            {
              "internalType": "address",
              "name": "tokenIn",
              "type": "address"
            },
            {
              "internalType": "address",
              "name": "tokenOut",
              "type": "address"
            },
            {
              "internalType": "uint256",
              "name": "amountIn",
              "type": "uint256"
            },
            {
              "internalType": "uint256",
              "name": "amountOut",
              "type": "uint256"
            },
            {
              "internalType": "uint48",
              "name": "deadline",
              "type": "uint48"
            },
            {
              "internalType": "bytes",
              "name": "commands",
              "type": "bytes"
            }
          ],
          "internalType": "struct IWarpLink.Params",
          "name": "params",
          "type": "tuple"
        }
      ],
      "name": "warpLinkEngage",
      "outputs": [],
      "stateMutability": "payable",
      "type": "function"
    },
    {
      "inputs": [
        {
          "components": [
            {
              "internalType": "address",
              "name": "partner",
              "type": "address"
            },
            {
              "internalType": "uint16",
              "name": "feeBps",
              "type": "uint16"
            },
            {
              "internalType": "uint16",
              "name": "slippageBps",
              "type": "uint16"
            },
            {
              "internalType": "address",
              "name": "recipient",
              "type": "address"
            },
            {
              "internalType": "address",
              "name": "tokenIn",
              "type": "address"
            },
            {
              "internalType": "address",
              "name": "tokenOut",
              "type": "address"
            },
            {
              "internalType": "uint256",
              "name": "amountIn",
              "type": "uint256"
            },
            {
              "internalType": "uint256",
              "name": "amountOut",
              "type": "uint256"
            },
            {
              "internalType": "uint48",
              "name": "deadline",
              "type": "uint48"
            },
            {
              "internalType": "bytes",
              "name": "commands",
              "type": "bytes"
            }
          ],
          "internalType": "struct IWarpLink.Params",
          "name": "params",
          "type": "tuple"
        },
        {
          "components": [
            {
              "internalType": "uint256",
              "name": "nonce",
              "type": "uint256"
            },
            {
              "internalType": "bytes",
              "name": "signature",
              "type": "bytes"
            }
          ],
          "internalType": "struct PermitParams",
          "name": "permit",
          "type": "tuple"
        }
      ],
      "name": "warpLinkEngagePermit",
      "outputs": [],
      "stateMutability": "payable",
      "type": "function"
    }
  ],
  "transactionHash": "0x447af14ef02b7bd10b8e27cc2edbf5429b3814a20b3abc3eed749d4240f3d9eb",
  "args": [],
  "numDeployments": 9,
  "solcInputHash": "27cf7d06461a217daad42aa810728fbe",
  "bytecode": "0x608060405234801561001057600080fd5b50615dbc80620000216000396000f3fe6080604052600436106100345760003560e01c8063a703fc4014610039578063ab8236f31461004e578063dcc455511461006e575b600080fd5b61004c610047366004615184565b610081565b005b34801561005a57600080fd5b5061004c610069366004615368565b6101eb565b61004c61007c366004615405565b6104d1565b600061008c836105d9565b6001610160820152336101208201819052346101a08301527f1c1cf3c8827d48db80e17913589584c81d7f8da7f2100c9a87a7bf64829a0e11546040805160e0810190915292935073ffffffffffffffffffffffffffffffffffffffff1691632b67b570919080606081018061010860a08b0160808c0161543a565b73ffffffffffffffffffffffffffffffffffffffff908116825260c08b01351660208201526040016101426101208b016101008c0161546b565b65ffffffffffff9081168252893516602091820152908252309082015260400161017461012089016101008a0161546b565b65ffffffffffff16905261018b6020870187615488565b6040518563ffffffff1660e01b81526004016101aa94939291906154f4565b600060405180830381600087803b1580156101c457600080fd5b505af11580156101d8573d6000803e3d6000fd5b505050506101e683826107f4565b505050565b7f1c1cf3c8827d48db80e17913589584c81d7f8da7f2100c9a87a7bf64829a0e106002015473ffffffffffffffffffffffffffffffffffffffff16331461025e576040517fcebf3f7700000000000000000000000000000000000000000000000000000000815260040160405180910390fd5b601485015173ffffffffffffffffffffffffffffffffffffffff811630146102b2576040517fa9d0d13300000000000000000000000000000000000000000000000000000000815260040160405180910390fd5b6000828060200190518101906102c89190615645565b608081015190915073ffffffffffffffffffffffffffffffffffffffff166102ef57600094505b3063dcc4555173ffffffffffffffffffffffffffffffffffffffff87161561031857600061031a565b855b604051806101400160405280856000015173ffffffffffffffffffffffffffffffffffffffff168152602001856020015161ffff168152602001856040015161ffff168152602001856060015173ffffffffffffffffffffffffffffffffffffffff1681526020018973ffffffffffffffffffffffffffffffffffffffff1681526020018560a0015173ffffffffffffffffffffffffffffffffffffffff1681526020018881526020018560e00151815260200185610100015165ffffffffffff1681526020018561012001518152506040518363ffffffff1660e01b8152600401610406919061578d565b6000604051808303818588803b15801561041f57600080fd5b505af193505050508015610431575060015b6104c75773ffffffffffffffffffffffffffffffffffffffff85166104a057806060015173ffffffffffffffffffffffffffffffffffffffff166108fc859081150290604051600060405180830381858888f1935050505015801561049a573d6000803e3d6000fd5b506104c7565b60608101516104c79073ffffffffffffffffffffffffffffffffffffffff87169086610b60565b5050505050505050565b6104e36101208201610100830161546b565b65ffffffffffff16421115610524576040517f1ab7da6b00000000000000000000000000000000000000000000000000000000815260040160405180910390fd5b600061052f826105d9565b9050600061054360a084016080850161543a565b73ffffffffffffffffffffffffffffffffffffffff16036105bc578160c0013534101561059c576040517f1985c73500000000000000000000000000000000000000000000000000000000815260040160405180910390fd5b6105aa60c0830135346158bf565b6101a0820152306101208201526105cb565b33610120820152346101a08201525b6105d582826107f4565b5050565b604080516101c081018252600080825260208201819052918101829052606081018290526080810182905260a0810182905260c0810182905260e08101829052610100810182905261012081018290526101408101829052610160810182905261018081018290526101a0810191909152604080516101c081018252600080825260208201819052918101829052606081018290526080810182905260a0810182905260c0810182905260e08101829052610100810182905261012081018290526101408101829052610160810182905261018081018290526101a08101919091526106c8602084018461543a565b73ffffffffffffffffffffffffffffffffffffffff1681526106f060408401602085016158d2565b61ffff16602082015261070960608401604085016158d2565b61ffff1660c0820152610722608084016060850161543a565b73ffffffffffffffffffffffffffffffffffffffff16604082015261074d60a084016080850161543a565b73ffffffffffffffffffffffffffffffffffffffff1660608083019190915260c0840135608083015260e084013560a083015261078f908401604085016158d2565b61ffff1660c08201526107aa6101208401610100850161546b565b65ffffffffffff1660e082015260c08301356101008201526107d260a084016080850161543a565b73ffffffffffffffffffffffffffffffffffffffff1661014082015292915050565b6000610841610807610120850185615488565b8080601f016020809104026020016040519081016040528093929190818152602001838380828437600092019190915250610c3492505050565b905061084d8183610c4e565b6101008101516101408201519193509061086d60c0860160a0870161543a565b73ffffffffffffffffffffffffffffffffffffffff168173ffffffffffffffffffffffffffffffffffffffff16146108d1576040517fae39073000000000000000000000000000000000000000000000000000000000815260040160405180910390fd5b8115806108f957506108f660e08601356108f160608801604089016158d2565b610e57565b82105b15610930576040517f42301c2300000000000000000000000000000000000000000000000000000000815260040160405180910390fd5b836101800151600103610944575050505050565b610983610954602087018761543a565b61096460c0880160a0890161543a565b6109746040890160208a016158d2565b61ffff168860e0013586610e85565b9150816000036109bf576040517f42301c2300000000000000000000000000000000000000000000000000000000815260040160405180910390fd5b73ffffffffffffffffffffffffffffffffffffffff8116610a35576109ea608086016060870161543a565b73ffffffffffffffffffffffffffffffffffffffff166108fc839081150290604051600060405180830381858888f19350505050158015610a2f573d6000803e3d6000fd5b50610a66565b610a66610a48608087016060880161543a565b73ffffffffffffffffffffffffffffffffffffffff83169084610b60565b6101a084015115610aa4576101a0840151604051339180156108fc02916000818181858888f19350505050158015610aa2573d6000803e3d6000fd5b505b610ab460c0860160a0870161543a565b73ffffffffffffffffffffffffffffffffffffffff16610ada60a087016080880161543a565b73ffffffffffffffffffffffffffffffffffffffff16610afd602088018861543a565b73ffffffffffffffffffffffffffffffffffffffff167f1d81b4318b379c644b5546ae9cf37d861a5c7547bf3dae6cfaecffa12f8748f38860c0013586604051610b51929190918252602082015260400190565b60405180910390a45050505050565b60405173ffffffffffffffffffffffffffffffffffffffff83166024820152604481018290526101e69084907fa9059cbb00000000000000000000000000000000000000000000000000000000906064015b604080517fffffffffffffffffffffffffffffffffffffffffffffffffffffffffffffffe08184030181529190526020810180517bffffffffffffffffffffffffffffffffffffffffffffffffffffffff167fffffffff0000000000000000000000000000000000000000000000000000000090931692909217909152610f3e565b604080518082019091528181528151909101602082015290565b604080516101c081018252600080825260208201819052918101829052606081018290526080810182905260a0810182905260c0810182905260e08101829052610100810182905261012081018290526101408101829052610160810182905261018081018290526101a08101919091526000610cd18480516001018051915290565b60ff16905060005b81811015610e4b576000610cf38680516001018051915290565b60ff16905060018103610d1057610d098561104d565b9450610e38565b60028103610d2157610d098561121d565b60038103610d3357610d0986866113b2565b60048103610d4557610d0986866119a4565b60058103610d5757610d098686611d3b565b60068103610d6957610d0986866124d3565b60078103610d7b57610d098686612989565b60088103610d8d57610d098686612e4d565b60098103610de257610da06001846158bf565b8214610dd8576040517fe31c95e900000000000000000000000000000000000000000000000000000000815260040160405180910390fd5b610d0986866131ae565b600a8103610df457610d0986866138ab565b600b8103610e0657610d098686613bad565b6040517f8ccd166700000000000000000000000000000000000000000000000000000000815260040160405180910390fd5b5080610e43816158ef565b915050610cd9565b50829150505b92915050565b6000612710610e668382615927565b610e749061ffff1685615942565b610e7e9190615988565b9392505050565b60006107d0841115610ecc576040517f7b9314200000000000000000000000000000000000000000000000000000000081526107d060048201526024015b60405180910390fd5b60008284811115610ede575050828203835b612710818702049190910190600073ffffffffffffffffffffffffffffffffffffffff891615610f145760646032840204610f17565b60005b9050808303838214610f2f57610f2f8a8a8484614030565b50505090910395945050505050565b6000610fa0826040518060400160405280602081526020017f5361666545524332303a206c6f772d6c6576656c2063616c6c206661696c65648152508573ffffffffffffffffffffffffffffffffffffffff166140f89092919063ffffffff16565b9050805160001480610fc1575080806020019051810190610fc191906159c3565b6101e6576040517f08c379a000000000000000000000000000000000000000000000000000000000815260206004820152602a60248201527f5361666545524332303a204552433230206f7065726174696f6e20646964206e60448201527f6f742073756363656564000000000000000000000000000000000000000000006064820152608401610ec3565b604080516101c081018252600080825260208201819052918101829052606081018290526080810182905260a0810182905260c0810182905260e0810182905261010081018290526101208101829052610140808201839052610160820183905261018082018390526101a0820192909252908201517f1c1cf3c8827d48db80e17913589584c81d7f8da7f2100c9a87a7bf64829a0e109073ffffffffffffffffffffffffffffffffffffffff1615611132576040517f45369fbb00000000000000000000000000000000000000000000000000000000815260040160405180910390fd5b61012083015173ffffffffffffffffffffffffffffffffffffffff163014611186576040517f32d40df100000000000000000000000000000000000000000000000000000000815260040160405180910390fd5b805473ffffffffffffffffffffffffffffffffffffffff166101408401819052610100840151604080517fd0e30db0000000000000000000000000000000000000000000000000000000008152905163d0e30db0929160048082019260009290919082900301818588803b1580156111fd57600080fd5b505af1158015611211573d6000803e3d6000fd5b50959695505050505050565b604080516101c081018252600080825260208201819052918101829052606081018290526080810182905260a0810182905260c0810182905260e08101829052610100810182905261012081018290526101408101829052610160810182905261018081018290526101a08101829052907f1c1cf3c8827d48db80e17913589584c81d7f8da7f2100c9a87a7bf64829a0e10805461014085015191925073ffffffffffffffffffffffffffffffffffffffff91821691161461130b576040517fb2ee070800000000000000000000000000000000000000000000000000000000815260040160405180910390fd5b6113148361410f565b80546101008401516040517f2e1a7d4d00000000000000000000000000000000000000000000000000000000815273ffffffffffffffffffffffffffffffffffffffff90921691632e1a7d4d916113719160040190815260200190565b600060405180830381600087803b15801561138b57600080fd5b505af115801561139f573d6000803e3d6000fd5b5050600061014086015250929392505050565b604080516101c081018252600080825260208201819052918101829052606081018290526080810182905260a0810182905260c0810182905260e08101829052610100810182905261012081018290526101408101829052610160810182905261018081018290526101a081019190915261014082015173ffffffffffffffffffffffffffffffffffffffff16611475576040517fb10b947e00000000000000000000000000000000000000000000000000000000815260040160405180910390fd5b6040805160808101825260008082526020820181905291810182905260608101919091528351601401805190855273ffffffffffffffffffffffffffffffffffffffff1681528351601401805190855273ffffffffffffffffffffffffffffffffffffffff1660208201528351600101805190855260ff1660011460408201528351600201805190855261ffff1660608201526101208301513073ffffffffffffffffffffffffffffffffffffffff9091160361156a57611565816020015184610100015185610140015173ffffffffffffffffffffffffffffffffffffffff16610b609092919063ffffffff16565b611698565b826101600151600103611650577f1c1cf3c8827d48db80e17913589584c81d7f8da7f2100c9a87a7bf64829a0e106001015461012084015160208301516101008601516101408701516040517f36c7851600000000000000000000000000000000000000000000000000000000815273ffffffffffffffffffffffffffffffffffffffff948516600482015292841660248401529083166044830152821660648201529116906336c7851690608401600060405180830381600087803b15801561163357600080fd5b505af1158015611647573d6000803e3d6000fd5b50505050611690565b611690836101200151826020015185610100015186610140015173ffffffffffffffffffffffffffffffffffffffff16614123909392919063ffffffff16565b306101208401525b600080826020015173ffffffffffffffffffffffffffffffffffffffff16630902f1ac6040518163ffffffff1660e01b8152600401606060405180830381865afa1580156116ea573d6000803e3d6000fd5b505050506040513d601f19601f8201168201806040525081019061170e9190615a03565b506dffffffffffffffffffffffffffff1691506dffffffffffffffffffffffffffff169150826040015161173e57905b606083015161010086015161ffff612710928303169184029082029081019083028161176c5761176c615959565b046101008701525082516040517f70a0823100000000000000000000000000000000000000000000000000000000815230600482015260009173ffffffffffffffffffffffffffffffffffffffff16906370a0823190602401602060405180830381865afa1580156117e2573d6000803e3d6000fd5b505050506040513d601f19601f820116820180604052508101906118069190615a53565b9050836020015173ffffffffffffffffffffffffffffffffffffffff1663022c0d9f856040015161183c5787610100015161183f565b60005b866040015161184f576000611856565b8861010001515b6040517fffffffff0000000000000000000000000000000000000000000000000000000060e085901b16815260048101929092526024820152306044820152608060648201526000608482015260a401600060405180830381600087803b1580156118c057600080fd5b505af11580156118d4573d6000803e3d6000fd5b5050505061010086015184516040517f70a0823100000000000000000000000000000000000000000000000000000000815230600482015261197c9291849173ffffffffffffffffffffffffffffffffffffffff909116906370a08231906024015b602060405180830381865afa158015611953573d6000803e3d6000fd5b505050506040513d601f19601f820116820180604052508101906119779190615a53565b614187565b5050905173ffffffffffffffffffffffffffffffffffffffff16610140840152509092915050565b604080516101c081018252600080825260208201819052918101829052606081018290526080810182905260a0810182905260c0810182905260e08101829052610100810182905261012081018290526101408101829052610160810182905261018081018290526101a08101919091526000611a278480516001018051915290565b60ff1690506000836101000151905060006002831015611a73576040517f1d6beb5700000000000000000000000000000000000000000000000000000000815260040160405180910390fd5b60008060005b85811015611d06576000611a8e6001886158bf565b8210611a9a5785611acb565b612710611aad8b80516002018051915290565b61ffff168a6101000151611ac19190615942565b611acb9190615988565b905085811115611b07576040517f0f24c51700000000000000000000000000000000000000000000000000000000815260040160405180910390fd5b611b1181876158bf565b604080516101c081018252600080825260208201819052918101829052606081018290526080810182905260a0810182905260c0810182905260e08101829052610120808201838152610140808401858152610160850186905261018085018690526101a08501959095526101008401879052918e015173ffffffffffffffffffffffffffffffffffffffff908116909152908d015116909152909650611bb88b82610c4e565b9050806101800151600103611bf9576040517fd35869f800000000000000000000000000000000000000000000000000000000815260040160405180910390fd5b82600003611c165780610120015193508061014001519450611cea565b8473ffffffffffffffffffffffffffffffffffffffff1681610140015173ffffffffffffffffffffffffffffffffffffffff1614611c80576040517fd7af48f200000000000000000000000000000000000000000000000000000000815260040160405180910390fd5b8373ffffffffffffffffffffffffffffffffffffffff1681610120015173ffffffffffffffffffffffffffffffffffffffff1614611cea576040517f51a769fd00000000000000000000000000000000000000000000000000000000815260040160405180910390fd5b610100810151611cfa9087615a6c565b95505050600101611a79565b5073ffffffffffffffffffffffffffffffffffffffff9081166101208801521661014086015261010085015250919392505050565b604080516101c081018252600080825260208201819052918101829052606081018290526080810182905260a0810182905260c0810182905260e08101829052610100810182905261012081018290526101408101829052610160810182905261018081018290526101a0810191909152611dd060405180606001604052806060815260200160608152602001606081525090565b6000611de28580516001018051915290565b60ff169050611df2816001615a6c565b67ffffffffffffffff811115611e0a57611e0a615202565b604051908082528060200260200182016040528015611e33578160200160208202803683370190505b508083526101408501518151909190600090611e5157611e51615a7f565b602002602001019073ffffffffffffffffffffffffffffffffffffffff16908173ffffffffffffffffffffffffffffffffffffffff168152505060005b81811015611eea57855160140180519087528351611ead836001615a6c565b81518110611ebd57611ebd615a7f565b73ffffffffffffffffffffffffffffffffffffffff90921660209283029190910190910152600101611e8e565b50611ef585826141cd565b6020830152611f04858261426f565b6040830152815180516000919083908110611f2157611f21615a7f565b60209081029190910101516040517f70a0823100000000000000000000000000000000000000000000000000000000815230600482015273ffffffffffffffffffffffffffffffffffffffff909116906370a0823190602401602060405180830381865afa158015611f97573d6000803e3d6000fd5b505050506040513d601f19601f82011682018060405250810190611fbb9190615a53565b90506000611fdc8460400151876101000151866000015187602001516142f8565b90503073ffffffffffffffffffffffffffffffffffffffff1686610120015173ffffffffffffffffffffffffffffffffffffffff160361206e57612069846020015160008151811061203057612030615a7f565b602002602001015187610100015188610140015173ffffffffffffffffffffffffffffffffffffffff16610b609092919063ffffffff16565b6121d9565b856101600151600103612177577f1c1cf3c8827d48db80e17913589584c81d7f8da7f2100c9a87a7bf64829a0e11546101208701516020860151805173ffffffffffffffffffffffffffffffffffffffff909316926336c785169291906000906120da576120da615a7f565b60200260200101518961010001518a61014001516040518563ffffffff1660e01b8152600401612140949392919073ffffffffffffffffffffffffffffffffffffffff948516815292841660208401529083166040830152909116606082015260800190565b600060405180830381600087803b15801561215a57600080fd5b505af115801561216e573d6000803e3d6000fd5b505050506121d1565b6121d1866101200151856020015160008151811061219757612197615a7f565b602002602001015188610100015189610140015173ffffffffffffffffffffffffffffffffffffffff16614123909392919063ffffffff16565b306101208701525b60005b838110156123dd5760006121f1826001615a6c565b905060008660000151828151811061220b5761220b615a7f565b602002602001015173ffffffffffffffffffffffffffffffffffffffff168760000151848151811061223f5761223f615a7f565b602002602001015173ffffffffffffffffffffffffffffffffffffffff161061226957600061226c565b60015b90506000600288600001515161228291906158bf565b841061228e57306122ad565b876020015183815181106122a4576122a4615a7f565b60200260200101515b9050876020015184815181106122c5576122c5615a7f565b602002602001015173ffffffffffffffffffffffffffffffffffffffff1663022c0d9f8361230c578685815181106122ff576122ff615a7f565b602002602001015161230f565b60005b8461231b576000612336565b87868151811061232d5761232d615a7f565b60200260200101515b6040517fffffffff0000000000000000000000000000000000000000000000000000000060e085901b1681526004810192909252602482015273ffffffffffffffffffffffffffffffffffffffff84166044820152608060648201526000608482015260a401600060405180830381600087803b1580156123b657600080fd5b505af11580156123ca573d6000803e3d6000fd5b5050600190950194506121dc9350505050565b5080600182516123ed91906158bf565b815181106123fd576123fd615a7f565b60200260200101518661010001818152505061248d866101000151838660000151868151811061242f5761242f615a7f565b60209081029190910101516040517f70a0823100000000000000000000000000000000000000000000000000000000815230600482015273ffffffffffffffffffffffffffffffffffffffff909116906370a0823190602401611936565b83518051849081106124a1576124a1615a7f565b602090810291909101015173ffffffffffffffffffffffffffffffffffffffff16610140870152509395945050505050565b604080516101c081018252600080825260208201819052918101829052606081018290526080810182905260a0810182905260c0810182905260e08101829052610100810182905261012081018290526101408101829052610160810182905261018081018290526101a08101919091526040805160808101825260008082526020820181905291810182905260608101919091528351601401805190855273ffffffffffffffffffffffffffffffffffffffff1681528351601401805190855273ffffffffffffffffffffffffffffffffffffffff9081166020830152610140840151166125ee576040517fb10b947e00000000000000000000000000000000000000000000000000000000815260040160405180910390fd5b80516040517f70a0823100000000000000000000000000000000000000000000000000000000815230600482015260009173ffffffffffffffffffffffffffffffffffffffff16906370a0823190602401602060405180830381865afa15801561265c573d6000803e3d6000fd5b505050506040513d601f19601f820116820180604052508101906126809190615a53565b90506000826000015173ffffffffffffffffffffffffffffffffffffffff1685610140015173ffffffffffffffffffffffffffffffffffffffff161090506127276040518060800160405280876101000151815260200187610120015173ffffffffffffffffffffffffffffffffffffffff16815260200187610140015173ffffffffffffffffffffffffffffffffffffffff16815260200187610160015181525061452d565b801561280b5760208301516101008601516040517f128acb08000000000000000000000000000000000000000000000000000000008152306004820152831515602482015260448101919091526401000276a4606482015260a06084820152600060a482018190529173ffffffffffffffffffffffffffffffffffffffff169063128acb089060c40160408051808303816000875af11580156127ce573d6000803e3d6000fd5b505050506040513d601f19601f820116820180604052508101906127f29190615aae565b915050806127ff90615ad2565b610100870152506128f3565b60208301516101008601516040517f128acb080000000000000000000000000000000000000000000000000000000081523060048201528315156024820152604481019190915273fffd8963efd1fc6a506488495d951d5263988d25606482015260a06084820152600060a482018190529173ffffffffffffffffffffffffffffffffffffffff169063128acb089060c40160408051808303816000875af11580156128bb573d6000803e3d6000fd5b505050506040513d601f19601f820116820180604052508101906128df9190615aae565b5090506128eb81615ad2565b610100870152505b6128fb6146bc565b61010085015183516040517f70a0823100000000000000000000000000000000000000000000000000000000815230600482015261295d9291859173ffffffffffffffffffffffffffffffffffffffff909116906370a0823190602401611936565b50505173ffffffffffffffffffffffffffffffffffffffff166101408301525030610120820152919050565b604080516101c081018252600080825260208201819052918101829052606081018290526080810182905260a0810182905260c0810182905260e08101829052610100810182905261012081018290526101408101829052610160810182905261018081018290526101a0810191909152612a1e60405180606001604052806060815260200160608152602001606081525090565b6000612a308580516001018051915290565b60ff169050612a3f85826141cd565b8252612a4b85826141cd565b60208301528151600090612a606001846158bf565b81518110612a7057612a70615a7f565b60209081029190910101516040517f70a0823100000000000000000000000000000000000000000000000000000000815230600482015290915060009073ffffffffffffffffffffffffffffffffffffffff8316906370a0823190602401602060405180830381865afa158015612aeb573d6000803e3d6000fd5b505050506040513d601f19601f82011682018060405250810190612b0f9190615a53565b905060005b83811015612de25760008115612b4e578551612b316001846158bf565b81518110612b4157612b41615a7f565b6020026020010151612b55565b8761014001515b905085600001518281518110612b6d57612b6d615a7f565b60209081029190910181015173ffffffffffffffffffffffffffffffffffffffff9081166101408b01819052604080516080810182526101008d015181526101208d01518416948101949094529184169183018290526101608b015160608401521190612bd99061452d565b82600003612be957306101208a01525b600087602001518481518110612c0157612c01615a7f565b602002602001015190508115612ceb576101008a01516040517f128acb08000000000000000000000000000000000000000000000000000000008152306004820152831515602482015260448101919091526401000276a4606482015260a06084820152600060a482018190529073ffffffffffffffffffffffffffffffffffffffff83169063128acb089060c40160408051808303816000875af1158015612cae573d6000803e3d6000fd5b505050506040513d601f19601f82011682018060405250810190612cd29190615aae565b91505080612cdf90615ad2565b6101008c015250612dcf565b6101008a01516040517f128acb080000000000000000000000000000000000000000000000000000000081523060048201528315156024820152604481019190915273fffd8963efd1fc6a506488495d951d5263988d25606482015260a06084820152600060a482018190529073ffffffffffffffffffffffffffffffffffffffff83169063128acb089060c40160408051808303816000875af1158015612d97573d6000803e3d6000fd5b505050506040513d601f19601f82011682018060405250810190612dbb9190615aae565b509050612dc781615ad2565b6101008c0152505b612dd76146bc565b505050600101612b14565b506101008601516040517f70a08231000000000000000000000000000000000000000000000000000000008152306004820152612e429190839073ffffffffffffffffffffffffffffffffffffffff8616906370a0823190602401611936565b509395945050505050565b604080516101c081018252600080825260208201819052918101829052606081018290526080810182905260a0810182905260c0810182905260e08101829052610100810182905261012081018290526101408101829052610160810182905261018081018290526101a08101919091526040805160c081018252600080825260208201819052918101829052606081018290526080810182905260a08101919091528351601401805190855273ffffffffffffffffffffffffffffffffffffffff1681528351601401805190855273ffffffffffffffffffffffffffffffffffffffff1660208201528351600101805190855260ff1660408201528351600101805190855260ff1660608201528351600101805190855260ff1660808201528351600101805190855260ff1660011460a0820152610140830151815173ffffffffffffffffffffffffffffffffffffffff91821615911615612faf8561410f565b60008161304c5783516040517f70a0823100000000000000000000000000000000000000000000000000000000815230600482015273ffffffffffffffffffffffffffffffffffffffff909116906370a0823190602401602060405180830381865afa158015613023573d6000803e3d6000fd5b505050506040513d601f19601f820116820180604052508101906130479190615a53565b61304e565b475b90508261308e5761308e846020015187610100015188610140015173ffffffffffffffffffffffffffffffffffffffff1661471c9092919063ffffffff16565b6130d384608001518560a001518660200151866130ac5760006130b3565b8961010001515b886040015189606001518c610100015160008b806130ce57508a5b61480c565b6000826131705784516040517f70a0823100000000000000000000000000000000000000000000000000000000815230600482015273ffffffffffffffffffffffffffffffffffffffff909116906370a0823190602401602060405180830381865afa158015613147573d6000803e3d6000fd5b505050506040513d601f19601f8201168201806040525081019061316b9190615a53565b613172565b475b855173ffffffffffffffffffffffffffffffffffffffff16610140890152905061319c82826158bf565b61010088015250949695505050505050565b604080516101c081018252600080825260208201819052918101829052606081018290526080810182905260a0810182905260c0810182905260e08101829052610100810182905261012081018290526101408101829052610160810182905261018081018290526101a08101919091526132556040518060a00160405280600061ffff168152602001600081526020016000815260200160008152602001606081525090565b8351600201805190855261ffff1681528351600101805190855260ff1660208201528351600101805190855260ff1660408201528351600401805190855263ffffffff1660608201819052156133e2576040805161014080820183526000808352602080840182815284860183815260608087018581526080880186815260a0890187905260c0808a0188905260e08a018890526101008a01979097526101208901929092528b5173ffffffffffffffffffffffffffffffffffffffff9081168952948c015161ffff908116909452948b0151909216905294880151811690915290860151169091528451601401805190865273ffffffffffffffffffffffffffffffffffffffff1660a08201528451602001805190865260e08281019190915284015165ffffffffffff166101008201528451602080820180519092010186526101208201526040516133ad90829060200161578d565b604080517fffffffffffffffffffffffffffffffffffffffffffffffffffffffffffffffe08184030181529190526080830152505b6133f48360a001518460c00151610e57565b8361010001511015613432576040517f42301c2300000000000000000000000000000000000000000000000000000000815260040160405180910390fd5b826060015173ffffffffffffffffffffffffffffffffffffffff1683610140015173ffffffffffffffffffffffffffffffffffffffff16146135435782610140015173ffffffffffffffffffffffffffffffffffffffff16836060015173ffffffffffffffffffffffffffffffffffffffff16846000015173ffffffffffffffffffffffffffffffffffffffff167f1d81b4318b379c644b5546ae9cf37d861a5c7547bf3dae6cfaecffa12f8748f38660800151876101000151604051613503929190918252602082015260400190565b60405180910390a4806080015151600003613543578251610140840151602085015161010086015161353c93929161ffff169080610e85565b6101008401525b7f1c1cf3c8827d48db80e17913589584c81d7f8da7f2100c9a87a7bf64829a0e125473ffffffffffffffffffffffffffffffffffffffff166135848461410f565b61014084015173ffffffffffffffffffffffffffffffffffffffff1615613653576136538260800151516000146135bb578161362a565b8173ffffffffffffffffffffffffffffffffffffffff1663a9e56f3c6040518163ffffffff1660e01b8152600401602060405180830381865afa158015613606573d6000803e3d6000fd5b505050506040513d601f19601f8201168201806040525081019061362a9190615b0a565b61010086015161014087015173ffffffffffffffffffffffffffffffffffffffff16919061471c565b60016101808501526080820151511561366c57806136db565b8073ffffffffffffffffffffffffffffffffffffffff1663a9e56f3c6040518163ffffffff1660e01b8152600401602060405180830381865afa1580156136b7573d6000803e3d6000fd5b505050506040513d601f19601f820116820180604052508101906136db9190615b0a565b73ffffffffffffffffffffffffffffffffffffffff16639fbf10fc600073ffffffffffffffffffffffffffffffffffffffff1686610140015173ffffffffffffffffffffffffffffffffffffffff161461373a57856101a00151613750565b856101a001518661010001516137509190615a6c565b8451602086015160408701516101008a015160c08b0151309190613775908290610e57565b60405180606001604052808c606001518152602001600081526020016040518060200160405280600081525081525060008c6080015151116137bb578d604001516137bd565b305b6040516020016137f8919060609190911b7fffffffffffffffffffffffffffffffffffffffff00000000000000000000000016815260140190565b604080517fffffffffffffffffffffffffffffffffffffffffffffffffffffffffffffffe08184030181529082905260808e01517fffffffff0000000000000000000000000000000000000000000000000000000060e08d901b1683526138689998979695949392600401615b27565b6000604051808303818588803b15801561388157600080fd5b505af1158015613895573d6000803e3d6000fd5b505060006101a088015250949695505050505050565b604080516101c081018252600080825260208083018290528284018290526060808401839052608080850184905260a080860185905260c0860185905260e08601859052610100860185905261012086018590526101408601859052610160860185905261018086018590526101a08601859052865190810187528481529283018490529482018190528101829052928301528351601401805190855290919073ffffffffffffffffffffffffffffffffffffffff1681528351601401805190855273ffffffffffffffffffffffffffffffffffffffff16602082015260006139a1858051602080820180519092010190915290565b905060006139b58680516002018051915290565b61ffff16905080156139cf57610100850151828201602001525b604083018290528551600101805190875260ff1660019081146060850152865101805190875260ff16600114608084015260007f1c1cf3c8827d48db80e17913589584c81d7f8da7f2100c9a87a7bf64829a0e1060040154606085015173ffffffffffffffffffffffffffffffffffffffff9091169150613a60908790613a565782614d08565b8560200151614d08565b7f1c1cf3c8827d48db80e17913589584c81d7f8da7f2100c9a87a7bf64829a0e145461014087015173ffffffffffffffffffffffffffffffffffffffff91821691635321fbe5911615613ab4576000613abb565b8761010001515b6040518060800160405280886000015173ffffffffffffffffffffffffffffffffffffffff168152602001886020015173ffffffffffffffffffffffffffffffffffffffff16815260200188604001518152602001886080015115158152506040518363ffffffff1660e01b8152600401613b369190615bd3565b60206040518083038185885af1158015613b54573d6000803e3d6000fd5b50505050506040513d601f19601f82011682018060405250810190613b799190615a53565b6101008701525050905173ffffffffffffffffffffffffffffffffffffffff16610140840152505030610120820152919050565b604080516101c081018252600080825260208201819052918101829052606081018290526080810182905260a0810182905260c0810182905260e08101829052610100810182905261012081018290526101408101829052610160810182905261018081018290526101a0810191909152613c786040518060e00160405280600073ffffffffffffffffffffffffffffffffffffffff168152602001606081526020016060815260200160608152602001606081526020016000151581526020016000151581525090565b8351601401805190855273ffffffffffffffffffffffffffffffffffffffff1681526000613cac8580516001018051915290565b60ff1690508067ffffffffffffffff811115613cca57613cca615202565b604051908082528060200260200182016040528015613cf3578160200160208202803683370190505b50602083015260005b81811015613d51578551601401805190875283602001518281518110613d2457613d24615a7f565b73ffffffffffffffffffffffffffffffffffffffff90921660209283029190910190910152600101613cfc565b508451602080820180519092010186526001820367ffffffffffffffff811115613d7d57613d7d615202565b604051908082528060200260200182016040528015613da6578160200160208202803683370190505b50606084015260005b60018303811015613df1578651600201805190885261ffff1684606001518281518110613dde57613dde615a7f565b6020908102919091010152600101613daf565b506000613e048780516001018051915290565b60ff16905060005b81811015613e42576000613e268980516002018051915290565b61010089015161ffff9190911685016020015250600101613e0c565b50604084018290528651600101805190885260ff16600190811460a0860152875101805190885260ff1660011460c085015260007f1c1cf3c8827d48db80e17913589584c81d7f8da7f2100c9a87a7bf64829a0e106004015460a086015173ffffffffffffffffffffffffffffffffffffffff9091169150613eee908890613eca5782614d08565b8660200151600081518110613ee157613ee1615a7f565b6020026020010151614d08565b7f1c1cf3c8827d48db80e17913589584c81d7f8da7f2100c9a87a7bf64829a0e145461014088015173ffffffffffffffffffffffffffffffffffffffff9182169163616afc15911615613f42576000613f49565b8861010001515b6040518060a00160405280896000015173ffffffffffffffffffffffffffffffffffffffff1681526020018960200151815260200189604001518152602001896060015181526020018960c0015115158152506040518363ffffffff1660e01b8152600401613fb89190615c70565b60206040518083038185885af1158015613fd6573d6000803e3d6000fd5b50505050506040513d601f19601f82011682018060405250810190613ffb9190615a53565b6101008801525050915173ffffffffffffffffffffffffffffffffffffffff1661014085015250503061012083015250919050565b73ffffffffffffffffffffffffffffffffffffffff84811660008181527f77fbd1c38a5ead50a5764a860fef6b91e5432a95f91228e67197edaf911cfc90602081815260408084209589168085529582528084208054890190557f77fbd1c38a5ead50a5764a860fef6b91e5432a95f91228e67197edaf911cfc9182529283902080548801905582518781529081018690528251919493927f3d2a5b5aa3c9e4a41eed8ae2e9e470c5cfb96fa51eb0935c607c0fd8ec3f3f5792918290030190a35050505050565b60606141078484600085614eb2565b949350505050565b6141198130614d08565b3061012090910152565b60405173ffffffffffffffffffffffffffffffffffffffff808516602483015283166044820152606481018290526141819085907f23b872dd0000000000000000000000000000000000000000000000000000000090608401610bb2565b50505050565b81811080614196575082820181105b156101e6576040517f946beb5300000000000000000000000000000000000000000000000000000000815260040160405180910390fd5b60608167ffffffffffffffff8111156141e8576141e8615202565b604051908082528060200260200182016040528015614211578160200160208202803683370190505b50905060005b82811015614268578351601401805190855282828151811061423b5761423b615a7f565b73ffffffffffffffffffffffffffffffffffffffff90921660209283029190910190910152600101614217565b5092915050565b60608167ffffffffffffffff81111561428a5761428a615202565b6040519080825280602002602001820160405280156142b3578160200160208202803683370190505b50905060005b8281101561426857835160020180519085528282815181106142dd576142dd615a7f565b61ffff909216602092830291909101909101526001016142b9565b805182516060919067ffffffffffffffff81111561431857614318615202565b604051908082528060200260200182016040528015614341578160200160208202803683370190505b509150848260008151811061435857614358615a7f565b60200260200101818152505060005b8181101561452357600085828151811061438357614383615a7f565b6020026020010151905060008683600161439d9190615a6c565b815181106143ad576143ad615a7f565b6020026020010151905060008984815181106143cb576143cb615a7f565b60200260200101516127106143e09190615927565b61ffff1690506000808886815181106143fb576143fb615a7f565b602002602001015173ffffffffffffffffffffffffffffffffffffffff16630902f1ac6040518163ffffffff1660e01b8152600401606060405180830381865afa15801561444d573d6000803e3d6000fd5b505050506040513d601f19601f820116820180604052508101906144719190615a03565b506dffffffffffffffffffffffffffff1691506dffffffffffffffffffffffffffff1691508373ffffffffffffffffffffffffffffffffffffffff168573ffffffffffffffffffffffffffffffffffffffff1611156144cc57905b828b0282612710020181848d0202816144e7576144e7615959565b049a508a886144f7886001615a6c565b8151811061450757614507615a7f565b6020908102919091010152505060019093019250614367915050565b5050949350505050565b7f3029b773e586da235d6a0709bacd2cb14a2e6562f997f3c8684513a487bcbf7a5460ff1660010361458b576040517f65d4e04900000000000000000000000000000000000000000000000000000000815260040160405180910390fd5b7f3029b773e586da235d6a0709bacd2cb14a2e6562f997f3c8684513a487bcbf7a80547fffffffffffffffffffffffffffffffffffffffffffffffffffffffffffffff0016600117905580517f3029b773e586da235d6a0709bacd2cb14a2e6562f997f3c8684513a487bcbf7b5560208101517f3029b773e586da235d6a0709bacd2cb14a2e6562f997f3c8684513a487bcbf7c80547fffffffffffffffffffffffff000000000000000000000000000000000000000090811673ffffffffffffffffffffffffffffffffffffffff9384161790915560408301517f3029b773e586da235d6a0709bacd2cb14a2e6562f997f3c8684513a487bcbf7d80549092169216919091179055606001517f3029b773e586da235d6a0709bacd2cb14a2e6562f997f3c8684513a487bcbf7e55565b7f3029b773e586da235d6a0709bacd2cb14a2e6562f997f3c8684513a487bcbf7a5460ff1660010361471a576040517f129c8cdb00000000000000000000000000000000000000000000000000000000815260040160405180910390fd5b565b6040805173ffffffffffffffffffffffffffffffffffffffff8416602482015260448082018490528251808303909101815260649091019091526020810180517bffffffffffffffffffffffffffffffffffffffffffffffffffffffff167f095ea7b3000000000000000000000000000000000000000000000000000000001790526147a88482614fcb565b6141815760405173ffffffffffffffffffffffffffffffffffffffff84166024820152600060448201526148029085907f095ea7b30000000000000000000000000000000000000000000000000000000090606401610bb2565b6141818482610f3e565b8860ff1660010361493a5787156148c5576040517fa6417ed600000000000000000000000000000000000000000000000000000000815260ff808716600f90810b6004840152908616900b6024820152604481018490526064810183905273ffffffffffffffffffffffffffffffffffffffff88169063a6417ed69088906084015b6000604051808303818588803b1580156148a757600080fd5b505af11580156148bb573d6000803e3d6000fd5b5050505050614cfd565b6040517f3df0212400000000000000000000000000000000000000000000000000000000815260ff808716600f90810b6004840152908616900b6024820152604481018490526064810183905273ffffffffffffffffffffffffffffffffffffffff881690633df0212490889060840161488e565b8860ff16600203614a7a578715614a05576040517fa6417ed600000000000000000000000000000000000000000000000000000000815260ff808716600f90810b6004840152908616900b6024820152604481018490526064810183905273ffffffffffffffffffffffffffffffffffffffff88169063a6417ed69088906084015b60206040518083038185885af11580156149da573d6000803e3d6000fd5b50505050506040513d601f19601f820116820180604052508101906149ff9190615a53565b50614cfd565b6040517f3df0212400000000000000000000000000000000000000000000000000000000815260ff808716600f90810b6004840152908616900b6024820152604481018490526064810183905273ffffffffffffffffffffffffffffffffffffffff881690633df021249088906084016149bc565b8860ff16600303614c1b578715614af8576040517f65b2489b00000000000000000000000000000000000000000000000000000000815260ff808716600483015285166024820152604481018490526064810183905273ffffffffffffffffffffffffffffffffffffffff8816906365b2489b9088906084016149bc565b8015614b72576040517f394747c500000000000000000000000000000000000000000000000000000000815260ff80871660048301528516602482015260448101849052606481018390526001608482015273ffffffffffffffffffffffffffffffffffffffff88169063394747c590889060a4016149bc565b6040517f5b41b90800000000000000000000000000000000000000000000000000000000815260ff868116600483015285166024820152604481018490526064810183905273ffffffffffffffffffffffffffffffffffffffff881690635b41b908906084016020604051808303816000875af1158015614bf7573d6000803e3d6000fd5b505050506040513d601f19601f820116820180604052508101906149ff9190615a53565b8860ff16600403614ccb578715614c5e576040517ff1c43ede00000000000000000000000000000000000000000000000000000000815260040160405180910390fd5b6040517f5b41b90800000000000000000000000000000000000000000000000000000000815260ff808716600483015285166024820152604481018490526064810183905273ffffffffffffffffffffffffffffffffffffffff881690635b41b90890889060840161488e565b6040517ff1c43ede00000000000000000000000000000000000000000000000000000000815260040160405180910390fd5b505050505050505050565b3073ffffffffffffffffffffffffffffffffffffffff1682610120015173ffffffffffffffffffffffffffffffffffffffff1603614d965761014082015173ffffffffffffffffffffffffffffffffffffffff16156105d5576105d58183610100015184610140015173ffffffffffffffffffffffffffffffffffffffff16610b609092919063ffffffff16565b816101600151600103614e76577f1c1cf3c8827d48db80e17913589584c81d7f8da7f2100c9a87a7bf64829a0e10600101546101208301516101008401516101408501516040517f36c7851600000000000000000000000000000000000000000000000000000000815273ffffffffffffffffffffffffffffffffffffffff938416600482015285841660248201529183166044830152821660648201529116906336c7851690608401600060405180830381600087803b158015614e5a57600080fd5b505af1158015614e6e573d6000803e3d6000fd5b505050505050565b6105d58261012001518284610100015185610140015173ffffffffffffffffffffffffffffffffffffffff16614123909392919063ffffffff16565b606082471015614f44576040517f08c379a000000000000000000000000000000000000000000000000000000000815260206004820152602660248201527f416464726573733a20696e73756666696369656e742062616c616e636520666f60448201527f722063616c6c00000000000000000000000000000000000000000000000000006064820152608401610ec3565b6000808673ffffffffffffffffffffffffffffffffffffffff168587604051614f6d9190615d57565b60006040518083038185875af1925050503d8060008114614faa576040519150601f19603f3d011682016040523d82523d6000602084013e614faf565b606091505b5091509150614fc08783838761508c565b979650505050505050565b60008060008473ffffffffffffffffffffffffffffffffffffffff1684604051614ff59190615d57565b6000604051808303816000865af19150503d8060008114615032576040519150601f19603f3d011682016040523d82523d6000602084013e615037565b606091505b509150915081801561506157508051158061506157508080602001905181019061506191906159c3565b8015615083575073ffffffffffffffffffffffffffffffffffffffff85163b15155b95945050505050565b6060831561512257825160000361511b5773ffffffffffffffffffffffffffffffffffffffff85163b61511b576040517f08c379a000000000000000000000000000000000000000000000000000000000815260206004820152601d60248201527f416464726573733a2063616c6c20746f206e6f6e2d636f6e74726163740000006044820152606401610ec3565b5081614107565b61410783838151156151375781518083602001fd5b806040517f08c379a0000000000000000000000000000000000000000000000000000000008152600401610ec39190615d73565b6000610140828403121561517e57600080fd5b50919050565b6000806040838503121561519757600080fd5b823567ffffffffffffffff808211156151af57600080fd5b6151bb8683870161516b565b935060208501359150808211156151d157600080fd5b508301604081860312156151e457600080fd5b809150509250929050565b61ffff811681146151ff57600080fd5b50565b7f4e487b7100000000000000000000000000000000000000000000000000000000600052604160045260246000fd5b604051610140810167ffffffffffffffff8111828210171561525557615255615202565b60405290565b604051601f82017fffffffffffffffffffffffffffffffffffffffffffffffffffffffffffffffe016810167ffffffffffffffff811182821017156152a2576152a2615202565b604052919050565b600067ffffffffffffffff8211156152c4576152c4615202565b50601f017fffffffffffffffffffffffffffffffffffffffffffffffffffffffffffffffe01660200190565b600082601f83011261530157600080fd5b813561531461530f826152aa565b61525b565b81815284602083860101111561532957600080fd5b816020850160208301376000918101602001919091529392505050565b73ffffffffffffffffffffffffffffffffffffffff811681146151ff57600080fd5b60008060008060008060c0878903121561538157600080fd5b863561538c816151ef565b9550602087013567ffffffffffffffff808211156153a957600080fd5b6153b58a838b016152f0565b965060408901359550606089013591506153ce82615346565b9093506080880135925060a088013590808211156153eb57600080fd5b506153f889828a016152f0565b9150509295509295509295565b60006020828403121561541757600080fd5b813567ffffffffffffffff81111561542e57600080fd5b6141078482850161516b565b60006020828403121561544c57600080fd5b8135610e7e81615346565b65ffffffffffff811681146151ff57600080fd5b60006020828403121561547d57600080fd5b8135610e7e81615457565b60008083357fffffffffffffffffffffffffffffffffffffffffffffffffffffffffffffffe18436030181126154bd57600080fd5b83018035915067ffffffffffffffff8211156154d857600080fd5b6020019150368190038213156154ed57600080fd5b9250929050565b600061010073ffffffffffffffffffffffffffffffffffffffff80881684528651818151166020860152816020820151166040860152604081015165ffffffffffff80821660608801528060608401511660808801525050508060208801511660a085015250604086015160c08401528060e08401528381840152506101208385828501376000838501820152601f9093017fffffffffffffffffffffffffffffffffffffffffffffffffffffffffffffffe016909101909101949350505050565b80516155c181615346565b919050565b80516155c1816151ef565b80516155c181615457565b60005b838110156155f75781810151838201526020016155df565b50506000910152565b600082601f83011261561157600080fd5b815161561f61530f826152aa565b81815284602083860101111561563457600080fd5b6141078260208301602087016155dc565b60006020828403121561565757600080fd5b815167ffffffffffffffff8082111561566f57600080fd5b90830190610140828603121561568457600080fd5b61568c615231565b615695836155b6565b81526156a3602084016155c6565b60208201526156b4604084016155c6565b60408201526156c5606084016155b6565b60608201526156d6608084016155b6565b60808201526156e760a084016155b6565b60a082015260c083015160c082015260e083015160e082015261010061570e8185016155d1565b90820152610120838101518381111561572657600080fd5b61573288828701615600565b918301919091525095945050505050565b6000815180845261575b8160208601602086016155dc565b601f017fffffffffffffffffffffffffffffffffffffffffffffffffffffffffffffffe0169290920160200192915050565b602081526157b460208201835173ffffffffffffffffffffffffffffffffffffffff169052565b600060208301516157cb604084018261ffff169052565b50604083015161ffff8116606084015250606083015173ffffffffffffffffffffffffffffffffffffffff8116608084015250608083015173ffffffffffffffffffffffffffffffffffffffff811660a08401525060a083015173ffffffffffffffffffffffffffffffffffffffff811660c08401525060c083015160e083015260e08301516101008181850152808501519150506101206158768185018365ffffffffffff169052565b840151610140848101529050614107610160840182615743565b7f4e487b7100000000000000000000000000000000000000000000000000000000600052601160045260246000fd5b81810381811115610e5157610e51615890565b6000602082840312156158e457600080fd5b8135610e7e816151ef565b60007fffffffffffffffffffffffffffffffffffffffffffffffffffffffffffffffff820361592057615920615890565b5060010190565b61ffff82811682821603908082111561426857614268615890565b8082028115828204841417610e5157610e51615890565b7f4e487b7100000000000000000000000000000000000000000000000000000000600052601260045260246000fd5b6000826159be577f4e487b7100000000000000000000000000000000000000000000000000000000600052601260045260246000fd5b500490565b6000602082840312156159d557600080fd5b81518015158114610e7e57600080fd5b80516dffffffffffffffffffffffffffff811681146155c157600080fd5b600080600060608486031215615a1857600080fd5b615a21846159e5565b9250615a2f602085016159e5565b9150604084015163ffffffff81168114615a4857600080fd5b809150509250925092565b600060208284031215615a6557600080fd5b5051919050565b80820180821115610e5157610e51615890565b7f4e487b7100000000000000000000000000000000000000000000000000000000600052603260045260246000fd5b60008060408385031215615ac157600080fd5b505080516020909101519092909150565b60007f80000000000000000000000000000000000000000000000000000000000000008203615b0357615b03615890565b5060000390565b600060208284031215615b1c57600080fd5b8151610e7e81615346565b600061012061ffff8c1683528a602084015289604084015273ffffffffffffffffffffffffffffffffffffffff891660608401528760808401528660a08401528060c084015285518184015250602085015161014083015260408501516060610160840152615b9a610180840182615743565b905082810360e0840152615bae8186615743565b9050828103610100840152615bc38185615743565b9c9b505050505050505050505050565b60208152600073ffffffffffffffffffffffffffffffffffffffff80845116602084015280602085015116604084015250604083015160806060840152615c1d60a0840182615743565b90506060840151151560808401528091505092915050565b600081518084526020808501945080840160005b83811015615c6557815187529582019590820190600101615c49565b509495945050505050565b6000602080835260c0830173ffffffffffffffffffffffffffffffffffffffff80865116838601528286015160a0604087015282815180855260e0880191508583019450600092505b80831015615cdb57845184168252938501936001929092019190850190615cb9565b50604088015194507fffffffffffffffffffffffffffffffffffffffffffffffffffffffffffffffe0935083878203016060880152615d1a8186615743565b9450505050606085015181858403016080860152615d388382615c35565b925050506080840151615d4f60a085018215159052565b509392505050565b60008251615d698184602087016155dc565b9190910192915050565b602081526000610e7e602083018461574356fea264697066735822122015fbb33e2577e970c080d42d7088bf5b11b794d30dcae7d0a0858033f1fec35c64736f6c63430008130033",
  "devdoc": {
    "kind": "dev",
    "methods": {},
    "version": 1
  },
  "userdoc": {
    "errors": {
      "FeeTooHigh(uint256)": [
        {
          "notice": "The swap fee is over the maximum allowed"
        },
        {
          "notice": "The swap fee is over the maximum allowed"
        }
      ]
    },
    "kind": "user",
    "methods": {
      "sgReceive(uint16,bytes,uint256,address,uint256,bytes)": {
        "notice": "Cross-chain callback from Stargate The tokens have already been received by this contract, `t.payer` is set to this contract before `sgReceive` is called by the router. The `_nonce` field is not checked since it's assumed that LayerZero will not deliver the same message more than once. The Stargate composer is trusted, meaning `_token` and `amountLD` is not verified. Should the Stargate composer be compromised, an attacker can drain this contract. If the payload can not be decoded, tokens are left in this contract. If execution runs out of gas, tokens are left in this contract. If an error occurs during engage, such as insufficient output amount, tokens are refunded to the recipient. See https://stargateprotocol.gitbook.io/stargate/interfaces/evm-solidity-interfaces/istargatereceiver.sol"
      }
    },
    "version": 1
  },
  "storageLayout": {
    "storage": [],
    "types": null
  }
}