{"contracts/UniversalRouter.sol":{"UniversalRouter":{"abi":[{"inputs":[{"components":[{"internalType":"address","name":"weth","type":"address"},{"internalType":"address","name":"balancerRouter","type":"address"},{"internalType":"address","name":"quickswapV2Factory","type":"address"},{"internalType":"address","name":"uniswapV3Factory","type":"address"},{"internalType":"address","name":"sushiswapRouter","type":"address"},{"internalType":"address","name":"meshswapRouter","type":"address"},{"internalType":"address","name":"hyphenBridge","type":"address"},{"internalType":"address","name":"celerBridge","type":"address"},{"internalType":"address","name":"hopEthBridge","type":"address"},{"internalType":"address","name":"hopUsdcBridge","type":"address"},{"internalType":"address","name":"hopUsdtBridge","type":"address"},{"internalType":"address","name":"hopDaiBridge","type":"address"},{"internalType":"address","name":"hopWbtcBridge","type":"address"},{"internalType":"address","name":"hopMaticBridge","type":"address"},{"internalType":"address","name":"acrossBridge","type":"address"},{"internalType":"address","name":"multichainEthBridge","type":"address"},{"internalType":"address","name":"multichainErc20Bridge","type":"address"},{"internalType":"address","name":"synapseBridge","type":"address"},{"internalType":"address","name":"allBridge","type":"address"},{"internalType":"address","name":"portalBridge","type":"address"},{"internalType":"address","name":"polygonPosBridge","type":"address"},{"internalType":"address","name":"polygonApproveAddr","type":"address"}],"internalType":"struct RouterParameters","name":"params","type":"tuple"}],"stateMutability":"nonpayable","type":"constructor"},{"inputs":[],"name":"BadPool","type":"error"},{"inputs":[],"name":"BadSwapType","type":"error"},{"inputs":[],"name":"DeadlinePassed","type":"error"},{"inputs":[{"internalType":"bytes1","name":"command","type":"bytes1"},{"internalType":"uint256","name":"commandNum","type":"uint256"},{"internalType":"bytes","name":"output","type":"bytes"}],"name":"FailedCommand","type":"error"},{"inputs":[],"name":"FailedSwap","type":"error"},{"inputs":[],"name":"IncorrectETHValue","type":"error"},{"inputs":[],"name":"IncorrectFromToken","type":"error"},{"inputs":[],"name":"InsufficientEth","type":"error"},{"inputs":[],"name":"InsufficientLiquidity","type":"error"},{"inputs":[],"name":"InsufficientOutput","type":"error"},{"inputs":[],"name":"InvalidCommand","type":"error"},{"inputs":[],"name":"InvalidInputLength","type":"error"},{"inputs":[],"name":"InvalidToken","type":"error"},{"inputs":[],"name":"InvalidTokenAmount","type":"error"},{"inputs":[],"name":"NothingReceived","type":"error"},{"inputs":[{"internalType":"bytes","name":"message","type":"bytes"}],"name":"ThrowingError","type":"error"},{"inputs":[],"name":"Unauthorized","type":"error"},{"inputs":[{"internalType":"bytes[]","name":"commands","type":"bytes[]"},{"internalType":"bytes[]","name":"inputs","type":"bytes[]"}],"name":"multiExecute","outputs":[],"stateMutability":"payable","type":"function"},{"inputs":[{"internalType":"bytes[]","name":"commands","type":"bytes[]"},{"internalType":"bytes[]","name":"inputs","type":"bytes[]"},{"internalType":"uint256","name":"deadline","type":"uint256"}],"name":"routeExecute","outputs":[],"stateMutability":"payable","type":"function"},{"inputs":[{"internalType":"bytes","name":"commands","type":"bytes"},{"internalType":"bytes","name":"input","type":"bytes"}],"name":"singleExecute","outputs":[],"stateMutability":"payable","type":"function"},{"inputs":[{"internalType":"int256","name":"amount0Delta","type":"int256"},{"internalType":"int256","name":"amount1Delta","type":"int256"},{"internalType":"bytes","name":"_data","type":"bytes"}],"name":"uniswapV3SwapCallback","outputs":[],"stateMutability":"nonpayable","type":"function"},{"inputs":[{"internalType":"contract ERC20[]","name":"_tokens","type":"address[]"},{"internalType":"address","name":"_receiver","type":"address"}],"name":"withdrawERC20","outputs":[],"stateMutability":"nonpayable","type":"function"},{"inputs":[{"internalType":"address","name":"_receiver","type":"address"}],"name":"withdrawETH","outputs":[],"stateMutability":"nonpayable","type":"function"},{"stateMutability":"payable","type":"receive"}],"evm":{"bytecode":{"linkReferences":{},"object":"6103406040523480156200001257600080fd5b5060405162005cef38038062005cef83398181016040528101906200003891906200086e565b80806000015173ffffffffffffffffffffffffffffffffffffffff1660808173ffffffffffffffffffffffffffffffffffffffff1681525050806020015173ffffffffffffffffffffffffffffffffffffffff1660a08173ffffffffffffffffffffffffffffffffffffffff1681525050806040015173ffffffffffffffffffffffffffffffffffffffff1660c08173ffffffffffffffffffffffffffffffffffffffff1681525050806060015173ffffffffffffffffffffffffffffffffffffffff1660e08173ffffffffffffffffffffffffffffffffffffffff1681525050806080015173ffffffffffffffffffffffffffffffffffffffff166101008173ffffffffffffffffffffffffffffffffffffffff16815250508060a0015173ffffffffffffffffffffffffffffffffffffffff166101208173ffffffffffffffffffffffffffffffffffffffff16815250508060c0015173ffffffffffffffffffffffffffffffffffffffff166101408173ffffffffffffffffffffffffffffffffffffffff16815250508060e0015173ffffffffffffffffffffffffffffffffffffffff166101608173ffffffffffffffffffffffffffffffffffffffff168152505080610100015173ffffffffffffffffffffffffffffffffffffffff166101808173ffffffffffffffffffffffffffffffffffffffff168152505080610120015173ffffffffffffffffffffffffffffffffffffffff166101a08173ffffffffffffffffffffffffffffffffffffffff168152505080610140015173ffffffffffffffffffffffffffffffffffffffff166101c08173ffffffffffffffffffffffffffffffffffffffff168152505080610160015173ffffffffffffffffffffffffffffffffffffffff166101e08173ffffffffffffffffffffffffffffffffffffffff168152505080610180015173ffffffffffffffffffffffffffffffffffffffff166102008173ffffffffffffffffffffffffffffffffffffffff1681525050806101a0015173ffffffffffffffffffffffffffffffffffffffff166102208173ffffffffffffffffffffffffffffffffffffffff1681525050806101c0015173ffffffffffffffffffffffffffffffffffffffff166102408173ffffffffffffffffffffffffffffffffffffffff1681525050806101e0015173ffffffffffffffffffffffffffffffffffffffff166102608173ffffffffffffffffffffffffffffffffffffffff168152505080610200015173ffffffffffffffffffffffffffffffffffffffff166102808173ffffffffffffffffffffffffffffffffffffffff168152505080610220015173ffffffffffffffffffffffffffffffffffffffff166102a08173ffffffffffffffffffffffffffffffffffffffff168152505080610240015173ffffffffffffffffffffffffffffffffffffffff166102c08173ffffffffffffffffffffffffffffffffffffffff168152505080610260015173ffffffffffffffffffffffffffffffffffffffff166102e08173ffffffffffffffffffffffffffffffffffffffff168152505080610280015173ffffffffffffffffffffffffffffffffffffffff166103008173ffffffffffffffffffffffffffffffffffffffff1681525050806102a0015173ffffffffffffffffffffffffffffffffffffffff166103208173ffffffffffffffffffffffffffffffffffffffff16815250505050620008a1565b6000604051905090565b600080fd5b600080fd5b6000601f19601f8301169050919050565b7f4e487b7100000000000000000000000000000000000000000000000000000000600052604160045260246000fd5b620005908262000545565b810181811067ffffffffffffffff82111715620005b257620005b162000556565b5b80604052505050565b6000620005c762000531565b9050620005d5828262000585565b919050565b600073ffffffffffffffffffffffffffffffffffffffff82169050919050565b60006200060782620005da565b9050919050565b6200061981620005fa565b81146200062557600080fd5b50565b60008151905062000639816200060e565b92915050565b60006102c0828403121562000659576200065862000540565b5b620006666102c0620005bb565b90506000620006788482850162000628565b60008301525060206200068e8482850162000628565b6020830152506040620006a48482850162000628565b6040830152506060620006ba8482850162000628565b6060830152506080620006d08482850162000628565b60808301525060a0620006e68482850162000628565b60a08301525060c0620006fc8482850162000628565b60c08301525060e0620007128482850162000628565b60e083015250610100620007298482850162000628565b61010083015250610120620007418482850162000628565b61012083015250610140620007598482850162000628565b61014083015250610160620007718482850162000628565b61016083015250610180620007898482850162000628565b610180830152506101a0620007a18482850162000628565b6101a0830152506101c0620007b98482850162000628565b6101c0830152506101e0620007d18482850162000628565b6101e083015250610200620007e98482850162000628565b61020083015250610220620008018482850162000628565b61022083015250610240620008198482850162000628565b61024083015250610260620008318482850162000628565b61026083015250610280620008498482850162000628565b610280830152506102a0620008618482850162000628565b6102a08301525092915050565b60006102c082840312156200088857620008876200053b565b5b600062000898848285016200063f565b91505092915050565b60805160a05160c05160e05161010051610120516101405161016051610180516101a0516101c0516101e05161020051610220516102405161026051610280516102a0516102c0516102e05161030051610320516152f3620009fc6000396000611af701526000611b2801526000818161195e01526119e401526000611a9c0152600061173a01526000818161179401526117c401526000611865015260006116b4015260006115070152600061158b0152600061152d01526000611554015260006115b1015260006115d8015260006116f701526000611908015260006112d1015260006112f701526000611c3b01526000613e7601526000818161139b015261141b0152600081816109df0152818161259c015281816126770152818161270e0152818161285f01528181612a2901528181612b0a01528181612b9b0152818161359b015281816139470152613b4b01526152f36000f3fe6080604052600436106100595760003560e01c8063340ed32a1461006557806336c9a1d21461008e5780635fda5f7f146100aa578063690d8320146100c6578063cf06783c146100ef578063fa461e331461010b57610060565b3661006057005b600080fd5b34801561007157600080fd5b5061008c60048036038101906100879190613ff0565b610134565b005b6100a860048036038101906100a391906142a8565b6102af565b005b6100c460048036038101906100bf9190614333565b610349565b005b3480156100d257600080fd5b506100ed60048036038101906100e891906143ab565b61073e565b005b610109600480360381019061010491906143d8565b610801565b005b34801561011757600080fd5b50610132600480360381019061012d91906144dc565b610933565b005b73e9290c80b28db1b3d9853ab1ee60c6630b87f57e73ffffffffffffffffffffffffffffffffffffffff163373ffffffffffffffffffffffffffffffffffffffff16146101ad576040517f82b4290000000000000000000000000000000000000000000000000000000000815260040160405180910390fd5b60005b838390508110156102a95761029c8484838181106101d1576101d0614550565b5b90506020020160208101906101e691906145bd565b838686858181106101fa576101f9614550565b5b905060200201602081019061020f91906145bd565b73ffffffffffffffffffffffffffffffffffffffff166370a08231306040518263ffffffff1660e01b815260040161024791906145f9565b60206040518083038186803b15801561025f57600080fd5b505afa158015610273573d6000803e3d6000fd5b505050506040513d601f19601f820116820180604052508101906102979190614629565b610a93565b80806001019150506101b0565b50505050565b80804211156102ea576040517f70f65caa00000000000000000000000000000000000000000000000000000000815260040160405180910390fd5b6001845111610338576103338460008151811061030a57610309614550565b5b60200260200101518460008151811061032657610325614550565b5b6020026020010151610801565b610343565b6103428484610349565b5b50505050565b60006060600080600080344761035f9190614685565b905060005b87518110156106f957600089828151811061038257610381614550565b5b602002602001015160008151811061039d5761039c614550565b5b602001015160f81c60f81b905060008983815181106103bf576103be614550565b5b602002602001015190506000601f60f81b831690506000841180156103e957506103e883610b2b565b5b156105fd57600460f81b817effffffffffffffffffffffffffffffffffffffffffffffffffffffffffffff19161415610446576104418c858151811061043257610431614550565b5b60200260200101516001610b62565b610486565b8b848151811061045957610458614550565b5b602002602001015160018151811061047457610473614550565b5b602001015160f81c60f81b60f81c60ff165b61ffff169650600460f81b817effffffffffffffffffffffffffffffffffffffffffffffffffffffffffffff191614156104e4576104df8c85815181106104d0576104cf614550565b5b60200260200101516003610b62565b610524565b8b84815181106104f7576104f6614550565b5b602002602001015160028151811061051257610511614550565b5b602001015160f81c60f81b60f81c60ff165b61ffff169750610581601f60f81b8d6001876105409190614685565b8151811061055157610550614550565b5b602002602001015160008151811061056c5761056b614550565b5b602001015160f81c60f81b16848a858d610b73565b9150600560f81b817effffffffffffffffffffffffffffffffffffffffffffffffffffffffffffff19161180156105e45750600060f81b602060f81b84167effffffffffffffffffffffffffffffffffffffffffffffffffffffffffffff191614155b156105f85784476105f59190614685565b95505b610648565b61063b8c858151811061061357610612614550565b5b60200260200101518c868151811061062e5761062d614550565b5b6020026020010151610f03565b809450819950829a505050505b61068e83888a856000891461065d578a610689565b600034146106855761271061270e3461067691906146b9565b6106809190614742565b610688565b60005b5b611214565b809a50819b505050896106dc5782848a6040517fac70f6b30000000000000000000000000000000000000000000000000000000081526004016106d393929190614845565b60405180910390fd5b600086146106e957600095505b8380600101945050505050610364565b5080471015610734576040517fa01a9df600000000000000000000000000000000000000000000000000000000815260040160405180910390fd5b5050505050505050565b73e9290c80b28db1b3d9853ab1ee60c6630b87f57e73ffffffffffffffffffffffffffffffffffffffff163373ffffffffffffffffffffffffffffffffffffffff16146107b7576040517f82b4290000000000000000000000000000000000000000000000000000000000815260040160405180910390fd5b8073ffffffffffffffffffffffffffffffffffffffff166108fc479081150290604051600060405180830381858888f193505050501580156107fd573d6000803e3d6000fd5b5050565b60006060600080600034476108169190614685565b90506108228787610f03565b8098508194508295505050506108838760008151811061084557610844614550565b5b602001015160f81c60f81b8385896000341461087b5761271061270e3461086c91906146b9565b6108769190614742565b61087e565b60005b611214565b8095508196505050846108f057866000815181106108a4576108a3614550565b5b602001015160f81c60f81b6000856040517fac70f6b30000000000000000000000000000000000000000000000000000000081526004016108e7939291906148c8565b60405180910390fd5b8047101561092a576040517fa01a9df600000000000000000000000000000000000000000000000000000000815260040160405180910390fd5b50505050505050565b60008413806109425750600083135b61094b57600080fd5b600080600061099d85858080601f016020809104026020016040519081016040528093929190818152602001838380828437600081840152601f19601f82011690508083019250505050505050611bc5565b925092509250600073ffffffffffffffffffffffffffffffffffffffff168373ffffffffffffffffffffffffffffffffffffffff16146109dd57826109ff565b7f00000000000000000000000000000000000000000000000000000000000000005b9250610a0c838383611bf8565b73ffffffffffffffffffffffffffffffffffffffff163373ffffffffffffffffffffffffffffffffffffffff1614610a70576040517fb2c0272200000000000000000000000000000000000000000000000000000000815260040160405180910390fd5b610a8a833360008a13610a835788610a85565b895b610a93565b50505050505050565b60006040517fa9059cbb000000000000000000000000000000000000000000000000000000008152836004820152826024820152602060006044836000895af13d15601f3d1160016000511416171691505080610b25576040517f08c379a0000000000000000000000000000000000000000000000000000000008152600401610b1c90614963565b60405180910390fd5b50505050565b60008060f81b604060f81b83167effffffffffffffffffffffffffffffffffffffffffffffffffffffffffffff1916149050919050565b600081600284010151905092915050565b6060600a60f81b601f60f81b86167effffffffffffffffffffffffffffffffffffffffffffffffffffffffffffff1916118015610bdc5750600060f81b602060f81b86167effffffffffffffffffffffffffffffffffffffffffffffffffffffffffffff191614155b15610be957829050610efa565b6000600460f81b877effffffffffffffffffffffffffffffffffffffffffffffffffffffffffffff1916148015610c21575060208351115b15610c7557610c338360406020611cdd565b806020019051810190610c469190614998565b610c4f906149c5565b604051602001610c5f9190614a0e565b6040516020818303038152906040529250610d88565b600060f81b877effffffffffffffffffffffffffffffffffffffffffffffffffffffffffffff1916118015610ccf5750600560f81b877effffffffffffffffffffffffffffffffffffffffffffffffffffffffffffff1916105b15610cd957610d87565b600060f81b877effffffffffffffffffffffffffffffffffffffffffffffffffffffffffffff19161415610d1c5760208351610d159190614685565b9050610d86565b600560f81b877effffffffffffffffffffffffffffffffffffffffffffffffffffffffffffff19161415610d535760449050610d85565b6040517f12f269e500000000000000000000000000000000000000000000000000000000815260040160405180910390fd5b5b5b5b600460f81b601f60f81b87167effffffffffffffffffffffffffffffffffffffffffffffffffffffffffffff1916148015610def5750600060f81b602060f81b87167effffffffffffffffffffffffffffffffffffffffffffffffffffffffffffff191614155b15610e9c576000610e0c85604088610e079190614685565b611d36565b6020610e1891906146b9565b6024610e258760e4611d36565b610e2f9190614a29565b610e399190614a29565b90506000610e80610e4c86856020611cdd565b610e7b88602086610e5d9190614a29565b6020878c51610e6c9190614685565b610e769190614685565b611cdd565b611d47565b9050610e97610e9187600085611cdd565b82611d47565b955050505b610ea884600087611cdd565b9150610ef682610ef1610ebd86856020611cdd565b610eec8860208b610ece9190614a29565b60208c8c51610edd9190614685565b610ee79190614685565b611cdd565b611d47565b611d47565b9150505b95945050505050565b60008060606000601f60f81b86600081518110610f2357610f22614550565b5b602001015160f81c60f81b1660f81c60ff16905060048114610f925785600181518110610f5357610f52614550565b5b602001015160f81c60f81b60f81c60ff16925085600281518110610f7a57610f79614550565b5b602001015160f81c60f81b60f81c60ff1693506110fe565b600060f81b602060f81b87600081518110610fb057610faf614550565b5b602001015160f81c60f81b167effffffffffffffffffffffffffffffffffffffffffffffffffffffffffffff19161415610ff357610130925061016493506110fd565b601485516110019190614685565b925061100f85610144611d36565b6101a461101c9190614a29565b93506000611036866040876110319190614685565b611d36565b602061104291906146b9565b602461104f8860e4611d36565b6110599190614a29565b6110639190614a29565b905060006110e161271061270e61107a8a86611d36565b61108491906146b9565b61108e9190614742565b60405160200161109e9190614a0e565b6040516020818303038152906040526110dc896020866110be9190614a29565b6020878d516110cd9190614685565b6110d79190614685565b611cdd565b611d47565b90506110f86110f288600085611cdd565b82611d47565b965050505b5b600a8111801561110e5750600034115b15611122578383869350935093505061120d565b600061112e8686611d36565b9050600034141561114f5761114e6111468786611dd1565b333084611de2565b5b60006111c261271061270e8461116591906146b9565b61116f9190614742565b60405160200161117f9190614a0e565b6040516020818303038152906040526111bd8960208a61119f9190614a29565b60208b8d516111ae9190614685565b6111b89190614685565b611cdd565b611d47565b905060018314806111d35750600283145b156111e95785858295509550955050505061120d565b6111fe6111f888600089611cdd565b82611d47565b96508585889550955095505050505b9250925092565b600060606000601f60f81b881660f81c60ff16905060068110156114b257600381101561134957600181141561126c5761126185611252878a611dd1565b61125c888a611d36565b611e81565b915060019250611344565b600281141561129d5761129285611283878a611dd1565b61128d888a611d36565b6127c6565b915060019250611343565b60008114156113425760006112bf86600188516112ba9190614685565b612c72565b60ff169050611338600082146112f5577f0000000000000000000000000000000000000000000000000000000000000000611317565b7f00000000000000000000000000000000000000000000000000000000000000005b8989886113338b600060018e5161132e9190614685565b611cdd565b612c83565b8094508195505050505b5b5b6114ad565b600381141561137a5761136f85611360878a611dd1565b61136a888a611d36565b612d29565b9150600192506114ac565b60048114156114ab5760008414156113ca576113c96113998689611dd1565b7f00000000000000000000000000000000000000000000000000000000000000006113c4888a611d36565b6133bc565b5b600060f81b602060f81b89167effffffffffffffffffffffffffffffffffffffffffffffffffffffffffffff19161461141957611416856000601488516114119190614685565b611cdd565b94505b7f000000000000000000000000000000000000000000000000000000000000000073ffffffffffffffffffffffffffffffffffffffff16848660405161145f9190614abb565b60006040518083038185875af1925050503d806000811461149c576040519150601f19603f3d011682016040523d82523d6000602084013e6114a1565b606091505b5080935081945050505b5b5b611bba565b600f811015611ad657600a8110156117735760068114156116a65760006114e686600188516114e19190614685565b612c72565b60ff1690506000600382106115795760038214611552576004821461152b577f000000000000000000000000000000000000000000000000000000000000000061154d565b7f00000000000000000000000000000000000000000000000000000000000000005b611574565b7f00000000000000000000000000000000000000000000000000000000000000005b6115f9565b600082146115d657600182146115af577f00000000000000000000000000000000000000000000000000000000000000006115d1565b7f00000000000000000000000000000000000000000000000000000000000000005b6115f8565b7f00000000000000000000000000000000000000000000000000000000000000005b5b9050600086141561162257611621611611888b611dd1565b8261161c8a8c611d36565b6133bc565b5b8073ffffffffffffffffffffffffffffffffffffffff168661164789600060f8611cdd565b6040516116549190614abb565b60006040518083038185875af1925050503d8060008114611691576040519150601f19603f3d011682016040523d82523d6000602084013e611696565b606091505b508095508196505050505061176e565b60078114156116e9576116dc7f000000000000000000000000000000000000000000000000000000000000000088888789612c83565b809350819450505061176d565b600881141561172c5761171f7f000000000000000000000000000000000000000000000000000000000000000088888789612c83565b809350819450505061176c565b600981141561176b576117627f000000000000000000000000000000000000000000000000000000000000000088888789612c83565b80935081945050505b5b5b5b611ad1565b600c8114156118fa576000841415611863576117c26117928689611dd1565b7f00000000000000000000000000000000000000000000000000000000000000006117bd888a611d36565b6133bc565b7f000000000000000000000000000000000000000000000000000000000000000073ffffffffffffffffffffffffffffffffffffffff166118068660006090611cdd565b6040516118139190614abb565b6000604051808303816000865af19150503d8060008114611850576040519150601f19603f3d011682016040523d82523d6000602084013e611855565b606091505b5080935081945050506118f5565b7f000000000000000000000000000000000000000000000000000000000000000073ffffffffffffffffffffffffffffffffffffffff1684866040516118a99190614abb565b60006040518083038185875af1925050503d80600081146118e6576040519150601f19603f3d011682016040523d82523d6000602084013e6118eb565b606091505b5080935081945050505b611ad0565b600d81141561193d576119307f000000000000000000000000000000000000000000000000000000000000000088888789612c83565b8093508194505050611acf565b600e811415611a8e57600084141561198d5761198c61195c8689611dd1565b7f0000000000000000000000000000000000000000000000000000000000000000611987888a611d36565b6133bc565b5b600061199a866070611dd1565b73ffffffffffffffffffffffffffffffffffffffff1660001b6119be876084611d36565b426040516020016119d193929190614aeb565b60405160208183030381529060405290507f000000000000000000000000000000000000000000000000000000000000000073ffffffffffffffffffffffffffffffffffffffff1685611a30611a2a8960006064611cdd565b84611d47565b604051611a3d9190614abb565b60006040518083038185875af1925050503d8060008114611a7a576040519150601f19603f3d011682016040523d82523d6000602084013e611a7f565b606091505b50809450819550505050611ace565b600b811415611acd57611ac47f000000000000000000000000000000000000000000000000000000000000000088888789612c83565b80935081945050505b5b5b5b5b611bb9565b6010811415611bb8576000841415611b2657611b25611af58689611dd1565b7f0000000000000000000000000000000000000000000000000000000000000000611b20888a611d36565b6133bc565b5b7f000000000000000000000000000000000000000000000000000000000000000073ffffffffffffffffffffffffffffffffffffffff168486604051611b6c9190614abb565b60006040518083038185875af1925050503d8060008114611ba9576040519150601f19603f3d011682016040523d82523d6000602084013e611bae565b606091505b5080935081945050505b5b5b509550959350505050565b6000806000611bd5846000611dd1565b9250611be2846014613454565b9050611bef846017611dd1565b91509193909250565b60008273ffffffffffffffffffffffffffffffffffffffff168473ffffffffffffffffffffffffffffffffffffffff161115611c3957828480945081955050505b7f0000000000000000000000000000000000000000000000000000000000000000848484604051602001611c6f93929190614b40565b604051602081830303815290604052805190602001207fe34f199b19b2b4f47f68442619d555527d244f78a3297ea89325f843f87b8b5460001b604051602001611cbb93929190614c37565b6040516020818303038152906040528051906020012060001c90509392505050565b60606040519050601f821680156020028183010183810185831560200284890101015b81831015611d1d5780518352602083019250602081019050611d00565b50848452601f19601f8301166040525050509392505050565b600081602084010151905092915050565b6060806040519050835180825260208201818101602087015b81831015611d7d5780518352602083019250602081019050611d60565b50855192508351830184528091508282019050602086015b81831015611db25780518352602083019250602081019050611d95565b50601f19601f8851850115830101166040525050508091505092915050565b600081601484010151905092915050565b60006040517f23b872dd0000000000000000000000000000000000000000000000000000000081528460048201528360248201528260448201526020600060648360008a5af13d15601f3d1160016000511416171691505080611e7a576040517f08c379a0000000000000000000000000000000000000000000000000000000008152600401611e7190614ccb565b60405180910390fd5b5050505050565b60606000611e9c8560028751611e979190614685565b612c72565b60ff169050600080611ebb8760018951611eb69190614685565b612c72565b60ff1614611edf57611eda8660168851611ed59190614685565b611dd1565b611ee1565b335b90506000806000611ef489898988613465565b925092509250600185111561236a57600082600181518110611f1957611f18614550565b5b602002602001015173ffffffffffffffffffffffffffffffffffffffff1683600081518110611f4b57611f4a614550565b5b602002602001015173ffffffffffffffffffffffffffffffffffffffff1610611f75576000611f78565b60015b905083600081518110611f8e57611f8d614550565b5b602002602001015173ffffffffffffffffffffffffffffffffffffffff1663022c0d9f82611fd75783600081518110611fca57611fc9614550565b5b6020026020010151611fda565b60005b83611fe6576000612003565b84600081518110611ffa57611ff9614550565b5b60200260200101515b8760018151811061201757612016614550565b5b60200260200101516040518463ffffffff1660e01b815260040161203d93929190614d11565b600060405180830381600087803b15801561205757600080fd5b505af115801561206b573d6000803e3d6000fd5b50505050600060018761207e9190614685565b90506000600190505b81811015612218578460018261209d9190614a29565b815181106120ae576120ad614550565b5b602002602001015173ffffffffffffffffffffffffffffffffffffffff168582815181106120df576120de614550565b5b602002602001015173ffffffffffffffffffffffffffffffffffffffff161061210957600061210c565b60015b925085818151811061212157612120614550565b5b602002602001015173ffffffffffffffffffffffffffffffffffffffff1663022c0d9f846121695785838151811061215c5761215b614550565b5b602002602001015161216c565b60005b85612178576000612194565b86848151811061218b5761218a614550565b5b60200260200101515b896001866121a29190614a29565b815181106121b3576121b2614550565b5b60200260200101516040518463ffffffff1660e01b81526004016121d993929190614d11565b600060405180830381600087803b1580156121f357600080fd5b505af1158015612207573d6000803e3d6000fd5b505050508080600101915050612087565b5083878151811061222c5761222b614550565b5b602002602001015173ffffffffffffffffffffffffffffffffffffffff1684828151811061225d5761225c614550565b5b602002602001015173ffffffffffffffffffffffffffffffffffffffff161061228757600061228a565b60015b915084818151811061229f5761229e614550565b5b602002602001015173ffffffffffffffffffffffffffffffffffffffff1663022c0d9f836122e7578483815181106122da576122d9614550565b5b60200260200101516122ea565b60005b846122f6576000612312565b85848151811061230957612308614550565b5b60200260200101515b896040518463ffffffff1660e01b815260040161233193929190614d11565b600060405180830381600087803b15801561234b57600080fd5b505af115801561235f573d6000803e3d6000fd5b505050505050612517565b6000826001815181106123805761237f614550565b5b602002602001015173ffffffffffffffffffffffffffffffffffffffff16836000815181106123b2576123b1614550565b5b602002602001015173ffffffffffffffffffffffffffffffffffffffff16106123dc5760006123df565b60015b9050836000815181106123f5576123f4614550565b5b602002602001015173ffffffffffffffffffffffffffffffffffffffff1663022c0d9f8261243e578360008151811061243157612430614550565b5b6020026020010151612441565b60005b8361244d57600061246a565b8460008151811061246157612460614550565b5b60200260200101515b886040518463ffffffff1660e01b815260040161248993929190614d11565b600060405180830381600087803b1580156124a357600080fd5b505af11580156124b7573d6000803e3d6000fd5b505050506125156040518060400160405280600981526020017f70616972207a65726f00000000000000000000000000000000000000000000008152508560008151811061250857612507614550565b5b6020026020010151613a15565b505b6000816001876125279190614685565b8151811061253857612537614550565b5b60200260200101519050806040516020016125539190614a0e565b60405160208183030381529060405296503073ffffffffffffffffffffffffffffffffffffffff168573ffffffffffffffffffffffffffffffffffffffff1614801561260457507f000000000000000000000000000000000000000000000000000000000000000073ffffffffffffffffffffffffffffffffffffffff168387815181106125e4576125e3614550565b5b602002602001015173ffffffffffffffffffffffffffffffffffffffff16145b156127b8573073ffffffffffffffffffffffffffffffffffffffff166126378b602a8d516126329190614685565b611dd1565b73ffffffffffffffffffffffffffffffffffffffff16141561270c57600161266c8b602b8d516126679190614685565b612c72565b60ff161415612701577f000000000000000000000000000000000000000000000000000000000000000073ffffffffffffffffffffffffffffffffffffffff16632e1a7d4d826040518263ffffffff1660e01b81526004016126ce9190614a0e565b600060405180830381600087803b1580156126e857600080fd5b505af11580156126fc573d6000803e3d6000fd5b505050505b5050505050506127bf565b7f000000000000000000000000000000000000000000000000000000000000000073ffffffffffffffffffffffffffffffffffffffff16632e1a7d4d826040518263ffffffff1660e01b81526004016127659190614a0e565b600060405180830381600087803b15801561277f57600080fd5b505af1158015612793573d6000803e3d6000fd5b505050506127b76127b18b602a8d516127ac9190614685565b611dd1565b82613ab1565b5b5050505050505b9392505050565b606060006127e185600287516127dc9190614685565b612c72565b60ff16905060008061280087600189516127fb9190614685565b612c72565b60ff16146128245761281f866016885161281a9190614685565b611dd1565b612826565b335b9050600073ffffffffffffffffffffffffffffffffffffffff168573ffffffffffffffffffffffffffffffffffffffff1614156128df577f000000000000000000000000000000000000000000000000000000000000000073ffffffffffffffffffffffffffffffffffffffff1663d0e30db0856040518263ffffffff1660e01b81526004016000604051808303818588803b1580156128c557600080fd5b505af11580156128d9573d6000803e3d6000fd5b50505050505b6001821115612995576128ff30856128fa896040602b611cdd565b613b04565b935060006001836129109190614685565b90506000600190505b8181101561295e5761294f308761294a8b60178661293791906146b9565b60406129439190614a29565b602b611cdd565b613b04565b95508080600101915050612919565b5061298d82866129888a60178661297591906146b9565b60406129819190614a29565b602b611cdd565b613b04565b9450506129af565b6129ac81856129a7896040602b611cdd565b613b04565b93505b6129ba866020611d36565b8410156129f3576040517fbb2875c300000000000000000000000000000000000000000000000000000000815260040160405180910390fd5b3073ffffffffffffffffffffffffffffffffffffffff168173ffffffffffffffffffffffffffffffffffffffff161415612c47577f000000000000000000000000000000000000000000000000000000000000000073ffffffffffffffffffffffffffffffffffffffff16612a8087601785612a6f91906146b9565b6040612a7b9190614a29565b611dd1565b73ffffffffffffffffffffffffffffffffffffffff161415612c46573073ffffffffffffffffffffffffffffffffffffffff16612aca87602a8951612ac59190614685565b611dd1565b73ffffffffffffffffffffffffffffffffffffffff161415612b99576001612aff87602b8951612afa9190614685565b612c72565b60ff161415612b94577f000000000000000000000000000000000000000000000000000000000000000073ffffffffffffffffffffffffffffffffffffffff16632e1a7d4d856040518263ffffffff1660e01b8152600401612b619190614a0e565b600060405180830381600087803b158015612b7b57600080fd5b505af1158015612b8f573d6000803e3d6000fd5b505050505b612c45565b7f000000000000000000000000000000000000000000000000000000000000000073ffffffffffffffffffffffffffffffffffffffff16632e1a7d4d856040518263ffffffff1660e01b8152600401612bf29190614a0e565b600060405180830381600087803b158015612c0c57600080fd5b505af1158015612c20573d6000803e3d6000fd5b50505050612c44612c3e87602a8951612c399190614685565b611dd1565b85613ab1565b5b5b5b83604051602001612c589190614a0e565b604051602081830303815290604052925050509392505050565b600081600184010151905092915050565b600060606000841415612cae57612cad612c9d8488611dd1565b88612ca88689611d36565b6133bc565b5b8673ffffffffffffffffffffffffffffffffffffffff168484604051612cd49190614abb565b60006040518083038185875af1925050503d8060008114612d11576040519150601f19603f3d011682016040523d82523d6000602084013e612d16565b606091505b5080925081935050509550959350505050565b60606000612d448560028751612d3f9190614685565b612c72565b60ff169050600080612d638760018951612d5e9190614685565b612c72565b60ff1614612d8757612d828660168851612d7d9190614685565b611dd1565b612d89565b335b90506000602883612d9a91906146b9565b6054612da69190614a29565b90506000805b8481101561330b576000612dd88a602884612dc791906146b9565b6054612dd39190614a29565b611dd1565b90506000612dfe8b602885612ded91906146b9565b6068612df99190614a29565b611dd1565b905060008073ffffffffffffffffffffffffffffffffffffffff168273ffffffffffffffffffffffffffffffffffffffff16149050612eda612e598d600687612e4791906146b9565b89612e529190614a29565b6004611cdd565b612e868e6004600689612e6c91906146b9565b8b612e779190614a29565b612e819190614a29565b612c72565b612eb38f600560068a612e9991906146b9565b8c612ea49190614a29565b612eae9190614a29565b612c72565b8d604051602001612ec693929190614d77565b604051602081830303815290604052611d47565b9850600073ffffffffffffffffffffffffffffffffffffffff168b73ffffffffffffffffffffffffffffffffffffffff1614158015612f17575080155b1561300957612f278b848c6133bc565b612f778960018a612f389190614685565b8614612f64576000604051602001612f509190614ddf565b604051602081830303815290604052612f72565b612f718e60346020611cdd565b5b611d47565b98508173ffffffffffffffffffffffffffffffffffffffff166370a08231306040518263ffffffff1660e01b8152600401612fb291906145f9565b60206040518083038186803b158015612fca57600080fd5b505afa158015612fde573d6000803e3d6000fd5b505050506040513d601f19601f820116820180604052508101906130029190614629565b945061315c565b600073ffffffffffffffffffffffffffffffffffffffff168b73ffffffffffffffffffffffffffffffffffffffff1614613049576130488b848c6133bc565b5b6130c2896130bd60018b61305d9190614685565b87146130895760006040516020016130759190614ddf565b604051602081830303815290604052613097565b6130968f60346020611cdd565b5b60016040516020016130a99190614e15565b604051602081830303815290604052611d47565b611d47565b985080613157578173ffffffffffffffffffffffffffffffffffffffff166370a08231306040518263ffffffff1660e01b815260040161310291906145f9565b60206040518083038186803b15801561311a57600080fd5b505afa15801561312e573d6000803e3d6000fd5b505050506040513d601f19601f820116820180604052508101906131529190614629565b613159565b475b94505b6000808473ffffffffffffffffffffffffffffffffffffffff16600073ffffffffffffffffffffffffffffffffffffffff168e73ffffffffffffffffffffffffffffffffffffffff16146131b15760006131b3565b8c5b8c6040516131c19190614abb565b60006040518083038185875af1925050503d80600081146131fe576040519150601f19603f3d011682016040523d82523d6000602084013e613203565b606091505b50915091508161324957806040517ec73c900000000000000000000000000000000000000000000000000000000081526004016132409190614e30565b60405180910390fd5b826132e757868473ffffffffffffffffffffffffffffffffffffffff166370a08231306040518263ffffffff1660e01b815260040161328891906145f9565b60206040518083038186803b1580156132a057600080fd5b505afa1580156132b4573d6000803e3d6000fd5b505050506040513d601f19601f820116820180604052508101906132d89190614629565b6132e29190614685565b6132f4565b86476132f39190614685565b5b9b50839c5085806001019650505050505050612dac565b503073ffffffffffffffffffffffffffffffffffffffff168373ffffffffffffffffffffffffffffffffffffffff161461338f57600073ffffffffffffffffffffffffffffffffffffffff168773ffffffffffffffffffffffffffffffffffffffff16146133835761337e878488610a93565b61338e565b61338d8387613ab1565b5b5b856040516020016133a09190614a0e565b6040516020818303038152906040529450505050509392505050565b60006040517f095ea7b3000000000000000000000000000000000000000000000000000000008152836004820152826024820152602060006044836000895af13d15601f3d116001600051141617169150508061344e576040517f08c379a000000000000000000000000000000000000000000000000000000000815260040161344590614e9e565b60405180910390fd5b50505050565b600081600384010151905092915050565b60608060608367ffffffffffffffff81111561348457613483614061565b5b6040519080825280602002602001820160405280156134b25781602001602082028036833780820191505090505b5092506001846134c29190614a29565b67ffffffffffffffff8111156134db576134da614061565b5b6040519080825280602002602001820160405280156135095781602001602082028036833780820191505090505b5091508367ffffffffffffffff81111561352657613525614061565b5b6040519080825280602002602001820160405280156135545781602001602082028036833780820191505090505b5090506000806000879050600073ffffffffffffffffffffffffffffffffffffffff168973ffffffffffffffffffffffffffffffffffffffff161461359957886135bb565b7f00000000000000000000000000000000000000000000000000000000000000005b856000815181106135cf576135ce614550565b5b602002602001019073ffffffffffffffffffffffffffffffffffffffff16908173ffffffffffffffffffffffffffffffffffffffff168152505060005b878110156138cb576136428b60146001846136279190614a29565b61363191906146b9565b604061363d9190614a29565b611dd1565b866001836136509190614a29565b8151811061366157613660614550565b5b602002602001019073ffffffffffffffffffffffffffffffffffffffff16908173ffffffffffffffffffffffffffffffffffffffff16815250508581815181106136ae576136ad614550565b5b60200260200101519350856001826136c69190614a29565b815181106136d7576136d6614550565b5b602002602001015192506136eb8484613d4e565b8782815181106136fe576136fd614550565b5b602002602001019073ffffffffffffffffffffffffffffffffffffffff16908173ffffffffffffffffffffffffffffffffffffffff168152505060008088838151811061374e5761374d614550565b5b602002602001015173ffffffffffffffffffffffffffffffffffffffff16630902f1ac6040518163ffffffff1660e01b815260040160606040518083038186803b15801561379b57600080fd5b505afa1580156137af573d6000803e3d6000fd5b505050506040513d601f19601f820116820180604052508101906137d39190614f40565b506dffffffffffffffffffffffffffff1691506dffffffffffffffffffffffffffff1691508473ffffffffffffffffffffffffffffffffffffffff168673ffffffffffffffffffffffffffffffffffffffff16111561383757808280925081935050505b6103e58461384591906146b9565b6103e88361385391906146b9565b61385d9190614a29565b816103e58661386c91906146b9565b61387691906146b9565b6138809190614742565b87848151811061389357613892614550565b5b6020026020010181815250508683815181106138b2576138b1614550565b5b602002602001015193508280600101935050505061360c565b506138d78a6020611d36565b811015613910576040517fbb2875c300000000000000000000000000000000000000000000000000000000815260040160405180910390fd5b600073ffffffffffffffffffffffffffffffffffffffff168973ffffffffffffffffffffffffffffffffffffffff1614156139c7577f000000000000000000000000000000000000000000000000000000000000000073ffffffffffffffffffffffffffffffffffffffff1663d0e30db0896040518263ffffffff1660e01b81526004016000604051808303818588803b1580156139ad57600080fd5b505af11580156139c1573d6000803e3d6000fd5b50505050505b613a08856000815181106139de576139dd614550565b5b6020026020010151876000815181106139fa576139f9614550565b5b60200260200101518a610a93565b5050509450945094915050565b613aad8282604051602401613a2b929190614fd7565b6040516020818303038152906040527f319af333000000000000000000000000000000000000000000000000000000007bffffffffffffffffffffffffffffffffffffffffffffffffffffffff19166020820180517bffffffffffffffffffffffffffffffffffffffffffffffffffffffff8381831617835250505050613ef0565b5050565b600080600080600085875af1905080613aff576040517f08c379a0000000000000000000000000000000000000000000000000000000008152600401613af690615053565b60405180910390fd5b505050565b600080613b12836000611dd1565b9050600073ffffffffffffffffffffffffffffffffffffffff168173ffffffffffffffffffffffffffffffffffffffff161415613b6d577f000000000000000000000000000000000000000000000000000000000000000090505b6000613b7a846014613454565b90506000613b89856017611dd1565b905060008173ffffffffffffffffffffffffffffffffffffffff168473ffffffffffffffffffffffffffffffffffffffff161090508015613c80576000613bd1858486611bf8565b73ffffffffffffffffffffffffffffffffffffffff1663128acb088a848b6401000276a48c6040518663ffffffff1660e01b8152600401613c16959493929190615091565b6040805180830381600087803b158015613c2f57600080fd5b505af1158015613c43573d6000803e3d6000fd5b505050506040513d601f19601f82011682018060405250810190613c6791906150eb565b91505080613c74906149c5565b95505050505050613d47565b6000613c8d858486611bf8565b73ffffffffffffffffffffffffffffffffffffffff1663128acb088a848b73fffd8963efd1fc6a506488495d951d5263988d258c6040518663ffffffff1660e01b8152600401613ce1959493929190615091565b6040805180830381600087803b158015613cfa57600080fd5b505af1158015613d0e573d6000803e3d6000fd5b505050506040513d601f19601f82011682018060405250810190613d3291906150eb565b50905080613d3f906149c5565b955050505050505b9392505050565b60008173ffffffffffffffffffffffffffffffffffffffff168373ffffffffffffffffffffffffffffffffffffffff161415613dbf576040517f08c379a0000000000000000000000000000000000000000000000000000000008152600401613db690615177565b60405180910390fd5b8173ffffffffffffffffffffffffffffffffffffffff168373ffffffffffffffffffffffffffffffffffffffff1610613df9578183613dfc565b82825b8093508194505050600073ffffffffffffffffffffffffffffffffffffffff168373ffffffffffffffffffffffffffffffffffffffff161415613e74576040517f08c379a0000000000000000000000000000000000000000000000000000000008152600401613e6b906151e3565b60405180910390fd5b7f00000000000000000000000000000000000000000000000000000000000000008383604051602001613ea8929190615203565b60405160208183030381529060405280519060200120604051602001613ecf92919061527b565b6040516020818303038152906040528051906020012060001c905092915050565b60008151905060006a636f6e736f6c652e6c6f679050602083016000808483855afa5050505050565b6000604051905090565b600080fd5b600080fd5b600080fd5b600080fd5b600080fd5b60008083601f840112613f5257613f51613f2d565b5b8235905067ffffffffffffffff811115613f6f57613f6e613f32565b5b602083019150836020820283011115613f8b57613f8a613f37565b5b9250929050565b600073ffffffffffffffffffffffffffffffffffffffff82169050919050565b6000613fbd82613f92565b9050919050565b613fcd81613fb2565b8114613fd857600080fd5b50565b600081359050613fea81613fc4565b92915050565b60008060006040848603121561400957614008613f23565b5b600084013567ffffffffffffffff81111561402757614026613f28565b5b61403386828701613f3c565b9350935050602061404686828701613fdb565b9150509250925092565b6000601f19601f8301169050919050565b7f4e487b7100000000000000000000000000000000000000000000000000000000600052604160045260246000fd5b61409982614050565b810181811067ffffffffffffffff821117156140b8576140b7614061565b5b80604052505050565b60006140cb613f19565b90506140d78282614090565b919050565b600067ffffffffffffffff8211156140f7576140f6614061565b5b602082029050602081019050919050565b600080fd5b600067ffffffffffffffff82111561412857614127614061565b5b61413182614050565b9050602081019050919050565b82818337600083830152505050565b600061416061415b8461410d565b6140c1565b90508281526020810184848401111561417c5761417b614108565b5b61418784828561413e565b509392505050565b600082601f8301126141a4576141a3613f2d565b5b81356141b484826020860161414d565b91505092915050565b60006141d06141cb846140dc565b6140c1565b905080838252602082019050602084028301858111156141f3576141f2613f37565b5b835b8181101561423a57803567ffffffffffffffff81111561421857614217613f2d565b5b808601614225898261418f565b855260208501945050506020810190506141f5565b5050509392505050565b600082601f83011261425957614258613f2d565b5b81356142698482602086016141bd565b91505092915050565b6000819050919050565b61428581614272565b811461429057600080fd5b50565b6000813590506142a28161427c565b92915050565b6000806000606084860312156142c1576142c0613f23565b5b600084013567ffffffffffffffff8111156142df576142de613f28565b5b6142eb86828701614244565b935050602084013567ffffffffffffffff81111561430c5761430b613f28565b5b61431886828701614244565b925050604061432986828701614293565b9150509250925092565b6000806040838503121561434a57614349613f23565b5b600083013567ffffffffffffffff81111561436857614367613f28565b5b61437485828601614244565b925050602083013567ffffffffffffffff81111561439557614394613f28565b5b6143a185828601614244565b9150509250929050565b6000602082840312156143c1576143c0613f23565b5b60006143cf84828501613fdb565b91505092915050565b600080604083850312156143ef576143ee613f23565b5b600083013567ffffffffffffffff81111561440d5761440c613f28565b5b6144198582860161418f565b925050602083013567ffffffffffffffff81111561443a57614439613f28565b5b6144468582860161418f565b9150509250929050565b6000819050919050565b61446381614450565b811461446e57600080fd5b50565b6000813590506144808161445a565b92915050565b60008083601f84011261449c5761449b613f2d565b5b8235905067ffffffffffffffff8111156144b9576144b8613f32565b5b6020830191508360018202830111156144d5576144d4613f37565b5b9250929050565b600080600080606085870312156144f6576144f5613f23565b5b600061450487828801614471565b945050602061451587828801614471565b935050604085013567ffffffffffffffff81111561453657614535613f28565b5b61454287828801614486565b925092505092959194509250565b7f4e487b7100000000000000000000000000000000000000000000000000000000600052603260045260246000fd5b600061458a82613fb2565b9050919050565b61459a8161457f565b81146145a557600080fd5b50565b6000813590506145b781614591565b92915050565b6000602082840312156145d3576145d2613f23565b5b60006145e1848285016145a8565b91505092915050565b6145f381613fb2565b82525050565b600060208201905061460e60008301846145ea565b92915050565b6000815190506146238161427c565b92915050565b60006020828403121561463f5761463e613f23565b5b600061464d84828501614614565b91505092915050565b7f4e487b7100000000000000000000000000000000000000000000000000000000600052601160045260246000fd5b600061469082614272565b915061469b83614272565b9250828210156146ae576146ad614656565b5b828203905092915050565b60006146c482614272565b91506146cf83614272565b9250817fffffffffffffffffffffffffffffffffffffffffffffffffffffffffffffffff048311821515161561470857614707614656565b5b828202905092915050565b7f4e487b7100000000000000000000000000000000000000000000000000000000600052601260045260246000fd5b600061474d82614272565b915061475883614272565b92508261476857614767614713565b5b828204905092915050565b60007fff0000000000000000000000000000000000000000000000000000000000000082169050919050565b6147a881614773565b82525050565b6147b781614272565b82525050565b600081519050919050565b600082825260208201905092915050565b60005b838110156147f75780820151818401526020810190506147dc565b83811115614806576000848401525b50505050565b6000614817826147bd565b61482181856147c8565b93506148318185602086016147d9565b61483a81614050565b840191505092915050565b600060608201905061485a600083018661479f565b61486760208301856147ae565b8181036040830152614879818461480c565b9050949350505050565b6000819050919050565b6000819050919050565b60006148b26148ad6148a884614883565b61488d565b614272565b9050919050565b6148c281614897565b82525050565b60006060820190506148dd600083018661479f565b6148ea60208301856148b9565b81810360408301526148fc818461480c565b9050949350505050565b600082825260208201905092915050565b7f5452414e534645525f4641494c45440000000000000000000000000000000000600082015250565b600061494d600f83614906565b915061495882614917565b602082019050919050565b6000602082019050818103600083015261497c81614940565b9050919050565b6000815190506149928161445a565b92915050565b6000602082840312156149ae576149ad613f23565b5b60006149bc84828501614983565b91505092915050565b60006149d082614450565b91507f8000000000000000000000000000000000000000000000000000000000000000821415614a0357614a02614656565b5b816000039050919050565b6000602082019050614a2360008301846147ae565b92915050565b6000614a3482614272565b9150614a3f83614272565b9250827fffffffffffffffffffffffffffffffffffffffffffffffffffffffffffffffff03821115614a7457614a73614656565b5b828201905092915050565b600081905092915050565b6000614a95826147bd565b614a9f8185614a7f565b9350614aaf8185602086016147d9565b80840191505092915050565b6000614ac78284614a8a565b915081905092915050565b6000819050919050565b614ae581614ad2565b82525050565b6000606082019050614b006000830186614adc565b614b0d60208301856147ae565b614b1a60408301846147ae565b949350505050565b600062ffffff82169050919050565b614b3a81614b22565b82525050565b6000606082019050614b5560008301866145ea565b614b6260208301856145ea565b614b6f6040830184614b31565b949350505050565b600081905092915050565b7fff00000000000000000000000000000000000000000000000000000000000000600082015250565b6000614bb8600183614b77565b9150614bc382614b82565b600182019050919050565b60008160601b9050919050565b6000614be682614bce565b9050919050565b6000614bf882614bdb565b9050919050565b614c10614c0b82613fb2565b614bed565b82525050565b6000819050919050565b614c31614c2c82614ad2565b614c16565b82525050565b6000614c4282614bab565b9150614c4e8286614bff565b601482019150614c5e8285614c20565b602082019150614c6e8284614c20565b602082019150819050949350505050565b7f5452414e534645525f46524f4d5f4641494c4544000000000000000000000000600082015250565b6000614cb5601483614906565b9150614cc082614c7f565b602082019050919050565b60006020820190508181036000830152614ce481614ca8565b9050919050565b50565b6000614cfb6000836147c8565b9150614d0682614ceb565b600082019050919050565b6000608082019050614d2660008301866147ae565b614d3360208301856147ae565b614d4060408301846145ea565b8181036060830152614d5181614cee565b9050949350505050565b600060ff82169050919050565b614d7181614d5b565b82525050565b6000606082019050614d8c6000830186614d68565b614d996020830185614d68565b614da660408301846147ae565b949350505050565b6000614dc9614dc4614dbf84614883565b61488d565b614d5b565b9050919050565b614dd981614dae565b82525050565b6000602082019050614df46000830184614dd0565b92915050565b60008115159050919050565b614e0f81614dfa565b82525050565b6000602082019050614e2a6000830184614e06565b92915050565b60006020820190508181036000830152614e4a818461480c565b905092915050565b7f415050524f56455f4641494c4544000000000000000000000000000000000000600082015250565b6000614e88600e83614906565b9150614e9382614e52565b602082019050919050565b60006020820190508181036000830152614eb781614e7b565b9050919050565b60006dffffffffffffffffffffffffffff82169050919050565b614ee181614ebe565b8114614eec57600080fd5b50565b600081519050614efe81614ed8565b92915050565b600063ffffffff82169050919050565b614f1d81614f04565b8114614f2857600080fd5b50565b600081519050614f3a81614f14565b92915050565b600080600060608486031215614f5957614f58613f23565b5b6000614f6786828701614eef565b9350506020614f7886828701614eef565b9250506040614f8986828701614f2b565b9150509250925092565b600081519050919050565b6000614fa982614f93565b614fb38185614906565b9350614fc38185602086016147d9565b614fcc81614050565b840191505092915050565b60006040820190508181036000830152614ff18185614f9e565b905061500060208301846145ea565b9392505050565b7f4554485f5452414e534645525f4641494c454400000000000000000000000000600082015250565b600061503d601383614906565b915061504882615007565b602082019050919050565b6000602082019050818103600083015261506c81615030565b9050919050565b61507c81614450565b82525050565b61508b81613f92565b82525050565b600060a0820190506150a660008301886145ea565b6150b36020830187614e06565b6150c06040830186615073565b6150cd6060830185615082565b81810360808301526150df818461480c565b90509695505050505050565b6000806040838503121561510257615101613f23565b5b600061511085828601614983565b925050602061512185828601614983565b9150509250929050565b7f56323a4455505f41444452455353000000000000000000000000000000000000600082015250565b6000615161600e83614906565b915061516c8261512b565b602082019050919050565b6000602082019050818103600083015261519081615154565b9050919050565b7f56323a5a45524f5f414444524553530000000000000000000000000000000000600082015250565b60006151cd600f83614906565b91506151d882615197565b602082019050919050565b600060208201905081810360008301526151fc816151c0565b9050919050565b600061520f8285614bff565b60148201915061521f8284614bff565b6014820191508190509392505050565b7f96e8ac4277198ff8b6f785478aa9a39f403cb768dd02cbee326c3e7da348845f600082015250565b6000615265602083614b77565b91506152708261522f565b602082019050919050565b600061528682614bab565b91506152928285614bff565b6014820191506152a28284614c20565b6020820191506152b182615258565b9150819050939250505056fea26469706673582212203ee908af479aea3cf879e4c1426fafff693e71e13884296ae79c45301cf601ec64736f6c63430008090033","opcodes":"PUSH2 0x340 PUSH1 0x40 MSTORE CALLVALUE DUP1 ISZERO PUSH3 0x12 JUMPI PUSH1 0x0 DUP1 REVERT JUMPDEST POP PUSH1 0x40 MLOAD PUSH3 0x5CEF CODESIZE SUB DUP1 PUSH3 0x5CEF DUP4 CODECOPY DUP2 DUP2 ADD PUSH1 0x40 MSTORE DUP2 ADD SWAP1 PUSH3 0x38 SWAP2 SWAP1 PUSH3 0x86E JUMP JUMPDEST DUP1 DUP1 PUSH1 0x0 ADD MLOAD PUSH20 0xFFFFFFFFFFFFFFFFFFFFFFFFFFFFFFFFFFFFFFFF AND PUSH1 0x80 DUP2 PUSH20 0xFFFFFFFFFFFFFFFFFFFFFFFFFFFFFFFFFFFFFFFF AND DUP2 MSTORE POP POP DUP1 PUSH1 0x20 ADD MLOAD PUSH20 0xFFFFFFFFFFFFFFFFFFFFFFFFFFFFFFFFFFFFFFFF AND PUSH1 0xA0 DUP2 PUSH20 0xFFFFFFFFFFFFFFFFFFFFFFFFFFFFFFFFFFFFFFFF AND DUP2 MSTORE POP POP DUP1 PUSH1 0x40 ADD MLOAD PUSH20 0xFFFFFFFFFFFFFFFFFFFFFFFFFFFFFFFFFFFFFFFF AND PUSH1 0xC0 DUP2 PUSH20 0xFFFFFFFFFFFFFFFFFFFFFFFFFFFFFFFFFFFFFFFF AND DUP2 MSTORE POP POP DUP1 PUSH1 0x60 ADD MLOAD PUSH20 0xFFFFFFFFFFFFFFFFFFFFFFFFFFFFFFFFFFFFFFFF AND PUSH1 0xE0 DUP2 PUSH20 0xFFFFFFFFFFFFFFFFFFFFFFFFFFFFFFFFFFFFFFFF AND DUP2 MSTORE POP POP DUP1 PUSH1 0x80 ADD MLOAD PUSH20 0xFFFFFFFFFFFFFFFFFFFFFFFFFFFFFFFFFFFFFFFF AND PUSH2 0x100 DUP2 PUSH20 0xFFFFFFFFFFFFFFFFFFFFFFFFFFFFFFFFFFFFFFFF AND DUP2 MSTORE POP POP DUP1 PUSH1 0xA0 ADD MLOAD PUSH20 0xFFFFFFFFFFFFFFFFFFFFFFFFFFFFFFFFFFFFFFFF AND PUSH2 0x120 DUP2 PUSH20 0xFFFFFFFFFFFFFFFFFFFFFFFFFFFFFFFFFFFFFFFF AND DUP2 MSTORE POP POP DUP1 PUSH1 0xC0 ADD MLOAD PUSH20 0xFFFFFFFFFFFFFFFFFFFFFFFFFFFFFFFFFFFFFFFF AND PUSH2 0x140 DUP2 PUSH20 0xFFFFFFFFFFFFFFFFFFFFFFFFFFFFFFFFFFFFFFFF AND DUP2 MSTORE POP POP DUP1 PUSH1 0xE0 ADD MLOAD PUSH20 0xFFFFFFFFFFFFFFFFFFFFFFFFFFFFFFFFFFFFFFFF AND PUSH2 0x160 DUP2 PUSH20 0xFFFFFFFFFFFFFFFFFFFFFFFFFFFFFFFFFFFFFFFF AND DUP2 MSTORE POP POP DUP1 PUSH2 0x100 ADD MLOAD PUSH20 0xFFFFFFFFFFFFFFFFFFFFFFFFFFFFFFFFFFFFFFFF AND PUSH2 0x180 DUP2 PUSH20 0xFFFFFFFFFFFFFFFFFFFFFFFFFFFFFFFFFFFFFFFF AND DUP2 MSTORE POP POP DUP1 PUSH2 0x120 ADD MLOAD PUSH20 0xFFFFFFFFFFFFFFFFFFFFFFFFFFFFFFFFFFFFFFFF AND PUSH2 0x1A0 DUP2 PUSH20 0xFFFFFFFFFFFFFFFFFFFFFFFFFFFFFFFFFFFFFFFF AND DUP2 MSTORE POP POP DUP1 PUSH2 0x140 ADD MLOAD PUSH20 0xFFFFFFFFFFFFFFFFFFFFFFFFFFFFFFFFFFFFFFFF AND PUSH2 0x1C0 DUP2 PUSH20 0xFFFFFFFFFFFFFFFFFFFFFFFFFFFFFFFFFFFFFFFF AND DUP2 MSTORE POP POP DUP1 PUSH2 0x160 ADD MLOAD PUSH20 0xFFFFFFFFFFFFFFFFFFFFFFFFFFFFFFFFFFFFFFFF AND PUSH2 0x1E0 DUP2 PUSH20 0xFFFFFFFFFFFFFFFFFFFFFFFFFFFFFFFFFFFFFFFF AND DUP2 MSTORE POP POP DUP1 PUSH2 0x180 ADD MLOAD PUSH20 0xFFFFFFFFFFFFFFFFFFFFFFFFFFFFFFFFFFFFFFFF AND PUSH2 0x200 DUP2 PUSH20 0xFFFFFFFFFFFFFFFFFFFFFFFFFFFFFFFFFFFFFFFF AND DUP2 MSTORE POP POP DUP1 PUSH2 0x1A0 ADD MLOAD PUSH20 0xFFFFFFFFFFFFFFFFFFFFFFFFFFFFFFFFFFFFFFFF AND PUSH2 0x220 DUP2 PUSH20 0xFFFFFFFFFFFFFFFFFFFFFFFFFFFFFFFFFFFFFFFF AND DUP2 MSTORE POP POP DUP1 PUSH2 0x1C0 ADD MLOAD PUSH20 0xFFFFFFFFFFFFFFFFFFFFFFFFFFFFFFFFFFFFFFFF AND PUSH2 0x240 DUP2 PUSH20 0xFFFFFFFFFFFFFFFFFFFFFFFFFFFFFFFFFFFFFFFF AND DUP2 MSTORE POP POP DUP1 PUSH2 0x1E0 ADD MLOAD PUSH20 0xFFFFFFFFFFFFFFFFFFFFFFFFFFFFFFFFFFFFFFFF AND PUSH2 0x260 DUP2 PUSH20 0xFFFFFFFFFFFFFFFFFFFFFFFFFFFFFFFFFFFFFFFF AND DUP2 MSTORE POP POP DUP1 PUSH2 0x200 ADD MLOAD PUSH20 0xFFFFFFFFFFFFFFFFFFFFFFFFFFFFFFFFFFFFFFFF AND PUSH2 0x280 DUP2 PUSH20 0xFFFFFFFFFFFFFFFFFFFFFFFFFFFFFFFFFFFFFFFF AND DUP2 MSTORE POP POP DUP1 PUSH2 0x220 ADD MLOAD PUSH20 0xFFFFFFFFFFFFFFFFFFFFFFFFFFFFFFFFFFFFFFFF AND PUSH2 0x2A0 DUP2 PUSH20 0xFFFFFFFFFFFFFFFFFFFFFFFFFFFFFFFFFFFFFFFF AND DUP2 MSTORE POP POP DUP1 PUSH2 0x240 ADD MLOAD PUSH20 0xFFFFFFFFFFFFFFFFFFFFFFFFFFFFFFFFFFFFFFFF AND PUSH2 0x2C0 DUP2 PUSH20 0xFFFFFFFFFFFFFFFFFFFFFFFFFFFFFFFFFFFFFFFF AND DUP2 MSTORE POP POP DUP1 PUSH2 0x260 ADD MLOAD PUSH20 0xFFFFFFFFFFFFFFFFFFFFFFFFFFFFFFFFFFFFFFFF AND PUSH2 0x2E0 DUP2 PUSH20 0xFFFFFFFFFFFFFFFFFFFFFFFFFFFFFFFFFFFFFFFF AND DUP2 MSTORE POP POP DUP1 PUSH2 0x280 ADD MLOAD PUSH20 0xFFFFFFFFFFFFFFFFFFFFFFFFFFFFFFFFFFFFFFFF AND PUSH2 0x300 DUP2 PUSH20 0xFFFFFFFFFFFFFFFFFFFFFFFFFFFFFFFFFFFFFFFF AND DUP2 MSTORE POP POP DUP1 PUSH2 0x2A0 ADD MLOAD PUSH20 0xFFFFFFFFFFFFFFFFFFFFFFFFFFFFFFFFFFFFFFFF AND PUSH2 0x320 DUP2 PUSH20 0xFFFFFFFFFFFFFFFFFFFFFFFFFFFFFFFFFFFFFFFF AND DUP2 MSTORE POP POP POP POP PUSH3 0x8A1 JUMP JUMPDEST PUSH1 0x0 PUSH1 0x40 MLOAD SWAP1 POP SWAP1 JUMP JUMPDEST PUSH1 0x0 DUP1 REVERT JUMPDEST PUSH1 0x0 DUP1 REVERT JUMPDEST PUSH1 0x0 PUSH1 0x1F NOT PUSH1 0x1F DUP4 ADD AND SWAP1 POP SWAP2 SWAP1 POP JUMP JUMPDEST PUSH32 0x4E487B7100000000000000000000000000000000000000000000000000000000 PUSH1 0x0 MSTORE PUSH1 0x41 PUSH1 0x4 MSTORE PUSH1 0x24 PUSH1 0x0 REVERT JUMPDEST PUSH3 0x590 DUP3 PUSH3 0x545 JUMP JUMPDEST DUP2 ADD DUP2 DUP2 LT PUSH8 0xFFFFFFFFFFFFFFFF DUP3 GT OR ISZERO PUSH3 0x5B2 JUMPI PUSH3 0x5B1 PUSH3 0x556 JUMP JUMPDEST JUMPDEST DUP1 PUSH1 0x40 MSTORE POP POP POP JUMP JUMPDEST PUSH1 0x0 PUSH3 0x5C7 PUSH3 0x531 JUMP JUMPDEST SWAP1 POP PUSH3 0x5D5 DUP3 DUP3 PUSH3 0x585 JUMP JUMPDEST SWAP2 SWAP1 POP JUMP JUMPDEST PUSH1 0x0 PUSH20 0xFFFFFFFFFFFFFFFFFFFFFFFFFFFFFFFFFFFFFFFF DUP3 AND SWAP1 POP SWAP2 SWAP1 POP JUMP JUMPDEST PUSH1 0x0 PUSH3 0x607 DUP3 PUSH3 0x5DA JUMP JUMPDEST SWAP1 POP SWAP2 SWAP1 POP JUMP JUMPDEST PUSH3 0x619 DUP2 PUSH3 0x5FA JUMP JUMPDEST DUP2 EQ PUSH3 0x625 JUMPI PUSH1 0x0 DUP1 REVERT JUMPDEST POP JUMP JUMPDEST PUSH1 0x0 DUP2 MLOAD SWAP1 POP PUSH3 0x639 DUP2 PUSH3 0x60E JUMP JUMPDEST SWAP3 SWAP2 POP POP JUMP JUMPDEST PUSH1 0x0 PUSH2 0x2C0 DUP3 DUP5 SUB SLT ISZERO PUSH3 0x659 JUMPI PUSH3 0x658 PUSH3 0x540 JUMP JUMPDEST JUMPDEST PUSH3 0x666 PUSH2 0x2C0 PUSH3 0x5BB JUMP JUMPDEST SWAP1 POP PUSH1 0x0 PUSH3 0x678 DUP5 DUP3 DUP6 ADD PUSH3 0x628 JUMP JUMPDEST PUSH1 0x0 DUP4 ADD MSTORE POP PUSH1 0x20 PUSH3 0x68E DUP5 DUP3 DUP6 ADD PUSH3 0x628 JUMP JUMPDEST PUSH1 0x20 DUP4 ADD MSTORE POP PUSH1 0x40 PUSH3 0x6A4 DUP5 DUP3 DUP6 ADD PUSH3 0x628 JUMP JUMPDEST PUSH1 0x40 DUP4 ADD MSTORE POP PUSH1 0x60 PUSH3 0x6BA DUP5 DUP3 DUP6 ADD PUSH3 0x628 JUMP JUMPDEST PUSH1 0x60 DUP4 ADD MSTORE POP PUSH1 0x80 PUSH3 0x6D0 DUP5 DUP3 DUP6 ADD PUSH3 0x628 JUMP JUMPDEST PUSH1 0x80 DUP4 ADD MSTORE POP PUSH1 0xA0 PUSH3 0x6E6 DUP5 DUP3 DUP6 ADD PUSH3 0x628 JUMP JUMPDEST PUSH1 0xA0 DUP4 ADD MSTORE POP PUSH1 0xC0 PUSH3 0x6FC DUP5 DUP3 DUP6 ADD PUSH3 0x628 JUMP JUMPDEST PUSH1 0xC0 DUP4 ADD MSTORE POP PUSH1 0xE0 PUSH3 0x712 DUP5 DUP3 DUP6 ADD PUSH3 0x628 JUMP JUMPDEST PUSH1 0xE0 DUP4 ADD MSTORE POP PUSH2 0x100 PUSH3 0x729 DUP5 DUP3 DUP6 ADD PUSH3 0x628 JUMP JUMPDEST PUSH2 0x100 DUP4 ADD MSTORE POP PUSH2 0x120 PUSH3 0x741 DUP5 DUP3 DUP6 ADD PUSH3 0x628 JUMP JUMPDEST PUSH2 0x120 DUP4 ADD MSTORE POP PUSH2 0x140 PUSH3 0x759 DUP5 DUP3 DUP6 ADD PUSH3 0x628 JUMP JUMPDEST PUSH2 0x140 DUP4 ADD MSTORE POP PUSH2 0x160 PUSH3 0x771 DUP5 DUP3 DUP6 ADD PUSH3 0x628 JUMP JUMPDEST PUSH2 0x160 DUP4 ADD MSTORE POP PUSH2 0x180 PUSH3 0x789 DUP5 DUP3 DUP6 ADD PUSH3 0x628 JUMP JUMPDEST PUSH2 0x180 DUP4 ADD MSTORE POP PUSH2 0x1A0 PUSH3 0x7A1 DUP5 DUP3 DUP6 ADD PUSH3 0x628 JUMP JUMPDEST PUSH2 0x1A0 DUP4 ADD MSTORE POP PUSH2 0x1C0 PUSH3 0x7B9 DUP5 DUP3 DUP6 ADD PUSH3 0x628 JUMP JUMPDEST PUSH2 0x1C0 DUP4 ADD MSTORE POP PUSH2 0x1E0 PUSH3 0x7D1 DUP5 DUP3 DUP6 ADD PUSH3 0x628 JUMP JUMPDEST PUSH2 0x1E0 DUP4 ADD MSTORE POP PUSH2 0x200 PUSH3 0x7E9 DUP5 DUP3 DUP6 ADD PUSH3 0x628 JUMP JUMPDEST PUSH2 0x200 DUP4 ADD MSTORE POP PUSH2 0x220 PUSH3 0x801 DUP5 DUP3 DUP6 ADD PUSH3 0x628 JUMP JUMPDEST PUSH2 0x220 DUP4 ADD MSTORE POP PUSH2 0x240 PUSH3 0x819 DUP5 DUP3 DUP6 ADD PUSH3 0x628 JUMP JUMPDEST PUSH2 0x240 DUP4 ADD MSTORE POP PUSH2 0x260 PUSH3 0x831 DUP5 DUP3 DUP6 ADD PUSH3 0x628 JUMP JUMPDEST PUSH2 0x260 DUP4 ADD MSTORE POP PUSH2 0x280 PUSH3 0x849 DUP5 DUP3 DUP6 ADD PUSH3 0x628 JUMP JUMPDEST PUSH2 0x280 DUP4 ADD MSTORE POP PUSH2 0x2A0 PUSH3 0x861 DUP5 DUP3 DUP6 ADD PUSH3 0x628 JUMP JUMPDEST PUSH2 0x2A0 DUP4 ADD MSTORE POP SWAP3 SWAP2 POP POP JUMP JUMPDEST PUSH1 0x0 PUSH2 0x2C0 DUP3 DUP5 SUB SLT ISZERO PUSH3 0x888 JUMPI PUSH3 0x887 PUSH3 0x53B JUMP JUMPDEST JUMPDEST PUSH1 0x0 PUSH3 0x898 DUP5 DUP3 DUP6 ADD PUSH3 0x63F JUMP JUMPDEST SWAP2 POP POP SWAP3 SWAP2 POP POP JUMP JUMPDEST PUSH1 0x80 MLOAD PUSH1 0xA0 MLOAD PUSH1 0xC0 MLOAD PUSH1 0xE0 MLOAD PUSH2 0x100 MLOAD PUSH2 0x120 MLOAD PUSH2 0x140 MLOAD PUSH2 0x160 MLOAD PUSH2 0x180 MLOAD PUSH2 0x1A0 MLOAD PUSH2 0x1C0 MLOAD PUSH2 0x1E0 MLOAD PUSH2 0x200 MLOAD PUSH2 0x220 MLOAD PUSH2 0x240 MLOAD PUSH2 0x260 MLOAD PUSH2 0x280 MLOAD PUSH2 0x2A0 MLOAD PUSH2 0x2C0 MLOAD PUSH2 0x2E0 MLOAD PUSH2 0x300 MLOAD PUSH2 0x320 MLOAD PUSH2 0x52F3 PUSH3 0x9FC PUSH1 0x0 CODECOPY PUSH1 0x0 PUSH2 0x1AF7 ADD MSTORE PUSH1 0x0 PUSH2 0x1B28 ADD MSTORE PUSH1 0x0 DUP2 DUP2 PUSH2 0x195E ADD MSTORE PUSH2 0x19E4 ADD MSTORE PUSH1 0x0 PUSH2 0x1A9C ADD MSTORE PUSH1 0x0 PUSH2 0x173A ADD MSTORE PUSH1 0x0 DUP2 DUP2 PUSH2 0x1794 ADD MSTORE PUSH2 0x17C4 ADD MSTORE PUSH1 0x0 PUSH2 0x1865 ADD MSTORE PUSH1 0x0 PUSH2 0x16B4 ADD MSTORE PUSH1 0x0 PUSH2 0x1507 ADD MSTORE PUSH1 0x0 PUSH2 0x158B ADD MSTORE PUSH1 0x0 PUSH2 0x152D ADD MSTORE PUSH1 0x0 PUSH2 0x1554 ADD MSTORE PUSH1 0x0 PUSH2 0x15B1 ADD MSTORE PUSH1 0x0 PUSH2 0x15D8 ADD MSTORE PUSH1 0x0 PUSH2 0x16F7 ADD MSTORE PUSH1 0x0 PUSH2 0x1908 ADD MSTORE PUSH1 0x0 PUSH2 0x12D1 ADD MSTORE PUSH1 0x0 PUSH2 0x12F7 ADD MSTORE PUSH1 0x0 PUSH2 0x1C3B ADD MSTORE PUSH1 0x0 PUSH2 0x3E76 ADD MSTORE PUSH1 0x0 DUP2 DUP2 PUSH2 0x139B ADD MSTORE PUSH2 0x141B ADD MSTORE PUSH1 0x0 DUP2 DUP2 PUSH2 0x9DF ADD MSTORE DUP2 DUP2 PUSH2 0x259C ADD MSTORE DUP2 DUP2 PUSH2 0x2677 ADD MSTORE DUP2 DUP2 PUSH2 0x270E ADD MSTORE DUP2 DUP2 PUSH2 0x285F ADD MSTORE DUP2 DUP2 PUSH2 0x2A29 ADD MSTORE DUP2 DUP2 PUSH2 0x2B0A ADD MSTORE DUP2 DUP2 PUSH2 0x2B9B ADD MSTORE DUP2 DUP2 PUSH2 0x359B ADD MSTORE DUP2 DUP2 PUSH2 0x3947 ADD MSTORE PUSH2 0x3B4B ADD MSTORE PUSH2 0x52F3 PUSH1 0x0 RETURN INVALID PUSH1 0x80 PUSH1 0x40 MSTORE PUSH1 0x4 CALLDATASIZE LT PUSH2 0x59 JUMPI PUSH1 0x0 CALLDATALOAD PUSH1 0xE0 SHR DUP1 PUSH4 0x340ED32A EQ PUSH2 0x65 JUMPI DUP1 PUSH4 0x36C9A1D2 EQ PUSH2 0x8E JUMPI DUP1 PUSH4 0x5FDA5F7F EQ PUSH2 0xAA JUMPI DUP1 PUSH4 0x690D8320 EQ PUSH2 0xC6 JUMPI DUP1 PUSH4 0xCF06783C EQ PUSH2 0xEF JUMPI DUP1 PUSH4 0xFA461E33 EQ PUSH2 0x10B JUMPI PUSH2 0x60 JUMP JUMPDEST CALLDATASIZE PUSH2 0x60 JUMPI STOP JUMPDEST PUSH1 0x0 DUP1 REVERT JUMPDEST CALLVALUE DUP1 ISZERO PUSH2 0x71 JUMPI PUSH1 0x0 DUP1 REVERT JUMPDEST POP PUSH2 0x8C PUSH1 0x4 DUP1 CALLDATASIZE SUB DUP2 ADD SWAP1 PUSH2 0x87 SWAP2 SWAP1 PUSH2 0x3FF0 JUMP JUMPDEST PUSH2 0x134 JUMP JUMPDEST STOP JUMPDEST PUSH2 0xA8 PUSH1 0x4 DUP1 CALLDATASIZE SUB DUP2 ADD SWAP1 PUSH2 0xA3 SWAP2 SWAP1 PUSH2 0x42A8 JUMP JUMPDEST PUSH2 0x2AF JUMP JUMPDEST STOP JUMPDEST PUSH2 0xC4 PUSH1 0x4 DUP1 CALLDATASIZE SUB DUP2 ADD SWAP1 PUSH2 0xBF SWAP2 SWAP1 PUSH2 0x4333 JUMP JUMPDEST PUSH2 0x349 JUMP JUMPDEST STOP JUMPDEST CALLVALUE DUP1 ISZERO PUSH2 0xD2 JUMPI PUSH1 0x0 DUP1 REVERT JUMPDEST POP PUSH2 0xED PUSH1 0x4 DUP1 CALLDATASIZE SUB DUP2 ADD SWAP1 PUSH2 0xE8 SWAP2 SWAP1 PUSH2 0x43AB JUMP JUMPDEST PUSH2 0x73E JUMP JUMPDEST STOP JUMPDEST PUSH2 0x109 PUSH1 0x4 DUP1 CALLDATASIZE SUB DUP2 ADD SWAP1 PUSH2 0x104 SWAP2 SWAP1 PUSH2 0x43D8 JUMP JUMPDEST PUSH2 0x801 JUMP JUMPDEST STOP JUMPDEST CALLVALUE DUP1 ISZERO PUSH2 0x117 JUMPI PUSH1 0x0 DUP1 REVERT JUMPDEST POP PUSH2 0x132 PUSH1 0x4 DUP1 CALLDATASIZE SUB DUP2 ADD SWAP1 PUSH2 0x12D SWAP2 SWAP1 PUSH2 0x44DC JUMP JUMPDEST PUSH2 0x933 JUMP JUMPDEST STOP JUMPDEST PUSH20 0xE9290C80B28DB1B3D9853AB1EE60C6630B87F57E PUSH20 0xFFFFFFFFFFFFFFFFFFFFFFFFFFFFFFFFFFFFFFFF AND CALLER PUSH20 0xFFFFFFFFFFFFFFFFFFFFFFFFFFFFFFFFFFFFFFFF AND EQ PUSH2 0x1AD JUMPI PUSH1 0x40 MLOAD PUSH32 0x82B4290000000000000000000000000000000000000000000000000000000000 DUP2 MSTORE PUSH1 0x4 ADD PUSH1 0x40 MLOAD DUP1 SWAP2 SUB SWAP1 REVERT JUMPDEST PUSH1 0x0 JUMPDEST DUP4 DUP4 SWAP1 POP DUP2 LT ISZERO PUSH2 0x2A9 JUMPI PUSH2 0x29C DUP5 DUP5 DUP4 DUP2 DUP2 LT PUSH2 0x1D1 JUMPI PUSH2 0x1D0 PUSH2 0x4550 JUMP JUMPDEST JUMPDEST SWAP1 POP PUSH1 0x20 MUL ADD PUSH1 0x20 DUP2 ADD SWAP1 PUSH2 0x1E6 SWAP2 SWAP1 PUSH2 0x45BD JUMP JUMPDEST DUP4 DUP7 DUP7 DUP6 DUP2 DUP2 LT PUSH2 0x1FA JUMPI PUSH2 0x1F9 PUSH2 0x4550 JUMP JUMPDEST JUMPDEST SWAP1 POP PUSH1 0x20 MUL ADD PUSH1 0x20 DUP2 ADD SWAP1 PUSH2 0x20F SWAP2 SWAP1 PUSH2 0x45BD JUMP JUMPDEST PUSH20 0xFFFFFFFFFFFFFFFFFFFFFFFFFFFFFFFFFFFFFFFF AND PUSH4 0x70A08231 ADDRESS PUSH1 0x40 MLOAD DUP3 PUSH4 0xFFFFFFFF AND PUSH1 0xE0 SHL DUP2 MSTORE PUSH1 0x4 ADD PUSH2 0x247 SWAP2 SWAP1 PUSH2 0x45F9 JUMP JUMPDEST PUSH1 0x20 PUSH1 0x40 MLOAD DUP1 DUP4 SUB DUP2 DUP7 DUP1 EXTCODESIZE ISZERO DUP1 ISZERO PUSH2 0x25F JUMPI PUSH1 0x0 DUP1 REVERT JUMPDEST POP GAS STATICCALL ISZERO DUP1 ISZERO PUSH2 0x273 JUMPI RETURNDATASIZE PUSH1 0x0 DUP1 RETURNDATACOPY RETURNDATASIZE PUSH1 0x0 REVERT JUMPDEST POP POP POP POP PUSH1 0x40 MLOAD RETURNDATASIZE PUSH1 0x1F NOT PUSH1 0x1F DUP3 ADD AND DUP3 ADD DUP1 PUSH1 0x40 MSTORE POP DUP2 ADD SWAP1 PUSH2 0x297 SWAP2 SWAP1 PUSH2 0x4629 JUMP JUMPDEST PUSH2 0xA93 JUMP JUMPDEST DUP1 DUP1 PUSH1 0x1 ADD SWAP2 POP POP PUSH2 0x1B0 JUMP JUMPDEST POP POP POP POP JUMP JUMPDEST DUP1 DUP1 TIMESTAMP GT ISZERO PUSH2 0x2EA JUMPI PUSH1 0x40 MLOAD PUSH32 0x70F65CAA00000000000000000000000000000000000000000000000000000000 DUP2 MSTORE PUSH1 0x4 ADD PUSH1 0x40 MLOAD DUP1 SWAP2 SUB SWAP1 REVERT JUMPDEST PUSH1 0x1 DUP5 MLOAD GT PUSH2 0x338 JUMPI PUSH2 0x333 DUP5 PUSH1 0x0 DUP2 MLOAD DUP2 LT PUSH2 0x30A JUMPI PUSH2 0x309 PUSH2 0x4550 JUMP JUMPDEST JUMPDEST PUSH1 0x20 MUL PUSH1 0x20 ADD ADD MLOAD DUP5 PUSH1 0x0 DUP2 MLOAD DUP2 LT PUSH2 0x326 JUMPI PUSH2 0x325 PUSH2 0x4550 JUMP JUMPDEST JUMPDEST PUSH1 0x20 MUL PUSH1 0x20 ADD ADD MLOAD PUSH2 0x801 JUMP JUMPDEST PUSH2 0x343 JUMP JUMPDEST PUSH2 0x342 DUP5 DUP5 PUSH2 0x349 JUMP JUMPDEST JUMPDEST POP POP POP POP JUMP JUMPDEST PUSH1 0x0 PUSH1 0x60 PUSH1 0x0 DUP1 PUSH1 0x0 DUP1 CALLVALUE SELFBALANCE PUSH2 0x35F SWAP2 SWAP1 PUSH2 0x4685 JUMP JUMPDEST SWAP1 POP PUSH1 0x0 JUMPDEST DUP8 MLOAD DUP2 LT ISZERO PUSH2 0x6F9 JUMPI PUSH1 0x0 DUP10 DUP3 DUP2 MLOAD DUP2 LT PUSH2 0x382 JUMPI PUSH2 0x381 PUSH2 0x4550 JUMP JUMPDEST JUMPDEST PUSH1 0x20 MUL PUSH1 0x20 ADD ADD MLOAD PUSH1 0x0 DUP2 MLOAD DUP2 LT PUSH2 0x39D JUMPI PUSH2 0x39C PUSH2 0x4550 JUMP JUMPDEST JUMPDEST PUSH1 0x20 ADD ADD MLOAD PUSH1 0xF8 SHR PUSH1 0xF8 SHL SWAP1 POP PUSH1 0x0 DUP10 DUP4 DUP2 MLOAD DUP2 LT PUSH2 0x3BF JUMPI PUSH2 0x3BE PUSH2 0x4550 JUMP JUMPDEST JUMPDEST PUSH1 0x20 MUL PUSH1 0x20 ADD ADD MLOAD SWAP1 POP PUSH1 0x0 PUSH1 0x1F PUSH1 0xF8 SHL DUP4 AND SWAP1 POP PUSH1 0x0 DUP5 GT DUP1 ISZERO PUSH2 0x3E9 JUMPI POP PUSH2 0x3E8 DUP4 PUSH2 0xB2B JUMP JUMPDEST JUMPDEST ISZERO PUSH2 0x5FD JUMPI PUSH1 0x4 PUSH1 0xF8 SHL DUP2 PUSH31 0xFFFFFFFFFFFFFFFFFFFFFFFFFFFFFFFFFFFFFFFFFFFFFFFFFFFFFFFFFFFFFF NOT AND EQ ISZERO PUSH2 0x446 JUMPI PUSH2 0x441 DUP13 DUP6 DUP2 MLOAD DUP2 LT PUSH2 0x432 JUMPI PUSH2 0x431 PUSH2 0x4550 JUMP JUMPDEST JUMPDEST PUSH1 0x20 MUL PUSH1 0x20 ADD ADD MLOAD PUSH1 0x1 PUSH2 0xB62 JUMP JUMPDEST PUSH2 0x486 JUMP JUMPDEST DUP12 DUP5 DUP2 MLOAD DUP2 LT PUSH2 0x459 JUMPI PUSH2 0x458 PUSH2 0x4550 JUMP JUMPDEST JUMPDEST PUSH1 0x20 MUL PUSH1 0x20 ADD ADD MLOAD PUSH1 0x1 DUP2 MLOAD DUP2 LT PUSH2 0x474 JUMPI PUSH2 0x473 PUSH2 0x4550 JUMP JUMPDEST JUMPDEST PUSH1 0x20 ADD ADD MLOAD PUSH1 0xF8 SHR PUSH1 0xF8 SHL PUSH1 0xF8 SHR PUSH1 0xFF AND JUMPDEST PUSH2 0xFFFF AND SWAP7 POP PUSH1 0x4 PUSH1 0xF8 SHL DUP2 PUSH31 0xFFFFFFFFFFFFFFFFFFFFFFFFFFFFFFFFFFFFFFFFFFFFFFFFFFFFFFFFFFFFFF NOT AND EQ ISZERO PUSH2 0x4E4 JUMPI PUSH2 0x4DF DUP13 DUP6 DUP2 MLOAD DUP2 LT PUSH2 0x4D0 JUMPI PUSH2 0x4CF PUSH2 0x4550 JUMP JUMPDEST JUMPDEST PUSH1 0x20 MUL PUSH1 0x20 ADD ADD MLOAD PUSH1 0x3 PUSH2 0xB62 JUMP JUMPDEST PUSH2 0x524 JUMP JUMPDEST DUP12 DUP5 DUP2 MLOAD DUP2 LT PUSH2 0x4F7 JUMPI PUSH2 0x4F6 PUSH2 0x4550 JUMP JUMPDEST JUMPDEST PUSH1 0x20 MUL PUSH1 0x20 ADD ADD MLOAD PUSH1 0x2 DUP2 MLOAD DUP2 LT PUSH2 0x512 JUMPI PUSH2 0x511 PUSH2 0x4550 JUMP JUMPDEST JUMPDEST PUSH1 0x20 ADD ADD MLOAD PUSH1 0xF8 SHR PUSH1 0xF8 SHL PUSH1 0xF8 SHR PUSH1 0xFF AND JUMPDEST PUSH2 0xFFFF AND SWAP8 POP PUSH2 0x581 PUSH1 0x1F PUSH1 0xF8 SHL DUP14 PUSH1 0x1 DUP8 PUSH2 0x540 SWAP2 SWAP1 PUSH2 0x4685 JUMP JUMPDEST DUP2 MLOAD DUP2 LT PUSH2 0x551 JUMPI PUSH2 0x550 PUSH2 0x4550 JUMP JUMPDEST JUMPDEST PUSH1 0x20 MUL PUSH1 0x20 ADD ADD MLOAD PUSH1 0x0 DUP2 MLOAD DUP2 LT PUSH2 0x56C JUMPI PUSH2 0x56B PUSH2 0x4550 JUMP JUMPDEST JUMPDEST PUSH1 0x20 ADD ADD MLOAD PUSH1 0xF8 SHR PUSH1 0xF8 SHL AND DUP5 DUP11 DUP6 DUP14 PUSH2 0xB73 JUMP JUMPDEST SWAP2 POP PUSH1 0x5 PUSH1 0xF8 SHL DUP2 PUSH31 0xFFFFFFFFFFFFFFFFFFFFFFFFFFFFFFFFFFFFFFFFFFFFFFFFFFFFFFFFFFFFFF NOT AND GT DUP1 ISZERO PUSH2 0x5E4 JUMPI POP PUSH1 0x0 PUSH1 0xF8 SHL PUSH1 0x20 PUSH1 0xF8 SHL DUP5 AND PUSH31 0xFFFFFFFFFFFFFFFFFFFFFFFFFFFFFFFFFFFFFFFFFFFFFFFFFFFFFFFFFFFFFF NOT AND EQ ISZERO JUMPDEST ISZERO PUSH2 0x5F8 JUMPI DUP5 SELFBALANCE PUSH2 0x5F5 SWAP2 SWAP1 PUSH2 0x4685 JUMP JUMPDEST SWAP6 POP JUMPDEST PUSH2 0x648 JUMP JUMPDEST PUSH2 0x63B DUP13 DUP6 DUP2 MLOAD DUP2 LT PUSH2 0x613 JUMPI PUSH2 0x612 PUSH2 0x4550 JUMP JUMPDEST JUMPDEST PUSH1 0x20 MUL PUSH1 0x20 ADD ADD MLOAD DUP13 DUP7 DUP2 MLOAD DUP2 LT PUSH2 0x62E JUMPI PUSH2 0x62D PUSH2 0x4550 JUMP JUMPDEST JUMPDEST PUSH1 0x20 MUL PUSH1 0x20 ADD ADD MLOAD PUSH2 0xF03 JUMP JUMPDEST DUP1 SWAP5 POP DUP2 SWAP10 POP DUP3 SWAP11 POP POP POP POP JUMPDEST PUSH2 0x68E DUP4 DUP9 DUP11 DUP6 PUSH1 0x0 DUP10 EQ PUSH2 0x65D JUMPI DUP11 PUSH2 0x689 JUMP JUMPDEST PUSH1 0x0 CALLVALUE EQ PUSH2 0x685 JUMPI PUSH2 0x2710 PUSH2 0x270E CALLVALUE PUSH2 0x676 SWAP2 SWAP1 PUSH2 0x46B9 JUMP JUMPDEST PUSH2 0x680 SWAP2 SWAP1 PUSH2 0x4742 JUMP JUMPDEST PUSH2 0x688 JUMP JUMPDEST PUSH1 0x0 JUMPDEST JUMPDEST PUSH2 0x1214 JUMP JUMPDEST DUP1 SWAP11 POP DUP2 SWAP12 POP POP POP DUP10 PUSH2 0x6DC JUMPI DUP3 DUP5 DUP11 PUSH1 0x40 MLOAD PUSH32 0xAC70F6B300000000000000000000000000000000000000000000000000000000 DUP2 MSTORE PUSH1 0x4 ADD PUSH2 0x6D3 SWAP4 SWAP3 SWAP2 SWAP1 PUSH2 0x4845 JUMP JUMPDEST PUSH1 0x40 MLOAD DUP1 SWAP2 SUB SWAP1 REVERT JUMPDEST PUSH1 0x0 DUP7 EQ PUSH2 0x6E9 JUMPI PUSH1 0x0 SWAP6 POP JUMPDEST DUP4 DUP1 PUSH1 0x1 ADD SWAP5 POP POP POP POP POP PUSH2 0x364 JUMP JUMPDEST POP DUP1 SELFBALANCE LT ISZERO PUSH2 0x734 JUMPI PUSH1 0x40 MLOAD PUSH32 0xA01A9DF600000000000000000000000000000000000000000000000000000000 DUP2 MSTORE PUSH1 0x4 ADD PUSH1 0x40 MLOAD DUP1 SWAP2 SUB SWAP1 REVERT JUMPDEST POP POP POP POP POP POP POP POP JUMP JUMPDEST PUSH20 0xE9290C80B28DB1B3D9853AB1EE60C6630B87F57E PUSH20 0xFFFFFFFFFFFFFFFFFFFFFFFFFFFFFFFFFFFFFFFF AND CALLER PUSH20 0xFFFFFFFFFFFFFFFFFFFFFFFFFFFFFFFFFFFFFFFF AND EQ PUSH2 0x7B7 JUMPI PUSH1 0x40 MLOAD PUSH32 0x82B4290000000000000000000000000000000000000000000000000000000000 DUP2 MSTORE PUSH1 0x4 ADD PUSH1 0x40 MLOAD DUP1 SWAP2 SUB SWAP1 REVERT JUMPDEST DUP1 PUSH20 0xFFFFFFFFFFFFFFFFFFFFFFFFFFFFFFFFFFFFFFFF AND PUSH2 0x8FC SELFBALANCE SWAP1 DUP2 ISZERO MUL SWAP1 PUSH1 0x40 MLOAD PUSH1 0x0 PUSH1 0x40 MLOAD DUP1 DUP4 SUB DUP2 DUP6 DUP9 DUP9 CALL SWAP4 POP POP POP POP ISZERO DUP1 ISZERO PUSH2 0x7FD JUMPI RETURNDATASIZE PUSH1 0x0 DUP1 RETURNDATACOPY RETURNDATASIZE PUSH1 0x0 REVERT JUMPDEST POP POP JUMP JUMPDEST PUSH1 0x0 PUSH1 0x60 PUSH1 0x0 DUP1 PUSH1 0x0 CALLVALUE SELFBALANCE PUSH2 0x816 SWAP2 SWAP1 PUSH2 0x4685 JUMP JUMPDEST SWAP1 POP PUSH2 0x822 DUP8 DUP8 PUSH2 0xF03 JUMP JUMPDEST DUP1 SWAP9 POP DUP2 SWAP5 POP DUP3 SWAP6 POP POP POP POP PUSH2 0x883 DUP8 PUSH1 0x0 DUP2 MLOAD DUP2 LT PUSH2 0x845 JUMPI PUSH2 0x844 PUSH2 0x4550 JUMP JUMPDEST JUMPDEST PUSH1 0x20 ADD ADD MLOAD PUSH1 0xF8 SHR PUSH1 0xF8 SHL DUP4 DUP6 DUP10 PUSH1 0x0 CALLVALUE EQ PUSH2 0x87B JUMPI PUSH2 0x2710 PUSH2 0x270E CALLVALUE PUSH2 0x86C SWAP2 SWAP1 PUSH2 0x46B9 JUMP JUMPDEST PUSH2 0x876 SWAP2 SWAP1 PUSH2 0x4742 JUMP JUMPDEST PUSH2 0x87E JUMP JUMPDEST PUSH1 0x0 JUMPDEST PUSH2 0x1214 JUMP JUMPDEST DUP1 SWAP6 POP DUP2 SWAP7 POP POP POP DUP5 PUSH2 0x8F0 JUMPI DUP7 PUSH1 0x0 DUP2 MLOAD DUP2 LT PUSH2 0x8A4 JUMPI PUSH2 0x8A3 PUSH2 0x4550 JUMP JUMPDEST JUMPDEST PUSH1 0x20 ADD ADD MLOAD PUSH1 0xF8 SHR PUSH1 0xF8 SHL PUSH1 0x0 DUP6 PUSH1 0x40 MLOAD PUSH32 0xAC70F6B300000000000000000000000000000000000000000000000000000000 DUP2 MSTORE PUSH1 0x4 ADD PUSH2 0x8E7 SWAP4 SWAP3 SWAP2 SWAP1 PUSH2 0x48C8 JUMP JUMPDEST PUSH1 0x40 MLOAD DUP1 SWAP2 SUB SWAP1 REVERT JUMPDEST DUP1 SELFBALANCE LT ISZERO PUSH2 0x92A JUMPI PUSH1 0x40 MLOAD PUSH32 0xA01A9DF600000000000000000000000000000000000000000000000000000000 DUP2 MSTORE PUSH1 0x4 ADD PUSH1 0x40 MLOAD DUP1 SWAP2 SUB SWAP1 REVERT JUMPDEST POP POP POP POP POP POP POP JUMP JUMPDEST PUSH1 0x0 DUP5 SGT DUP1 PUSH2 0x942 JUMPI POP PUSH1 0x0 DUP4 SGT JUMPDEST PUSH2 0x94B JUMPI PUSH1 0x0 DUP1 REVERT JUMPDEST PUSH1 0x0 DUP1 PUSH1 0x0 PUSH2 0x99D DUP6 DUP6 DUP1 DUP1 PUSH1 0x1F ADD PUSH1 0x20 DUP1 SWAP2 DIV MUL PUSH1 0x20 ADD PUSH1 0x40 MLOAD SWAP1 DUP2 ADD PUSH1 0x40 MSTORE DUP1 SWAP4 SWAP3 SWAP2 SWAP1 DUP2 DUP2 MSTORE PUSH1 0x20 ADD DUP4 DUP4 DUP1 DUP3 DUP5 CALLDATACOPY PUSH1 0x0 DUP2 DUP5 ADD MSTORE PUSH1 0x1F NOT PUSH1 0x1F DUP3 ADD AND SWAP1 POP DUP1 DUP4 ADD SWAP3 POP POP POP POP POP POP POP PUSH2 0x1BC5 JUMP JUMPDEST SWAP3 POP SWAP3 POP SWAP3 POP PUSH1 0x0 PUSH20 0xFFFFFFFFFFFFFFFFFFFFFFFFFFFFFFFFFFFFFFFF AND DUP4 PUSH20 0xFFFFFFFFFFFFFFFFFFFFFFFFFFFFFFFFFFFFFFFF AND EQ PUSH2 0x9DD JUMPI DUP3 PUSH2 0x9FF JUMP JUMPDEST PUSH32 0x0 JUMPDEST SWAP3 POP PUSH2 0xA0C DUP4 DUP4 DUP4 PUSH2 0x1BF8 JUMP JUMPDEST PUSH20 0xFFFFFFFFFFFFFFFFFFFFFFFFFFFFFFFFFFFFFFFF AND CALLER PUSH20 0xFFFFFFFFFFFFFFFFFFFFFFFFFFFFFFFFFFFFFFFF AND EQ PUSH2 0xA70 JUMPI PUSH1 0x40 MLOAD PUSH32 0xB2C0272200000000000000000000000000000000000000000000000000000000 DUP2 MSTORE PUSH1 0x4 ADD PUSH1 0x40 MLOAD DUP1 SWAP2 SUB SWAP1 REVERT JUMPDEST PUSH2 0xA8A DUP4 CALLER PUSH1 0x0 DUP11 SGT PUSH2 0xA83 JUMPI DUP9 PUSH2 0xA85 JUMP JUMPDEST DUP10 JUMPDEST PUSH2 0xA93 JUMP JUMPDEST POP POP POP POP POP POP POP JUMP JUMPDEST PUSH1 0x0 PUSH1 0x40 MLOAD PUSH32 0xA9059CBB00000000000000000000000000000000000000000000000000000000 DUP2 MSTORE DUP4 PUSH1 0x4 DUP3 ADD MSTORE DUP3 PUSH1 0x24 DUP3 ADD MSTORE PUSH1 0x20 PUSH1 0x0 PUSH1 0x44 DUP4 PUSH1 0x0 DUP10 GAS CALL RETURNDATASIZE ISZERO PUSH1 0x1F RETURNDATASIZE GT PUSH1 0x1 PUSH1 0x0 MLOAD EQ AND OR AND SWAP2 POP POP DUP1 PUSH2 0xB25 JUMPI PUSH1 0x40 MLOAD PUSH32 0x8C379A000000000000000000000000000000000000000000000000000000000 DUP2 MSTORE PUSH1 0x4 ADD PUSH2 0xB1C SWAP1 PUSH2 0x4963 JUMP JUMPDEST PUSH1 0x40 MLOAD DUP1 SWAP2 SUB SWAP1 REVERT JUMPDEST POP POP POP POP JUMP JUMPDEST PUSH1 0x0 DUP1 PUSH1 0xF8 SHL PUSH1 0x40 PUSH1 0xF8 SHL DUP4 AND PUSH31 0xFFFFFFFFFFFFFFFFFFFFFFFFFFFFFFFFFFFFFFFFFFFFFFFFFFFFFFFFFFFFFF NOT AND EQ SWAP1 POP SWAP2 SWAP1 POP JUMP JUMPDEST PUSH1 0x0 DUP2 PUSH1 0x2 DUP5 ADD ADD MLOAD SWAP1 POP SWAP3 SWAP2 POP POP JUMP JUMPDEST PUSH1 0x60 PUSH1 0xA PUSH1 0xF8 SHL PUSH1 0x1F PUSH1 0xF8 SHL DUP7 AND PUSH31 0xFFFFFFFFFFFFFFFFFFFFFFFFFFFFFFFFFFFFFFFFFFFFFFFFFFFFFFFFFFFFFF NOT AND GT DUP1 ISZERO PUSH2 0xBDC JUMPI POP PUSH1 0x0 PUSH1 0xF8 SHL PUSH1 0x20 PUSH1 0xF8 SHL DUP7 AND PUSH31 0xFFFFFFFFFFFFFFFFFFFFFFFFFFFFFFFFFFFFFFFFFFFFFFFFFFFFFFFFFFFFFF NOT AND EQ ISZERO JUMPDEST ISZERO PUSH2 0xBE9 JUMPI DUP3 SWAP1 POP PUSH2 0xEFA JUMP JUMPDEST PUSH1 0x0 PUSH1 0x4 PUSH1 0xF8 SHL DUP8 PUSH31 0xFFFFFFFFFFFFFFFFFFFFFFFFFFFFFFFFFFFFFFFFFFFFFFFFFFFFFFFFFFFFFF NOT AND EQ DUP1 ISZERO PUSH2 0xC21 JUMPI POP PUSH1 0x20 DUP4 MLOAD GT JUMPDEST ISZERO PUSH2 0xC75 JUMPI PUSH2 0xC33 DUP4 PUSH1 0x40 PUSH1 0x20 PUSH2 0x1CDD JUMP JUMPDEST DUP1 PUSH1 0x20 ADD SWAP1 MLOAD DUP2 ADD SWAP1 PUSH2 0xC46 SWAP2 SWAP1 PUSH2 0x4998 JUMP JUMPDEST PUSH2 0xC4F SWAP1 PUSH2 0x49C5 JUMP JUMPDEST PUSH1 0x40 MLOAD PUSH1 0x20 ADD PUSH2 0xC5F SWAP2 SWAP1 PUSH2 0x4A0E JUMP JUMPDEST PUSH1 0x40 MLOAD PUSH1 0x20 DUP2 DUP4 SUB SUB DUP2 MSTORE SWAP1 PUSH1 0x40 MSTORE SWAP3 POP PUSH2 0xD88 JUMP JUMPDEST PUSH1 0x0 PUSH1 0xF8 SHL DUP8 PUSH31 0xFFFFFFFFFFFFFFFFFFFFFFFFFFFFFFFFFFFFFFFFFFFFFFFFFFFFFFFFFFFFFF NOT AND GT DUP1 ISZERO PUSH2 0xCCF JUMPI POP PUSH1 0x5 PUSH1 0xF8 SHL DUP8 PUSH31 0xFFFFFFFFFFFFFFFFFFFFFFFFFFFFFFFFFFFFFFFFFFFFFFFFFFFFFFFFFFFFFF NOT AND LT JUMPDEST ISZERO PUSH2 0xCD9 JUMPI PUSH2 0xD87 JUMP JUMPDEST PUSH1 0x0 PUSH1 0xF8 SHL DUP8 PUSH31 0xFFFFFFFFFFFFFFFFFFFFFFFFFFFFFFFFFFFFFFFFFFFFFFFFFFFFFFFFFFFFFF NOT AND EQ ISZERO PUSH2 0xD1C JUMPI PUSH1 0x20 DUP4 MLOAD PUSH2 0xD15 SWAP2 SWAP1 PUSH2 0x4685 JUMP JUMPDEST SWAP1 POP PUSH2 0xD86 JUMP JUMPDEST PUSH1 0x5 PUSH1 0xF8 SHL DUP8 PUSH31 0xFFFFFFFFFFFFFFFFFFFFFFFFFFFFFFFFFFFFFFFFFFFFFFFFFFFFFFFFFFFFFF NOT AND EQ ISZERO PUSH2 0xD53 JUMPI PUSH1 0x44 SWAP1 POP PUSH2 0xD85 JUMP JUMPDEST PUSH1 0x40 MLOAD PUSH32 0x12F269E500000000000000000000000000000000000000000000000000000000 DUP2 MSTORE PUSH1 0x4 ADD PUSH1 0x40 MLOAD DUP1 SWAP2 SUB SWAP1 REVERT JUMPDEST JUMPDEST JUMPDEST JUMPDEST PUSH1 0x4 PUSH1 0xF8 SHL PUSH1 0x1F PUSH1 0xF8 SHL DUP8 AND PUSH31 0xFFFFFFFFFFFFFFFFFFFFFFFFFFFFFFFFFFFFFFFFFFFFFFFFFFFFFFFFFFFFFF NOT AND EQ DUP1 ISZERO PUSH2 0xDEF JUMPI POP PUSH1 0x0 PUSH1 0xF8 SHL PUSH1 0x20 PUSH1 0xF8 SHL DUP8 AND PUSH31 0xFFFFFFFFFFFFFFFFFFFFFFFFFFFFFFFFFFFFFFFFFFFFFFFFFFFFFFFFFFFFFF NOT AND EQ ISZERO JUMPDEST ISZERO PUSH2 0xE9C JUMPI PUSH1 0x0 PUSH2 0xE0C DUP6 PUSH1 0x40 DUP9 PUSH2 0xE07 SWAP2 SWAP1 PUSH2 0x4685 JUMP JUMPDEST PUSH2 0x1D36 JUMP JUMPDEST PUSH1 0x20 PUSH2 0xE18 SWAP2 SWAP1 PUSH2 0x46B9 JUMP JUMPDEST PUSH1 0x24 PUSH2 0xE25 DUP8 PUSH1 0xE4 PUSH2 0x1D36 JUMP JUMPDEST PUSH2 0xE2F SWAP2 SWAP1 PUSH2 0x4A29 JUMP JUMPDEST PUSH2 0xE39 SWAP2 SWAP1 PUSH2 0x4A29 JUMP JUMPDEST SWAP1 POP PUSH1 0x0 PUSH2 0xE80 PUSH2 0xE4C DUP7 DUP6 PUSH1 0x20 PUSH2 0x1CDD JUMP JUMPDEST PUSH2 0xE7B DUP9 PUSH1 0x20 DUP7 PUSH2 0xE5D SWAP2 SWAP1 PUSH2 0x4A29 JUMP JUMPDEST PUSH1 0x20 DUP8 DUP13 MLOAD PUSH2 0xE6C SWAP2 SWAP1 PUSH2 0x4685 JUMP JUMPDEST PUSH2 0xE76 SWAP2 SWAP1 PUSH2 0x4685 JUMP JUMPDEST PUSH2 0x1CDD JUMP JUMPDEST PUSH2 0x1D47 JUMP JUMPDEST SWAP1 POP PUSH2 0xE97 PUSH2 0xE91 DUP8 PUSH1 0x0 DUP6 PUSH2 0x1CDD JUMP JUMPDEST DUP3 PUSH2 0x1D47 JUMP JUMPDEST SWAP6 POP POP POP JUMPDEST PUSH2 0xEA8 DUP5 PUSH1 0x0 DUP8 PUSH2 0x1CDD JUMP JUMPDEST SWAP2 POP PUSH2 0xEF6 DUP3 PUSH2 0xEF1 PUSH2 0xEBD DUP7 DUP6 PUSH1 0x20 PUSH2 0x1CDD JUMP JUMPDEST PUSH2 0xEEC DUP9 PUSH1 0x20 DUP12 PUSH2 0xECE SWAP2 SWAP1 PUSH2 0x4A29 JUMP JUMPDEST PUSH1 0x20 DUP13 DUP13 MLOAD PUSH2 0xEDD SWAP2 SWAP1 PUSH2 0x4685 JUMP JUMPDEST PUSH2 0xEE7 SWAP2 SWAP1 PUSH2 0x4685 JUMP JUMPDEST PUSH2 0x1CDD JUMP JUMPDEST PUSH2 0x1D47 JUMP JUMPDEST PUSH2 0x1D47 JUMP JUMPDEST SWAP2 POP POP JUMPDEST SWAP6 SWAP5 POP POP POP POP POP JUMP JUMPDEST PUSH1 0x0 DUP1 PUSH1 0x60 PUSH1 0x0 PUSH1 0x1F PUSH1 0xF8 SHL DUP7 PUSH1 0x0 DUP2 MLOAD DUP2 LT PUSH2 0xF23 JUMPI PUSH2 0xF22 PUSH2 0x4550 JUMP JUMPDEST JUMPDEST PUSH1 0x20 ADD ADD MLOAD PUSH1 0xF8 SHR PUSH1 0xF8 SHL AND PUSH1 0xF8 SHR PUSH1 0xFF AND SWAP1 POP PUSH1 0x4 DUP2 EQ PUSH2 0xF92 JUMPI DUP6 PUSH1 0x1 DUP2 MLOAD DUP2 LT PUSH2 0xF53 JUMPI PUSH2 0xF52 PUSH2 0x4550 JUMP JUMPDEST JUMPDEST PUSH1 0x20 ADD ADD MLOAD PUSH1 0xF8 SHR PUSH1 0xF8 SHL PUSH1 0xF8 SHR PUSH1 0xFF AND SWAP3 POP DUP6 PUSH1 0x2 DUP2 MLOAD DUP2 LT PUSH2 0xF7A JUMPI PUSH2 0xF79 PUSH2 0x4550 JUMP JUMPDEST JUMPDEST PUSH1 0x20 ADD ADD MLOAD PUSH1 0xF8 SHR PUSH1 0xF8 SHL PUSH1 0xF8 SHR PUSH1 0xFF AND SWAP4 POP PUSH2 0x10FE JUMP JUMPDEST PUSH1 0x0 PUSH1 0xF8 SHL PUSH1 0x20 PUSH1 0xF8 SHL DUP8 PUSH1 0x0 DUP2 MLOAD DUP2 LT PUSH2 0xFB0 JUMPI PUSH2 0xFAF PUSH2 0x4550 JUMP JUMPDEST JUMPDEST PUSH1 0x20 ADD ADD MLOAD PUSH1 0xF8 SHR PUSH1 0xF8 SHL AND PUSH31 0xFFFFFFFFFFFFFFFFFFFFFFFFFFFFFFFFFFFFFFFFFFFFFFFFFFFFFFFFFFFFFF NOT AND EQ ISZERO PUSH2 0xFF3 JUMPI PUSH2 0x130 SWAP3 POP PUSH2 0x164 SWAP4 POP PUSH2 0x10FD JUMP JUMPDEST PUSH1 0x14 DUP6 MLOAD PUSH2 0x1001 SWAP2 SWAP1 PUSH2 0x4685 JUMP JUMPDEST SWAP3 POP PUSH2 0x100F DUP6 PUSH2 0x144 PUSH2 0x1D36 JUMP JUMPDEST PUSH2 0x1A4 PUSH2 0x101C SWAP2 SWAP1 PUSH2 0x4A29 JUMP JUMPDEST SWAP4 POP PUSH1 0x0 PUSH2 0x1036 DUP7 PUSH1 0x40 DUP8 PUSH2 0x1031 SWAP2 SWAP1 PUSH2 0x4685 JUMP JUMPDEST PUSH2 0x1D36 JUMP JUMPDEST PUSH1 0x20 PUSH2 0x1042 SWAP2 SWAP1 PUSH2 0x46B9 JUMP JUMPDEST PUSH1 0x24 PUSH2 0x104F DUP9 PUSH1 0xE4 PUSH2 0x1D36 JUMP JUMPDEST PUSH2 0x1059 SWAP2 SWAP1 PUSH2 0x4A29 JUMP JUMPDEST PUSH2 0x1063 SWAP2 SWAP1 PUSH2 0x4A29 JUMP JUMPDEST SWAP1 POP PUSH1 0x0 PUSH2 0x10E1 PUSH2 0x2710 PUSH2 0x270E PUSH2 0x107A DUP11 DUP7 PUSH2 0x1D36 JUMP JUMPDEST PUSH2 0x1084 SWAP2 SWAP1 PUSH2 0x46B9 JUMP JUMPDEST PUSH2 0x108E SWAP2 SWAP1 PUSH2 0x4742 JUMP JUMPDEST PUSH1 0x40 MLOAD PUSH1 0x20 ADD PUSH2 0x109E SWAP2 SWAP1 PUSH2 0x4A0E JUMP JUMPDEST PUSH1 0x40 MLOAD PUSH1 0x20 DUP2 DUP4 SUB SUB DUP2 MSTORE SWAP1 PUSH1 0x40 MSTORE PUSH2 0x10DC DUP10 PUSH1 0x20 DUP7 PUSH2 0x10BE SWAP2 SWAP1 PUSH2 0x4A29 JUMP JUMPDEST PUSH1 0x20 DUP8 DUP14 MLOAD PUSH2 0x10CD SWAP2 SWAP1 PUSH2 0x4685 JUMP JUMPDEST PUSH2 0x10D7 SWAP2 SWAP1 PUSH2 0x4685 JUMP JUMPDEST PUSH2 0x1CDD JUMP JUMPDEST PUSH2 0x1D47 JUMP JUMPDEST SWAP1 POP PUSH2 0x10F8 PUSH2 0x10F2 DUP9 PUSH1 0x0 DUP6 PUSH2 0x1CDD JUMP JUMPDEST DUP3 PUSH2 0x1D47 JUMP JUMPDEST SWAP7 POP POP POP JUMPDEST JUMPDEST PUSH1 0xA DUP2 GT DUP1 ISZERO PUSH2 0x110E JUMPI POP PUSH1 0x0 CALLVALUE GT JUMPDEST ISZERO PUSH2 0x1122 JUMPI DUP4 DUP4 DUP7 SWAP4 POP SWAP4 POP SWAP4 POP POP PUSH2 0x120D JUMP JUMPDEST PUSH1 0x0 PUSH2 0x112E DUP7 DUP7 PUSH2 0x1D36 JUMP JUMPDEST SWAP1 POP PUSH1 0x0 CALLVALUE EQ ISZERO PUSH2 0x114F JUMPI PUSH2 0x114E PUSH2 0x1146 DUP8 DUP7 PUSH2 0x1DD1 JUMP JUMPDEST CALLER ADDRESS DUP5 PUSH2 0x1DE2 JUMP JUMPDEST JUMPDEST PUSH1 0x0 PUSH2 0x11C2 PUSH2 0x2710 PUSH2 0x270E DUP5 PUSH2 0x1165 SWAP2 SWAP1 PUSH2 0x46B9 JUMP JUMPDEST PUSH2 0x116F SWAP2 SWAP1 PUSH2 0x4742 JUMP JUMPDEST PUSH1 0x40 MLOAD PUSH1 0x20 ADD PUSH2 0x117F SWAP2 SWAP1 PUSH2 0x4A0E JUMP JUMPDEST PUSH1 0x40 MLOAD PUSH1 0x20 DUP2 DUP4 SUB SUB DUP2 MSTORE SWAP1 PUSH1 0x40 MSTORE PUSH2 0x11BD DUP10 PUSH1 0x20 DUP11 PUSH2 0x119F SWAP2 SWAP1 PUSH2 0x4A29 JUMP JUMPDEST PUSH1 0x20 DUP12 DUP14 MLOAD PUSH2 0x11AE SWAP2 SWAP1 PUSH2 0x4685 JUMP JUMPDEST PUSH2 0x11B8 SWAP2 SWAP1 PUSH2 0x4685 JUMP JUMPDEST PUSH2 0x1CDD JUMP JUMPDEST PUSH2 0x1D47 JUMP JUMPDEST SWAP1 POP PUSH1 0x1 DUP4 EQ DUP1 PUSH2 0x11D3 JUMPI POP PUSH1 0x2 DUP4 EQ JUMPDEST ISZERO PUSH2 0x11E9 JUMPI DUP6 DUP6 DUP3 SWAP6 POP SWAP6 POP SWAP6 POP POP POP POP PUSH2 0x120D JUMP JUMPDEST PUSH2 0x11FE PUSH2 0x11F8 DUP9 PUSH1 0x0 DUP10 PUSH2 0x1CDD JUMP JUMPDEST DUP3 PUSH2 0x1D47 JUMP JUMPDEST SWAP7 POP DUP6 DUP6 DUP9 SWAP6 POP SWAP6 POP SWAP6 POP POP POP POP JUMPDEST SWAP3 POP SWAP3 POP SWAP3 JUMP JUMPDEST PUSH1 0x0 PUSH1 0x60 PUSH1 0x0 PUSH1 0x1F PUSH1 0xF8 SHL DUP9 AND PUSH1 0xF8 SHR PUSH1 0xFF AND SWAP1 POP PUSH1 0x6 DUP2 LT ISZERO PUSH2 0x14B2 JUMPI PUSH1 0x3 DUP2 LT ISZERO PUSH2 0x1349 JUMPI PUSH1 0x1 DUP2 EQ ISZERO PUSH2 0x126C JUMPI PUSH2 0x1261 DUP6 PUSH2 0x1252 DUP8 DUP11 PUSH2 0x1DD1 JUMP JUMPDEST PUSH2 0x125C DUP9 DUP11 PUSH2 0x1D36 JUMP JUMPDEST PUSH2 0x1E81 JUMP JUMPDEST SWAP2 POP PUSH1 0x1 SWAP3 POP PUSH2 0x1344 JUMP JUMPDEST PUSH1 0x2 DUP2 EQ ISZERO PUSH2 0x129D JUMPI PUSH2 0x1292 DUP6 PUSH2 0x1283 DUP8 DUP11 PUSH2 0x1DD1 JUMP JUMPDEST PUSH2 0x128D DUP9 DUP11 PUSH2 0x1D36 JUMP JUMPDEST PUSH2 0x27C6 JUMP JUMPDEST SWAP2 POP PUSH1 0x1 SWAP3 POP PUSH2 0x1343 JUMP JUMPDEST PUSH1 0x0 DUP2 EQ ISZERO PUSH2 0x1342 JUMPI PUSH1 0x0 PUSH2 0x12BF DUP7 PUSH1 0x1 DUP9 MLOAD PUSH2 0x12BA SWAP2 SWAP1 PUSH2 0x4685 JUMP JUMPDEST PUSH2 0x2C72 JUMP JUMPDEST PUSH1 0xFF AND SWAP1 POP PUSH2 0x1338 PUSH1 0x0 DUP3 EQ PUSH2 0x12F5 JUMPI PUSH32 0x0 PUSH2 0x1317 JUMP JUMPDEST PUSH32 0x0 JUMPDEST DUP10 DUP10 DUP9 PUSH2 0x1333 DUP12 PUSH1 0x0 PUSH1 0x1 DUP15 MLOAD PUSH2 0x132E SWAP2 SWAP1 PUSH2 0x4685 JUMP JUMPDEST PUSH2 0x1CDD JUMP JUMPDEST PUSH2 0x2C83 JUMP JUMPDEST DUP1 SWAP5 POP DUP2 SWAP6 POP POP POP POP JUMPDEST JUMPDEST JUMPDEST PUSH2 0x14AD JUMP JUMPDEST PUSH1 0x3 DUP2 EQ ISZERO PUSH2 0x137A JUMPI PUSH2 0x136F DUP6 PUSH2 0x1360 DUP8 DUP11 PUSH2 0x1DD1 JUMP JUMPDEST PUSH2 0x136A DUP9 DUP11 PUSH2 0x1D36 JUMP JUMPDEST PUSH2 0x2D29 JUMP JUMPDEST SWAP2 POP PUSH1 0x1 SWAP3 POP PUSH2 0x14AC JUMP JUMPDEST PUSH1 0x4 DUP2 EQ ISZERO PUSH2 0x14AB JUMPI PUSH1 0x0 DUP5 EQ ISZERO PUSH2 0x13CA JUMPI PUSH2 0x13C9 PUSH2 0x1399 DUP7 DUP10 PUSH2 0x1DD1 JUMP JUMPDEST PUSH32 0x0 PUSH2 0x13C4 DUP9 DUP11 PUSH2 0x1D36 JUMP JUMPDEST PUSH2 0x33BC JUMP JUMPDEST JUMPDEST PUSH1 0x0 PUSH1 0xF8 SHL PUSH1 0x20 PUSH1 0xF8 SHL DUP10 AND PUSH31 0xFFFFFFFFFFFFFFFFFFFFFFFFFFFFFFFFFFFFFFFFFFFFFFFFFFFFFFFFFFFFFF NOT AND EQ PUSH2 0x1419 JUMPI PUSH2 0x1416 DUP6 PUSH1 0x0 PUSH1 0x14 DUP9 MLOAD PUSH2 0x1411 SWAP2 SWAP1 PUSH2 0x4685 JUMP JUMPDEST PUSH2 0x1CDD JUMP JUMPDEST SWAP5 POP JUMPDEST PUSH32 0x0 PUSH20 0xFFFFFFFFFFFFFFFFFFFFFFFFFFFFFFFFFFFFFFFF AND DUP5 DUP7 PUSH1 0x40 MLOAD PUSH2 0x145F SWAP2 SWAP1 PUSH2 0x4ABB JUMP JUMPDEST PUSH1 0x0 PUSH1 0x40 MLOAD DUP1 DUP4 SUB DUP2 DUP6 DUP8 GAS CALL SWAP3 POP POP POP RETURNDATASIZE DUP1 PUSH1 0x0 DUP2 EQ PUSH2 0x149C JUMPI PUSH1 0x40 MLOAD SWAP2 POP PUSH1 0x1F NOT PUSH1 0x3F RETURNDATASIZE ADD AND DUP3 ADD PUSH1 0x40 MSTORE RETURNDATASIZE DUP3 MSTORE RETURNDATASIZE PUSH1 0x0 PUSH1 0x20 DUP5 ADD RETURNDATACOPY PUSH2 0x14A1 JUMP JUMPDEST PUSH1 0x60 SWAP2 POP JUMPDEST POP DUP1 SWAP4 POP DUP2 SWAP5 POP POP POP JUMPDEST JUMPDEST JUMPDEST PUSH2 0x1BBA JUMP JUMPDEST PUSH1 0xF DUP2 LT ISZERO PUSH2 0x1AD6 JUMPI PUSH1 0xA DUP2 LT ISZERO PUSH2 0x1773 JUMPI PUSH1 0x6 DUP2 EQ ISZERO PUSH2 0x16A6 JUMPI PUSH1 0x0 PUSH2 0x14E6 DUP7 PUSH1 0x1 DUP9 MLOAD PUSH2 0x14E1 SWAP2 SWAP1 PUSH2 0x4685 JUMP JUMPDEST PUSH2 0x2C72 JUMP JUMPDEST PUSH1 0xFF AND SWAP1 POP PUSH1 0x0 PUSH1 0x3 DUP3 LT PUSH2 0x1579 JUMPI PUSH1 0x3 DUP3 EQ PUSH2 0x1552 JUMPI PUSH1 0x4 DUP3 EQ PUSH2 0x152B JUMPI PUSH32 0x0 PUSH2 0x154D JUMP JUMPDEST PUSH32 0x0 JUMPDEST PUSH2 0x1574 JUMP JUMPDEST PUSH32 0x0 JUMPDEST PUSH2 0x15F9 JUMP JUMPDEST PUSH1 0x0 DUP3 EQ PUSH2 0x15D6 JUMPI PUSH1 0x1 DUP3 EQ PUSH2 0x15AF JUMPI PUSH32 0x0 PUSH2 0x15D1 JUMP JUMPDEST PUSH32 0x0 JUMPDEST PUSH2 0x15F8 JUMP JUMPDEST PUSH32 0x0 JUMPDEST JUMPDEST SWAP1 POP PUSH1 0x0 DUP7 EQ ISZERO PUSH2 0x1622 JUMPI PUSH2 0x1621 PUSH2 0x1611 DUP9 DUP12 PUSH2 0x1DD1 JUMP JUMPDEST DUP3 PUSH2 0x161C DUP11 DUP13 PUSH2 0x1D36 JUMP JUMPDEST PUSH2 0x33BC JUMP JUMPDEST JUMPDEST DUP1 PUSH20 0xFFFFFFFFFFFFFFFFFFFFFFFFFFFFFFFFFFFFFFFF AND DUP7 PUSH2 0x1647 DUP10 PUSH1 0x0 PUSH1 0xF8 PUSH2 0x1CDD JUMP JUMPDEST PUSH1 0x40 MLOAD PUSH2 0x1654 SWAP2 SWAP1 PUSH2 0x4ABB JUMP JUMPDEST PUSH1 0x0 PUSH1 0x40 MLOAD DUP1 DUP4 SUB DUP2 DUP6 DUP8 GAS CALL SWAP3 POP POP POP RETURNDATASIZE DUP1 PUSH1 0x0 DUP2 EQ PUSH2 0x1691 JUMPI PUSH1 0x40 MLOAD SWAP2 POP PUSH1 0x1F NOT PUSH1 0x3F RETURNDATASIZE ADD AND DUP3 ADD PUSH1 0x40 MSTORE RETURNDATASIZE DUP3 MSTORE RETURNDATASIZE PUSH1 0x0 PUSH1 0x20 DUP5 ADD RETURNDATACOPY PUSH2 0x1696 JUMP JUMPDEST PUSH1 0x60 SWAP2 POP JUMPDEST POP DUP1 SWAP6 POP DUP2 SWAP7 POP POP POP POP POP PUSH2 0x176E JUMP JUMPDEST PUSH1 0x7 DUP2 EQ ISZERO PUSH2 0x16E9 JUMPI PUSH2 0x16DC PUSH32 0x0 DUP9 DUP9 DUP8 DUP10 PUSH2 0x2C83 JUMP JUMPDEST DUP1 SWAP4 POP DUP2 SWAP5 POP POP POP PUSH2 0x176D JUMP JUMPDEST PUSH1 0x8 DUP2 EQ ISZERO PUSH2 0x172C JUMPI PUSH2 0x171F PUSH32 0x0 DUP9 DUP9 DUP8 DUP10 PUSH2 0x2C83 JUMP JUMPDEST DUP1 SWAP4 POP DUP2 SWAP5 POP POP POP PUSH2 0x176C JUMP JUMPDEST PUSH1 0x9 DUP2 EQ ISZERO PUSH2 0x176B JUMPI PUSH2 0x1762 PUSH32 0x0 DUP9 DUP9 DUP8 DUP10 PUSH2 0x2C83 JUMP JUMPDEST DUP1 SWAP4 POP DUP2 SWAP5 POP POP POP JUMPDEST JUMPDEST JUMPDEST JUMPDEST PUSH2 0x1AD1 JUMP JUMPDEST PUSH1 0xC DUP2 EQ ISZERO PUSH2 0x18FA JUMPI PUSH1 0x0 DUP5 EQ ISZERO PUSH2 0x1863 JUMPI PUSH2 0x17C2 PUSH2 0x1792 DUP7 DUP10 PUSH2 0x1DD1 JUMP JUMPDEST PUSH32 0x0 PUSH2 0x17BD DUP9 DUP11 PUSH2 0x1D36 JUMP JUMPDEST PUSH2 0x33BC JUMP JUMPDEST PUSH32 0x0 PUSH20 0xFFFFFFFFFFFFFFFFFFFFFFFFFFFFFFFFFFFFFFFF AND PUSH2 0x1806 DUP7 PUSH1 0x0 PUSH1 0x90 PUSH2 0x1CDD JUMP JUMPDEST PUSH1 0x40 MLOAD PUSH2 0x1813 SWAP2 SWAP1 PUSH2 0x4ABB JUMP JUMPDEST PUSH1 0x0 PUSH1 0x40 MLOAD DUP1 DUP4 SUB DUP2 PUSH1 0x0 DUP7 GAS CALL SWAP2 POP POP RETURNDATASIZE DUP1 PUSH1 0x0 DUP2 EQ PUSH2 0x1850 JUMPI PUSH1 0x40 MLOAD SWAP2 POP PUSH1 0x1F NOT PUSH1 0x3F RETURNDATASIZE ADD AND DUP3 ADD PUSH1 0x40 MSTORE RETURNDATASIZE DUP3 MSTORE RETURNDATASIZE PUSH1 0x0 PUSH1 0x20 DUP5 ADD RETURNDATACOPY PUSH2 0x1855 JUMP JUMPDEST PUSH1 0x60 SWAP2 POP JUMPDEST POP DUP1 SWAP4 POP DUP2 SWAP5 POP POP POP PUSH2 0x18F5 JUMP JUMPDEST PUSH32 0x0 PUSH20 0xFFFFFFFFFFFFFFFFFFFFFFFFFFFFFFFFFFFFFFFF AND DUP5 DUP7 PUSH1 0x40 MLOAD PUSH2 0x18A9 SWAP2 SWAP1 PUSH2 0x4ABB JUMP JUMPDEST PUSH1 0x0 PUSH1 0x40 MLOAD DUP1 DUP4 SUB DUP2 DUP6 DUP8 GAS CALL SWAP3 POP POP POP RETURNDATASIZE DUP1 PUSH1 0x0 DUP2 EQ PUSH2 0x18E6 JUMPI PUSH1 0x40 MLOAD SWAP2 POP PUSH1 0x1F NOT PUSH1 0x3F RETURNDATASIZE ADD AND DUP3 ADD PUSH1 0x40 MSTORE RETURNDATASIZE DUP3 MSTORE RETURNDATASIZE PUSH1 0x0 PUSH1 0x20 DUP5 ADD RETURNDATACOPY PUSH2 0x18EB JUMP JUMPDEST PUSH1 0x60 SWAP2 POP JUMPDEST POP DUP1 SWAP4 POP DUP2 SWAP5 POP POP POP JUMPDEST PUSH2 0x1AD0 JUMP JUMPDEST PUSH1 0xD DUP2 EQ ISZERO PUSH2 0x193D JUMPI PUSH2 0x1930 PUSH32 0x0 DUP9 DUP9 DUP8 DUP10 PUSH2 0x2C83 JUMP JUMPDEST DUP1 SWAP4 POP DUP2 SWAP5 POP POP POP PUSH2 0x1ACF JUMP JUMPDEST PUSH1 0xE DUP2 EQ ISZERO PUSH2 0x1A8E JUMPI PUSH1 0x0 DUP5 EQ ISZERO PUSH2 0x198D JUMPI PUSH2 0x198C PUSH2 0x195C DUP7 DUP10 PUSH2 0x1DD1 JUMP JUMPDEST PUSH32 0x0 PUSH2 0x1987 DUP9 DUP11 PUSH2 0x1D36 JUMP JUMPDEST PUSH2 0x33BC JUMP JUMPDEST JUMPDEST PUSH1 0x0 PUSH2 0x199A DUP7 PUSH1 0x70 PUSH2 0x1DD1 JUMP JUMPDEST PUSH20 0xFFFFFFFFFFFFFFFFFFFFFFFFFFFFFFFFFFFFFFFF AND PUSH1 0x0 SHL PUSH2 0x19BE DUP8 PUSH1 0x84 PUSH2 0x1D36 JUMP JUMPDEST TIMESTAMP PUSH1 0x40 MLOAD PUSH1 0x20 ADD PUSH2 0x19D1 SWAP4 SWAP3 SWAP2 SWAP1 PUSH2 0x4AEB JUMP JUMPDEST PUSH1 0x40 MLOAD PUSH1 0x20 DUP2 DUP4 SUB SUB DUP2 MSTORE SWAP1 PUSH1 0x40 MSTORE SWAP1 POP PUSH32 0x0 PUSH20 0xFFFFFFFFFFFFFFFFFFFFFFFFFFFFFFFFFFFFFFFF AND DUP6 PUSH2 0x1A30 PUSH2 0x1A2A DUP10 PUSH1 0x0 PUSH1 0x64 PUSH2 0x1CDD JUMP JUMPDEST DUP5 PUSH2 0x1D47 JUMP JUMPDEST PUSH1 0x40 MLOAD PUSH2 0x1A3D SWAP2 SWAP1 PUSH2 0x4ABB JUMP JUMPDEST PUSH1 0x0 PUSH1 0x40 MLOAD DUP1 DUP4 SUB DUP2 DUP6 DUP8 GAS CALL SWAP3 POP POP POP RETURNDATASIZE DUP1 PUSH1 0x0 DUP2 EQ PUSH2 0x1A7A JUMPI PUSH1 0x40 MLOAD SWAP2 POP PUSH1 0x1F NOT PUSH1 0x3F RETURNDATASIZE ADD AND DUP3 ADD PUSH1 0x40 MSTORE RETURNDATASIZE DUP3 MSTORE RETURNDATASIZE PUSH1 0x0 PUSH1 0x20 DUP5 ADD RETURNDATACOPY PUSH2 0x1A7F JUMP JUMPDEST PUSH1 0x60 SWAP2 POP JUMPDEST POP DUP1 SWAP5 POP DUP2 SWAP6 POP POP POP POP PUSH2 0x1ACE JUMP JUMPDEST PUSH1 0xB DUP2 EQ ISZERO PUSH2 0x1ACD JUMPI PUSH2 0x1AC4 PUSH32 0x0 DUP9 DUP9 DUP8 DUP10 PUSH2 0x2C83 JUMP JUMPDEST DUP1 SWAP4 POP DUP2 SWAP5 POP POP POP JUMPDEST JUMPDEST JUMPDEST JUMPDEST JUMPDEST PUSH2 0x1BB9 JUMP JUMPDEST PUSH1 0x10 DUP2 EQ ISZERO PUSH2 0x1BB8 JUMPI PUSH1 0x0 DUP5 EQ ISZERO PUSH2 0x1B26 JUMPI PUSH2 0x1B25 PUSH2 0x1AF5 DUP7 DUP10 PUSH2 0x1DD1 JUMP JUMPDEST PUSH32 0x0 PUSH2 0x1B20 DUP9 DUP11 PUSH2 0x1D36 JUMP JUMPDEST PUSH2 0x33BC JUMP JUMPDEST JUMPDEST PUSH32 0x0 PUSH20 0xFFFFFFFFFFFFFFFFFFFFFFFFFFFFFFFFFFFFFFFF AND DUP5 DUP7 PUSH1 0x40 MLOAD PUSH2 0x1B6C SWAP2 SWAP1 PUSH2 0x4ABB JUMP JUMPDEST PUSH1 0x0 PUSH1 0x40 MLOAD DUP1 DUP4 SUB DUP2 DUP6 DUP8 GAS CALL SWAP3 POP POP POP RETURNDATASIZE DUP1 PUSH1 0x0 DUP2 EQ PUSH2 0x1BA9 JUMPI PUSH1 0x40 MLOAD SWAP2 POP PUSH1 0x1F NOT PUSH1 0x3F RETURNDATASIZE ADD AND DUP3 ADD PUSH1 0x40 MSTORE RETURNDATASIZE DUP3 MSTORE RETURNDATASIZE PUSH1 0x0 PUSH1 0x20 DUP5 ADD RETURNDATACOPY PUSH2 0x1BAE JUMP JUMPDEST PUSH1 0x60 SWAP2 POP JUMPDEST POP DUP1 SWAP4 POP DUP2 SWAP5 POP POP POP JUMPDEST JUMPDEST JUMPDEST POP SWAP6 POP SWAP6 SWAP4 POP POP POP POP JUMP JUMPDEST PUSH1 0x0 DUP1 PUSH1 0x0 PUSH2 0x1BD5 DUP5 PUSH1 0x0 PUSH2 0x1DD1 JUMP JUMPDEST SWAP3 POP PUSH2 0x1BE2 DUP5 PUSH1 0x14 PUSH2 0x3454 JUMP JUMPDEST SWAP1 POP PUSH2 0x1BEF DUP5 PUSH1 0x17 PUSH2 0x1DD1 JUMP JUMPDEST SWAP2 POP SWAP2 SWAP4 SWAP1 SWAP3 POP JUMP JUMPDEST PUSH1 0x0 DUP3 PUSH20 0xFFFFFFFFFFFFFFFFFFFFFFFFFFFFFFFFFFFFFFFF AND DUP5 PUSH20 0xFFFFFFFFFFFFFFFFFFFFFFFFFFFFFFFFFFFFFFFF AND GT ISZERO PUSH2 0x1C39 JUMPI DUP3 DUP5 DUP1 SWAP5 POP DUP2 SWAP6 POP POP POP JUMPDEST PUSH32 0x0 DUP5 DUP5 DUP5 PUSH1 0x40 MLOAD PUSH1 0x20 ADD PUSH2 0x1C6F SWAP4 SWAP3 SWAP2 SWAP1 PUSH2 0x4B40 JUMP JUMPDEST PUSH1 0x40 MLOAD PUSH1 0x20 DUP2 DUP4 SUB SUB DUP2 MSTORE SWAP1 PUSH1 0x40 MSTORE DUP1 MLOAD SWAP1 PUSH1 0x20 ADD KECCAK256 PUSH32 0xE34F199B19B2B4F47F68442619D555527D244F78A3297EA89325F843F87B8B54 PUSH1 0x0 SHL PUSH1 0x40 MLOAD PUSH1 0x20 ADD PUSH2 0x1CBB SWAP4 SWAP3 SWAP2 SWAP1 PUSH2 0x4C37 JUMP JUMPDEST PUSH1 0x40 MLOAD PUSH1 0x20 DUP2 DUP4 SUB SUB DUP2 MSTORE SWAP1 PUSH1 0x40 MSTORE DUP1 MLOAD SWAP1 PUSH1 0x20 ADD KECCAK256 PUSH1 0x0 SHR SWAP1 POP SWAP4 SWAP3 POP POP POP JUMP JUMPDEST PUSH1 0x60 PUSH1 0x40 MLOAD SWAP1 POP PUSH1 0x1F DUP3 AND DUP1 ISZERO PUSH1 0x20 MUL DUP2 DUP4 ADD ADD DUP4 DUP2 ADD DUP6 DUP4 ISZERO PUSH1 0x20 MUL DUP5 DUP10 ADD ADD ADD JUMPDEST DUP2 DUP4 LT ISZERO PUSH2 0x1D1D JUMPI DUP1 MLOAD DUP4 MSTORE PUSH1 0x20 DUP4 ADD SWAP3 POP PUSH1 0x20 DUP2 ADD SWAP1 POP PUSH2 0x1D00 JUMP JUMPDEST POP DUP5 DUP5 MSTORE PUSH1 0x1F NOT PUSH1 0x1F DUP4 ADD AND PUSH1 0x40 MSTORE POP POP POP SWAP4 SWAP3 POP POP POP JUMP JUMPDEST PUSH1 0x0 DUP2 PUSH1 0x20 DUP5 ADD ADD MLOAD SWAP1 POP SWAP3 SWAP2 POP POP JUMP JUMPDEST PUSH1 0x60 DUP1 PUSH1 0x40 MLOAD SWAP1 POP DUP4 MLOAD DUP1 DUP3 MSTORE PUSH1 0x20 DUP3 ADD DUP2 DUP2 ADD PUSH1 0x20 DUP8 ADD JUMPDEST DUP2 DUP4 LT ISZERO PUSH2 0x1D7D JUMPI DUP1 MLOAD DUP4 MSTORE PUSH1 0x20 DUP4 ADD SWAP3 POP PUSH1 0x20 DUP2 ADD SWAP1 POP PUSH2 0x1D60 JUMP JUMPDEST POP DUP6 MLOAD SWAP3 POP DUP4 MLOAD DUP4 ADD DUP5 MSTORE DUP1 SWAP2 POP DUP3 DUP3 ADD SWAP1 POP PUSH1 0x20 DUP7 ADD JUMPDEST DUP2 DUP4 LT ISZERO PUSH2 0x1DB2 JUMPI DUP1 MLOAD DUP4 MSTORE PUSH1 0x20 DUP4 ADD SWAP3 POP PUSH1 0x20 DUP2 ADD SWAP1 POP PUSH2 0x1D95 JUMP JUMPDEST POP PUSH1 0x1F NOT PUSH1 0x1F DUP9 MLOAD DUP6 ADD ISZERO DUP4 ADD ADD AND PUSH1 0x40 MSTORE POP POP POP DUP1 SWAP2 POP POP SWAP3 SWAP2 POP POP JUMP JUMPDEST PUSH1 0x0 DUP2 PUSH1 0x14 DUP5 ADD ADD MLOAD SWAP1 POP SWAP3 SWAP2 POP POP JUMP JUMPDEST PUSH1 0x0 PUSH1 0x40 MLOAD PUSH32 0x23B872DD00000000000000000000000000000000000000000000000000000000 DUP2 MSTORE DUP5 PUSH1 0x4 DUP3 ADD MSTORE DUP4 PUSH1 0x24 DUP3 ADD MSTORE DUP3 PUSH1 0x44 DUP3 ADD MSTORE PUSH1 0x20 PUSH1 0x0 PUSH1 0x64 DUP4 PUSH1 0x0 DUP11 GAS CALL RETURNDATASIZE ISZERO PUSH1 0x1F RETURNDATASIZE GT PUSH1 0x1 PUSH1 0x0 MLOAD EQ AND OR AND SWAP2 POP POP DUP1 PUSH2 0x1E7A JUMPI PUSH1 0x40 MLOAD PUSH32 0x8C379A000000000000000000000000000000000000000000000000000000000 DUP2 MSTORE PUSH1 0x4 ADD PUSH2 0x1E71 SWAP1 PUSH2 0x4CCB JUMP JUMPDEST PUSH1 0x40 MLOAD DUP1 SWAP2 SUB SWAP1 REVERT JUMPDEST POP POP POP POP POP JUMP JUMPDEST PUSH1 0x60 PUSH1 0x0 PUSH2 0x1E9C DUP6 PUSH1 0x2 DUP8 MLOAD PUSH2 0x1E97 SWAP2 SWAP1 PUSH2 0x4685 JUMP JUMPDEST PUSH2 0x2C72 JUMP JUMPDEST PUSH1 0xFF AND SWAP1 POP PUSH1 0x0 DUP1 PUSH2 0x1EBB DUP8 PUSH1 0x1 DUP10 MLOAD PUSH2 0x1EB6 SWAP2 SWAP1 PUSH2 0x4685 JUMP JUMPDEST PUSH2 0x2C72 JUMP JUMPDEST PUSH1 0xFF AND EQ PUSH2 0x1EDF JUMPI PUSH2 0x1EDA DUP7 PUSH1 0x16 DUP9 MLOAD PUSH2 0x1ED5 SWAP2 SWAP1 PUSH2 0x4685 JUMP JUMPDEST PUSH2 0x1DD1 JUMP JUMPDEST PUSH2 0x1EE1 JUMP JUMPDEST CALLER JUMPDEST SWAP1 POP PUSH1 0x0 DUP1 PUSH1 0x0 PUSH2 0x1EF4 DUP10 DUP10 DUP10 DUP9 PUSH2 0x3465 JUMP JUMPDEST SWAP3 POP SWAP3 POP SWAP3 POP PUSH1 0x1 DUP6 GT ISZERO PUSH2 0x236A JUMPI PUSH1 0x0 DUP3 PUSH1 0x1 DUP2 MLOAD DUP2 LT PUSH2 0x1F19 JUMPI PUSH2 0x1F18 PUSH2 0x4550 JUMP JUMPDEST JUMPDEST PUSH1 0x20 MUL PUSH1 0x20 ADD ADD MLOAD PUSH20 0xFFFFFFFFFFFFFFFFFFFFFFFFFFFFFFFFFFFFFFFF AND DUP4 PUSH1 0x0 DUP2 MLOAD DUP2 LT PUSH2 0x1F4B JUMPI PUSH2 0x1F4A PUSH2 0x4550 JUMP JUMPDEST JUMPDEST PUSH1 0x20 MUL PUSH1 0x20 ADD ADD MLOAD PUSH20 0xFFFFFFFFFFFFFFFFFFFFFFFFFFFFFFFFFFFFFFFF AND LT PUSH2 0x1F75 JUMPI PUSH1 0x0 PUSH2 0x1F78 JUMP JUMPDEST PUSH1 0x1 JUMPDEST SWAP1 POP DUP4 PUSH1 0x0 DUP2 MLOAD DUP2 LT PUSH2 0x1F8E JUMPI PUSH2 0x1F8D PUSH2 0x4550 JUMP JUMPDEST JUMPDEST PUSH1 0x20 MUL PUSH1 0x20 ADD ADD MLOAD PUSH20 0xFFFFFFFFFFFFFFFFFFFFFFFFFFFFFFFFFFFFFFFF AND PUSH4 0x22C0D9F DUP3 PUSH2 0x1FD7 JUMPI DUP4 PUSH1 0x0 DUP2 MLOAD DUP2 LT PUSH2 0x1FCA JUMPI PUSH2 0x1FC9 PUSH2 0x4550 JUMP JUMPDEST JUMPDEST PUSH1 0x20 MUL PUSH1 0x20 ADD ADD MLOAD PUSH2 0x1FDA JUMP JUMPDEST PUSH1 0x0 JUMPDEST DUP4 PUSH2 0x1FE6 JUMPI PUSH1 0x0 PUSH2 0x2003 JUMP JUMPDEST DUP5 PUSH1 0x0 DUP2 MLOAD DUP2 LT PUSH2 0x1FFA JUMPI PUSH2 0x1FF9 PUSH2 0x4550 JUMP JUMPDEST JUMPDEST PUSH1 0x20 MUL PUSH1 0x20 ADD ADD MLOAD JUMPDEST DUP8 PUSH1 0x1 DUP2 MLOAD DUP2 LT PUSH2 0x2017 JUMPI PUSH2 0x2016 PUSH2 0x4550 JUMP JUMPDEST JUMPDEST PUSH1 0x20 MUL PUSH1 0x20 ADD ADD MLOAD PUSH1 0x40 MLOAD DUP5 PUSH4 0xFFFFFFFF AND PUSH1 0xE0 SHL DUP2 MSTORE PUSH1 0x4 ADD PUSH2 0x203D SWAP4 SWAP3 SWAP2 SWAP1 PUSH2 0x4D11 JUMP JUMPDEST PUSH1 0x0 PUSH1 0x40 MLOAD DUP1 DUP4 SUB DUP2 PUSH1 0x0 DUP8 DUP1 EXTCODESIZE ISZERO DUP1 ISZERO PUSH2 0x2057 JUMPI PUSH1 0x0 DUP1 REVERT JUMPDEST POP GAS CALL ISZERO DUP1 ISZERO PUSH2 0x206B JUMPI RETURNDATASIZE PUSH1 0x0 DUP1 RETURNDATACOPY RETURNDATASIZE PUSH1 0x0 REVERT JUMPDEST POP POP POP POP PUSH1 0x0 PUSH1 0x1 DUP8 PUSH2 0x207E SWAP2 SWAP1 PUSH2 0x4685 JUMP JUMPDEST SWAP1 POP PUSH1 0x0 PUSH1 0x1 SWAP1 POP JUMPDEST DUP2 DUP2 LT ISZERO PUSH2 0x2218 JUMPI DUP5 PUSH1 0x1 DUP3 PUSH2 0x209D SWAP2 SWAP1 PUSH2 0x4A29 JUMP JUMPDEST DUP2 MLOAD DUP2 LT PUSH2 0x20AE JUMPI PUSH2 0x20AD PUSH2 0x4550 JUMP JUMPDEST JUMPDEST PUSH1 0x20 MUL PUSH1 0x20 ADD ADD MLOAD PUSH20 0xFFFFFFFFFFFFFFFFFFFFFFFFFFFFFFFFFFFFFFFF AND DUP6 DUP3 DUP2 MLOAD DUP2 LT PUSH2 0x20DF JUMPI PUSH2 0x20DE PUSH2 0x4550 JUMP JUMPDEST JUMPDEST PUSH1 0x20 MUL PUSH1 0x20 ADD ADD MLOAD PUSH20 0xFFFFFFFFFFFFFFFFFFFFFFFFFFFFFFFFFFFFFFFF AND LT PUSH2 0x2109 JUMPI PUSH1 0x0 PUSH2 0x210C JUMP JUMPDEST PUSH1 0x1 JUMPDEST SWAP3 POP DUP6 DUP2 DUP2 MLOAD DUP2 LT PUSH2 0x2121 JUMPI PUSH2 0x2120 PUSH2 0x4550 JUMP JUMPDEST JUMPDEST PUSH1 0x20 MUL PUSH1 0x20 ADD ADD MLOAD PUSH20 0xFFFFFFFFFFFFFFFFFFFFFFFFFFFFFFFFFFFFFFFF AND PUSH4 0x22C0D9F DUP5 PUSH2 0x2169 JUMPI DUP6 DUP4 DUP2 MLOAD DUP2 LT PUSH2 0x215C JUMPI PUSH2 0x215B PUSH2 0x4550 JUMP JUMPDEST JUMPDEST PUSH1 0x20 MUL PUSH1 0x20 ADD ADD MLOAD PUSH2 0x216C JUMP JUMPDEST PUSH1 0x0 JUMPDEST DUP6 PUSH2 0x2178 JUMPI PUSH1 0x0 PUSH2 0x2194 JUMP JUMPDEST DUP7 DUP5 DUP2 MLOAD DUP2 LT PUSH2 0x218B JUMPI PUSH2 0x218A PUSH2 0x4550 JUMP JUMPDEST JUMPDEST PUSH1 0x20 MUL PUSH1 0x20 ADD ADD MLOAD JUMPDEST DUP10 PUSH1 0x1 DUP7 PUSH2 0x21A2 SWAP2 SWAP1 PUSH2 0x4A29 JUMP JUMPDEST DUP2 MLOAD DUP2 LT PUSH2 0x21B3 JUMPI PUSH2 0x21B2 PUSH2 0x4550 JUMP JUMPDEST JUMPDEST PUSH1 0x20 MUL PUSH1 0x20 ADD ADD MLOAD PUSH1 0x40 MLOAD DUP5 PUSH4 0xFFFFFFFF AND PUSH1 0xE0 SHL DUP2 MSTORE PUSH1 0x4 ADD PUSH2 0x21D9 SWAP4 SWAP3 SWAP2 SWAP1 PUSH2 0x4D11 JUMP JUMPDEST PUSH1 0x0 PUSH1 0x40 MLOAD DUP1 DUP4 SUB DUP2 PUSH1 0x0 DUP8 DUP1 EXTCODESIZE ISZERO DUP1 ISZERO PUSH2 0x21F3 JUMPI PUSH1 0x0 DUP1 REVERT JUMPDEST POP GAS CALL ISZERO DUP1 ISZERO PUSH2 0x2207 JUMPI RETURNDATASIZE PUSH1 0x0 DUP1 RETURNDATACOPY RETURNDATASIZE PUSH1 0x0 REVERT JUMPDEST POP POP POP POP DUP1 DUP1 PUSH1 0x1 ADD SWAP2 POP POP PUSH2 0x2087 JUMP JUMPDEST POP DUP4 DUP8 DUP2 MLOAD DUP2 LT PUSH2 0x222C JUMPI PUSH2 0x222B PUSH2 0x4550 JUMP JUMPDEST JUMPDEST PUSH1 0x20 MUL PUSH1 0x20 ADD ADD MLOAD PUSH20 0xFFFFFFFFFFFFFFFFFFFFFFFFFFFFFFFFFFFFFFFF AND DUP5 DUP3 DUP2 MLOAD DUP2 LT PUSH2 0x225D JUMPI PUSH2 0x225C PUSH2 0x4550 JUMP JUMPDEST JUMPDEST PUSH1 0x20 MUL PUSH1 0x20 ADD ADD MLOAD PUSH20 0xFFFFFFFFFFFFFFFFFFFFFFFFFFFFFFFFFFFFFFFF AND LT PUSH2 0x2287 JUMPI PUSH1 0x0 PUSH2 0x228A JUMP JUMPDEST PUSH1 0x1 JUMPDEST SWAP2 POP DUP5 DUP2 DUP2 MLOAD DUP2 LT PUSH2 0x229F JUMPI PUSH2 0x229E PUSH2 0x4550 JUMP JUMPDEST JUMPDEST PUSH1 0x20 MUL PUSH1 0x20 ADD ADD MLOAD PUSH20 0xFFFFFFFFFFFFFFFFFFFFFFFFFFFFFFFFFFFFFFFF AND PUSH4 0x22C0D9F DUP4 PUSH2 0x22E7 JUMPI DUP5 DUP4 DUP2 MLOAD DUP2 LT PUSH2 0x22DA JUMPI PUSH2 0x22D9 PUSH2 0x4550 JUMP JUMPDEST JUMPDEST PUSH1 0x20 MUL PUSH1 0x20 ADD ADD MLOAD PUSH2 0x22EA JUMP JUMPDEST PUSH1 0x0 JUMPDEST DUP5 PUSH2 0x22F6 JUMPI PUSH1 0x0 PUSH2 0x2312 JUMP JUMPDEST DUP6 DUP5 DUP2 MLOAD DUP2 LT PUSH2 0x2309 JUMPI PUSH2 0x2308 PUSH2 0x4550 JUMP JUMPDEST JUMPDEST PUSH1 0x20 MUL PUSH1 0x20 ADD ADD MLOAD JUMPDEST DUP10 PUSH1 0x40 MLOAD DUP5 PUSH4 0xFFFFFFFF AND PUSH1 0xE0 SHL DUP2 MSTORE PUSH1 0x4 ADD PUSH2 0x2331 SWAP4 SWAP3 SWAP2 SWAP1 PUSH2 0x4D11 JUMP JUMPDEST PUSH1 0x0 PUSH1 0x40 MLOAD DUP1 DUP4 SUB DUP2 PUSH1 0x0 DUP8 DUP1 EXTCODESIZE ISZERO DUP1 ISZERO PUSH2 0x234B JUMPI PUSH1 0x0 DUP1 REVERT JUMPDEST POP GAS CALL ISZERO DUP1 ISZERO PUSH2 0x235F JUMPI RETURNDATASIZE PUSH1 0x0 DUP1 RETURNDATACOPY RETURNDATASIZE PUSH1 0x0 REVERT JUMPDEST POP POP POP POP POP POP PUSH2 0x2517 JUMP JUMPDEST PUSH1 0x0 DUP3 PUSH1 0x1 DUP2 MLOAD DUP2 LT PUSH2 0x2380 JUMPI PUSH2 0x237F PUSH2 0x4550 JUMP JUMPDEST JUMPDEST PUSH1 0x20 MUL PUSH1 0x20 ADD ADD MLOAD PUSH20 0xFFFFFFFFFFFFFFFFFFFFFFFFFFFFFFFFFFFFFFFF AND DUP4 PUSH1 0x0 DUP2 MLOAD DUP2 LT PUSH2 0x23B2 JUMPI PUSH2 0x23B1 PUSH2 0x4550 JUMP JUMPDEST JUMPDEST PUSH1 0x20 MUL PUSH1 0x20 ADD ADD MLOAD PUSH20 0xFFFFFFFFFFFFFFFFFFFFFFFFFFFFFFFFFFFFFFFF AND LT PUSH2 0x23DC JUMPI PUSH1 0x0 PUSH2 0x23DF JUMP JUMPDEST PUSH1 0x1 JUMPDEST SWAP1 POP DUP4 PUSH1 0x0 DUP2 MLOAD DUP2 LT PUSH2 0x23F5 JUMPI PUSH2 0x23F4 PUSH2 0x4550 JUMP JUMPDEST JUMPDEST PUSH1 0x20 MUL PUSH1 0x20 ADD ADD MLOAD PUSH20 0xFFFFFFFFFFFFFFFFFFFFFFFFFFFFFFFFFFFFFFFF AND PUSH4 0x22C0D9F DUP3 PUSH2 0x243E JUMPI DUP4 PUSH1 0x0 DUP2 MLOAD DUP2 LT PUSH2 0x2431 JUMPI PUSH2 0x2430 PUSH2 0x4550 JUMP JUMPDEST JUMPDEST PUSH1 0x20 MUL PUSH1 0x20 ADD ADD MLOAD PUSH2 0x2441 JUMP JUMPDEST PUSH1 0x0 JUMPDEST DUP4 PUSH2 0x244D JUMPI PUSH1 0x0 PUSH2 0x246A JUMP JUMPDEST DUP5 PUSH1 0x0 DUP2 MLOAD DUP2 LT PUSH2 0x2461 JUMPI PUSH2 0x2460 PUSH2 0x4550 JUMP JUMPDEST JUMPDEST PUSH1 0x20 MUL PUSH1 0x20 ADD ADD MLOAD JUMPDEST DUP9 PUSH1 0x40 MLOAD DUP5 PUSH4 0xFFFFFFFF AND PUSH1 0xE0 SHL DUP2 MSTORE PUSH1 0x4 ADD PUSH2 0x2489 SWAP4 SWAP3 SWAP2 SWAP1 PUSH2 0x4D11 JUMP JUMPDEST PUSH1 0x0 PUSH1 0x40 MLOAD DUP1 DUP4 SUB DUP2 PUSH1 0x0 DUP8 DUP1 EXTCODESIZE ISZERO DUP1 ISZERO PUSH2 0x24A3 JUMPI PUSH1 0x0 DUP1 REVERT JUMPDEST POP GAS CALL ISZERO DUP1 ISZERO PUSH2 0x24B7 JUMPI RETURNDATASIZE PUSH1 0x0 DUP1 RETURNDATACOPY RETURNDATASIZE PUSH1 0x0 REVERT JUMPDEST POP POP POP POP PUSH2 0x2515 PUSH1 0x40 MLOAD DUP1 PUSH1 0x40 ADD PUSH1 0x40 MSTORE DUP1 PUSH1 0x9 DUP2 MSTORE PUSH1 0x20 ADD PUSH32 0x70616972207A65726F0000000000000000000000000000000000000000000000 DUP2 MSTORE POP DUP6 PUSH1 0x0 DUP2 MLOAD DUP2 LT PUSH2 0x2508 JUMPI PUSH2 0x2507 PUSH2 0x4550 JUMP JUMPDEST JUMPDEST PUSH1 0x20 MUL PUSH1 0x20 ADD ADD MLOAD PUSH2 0x3A15 JUMP JUMPDEST POP JUMPDEST PUSH1 0x0 DUP2 PUSH1 0x1 DUP8 PUSH2 0x2527 SWAP2 SWAP1 PUSH2 0x4685 JUMP JUMPDEST DUP2 MLOAD DUP2 LT PUSH2 0x2538 JUMPI PUSH2 0x2537 PUSH2 0x4550 JUMP JUMPDEST JUMPDEST PUSH1 0x20 MUL PUSH1 0x20 ADD ADD MLOAD SWAP1 POP DUP1 PUSH1 0x40 MLOAD PUSH1 0x20 ADD PUSH2 0x2553 SWAP2 SWAP1 PUSH2 0x4A0E JUMP JUMPDEST PUSH1 0x40 MLOAD PUSH1 0x20 DUP2 DUP4 SUB SUB DUP2 MSTORE SWAP1 PUSH1 0x40 MSTORE SWAP7 POP ADDRESS PUSH20 0xFFFFFFFFFFFFFFFFFFFFFFFFFFFFFFFFFFFFFFFF AND DUP6 PUSH20 0xFFFFFFFFFFFFFFFFFFFFFFFFFFFFFFFFFFFFFFFF AND EQ DUP1 ISZERO PUSH2 0x2604 JUMPI POP PUSH32 0x0 PUSH20 0xFFFFFFFFFFFFFFFFFFFFFFFFFFFFFFFFFFFFFFFF AND DUP4 DUP8 DUP2 MLOAD DUP2 LT PUSH2 0x25E4 JUMPI PUSH2 0x25E3 PUSH2 0x4550 JUMP JUMPDEST JUMPDEST PUSH1 0x20 MUL PUSH1 0x20 ADD ADD MLOAD PUSH20 0xFFFFFFFFFFFFFFFFFFFFFFFFFFFFFFFFFFFFFFFF AND EQ JUMPDEST ISZERO PUSH2 0x27B8 JUMPI ADDRESS PUSH20 0xFFFFFFFFFFFFFFFFFFFFFFFFFFFFFFFFFFFFFFFF AND PUSH2 0x2637 DUP12 PUSH1 0x2A DUP14 MLOAD PUSH2 0x2632 SWAP2 SWAP1 PUSH2 0x4685 JUMP JUMPDEST PUSH2 0x1DD1 JUMP JUMPDEST PUSH20 0xFFFFFFFFFFFFFFFFFFFFFFFFFFFFFFFFFFFFFFFF AND EQ ISZERO PUSH2 0x270C JUMPI PUSH1 0x1 PUSH2 0x266C DUP12 PUSH1 0x2B DUP14 MLOAD PUSH2 0x2667 SWAP2 SWAP1 PUSH2 0x4685 JUMP JUMPDEST PUSH2 0x2C72 JUMP JUMPDEST PUSH1 0xFF AND EQ ISZERO PUSH2 0x2701 JUMPI PUSH32 0x0 PUSH20 0xFFFFFFFFFFFFFFFFFFFFFFFFFFFFFFFFFFFFFFFF AND PUSH4 0x2E1A7D4D DUP3 PUSH1 0x40 MLOAD DUP3 PUSH4 0xFFFFFFFF AND PUSH1 0xE0 SHL DUP2 MSTORE PUSH1 0x4 ADD PUSH2 0x26CE SWAP2 SWAP1 PUSH2 0x4A0E JUMP JUMPDEST PUSH1 0x0 PUSH1 0x40 MLOAD DUP1 DUP4 SUB DUP2 PUSH1 0x0 DUP8 DUP1 EXTCODESIZE ISZERO DUP1 ISZERO PUSH2 0x26E8 JUMPI PUSH1 0x0 DUP1 REVERT JUMPDEST POP GAS CALL ISZERO DUP1 ISZERO PUSH2 0x26FC JUMPI RETURNDATASIZE PUSH1 0x0 DUP1 RETURNDATACOPY RETURNDATASIZE PUSH1 0x0 REVERT JUMPDEST POP POP POP POP JUMPDEST POP POP POP POP POP POP PUSH2 0x27BF JUMP JUMPDEST PUSH32 0x0 PUSH20 0xFFFFFFFFFFFFFFFFFFFFFFFFFFFFFFFFFFFFFFFF AND PUSH4 0x2E1A7D4D DUP3 PUSH1 0x40 MLOAD DUP3 PUSH4 0xFFFFFFFF AND PUSH1 0xE0 SHL DUP2 MSTORE PUSH1 0x4 ADD PUSH2 0x2765 SWAP2 SWAP1 PUSH2 0x4A0E JUMP JUMPDEST PUSH1 0x0 PUSH1 0x40 MLOAD DUP1 DUP4 SUB DUP2 PUSH1 0x0 DUP8 DUP1 EXTCODESIZE ISZERO DUP1 ISZERO PUSH2 0x277F JUMPI PUSH1 0x0 DUP1 REVERT JUMPDEST POP GAS CALL ISZERO DUP1 ISZERO PUSH2 0x2793 JUMPI RETURNDATASIZE PUSH1 0x0 DUP1 RETURNDATACOPY RETURNDATASIZE PUSH1 0x0 REVERT JUMPDEST POP POP POP POP PUSH2 0x27B7 PUSH2 0x27B1 DUP12 PUSH1 0x2A DUP14 MLOAD PUSH2 0x27AC SWAP2 SWAP1 PUSH2 0x4685 JUMP JUMPDEST PUSH2 0x1DD1 JUMP JUMPDEST DUP3 PUSH2 0x3AB1 JUMP JUMPDEST JUMPDEST POP POP POP POP POP POP JUMPDEST SWAP4 SWAP3 POP POP POP JUMP JUMPDEST PUSH1 0x60 PUSH1 0x0 PUSH2 0x27E1 DUP6 PUSH1 0x2 DUP8 MLOAD PUSH2 0x27DC SWAP2 SWAP1 PUSH2 0x4685 JUMP JUMPDEST PUSH2 0x2C72 JUMP JUMPDEST PUSH1 0xFF AND SWAP1 POP PUSH1 0x0 DUP1 PUSH2 0x2800 DUP8 PUSH1 0x1 DUP10 MLOAD PUSH2 0x27FB SWAP2 SWAP1 PUSH2 0x4685 JUMP JUMPDEST PUSH2 0x2C72 JUMP JUMPDEST PUSH1 0xFF AND EQ PUSH2 0x2824 JUMPI PUSH2 0x281F DUP7 PUSH1 0x16 DUP9 MLOAD PUSH2 0x281A SWAP2 SWAP1 PUSH2 0x4685 JUMP JUMPDEST PUSH2 0x1DD1 JUMP JUMPDEST PUSH2 0x2826 JUMP JUMPDEST CALLER JUMPDEST SWAP1 POP PUSH1 0x0 PUSH20 0xFFFFFFFFFFFFFFFFFFFFFFFFFFFFFFFFFFFFFFFF AND DUP6 PUSH20 0xFFFFFFFFFFFFFFFFFFFFFFFFFFFFFFFFFFFFFFFF AND EQ ISZERO PUSH2 0x28DF JUMPI PUSH32 0x0 PUSH20 0xFFFFFFFFFFFFFFFFFFFFFFFFFFFFFFFFFFFFFFFF AND PUSH4 0xD0E30DB0 DUP6 PUSH1 0x40 MLOAD DUP3 PUSH4 0xFFFFFFFF AND PUSH1 0xE0 SHL DUP2 MSTORE PUSH1 0x4 ADD PUSH1 0x0 PUSH1 0x40 MLOAD DUP1 DUP4 SUB DUP2 DUP6 DUP9 DUP1 EXTCODESIZE ISZERO DUP1 ISZERO PUSH2 0x28C5 JUMPI PUSH1 0x0 DUP1 REVERT JUMPDEST POP GAS CALL ISZERO DUP1 ISZERO PUSH2 0x28D9 JUMPI RETURNDATASIZE PUSH1 0x0 DUP1 RETURNDATACOPY RETURNDATASIZE PUSH1 0x0 REVERT JUMPDEST POP POP POP POP POP JUMPDEST PUSH1 0x1 DUP3 GT ISZERO PUSH2 0x2995 JUMPI PUSH2 0x28FF ADDRESS DUP6 PUSH2 0x28FA DUP10 PUSH1 0x40 PUSH1 0x2B PUSH2 0x1CDD JUMP JUMPDEST PUSH2 0x3B04 JUMP JUMPDEST SWAP4 POP PUSH1 0x0 PUSH1 0x1 DUP4 PUSH2 0x2910 SWAP2 SWAP1 PUSH2 0x4685 JUMP JUMPDEST SWAP1 POP PUSH1 0x0 PUSH1 0x1 SWAP1 POP JUMPDEST DUP2 DUP2 LT ISZERO PUSH2 0x295E JUMPI PUSH2 0x294F ADDRESS DUP8 PUSH2 0x294A DUP12 PUSH1 0x17 DUP7 PUSH2 0x2937 SWAP2 SWAP1 PUSH2 0x46B9 JUMP JUMPDEST PUSH1 0x40 PUSH2 0x2943 SWAP2 SWAP1 PUSH2 0x4A29 JUMP JUMPDEST PUSH1 0x2B PUSH2 0x1CDD JUMP JUMPDEST PUSH2 0x3B04 JUMP JUMPDEST SWAP6 POP DUP1 DUP1 PUSH1 0x1 ADD SWAP2 POP POP PUSH2 0x2919 JUMP JUMPDEST POP PUSH2 0x298D DUP3 DUP7 PUSH2 0x2988 DUP11 PUSH1 0x17 DUP7 PUSH2 0x2975 SWAP2 SWAP1 PUSH2 0x46B9 JUMP JUMPDEST PUSH1 0x40 PUSH2 0x2981 SWAP2 SWAP1 PUSH2 0x4A29 JUMP JUMPDEST PUSH1 0x2B PUSH2 0x1CDD JUMP JUMPDEST PUSH2 0x3B04 JUMP JUMPDEST SWAP5 POP POP PUSH2 0x29AF JUMP JUMPDEST PUSH2 0x29AC DUP2 DUP6 PUSH2 0x29A7 DUP10 PUSH1 0x40 PUSH1 0x2B PUSH2 0x1CDD JUMP JUMPDEST PUSH2 0x3B04 JUMP JUMPDEST SWAP4 POP JUMPDEST PUSH2 0x29BA DUP7 PUSH1 0x20 PUSH2 0x1D36 JUMP JUMPDEST DUP5 LT ISZERO PUSH2 0x29F3 JUMPI PUSH1 0x40 MLOAD PUSH32 0xBB2875C300000000000000000000000000000000000000000000000000000000 DUP2 MSTORE PUSH1 0x4 ADD PUSH1 0x40 MLOAD DUP1 SWAP2 SUB SWAP1 REVERT JUMPDEST ADDRESS PUSH20 0xFFFFFFFFFFFFFFFFFFFFFFFFFFFFFFFFFFFFFFFF AND DUP2 PUSH20 0xFFFFFFFFFFFFFFFFFFFFFFFFFFFFFFFFFFFFFFFF AND EQ ISZERO PUSH2 0x2C47 JUMPI PUSH32 0x0 PUSH20 0xFFFFFFFFFFFFFFFFFFFFFFFFFFFFFFFFFFFFFFFF AND PUSH2 0x2A80 DUP8 PUSH1 0x17 DUP6 PUSH2 0x2A6F SWAP2 SWAP1 PUSH2 0x46B9 JUMP JUMPDEST PUSH1 0x40 PUSH2 0x2A7B SWAP2 SWAP1 PUSH2 0x4A29 JUMP JUMPDEST PUSH2 0x1DD1 JUMP JUMPDEST PUSH20 0xFFFFFFFFFFFFFFFFFFFFFFFFFFFFFFFFFFFFFFFF AND EQ ISZERO PUSH2 0x2C46 JUMPI ADDRESS PUSH20 0xFFFFFFFFFFFFFFFFFFFFFFFFFFFFFFFFFFFFFFFF AND PUSH2 0x2ACA DUP8 PUSH1 0x2A DUP10 MLOAD PUSH2 0x2AC5 SWAP2 SWAP1 PUSH2 0x4685 JUMP JUMPDEST PUSH2 0x1DD1 JUMP JUMPDEST PUSH20 0xFFFFFFFFFFFFFFFFFFFFFFFFFFFFFFFFFFFFFFFF AND EQ ISZERO PUSH2 0x2B99 JUMPI PUSH1 0x1 PUSH2 0x2AFF DUP8 PUSH1 0x2B DUP10 MLOAD PUSH2 0x2AFA SWAP2 SWAP1 PUSH2 0x4685 JUMP JUMPDEST PUSH2 0x2C72 JUMP JUMPDEST PUSH1 0xFF AND EQ ISZERO PUSH2 0x2B94 JUMPI PUSH32 0x0 PUSH20 0xFFFFFFFFFFFFFFFFFFFFFFFFFFFFFFFFFFFFFFFF AND PUSH4 0x2E1A7D4D DUP6 PUSH1 0x40 MLOAD DUP3 PUSH4 0xFFFFFFFF AND PUSH1 0xE0 SHL DUP2 MSTORE PUSH1 0x4 ADD PUSH2 0x2B61 SWAP2 SWAP1 PUSH2 0x4A0E JUMP JUMPDEST PUSH1 0x0 PUSH1 0x40 MLOAD DUP1 DUP4 SUB DUP2 PUSH1 0x0 DUP8 DUP1 EXTCODESIZE ISZERO DUP1 ISZERO PUSH2 0x2B7B JUMPI PUSH1 0x0 DUP1 REVERT JUMPDEST POP GAS CALL ISZERO DUP1 ISZERO PUSH2 0x2B8F JUMPI RETURNDATASIZE PUSH1 0x0 DUP1 RETURNDATACOPY RETURNDATASIZE PUSH1 0x0 REVERT JUMPDEST POP POP POP POP JUMPDEST PUSH2 0x2C45 JUMP JUMPDEST PUSH32 0x0 PUSH20 0xFFFFFFFFFFFFFFFFFFFFFFFFFFFFFFFFFFFFFFFF AND PUSH4 0x2E1A7D4D DUP6 PUSH1 0x40 MLOAD DUP3 PUSH4 0xFFFFFFFF AND PUSH1 0xE0 SHL DUP2 MSTORE PUSH1 0x4 ADD PUSH2 0x2BF2 SWAP2 SWAP1 PUSH2 0x4A0E JUMP JUMPDEST PUSH1 0x0 PUSH1 0x40 MLOAD DUP1 DUP4 SUB DUP2 PUSH1 0x0 DUP8 DUP1 EXTCODESIZE ISZERO DUP1 ISZERO PUSH2 0x2C0C JUMPI PUSH1 0x0 DUP1 REVERT JUMPDEST POP GAS CALL ISZERO DUP1 ISZERO PUSH2 0x2C20 JUMPI RETURNDATASIZE PUSH1 0x0 DUP1 RETURNDATACOPY RETURNDATASIZE PUSH1 0x0 REVERT JUMPDEST POP POP POP POP PUSH2 0x2C44 PUSH2 0x2C3E DUP8 PUSH1 0x2A DUP10 MLOAD PUSH2 0x2C39 SWAP2 SWAP1 PUSH2 0x4685 JUMP JUMPDEST PUSH2 0x1DD1 JUMP JUMPDEST DUP6 PUSH2 0x3AB1 JUMP JUMPDEST JUMPDEST JUMPDEST JUMPDEST DUP4 PUSH1 0x40 MLOAD PUSH1 0x20 ADD PUSH2 0x2C58 SWAP2 SWAP1 PUSH2 0x4A0E JUMP JUMPDEST PUSH1 0x40 MLOAD PUSH1 0x20 DUP2 DUP4 SUB SUB DUP2 MSTORE SWAP1 PUSH1 0x40 MSTORE SWAP3 POP POP POP SWAP4 SWAP3 POP POP POP JUMP JUMPDEST PUSH1 0x0 DUP2 PUSH1 0x1 DUP5 ADD ADD MLOAD SWAP1 POP SWAP3 SWAP2 POP POP JUMP JUMPDEST PUSH1 0x0 PUSH1 0x60 PUSH1 0x0 DUP5 EQ ISZERO PUSH2 0x2CAE JUMPI PUSH2 0x2CAD PUSH2 0x2C9D DUP5 DUP9 PUSH2 0x1DD1 JUMP JUMPDEST DUP9 PUSH2 0x2CA8 DUP7 DUP10 PUSH2 0x1D36 JUMP JUMPDEST PUSH2 0x33BC JUMP JUMPDEST JUMPDEST DUP7 PUSH20 0xFFFFFFFFFFFFFFFFFFFFFFFFFFFFFFFFFFFFFFFF AND DUP5 DUP5 PUSH1 0x40 MLOAD PUSH2 0x2CD4 SWAP2 SWAP1 PUSH2 0x4ABB JUMP JUMPDEST PUSH1 0x0 PUSH1 0x40 MLOAD DUP1 DUP4 SUB DUP2 DUP6 DUP8 GAS CALL SWAP3 POP POP POP RETURNDATASIZE DUP1 PUSH1 0x0 DUP2 EQ PUSH2 0x2D11 JUMPI PUSH1 0x40 MLOAD SWAP2 POP PUSH1 0x1F NOT PUSH1 0x3F RETURNDATASIZE ADD AND DUP3 ADD PUSH1 0x40 MSTORE RETURNDATASIZE DUP3 MSTORE RETURNDATASIZE PUSH1 0x0 PUSH1 0x20 DUP5 ADD RETURNDATACOPY PUSH2 0x2D16 JUMP JUMPDEST PUSH1 0x60 SWAP2 POP JUMPDEST POP DUP1 SWAP3 POP DUP2 SWAP4 POP POP POP SWAP6 POP SWAP6 SWAP4 POP POP POP POP JUMP JUMPDEST PUSH1 0x60 PUSH1 0x0 PUSH2 0x2D44 DUP6 PUSH1 0x2 DUP8 MLOAD PUSH2 0x2D3F SWAP2 SWAP1 PUSH2 0x4685 JUMP JUMPDEST PUSH2 0x2C72 JUMP JUMPDEST PUSH1 0xFF AND SWAP1 POP PUSH1 0x0 DUP1 PUSH2 0x2D63 DUP8 PUSH1 0x1 DUP10 MLOAD PUSH2 0x2D5E SWAP2 SWAP1 PUSH2 0x4685 JUMP JUMPDEST PUSH2 0x2C72 JUMP JUMPDEST PUSH1 0xFF AND EQ PUSH2 0x2D87 JUMPI PUSH2 0x2D82 DUP7 PUSH1 0x16 DUP9 MLOAD PUSH2 0x2D7D SWAP2 SWAP1 PUSH2 0x4685 JUMP JUMPDEST PUSH2 0x1DD1 JUMP JUMPDEST PUSH2 0x2D89 JUMP JUMPDEST CALLER JUMPDEST SWAP1 POP PUSH1 0x0 PUSH1 0x28 DUP4 PUSH2 0x2D9A SWAP2 SWAP1 PUSH2 0x46B9 JUMP JUMPDEST PUSH1 0x54 PUSH2 0x2DA6 SWAP2 SWAP1 PUSH2 0x4A29 JUMP JUMPDEST SWAP1 POP PUSH1 0x0 DUP1 JUMPDEST DUP5 DUP2 LT ISZERO PUSH2 0x330B JUMPI PUSH1 0x0 PUSH2 0x2DD8 DUP11 PUSH1 0x28 DUP5 PUSH2 0x2DC7 SWAP2 SWAP1 PUSH2 0x46B9 JUMP JUMPDEST PUSH1 0x54 PUSH2 0x2DD3 SWAP2 SWAP1 PUSH2 0x4A29 JUMP JUMPDEST PUSH2 0x1DD1 JUMP JUMPDEST SWAP1 POP PUSH1 0x0 PUSH2 0x2DFE DUP12 PUSH1 0x28 DUP6 PUSH2 0x2DED SWAP2 SWAP1 PUSH2 0x46B9 JUMP JUMPDEST PUSH1 0x68 PUSH2 0x2DF9 SWAP2 SWAP1 PUSH2 0x4A29 JUMP JUMPDEST PUSH2 0x1DD1 JUMP JUMPDEST SWAP1 POP PUSH1 0x0 DUP1 PUSH20 0xFFFFFFFFFFFFFFFFFFFFFFFFFFFFFFFFFFFFFFFF AND DUP3 PUSH20 0xFFFFFFFFFFFFFFFFFFFFFFFFFFFFFFFFFFFFFFFF AND EQ SWAP1 POP PUSH2 0x2EDA PUSH2 0x2E59 DUP14 PUSH1 0x6 DUP8 PUSH2 0x2E47 SWAP2 SWAP1 PUSH2 0x46B9 JUMP JUMPDEST DUP10 PUSH2 0x2E52 SWAP2 SWAP1 PUSH2 0x4A29 JUMP JUMPDEST PUSH1 0x4 PUSH2 0x1CDD JUMP JUMPDEST PUSH2 0x2E86 DUP15 PUSH1 0x4 PUSH1 0x6 DUP10 PUSH2 0x2E6C SWAP2 SWAP1 PUSH2 0x46B9 JUMP JUMPDEST DUP12 PUSH2 0x2E77 SWAP2 SWAP1 PUSH2 0x4A29 JUMP JUMPDEST PUSH2 0x2E81 SWAP2 SWAP1 PUSH2 0x4A29 JUMP JUMPDEST PUSH2 0x2C72 JUMP JUMPDEST PUSH2 0x2EB3 DUP16 PUSH1 0x5 PUSH1 0x6 DUP11 PUSH2 0x2E99 SWAP2 SWAP1 PUSH2 0x46B9 JUMP JUMPDEST DUP13 PUSH2 0x2EA4 SWAP2 SWAP1 PUSH2 0x4A29 JUMP JUMPDEST PUSH2 0x2EAE SWAP2 SWAP1 PUSH2 0x4A29 JUMP JUMPDEST PUSH2 0x2C72 JUMP JUMPDEST DUP14 PUSH1 0x40 MLOAD PUSH1 0x20 ADD PUSH2 0x2EC6 SWAP4 SWAP3 SWAP2 SWAP1 PUSH2 0x4D77 JUMP JUMPDEST PUSH1 0x40 MLOAD PUSH1 0x20 DUP2 DUP4 SUB SUB DUP2 MSTORE SWAP1 PUSH1 0x40 MSTORE PUSH2 0x1D47 JUMP JUMPDEST SWAP9 POP PUSH1 0x0 PUSH20 0xFFFFFFFFFFFFFFFFFFFFFFFFFFFFFFFFFFFFFFFF AND DUP12 PUSH20 0xFFFFFFFFFFFFFFFFFFFFFFFFFFFFFFFFFFFFFFFF AND EQ ISZERO DUP1 ISZERO PUSH2 0x2F17 JUMPI POP DUP1 ISZERO JUMPDEST ISZERO PUSH2 0x3009 JUMPI PUSH2 0x2F27 DUP12 DUP5 DUP13 PUSH2 0x33BC JUMP JUMPDEST PUSH2 0x2F77 DUP10 PUSH1 0x1 DUP11 PUSH2 0x2F38 SWAP2 SWAP1 PUSH2 0x4685 JUMP JUMPDEST DUP7 EQ PUSH2 0x2F64 JUMPI PUSH1 0x0 PUSH1 0x40 MLOAD PUSH1 0x20 ADD PUSH2 0x2F50 SWAP2 SWAP1 PUSH2 0x4DDF JUMP JUMPDEST PUSH1 0x40 MLOAD PUSH1 0x20 DUP2 DUP4 SUB SUB DUP2 MSTORE SWAP1 PUSH1 0x40 MSTORE PUSH2 0x2F72 JUMP JUMPDEST PUSH2 0x2F71 DUP15 PUSH1 0x34 PUSH1 0x20 PUSH2 0x1CDD JUMP JUMPDEST JUMPDEST PUSH2 0x1D47 JUMP JUMPDEST SWAP9 POP DUP2 PUSH20 0xFFFFFFFFFFFFFFFFFFFFFFFFFFFFFFFFFFFFFFFF AND PUSH4 0x70A08231 ADDRESS PUSH1 0x40 MLOAD DUP3 PUSH4 0xFFFFFFFF AND PUSH1 0xE0 SHL DUP2 MSTORE PUSH1 0x4 ADD PUSH2 0x2FB2 SWAP2 SWAP1 PUSH2 0x45F9 JUMP JUMPDEST PUSH1 0x20 PUSH1 0x40 MLOAD DUP1 DUP4 SUB DUP2 DUP7 DUP1 EXTCODESIZE ISZERO DUP1 ISZERO PUSH2 0x2FCA JUMPI PUSH1 0x0 DUP1 REVERT JUMPDEST POP GAS STATICCALL ISZERO DUP1 ISZERO PUSH2 0x2FDE JUMPI RETURNDATASIZE PUSH1 0x0 DUP1 RETURNDATACOPY RETURNDATASIZE PUSH1 0x0 REVERT JUMPDEST POP POP POP POP PUSH1 0x40 MLOAD RETURNDATASIZE PUSH1 0x1F NOT PUSH1 0x1F DUP3 ADD AND DUP3 ADD DUP1 PUSH1 0x40 MSTORE POP DUP2 ADD SWAP1 PUSH2 0x3002 SWAP2 SWAP1 PUSH2 0x4629 JUMP JUMPDEST SWAP5 POP PUSH2 0x315C JUMP JUMPDEST PUSH1 0x0 PUSH20 0xFFFFFFFFFFFFFFFFFFFFFFFFFFFFFFFFFFFFFFFF AND DUP12 PUSH20 0xFFFFFFFFFFFFFFFFFFFFFFFFFFFFFFFFFFFFFFFF AND EQ PUSH2 0x3049 JUMPI PUSH2 0x3048 DUP12 DUP5 DUP13 PUSH2 0x33BC JUMP JUMPDEST JUMPDEST PUSH2 0x30C2 DUP10 PUSH2 0x30BD PUSH1 0x1 DUP12 PUSH2 0x305D SWAP2 SWAP1 PUSH2 0x4685 JUMP JUMPDEST DUP8 EQ PUSH2 0x3089 JUMPI PUSH1 0x0 PUSH1 0x40 MLOAD PUSH1 0x20 ADD PUSH2 0x3075 SWAP2 SWAP1 PUSH2 0x4DDF JUMP JUMPDEST PUSH1 0x40 MLOAD PUSH1 0x20 DUP2 DUP4 SUB SUB DUP2 MSTORE SWAP1 PUSH1 0x40 MSTORE PUSH2 0x3097 JUMP JUMPDEST PUSH2 0x3096 DUP16 PUSH1 0x34 PUSH1 0x20 PUSH2 0x1CDD JUMP JUMPDEST JUMPDEST PUSH1 0x1 PUSH1 0x40 MLOAD PUSH1 0x20 ADD PUSH2 0x30A9 SWAP2 SWAP1 PUSH2 0x4E15 JUMP JUMPDEST PUSH1 0x40 MLOAD PUSH1 0x20 DUP2 DUP4 SUB SUB DUP2 MSTORE SWAP1 PUSH1 0x40 MSTORE PUSH2 0x1D47 JUMP JUMPDEST PUSH2 0x1D47 JUMP JUMPDEST SWAP9 POP DUP1 PUSH2 0x3157 JUMPI DUP2 PUSH20 0xFFFFFFFFFFFFFFFFFFFFFFFFFFFFFFFFFFFFFFFF AND PUSH4 0x70A08231 ADDRESS PUSH1 0x40 MLOAD DUP3 PUSH4 0xFFFFFFFF AND PUSH1 0xE0 SHL DUP2 MSTORE PUSH1 0x4 ADD PUSH2 0x3102 SWAP2 SWAP1 PUSH2 0x45F9 JUMP JUMPDEST PUSH1 0x20 PUSH1 0x40 MLOAD DUP1 DUP4 SUB DUP2 DUP7 DUP1 EXTCODESIZE ISZERO DUP1 ISZERO PUSH2 0x311A JUMPI PUSH1 0x0 DUP1 REVERT JUMPDEST POP GAS STATICCALL ISZERO DUP1 ISZERO PUSH2 0x312E JUMPI RETURNDATASIZE PUSH1 0x0 DUP1 RETURNDATACOPY RETURNDATASIZE PUSH1 0x0 REVERT JUMPDEST POP POP POP POP PUSH1 0x40 MLOAD RETURNDATASIZE PUSH1 0x1F NOT PUSH1 0x1F DUP3 ADD AND DUP3 ADD DUP1 PUSH1 0x40 MSTORE POP DUP2 ADD SWAP1 PUSH2 0x3152 SWAP2 SWAP1 PUSH2 0x4629 JUMP JUMPDEST PUSH2 0x3159 JUMP JUMPDEST SELFBALANCE JUMPDEST SWAP5 POP JUMPDEST PUSH1 0x0 DUP1 DUP5 PUSH20 0xFFFFFFFFFFFFFFFFFFFFFFFFFFFFFFFFFFFFFFFF AND PUSH1 0x0 PUSH20 0xFFFFFFFFFFFFFFFFFFFFFFFFFFFFFFFFFFFFFFFF AND DUP15 PUSH20 0xFFFFFFFFFFFFFFFFFFFFFFFFFFFFFFFFFFFFFFFF AND EQ PUSH2 0x31B1 JUMPI PUSH1 0x0 PUSH2 0x31B3 JUMP JUMPDEST DUP13 JUMPDEST DUP13 PUSH1 0x40 MLOAD PUSH2 0x31C1 SWAP2 SWAP1 PUSH2 0x4ABB JUMP JUMPDEST PUSH1 0x0 PUSH1 0x40 MLOAD DUP1 DUP4 SUB DUP2 DUP6 DUP8 GAS CALL SWAP3 POP POP POP RETURNDATASIZE DUP1 PUSH1 0x0 DUP2 EQ PUSH2 0x31FE JUMPI PUSH1 0x40 MLOAD SWAP2 POP PUSH1 0x1F NOT PUSH1 0x3F RETURNDATASIZE ADD AND DUP3 ADD PUSH1 0x40 MSTORE RETURNDATASIZE DUP3 MSTORE RETURNDATASIZE PUSH1 0x0 PUSH1 0x20 DUP5 ADD RETURNDATACOPY PUSH2 0x3203 JUMP JUMPDEST PUSH1 0x60 SWAP2 POP JUMPDEST POP SWAP2 POP SWAP2 POP DUP2 PUSH2 0x3249 JUMPI DUP1 PUSH1 0x40 MLOAD PUSH31 0xC73C9000000000000000000000000000000000000000000000000000000000 DUP2 MSTORE PUSH1 0x4 ADD PUSH2 0x3240 SWAP2 SWAP1 PUSH2 0x4E30 JUMP JUMPDEST PUSH1 0x40 MLOAD DUP1 SWAP2 SUB SWAP1 REVERT JUMPDEST DUP3 PUSH2 0x32E7 JUMPI DUP7 DUP5 PUSH20 0xFFFFFFFFFFFFFFFFFFFFFFFFFFFFFFFFFFFFFFFF AND PUSH4 0x70A08231 ADDRESS PUSH1 0x40 MLOAD DUP3 PUSH4 0xFFFFFFFF AND PUSH1 0xE0 SHL DUP2 MSTORE PUSH1 0x4 ADD PUSH2 0x3288 SWAP2 SWAP1 PUSH2 0x45F9 JUMP JUMPDEST PUSH1 0x20 PUSH1 0x40 MLOAD DUP1 DUP4 SUB DUP2 DUP7 DUP1 EXTCODESIZE ISZERO DUP1 ISZERO PUSH2 0x32A0 JUMPI PUSH1 0x0 DUP1 REVERT JUMPDEST POP GAS STATICCALL ISZERO DUP1 ISZERO PUSH2 0x32B4 JUMPI RETURNDATASIZE PUSH1 0x0 DUP1 RETURNDATACOPY RETURNDATASIZE PUSH1 0x0 REVERT JUMPDEST POP POP POP POP PUSH1 0x40 MLOAD RETURNDATASIZE PUSH1 0x1F NOT PUSH1 0x1F DUP3 ADD AND DUP3 ADD DUP1 PUSH1 0x40 MSTORE POP DUP2 ADD SWAP1 PUSH2 0x32D8 SWAP2 SWAP1 PUSH2 0x4629 JUMP JUMPDEST PUSH2 0x32E2 SWAP2 SWAP1 PUSH2 0x4685 JUMP JUMPDEST PUSH2 0x32F4 JUMP JUMPDEST DUP7 SELFBALANCE PUSH2 0x32F3 SWAP2 SWAP1 PUSH2 0x4685 JUMP JUMPDEST JUMPDEST SWAP12 POP DUP4 SWAP13 POP DUP6 DUP1 PUSH1 0x1 ADD SWAP7 POP POP POP POP POP POP POP PUSH2 0x2DAC JUMP JUMPDEST POP ADDRESS PUSH20 0xFFFFFFFFFFFFFFFFFFFFFFFFFFFFFFFFFFFFFFFF AND DUP4 PUSH20 0xFFFFFFFFFFFFFFFFFFFFFFFFFFFFFFFFFFFFFFFF AND EQ PUSH2 0x338F JUMPI PUSH1 0x0 PUSH20 0xFFFFFFFFFFFFFFFFFFFFFFFFFFFFFFFFFFFFFFFF AND DUP8 PUSH20 0xFFFFFFFFFFFFFFFFFFFFFFFFFFFFFFFFFFFFFFFF AND EQ PUSH2 0x3383 JUMPI PUSH2 0x337E DUP8 DUP5 DUP9 PUSH2 0xA93 JUMP JUMPDEST PUSH2 0x338E JUMP JUMPDEST PUSH2 0x338D DUP4 DUP8 PUSH2 0x3AB1 JUMP JUMPDEST JUMPDEST JUMPDEST DUP6 PUSH1 0x40 MLOAD PUSH1 0x20 ADD PUSH2 0x33A0 SWAP2 SWAP1 PUSH2 0x4A0E JUMP JUMPDEST PUSH1 0x40 MLOAD PUSH1 0x20 DUP2 DUP4 SUB SUB DUP2 MSTORE SWAP1 PUSH1 0x40 MSTORE SWAP5 POP POP POP POP POP SWAP4 SWAP3 POP POP POP JUMP JUMPDEST PUSH1 0x0 PUSH1 0x40 MLOAD PUSH32 0x95EA7B300000000000000000000000000000000000000000000000000000000 DUP2 MSTORE DUP4 PUSH1 0x4 DUP3 ADD MSTORE DUP3 PUSH1 0x24 DUP3 ADD MSTORE PUSH1 0x20 PUSH1 0x0 PUSH1 0x44 DUP4 PUSH1 0x0 DUP10 GAS CALL RETURNDATASIZE ISZERO PUSH1 0x1F RETURNDATASIZE GT PUSH1 0x1 PUSH1 0x0 MLOAD EQ AND OR AND SWAP2 POP POP DUP1 PUSH2 0x344E JUMPI PUSH1 0x40 MLOAD PUSH32 0x8C379A000000000000000000000000000000000000000000000000000000000 DUP2 MSTORE PUSH1 0x4 ADD PUSH2 0x3445 SWAP1 PUSH2 0x4E9E JUMP JUMPDEST PUSH1 0x40 MLOAD DUP1 SWAP2 SUB SWAP1 REVERT JUMPDEST POP POP POP POP JUMP JUMPDEST PUSH1 0x0 DUP2 PUSH1 0x3 DUP5 ADD ADD MLOAD SWAP1 POP SWAP3 SWAP2 POP POP JUMP JUMPDEST PUSH1 0x60 DUP1 PUSH1 0x60 DUP4 PUSH8 0xFFFFFFFFFFFFFFFF DUP2 GT ISZERO PUSH2 0x3484 JUMPI PUSH2 0x3483 PUSH2 0x4061 JUMP JUMPDEST JUMPDEST PUSH1 0x40 MLOAD SWAP1 DUP1 DUP3 MSTORE DUP1 PUSH1 0x20 MUL PUSH1 0x20 ADD DUP3 ADD PUSH1 0x40 MSTORE DUP1 ISZERO PUSH2 0x34B2 JUMPI DUP2 PUSH1 0x20 ADD PUSH1 0x20 DUP3 MUL DUP1 CALLDATASIZE DUP4 CALLDATACOPY DUP1 DUP3 ADD SWAP2 POP POP SWAP1 POP JUMPDEST POP SWAP3 POP PUSH1 0x1 DUP5 PUSH2 0x34C2 SWAP2 SWAP1 PUSH2 0x4A29 JUMP JUMPDEST PUSH8 0xFFFFFFFFFFFFFFFF DUP2 GT ISZERO PUSH2 0x34DB JUMPI PUSH2 0x34DA PUSH2 0x4061 JUMP JUMPDEST JUMPDEST PUSH1 0x40 MLOAD SWAP1 DUP1 DUP3 MSTORE DUP1 PUSH1 0x20 MUL PUSH1 0x20 ADD DUP3 ADD PUSH1 0x40 MSTORE DUP1 ISZERO PUSH2 0x3509 JUMPI DUP2 PUSH1 0x20 ADD PUSH1 0x20 DUP3 MUL DUP1 CALLDATASIZE DUP4 CALLDATACOPY DUP1 DUP3 ADD SWAP2 POP POP SWAP1 POP JUMPDEST POP SWAP2 POP DUP4 PUSH8 0xFFFFFFFFFFFFFFFF DUP2 GT ISZERO PUSH2 0x3526 JUMPI PUSH2 0x3525 PUSH2 0x4061 JUMP JUMPDEST JUMPDEST PUSH1 0x40 MLOAD SWAP1 DUP1 DUP3 MSTORE DUP1 PUSH1 0x20 MUL PUSH1 0x20 ADD DUP3 ADD PUSH1 0x40 MSTORE DUP1 ISZERO PUSH2 0x3554 JUMPI DUP2 PUSH1 0x20 ADD PUSH1 0x20 DUP3 MUL DUP1 CALLDATASIZE DUP4 CALLDATACOPY DUP1 DUP3 ADD SWAP2 POP POP SWAP1 POP JUMPDEST POP SWAP1 POP PUSH1 0x0 DUP1 PUSH1 0x0 DUP8 SWAP1 POP PUSH1 0x0 PUSH20 0xFFFFFFFFFFFFFFFFFFFFFFFFFFFFFFFFFFFFFFFF AND DUP10 PUSH20 0xFFFFFFFFFFFFFFFFFFFFFFFFFFFFFFFFFFFFFFFF AND EQ PUSH2 0x3599 JUMPI DUP9 PUSH2 0x35BB JUMP JUMPDEST PUSH32 0x0 JUMPDEST DUP6 PUSH1 0x0 DUP2 MLOAD DUP2 LT PUSH2 0x35CF JUMPI PUSH2 0x35CE PUSH2 0x4550 JUMP JUMPDEST JUMPDEST PUSH1 0x20 MUL PUSH1 0x20 ADD ADD SWAP1 PUSH20 0xFFFFFFFFFFFFFFFFFFFFFFFFFFFFFFFFFFFFFFFF AND SWAP1 DUP2 PUSH20 0xFFFFFFFFFFFFFFFFFFFFFFFFFFFFFFFFFFFFFFFF AND DUP2 MSTORE POP POP PUSH1 0x0 JUMPDEST DUP8 DUP2 LT ISZERO PUSH2 0x38CB JUMPI PUSH2 0x3642 DUP12 PUSH1 0x14 PUSH1 0x1 DUP5 PUSH2 0x3627 SWAP2 SWAP1 PUSH2 0x4A29 JUMP JUMPDEST PUSH2 0x3631 SWAP2 SWAP1 PUSH2 0x46B9 JUMP JUMPDEST PUSH1 0x40 PUSH2 0x363D SWAP2 SWAP1 PUSH2 0x4A29 JUMP JUMPDEST PUSH2 0x1DD1 JUMP JUMPDEST DUP7 PUSH1 0x1 DUP4 PUSH2 0x3650 SWAP2 SWAP1 PUSH2 0x4A29 JUMP JUMPDEST DUP2 MLOAD DUP2 LT PUSH2 0x3661 JUMPI PUSH2 0x3660 PUSH2 0x4550 JUMP JUMPDEST JUMPDEST PUSH1 0x20 MUL PUSH1 0x20 ADD ADD SWAP1 PUSH20 0xFFFFFFFFFFFFFFFFFFFFFFFFFFFFFFFFFFFFFFFF AND SWAP1 DUP2 PUSH20 0xFFFFFFFFFFFFFFFFFFFFFFFFFFFFFFFFFFFFFFFF AND DUP2 MSTORE POP POP DUP6 DUP2 DUP2 MLOAD DUP2 LT PUSH2 0x36AE JUMPI PUSH2 0x36AD PUSH2 0x4550 JUMP JUMPDEST JUMPDEST PUSH1 0x20 MUL PUSH1 0x20 ADD ADD MLOAD SWAP4 POP DUP6 PUSH1 0x1 DUP3 PUSH2 0x36C6 SWAP2 SWAP1 PUSH2 0x4A29 JUMP JUMPDEST DUP2 MLOAD DUP2 LT PUSH2 0x36D7 JUMPI PUSH2 0x36D6 PUSH2 0x4550 JUMP JUMPDEST JUMPDEST PUSH1 0x20 MUL PUSH1 0x20 ADD ADD MLOAD SWAP3 POP PUSH2 0x36EB DUP5 DUP5 PUSH2 0x3D4E JUMP JUMPDEST DUP8 DUP3 DUP2 MLOAD DUP2 LT PUSH2 0x36FE JUMPI PUSH2 0x36FD PUSH2 0x4550 JUMP JUMPDEST JUMPDEST PUSH1 0x20 MUL PUSH1 0x20 ADD ADD SWAP1 PUSH20 0xFFFFFFFFFFFFFFFFFFFFFFFFFFFFFFFFFFFFFFFF AND SWAP1 DUP2 PUSH20 0xFFFFFFFFFFFFFFFFFFFFFFFFFFFFFFFFFFFFFFFF AND DUP2 MSTORE POP POP PUSH1 0x0 DUP1 DUP9 DUP4 DUP2 MLOAD DUP2 LT PUSH2 0x374E JUMPI PUSH2 0x374D PUSH2 0x4550 JUMP JUMPDEST JUMPDEST PUSH1 0x20 MUL PUSH1 0x20 ADD ADD MLOAD PUSH20 0xFFFFFFFFFFFFFFFFFFFFFFFFFFFFFFFFFFFFFFFF AND PUSH4 0x902F1AC PUSH1 0x40 MLOAD DUP2 PUSH4 0xFFFFFFFF AND PUSH1 0xE0 SHL DUP2 MSTORE PUSH1 0x4 ADD PUSH1 0x60 PUSH1 0x40 MLOAD DUP1 DUP4 SUB DUP2 DUP7 DUP1 EXTCODESIZE ISZERO DUP1 ISZERO PUSH2 0x379B JUMPI PUSH1 0x0 DUP1 REVERT JUMPDEST POP GAS STATICCALL ISZERO DUP1 ISZERO PUSH2 0x37AF JUMPI RETURNDATASIZE PUSH1 0x0 DUP1 RETURNDATACOPY RETURNDATASIZE PUSH1 0x0 REVERT JUMPDEST POP POP POP POP PUSH1 0x40 MLOAD RETURNDATASIZE PUSH1 0x1F NOT PUSH1 0x1F DUP3 ADD AND DUP3 ADD DUP1 PUSH1 0x40 MSTORE POP DUP2 ADD SWAP1 PUSH2 0x37D3 SWAP2 SWAP1 PUSH2 0x4F40 JUMP JUMPDEST POP PUSH14 0xFFFFFFFFFFFFFFFFFFFFFFFFFFFF AND SWAP2 POP PUSH14 0xFFFFFFFFFFFFFFFFFFFFFFFFFFFF AND SWAP2 POP DUP5 PUSH20 0xFFFFFFFFFFFFFFFFFFFFFFFFFFFFFFFFFFFFFFFF AND DUP7 PUSH20 0xFFFFFFFFFFFFFFFFFFFFFFFFFFFFFFFFFFFFFFFF AND GT ISZERO PUSH2 0x3837 JUMPI DUP1 DUP3 DUP1 SWAP3 POP DUP2 SWAP4 POP POP POP JUMPDEST PUSH2 0x3E5 DUP5 PUSH2 0x3845 SWAP2 SWAP1 PUSH2 0x46B9 JUMP JUMPDEST PUSH2 0x3E8 DUP4 PUSH2 0x3853 SWAP2 SWAP1 PUSH2 0x46B9 JUMP JUMPDEST PUSH2 0x385D SWAP2 SWAP1 PUSH2 0x4A29 JUMP JUMPDEST DUP2 PUSH2 0x3E5 DUP7 PUSH2 0x386C SWAP2 SWAP1 PUSH2 0x46B9 JUMP JUMPDEST PUSH2 0x3876 SWAP2 SWAP1 PUSH2 0x46B9 JUMP JUMPDEST PUSH2 0x3880 SWAP2 SWAP1 PUSH2 0x4742 JUMP JUMPDEST DUP8 DUP5 DUP2 MLOAD DUP2 LT PUSH2 0x3893 JUMPI PUSH2 0x3892 PUSH2 0x4550 JUMP JUMPDEST JUMPDEST PUSH1 0x20 MUL PUSH1 0x20 ADD ADD DUP2 DUP2 MSTORE POP POP DUP7 DUP4 DUP2 MLOAD DUP2 LT PUSH2 0x38B2 JUMPI PUSH2 0x38B1 PUSH2 0x4550 JUMP JUMPDEST JUMPDEST PUSH1 0x20 MUL PUSH1 0x20 ADD ADD MLOAD SWAP4 POP DUP3 DUP1 PUSH1 0x1 ADD SWAP4 POP POP POP POP PUSH2 0x360C JUMP JUMPDEST POP PUSH2 0x38D7 DUP11 PUSH1 0x20 PUSH2 0x1D36 JUMP JUMPDEST DUP2 LT ISZERO PUSH2 0x3910 JUMPI PUSH1 0x40 MLOAD PUSH32 0xBB2875C300000000000000000000000000000000000000000000000000000000 DUP2 MSTORE PUSH1 0x4 ADD PUSH1 0x40 MLOAD DUP1 SWAP2 SUB SWAP1 REVERT JUMPDEST PUSH1 0x0 PUSH20 0xFFFFFFFFFFFFFFFFFFFFFFFFFFFFFFFFFFFFFFFF AND DUP10 PUSH20 0xFFFFFFFFFFFFFFFFFFFFFFFFFFFFFFFFFFFFFFFF AND EQ ISZERO PUSH2 0x39C7 JUMPI PUSH32 0x0 PUSH20 0xFFFFFFFFFFFFFFFFFFFFFFFFFFFFFFFFFFFFFFFF AND PUSH4 0xD0E30DB0 DUP10 PUSH1 0x40 MLOAD DUP3 PUSH4 0xFFFFFFFF AND PUSH1 0xE0 SHL DUP2 MSTORE PUSH1 0x4 ADD PUSH1 0x0 PUSH1 0x40 MLOAD DUP1 DUP4 SUB DUP2 DUP6 DUP9 DUP1 EXTCODESIZE ISZERO DUP1 ISZERO PUSH2 0x39AD JUMPI PUSH1 0x0 DUP1 REVERT JUMPDEST POP GAS CALL ISZERO DUP1 ISZERO PUSH2 0x39C1 JUMPI RETURNDATASIZE PUSH1 0x0 DUP1 RETURNDATACOPY RETURNDATASIZE PUSH1 0x0 REVERT JUMPDEST POP POP POP POP POP JUMPDEST PUSH2 0x3A08 DUP6 PUSH1 0x0 DUP2 MLOAD DUP2 LT PUSH2 0x39DE JUMPI PUSH2 0x39DD PUSH2 0x4550 JUMP JUMPDEST JUMPDEST PUSH1 0x20 MUL PUSH1 0x20 ADD ADD MLOAD DUP8 PUSH1 0x0 DUP2 MLOAD DUP2 LT PUSH2 0x39FA JUMPI PUSH2 0x39F9 PUSH2 0x4550 JUMP JUMPDEST JUMPDEST PUSH1 0x20 MUL PUSH1 0x20 ADD ADD MLOAD DUP11 PUSH2 0xA93 JUMP JUMPDEST POP POP POP SWAP5 POP SWAP5 POP SWAP5 SWAP2 POP POP JUMP JUMPDEST PUSH2 0x3AAD DUP3 DUP3 PUSH1 0x40 MLOAD PUSH1 0x24 ADD PUSH2 0x3A2B SWAP3 SWAP2 SWAP1 PUSH2 0x4FD7 JUMP JUMPDEST PUSH1 0x40 MLOAD PUSH1 0x20 DUP2 DUP4 SUB SUB DUP2 MSTORE SWAP1 PUSH1 0x40 MSTORE PUSH32 0x319AF33300000000000000000000000000000000000000000000000000000000 PUSH28 0xFFFFFFFFFFFFFFFFFFFFFFFFFFFFFFFFFFFFFFFFFFFFFFFFFFFFFFFF NOT AND PUSH1 0x20 DUP3 ADD DUP1 MLOAD PUSH28 0xFFFFFFFFFFFFFFFFFFFFFFFFFFFFFFFFFFFFFFFFFFFFFFFFFFFFFFFF DUP4 DUP2 DUP4 AND OR DUP4 MSTORE POP POP POP POP PUSH2 0x3EF0 JUMP JUMPDEST POP POP JUMP JUMPDEST PUSH1 0x0 DUP1 PUSH1 0x0 DUP1 PUSH1 0x0 DUP6 DUP8 GAS CALL SWAP1 POP DUP1 PUSH2 0x3AFF JUMPI PUSH1 0x40 MLOAD PUSH32 0x8C379A000000000000000000000000000000000000000000000000000000000 DUP2 MSTORE PUSH1 0x4 ADD PUSH2 0x3AF6 SWAP1 PUSH2 0x5053 JUMP JUMPDEST PUSH1 0x40 MLOAD DUP1 SWAP2 SUB SWAP1 REVERT JUMPDEST POP POP POP JUMP JUMPDEST PUSH1 0x0 DUP1 PUSH2 0x3B12 DUP4 PUSH1 0x0 PUSH2 0x1DD1 JUMP JUMPDEST SWAP1 POP PUSH1 0x0 PUSH20 0xFFFFFFFFFFFFFFFFFFFFFFFFFFFFFFFFFFFFFFFF AND DUP2 PUSH20 0xFFFFFFFFFFFFFFFFFFFFFFFFFFFFFFFFFFFFFFFF AND EQ ISZERO PUSH2 0x3B6D JUMPI PUSH32 0x0 SWAP1 POP JUMPDEST PUSH1 0x0 PUSH2 0x3B7A DUP5 PUSH1 0x14 PUSH2 0x3454 JUMP JUMPDEST SWAP1 POP PUSH1 0x0 PUSH2 0x3B89 DUP6 PUSH1 0x17 PUSH2 0x1DD1 JUMP JUMPDEST SWAP1 POP PUSH1 0x0 DUP2 PUSH20 0xFFFFFFFFFFFFFFFFFFFFFFFFFFFFFFFFFFFFFFFF AND DUP5 PUSH20 0xFFFFFFFFFFFFFFFFFFFFFFFFFFFFFFFFFFFFFFFF AND LT SWAP1 POP DUP1 ISZERO PUSH2 0x3C80 JUMPI PUSH1 0x0 PUSH2 0x3BD1 DUP6 DUP5 DUP7 PUSH2 0x1BF8 JUMP JUMPDEST PUSH20 0xFFFFFFFFFFFFFFFFFFFFFFFFFFFFFFFFFFFFFFFF AND PUSH4 0x128ACB08 DUP11 DUP5 DUP12 PUSH5 0x1000276A4 DUP13 PUSH1 0x40 MLOAD DUP7 PUSH4 0xFFFFFFFF AND PUSH1 0xE0 SHL DUP2 MSTORE PUSH1 0x4 ADD PUSH2 0x3C16 SWAP6 SWAP5 SWAP4 SWAP3 SWAP2 SWAP1 PUSH2 0x5091 JUMP JUMPDEST PUSH1 0x40 DUP1 MLOAD DUP1 DUP4 SUB DUP2 PUSH1 0x0 DUP8 DUP1 EXTCODESIZE ISZERO DUP1 ISZERO PUSH2 0x3C2F JUMPI PUSH1 0x0 DUP1 REVERT JUMPDEST POP GAS CALL ISZERO DUP1 ISZERO PUSH2 0x3C43 JUMPI RETURNDATASIZE PUSH1 0x0 DUP1 RETURNDATACOPY RETURNDATASIZE PUSH1 0x0 REVERT JUMPDEST POP POP POP POP PUSH1 0x40 MLOAD RETURNDATASIZE PUSH1 0x1F NOT PUSH1 0x1F DUP3 ADD AND DUP3 ADD DUP1 PUSH1 0x40 MSTORE POP DUP2 ADD SWAP1 PUSH2 0x3C67 SWAP2 SWAP1 PUSH2 0x50EB JUMP JUMPDEST SWAP2 POP POP DUP1 PUSH2 0x3C74 SWAP1 PUSH2 0x49C5 JUMP JUMPDEST SWAP6 POP POP POP POP POP POP PUSH2 0x3D47 JUMP JUMPDEST PUSH1 0x0 PUSH2 0x3C8D DUP6 DUP5 DUP7 PUSH2 0x1BF8 JUMP JUMPDEST PUSH20 0xFFFFFFFFFFFFFFFFFFFFFFFFFFFFFFFFFFFFFFFF AND PUSH4 0x128ACB08 DUP11 DUP5 DUP12 PUSH20 0xFFFD8963EFD1FC6A506488495D951D5263988D25 DUP13 PUSH1 0x40 MLOAD DUP7 PUSH4 0xFFFFFFFF AND PUSH1 0xE0 SHL DUP2 MSTORE PUSH1 0x4 ADD PUSH2 0x3CE1 SWAP6 SWAP5 SWAP4 SWAP3 SWAP2 SWAP1 PUSH2 0x5091 JUMP JUMPDEST PUSH1 0x40 DUP1 MLOAD DUP1 DUP4 SUB DUP2 PUSH1 0x0 DUP8 DUP1 EXTCODESIZE ISZERO DUP1 ISZERO PUSH2 0x3CFA JUMPI PUSH1 0x0 DUP1 REVERT JUMPDEST POP GAS CALL ISZERO DUP1 ISZERO PUSH2 0x3D0E JUMPI RETURNDATASIZE PUSH1 0x0 DUP1 RETURNDATACOPY RETURNDATASIZE PUSH1 0x0 REVERT JUMPDEST POP POP POP POP PUSH1 0x40 MLOAD RETURNDATASIZE PUSH1 0x1F NOT PUSH1 0x1F DUP3 ADD AND DUP3 ADD DUP1 PUSH1 0x40 MSTORE POP DUP2 ADD SWAP1 PUSH2 0x3D32 SWAP2 SWAP1 PUSH2 0x50EB JUMP JUMPDEST POP SWAP1 POP DUP1 PUSH2 0x3D3F SWAP1 PUSH2 0x49C5 JUMP JUMPDEST SWAP6 POP POP POP POP POP POP JUMPDEST SWAP4 SWAP3 POP POP POP JUMP JUMPDEST PUSH1 0x0 DUP2 PUSH20 0xFFFFFFFFFFFFFFFFFFFFFFFFFFFFFFFFFFFFFFFF AND DUP4 PUSH20 0xFFFFFFFFFFFFFFFFFFFFFFFFFFFFFFFFFFFFFFFF AND EQ ISZERO PUSH2 0x3DBF JUMPI PUSH1 0x40 MLOAD PUSH32 0x8C379A000000000000000000000000000000000000000000000000000000000 DUP2 MSTORE PUSH1 0x4 ADD PUSH2 0x3DB6 SWAP1 PUSH2 0x5177 JUMP JUMPDEST PUSH1 0x40 MLOAD DUP1 SWAP2 SUB SWAP1 REVERT JUMPDEST DUP2 PUSH20 0xFFFFFFFFFFFFFFFFFFFFFFFFFFFFFFFFFFFFFFFF AND DUP4 PUSH20 0xFFFFFFFFFFFFFFFFFFFFFFFFFFFFFFFFFFFFFFFF AND LT PUSH2 0x3DF9 JUMPI DUP2 DUP4 PUSH2 0x3DFC JUMP JUMPDEST DUP3 DUP3 JUMPDEST DUP1 SWAP4 POP DUP2 SWAP5 POP POP POP PUSH1 0x0 PUSH20 0xFFFFFFFFFFFFFFFFFFFFFFFFFFFFFFFFFFFFFFFF AND DUP4 PUSH20 0xFFFFFFFFFFFFFFFFFFFFFFFFFFFFFFFFFFFFFFFF AND EQ ISZERO PUSH2 0x3E74 JUMPI PUSH1 0x40 MLOAD PUSH32 0x8C379A000000000000000000000000000000000000000000000000000000000 DUP2 MSTORE PUSH1 0x4 ADD PUSH2 0x3E6B SWAP1 PUSH2 0x51E3 JUMP JUMPDEST PUSH1 0x40 MLOAD DUP1 SWAP2 SUB SWAP1 REVERT JUMPDEST PUSH32 0x0 DUP4 DUP4 PUSH1 0x40 MLOAD PUSH1 0x20 ADD PUSH2 0x3EA8 SWAP3 SWAP2 SWAP1 PUSH2 0x5203 JUMP JUMPDEST PUSH1 0x40 MLOAD PUSH1 0x20 DUP2 DUP4 SUB SUB DUP2 MSTORE SWAP1 PUSH1 0x40 MSTORE DUP1 MLOAD SWAP1 PUSH1 0x20 ADD KECCAK256 PUSH1 0x40 MLOAD PUSH1 0x20 ADD PUSH2 0x3ECF SWAP3 SWAP2 SWAP1 PUSH2 0x527B JUMP JUMPDEST PUSH1 0x40 MLOAD PUSH1 0x20 DUP2 DUP4 SUB SUB DUP2 MSTORE SWAP1 PUSH1 0x40 MSTORE DUP1 MLOAD SWAP1 PUSH1 0x20 ADD KECCAK256 PUSH1 0x0 SHR SWAP1 POP SWAP3 SWAP2 POP POP JUMP JUMPDEST PUSH1 0x0 DUP2 MLOAD SWAP1 POP PUSH1 0x0 PUSH11 0x636F6E736F6C652E6C6F67 SWAP1 POP PUSH1 0x20 DUP4 ADD PUSH1 0x0 DUP1 DUP5 DUP4 DUP6 GAS STATICCALL POP POP POP POP POP JUMP JUMPDEST PUSH1 0x0 PUSH1 0x40 MLOAD SWAP1 POP SWAP1 JUMP JUMPDEST PUSH1 0x0 DUP1 REVERT JUMPDEST PUSH1 0x0 DUP1 REVERT JUMPDEST PUSH1 0x0 DUP1 REVERT JUMPDEST PUSH1 0x0 DUP1 REVERT JUMPDEST PUSH1 0x0 DUP1 REVERT JUMPDEST PUSH1 0x0 DUP1 DUP4 PUSH1 0x1F DUP5 ADD SLT PUSH2 0x3F52 JUMPI PUSH2 0x3F51 PUSH2 0x3F2D JUMP JUMPDEST JUMPDEST DUP3 CALLDATALOAD SWAP1 POP PUSH8 0xFFFFFFFFFFFFFFFF DUP2 GT ISZERO PUSH2 0x3F6F JUMPI PUSH2 0x3F6E PUSH2 0x3F32 JUMP JUMPDEST JUMPDEST PUSH1 0x20 DUP4 ADD SWAP2 POP DUP4 PUSH1 0x20 DUP3 MUL DUP4 ADD GT ISZERO PUSH2 0x3F8B JUMPI PUSH2 0x3F8A PUSH2 0x3F37 JUMP JUMPDEST JUMPDEST SWAP3 POP SWAP3 SWAP1 POP JUMP JUMPDEST PUSH1 0x0 PUSH20 0xFFFFFFFFFFFFFFFFFFFFFFFFFFFFFFFFFFFFFFFF DUP3 AND SWAP1 POP SWAP2 SWAP1 POP JUMP JUMPDEST PUSH1 0x0 PUSH2 0x3FBD DUP3 PUSH2 0x3F92 JUMP JUMPDEST SWAP1 POP SWAP2 SWAP1 POP JUMP JUMPDEST PUSH2 0x3FCD DUP2 PUSH2 0x3FB2 JUMP JUMPDEST DUP2 EQ PUSH2 0x3FD8 JUMPI PUSH1 0x0 DUP1 REVERT JUMPDEST POP JUMP JUMPDEST PUSH1 0x0 DUP2 CALLDATALOAD SWAP1 POP PUSH2 0x3FEA DUP2 PUSH2 0x3FC4 JUMP JUMPDEST SWAP3 SWAP2 POP POP JUMP JUMPDEST PUSH1 0x0 DUP1 PUSH1 0x0 PUSH1 0x40 DUP5 DUP7 SUB SLT ISZERO PUSH2 0x4009 JUMPI PUSH2 0x4008 PUSH2 0x3F23 JUMP JUMPDEST JUMPDEST PUSH1 0x0 DUP5 ADD CALLDATALOAD PUSH8 0xFFFFFFFFFFFFFFFF DUP2 GT ISZERO PUSH2 0x4027 JUMPI PUSH2 0x4026 PUSH2 0x3F28 JUMP JUMPDEST JUMPDEST PUSH2 0x4033 DUP7 DUP3 DUP8 ADD PUSH2 0x3F3C JUMP JUMPDEST SWAP4 POP SWAP4 POP POP PUSH1 0x20 PUSH2 0x4046 DUP7 DUP3 DUP8 ADD PUSH2 0x3FDB JUMP JUMPDEST SWAP2 POP POP SWAP3 POP SWAP3 POP SWAP3 JUMP JUMPDEST PUSH1 0x0 PUSH1 0x1F NOT PUSH1 0x1F DUP4 ADD AND SWAP1 POP SWAP2 SWAP1 POP JUMP JUMPDEST PUSH32 0x4E487B7100000000000000000000000000000000000000000000000000000000 PUSH1 0x0 MSTORE PUSH1 0x41 PUSH1 0x4 MSTORE PUSH1 0x24 PUSH1 0x0 REVERT JUMPDEST PUSH2 0x4099 DUP3 PUSH2 0x4050 JUMP JUMPDEST DUP2 ADD DUP2 DUP2 LT PUSH8 0xFFFFFFFFFFFFFFFF DUP3 GT OR ISZERO PUSH2 0x40B8 JUMPI PUSH2 0x40B7 PUSH2 0x4061 JUMP JUMPDEST JUMPDEST DUP1 PUSH1 0x40 MSTORE POP POP POP JUMP JUMPDEST PUSH1 0x0 PUSH2 0x40CB PUSH2 0x3F19 JUMP JUMPDEST SWAP1 POP PUSH2 0x40D7 DUP3 DUP3 PUSH2 0x4090 JUMP JUMPDEST SWAP2 SWAP1 POP JUMP JUMPDEST PUSH1 0x0 PUSH8 0xFFFFFFFFFFFFFFFF DUP3 GT ISZERO PUSH2 0x40F7 JUMPI PUSH2 0x40F6 PUSH2 0x4061 JUMP JUMPDEST JUMPDEST PUSH1 0x20 DUP3 MUL SWAP1 POP PUSH1 0x20 DUP2 ADD SWAP1 POP SWAP2 SWAP1 POP JUMP JUMPDEST PUSH1 0x0 DUP1 REVERT JUMPDEST PUSH1 0x0 PUSH8 0xFFFFFFFFFFFFFFFF DUP3 GT ISZERO PUSH2 0x4128 JUMPI PUSH2 0x4127 PUSH2 0x4061 JUMP JUMPDEST JUMPDEST PUSH2 0x4131 DUP3 PUSH2 0x4050 JUMP JUMPDEST SWAP1 POP PUSH1 0x20 DUP2 ADD SWAP1 POP SWAP2 SWAP1 POP JUMP JUMPDEST DUP3 DUP2 DUP4 CALLDATACOPY PUSH1 0x0 DUP4 DUP4 ADD MSTORE POP POP POP JUMP JUMPDEST PUSH1 0x0 PUSH2 0x4160 PUSH2 0x415B DUP5 PUSH2 0x410D JUMP JUMPDEST PUSH2 0x40C1 JUMP JUMPDEST SWAP1 POP DUP3 DUP2 MSTORE PUSH1 0x20 DUP2 ADD DUP5 DUP5 DUP5 ADD GT ISZERO PUSH2 0x417C JUMPI PUSH2 0x417B PUSH2 0x4108 JUMP JUMPDEST JUMPDEST PUSH2 0x4187 DUP5 DUP3 DUP6 PUSH2 0x413E JUMP JUMPDEST POP SWAP4 SWAP3 POP POP POP JUMP JUMPDEST PUSH1 0x0 DUP3 PUSH1 0x1F DUP4 ADD SLT PUSH2 0x41A4 JUMPI PUSH2 0x41A3 PUSH2 0x3F2D JUMP JUMPDEST JUMPDEST DUP2 CALLDATALOAD PUSH2 0x41B4 DUP5 DUP3 PUSH1 0x20 DUP7 ADD PUSH2 0x414D JUMP JUMPDEST SWAP2 POP POP SWAP3 SWAP2 POP POP JUMP JUMPDEST PUSH1 0x0 PUSH2 0x41D0 PUSH2 0x41CB DUP5 PUSH2 0x40DC JUMP JUMPDEST PUSH2 0x40C1 JUMP JUMPDEST SWAP1 POP DUP1 DUP4 DUP3 MSTORE PUSH1 0x20 DUP3 ADD SWAP1 POP PUSH1 0x20 DUP5 MUL DUP4 ADD DUP6 DUP2 GT ISZERO PUSH2 0x41F3 JUMPI PUSH2 0x41F2 PUSH2 0x3F37 JUMP JUMPDEST JUMPDEST DUP4 JUMPDEST DUP2 DUP2 LT ISZERO PUSH2 0x423A JUMPI DUP1 CALLDATALOAD PUSH8 0xFFFFFFFFFFFFFFFF DUP2 GT ISZERO PUSH2 0x4218 JUMPI PUSH2 0x4217 PUSH2 0x3F2D JUMP JUMPDEST JUMPDEST DUP1 DUP7 ADD PUSH2 0x4225 DUP10 DUP3 PUSH2 0x418F JUMP JUMPDEST DUP6 MSTORE PUSH1 0x20 DUP6 ADD SWAP5 POP POP POP PUSH1 0x20 DUP2 ADD SWAP1 POP PUSH2 0x41F5 JUMP JUMPDEST POP POP POP SWAP4 SWAP3 POP POP POP JUMP JUMPDEST PUSH1 0x0 DUP3 PUSH1 0x1F DUP4 ADD SLT PUSH2 0x4259 JUMPI PUSH2 0x4258 PUSH2 0x3F2D JUMP JUMPDEST JUMPDEST DUP2 CALLDATALOAD PUSH2 0x4269 DUP5 DUP3 PUSH1 0x20 DUP7 ADD PUSH2 0x41BD JUMP JUMPDEST SWAP2 POP POP SWAP3 SWAP2 POP POP JUMP JUMPDEST PUSH1 0x0 DUP2 SWAP1 POP SWAP2 SWAP1 POP JUMP JUMPDEST PUSH2 0x4285 DUP2 PUSH2 0x4272 JUMP JUMPDEST DUP2 EQ PUSH2 0x4290 JUMPI PUSH1 0x0 DUP1 REVERT JUMPDEST POP JUMP JUMPDEST PUSH1 0x0 DUP2 CALLDATALOAD SWAP1 POP PUSH2 0x42A2 DUP2 PUSH2 0x427C JUMP JUMPDEST SWAP3 SWAP2 POP POP JUMP JUMPDEST PUSH1 0x0 DUP1 PUSH1 0x0 PUSH1 0x60 DUP5 DUP7 SUB SLT ISZERO PUSH2 0x42C1 JUMPI PUSH2 0x42C0 PUSH2 0x3F23 JUMP JUMPDEST JUMPDEST PUSH1 0x0 DUP5 ADD CALLDATALOAD PUSH8 0xFFFFFFFFFFFFFFFF DUP2 GT ISZERO PUSH2 0x42DF JUMPI PUSH2 0x42DE PUSH2 0x3F28 JUMP JUMPDEST JUMPDEST PUSH2 0x42EB DUP7 DUP3 DUP8 ADD PUSH2 0x4244 JUMP JUMPDEST SWAP4 POP POP PUSH1 0x20 DUP5 ADD CALLDATALOAD PUSH8 0xFFFFFFFFFFFFFFFF DUP2 GT ISZERO PUSH2 0x430C JUMPI PUSH2 0x430B PUSH2 0x3F28 JUMP JUMPDEST JUMPDEST PUSH2 0x4318 DUP7 DUP3 DUP8 ADD PUSH2 0x4244 JUMP JUMPDEST SWAP3 POP POP PUSH1 0x40 PUSH2 0x4329 DUP7 DUP3 DUP8 ADD PUSH2 0x4293 JUMP JUMPDEST SWAP2 POP POP SWAP3 POP SWAP3 POP SWAP3 JUMP JUMPDEST PUSH1 0x0 DUP1 PUSH1 0x40 DUP4 DUP6 SUB SLT ISZERO PUSH2 0x434A JUMPI PUSH2 0x4349 PUSH2 0x3F23 JUMP JUMPDEST JUMPDEST PUSH1 0x0 DUP4 ADD CALLDATALOAD PUSH8 0xFFFFFFFFFFFFFFFF DUP2 GT ISZERO PUSH2 0x4368 JUMPI PUSH2 0x4367 PUSH2 0x3F28 JUMP JUMPDEST JUMPDEST PUSH2 0x4374 DUP6 DUP3 DUP7 ADD PUSH2 0x4244 JUMP JUMPDEST SWAP3 POP POP PUSH1 0x20 DUP4 ADD CALLDATALOAD PUSH8 0xFFFFFFFFFFFFFFFF DUP2 GT ISZERO PUSH2 0x4395 JUMPI PUSH2 0x4394 PUSH2 0x3F28 JUMP JUMPDEST JUMPDEST PUSH2 0x43A1 DUP6 DUP3 DUP7 ADD PUSH2 0x4244 JUMP JUMPDEST SWAP2 POP POP SWAP3 POP SWAP3 SWAP1 POP JUMP JUMPDEST PUSH1 0x0 PUSH1 0x20 DUP3 DUP5 SUB SLT ISZERO PUSH2 0x43C1 JUMPI PUSH2 0x43C0 PUSH2 0x3F23 JUMP JUMPDEST JUMPDEST PUSH1 0x0 PUSH2 0x43CF DUP5 DUP3 DUP6 ADD PUSH2 0x3FDB JUMP JUMPDEST SWAP2 POP POP SWAP3 SWAP2 POP POP JUMP JUMPDEST PUSH1 0x0 DUP1 PUSH1 0x40 DUP4 DUP6 SUB SLT ISZERO PUSH2 0x43EF JUMPI PUSH2 0x43EE PUSH2 0x3F23 JUMP JUMPDEST JUMPDEST PUSH1 0x0 DUP4 ADD CALLDATALOAD PUSH8 0xFFFFFFFFFFFFFFFF DUP2 GT ISZERO PUSH2 0x440D JUMPI PUSH2 0x440C PUSH2 0x3F28 JUMP JUMPDEST JUMPDEST PUSH2 0x4419 DUP6 DUP3 DUP7 ADD PUSH2 0x418F JUMP JUMPDEST SWAP3 POP POP PUSH1 0x20 DUP4 ADD CALLDATALOAD PUSH8 0xFFFFFFFFFFFFFFFF DUP2 GT ISZERO PUSH2 0x443A JUMPI PUSH2 0x4439 PUSH2 0x3F28 JUMP JUMPDEST JUMPDEST PUSH2 0x4446 DUP6 DUP3 DUP7 ADD PUSH2 0x418F JUMP JUMPDEST SWAP2 POP POP SWAP3 POP SWAP3 SWAP1 POP JUMP JUMPDEST PUSH1 0x0 DUP2 SWAP1 POP SWAP2 SWAP1 POP JUMP JUMPDEST PUSH2 0x4463 DUP2 PUSH2 0x4450 JUMP JUMPDEST DUP2 EQ PUSH2 0x446E JUMPI PUSH1 0x0 DUP1 REVERT JUMPDEST POP JUMP JUMPDEST PUSH1 0x0 DUP2 CALLDATALOAD SWAP1 POP PUSH2 0x4480 DUP2 PUSH2 0x445A JUMP JUMPDEST SWAP3 SWAP2 POP POP JUMP JUMPDEST PUSH1 0x0 DUP1 DUP4 PUSH1 0x1F DUP5 ADD SLT PUSH2 0x449C JUMPI PUSH2 0x449B PUSH2 0x3F2D JUMP JUMPDEST JUMPDEST DUP3 CALLDATALOAD SWAP1 POP PUSH8 0xFFFFFFFFFFFFFFFF DUP2 GT ISZERO PUSH2 0x44B9 JUMPI PUSH2 0x44B8 PUSH2 0x3F32 JUMP JUMPDEST JUMPDEST PUSH1 0x20 DUP4 ADD SWAP2 POP DUP4 PUSH1 0x1 DUP3 MUL DUP4 ADD GT ISZERO PUSH2 0x44D5 JUMPI PUSH2 0x44D4 PUSH2 0x3F37 JUMP JUMPDEST JUMPDEST SWAP3 POP SWAP3 SWAP1 POP JUMP JUMPDEST PUSH1 0x0 DUP1 PUSH1 0x0 DUP1 PUSH1 0x60 DUP6 DUP8 SUB SLT ISZERO PUSH2 0x44F6 JUMPI PUSH2 0x44F5 PUSH2 0x3F23 JUMP JUMPDEST JUMPDEST PUSH1 0x0 PUSH2 0x4504 DUP8 DUP3 DUP9 ADD PUSH2 0x4471 JUMP JUMPDEST SWAP5 POP POP PUSH1 0x20 PUSH2 0x4515 DUP8 DUP3 DUP9 ADD PUSH2 0x4471 JUMP JUMPDEST SWAP4 POP POP PUSH1 0x40 DUP6 ADD CALLDATALOAD PUSH8 0xFFFFFFFFFFFFFFFF DUP2 GT ISZERO PUSH2 0x4536 JUMPI PUSH2 0x4535 PUSH2 0x3F28 JUMP JUMPDEST JUMPDEST PUSH2 0x4542 DUP8 DUP3 DUP9 ADD PUSH2 0x4486 JUMP JUMPDEST SWAP3 POP SWAP3 POP POP SWAP3 SWAP6 SWAP2 SWAP5 POP SWAP3 POP JUMP JUMPDEST PUSH32 0x4E487B7100000000000000000000000000000000000000000000000000000000 PUSH1 0x0 MSTORE PUSH1 0x32 PUSH1 0x4 MSTORE PUSH1 0x24 PUSH1 0x0 REVERT JUMPDEST PUSH1 0x0 PUSH2 0x458A DUP3 PUSH2 0x3FB2 JUMP JUMPDEST SWAP1 POP SWAP2 SWAP1 POP JUMP JUMPDEST PUSH2 0x459A DUP2 PUSH2 0x457F JUMP JUMPDEST DUP2 EQ PUSH2 0x45A5 JUMPI PUSH1 0x0 DUP1 REVERT JUMPDEST POP JUMP JUMPDEST PUSH1 0x0 DUP2 CALLDATALOAD SWAP1 POP PUSH2 0x45B7 DUP2 PUSH2 0x4591 JUMP JUMPDEST SWAP3 SWAP2 POP POP JUMP JUMPDEST PUSH1 0x0 PUSH1 0x20 DUP3 DUP5 SUB SLT ISZERO PUSH2 0x45D3 JUMPI PUSH2 0x45D2 PUSH2 0x3F23 JUMP JUMPDEST JUMPDEST PUSH1 0x0 PUSH2 0x45E1 DUP5 DUP3 DUP6 ADD PUSH2 0x45A8 JUMP JUMPDEST SWAP2 POP POP SWAP3 SWAP2 POP POP JUMP JUMPDEST PUSH2 0x45F3 DUP2 PUSH2 0x3FB2 JUMP JUMPDEST DUP3 MSTORE POP POP JUMP JUMPDEST PUSH1 0x0 PUSH1 0x20 DUP3 ADD SWAP1 POP PUSH2 0x460E PUSH1 0x0 DUP4 ADD DUP5 PUSH2 0x45EA JUMP JUMPDEST SWAP3 SWAP2 POP POP JUMP JUMPDEST PUSH1 0x0 DUP2 MLOAD SWAP1 POP PUSH2 0x4623 DUP2 PUSH2 0x427C JUMP JUMPDEST SWAP3 SWAP2 POP POP JUMP JUMPDEST PUSH1 0x0 PUSH1 0x20 DUP3 DUP5 SUB SLT ISZERO PUSH2 0x463F JUMPI PUSH2 0x463E PUSH2 0x3F23 JUMP JUMPDEST JUMPDEST PUSH1 0x0 PUSH2 0x464D DUP5 DUP3 DUP6 ADD PUSH2 0x4614 JUMP JUMPDEST SWAP2 POP POP SWAP3 SWAP2 POP POP JUMP JUMPDEST PUSH32 0x4E487B7100000000000000000000000000000000000000000000000000000000 PUSH1 0x0 MSTORE PUSH1 0x11 PUSH1 0x4 MSTORE PUSH1 0x24 PUSH1 0x0 REVERT JUMPDEST PUSH1 0x0 PUSH2 0x4690 DUP3 PUSH2 0x4272 JUMP JUMPDEST SWAP2 POP PUSH2 0x469B DUP4 PUSH2 0x4272 JUMP JUMPDEST SWAP3 POP DUP3 DUP3 LT ISZERO PUSH2 0x46AE JUMPI PUSH2 0x46AD PUSH2 0x4656 JUMP JUMPDEST JUMPDEST DUP3 DUP3 SUB SWAP1 POP SWAP3 SWAP2 POP POP JUMP JUMPDEST PUSH1 0x0 PUSH2 0x46C4 DUP3 PUSH2 0x4272 JUMP JUMPDEST SWAP2 POP PUSH2 0x46CF DUP4 PUSH2 0x4272 JUMP JUMPDEST SWAP3 POP DUP2 PUSH32 0xFFFFFFFFFFFFFFFFFFFFFFFFFFFFFFFFFFFFFFFFFFFFFFFFFFFFFFFFFFFFFFFF DIV DUP4 GT DUP3 ISZERO ISZERO AND ISZERO PUSH2 0x4708 JUMPI PUSH2 0x4707 PUSH2 0x4656 JUMP JUMPDEST JUMPDEST DUP3 DUP3 MUL SWAP1 POP SWAP3 SWAP2 POP POP JUMP JUMPDEST PUSH32 0x4E487B7100000000000000000000000000000000000000000000000000000000 PUSH1 0x0 MSTORE PUSH1 0x12 PUSH1 0x4 MSTORE PUSH1 0x24 PUSH1 0x0 REVERT JUMPDEST PUSH1 0x0 PUSH2 0x474D DUP3 PUSH2 0x4272 JUMP JUMPDEST SWAP2 POP PUSH2 0x4758 DUP4 PUSH2 0x4272 JUMP JUMPDEST SWAP3 POP DUP3 PUSH2 0x4768 JUMPI PUSH2 0x4767 PUSH2 0x4713 JUMP JUMPDEST JUMPDEST DUP3 DUP3 DIV SWAP1 POP SWAP3 SWAP2 POP POP JUMP JUMPDEST PUSH1 0x0 PUSH32 0xFF00000000000000000000000000000000000000000000000000000000000000 DUP3 AND SWAP1 POP SWAP2 SWAP1 POP JUMP JUMPDEST PUSH2 0x47A8 DUP2 PUSH2 0x4773 JUMP JUMPDEST DUP3 MSTORE POP POP JUMP JUMPDEST PUSH2 0x47B7 DUP2 PUSH2 0x4272 JUMP JUMPDEST DUP3 MSTORE POP POP JUMP JUMPDEST PUSH1 0x0 DUP2 MLOAD SWAP1 POP SWAP2 SWAP1 POP JUMP JUMPDEST PUSH1 0x0 DUP3 DUP3 MSTORE PUSH1 0x20 DUP3 ADD SWAP1 POP SWAP3 SWAP2 POP POP JUMP JUMPDEST PUSH1 0x0 JUMPDEST DUP4 DUP2 LT ISZERO PUSH2 0x47F7 JUMPI DUP1 DUP3 ADD MLOAD DUP2 DUP5 ADD MSTORE PUSH1 0x20 DUP2 ADD SWAP1 POP PUSH2 0x47DC JUMP JUMPDEST DUP4 DUP2 GT ISZERO PUSH2 0x4806 JUMPI PUSH1 0x0 DUP5 DUP5 ADD MSTORE JUMPDEST POP POP POP POP JUMP JUMPDEST PUSH1 0x0 PUSH2 0x4817 DUP3 PUSH2 0x47BD JUMP JUMPDEST PUSH2 0x4821 DUP2 DUP6 PUSH2 0x47C8 JUMP JUMPDEST SWAP4 POP PUSH2 0x4831 DUP2 DUP6 PUSH1 0x20 DUP7 ADD PUSH2 0x47D9 JUMP JUMPDEST PUSH2 0x483A DUP2 PUSH2 0x4050 JUMP JUMPDEST DUP5 ADD SWAP2 POP POP SWAP3 SWAP2 POP POP JUMP JUMPDEST PUSH1 0x0 PUSH1 0x60 DUP3 ADD SWAP1 POP PUSH2 0x485A PUSH1 0x0 DUP4 ADD DUP7 PUSH2 0x479F JUMP JUMPDEST PUSH2 0x4867 PUSH1 0x20 DUP4 ADD DUP6 PUSH2 0x47AE JUMP JUMPDEST DUP2 DUP2 SUB PUSH1 0x40 DUP4 ADD MSTORE PUSH2 0x4879 DUP2 DUP5 PUSH2 0x480C JUMP JUMPDEST SWAP1 POP SWAP5 SWAP4 POP POP POP POP JUMP JUMPDEST PUSH1 0x0 DUP2 SWAP1 POP SWAP2 SWAP1 POP JUMP JUMPDEST PUSH1 0x0 DUP2 SWAP1 POP SWAP2 SWAP1 POP JUMP JUMPDEST PUSH1 0x0 PUSH2 0x48B2 PUSH2 0x48AD PUSH2 0x48A8 DUP5 PUSH2 0x4883 JUMP JUMPDEST PUSH2 0x488D JUMP JUMPDEST PUSH2 0x4272 JUMP JUMPDEST SWAP1 POP SWAP2 SWAP1 POP JUMP JUMPDEST PUSH2 0x48C2 DUP2 PUSH2 0x4897 JUMP JUMPDEST DUP3 MSTORE POP POP JUMP JUMPDEST PUSH1 0x0 PUSH1 0x60 DUP3 ADD SWAP1 POP PUSH2 0x48DD PUSH1 0x0 DUP4 ADD DUP7 PUSH2 0x479F JUMP JUMPDEST PUSH2 0x48EA PUSH1 0x20 DUP4 ADD DUP6 PUSH2 0x48B9 JUMP JUMPDEST DUP2 DUP2 SUB PUSH1 0x40 DUP4 ADD MSTORE PUSH2 0x48FC DUP2 DUP5 PUSH2 0x480C JUMP JUMPDEST SWAP1 POP SWAP5 SWAP4 POP POP POP POP JUMP JUMPDEST PUSH1 0x0 DUP3 DUP3 MSTORE PUSH1 0x20 DUP3 ADD SWAP1 POP SWAP3 SWAP2 POP POP JUMP JUMPDEST PUSH32 0x5452414E534645525F4641494C45440000000000000000000000000000000000 PUSH1 0x0 DUP3 ADD MSTORE POP JUMP JUMPDEST PUSH1 0x0 PUSH2 0x494D PUSH1 0xF DUP4 PUSH2 0x4906 JUMP JUMPDEST SWAP2 POP PUSH2 0x4958 DUP3 PUSH2 0x4917 JUMP JUMPDEST PUSH1 0x20 DUP3 ADD SWAP1 POP SWAP2 SWAP1 POP JUMP JUMPDEST PUSH1 0x0 PUSH1 0x20 DUP3 ADD SWAP1 POP DUP2 DUP2 SUB PUSH1 0x0 DUP4 ADD MSTORE PUSH2 0x497C DUP2 PUSH2 0x4940 JUMP JUMPDEST SWAP1 POP SWAP2 SWAP1 POP JUMP JUMPDEST PUSH1 0x0 DUP2 MLOAD SWAP1 POP PUSH2 0x4992 DUP2 PUSH2 0x445A JUMP JUMPDEST SWAP3 SWAP2 POP POP JUMP JUMPDEST PUSH1 0x0 PUSH1 0x20 DUP3 DUP5 SUB SLT ISZERO PUSH2 0x49AE JUMPI PUSH2 0x49AD PUSH2 0x3F23 JUMP JUMPDEST JUMPDEST PUSH1 0x0 PUSH2 0x49BC DUP5 DUP3 DUP6 ADD PUSH2 0x4983 JUMP JUMPDEST SWAP2 POP POP SWAP3 SWAP2 POP POP JUMP JUMPDEST PUSH1 0x0 PUSH2 0x49D0 DUP3 PUSH2 0x4450 JUMP JUMPDEST SWAP2 POP PUSH32 0x8000000000000000000000000000000000000000000000000000000000000000 DUP3 EQ ISZERO PUSH2 0x4A03 JUMPI PUSH2 0x4A02 PUSH2 0x4656 JUMP JUMPDEST JUMPDEST DUP2 PUSH1 0x0 SUB SWAP1 POP SWAP2 SWAP1 POP JUMP JUMPDEST PUSH1 0x0 PUSH1 0x20 DUP3 ADD SWAP1 POP PUSH2 0x4A23 PUSH1 0x0 DUP4 ADD DUP5 PUSH2 0x47AE JUMP JUMPDEST SWAP3 SWAP2 POP POP JUMP JUMPDEST PUSH1 0x0 PUSH2 0x4A34 DUP3 PUSH2 0x4272 JUMP JUMPDEST SWAP2 POP PUSH2 0x4A3F DUP4 PUSH2 0x4272 JUMP JUMPDEST SWAP3 POP DUP3 PUSH32 0xFFFFFFFFFFFFFFFFFFFFFFFFFFFFFFFFFFFFFFFFFFFFFFFFFFFFFFFFFFFFFFFF SUB DUP3 GT ISZERO PUSH2 0x4A74 JUMPI PUSH2 0x4A73 PUSH2 0x4656 JUMP JUMPDEST JUMPDEST DUP3 DUP3 ADD SWAP1 POP SWAP3 SWAP2 POP POP JUMP JUMPDEST PUSH1 0x0 DUP2 SWAP1 POP SWAP3 SWAP2 POP POP JUMP JUMPDEST PUSH1 0x0 PUSH2 0x4A95 DUP3 PUSH2 0x47BD JUMP JUMPDEST PUSH2 0x4A9F DUP2 DUP6 PUSH2 0x4A7F JUMP JUMPDEST SWAP4 POP PUSH2 0x4AAF DUP2 DUP6 PUSH1 0x20 DUP7 ADD PUSH2 0x47D9 JUMP JUMPDEST DUP1 DUP5 ADD SWAP2 POP POP SWAP3 SWAP2 POP POP JUMP JUMPDEST PUSH1 0x0 PUSH2 0x4AC7 DUP3 DUP5 PUSH2 0x4A8A JUMP JUMPDEST SWAP2 POP DUP2 SWAP1 POP SWAP3 SWAP2 POP POP JUMP JUMPDEST PUSH1 0x0 DUP2 SWAP1 POP SWAP2 SWAP1 POP JUMP JUMPDEST PUSH2 0x4AE5 DUP2 PUSH2 0x4AD2 JUMP JUMPDEST DUP3 MSTORE POP POP JUMP JUMPDEST PUSH1 0x0 PUSH1 0x60 DUP3 ADD SWAP1 POP PUSH2 0x4B00 PUSH1 0x0 DUP4 ADD DUP7 PUSH2 0x4ADC JUMP JUMPDEST PUSH2 0x4B0D PUSH1 0x20 DUP4 ADD DUP6 PUSH2 0x47AE JUMP JUMPDEST PUSH2 0x4B1A PUSH1 0x40 DUP4 ADD DUP5 PUSH2 0x47AE JUMP JUMPDEST SWAP5 SWAP4 POP POP POP POP JUMP JUMPDEST PUSH1 0x0 PUSH3 0xFFFFFF DUP3 AND SWAP1 POP SWAP2 SWAP1 POP JUMP JUMPDEST PUSH2 0x4B3A DUP2 PUSH2 0x4B22 JUMP JUMPDEST DUP3 MSTORE POP POP JUMP JUMPDEST PUSH1 0x0 PUSH1 0x60 DUP3 ADD SWAP1 POP PUSH2 0x4B55 PUSH1 0x0 DUP4 ADD DUP7 PUSH2 0x45EA JUMP JUMPDEST PUSH2 0x4B62 PUSH1 0x20 DUP4 ADD DUP6 PUSH2 0x45EA JUMP JUMPDEST PUSH2 0x4B6F PUSH1 0x40 DUP4 ADD DUP5 PUSH2 0x4B31 JUMP JUMPDEST SWAP5 SWAP4 POP POP POP POP JUMP JUMPDEST PUSH1 0x0 DUP2 SWAP1 POP SWAP3 SWAP2 POP POP JUMP JUMPDEST PUSH32 0xFF00000000000000000000000000000000000000000000000000000000000000 PUSH1 0x0 DUP3 ADD MSTORE POP JUMP JUMPDEST PUSH1 0x0 PUSH2 0x4BB8 PUSH1 0x1 DUP4 PUSH2 0x4B77 JUMP JUMPDEST SWAP2 POP PUSH2 0x4BC3 DUP3 PUSH2 0x4B82 JUMP JUMPDEST PUSH1 0x1 DUP3 ADD SWAP1 POP SWAP2 SWAP1 POP JUMP JUMPDEST PUSH1 0x0 DUP2 PUSH1 0x60 SHL SWAP1 POP SWAP2 SWAP1 POP JUMP JUMPDEST PUSH1 0x0 PUSH2 0x4BE6 DUP3 PUSH2 0x4BCE JUMP JUMPDEST SWAP1 POP SWAP2 SWAP1 POP JUMP JUMPDEST PUSH1 0x0 PUSH2 0x4BF8 DUP3 PUSH2 0x4BDB JUMP JUMPDEST SWAP1 POP SWAP2 SWAP1 POP JUMP JUMPDEST PUSH2 0x4C10 PUSH2 0x4C0B DUP3 PUSH2 0x3FB2 JUMP JUMPDEST PUSH2 0x4BED JUMP JUMPDEST DUP3 MSTORE POP POP JUMP JUMPDEST PUSH1 0x0 DUP2 SWAP1 POP SWAP2 SWAP1 POP JUMP JUMPDEST PUSH2 0x4C31 PUSH2 0x4C2C DUP3 PUSH2 0x4AD2 JUMP JUMPDEST PUSH2 0x4C16 JUMP JUMPDEST DUP3 MSTORE POP POP JUMP JUMPDEST PUSH1 0x0 PUSH2 0x4C42 DUP3 PUSH2 0x4BAB JUMP JUMPDEST SWAP2 POP PUSH2 0x4C4E DUP3 DUP7 PUSH2 0x4BFF JUMP JUMPDEST PUSH1 0x14 DUP3 ADD SWAP2 POP PUSH2 0x4C5E DUP3 DUP6 PUSH2 0x4C20 JUMP JUMPDEST PUSH1 0x20 DUP3 ADD SWAP2 POP PUSH2 0x4C6E DUP3 DUP5 PUSH2 0x4C20 JUMP JUMPDEST PUSH1 0x20 DUP3 ADD SWAP2 POP DUP2 SWAP1 POP SWAP5 SWAP4 POP POP POP POP JUMP JUMPDEST PUSH32 0x5452414E534645525F46524F4D5F4641494C4544000000000000000000000000 PUSH1 0x0 DUP3 ADD MSTORE POP JUMP JUMPDEST PUSH1 0x0 PUSH2 0x4CB5 PUSH1 0x14 DUP4 PUSH2 0x4906 JUMP JUMPDEST SWAP2 POP PUSH2 0x4CC0 DUP3 PUSH2 0x4C7F JUMP JUMPDEST PUSH1 0x20 DUP3 ADD SWAP1 POP SWAP2 SWAP1 POP JUMP JUMPDEST PUSH1 0x0 PUSH1 0x20 DUP3 ADD SWAP1 POP DUP2 DUP2 SUB PUSH1 0x0 DUP4 ADD MSTORE PUSH2 0x4CE4 DUP2 PUSH2 0x4CA8 JUMP JUMPDEST SWAP1 POP SWAP2 SWAP1 POP JUMP JUMPDEST POP JUMP JUMPDEST PUSH1 0x0 PUSH2 0x4CFB PUSH1 0x0 DUP4 PUSH2 0x47C8 JUMP JUMPDEST SWAP2 POP PUSH2 0x4D06 DUP3 PUSH2 0x4CEB JUMP JUMPDEST PUSH1 0x0 DUP3 ADD SWAP1 POP SWAP2 SWAP1 POP JUMP JUMPDEST PUSH1 0x0 PUSH1 0x80 DUP3 ADD SWAP1 POP PUSH2 0x4D26 PUSH1 0x0 DUP4 ADD DUP7 PUSH2 0x47AE JUMP JUMPDEST PUSH2 0x4D33 PUSH1 0x20 DUP4 ADD DUP6 PUSH2 0x47AE JUMP JUMPDEST PUSH2 0x4D40 PUSH1 0x40 DUP4 ADD DUP5 PUSH2 0x45EA JUMP JUMPDEST DUP2 DUP2 SUB PUSH1 0x60 DUP4 ADD MSTORE PUSH2 0x4D51 DUP2 PUSH2 0x4CEE JUMP JUMPDEST SWAP1 POP SWAP5 SWAP4 POP POP POP POP JUMP JUMPDEST PUSH1 0x0 PUSH1 0xFF DUP3 AND SWAP1 POP SWAP2 SWAP1 POP JUMP JUMPDEST PUSH2 0x4D71 DUP2 PUSH2 0x4D5B JUMP JUMPDEST DUP3 MSTORE POP POP JUMP JUMPDEST PUSH1 0x0 PUSH1 0x60 DUP3 ADD SWAP1 POP PUSH2 0x4D8C PUSH1 0x0 DUP4 ADD DUP7 PUSH2 0x4D68 JUMP JUMPDEST PUSH2 0x4D99 PUSH1 0x20 DUP4 ADD DUP6 PUSH2 0x4D68 JUMP JUMPDEST PUSH2 0x4DA6 PUSH1 0x40 DUP4 ADD DUP5 PUSH2 0x47AE JUMP JUMPDEST SWAP5 SWAP4 POP POP POP POP JUMP JUMPDEST PUSH1 0x0 PUSH2 0x4DC9 PUSH2 0x4DC4 PUSH2 0x4DBF DUP5 PUSH2 0x4883 JUMP JUMPDEST PUSH2 0x488D JUMP JUMPDEST PUSH2 0x4D5B JUMP JUMPDEST SWAP1 POP SWAP2 SWAP1 POP JUMP JUMPDEST PUSH2 0x4DD9 DUP2 PUSH2 0x4DAE JUMP JUMPDEST DUP3 MSTORE POP POP JUMP JUMPDEST PUSH1 0x0 PUSH1 0x20 DUP3 ADD SWAP1 POP PUSH2 0x4DF4 PUSH1 0x0 DUP4 ADD DUP5 PUSH2 0x4DD0 JUMP JUMPDEST SWAP3 SWAP2 POP POP JUMP JUMPDEST PUSH1 0x0 DUP2 ISZERO ISZERO SWAP1 POP SWAP2 SWAP1 POP JUMP JUMPDEST PUSH2 0x4E0F DUP2 PUSH2 0x4DFA JUMP JUMPDEST DUP3 MSTORE POP POP JUMP JUMPDEST PUSH1 0x0 PUSH1 0x20 DUP3 ADD SWAP1 POP PUSH2 0x4E2A PUSH1 0x0 DUP4 ADD DUP5 PUSH2 0x4E06 JUMP JUMPDEST SWAP3 SWAP2 POP POP JUMP JUMPDEST PUSH1 0x0 PUSH1 0x20 DUP3 ADD SWAP1 POP DUP2 DUP2 SUB PUSH1 0x0 DUP4 ADD MSTORE PUSH2 0x4E4A DUP2 DUP5 PUSH2 0x480C JUMP JUMPDEST SWAP1 POP SWAP3 SWAP2 POP POP JUMP JUMPDEST PUSH32 0x415050524F56455F4641494C4544000000000000000000000000000000000000 PUSH1 0x0 DUP3 ADD MSTORE POP JUMP JUMPDEST PUSH1 0x0 PUSH2 0x4E88 PUSH1 0xE DUP4 PUSH2 0x4906 JUMP JUMPDEST SWAP2 POP PUSH2 0x4E93 DUP3 PUSH2 0x4E52 JUMP JUMPDEST PUSH1 0x20 DUP3 ADD SWAP1 POP SWAP2 SWAP1 POP JUMP JUMPDEST PUSH1 0x0 PUSH1 0x20 DUP3 ADD SWAP1 POP DUP2 DUP2 SUB PUSH1 0x0 DUP4 ADD MSTORE PUSH2 0x4EB7 DUP2 PUSH2 0x4E7B JUMP JUMPDEST SWAP1 POP SWAP2 SWAP1 POP JUMP JUMPDEST PUSH1 0x0 PUSH14 0xFFFFFFFFFFFFFFFFFFFFFFFFFFFF DUP3 AND SWAP1 POP SWAP2 SWAP1 POP JUMP JUMPDEST PUSH2 0x4EE1 DUP2 PUSH2 0x4EBE JUMP JUMPDEST DUP2 EQ PUSH2 0x4EEC JUMPI PUSH1 0x0 DUP1 REVERT JUMPDEST POP JUMP JUMPDEST PUSH1 0x0 DUP2 MLOAD SWAP1 POP PUSH2 0x4EFE DUP2 PUSH2 0x4ED8 JUMP JUMPDEST SWAP3 SWAP2 POP POP JUMP JUMPDEST PUSH1 0x0 PUSH4 0xFFFFFFFF DUP3 AND SWAP1 POP SWAP2 SWAP1 POP JUMP JUMPDEST PUSH2 0x4F1D DUP2 PUSH2 0x4F04 JUMP JUMPDEST DUP2 EQ PUSH2 0x4F28 JUMPI PUSH1 0x0 DUP1 REVERT JUMPDEST POP JUMP JUMPDEST PUSH1 0x0 DUP2 MLOAD SWAP1 POP PUSH2 0x4F3A DUP2 PUSH2 0x4F14 JUMP JUMPDEST SWAP3 SWAP2 POP POP JUMP JUMPDEST PUSH1 0x0 DUP1 PUSH1 0x0 PUSH1 0x60 DUP5 DUP7 SUB SLT ISZERO PUSH2 0x4F59 JUMPI PUSH2 0x4F58 PUSH2 0x3F23 JUMP JUMPDEST JUMPDEST PUSH1 0x0 PUSH2 0x4F67 DUP7 DUP3 DUP8 ADD PUSH2 0x4EEF JUMP JUMPDEST SWAP4 POP POP PUSH1 0x20 PUSH2 0x4F78 DUP7 DUP3 DUP8 ADD PUSH2 0x4EEF JUMP JUMPDEST SWAP3 POP POP PUSH1 0x40 PUSH2 0x4F89 DUP7 DUP3 DUP8 ADD PUSH2 0x4F2B JUMP JUMPDEST SWAP2 POP POP SWAP3 POP SWAP3 POP SWAP3 JUMP JUMPDEST PUSH1 0x0 DUP2 MLOAD SWAP1 POP SWAP2 SWAP1 POP JUMP JUMPDEST PUSH1 0x0 PUSH2 0x4FA9 DUP3 PUSH2 0x4F93 JUMP JUMPDEST PUSH2 0x4FB3 DUP2 DUP6 PUSH2 0x4906 JUMP JUMPDEST SWAP4 POP PUSH2 0x4FC3 DUP2 DUP6 PUSH1 0x20 DUP7 ADD PUSH2 0x47D9 JUMP JUMPDEST PUSH2 0x4FCC DUP2 PUSH2 0x4050 JUMP JUMPDEST DUP5 ADD SWAP2 POP POP SWAP3 SWAP2 POP POP JUMP JUMPDEST PUSH1 0x0 PUSH1 0x40 DUP3 ADD SWAP1 POP DUP2 DUP2 SUB PUSH1 0x0 DUP4 ADD MSTORE PUSH2 0x4FF1 DUP2 DUP6 PUSH2 0x4F9E JUMP JUMPDEST SWAP1 POP PUSH2 0x5000 PUSH1 0x20 DUP4 ADD DUP5 PUSH2 0x45EA JUMP JUMPDEST SWAP4 SWAP3 POP POP POP JUMP JUMPDEST PUSH32 0x4554485F5452414E534645525F4641494C454400000000000000000000000000 PUSH1 0x0 DUP3 ADD MSTORE POP JUMP JUMPDEST PUSH1 0x0 PUSH2 0x503D PUSH1 0x13 DUP4 PUSH2 0x4906 JUMP JUMPDEST SWAP2 POP PUSH2 0x5048 DUP3 PUSH2 0x5007 JUMP JUMPDEST PUSH1 0x20 DUP3 ADD SWAP1 POP SWAP2 SWAP1 POP JUMP JUMPDEST PUSH1 0x0 PUSH1 0x20 DUP3 ADD SWAP1 POP DUP2 DUP2 SUB PUSH1 0x0 DUP4 ADD MSTORE PUSH2 0x506C DUP2 PUSH2 0x5030 JUMP JUMPDEST SWAP1 POP SWAP2 SWAP1 POP JUMP JUMPDEST PUSH2 0x507C DUP2 PUSH2 0x4450 JUMP JUMPDEST DUP3 MSTORE POP POP JUMP JUMPDEST PUSH2 0x508B DUP2 PUSH2 0x3F92 JUMP JUMPDEST DUP3 MSTORE POP POP JUMP JUMPDEST PUSH1 0x0 PUSH1 0xA0 DUP3 ADD SWAP1 POP PUSH2 0x50A6 PUSH1 0x0 DUP4 ADD DUP9 PUSH2 0x45EA JUMP JUMPDEST PUSH2 0x50B3 PUSH1 0x20 DUP4 ADD DUP8 PUSH2 0x4E06 JUMP JUMPDEST PUSH2 0x50C0 PUSH1 0x40 DUP4 ADD DUP7 PUSH2 0x5073 JUMP JUMPDEST PUSH2 0x50CD PUSH1 0x60 DUP4 ADD DUP6 PUSH2 0x5082 JUMP JUMPDEST DUP2 DUP2 SUB PUSH1 0x80 DUP4 ADD MSTORE PUSH2 0x50DF DUP2 DUP5 PUSH2 0x480C JUMP JUMPDEST SWAP1 POP SWAP7 SWAP6 POP POP POP POP POP POP JUMP JUMPDEST PUSH1 0x0 DUP1 PUSH1 0x40 DUP4 DUP6 SUB SLT ISZERO PUSH2 0x5102 JUMPI PUSH2 0x5101 PUSH2 0x3F23 JUMP JUMPDEST JUMPDEST PUSH1 0x0 PUSH2 0x5110 DUP6 DUP3 DUP7 ADD PUSH2 0x4983 JUMP JUMPDEST SWAP3 POP POP PUSH1 0x20 PUSH2 0x5121 DUP6 DUP3 DUP7 ADD PUSH2 0x4983 JUMP JUMPDEST SWAP2 POP POP SWAP3 POP SWAP3 SWAP1 POP JUMP JUMPDEST PUSH32 0x56323A4455505F41444452455353000000000000000000000000000000000000 PUSH1 0x0 DUP3 ADD MSTORE POP JUMP JUMPDEST PUSH1 0x0 PUSH2 0x5161 PUSH1 0xE DUP4 PUSH2 0x4906 JUMP JUMPDEST SWAP2 POP PUSH2 0x516C DUP3 PUSH2 0x512B JUMP JUMPDEST PUSH1 0x20 DUP3 ADD SWAP1 POP SWAP2 SWAP1 POP JUMP JUMPDEST PUSH1 0x0 PUSH1 0x20 DUP3 ADD SWAP1 POP DUP2 DUP2 SUB PUSH1 0x0 DUP4 ADD MSTORE PUSH2 0x5190 DUP2 PUSH2 0x5154 JUMP JUMPDEST SWAP1 POP SWAP2 SWAP1 POP JUMP JUMPDEST PUSH32 0x56323A5A45524F5F414444524553530000000000000000000000000000000000 PUSH1 0x0 DUP3 ADD MSTORE POP JUMP JUMPDEST PUSH1 0x0 PUSH2 0x51CD PUSH1 0xF DUP4 PUSH2 0x4906 JUMP JUMPDEST SWAP2 POP PUSH2 0x51D8 DUP3 PUSH2 0x5197 JUMP JUMPDEST PUSH1 0x20 DUP3 ADD SWAP1 POP SWAP2 SWAP1 POP JUMP JUMPDEST PUSH1 0x0 PUSH1 0x20 DUP3 ADD SWAP1 POP DUP2 DUP2 SUB PUSH1 0x0 DUP4 ADD MSTORE PUSH2 0x51FC DUP2 PUSH2 0x51C0 JUMP JUMPDEST SWAP1 POP SWAP2 SWAP1 POP JUMP JUMPDEST PUSH1 0x0 PUSH2 0x520F DUP3 DUP6 PUSH2 0x4BFF JUMP JUMPDEST PUSH1 0x14 DUP3 ADD SWAP2 POP PUSH2 0x521F DUP3 DUP5 PUSH2 0x4BFF JUMP JUMPDEST PUSH1 0x14 DUP3 ADD SWAP2 POP DUP2 SWAP1 POP SWAP4 SWAP3 POP POP POP JUMP JUMPDEST PUSH32 0x96E8AC4277198FF8B6F785478AA9A39F403CB768DD02CBEE326C3E7DA348845F PUSH1 0x0 DUP3 ADD MSTORE POP JUMP JUMPDEST PUSH1 0x0 PUSH2 0x5265 PUSH1 0x20 DUP4 PUSH2 0x4B77 JUMP JUMPDEST SWAP2 POP PUSH2 0x5270 DUP3 PUSH2 0x522F JUMP JUMPDEST PUSH1 0x20 DUP3 ADD SWAP1 POP SWAP2 SWAP1 POP JUMP JUMPDEST PUSH1 0x0 PUSH2 0x5286 DUP3 PUSH2 0x4BAB JUMP JUMPDEST SWAP2 POP PUSH2 0x5292 DUP3 DUP6 PUSH2 0x4BFF JUMP JUMPDEST PUSH1 0x14 DUP3 ADD SWAP2 POP PUSH2 0x52A2 DUP3 DUP5 PUSH2 0x4C20 JUMP JUMPDEST PUSH1 0x20 DUP3 ADD SWAP2 POP PUSH2 0x52B1 DUP3 PUSH2 0x5258 JUMP JUMPDEST SWAP2 POP DUP2 SWAP1 POP SWAP4 SWAP3 POP POP POP JUMP INVALID LOG2 PUSH5 0x6970667358 0x22 SLT KECCAK256 RETURNDATACOPY 0xE9 ADDMOD 0xAF SELFBALANCE SWAP11 0xEA EXTCODECOPY 0xF8 PUSH26 0xE4C1426FAFFF693E71E13884296AE79C45301CF601EC64736F6C PUSH4 0x43000809 STOP CALLER "},"methodIdentifiers":{"multiExecute(bytes[],bytes[])":"5fda5f7f","routeExecute(bytes[],bytes[],uint256)":"36c9a1d2","singleExecute(bytes,bytes)":"cf06783c","uniswapV3SwapCallback(int256,int256,bytes)":"fa461e33","withdrawERC20(address[],address)":"340ed32a","withdrawETH(address)":"690d8320"}}}}}