{"contracts/UniversalRouter.sol":{"UniversalRouter":{"abi":[{"inputs":[{"components":[{"internalType":"address","name":"weth","type":"address"},{"internalType":"address","name":"balancerRouter","type":"address"},{"internalType":"address","name":"bancorRouter","type":"address"},{"internalType":"address","name":"uniswapV2Factory","type":"address"},{"internalType":"address","name":"uniswapV3Factory","type":"address"},{"internalType":"address","name":"sushiswapRouter","type":"address"},{"internalType":"address","name":"pancakeswapRouter","type":"address"},{"internalType":"address","name":"shibaswapRouter","type":"address"},{"internalType":"address","name":"hyphenBridge","type":"address"},{"internalType":"address","name":"celerBridge","type":"address"},{"internalType":"address","name":"hopEthBridge","type":"address"},{"internalType":"address","name":"hopUsdcBridge","type":"address"},{"internalType":"address","name":"hopUsdtBridge","type":"address"},{"internalType":"address","name":"hopDaiBridge","type":"address"},{"internalType":"address","name":"hopWbtcBridge","type":"address"},{"internalType":"address","name":"hopMaticBridge","type":"address"},{"internalType":"address","name":"acrossBridge","type":"address"},{"internalType":"address","name":"multichainEthBridge","type":"address"},{"internalType":"address","name":"multichainErc20Bridge","type":"address"},{"internalType":"address","name":"synapseBridge","type":"address"},{"internalType":"address","name":"allBridge","type":"address"},{"internalType":"address","name":"portalBridge","type":"address"},{"internalType":"address","name":"optimismBridge","type":"address"},{"internalType":"address","name":"polygonPosBridge","type":"address"},{"internalType":"address","name":"polygonApproveAddr","type":"address"},{"internalType":"address","name":"omniBridge","type":"address"}],"internalType":"struct RouterParameters","name":"params","type":"tuple"}],"stateMutability":"nonpayable","type":"constructor"},{"inputs":[],"name":"BadPool","type":"error"},{"inputs":[],"name":"BadSwapType","type":"error"},{"inputs":[],"name":"DeadlinePassed","type":"error"},{"inputs":[{"internalType":"bytes1","name":"command","type":"bytes1"},{"internalType":"uint256","name":"commandNum","type":"uint256"},{"internalType":"bytes","name":"output","type":"bytes"}],"name":"FailedCommand","type":"error"},{"inputs":[],"name":"FailedSwap","type":"error"},{"inputs":[],"name":"IncorrectETHValue","type":"error"},{"inputs":[],"name":"IncorrectFromToken","type":"error"},{"inputs":[],"name":"InsufficientEth","type":"error"},{"inputs":[],"name":"InsufficientLiquidity","type":"error"},{"inputs":[],"name":"InsufficientOutput","type":"error"},{"inputs":[],"name":"InvalidCommand","type":"error"},{"inputs":[],"name":"InvalidInputLength","type":"error"},{"inputs":[],"name":"InvalidToken","type":"error"},{"inputs":[],"name":"InvalidTokenAmount","type":"error"},{"inputs":[],"name":"NothingReceived","type":"error"},{"inputs":[{"internalType":"bytes","name":"message","type":"bytes"}],"name":"ThrowingError","type":"error"},{"inputs":[],"name":"Unauthorized","type":"error"},{"inputs":[{"internalType":"bytes[]","name":"commands","type":"bytes[]"},{"internalType":"bytes[]","name":"inputs","type":"bytes[]"}],"name":"multiExecute","outputs":[],"stateMutability":"payable","type":"function"},{"inputs":[{"internalType":"bytes[]","name":"commands","type":"bytes[]"},{"internalType":"bytes[]","name":"inputs","type":"bytes[]"},{"internalType":"uint256","name":"deadline","type":"uint256"}],"name":"routeExecute","outputs":[],"stateMutability":"payable","type":"function"},{"inputs":[{"internalType":"bytes","name":"commands","type":"bytes"},{"internalType":"bytes","name":"input","type":"bytes"}],"name":"singleExecute","outputs":[],"stateMutability":"payable","type":"function"},{"inputs":[{"internalType":"int256","name":"amount0Delta","type":"int256"},{"internalType":"int256","name":"amount1Delta","type":"int256"},{"internalType":"bytes","name":"_data","type":"bytes"}],"name":"uniswapV3SwapCallback","outputs":[],"stateMutability":"nonpayable","type":"function"},{"inputs":[{"internalType":"contract ERC20[]","name":"_tokens","type":"address[]"},{"internalType":"address","name":"_receiver","type":"address"}],"name":"withdrawERC20","outputs":[],"stateMutability":"nonpayable","type":"function"},{"inputs":[{"internalType":"address","name":"_receiver","type":"address"}],"name":"withdrawETH","outputs":[],"stateMutability":"nonpayable","type":"function"},{"stateMutability":"payable","type":"receive"}],"evm":{"bytecode":{"linkReferences":{},"object":"6103c06040523480156200001257600080fd5b5060405162005dcc38038062005dcc8339818101604052810190620000389190620009b6565b80806000015173ffffffffffffffffffffffffffffffffffffffff1660808173ffffffffffffffffffffffffffffffffffffffff1681525050806020015173ffffffffffffffffffffffffffffffffffffffff1660a08173ffffffffffffffffffffffffffffffffffffffff1681525050806040015173ffffffffffffffffffffffffffffffffffffffff1660c08173ffffffffffffffffffffffffffffffffffffffff1681525050806060015173ffffffffffffffffffffffffffffffffffffffff1660e08173ffffffffffffffffffffffffffffffffffffffff1681525050806080015173ffffffffffffffffffffffffffffffffffffffff166101008173ffffffffffffffffffffffffffffffffffffffff16815250508060a0015173ffffffffffffffffffffffffffffffffffffffff166101208173ffffffffffffffffffffffffffffffffffffffff16815250508060c0015173ffffffffffffffffffffffffffffffffffffffff166101408173ffffffffffffffffffffffffffffffffffffffff16815250508060e0015173ffffffffffffffffffffffffffffffffffffffff166101608173ffffffffffffffffffffffffffffffffffffffff168152505080610100015173ffffffffffffffffffffffffffffffffffffffff166101808173ffffffffffffffffffffffffffffffffffffffff168152505080610120015173ffffffffffffffffffffffffffffffffffffffff166101a08173ffffffffffffffffffffffffffffffffffffffff168152505080610140015173ffffffffffffffffffffffffffffffffffffffff166101c08173ffffffffffffffffffffffffffffffffffffffff168152505080610160015173ffffffffffffffffffffffffffffffffffffffff166101e08173ffffffffffffffffffffffffffffffffffffffff168152505080610180015173ffffffffffffffffffffffffffffffffffffffff166102008173ffffffffffffffffffffffffffffffffffffffff1681525050806101a0015173ffffffffffffffffffffffffffffffffffffffff166102208173ffffffffffffffffffffffffffffffffffffffff1681525050806101c0015173ffffffffffffffffffffffffffffffffffffffff166102408173ffffffffffffffffffffffffffffffffffffffff1681525050806101e0015173ffffffffffffffffffffffffffffffffffffffff166102608173ffffffffffffffffffffffffffffffffffffffff168152505080610200015173ffffffffffffffffffffffffffffffffffffffff166102808173ffffffffffffffffffffffffffffffffffffffff168152505080610220015173ffffffffffffffffffffffffffffffffffffffff166102a08173ffffffffffffffffffffffffffffffffffffffff168152505080610240015173ffffffffffffffffffffffffffffffffffffffff166102c08173ffffffffffffffffffffffffffffffffffffffff168152505080610260015173ffffffffffffffffffffffffffffffffffffffff166102e08173ffffffffffffffffffffffffffffffffffffffff168152505080610280015173ffffffffffffffffffffffffffffffffffffffff166103008173ffffffffffffffffffffffffffffffffffffffff1681525050806102a0015173ffffffffffffffffffffffffffffffffffffffff166103208173ffffffffffffffffffffffffffffffffffffffff1681525050806102c0015173ffffffffffffffffffffffffffffffffffffffff166103408173ffffffffffffffffffffffffffffffffffffffff1681525050806102e0015173ffffffffffffffffffffffffffffffffffffffff166103608173ffffffffffffffffffffffffffffffffffffffff168152505080610300015173ffffffffffffffffffffffffffffffffffffffff166103808173ffffffffffffffffffffffffffffffffffffffff168152505080610320015173ffffffffffffffffffffffffffffffffffffffff166103a08173ffffffffffffffffffffffffffffffffffffffff16815250505050620009e9565b6000604051905090565b600080fd5b600080fd5b6000601f19601f8301169050919050565b7f4e487b7100000000000000000000000000000000000000000000000000000000600052604160045260246000fd5b62000678826200062d565b810181811067ffffffffffffffff821117156200069a57620006996200063e565b5b80604052505050565b6000620006af62000619565b9050620006bd82826200066d565b919050565b600073ffffffffffffffffffffffffffffffffffffffff82169050919050565b6000620006ef82620006c2565b9050919050565b6200070181620006e2565b81146200070d57600080fd5b50565b6000815190506200072181620006f6565b92915050565b6000610340828403121562000741576200074062000628565b5b6200074e610340620006a3565b90506000620007608482850162000710565b6000830152506020620007768482850162000710565b60208301525060406200078c8482850162000710565b6040830152506060620007a28482850162000710565b6060830152506080620007b88482850162000710565b60808301525060a0620007ce8482850162000710565b60a08301525060c0620007e48482850162000710565b60c08301525060e0620007fa8482850162000710565b60e083015250610100620008118482850162000710565b61010083015250610120620008298482850162000710565b61012083015250610140620008418482850162000710565b61014083015250610160620008598482850162000710565b61016083015250610180620008718482850162000710565b610180830152506101a0620008898482850162000710565b6101a0830152506101c0620008a18482850162000710565b6101c0830152506101e0620008b98482850162000710565b6101e083015250610200620008d18482850162000710565b61020083015250610220620008e98482850162000710565b61022083015250610240620009018482850162000710565b61024083015250610260620009198482850162000710565b61026083015250610280620009318482850162000710565b610280830152506102a0620009498482850162000710565b6102a0830152506102c0620009618482850162000710565b6102c0830152506102e0620009798482850162000710565b6102e083015250610300620009918482850162000710565b61030083015250610320620009a98482850162000710565b6103208301525092915050565b60006103408284031215620009d057620009cf62000623565b5b6000620009e08482850162000727565b91505092915050565b60805160a05160c05160e05161010051610120516101405161016051610180516101a0516101c0516101e05161020051610220516102405161026051610280516102a0516102c0516102e05161030051610320516103405161036051610380516103a05161525c62000b706000396000611c8001526000611bad01526000611bde01526000611b570152600081816119d10152611a5701526000611b0f015260006117ad0152600081816118070152611837015260006118d8015260006117270152600061157a015260006115fe015260006115a0015260006115c7015260006116240152600061164b0152600061176a0152600061197b015260006112d9015260006112ff0152600061132601526000611d3701526000613e7c015260006114ec0152600081816113ca015261144a0152600081816109df0152818161263e01528181612719015281816127b00152818161290101528181612acb01528181612bac01528181612c3d0152818161363d015281816139e90152613b51015261525c6000f3fe6080604052600436106100595760003560e01c8063340ed32a1461006557806336c9a1d21461008e5780635fda5f7f146100aa578063690d8320146100c6578063cf06783c146100ef578063fa461e331461010b57610060565b3661006057005b600080fd5b34801561007157600080fd5b5061008c60048036038101906100879190613fcd565b610134565b005b6100a860048036038101906100a39190614285565b6102af565b005b6100c460048036038101906100bf9190614310565b610349565b005b3480156100d257600080fd5b506100ed60048036038101906100e89190614388565b61073e565b005b610109600480360381019061010491906143b5565b610801565b005b34801561011757600080fd5b50610132600480360381019061012d91906144b9565b610933565b005b73e9290c80b28db1b3d9853ab1ee60c6630b87f57e73ffffffffffffffffffffffffffffffffffffffff163373ffffffffffffffffffffffffffffffffffffffff16146101ad576040517f82b4290000000000000000000000000000000000000000000000000000000000815260040160405180910390fd5b60005b838390508110156102a95761029c8484838181106101d1576101d061452d565b5b90506020020160208101906101e6919061459a565b838686858181106101fa576101f961452d565b5b905060200201602081019061020f919061459a565b73ffffffffffffffffffffffffffffffffffffffff166370a08231306040518263ffffffff1660e01b815260040161024791906145d6565b60206040518083038186803b15801561025f57600080fd5b505afa158015610273573d6000803e3d6000fd5b505050506040513d601f19601f820116820180604052508101906102979190614606565b610a93565b80806001019150506101b0565b50505050565b80804211156102ea576040517f70f65caa00000000000000000000000000000000000000000000000000000000815260040160405180910390fd5b6001845111610338576103338460008151811061030a5761030961452d565b5b6020026020010151846000815181106103265761032561452d565b5b6020026020010151610801565b610343565b6103428484610349565b5b50505050565b60006060600080600080344761035f9190614662565b905060005b87518110156106f95760008982815181106103825761038161452d565b5b602002602001015160008151811061039d5761039c61452d565b5b602001015160f81c60f81b905060008983815181106103bf576103be61452d565b5b602002602001015190506000601f60f81b831690506000841180156103e957506103e883610b2b565b5b156105fd57600460f81b817effffffffffffffffffffffffffffffffffffffffffffffffffffffffffffff19161415610446576104418c85815181106104325761043161452d565b5b60200260200101516001610b62565b610486565b8b84815181106104595761045861452d565b5b60200260200101516001815181106104745761047361452d565b5b602001015160f81c60f81b60f81c60ff165b61ffff169650600460f81b817effffffffffffffffffffffffffffffffffffffffffffffffffffffffffffff191614156104e4576104df8c85815181106104d0576104cf61452d565b5b60200260200101516003610b62565b610524565b8b84815181106104f7576104f661452d565b5b60200260200101516002815181106105125761051161452d565b5b602001015160f81c60f81b60f81c60ff165b61ffff169750610581601f60f81b8d6001876105409190614662565b815181106105515761055061452d565b5b602002602001015160008151811061056c5761056b61452d565b5b602001015160f81c60f81b16848a858d610b73565b9150600560f81b817effffffffffffffffffffffffffffffffffffffffffffffffffffffffffffff19161180156105e45750600060f81b602060f81b84167effffffffffffffffffffffffffffffffffffffffffffffffffffffffffffff191614155b156105f85784476105f59190614662565b95505b610648565b61063b8c85815181106106135761061261452d565b5b60200260200101518c868151811061062e5761062d61452d565b5b6020026020010151610f03565b809450819950829a505050505b61068e83888a856000891461065d578a610689565b600034146106855761271061270e346106769190614696565b610680919061471f565b610688565b60005b5b611214565b809a50819b505050896106dc5782848a6040517fac70f6b30000000000000000000000000000000000000000000000000000000081526004016106d393929190614822565b60405180910390fd5b600086146106e957600095505b8380600101945050505050610364565b5080471015610734576040517fa01a9df600000000000000000000000000000000000000000000000000000000815260040160405180910390fd5b5050505050505050565b73e9290c80b28db1b3d9853ab1ee60c6630b87f57e73ffffffffffffffffffffffffffffffffffffffff163373ffffffffffffffffffffffffffffffffffffffff16146107b7576040517f82b4290000000000000000000000000000000000000000000000000000000000815260040160405180910390fd5b8073ffffffffffffffffffffffffffffffffffffffff166108fc479081150290604051600060405180830381858888f193505050501580156107fd573d6000803e3d6000fd5b5050565b60006060600080600034476108169190614662565b90506108228787610f03565b809850819450829550505050610883876000815181106108455761084461452d565b5b602001015160f81c60f81b8385896000341461087b5761271061270e3461086c9190614696565b610876919061471f565b61087e565b60005b611214565b8095508196505050846108f057866000815181106108a4576108a361452d565b5b602001015160f81c60f81b6000856040517fac70f6b30000000000000000000000000000000000000000000000000000000081526004016108e7939291906148a5565b60405180910390fd5b8047101561092a576040517fa01a9df600000000000000000000000000000000000000000000000000000000815260040160405180910390fd5b50505050505050565b60008413806109425750600083135b61094b57600080fd5b600080600061099d85858080601f016020809104026020016040519081016040528093929190818152602001838380828437600081840152601f19601f82011690508083019250505050505050611cc1565b925092509250600073ffffffffffffffffffffffffffffffffffffffff168373ffffffffffffffffffffffffffffffffffffffff16146109dd57826109ff565b7f00000000000000000000000000000000000000000000000000000000000000005b9250610a0c838383611cf4565b73ffffffffffffffffffffffffffffffffffffffff163373ffffffffffffffffffffffffffffffffffffffff1614610a70576040517fb2c0272200000000000000000000000000000000000000000000000000000000815260040160405180910390fd5b610a8a833360008a13610a835788610a85565b895b610a93565b50505050505050565b60006040517fa9059cbb000000000000000000000000000000000000000000000000000000008152836004820152826024820152602060006044836000895af13d15601f3d1160016000511416171691505080610b25576040517f08c379a0000000000000000000000000000000000000000000000000000000008152600401610b1c90614940565b60405180910390fd5b50505050565b60008060f81b604060f81b83167effffffffffffffffffffffffffffffffffffffffffffffffffffffffffffff1916149050919050565b600081600284010151905092915050565b6060600a60f81b601f60f81b86167effffffffffffffffffffffffffffffffffffffffffffffffffffffffffffff1916118015610bdc5750600060f81b602060f81b86167effffffffffffffffffffffffffffffffffffffffffffffffffffffffffffff191614155b15610be957829050610efa565b6000600460f81b877effffffffffffffffffffffffffffffffffffffffffffffffffffffffffffff1916148015610c21575060208351115b15610c7557610c338360406020611dd9565b806020019051810190610c469190614975565b610c4f906149a2565b604051602001610c5f91906149eb565b6040516020818303038152906040529250610d88565b600060f81b877effffffffffffffffffffffffffffffffffffffffffffffffffffffffffffff1916118015610ccf5750600560f81b877effffffffffffffffffffffffffffffffffffffffffffffffffffffffffffff1916105b15610cd957610d87565b600060f81b877effffffffffffffffffffffffffffffffffffffffffffffffffffffffffffff19161415610d1c5760208351610d159190614662565b9050610d86565b600560f81b877effffffffffffffffffffffffffffffffffffffffffffffffffffffffffffff19161415610d535760449050610d85565b6040517f12f269e500000000000000000000000000000000000000000000000000000000815260040160405180910390fd5b5b5b5b600460f81b601f60f81b87167effffffffffffffffffffffffffffffffffffffffffffffffffffffffffffff1916148015610def5750600060f81b602060f81b87167effffffffffffffffffffffffffffffffffffffffffffffffffffffffffffff191614155b15610e9c576000610e0c85604088610e079190614662565b611e32565b6020610e189190614696565b6024610e258760e4611e32565b610e2f9190614a06565b610e399190614a06565b90506000610e80610e4c86856020611dd9565b610e7b88602086610e5d9190614a06565b6020878c51610e6c9190614662565b610e769190614662565b611dd9565b611e43565b9050610e97610e9187600085611dd9565b82611e43565b955050505b610ea884600087611dd9565b9150610ef682610ef1610ebd86856020611dd9565b610eec8860208b610ece9190614a06565b60208c8c51610edd9190614662565b610ee79190614662565b611dd9565b611e43565b611e43565b9150505b95945050505050565b60008060606000601f60f81b86600081518110610f2357610f2261452d565b5b602001015160f81c60f81b1660f81c60ff16905060048114610f925785600181518110610f5357610f5261452d565b5b602001015160f81c60f81b60f81c60ff16925085600281518110610f7a57610f7961452d565b5b602001015160f81c60f81b60f81c60ff1693506110fe565b600060f81b602060f81b87600081518110610fb057610faf61452d565b5b602001015160f81c60f81b167effffffffffffffffffffffffffffffffffffffffffffffffffffffffffffff19161415610ff357610130925061016493506110fd565b601485516110019190614662565b925061100f85610144611e32565b6101a461101c9190614a06565b93506000611036866040876110319190614662565b611e32565b60206110429190614696565b602461104f8860e4611e32565b6110599190614a06565b6110639190614a06565b905060006110e161271061270e61107a8a86611e32565b6110849190614696565b61108e919061471f565b60405160200161109e91906149eb565b6040516020818303038152906040526110dc896020866110be9190614a06565b6020878d516110cd9190614662565b6110d79190614662565b611dd9565b611e43565b90506110f86110f288600085611dd9565b82611e43565b965050505b5b600a8111801561110e5750600034115b15611122578383869350935093505061120d565b600061112e8686611e32565b9050600034141561114f5761114e6111468786611ecd565b333084611ede565b5b60006111c261271061270e846111659190614696565b61116f919061471f565b60405160200161117f91906149eb565b6040516020818303038152906040526111bd8960208a61119f9190614a06565b60208b8d516111ae9190614662565b6111b89190614662565b611dd9565b611e43565b905060018314806111d35750600283145b156111e95785858295509550955050505061120d565b6111fe6111f888600089611dd9565b82611e43565b96508585889550955095505050505b9250925092565b600060606000601f60f81b881660f81c60ff169050600681101561152557600381101561137857600181141561126c5761126185611252878a611ecd565b61125c888a611e32565b611f7d565b915060019250611373565b600281141561129d5761129285611283878a611ecd565b61128d888a611e32565b612868565b915060019250611372565b60008114156113715760006112bf86600188516112ba9190614662565b612d14565b60ff1690506113676000821461132457600182146112fd577f000000000000000000000000000000000000000000000000000000000000000061131f565b7f00000000000000000000000000000000000000000000000000000000000000005b611346565b7f00000000000000000000000000000000000000000000000000000000000000005b8989886113628b600060018e5161135d9190614662565b611dd9565b612d25565b8094508195505050505b5b5b611520565b60038114156113a95761139e8561138f878a611ecd565b611399888a611e32565b612dcb565b91506001925061151f565b60048114156114de5760008414156113f9576113f86113c88689611ecd565b7f00000000000000000000000000000000000000000000000000000000000000006113f3888a611e32565b61345e565b5b600060f81b602060f81b89167effffffffffffffffffffffffffffffffffffffffffffffffffffffffffffff19161461144857611445856000601488516114409190614662565b611dd9565b94505b7f000000000000000000000000000000000000000000000000000000000000000073ffffffffffffffffffffffffffffffffffffffff16848660405161148e9190614a98565b60006040518083038185875af1925050503d80600081146114cb576040519150601f19603f3d011682016040523d82523d6000602084013e6114d0565b606091505b50809350819450505061151e565b600581141561151d576115147f000000000000000000000000000000000000000000000000000000000000000088888789612d25565b80935081945050505b5b5b5b611cb6565b600f811015611b4957600a8110156117e657600681141561171957600061155986600188516115549190614662565b612d14565b60ff1690506000600382106115ec57600382146115c5576004821461159e577f00000000000000000000000000000000000000000000000000000000000000006115c0565b7f00000000000000000000000000000000000000000000000000000000000000005b6115e7565b7f00000000000000000000000000000000000000000000000000000000000000005b61166c565b600082146116495760018214611622577f0000000000000000000000000000000000000000000000000000000000000000611644565b7f00000000000000000000000000000000000000000000000000000000000000005b61166b565b7f00000000000000000000000000000000000000000000000000000000000000005b5b9050600086141561169557611694611684888b611ecd565b8261168f8a8c611e32565b61345e565b5b8073ffffffffffffffffffffffffffffffffffffffff16866116ba89600060f8611dd9565b6040516116c79190614a98565b60006040518083038185875af1925050503d8060008114611704576040519150601f19603f3d011682016040523d82523d6000602084013e611709565b606091505b50809550819650505050506117e1565b600781141561175c5761174f7f000000000000000000000000000000000000000000000000000000000000000088888789612d25565b80935081945050506117e0565b600881141561179f576117927f000000000000000000000000000000000000000000000000000000000000000088888789612d25565b80935081945050506117df565b60098114156117de576117d57f000000000000000000000000000000000000000000000000000000000000000088888789612d25565b80935081945050505b5b5b5b611b44565b600c81141561196d5760008414156118d6576118356118058689611ecd565b7f0000000000000000000000000000000000000000000000000000000000000000611830888a611e32565b61345e565b7f000000000000000000000000000000000000000000000000000000000000000073ffffffffffffffffffffffffffffffffffffffff166118798660006090611dd9565b6040516118869190614a98565b6000604051808303816000865af19150503d80600081146118c3576040519150601f19603f3d011682016040523d82523d6000602084013e6118c8565b606091505b508093508194505050611968565b7f000000000000000000000000000000000000000000000000000000000000000073ffffffffffffffffffffffffffffffffffffffff16848660405161191c9190614a98565b60006040518083038185875af1925050503d8060008114611959576040519150601f19603f3d011682016040523d82523d6000602084013e61195e565b606091505b5080935081945050505b611b43565b600d8114156119b0576119a37f000000000000000000000000000000000000000000000000000000000000000088888789612d25565b8093508194505050611b42565b600e811415611b01576000841415611a00576119ff6119cf8689611ecd565b7f00000000000000000000000000000000000000000000000000000000000000006119fa888a611e32565b61345e565b5b6000611a0d866070611ecd565b73ffffffffffffffffffffffffffffffffffffffff1660001b611a31876084611e32565b42604051602001611a4493929190614ac8565b60405160208183030381529060405290507f000000000000000000000000000000000000000000000000000000000000000073ffffffffffffffffffffffffffffffffffffffff1685611aa3611a9d8960006064611dd9565b84611e43565b604051611ab09190614a98565b60006040518083038185875af1925050503d8060008114611aed576040519150601f19603f3d011682016040523d82523d6000602084013e611af2565b606091505b50809450819550505050611b41565b600b811415611b4057611b377f000000000000000000000000000000000000000000000000000000000000000088888789612d25565b80935081945050505b5b5b5b5b611cb5565b600f811415611b8c57611b7f7f000000000000000000000000000000000000000000000000000000000000000088888789612d25565b8093508194505050611cb4565b6010811415611c72576000841415611bdc57611bdb611bab8689611ecd565b7f0000000000000000000000000000000000000000000000000000000000000000611bd6888a611e32565b61345e565b5b7f000000000000000000000000000000000000000000000000000000000000000073ffffffffffffffffffffffffffffffffffffffff168486604051611c229190614a98565b60006040518083038185875af1925050503d8060008114611c5f576040519150601f19603f3d011682016040523d82523d6000602084013e611c64565b606091505b508093508194505050611cb3565b6011811415611cb257611ca97f00000000000000000000000000000000000000000000000000000000000000008888600089612d25565b80935081945050505b5b5b5b5b509550959350505050565b6000806000611cd1846000611ecd565b9250611cde8460146134f6565b9050611ceb846017611ecd565b91509193909250565b60008273ffffffffffffffffffffffffffffffffffffffff168473ffffffffffffffffffffffffffffffffffffffff161115611d3557828480945081955050505b7f0000000000000000000000000000000000000000000000000000000000000000848484604051602001611d6b93929190614b1d565b604051602081830303815290604052805190602001207fe34f199b19b2b4f47f68442619d555527d244f78a3297ea89325f843f87b8b5460001b604051602001611db793929190614c14565b6040516020818303038152906040528051906020012060001c90509392505050565b60606040519050601f821680156020028183010183810185831560200284890101015b81831015611e195780518352602083019250602081019050611dfc565b50848452601f19601f8301166040525050509392505050565b600081602084010151905092915050565b6060806040519050835180825260208201818101602087015b81831015611e795780518352602083019250602081019050611e5c565b50855192508351830184528091508282019050602086015b81831015611eae5780518352602083019250602081019050611e91565b50601f19601f8851850115830101166040525050508091505092915050565b600081601484010151905092915050565b60006040517f23b872dd0000000000000000000000000000000000000000000000000000000081528460048201528360248201528260448201526020600060648360008a5af13d15601f3d1160016000511416171691505080611f76576040517f08c379a0000000000000000000000000000000000000000000000000000000008152600401611f6d90614ca8565b60405180910390fd5b5050505050565b60606000611f988560028751611f939190614662565b612d14565b60ff169050600080611fb78760018951611fb29190614662565b612d14565b60ff1614611fdb57611fd68660168851611fd19190614662565b611ecd565b611fdd565b335b90506000806000611ff089898988613507565b9250925092506001851115612466576000826001815181106120155761201461452d565b5b602002602001015173ffffffffffffffffffffffffffffffffffffffff16836000815181106120475761204661452d565b5b602002602001015173ffffffffffffffffffffffffffffffffffffffff1610612071576000612074565b60015b90508360008151811061208a5761208961452d565b5b602002602001015173ffffffffffffffffffffffffffffffffffffffff1663022c0d9f826120d357836000815181106120c6576120c561452d565b5b60200260200101516120d6565b60005b836120e25760006120ff565b846000815181106120f6576120f561452d565b5b60200260200101515b876001815181106121135761211261452d565b5b60200260200101516040518463ffffffff1660e01b815260040161213993929190614cee565b600060405180830381600087803b15801561215357600080fd5b505af1158015612167573d6000803e3d6000fd5b50505050600060018761217a9190614662565b90506000600190505b8181101561231457846001826121999190614a06565b815181106121aa576121a961452d565b5b602002602001015173ffffffffffffffffffffffffffffffffffffffff168582815181106121db576121da61452d565b5b602002602001015173ffffffffffffffffffffffffffffffffffffffff1610612205576000612208565b60015b925085818151811061221d5761221c61452d565b5b602002602001015173ffffffffffffffffffffffffffffffffffffffff1663022c0d9f84612265578583815181106122585761225761452d565b5b6020026020010151612268565b60005b85612274576000612290565b8684815181106122875761228661452d565b5b60200260200101515b8960018661229e9190614a06565b815181106122af576122ae61452d565b5b60200260200101516040518463ffffffff1660e01b81526004016122d593929190614cee565b600060405180830381600087803b1580156122ef57600080fd5b505af1158015612303573d6000803e3d6000fd5b505050508080600101915050612183565b508387815181106123285761232761452d565b5b602002602001015173ffffffffffffffffffffffffffffffffffffffff168482815181106123595761235861452d565b5b602002602001015173ffffffffffffffffffffffffffffffffffffffff1610612383576000612386565b60015b915084818151811061239b5761239a61452d565b5b602002602001015173ffffffffffffffffffffffffffffffffffffffff1663022c0d9f836123e3578483815181106123d6576123d561452d565b5b60200260200101516123e6565b60005b846123f257600061240e565b8584815181106124055761240461452d565b5b60200260200101515b896040518463ffffffff1660e01b815260040161242d93929190614cee565b600060405180830381600087803b15801561244757600080fd5b505af115801561245b573d6000803e3d6000fd5b5050505050506125b9565b60008260018151811061247c5761247b61452d565b5b602002602001015173ffffffffffffffffffffffffffffffffffffffff16836000815181106124ae576124ad61452d565b5b602002602001015173ffffffffffffffffffffffffffffffffffffffff16106124d85760006124db565b60015b9050836000815181106124f1576124f061452d565b5b602002602001015173ffffffffffffffffffffffffffffffffffffffff1663022c0d9f8261253a578360008151811061252d5761252c61452d565b5b602002602001015161253d565b60005b83612549576000612566565b8460008151811061255d5761255c61452d565b5b60200260200101515b886040518463ffffffff1660e01b815260040161258593929190614cee565b600060405180830381600087803b15801561259f57600080fd5b505af11580156125b3573d6000803e3d6000fd5b50505050505b6000816001876125c99190614662565b815181106125da576125d961452d565b5b60200260200101519050806040516020016125f591906149eb565b60405160208183030381529060405296503073ffffffffffffffffffffffffffffffffffffffff168573ffffffffffffffffffffffffffffffffffffffff161480156126a657507f000000000000000000000000000000000000000000000000000000000000000073ffffffffffffffffffffffffffffffffffffffff168387815181106126865761268561452d565b5b602002602001015173ffffffffffffffffffffffffffffffffffffffff16145b1561285a573073ffffffffffffffffffffffffffffffffffffffff166126d98b602a8d516126d49190614662565b611ecd565b73ffffffffffffffffffffffffffffffffffffffff1614156127ae57600161270e8b602b8d516127099190614662565b612d14565b60ff1614156127a3577f000000000000000000000000000000000000000000000000000000000000000073ffffffffffffffffffffffffffffffffffffffff16632e1a7d4d826040518263ffffffff1660e01b815260040161277091906149eb565b600060405180830381600087803b15801561278a57600080fd5b505af115801561279e573d6000803e3d6000fd5b505050505b505050505050612861565b7f000000000000000000000000000000000000000000000000000000000000000073ffffffffffffffffffffffffffffffffffffffff16632e1a7d4d826040518263ffffffff1660e01b815260040161280791906149eb565b600060405180830381600087803b15801561282157600080fd5b505af1158015612835573d6000803e3d6000fd5b505050506128596128538b602a8d5161284e9190614662565b611ecd565b82613ab7565b5b5050505050505b9392505050565b60606000612883856002875161287e9190614662565b612d14565b60ff1690506000806128a2876001895161289d9190614662565b612d14565b60ff16146128c6576128c186601688516128bc9190614662565b611ecd565b6128c8565b335b9050600073ffffffffffffffffffffffffffffffffffffffff168573ffffffffffffffffffffffffffffffffffffffff161415612981577f000000000000000000000000000000000000000000000000000000000000000073ffffffffffffffffffffffffffffffffffffffff1663d0e30db0856040518263ffffffff1660e01b81526004016000604051808303818588803b15801561296757600080fd5b505af115801561297b573d6000803e3d6000fd5b50505050505b6001821115612a37576129a1308561299c896040602b611dd9565b613b0a565b935060006001836129b29190614662565b90506000600190505b81811015612a00576129f130876129ec8b6017866129d99190614696565b60406129e59190614a06565b602b611dd9565b613b0a565b955080806001019150506129bb565b50612a2f8286612a2a8a601786612a179190614696565b6040612a239190614a06565b602b611dd9565b613b0a565b945050612a51565b612a4e8185612a49896040602b611dd9565b613b0a565b93505b612a5c866020611e32565b841015612a95576040517fbb2875c300000000000000000000000000000000000000000000000000000000815260040160405180910390fd5b3073ffffffffffffffffffffffffffffffffffffffff168173ffffffffffffffffffffffffffffffffffffffff161415612ce9577f000000000000000000000000000000000000000000000000000000000000000073ffffffffffffffffffffffffffffffffffffffff16612b2287601785612b119190614696565b6040612b1d9190614a06565b611ecd565b73ffffffffffffffffffffffffffffffffffffffff161415612ce8573073ffffffffffffffffffffffffffffffffffffffff16612b6c87602a8951612b679190614662565b611ecd565b73ffffffffffffffffffffffffffffffffffffffff161415612c3b576001612ba187602b8951612b9c9190614662565b612d14565b60ff161415612c36577f000000000000000000000000000000000000000000000000000000000000000073ffffffffffffffffffffffffffffffffffffffff16632e1a7d4d856040518263ffffffff1660e01b8152600401612c0391906149eb565b600060405180830381600087803b158015612c1d57600080fd5b505af1158015612c31573d6000803e3d6000fd5b505050505b612ce7565b7f000000000000000000000000000000000000000000000000000000000000000073ffffffffffffffffffffffffffffffffffffffff16632e1a7d4d856040518263ffffffff1660e01b8152600401612c9491906149eb565b600060405180830381600087803b158015612cae57600080fd5b505af1158015612cc2573d6000803e3d6000fd5b50505050612ce6612ce087602a8951612cdb9190614662565b611ecd565b85613ab7565b5b5b5b83604051602001612cfa91906149eb565b604051602081830303815290604052925050509392505050565b600081600184010151905092915050565b600060606000841415612d5057612d4f612d3f8488611ecd565b88612d4a8689611e32565b61345e565b5b8673ffffffffffffffffffffffffffffffffffffffff168484604051612d769190614a98565b60006040518083038185875af1925050503d8060008114612db3576040519150601f19603f3d011682016040523d82523d6000602084013e612db8565b606091505b5080925081935050509550959350505050565b60606000612de68560028751612de19190614662565b612d14565b60ff169050600080612e058760018951612e009190614662565b612d14565b60ff1614612e2957612e248660168851612e1f9190614662565b611ecd565b612e2b565b335b90506000602883612e3c9190614696565b6054612e489190614a06565b90506000805b848110156133ad576000612e7a8a602884612e699190614696565b6054612e759190614a06565b611ecd565b90506000612ea08b602885612e8f9190614696565b6068612e9b9190614a06565b611ecd565b905060008073ffffffffffffffffffffffffffffffffffffffff168273ffffffffffffffffffffffffffffffffffffffff16149050612f7c612efb8d600687612ee99190614696565b89612ef49190614a06565b6004611dd9565b612f288e6004600689612f0e9190614696565b8b612f199190614a06565b612f239190614a06565b612d14565b612f558f600560068a612f3b9190614696565b8c612f469190614a06565b612f509190614a06565b612d14565b8d604051602001612f6893929190614d54565b604051602081830303815290604052611e43565b9850600073ffffffffffffffffffffffffffffffffffffffff168b73ffffffffffffffffffffffffffffffffffffffff1614158015612fb9575080155b156130ab57612fc98b848c61345e565b6130198960018a612fda9190614662565b8614613006576000604051602001612ff29190614dbc565b604051602081830303815290604052613014565b6130138e60346020611dd9565b5b611e43565b98508173ffffffffffffffffffffffffffffffffffffffff166370a08231306040518263ffffffff1660e01b815260040161305491906145d6565b60206040518083038186803b15801561306c57600080fd5b505afa158015613080573d6000803e3d6000fd5b505050506040513d601f19601f820116820180604052508101906130a49190614606565b94506131fe565b600073ffffffffffffffffffffffffffffffffffffffff168b73ffffffffffffffffffffffffffffffffffffffff16146130eb576130ea8b848c61345e565b5b6131648961315f60018b6130ff9190614662565b871461312b5760006040516020016131179190614dbc565b604051602081830303815290604052613139565b6131388f60346020611dd9565b5b600160405160200161314b9190614df2565b604051602081830303815290604052611e43565b611e43565b9850806131f9578173ffffffffffffffffffffffffffffffffffffffff166370a08231306040518263ffffffff1660e01b81526004016131a491906145d6565b60206040518083038186803b1580156131bc57600080fd5b505afa1580156131d0573d6000803e3d6000fd5b505050506040513d601f19601f820116820180604052508101906131f49190614606565b6131fb565b475b94505b6000808473ffffffffffffffffffffffffffffffffffffffff16600073ffffffffffffffffffffffffffffffffffffffff168e73ffffffffffffffffffffffffffffffffffffffff1614613253576000613255565b8c5b8c6040516132639190614a98565b60006040518083038185875af1925050503d80600081146132a0576040519150601f19603f3d011682016040523d82523d6000602084013e6132a5565b606091505b5091509150816132eb57806040517ec73c900000000000000000000000000000000000000000000000000000000081526004016132e29190614e0d565b60405180910390fd5b8261338957868473ffffffffffffffffffffffffffffffffffffffff166370a08231306040518263ffffffff1660e01b815260040161332a91906145d6565b60206040518083038186803b15801561334257600080fd5b505afa158015613356573d6000803e3d6000fd5b505050506040513d601f19601f8201168201806040525081019061337a9190614606565b6133849190614662565b613396565b86476133959190614662565b5b9b50839c5085806001019650505050505050612e4e565b503073ffffffffffffffffffffffffffffffffffffffff168373ffffffffffffffffffffffffffffffffffffffff161461343157600073ffffffffffffffffffffffffffffffffffffffff168773ffffffffffffffffffffffffffffffffffffffff161461342557613420878488610a93565b613430565b61342f8387613ab7565b5b5b8560405160200161344291906149eb565b6040516020818303038152906040529450505050509392505050565b60006040517f095ea7b3000000000000000000000000000000000000000000000000000000008152836004820152826024820152602060006044836000895af13d15601f3d11600160005114161716915050806134f0576040517f08c379a00000000000000000000000000000000000000000000000000000000081526004016134e790614e7b565b60405180910390fd5b50505050565b600081600384010151905092915050565b60608060608367ffffffffffffffff8111156135265761352561403e565b5b6040519080825280602002602001820160405280156135545781602001602082028036833780820191505090505b5092506001846135649190614a06565b67ffffffffffffffff81111561357d5761357c61403e565b5b6040519080825280602002602001820160405280156135ab5781602001602082028036833780820191505090505b5091508367ffffffffffffffff8111156135c8576135c761403e565b5b6040519080825280602002602001820160405280156135f65781602001602082028036833780820191505090505b5090506000806000879050600073ffffffffffffffffffffffffffffffffffffffff168973ffffffffffffffffffffffffffffffffffffffff161461363b578861365d565b7f00000000000000000000000000000000000000000000000000000000000000005b856000815181106136715761367061452d565b5b602002602001019073ffffffffffffffffffffffffffffffffffffffff16908173ffffffffffffffffffffffffffffffffffffffff168152505060005b8781101561396d576136e48b60146001846136c99190614a06565b6136d39190614696565b60406136df9190614a06565b611ecd565b866001836136f29190614a06565b815181106137035761370261452d565b5b602002602001019073ffffffffffffffffffffffffffffffffffffffff16908173ffffffffffffffffffffffffffffffffffffffff16815250508581815181106137505761374f61452d565b5b60200260200101519350856001826137689190614a06565b815181106137795761377861452d565b5b6020026020010151925061378d8484613d54565b8782815181106137a05761379f61452d565b5b602002602001019073ffffffffffffffffffffffffffffffffffffffff16908173ffffffffffffffffffffffffffffffffffffffff16815250506000808883815181106137f0576137ef61452d565b5b602002602001015173ffffffffffffffffffffffffffffffffffffffff16630902f1ac6040518163ffffffff1660e01b815260040160606040518083038186803b15801561383d57600080fd5b505afa158015613851573d6000803e3d6000fd5b505050506040513d601f19601f820116820180604052508101906138759190614f1d565b506dffffffffffffffffffffffffffff1691506dffffffffffffffffffffffffffff1691508473ffffffffffffffffffffffffffffffffffffffff168673ffffffffffffffffffffffffffffffffffffffff1611156138d957808280925081935050505b6103e5846138e79190614696565b6103e8836138f59190614696565b6138ff9190614a06565b816103e58661390e9190614696565b6139189190614696565b613922919061471f565b8784815181106139355761393461452d565b5b6020026020010181815250508683815181106139545761395361452d565b5b60200260200101519350828060010193505050506136ae565b506139798a6020611e32565b8110156139b2576040517fbb2875c300000000000000000000000000000000000000000000000000000000815260040160405180910390fd5b600073ffffffffffffffffffffffffffffffffffffffff168973ffffffffffffffffffffffffffffffffffffffff161415613a69577f000000000000000000000000000000000000000000000000000000000000000073ffffffffffffffffffffffffffffffffffffffff1663d0e30db0896040518263ffffffff1660e01b81526004016000604051808303818588803b158015613a4f57600080fd5b505af1158015613a63573d6000803e3d6000fd5b50505050505b613aaa85600081518110613a8057613a7f61452d565b5b602002602001015187600081518110613a9c57613a9b61452d565b5b60200260200101518a610a93565b5050509450945094915050565b600080600080600085875af1905080613b05576040517f08c379a0000000000000000000000000000000000000000000000000000000008152600401613afc90614fbc565b60405180910390fd5b505050565b600080613b18836000611ecd565b9050600073ffffffffffffffffffffffffffffffffffffffff168173ffffffffffffffffffffffffffffffffffffffff161415613b73577f000000000000000000000000000000000000000000000000000000000000000090505b6000613b808460146134f6565b90506000613b8f856017611ecd565b905060008173ffffffffffffffffffffffffffffffffffffffff168473ffffffffffffffffffffffffffffffffffffffff161090508015613c86576000613bd7858486611cf4565b73ffffffffffffffffffffffffffffffffffffffff1663128acb088a848b6401000276a48c6040518663ffffffff1660e01b8152600401613c1c959493929190614ffa565b6040805180830381600087803b158015613c3557600080fd5b505af1158015613c49573d6000803e3d6000fd5b505050506040513d601f19601f82011682018060405250810190613c6d9190615054565b91505080613c7a906149a2565b95505050505050613d4d565b6000613c93858486611cf4565b73ffffffffffffffffffffffffffffffffffffffff1663128acb088a848b73fffd8963efd1fc6a506488495d951d5263988d258c6040518663ffffffff1660e01b8152600401613ce7959493929190614ffa565b6040805180830381600087803b158015613d0057600080fd5b505af1158015613d14573d6000803e3d6000fd5b505050506040513d601f19601f82011682018060405250810190613d389190615054565b50905080613d45906149a2565b955050505050505b9392505050565b60008173ffffffffffffffffffffffffffffffffffffffff168373ffffffffffffffffffffffffffffffffffffffff161415613dc5576040517f08c379a0000000000000000000000000000000000000000000000000000000008152600401613dbc906150e0565b60405180910390fd5b8173ffffffffffffffffffffffffffffffffffffffff168373ffffffffffffffffffffffffffffffffffffffff1610613dff578183613e02565b82825b8093508194505050600073ffffffffffffffffffffffffffffffffffffffff168373ffffffffffffffffffffffffffffffffffffffff161415613e7a576040517f08c379a0000000000000000000000000000000000000000000000000000000008152600401613e719061514c565b60405180910390fd5b7f00000000000000000000000000000000000000000000000000000000000000008383604051602001613eae92919061516c565b60405160208183030381529060405280519060200120604051602001613ed59291906151e4565b6040516020818303038152906040528051906020012060001c905092915050565b6000604051905090565b600080fd5b600080fd5b600080fd5b600080fd5b600080fd5b60008083601f840112613f2f57613f2e613f0a565b5b8235905067ffffffffffffffff811115613f4c57613f4b613f0f565b5b602083019150836020820283011115613f6857613f67613f14565b5b9250929050565b600073ffffffffffffffffffffffffffffffffffffffff82169050919050565b6000613f9a82613f6f565b9050919050565b613faa81613f8f565b8114613fb557600080fd5b50565b600081359050613fc781613fa1565b92915050565b600080600060408486031215613fe657613fe5613f00565b5b600084013567ffffffffffffffff81111561400457614003613f05565b5b61401086828701613f19565b9350935050602061402386828701613fb8565b9150509250925092565b6000601f19601f8301169050919050565b7f4e487b7100000000000000000000000000000000000000000000000000000000600052604160045260246000fd5b6140768261402d565b810181811067ffffffffffffffff821117156140955761409461403e565b5b80604052505050565b60006140a8613ef6565b90506140b4828261406d565b919050565b600067ffffffffffffffff8211156140d4576140d361403e565b5b602082029050602081019050919050565b600080fd5b600067ffffffffffffffff8211156141055761410461403e565b5b61410e8261402d565b9050602081019050919050565b82818337600083830152505050565b600061413d614138846140ea565b61409e565b905082815260208101848484011115614159576141586140e5565b5b61416484828561411b565b509392505050565b600082601f83011261418157614180613f0a565b5b813561419184826020860161412a565b91505092915050565b60006141ad6141a8846140b9565b61409e565b905080838252602082019050602084028301858111156141d0576141cf613f14565b5b835b8181101561421757803567ffffffffffffffff8111156141f5576141f4613f0a565b5b808601614202898261416c565b855260208501945050506020810190506141d2565b5050509392505050565b600082601f83011261423657614235613f0a565b5b813561424684826020860161419a565b91505092915050565b6000819050919050565b6142628161424f565b811461426d57600080fd5b50565b60008135905061427f81614259565b92915050565b60008060006060848603121561429e5761429d613f00565b5b600084013567ffffffffffffffff8111156142bc576142bb613f05565b5b6142c886828701614221565b935050602084013567ffffffffffffffff8111156142e9576142e8613f05565b5b6142f586828701614221565b925050604061430686828701614270565b9150509250925092565b6000806040838503121561432757614326613f00565b5b600083013567ffffffffffffffff81111561434557614344613f05565b5b61435185828601614221565b925050602083013567ffffffffffffffff81111561437257614371613f05565b5b61437e85828601614221565b9150509250929050565b60006020828403121561439e5761439d613f00565b5b60006143ac84828501613fb8565b91505092915050565b600080604083850312156143cc576143cb613f00565b5b600083013567ffffffffffffffff8111156143ea576143e9613f05565b5b6143f68582860161416c565b925050602083013567ffffffffffffffff81111561441757614416613f05565b5b6144238582860161416c565b9150509250929050565b6000819050919050565b6144408161442d565b811461444b57600080fd5b50565b60008135905061445d81614437565b92915050565b60008083601f84011261447957614478613f0a565b5b8235905067ffffffffffffffff81111561449657614495613f0f565b5b6020830191508360018202830111156144b2576144b1613f14565b5b9250929050565b600080600080606085870312156144d3576144d2613f00565b5b60006144e18782880161444e565b94505060206144f28782880161444e565b935050604085013567ffffffffffffffff81111561451357614512613f05565b5b61451f87828801614463565b925092505092959194509250565b7f4e487b7100000000000000000000000000000000000000000000000000000000600052603260045260246000fd5b600061456782613f8f565b9050919050565b6145778161455c565b811461458257600080fd5b50565b6000813590506145948161456e565b92915050565b6000602082840312156145b0576145af613f00565b5b60006145be84828501614585565b91505092915050565b6145d081613f8f565b82525050565b60006020820190506145eb60008301846145c7565b92915050565b60008151905061460081614259565b92915050565b60006020828403121561461c5761461b613f00565b5b600061462a848285016145f1565b91505092915050565b7f4e487b7100000000000000000000000000000000000000000000000000000000600052601160045260246000fd5b600061466d8261424f565b91506146788361424f565b92508282101561468b5761468a614633565b5b828203905092915050565b60006146a18261424f565b91506146ac8361424f565b9250817fffffffffffffffffffffffffffffffffffffffffffffffffffffffffffffffff04831182151516156146e5576146e4614633565b5b828202905092915050565b7f4e487b7100000000000000000000000000000000000000000000000000000000600052601260045260246000fd5b600061472a8261424f565b91506147358361424f565b925082614745576147446146f0565b5b828204905092915050565b60007fff0000000000000000000000000000000000000000000000000000000000000082169050919050565b61478581614750565b82525050565b6147948161424f565b82525050565b600081519050919050565b600082825260208201905092915050565b60005b838110156147d45780820151818401526020810190506147b9565b838111156147e3576000848401525b50505050565b60006147f48261479a565b6147fe81856147a5565b935061480e8185602086016147b6565b6148178161402d565b840191505092915050565b6000606082019050614837600083018661477c565b614844602083018561478b565b818103604083015261485681846147e9565b9050949350505050565b6000819050919050565b6000819050919050565b600061488f61488a61488584614860565b61486a565b61424f565b9050919050565b61489f81614874565b82525050565b60006060820190506148ba600083018661477c565b6148c76020830185614896565b81810360408301526148d981846147e9565b9050949350505050565b600082825260208201905092915050565b7f5452414e534645525f4641494c45440000000000000000000000000000000000600082015250565b600061492a600f836148e3565b9150614935826148f4565b602082019050919050565b600060208201905081810360008301526149598161491d565b9050919050565b60008151905061496f81614437565b92915050565b60006020828403121561498b5761498a613f00565b5b600061499984828501614960565b91505092915050565b60006149ad8261442d565b91507f80000000000000000000000000000000000000000000000000000000000000008214156149e0576149df614633565b5b816000039050919050565b6000602082019050614a00600083018461478b565b92915050565b6000614a118261424f565b9150614a1c8361424f565b9250827fffffffffffffffffffffffffffffffffffffffffffffffffffffffffffffffff03821115614a5157614a50614633565b5b828201905092915050565b600081905092915050565b6000614a728261479a565b614a7c8185614a5c565b9350614a8c8185602086016147b6565b80840191505092915050565b6000614aa48284614a67565b915081905092915050565b6000819050919050565b614ac281614aaf565b82525050565b6000606082019050614add6000830186614ab9565b614aea602083018561478b565b614af7604083018461478b565b949350505050565b600062ffffff82169050919050565b614b1781614aff565b82525050565b6000606082019050614b3260008301866145c7565b614b3f60208301856145c7565b614b4c6040830184614b0e565b949350505050565b600081905092915050565b7fff00000000000000000000000000000000000000000000000000000000000000600082015250565b6000614b95600183614b54565b9150614ba082614b5f565b600182019050919050565b60008160601b9050919050565b6000614bc382614bab565b9050919050565b6000614bd582614bb8565b9050919050565b614bed614be882613f8f565b614bca565b82525050565b6000819050919050565b614c0e614c0982614aaf565b614bf3565b82525050565b6000614c1f82614b88565b9150614c2b8286614bdc565b601482019150614c3b8285614bfd565b602082019150614c4b8284614bfd565b602082019150819050949350505050565b7f5452414e534645525f46524f4d5f4641494c4544000000000000000000000000600082015250565b6000614c926014836148e3565b9150614c9d82614c5c565b602082019050919050565b60006020820190508181036000830152614cc181614c85565b9050919050565b50565b6000614cd86000836147a5565b9150614ce382614cc8565b600082019050919050565b6000608082019050614d03600083018661478b565b614d10602083018561478b565b614d1d60408301846145c7565b8181036060830152614d2e81614ccb565b9050949350505050565b600060ff82169050919050565b614d4e81614d38565b82525050565b6000606082019050614d696000830186614d45565b614d766020830185614d45565b614d83604083018461478b565b949350505050565b6000614da6614da1614d9c84614860565b61486a565b614d38565b9050919050565b614db681614d8b565b82525050565b6000602082019050614dd16000830184614dad565b92915050565b60008115159050919050565b614dec81614dd7565b82525050565b6000602082019050614e076000830184614de3565b92915050565b60006020820190508181036000830152614e2781846147e9565b905092915050565b7f415050524f56455f4641494c4544000000000000000000000000000000000000600082015250565b6000614e65600e836148e3565b9150614e7082614e2f565b602082019050919050565b60006020820190508181036000830152614e9481614e58565b9050919050565b60006dffffffffffffffffffffffffffff82169050919050565b614ebe81614e9b565b8114614ec957600080fd5b50565b600081519050614edb81614eb5565b92915050565b600063ffffffff82169050919050565b614efa81614ee1565b8114614f0557600080fd5b50565b600081519050614f1781614ef1565b92915050565b600080600060608486031215614f3657614f35613f00565b5b6000614f4486828701614ecc565b9350506020614f5586828701614ecc565b9250506040614f6686828701614f08565b9150509250925092565b7f4554485f5452414e534645525f4641494c454400000000000000000000000000600082015250565b6000614fa66013836148e3565b9150614fb182614f70565b602082019050919050565b60006020820190508181036000830152614fd581614f99565b9050919050565b614fe58161442d565b82525050565b614ff481613f6f565b82525050565b600060a08201905061500f60008301886145c7565b61501c6020830187614de3565b6150296040830186614fdc565b6150366060830185614feb565b818103608083015261504881846147e9565b90509695505050505050565b6000806040838503121561506b5761506a613f00565b5b600061507985828601614960565b925050602061508a85828601614960565b9150509250929050565b7f56323a4455505f41444452455353000000000000000000000000000000000000600082015250565b60006150ca600e836148e3565b91506150d582615094565b602082019050919050565b600060208201905081810360008301526150f9816150bd565b9050919050565b7f56323a5a45524f5f414444524553530000000000000000000000000000000000600082015250565b6000615136600f836148e3565b915061514182615100565b602082019050919050565b6000602082019050818103600083015261516581615129565b9050919050565b60006151788285614bdc565b6014820191506151888284614bdc565b6014820191508190509392505050565b7f96e8ac4277198ff8b6f785478aa9a39f403cb768dd02cbee326c3e7da348845f600082015250565b60006151ce602083614b54565b91506151d982615198565b602082019050919050565b60006151ef82614b88565b91506151fb8285614bdc565b60148201915061520b8284614bfd565b60208201915061521a826151c1565b9150819050939250505056fea2646970667358221220414005412741857d13fada47fb004df32890a9159b260e2131ccb752e16e068d64736f6c63430008090033","opcodes":"PUSH2 0x3C0 PUSH1 0x40 MSTORE CALLVALUE DUP1 ISZERO PUSH3 0x12 JUMPI PUSH1 0x0 DUP1 REVERT JUMPDEST POP PUSH1 0x40 MLOAD PUSH3 0x5DCC CODESIZE SUB DUP1 PUSH3 0x5DCC DUP4 CODECOPY DUP2 DUP2 ADD PUSH1 0x40 MSTORE DUP2 ADD SWAP1 PUSH3 0x38 SWAP2 SWAP1 PUSH3 0x9B6 JUMP JUMPDEST DUP1 DUP1 PUSH1 0x0 ADD MLOAD PUSH20 0xFFFFFFFFFFFFFFFFFFFFFFFFFFFFFFFFFFFFFFFF AND PUSH1 0x80 DUP2 PUSH20 0xFFFFFFFFFFFFFFFFFFFFFFFFFFFFFFFFFFFFFFFF AND DUP2 MSTORE POP POP DUP1 PUSH1 0x20 ADD MLOAD PUSH20 0xFFFFFFFFFFFFFFFFFFFFFFFFFFFFFFFFFFFFFFFF AND PUSH1 0xA0 DUP2 PUSH20 0xFFFFFFFFFFFFFFFFFFFFFFFFFFFFFFFFFFFFFFFF AND DUP2 MSTORE POP POP DUP1 PUSH1 0x40 ADD MLOAD PUSH20 0xFFFFFFFFFFFFFFFFFFFFFFFFFFFFFFFFFFFFFFFF AND PUSH1 0xC0 DUP2 PUSH20 0xFFFFFFFFFFFFFFFFFFFFFFFFFFFFFFFFFFFFFFFF AND DUP2 MSTORE POP POP DUP1 PUSH1 0x60 ADD MLOAD PUSH20 0xFFFFFFFFFFFFFFFFFFFFFFFFFFFFFFFFFFFFFFFF AND PUSH1 0xE0 DUP2 PUSH20 0xFFFFFFFFFFFFFFFFFFFFFFFFFFFFFFFFFFFFFFFF AND DUP2 MSTORE POP POP DUP1 PUSH1 0x80 ADD MLOAD PUSH20 0xFFFFFFFFFFFFFFFFFFFFFFFFFFFFFFFFFFFFFFFF AND PUSH2 0x100 DUP2 PUSH20 0xFFFFFFFFFFFFFFFFFFFFFFFFFFFFFFFFFFFFFFFF AND DUP2 MSTORE POP POP DUP1 PUSH1 0xA0 ADD MLOAD PUSH20 0xFFFFFFFFFFFFFFFFFFFFFFFFFFFFFFFFFFFFFFFF AND PUSH2 0x120 DUP2 PUSH20 0xFFFFFFFFFFFFFFFFFFFFFFFFFFFFFFFFFFFFFFFF AND DUP2 MSTORE POP POP DUP1 PUSH1 0xC0 ADD MLOAD PUSH20 0xFFFFFFFFFFFFFFFFFFFFFFFFFFFFFFFFFFFFFFFF AND PUSH2 0x140 DUP2 PUSH20 0xFFFFFFFFFFFFFFFFFFFFFFFFFFFFFFFFFFFFFFFF AND DUP2 MSTORE POP POP DUP1 PUSH1 0xE0 ADD MLOAD PUSH20 0xFFFFFFFFFFFFFFFFFFFFFFFFFFFFFFFFFFFFFFFF AND PUSH2 0x160 DUP2 PUSH20 0xFFFFFFFFFFFFFFFFFFFFFFFFFFFFFFFFFFFFFFFF AND DUP2 MSTORE POP POP DUP1 PUSH2 0x100 ADD MLOAD PUSH20 0xFFFFFFFFFFFFFFFFFFFFFFFFFFFFFFFFFFFFFFFF AND PUSH2 0x180 DUP2 PUSH20 0xFFFFFFFFFFFFFFFFFFFFFFFFFFFFFFFFFFFFFFFF AND DUP2 MSTORE POP POP DUP1 PUSH2 0x120 ADD MLOAD PUSH20 0xFFFFFFFFFFFFFFFFFFFFFFFFFFFFFFFFFFFFFFFF AND PUSH2 0x1A0 DUP2 PUSH20 0xFFFFFFFFFFFFFFFFFFFFFFFFFFFFFFFFFFFFFFFF AND DUP2 MSTORE POP POP DUP1 PUSH2 0x140 ADD MLOAD PUSH20 0xFFFFFFFFFFFFFFFFFFFFFFFFFFFFFFFFFFFFFFFF AND PUSH2 0x1C0 DUP2 PUSH20 0xFFFFFFFFFFFFFFFFFFFFFFFFFFFFFFFFFFFFFFFF AND DUP2 MSTORE POP POP DUP1 PUSH2 0x160 ADD MLOAD PUSH20 0xFFFFFFFFFFFFFFFFFFFFFFFFFFFFFFFFFFFFFFFF AND PUSH2 0x1E0 DUP2 PUSH20 0xFFFFFFFFFFFFFFFFFFFFFFFFFFFFFFFFFFFFFFFF AND DUP2 MSTORE POP POP DUP1 PUSH2 0x180 ADD MLOAD PUSH20 0xFFFFFFFFFFFFFFFFFFFFFFFFFFFFFFFFFFFFFFFF AND PUSH2 0x200 DUP2 PUSH20 0xFFFFFFFFFFFFFFFFFFFFFFFFFFFFFFFFFFFFFFFF AND DUP2 MSTORE POP POP DUP1 PUSH2 0x1A0 ADD MLOAD PUSH20 0xFFFFFFFFFFFFFFFFFFFFFFFFFFFFFFFFFFFFFFFF AND PUSH2 0x220 DUP2 PUSH20 0xFFFFFFFFFFFFFFFFFFFFFFFFFFFFFFFFFFFFFFFF AND DUP2 MSTORE POP POP DUP1 PUSH2 0x1C0 ADD MLOAD PUSH20 0xFFFFFFFFFFFFFFFFFFFFFFFFFFFFFFFFFFFFFFFF AND PUSH2 0x240 DUP2 PUSH20 0xFFFFFFFFFFFFFFFFFFFFFFFFFFFFFFFFFFFFFFFF AND DUP2 MSTORE POP POP DUP1 PUSH2 0x1E0 ADD MLOAD PUSH20 0xFFFFFFFFFFFFFFFFFFFFFFFFFFFFFFFFFFFFFFFF AND PUSH2 0x260 DUP2 PUSH20 0xFFFFFFFFFFFFFFFFFFFFFFFFFFFFFFFFFFFFFFFF AND DUP2 MSTORE POP POP DUP1 PUSH2 0x200 ADD MLOAD PUSH20 0xFFFFFFFFFFFFFFFFFFFFFFFFFFFFFFFFFFFFFFFF AND PUSH2 0x280 DUP2 PUSH20 0xFFFFFFFFFFFFFFFFFFFFFFFFFFFFFFFFFFFFFFFF AND DUP2 MSTORE POP POP DUP1 PUSH2 0x220 ADD MLOAD PUSH20 0xFFFFFFFFFFFFFFFFFFFFFFFFFFFFFFFFFFFFFFFF AND PUSH2 0x2A0 DUP2 PUSH20 0xFFFFFFFFFFFFFFFFFFFFFFFFFFFFFFFFFFFFFFFF AND DUP2 MSTORE POP POP DUP1 PUSH2 0x240 ADD MLOAD PUSH20 0xFFFFFFFFFFFFFFFFFFFFFFFFFFFFFFFFFFFFFFFF AND PUSH2 0x2C0 DUP2 PUSH20 0xFFFFFFFFFFFFFFFFFFFFFFFFFFFFFFFFFFFFFFFF AND DUP2 MSTORE POP POP DUP1 PUSH2 0x260 ADD MLOAD PUSH20 0xFFFFFFFFFFFFFFFFFFFFFFFFFFFFFFFFFFFFFFFF AND PUSH2 0x2E0 DUP2 PUSH20 0xFFFFFFFFFFFFFFFFFFFFFFFFFFFFFFFFFFFFFFFF AND DUP2 MSTORE POP POP DUP1 PUSH2 0x280 ADD MLOAD PUSH20 0xFFFFFFFFFFFFFFFFFFFFFFFFFFFFFFFFFFFFFFFF AND PUSH2 0x300 DUP2 PUSH20 0xFFFFFFFFFFFFFFFFFFFFFFFFFFFFFFFFFFFFFFFF AND DUP2 MSTORE POP POP DUP1 PUSH2 0x2A0 ADD MLOAD PUSH20 0xFFFFFFFFFFFFFFFFFFFFFFFFFFFFFFFFFFFFFFFF AND PUSH2 0x320 DUP2 PUSH20 0xFFFFFFFFFFFFFFFFFFFFFFFFFFFFFFFFFFFFFFFF AND DUP2 MSTORE POP POP DUP1 PUSH2 0x2C0 ADD MLOAD PUSH20 0xFFFFFFFFFFFFFFFFFFFFFFFFFFFFFFFFFFFFFFFF AND PUSH2 0x340 DUP2 PUSH20 0xFFFFFFFFFFFFFFFFFFFFFFFFFFFFFFFFFFFFFFFF AND DUP2 MSTORE POP POP DUP1 PUSH2 0x2E0 ADD MLOAD PUSH20 0xFFFFFFFFFFFFFFFFFFFFFFFFFFFFFFFFFFFFFFFF AND PUSH2 0x360 DUP2 PUSH20 0xFFFFFFFFFFFFFFFFFFFFFFFFFFFFFFFFFFFFFFFF AND DUP2 MSTORE POP POP DUP1 PUSH2 0x300 ADD MLOAD PUSH20 0xFFFFFFFFFFFFFFFFFFFFFFFFFFFFFFFFFFFFFFFF AND PUSH2 0x380 DUP2 PUSH20 0xFFFFFFFFFFFFFFFFFFFFFFFFFFFFFFFFFFFFFFFF AND DUP2 MSTORE POP POP DUP1 PUSH2 0x320 ADD MLOAD PUSH20 0xFFFFFFFFFFFFFFFFFFFFFFFFFFFFFFFFFFFFFFFF AND PUSH2 0x3A0 DUP2 PUSH20 0xFFFFFFFFFFFFFFFFFFFFFFFFFFFFFFFFFFFFFFFF AND DUP2 MSTORE POP POP POP POP PUSH3 0x9E9 JUMP JUMPDEST PUSH1 0x0 PUSH1 0x40 MLOAD SWAP1 POP SWAP1 JUMP JUMPDEST PUSH1 0x0 DUP1 REVERT JUMPDEST PUSH1 0x0 DUP1 REVERT JUMPDEST PUSH1 0x0 PUSH1 0x1F NOT PUSH1 0x1F DUP4 ADD AND SWAP1 POP SWAP2 SWAP1 POP JUMP JUMPDEST PUSH32 0x4E487B7100000000000000000000000000000000000000000000000000000000 PUSH1 0x0 MSTORE PUSH1 0x41 PUSH1 0x4 MSTORE PUSH1 0x24 PUSH1 0x0 REVERT JUMPDEST PUSH3 0x678 DUP3 PUSH3 0x62D JUMP JUMPDEST DUP2 ADD DUP2 DUP2 LT PUSH8 0xFFFFFFFFFFFFFFFF DUP3 GT OR ISZERO PUSH3 0x69A JUMPI PUSH3 0x699 PUSH3 0x63E JUMP JUMPDEST JUMPDEST DUP1 PUSH1 0x40 MSTORE POP POP POP JUMP JUMPDEST PUSH1 0x0 PUSH3 0x6AF PUSH3 0x619 JUMP JUMPDEST SWAP1 POP PUSH3 0x6BD DUP3 DUP3 PUSH3 0x66D JUMP JUMPDEST SWAP2 SWAP1 POP JUMP JUMPDEST PUSH1 0x0 PUSH20 0xFFFFFFFFFFFFFFFFFFFFFFFFFFFFFFFFFFFFFFFF DUP3 AND SWAP1 POP SWAP2 SWAP1 POP JUMP JUMPDEST PUSH1 0x0 PUSH3 0x6EF DUP3 PUSH3 0x6C2 JUMP JUMPDEST SWAP1 POP SWAP2 SWAP1 POP JUMP JUMPDEST PUSH3 0x701 DUP2 PUSH3 0x6E2 JUMP JUMPDEST DUP2 EQ PUSH3 0x70D JUMPI PUSH1 0x0 DUP1 REVERT JUMPDEST POP JUMP JUMPDEST PUSH1 0x0 DUP2 MLOAD SWAP1 POP PUSH3 0x721 DUP2 PUSH3 0x6F6 JUMP JUMPDEST SWAP3 SWAP2 POP POP JUMP JUMPDEST PUSH1 0x0 PUSH2 0x340 DUP3 DUP5 SUB SLT ISZERO PUSH3 0x741 JUMPI PUSH3 0x740 PUSH3 0x628 JUMP JUMPDEST JUMPDEST PUSH3 0x74E PUSH2 0x340 PUSH3 0x6A3 JUMP JUMPDEST SWAP1 POP PUSH1 0x0 PUSH3 0x760 DUP5 DUP3 DUP6 ADD PUSH3 0x710 JUMP JUMPDEST PUSH1 0x0 DUP4 ADD MSTORE POP PUSH1 0x20 PUSH3 0x776 DUP5 DUP3 DUP6 ADD PUSH3 0x710 JUMP JUMPDEST PUSH1 0x20 DUP4 ADD MSTORE POP PUSH1 0x40 PUSH3 0x78C DUP5 DUP3 DUP6 ADD PUSH3 0x710 JUMP JUMPDEST PUSH1 0x40 DUP4 ADD MSTORE POP PUSH1 0x60 PUSH3 0x7A2 DUP5 DUP3 DUP6 ADD PUSH3 0x710 JUMP JUMPDEST PUSH1 0x60 DUP4 ADD MSTORE POP PUSH1 0x80 PUSH3 0x7B8 DUP5 DUP3 DUP6 ADD PUSH3 0x710 JUMP JUMPDEST PUSH1 0x80 DUP4 ADD MSTORE POP PUSH1 0xA0 PUSH3 0x7CE DUP5 DUP3 DUP6 ADD PUSH3 0x710 JUMP JUMPDEST PUSH1 0xA0 DUP4 ADD MSTORE POP PUSH1 0xC0 PUSH3 0x7E4 DUP5 DUP3 DUP6 ADD PUSH3 0x710 JUMP JUMPDEST PUSH1 0xC0 DUP4 ADD MSTORE POP PUSH1 0xE0 PUSH3 0x7FA DUP5 DUP3 DUP6 ADD PUSH3 0x710 JUMP JUMPDEST PUSH1 0xE0 DUP4 ADD MSTORE POP PUSH2 0x100 PUSH3 0x811 DUP5 DUP3 DUP6 ADD PUSH3 0x710 JUMP JUMPDEST PUSH2 0x100 DUP4 ADD MSTORE POP PUSH2 0x120 PUSH3 0x829 DUP5 DUP3 DUP6 ADD PUSH3 0x710 JUMP JUMPDEST PUSH2 0x120 DUP4 ADD MSTORE POP PUSH2 0x140 PUSH3 0x841 DUP5 DUP3 DUP6 ADD PUSH3 0x710 JUMP JUMPDEST PUSH2 0x140 DUP4 ADD MSTORE POP PUSH2 0x160 PUSH3 0x859 DUP5 DUP3 DUP6 ADD PUSH3 0x710 JUMP JUMPDEST PUSH2 0x160 DUP4 ADD MSTORE POP PUSH2 0x180 PUSH3 0x871 DUP5 DUP3 DUP6 ADD PUSH3 0x710 JUMP JUMPDEST PUSH2 0x180 DUP4 ADD MSTORE POP PUSH2 0x1A0 PUSH3 0x889 DUP5 DUP3 DUP6 ADD PUSH3 0x710 JUMP JUMPDEST PUSH2 0x1A0 DUP4 ADD MSTORE POP PUSH2 0x1C0 PUSH3 0x8A1 DUP5 DUP3 DUP6 ADD PUSH3 0x710 JUMP JUMPDEST PUSH2 0x1C0 DUP4 ADD MSTORE POP PUSH2 0x1E0 PUSH3 0x8B9 DUP5 DUP3 DUP6 ADD PUSH3 0x710 JUMP JUMPDEST PUSH2 0x1E0 DUP4 ADD MSTORE POP PUSH2 0x200 PUSH3 0x8D1 DUP5 DUP3 DUP6 ADD PUSH3 0x710 JUMP JUMPDEST PUSH2 0x200 DUP4 ADD MSTORE POP PUSH2 0x220 PUSH3 0x8E9 DUP5 DUP3 DUP6 ADD PUSH3 0x710 JUMP JUMPDEST PUSH2 0x220 DUP4 ADD MSTORE POP PUSH2 0x240 PUSH3 0x901 DUP5 DUP3 DUP6 ADD PUSH3 0x710 JUMP JUMPDEST PUSH2 0x240 DUP4 ADD MSTORE POP PUSH2 0x260 PUSH3 0x919 DUP5 DUP3 DUP6 ADD PUSH3 0x710 JUMP JUMPDEST PUSH2 0x260 DUP4 ADD MSTORE POP PUSH2 0x280 PUSH3 0x931 DUP5 DUP3 DUP6 ADD PUSH3 0x710 JUMP JUMPDEST PUSH2 0x280 DUP4 ADD MSTORE POP PUSH2 0x2A0 PUSH3 0x949 DUP5 DUP3 DUP6 ADD PUSH3 0x710 JUMP JUMPDEST PUSH2 0x2A0 DUP4 ADD MSTORE POP PUSH2 0x2C0 PUSH3 0x961 DUP5 DUP3 DUP6 ADD PUSH3 0x710 JUMP JUMPDEST PUSH2 0x2C0 DUP4 ADD MSTORE POP PUSH2 0x2E0 PUSH3 0x979 DUP5 DUP3 DUP6 ADD PUSH3 0x710 JUMP JUMPDEST PUSH2 0x2E0 DUP4 ADD MSTORE POP PUSH2 0x300 PUSH3 0x991 DUP5 DUP3 DUP6 ADD PUSH3 0x710 JUMP JUMPDEST PUSH2 0x300 DUP4 ADD MSTORE POP PUSH2 0x320 PUSH3 0x9A9 DUP5 DUP3 DUP6 ADD PUSH3 0x710 JUMP JUMPDEST PUSH2 0x320 DUP4 ADD MSTORE POP SWAP3 SWAP2 POP POP JUMP JUMPDEST PUSH1 0x0 PUSH2 0x340 DUP3 DUP5 SUB SLT ISZERO PUSH3 0x9D0 JUMPI PUSH3 0x9CF PUSH3 0x623 JUMP JUMPDEST JUMPDEST PUSH1 0x0 PUSH3 0x9E0 DUP5 DUP3 DUP6 ADD PUSH3 0x727 JUMP JUMPDEST SWAP2 POP POP SWAP3 SWAP2 POP POP JUMP JUMPDEST PUSH1 0x80 MLOAD PUSH1 0xA0 MLOAD PUSH1 0xC0 MLOAD PUSH1 0xE0 MLOAD PUSH2 0x100 MLOAD PUSH2 0x120 MLOAD PUSH2 0x140 MLOAD PUSH2 0x160 MLOAD PUSH2 0x180 MLOAD PUSH2 0x1A0 MLOAD PUSH2 0x1C0 MLOAD PUSH2 0x1E0 MLOAD PUSH2 0x200 MLOAD PUSH2 0x220 MLOAD PUSH2 0x240 MLOAD PUSH2 0x260 MLOAD PUSH2 0x280 MLOAD PUSH2 0x2A0 MLOAD PUSH2 0x2C0 MLOAD PUSH2 0x2E0 MLOAD PUSH2 0x300 MLOAD PUSH2 0x320 MLOAD PUSH2 0x340 MLOAD PUSH2 0x360 MLOAD PUSH2 0x380 MLOAD PUSH2 0x3A0 MLOAD PUSH2 0x525C PUSH3 0xB70 PUSH1 0x0 CODECOPY PUSH1 0x0 PUSH2 0x1C80 ADD MSTORE PUSH1 0x0 PUSH2 0x1BAD ADD MSTORE PUSH1 0x0 PUSH2 0x1BDE ADD MSTORE PUSH1 0x0 PUSH2 0x1B57 ADD MSTORE PUSH1 0x0 DUP2 DUP2 PUSH2 0x19D1 ADD MSTORE PUSH2 0x1A57 ADD MSTORE PUSH1 0x0 PUSH2 0x1B0F ADD MSTORE PUSH1 0x0 PUSH2 0x17AD ADD MSTORE PUSH1 0x0 DUP2 DUP2 PUSH2 0x1807 ADD MSTORE PUSH2 0x1837 ADD MSTORE PUSH1 0x0 PUSH2 0x18D8 ADD MSTORE PUSH1 0x0 PUSH2 0x1727 ADD MSTORE PUSH1 0x0 PUSH2 0x157A ADD MSTORE PUSH1 0x0 PUSH2 0x15FE ADD MSTORE PUSH1 0x0 PUSH2 0x15A0 ADD MSTORE PUSH1 0x0 PUSH2 0x15C7 ADD MSTORE PUSH1 0x0 PUSH2 0x1624 ADD MSTORE PUSH1 0x0 PUSH2 0x164B ADD MSTORE PUSH1 0x0 PUSH2 0x176A ADD MSTORE PUSH1 0x0 PUSH2 0x197B ADD MSTORE PUSH1 0x0 PUSH2 0x12D9 ADD MSTORE PUSH1 0x0 PUSH2 0x12FF ADD MSTORE PUSH1 0x0 PUSH2 0x1326 ADD MSTORE PUSH1 0x0 PUSH2 0x1D37 ADD MSTORE PUSH1 0x0 PUSH2 0x3E7C ADD MSTORE PUSH1 0x0 PUSH2 0x14EC ADD MSTORE PUSH1 0x0 DUP2 DUP2 PUSH2 0x13CA ADD MSTORE PUSH2 0x144A ADD MSTORE PUSH1 0x0 DUP2 DUP2 PUSH2 0x9DF ADD MSTORE DUP2 DUP2 PUSH2 0x263E ADD MSTORE DUP2 DUP2 PUSH2 0x2719 ADD MSTORE DUP2 DUP2 PUSH2 0x27B0 ADD MSTORE DUP2 DUP2 PUSH2 0x2901 ADD MSTORE DUP2 DUP2 PUSH2 0x2ACB ADD MSTORE DUP2 DUP2 PUSH2 0x2BAC ADD MSTORE DUP2 DUP2 PUSH2 0x2C3D ADD MSTORE DUP2 DUP2 PUSH2 0x363D ADD MSTORE DUP2 DUP2 PUSH2 0x39E9 ADD MSTORE PUSH2 0x3B51 ADD MSTORE PUSH2 0x525C PUSH1 0x0 RETURN INVALID PUSH1 0x80 PUSH1 0x40 MSTORE PUSH1 0x4 CALLDATASIZE LT PUSH2 0x59 JUMPI PUSH1 0x0 CALLDATALOAD PUSH1 0xE0 SHR DUP1 PUSH4 0x340ED32A EQ PUSH2 0x65 JUMPI DUP1 PUSH4 0x36C9A1D2 EQ PUSH2 0x8E JUMPI DUP1 PUSH4 0x5FDA5F7F EQ PUSH2 0xAA JUMPI DUP1 PUSH4 0x690D8320 EQ PUSH2 0xC6 JUMPI DUP1 PUSH4 0xCF06783C EQ PUSH2 0xEF JUMPI DUP1 PUSH4 0xFA461E33 EQ PUSH2 0x10B JUMPI PUSH2 0x60 JUMP JUMPDEST CALLDATASIZE PUSH2 0x60 JUMPI STOP JUMPDEST PUSH1 0x0 DUP1 REVERT JUMPDEST CALLVALUE DUP1 ISZERO PUSH2 0x71 JUMPI PUSH1 0x0 DUP1 REVERT JUMPDEST POP PUSH2 0x8C PUSH1 0x4 DUP1 CALLDATASIZE SUB DUP2 ADD SWAP1 PUSH2 0x87 SWAP2 SWAP1 PUSH2 0x3FCD JUMP JUMPDEST PUSH2 0x134 JUMP JUMPDEST STOP JUMPDEST PUSH2 0xA8 PUSH1 0x4 DUP1 CALLDATASIZE SUB DUP2 ADD SWAP1 PUSH2 0xA3 SWAP2 SWAP1 PUSH2 0x4285 JUMP JUMPDEST PUSH2 0x2AF JUMP JUMPDEST STOP JUMPDEST PUSH2 0xC4 PUSH1 0x4 DUP1 CALLDATASIZE SUB DUP2 ADD SWAP1 PUSH2 0xBF SWAP2 SWAP1 PUSH2 0x4310 JUMP JUMPDEST PUSH2 0x349 JUMP JUMPDEST STOP JUMPDEST CALLVALUE DUP1 ISZERO PUSH2 0xD2 JUMPI PUSH1 0x0 DUP1 REVERT JUMPDEST POP PUSH2 0xED PUSH1 0x4 DUP1 CALLDATASIZE SUB DUP2 ADD SWAP1 PUSH2 0xE8 SWAP2 SWAP1 PUSH2 0x4388 JUMP JUMPDEST PUSH2 0x73E JUMP JUMPDEST STOP JUMPDEST PUSH2 0x109 PUSH1 0x4 DUP1 CALLDATASIZE SUB DUP2 ADD SWAP1 PUSH2 0x104 SWAP2 SWAP1 PUSH2 0x43B5 JUMP JUMPDEST PUSH2 0x801 JUMP JUMPDEST STOP JUMPDEST CALLVALUE DUP1 ISZERO PUSH2 0x117 JUMPI PUSH1 0x0 DUP1 REVERT JUMPDEST POP PUSH2 0x132 PUSH1 0x4 DUP1 CALLDATASIZE SUB DUP2 ADD SWAP1 PUSH2 0x12D SWAP2 SWAP1 PUSH2 0x44B9 JUMP JUMPDEST PUSH2 0x933 JUMP JUMPDEST STOP JUMPDEST PUSH20 0xE9290C80B28DB1B3D9853AB1EE60C6630B87F57E PUSH20 0xFFFFFFFFFFFFFFFFFFFFFFFFFFFFFFFFFFFFFFFF AND CALLER PUSH20 0xFFFFFFFFFFFFFFFFFFFFFFFFFFFFFFFFFFFFFFFF AND EQ PUSH2 0x1AD JUMPI PUSH1 0x40 MLOAD PUSH32 0x82B4290000000000000000000000000000000000000000000000000000000000 DUP2 MSTORE PUSH1 0x4 ADD PUSH1 0x40 MLOAD DUP1 SWAP2 SUB SWAP1 REVERT JUMPDEST PUSH1 0x0 JUMPDEST DUP4 DUP4 SWAP1 POP DUP2 LT ISZERO PUSH2 0x2A9 JUMPI PUSH2 0x29C DUP5 DUP5 DUP4 DUP2 DUP2 LT PUSH2 0x1D1 JUMPI PUSH2 0x1D0 PUSH2 0x452D JUMP JUMPDEST JUMPDEST SWAP1 POP PUSH1 0x20 MUL ADD PUSH1 0x20 DUP2 ADD SWAP1 PUSH2 0x1E6 SWAP2 SWAP1 PUSH2 0x459A JUMP JUMPDEST DUP4 DUP7 DUP7 DUP6 DUP2 DUP2 LT PUSH2 0x1FA JUMPI PUSH2 0x1F9 PUSH2 0x452D JUMP JUMPDEST JUMPDEST SWAP1 POP PUSH1 0x20 MUL ADD PUSH1 0x20 DUP2 ADD SWAP1 PUSH2 0x20F SWAP2 SWAP1 PUSH2 0x459A JUMP JUMPDEST PUSH20 0xFFFFFFFFFFFFFFFFFFFFFFFFFFFFFFFFFFFFFFFF AND PUSH4 0x70A08231 ADDRESS PUSH1 0x40 MLOAD DUP3 PUSH4 0xFFFFFFFF AND PUSH1 0xE0 SHL DUP2 MSTORE PUSH1 0x4 ADD PUSH2 0x247 SWAP2 SWAP1 PUSH2 0x45D6 JUMP JUMPDEST PUSH1 0x20 PUSH1 0x40 MLOAD DUP1 DUP4 SUB DUP2 DUP7 DUP1 EXTCODESIZE ISZERO DUP1 ISZERO PUSH2 0x25F JUMPI PUSH1 0x0 DUP1 REVERT JUMPDEST POP GAS STATICCALL ISZERO DUP1 ISZERO PUSH2 0x273 JUMPI RETURNDATASIZE PUSH1 0x0 DUP1 RETURNDATACOPY RETURNDATASIZE PUSH1 0x0 REVERT JUMPDEST POP POP POP POP PUSH1 0x40 MLOAD RETURNDATASIZE PUSH1 0x1F NOT PUSH1 0x1F DUP3 ADD AND DUP3 ADD DUP1 PUSH1 0x40 MSTORE POP DUP2 ADD SWAP1 PUSH2 0x297 SWAP2 SWAP1 PUSH2 0x4606 JUMP JUMPDEST PUSH2 0xA93 JUMP JUMPDEST DUP1 DUP1 PUSH1 0x1 ADD SWAP2 POP POP PUSH2 0x1B0 JUMP JUMPDEST POP POP POP POP JUMP JUMPDEST DUP1 DUP1 TIMESTAMP GT ISZERO PUSH2 0x2EA JUMPI PUSH1 0x40 MLOAD PUSH32 0x70F65CAA00000000000000000000000000000000000000000000000000000000 DUP2 MSTORE PUSH1 0x4 ADD PUSH1 0x40 MLOAD DUP1 SWAP2 SUB SWAP1 REVERT JUMPDEST PUSH1 0x1 DUP5 MLOAD GT PUSH2 0x338 JUMPI PUSH2 0x333 DUP5 PUSH1 0x0 DUP2 MLOAD DUP2 LT PUSH2 0x30A JUMPI PUSH2 0x309 PUSH2 0x452D JUMP JUMPDEST JUMPDEST PUSH1 0x20 MUL PUSH1 0x20 ADD ADD MLOAD DUP5 PUSH1 0x0 DUP2 MLOAD DUP2 LT PUSH2 0x326 JUMPI PUSH2 0x325 PUSH2 0x452D JUMP JUMPDEST JUMPDEST PUSH1 0x20 MUL PUSH1 0x20 ADD ADD MLOAD PUSH2 0x801 JUMP JUMPDEST PUSH2 0x343 JUMP JUMPDEST PUSH2 0x342 DUP5 DUP5 PUSH2 0x349 JUMP JUMPDEST JUMPDEST POP POP POP POP JUMP JUMPDEST PUSH1 0x0 PUSH1 0x60 PUSH1 0x0 DUP1 PUSH1 0x0 DUP1 CALLVALUE SELFBALANCE PUSH2 0x35F SWAP2 SWAP1 PUSH2 0x4662 JUMP JUMPDEST SWAP1 POP PUSH1 0x0 JUMPDEST DUP8 MLOAD DUP2 LT ISZERO PUSH2 0x6F9 JUMPI PUSH1 0x0 DUP10 DUP3 DUP2 MLOAD DUP2 LT PUSH2 0x382 JUMPI PUSH2 0x381 PUSH2 0x452D JUMP JUMPDEST JUMPDEST PUSH1 0x20 MUL PUSH1 0x20 ADD ADD MLOAD PUSH1 0x0 DUP2 MLOAD DUP2 LT PUSH2 0x39D JUMPI PUSH2 0x39C PUSH2 0x452D JUMP JUMPDEST JUMPDEST PUSH1 0x20 ADD ADD MLOAD PUSH1 0xF8 SHR PUSH1 0xF8 SHL SWAP1 POP PUSH1 0x0 DUP10 DUP4 DUP2 MLOAD DUP2 LT PUSH2 0x3BF JUMPI PUSH2 0x3BE PUSH2 0x452D JUMP JUMPDEST JUMPDEST PUSH1 0x20 MUL PUSH1 0x20 ADD ADD MLOAD SWAP1 POP PUSH1 0x0 PUSH1 0x1F PUSH1 0xF8 SHL DUP4 AND SWAP1 POP PUSH1 0x0 DUP5 GT DUP1 ISZERO PUSH2 0x3E9 JUMPI POP PUSH2 0x3E8 DUP4 PUSH2 0xB2B JUMP JUMPDEST JUMPDEST ISZERO PUSH2 0x5FD JUMPI PUSH1 0x4 PUSH1 0xF8 SHL DUP2 PUSH31 0xFFFFFFFFFFFFFFFFFFFFFFFFFFFFFFFFFFFFFFFFFFFFFFFFFFFFFFFFFFFFFF NOT AND EQ ISZERO PUSH2 0x446 JUMPI PUSH2 0x441 DUP13 DUP6 DUP2 MLOAD DUP2 LT PUSH2 0x432 JUMPI PUSH2 0x431 PUSH2 0x452D JUMP JUMPDEST JUMPDEST PUSH1 0x20 MUL PUSH1 0x20 ADD ADD MLOAD PUSH1 0x1 PUSH2 0xB62 JUMP JUMPDEST PUSH2 0x486 JUMP JUMPDEST DUP12 DUP5 DUP2 MLOAD DUP2 LT PUSH2 0x459 JUMPI PUSH2 0x458 PUSH2 0x452D JUMP JUMPDEST JUMPDEST PUSH1 0x20 MUL PUSH1 0x20 ADD ADD MLOAD PUSH1 0x1 DUP2 MLOAD DUP2 LT PUSH2 0x474 JUMPI PUSH2 0x473 PUSH2 0x452D JUMP JUMPDEST JUMPDEST PUSH1 0x20 ADD ADD MLOAD PUSH1 0xF8 SHR PUSH1 0xF8 SHL PUSH1 0xF8 SHR PUSH1 0xFF AND JUMPDEST PUSH2 0xFFFF AND SWAP7 POP PUSH1 0x4 PUSH1 0xF8 SHL DUP2 PUSH31 0xFFFFFFFFFFFFFFFFFFFFFFFFFFFFFFFFFFFFFFFFFFFFFFFFFFFFFFFFFFFFFF NOT AND EQ ISZERO PUSH2 0x4E4 JUMPI PUSH2 0x4DF DUP13 DUP6 DUP2 MLOAD DUP2 LT PUSH2 0x4D0 JUMPI PUSH2 0x4CF PUSH2 0x452D JUMP JUMPDEST JUMPDEST PUSH1 0x20 MUL PUSH1 0x20 ADD ADD MLOAD PUSH1 0x3 PUSH2 0xB62 JUMP JUMPDEST PUSH2 0x524 JUMP JUMPDEST DUP12 DUP5 DUP2 MLOAD DUP2 LT PUSH2 0x4F7 JUMPI PUSH2 0x4F6 PUSH2 0x452D JUMP JUMPDEST JUMPDEST PUSH1 0x20 MUL PUSH1 0x20 ADD ADD MLOAD PUSH1 0x2 DUP2 MLOAD DUP2 LT PUSH2 0x512 JUMPI PUSH2 0x511 PUSH2 0x452D JUMP JUMPDEST JUMPDEST PUSH1 0x20 ADD ADD MLOAD PUSH1 0xF8 SHR PUSH1 0xF8 SHL PUSH1 0xF8 SHR PUSH1 0xFF AND JUMPDEST PUSH2 0xFFFF AND SWAP8 POP PUSH2 0x581 PUSH1 0x1F PUSH1 0xF8 SHL DUP14 PUSH1 0x1 DUP8 PUSH2 0x540 SWAP2 SWAP1 PUSH2 0x4662 JUMP JUMPDEST DUP2 MLOAD DUP2 LT PUSH2 0x551 JUMPI PUSH2 0x550 PUSH2 0x452D JUMP JUMPDEST JUMPDEST PUSH1 0x20 MUL PUSH1 0x20 ADD ADD MLOAD PUSH1 0x0 DUP2 MLOAD DUP2 LT PUSH2 0x56C JUMPI PUSH2 0x56B PUSH2 0x452D JUMP JUMPDEST JUMPDEST PUSH1 0x20 ADD ADD MLOAD PUSH1 0xF8 SHR PUSH1 0xF8 SHL AND DUP5 DUP11 DUP6 DUP14 PUSH2 0xB73 JUMP JUMPDEST SWAP2 POP PUSH1 0x5 PUSH1 0xF8 SHL DUP2 PUSH31 0xFFFFFFFFFFFFFFFFFFFFFFFFFFFFFFFFFFFFFFFFFFFFFFFFFFFFFFFFFFFFFF NOT AND GT DUP1 ISZERO PUSH2 0x5E4 JUMPI POP PUSH1 0x0 PUSH1 0xF8 SHL PUSH1 0x20 PUSH1 0xF8 SHL DUP5 AND PUSH31 0xFFFFFFFFFFFFFFFFFFFFFFFFFFFFFFFFFFFFFFFFFFFFFFFFFFFFFFFFFFFFFF NOT AND EQ ISZERO JUMPDEST ISZERO PUSH2 0x5F8 JUMPI DUP5 SELFBALANCE PUSH2 0x5F5 SWAP2 SWAP1 PUSH2 0x4662 JUMP JUMPDEST SWAP6 POP JUMPDEST PUSH2 0x648 JUMP JUMPDEST PUSH2 0x63B DUP13 DUP6 DUP2 MLOAD DUP2 LT PUSH2 0x613 JUMPI PUSH2 0x612 PUSH2 0x452D JUMP JUMPDEST JUMPDEST PUSH1 0x20 MUL PUSH1 0x20 ADD ADD MLOAD DUP13 DUP7 DUP2 MLOAD DUP2 LT PUSH2 0x62E JUMPI PUSH2 0x62D PUSH2 0x452D JUMP JUMPDEST JUMPDEST PUSH1 0x20 MUL PUSH1 0x20 ADD ADD MLOAD PUSH2 0xF03 JUMP JUMPDEST DUP1 SWAP5 POP DUP2 SWAP10 POP DUP3 SWAP11 POP POP POP POP JUMPDEST PUSH2 0x68E DUP4 DUP9 DUP11 DUP6 PUSH1 0x0 DUP10 EQ PUSH2 0x65D JUMPI DUP11 PUSH2 0x689 JUMP JUMPDEST PUSH1 0x0 CALLVALUE EQ PUSH2 0x685 JUMPI PUSH2 0x2710 PUSH2 0x270E CALLVALUE PUSH2 0x676 SWAP2 SWAP1 PUSH2 0x4696 JUMP JUMPDEST PUSH2 0x680 SWAP2 SWAP1 PUSH2 0x471F JUMP JUMPDEST PUSH2 0x688 JUMP JUMPDEST PUSH1 0x0 JUMPDEST JUMPDEST PUSH2 0x1214 JUMP JUMPDEST DUP1 SWAP11 POP DUP2 SWAP12 POP POP POP DUP10 PUSH2 0x6DC JUMPI DUP3 DUP5 DUP11 PUSH1 0x40 MLOAD PUSH32 0xAC70F6B300000000000000000000000000000000000000000000000000000000 DUP2 MSTORE PUSH1 0x4 ADD PUSH2 0x6D3 SWAP4 SWAP3 SWAP2 SWAP1 PUSH2 0x4822 JUMP JUMPDEST PUSH1 0x40 MLOAD DUP1 SWAP2 SUB SWAP1 REVERT JUMPDEST PUSH1 0x0 DUP7 EQ PUSH2 0x6E9 JUMPI PUSH1 0x0 SWAP6 POP JUMPDEST DUP4 DUP1 PUSH1 0x1 ADD SWAP5 POP POP POP POP POP PUSH2 0x364 JUMP JUMPDEST POP DUP1 SELFBALANCE LT ISZERO PUSH2 0x734 JUMPI PUSH1 0x40 MLOAD PUSH32 0xA01A9DF600000000000000000000000000000000000000000000000000000000 DUP2 MSTORE PUSH1 0x4 ADD PUSH1 0x40 MLOAD DUP1 SWAP2 SUB SWAP1 REVERT JUMPDEST POP POP POP POP POP POP POP POP JUMP JUMPDEST PUSH20 0xE9290C80B28DB1B3D9853AB1EE60C6630B87F57E PUSH20 0xFFFFFFFFFFFFFFFFFFFFFFFFFFFFFFFFFFFFFFFF AND CALLER PUSH20 0xFFFFFFFFFFFFFFFFFFFFFFFFFFFFFFFFFFFFFFFF AND EQ PUSH2 0x7B7 JUMPI PUSH1 0x40 MLOAD PUSH32 0x82B4290000000000000000000000000000000000000000000000000000000000 DUP2 MSTORE PUSH1 0x4 ADD PUSH1 0x40 MLOAD DUP1 SWAP2 SUB SWAP1 REVERT JUMPDEST DUP1 PUSH20 0xFFFFFFFFFFFFFFFFFFFFFFFFFFFFFFFFFFFFFFFF AND PUSH2 0x8FC SELFBALANCE SWAP1 DUP2 ISZERO MUL SWAP1 PUSH1 0x40 MLOAD PUSH1 0x0 PUSH1 0x40 MLOAD DUP1 DUP4 SUB DUP2 DUP6 DUP9 DUP9 CALL SWAP4 POP POP POP POP ISZERO DUP1 ISZERO PUSH2 0x7FD JUMPI RETURNDATASIZE PUSH1 0x0 DUP1 RETURNDATACOPY RETURNDATASIZE PUSH1 0x0 REVERT JUMPDEST POP POP JUMP JUMPDEST PUSH1 0x0 PUSH1 0x60 PUSH1 0x0 DUP1 PUSH1 0x0 CALLVALUE SELFBALANCE PUSH2 0x816 SWAP2 SWAP1 PUSH2 0x4662 JUMP JUMPDEST SWAP1 POP PUSH2 0x822 DUP8 DUP8 PUSH2 0xF03 JUMP JUMPDEST DUP1 SWAP9 POP DUP2 SWAP5 POP DUP3 SWAP6 POP POP POP POP PUSH2 0x883 DUP8 PUSH1 0x0 DUP2 MLOAD DUP2 LT PUSH2 0x845 JUMPI PUSH2 0x844 PUSH2 0x452D JUMP JUMPDEST JUMPDEST PUSH1 0x20 ADD ADD MLOAD PUSH1 0xF8 SHR PUSH1 0xF8 SHL DUP4 DUP6 DUP10 PUSH1 0x0 CALLVALUE EQ PUSH2 0x87B JUMPI PUSH2 0x2710 PUSH2 0x270E CALLVALUE PUSH2 0x86C SWAP2 SWAP1 PUSH2 0x4696 JUMP JUMPDEST PUSH2 0x876 SWAP2 SWAP1 PUSH2 0x471F JUMP JUMPDEST PUSH2 0x87E JUMP JUMPDEST PUSH1 0x0 JUMPDEST PUSH2 0x1214 JUMP JUMPDEST DUP1 SWAP6 POP DUP2 SWAP7 POP POP POP DUP5 PUSH2 0x8F0 JUMPI DUP7 PUSH1 0x0 DUP2 MLOAD DUP2 LT PUSH2 0x8A4 JUMPI PUSH2 0x8A3 PUSH2 0x452D JUMP JUMPDEST JUMPDEST PUSH1 0x20 ADD ADD MLOAD PUSH1 0xF8 SHR PUSH1 0xF8 SHL PUSH1 0x0 DUP6 PUSH1 0x40 MLOAD PUSH32 0xAC70F6B300000000000000000000000000000000000000000000000000000000 DUP2 MSTORE PUSH1 0x4 ADD PUSH2 0x8E7 SWAP4 SWAP3 SWAP2 SWAP1 PUSH2 0x48A5 JUMP JUMPDEST PUSH1 0x40 MLOAD DUP1 SWAP2 SUB SWAP1 REVERT JUMPDEST DUP1 SELFBALANCE LT ISZERO PUSH2 0x92A JUMPI PUSH1 0x40 MLOAD PUSH32 0xA01A9DF600000000000000000000000000000000000000000000000000000000 DUP2 MSTORE PUSH1 0x4 ADD PUSH1 0x40 MLOAD DUP1 SWAP2 SUB SWAP1 REVERT JUMPDEST POP POP POP POP POP POP POP JUMP JUMPDEST PUSH1 0x0 DUP5 SGT DUP1 PUSH2 0x942 JUMPI POP PUSH1 0x0 DUP4 SGT JUMPDEST PUSH2 0x94B JUMPI PUSH1 0x0 DUP1 REVERT JUMPDEST PUSH1 0x0 DUP1 PUSH1 0x0 PUSH2 0x99D DUP6 DUP6 DUP1 DUP1 PUSH1 0x1F ADD PUSH1 0x20 DUP1 SWAP2 DIV MUL PUSH1 0x20 ADD PUSH1 0x40 MLOAD SWAP1 DUP2 ADD PUSH1 0x40 MSTORE DUP1 SWAP4 SWAP3 SWAP2 SWAP1 DUP2 DUP2 MSTORE PUSH1 0x20 ADD DUP4 DUP4 DUP1 DUP3 DUP5 CALLDATACOPY PUSH1 0x0 DUP2 DUP5 ADD MSTORE PUSH1 0x1F NOT PUSH1 0x1F DUP3 ADD AND SWAP1 POP DUP1 DUP4 ADD SWAP3 POP POP POP POP POP POP POP PUSH2 0x1CC1 JUMP JUMPDEST SWAP3 POP SWAP3 POP SWAP3 POP PUSH1 0x0 PUSH20 0xFFFFFFFFFFFFFFFFFFFFFFFFFFFFFFFFFFFFFFFF AND DUP4 PUSH20 0xFFFFFFFFFFFFFFFFFFFFFFFFFFFFFFFFFFFFFFFF AND EQ PUSH2 0x9DD JUMPI DUP3 PUSH2 0x9FF JUMP JUMPDEST PUSH32 0x0 JUMPDEST SWAP3 POP PUSH2 0xA0C DUP4 DUP4 DUP4 PUSH2 0x1CF4 JUMP JUMPDEST PUSH20 0xFFFFFFFFFFFFFFFFFFFFFFFFFFFFFFFFFFFFFFFF AND CALLER PUSH20 0xFFFFFFFFFFFFFFFFFFFFFFFFFFFFFFFFFFFFFFFF AND EQ PUSH2 0xA70 JUMPI PUSH1 0x40 MLOAD PUSH32 0xB2C0272200000000000000000000000000000000000000000000000000000000 DUP2 MSTORE PUSH1 0x4 ADD PUSH1 0x40 MLOAD DUP1 SWAP2 SUB SWAP1 REVERT JUMPDEST PUSH2 0xA8A DUP4 CALLER PUSH1 0x0 DUP11 SGT PUSH2 0xA83 JUMPI DUP9 PUSH2 0xA85 JUMP JUMPDEST DUP10 JUMPDEST PUSH2 0xA93 JUMP JUMPDEST POP POP POP POP POP POP POP JUMP JUMPDEST PUSH1 0x0 PUSH1 0x40 MLOAD PUSH32 0xA9059CBB00000000000000000000000000000000000000000000000000000000 DUP2 MSTORE DUP4 PUSH1 0x4 DUP3 ADD MSTORE DUP3 PUSH1 0x24 DUP3 ADD MSTORE PUSH1 0x20 PUSH1 0x0 PUSH1 0x44 DUP4 PUSH1 0x0 DUP10 GAS CALL RETURNDATASIZE ISZERO PUSH1 0x1F RETURNDATASIZE GT PUSH1 0x1 PUSH1 0x0 MLOAD EQ AND OR AND SWAP2 POP POP DUP1 PUSH2 0xB25 JUMPI PUSH1 0x40 MLOAD PUSH32 0x8C379A000000000000000000000000000000000000000000000000000000000 DUP2 MSTORE PUSH1 0x4 ADD PUSH2 0xB1C SWAP1 PUSH2 0x4940 JUMP JUMPDEST PUSH1 0x40 MLOAD DUP1 SWAP2 SUB SWAP1 REVERT JUMPDEST POP POP POP POP JUMP JUMPDEST PUSH1 0x0 DUP1 PUSH1 0xF8 SHL PUSH1 0x40 PUSH1 0xF8 SHL DUP4 AND PUSH31 0xFFFFFFFFFFFFFFFFFFFFFFFFFFFFFFFFFFFFFFFFFFFFFFFFFFFFFFFFFFFFFF NOT AND EQ SWAP1 POP SWAP2 SWAP1 POP JUMP JUMPDEST PUSH1 0x0 DUP2 PUSH1 0x2 DUP5 ADD ADD MLOAD SWAP1 POP SWAP3 SWAP2 POP POP JUMP JUMPDEST PUSH1 0x60 PUSH1 0xA PUSH1 0xF8 SHL PUSH1 0x1F PUSH1 0xF8 SHL DUP7 AND PUSH31 0xFFFFFFFFFFFFFFFFFFFFFFFFFFFFFFFFFFFFFFFFFFFFFFFFFFFFFFFFFFFFFF NOT AND GT DUP1 ISZERO PUSH2 0xBDC JUMPI POP PUSH1 0x0 PUSH1 0xF8 SHL PUSH1 0x20 PUSH1 0xF8 SHL DUP7 AND PUSH31 0xFFFFFFFFFFFFFFFFFFFFFFFFFFFFFFFFFFFFFFFFFFFFFFFFFFFFFFFFFFFFFF NOT AND EQ ISZERO JUMPDEST ISZERO PUSH2 0xBE9 JUMPI DUP3 SWAP1 POP PUSH2 0xEFA JUMP JUMPDEST PUSH1 0x0 PUSH1 0x4 PUSH1 0xF8 SHL DUP8 PUSH31 0xFFFFFFFFFFFFFFFFFFFFFFFFFFFFFFFFFFFFFFFFFFFFFFFFFFFFFFFFFFFFFF NOT AND EQ DUP1 ISZERO PUSH2 0xC21 JUMPI POP PUSH1 0x20 DUP4 MLOAD GT JUMPDEST ISZERO PUSH2 0xC75 JUMPI PUSH2 0xC33 DUP4 PUSH1 0x40 PUSH1 0x20 PUSH2 0x1DD9 JUMP JUMPDEST DUP1 PUSH1 0x20 ADD SWAP1 MLOAD DUP2 ADD SWAP1 PUSH2 0xC46 SWAP2 SWAP1 PUSH2 0x4975 JUMP JUMPDEST PUSH2 0xC4F SWAP1 PUSH2 0x49A2 JUMP JUMPDEST PUSH1 0x40 MLOAD PUSH1 0x20 ADD PUSH2 0xC5F SWAP2 SWAP1 PUSH2 0x49EB JUMP JUMPDEST PUSH1 0x40 MLOAD PUSH1 0x20 DUP2 DUP4 SUB SUB DUP2 MSTORE SWAP1 PUSH1 0x40 MSTORE SWAP3 POP PUSH2 0xD88 JUMP JUMPDEST PUSH1 0x0 PUSH1 0xF8 SHL DUP8 PUSH31 0xFFFFFFFFFFFFFFFFFFFFFFFFFFFFFFFFFFFFFFFFFFFFFFFFFFFFFFFFFFFFFF NOT AND GT DUP1 ISZERO PUSH2 0xCCF JUMPI POP PUSH1 0x5 PUSH1 0xF8 SHL DUP8 PUSH31 0xFFFFFFFFFFFFFFFFFFFFFFFFFFFFFFFFFFFFFFFFFFFFFFFFFFFFFFFFFFFFFF NOT AND LT JUMPDEST ISZERO PUSH2 0xCD9 JUMPI PUSH2 0xD87 JUMP JUMPDEST PUSH1 0x0 PUSH1 0xF8 SHL DUP8 PUSH31 0xFFFFFFFFFFFFFFFFFFFFFFFFFFFFFFFFFFFFFFFFFFFFFFFFFFFFFFFFFFFFFF NOT AND EQ ISZERO PUSH2 0xD1C JUMPI PUSH1 0x20 DUP4 MLOAD PUSH2 0xD15 SWAP2 SWAP1 PUSH2 0x4662 JUMP JUMPDEST SWAP1 POP PUSH2 0xD86 JUMP JUMPDEST PUSH1 0x5 PUSH1 0xF8 SHL DUP8 PUSH31 0xFFFFFFFFFFFFFFFFFFFFFFFFFFFFFFFFFFFFFFFFFFFFFFFFFFFFFFFFFFFFFF NOT AND EQ ISZERO PUSH2 0xD53 JUMPI PUSH1 0x44 SWAP1 POP PUSH2 0xD85 JUMP JUMPDEST PUSH1 0x40 MLOAD PUSH32 0x12F269E500000000000000000000000000000000000000000000000000000000 DUP2 MSTORE PUSH1 0x4 ADD PUSH1 0x40 MLOAD DUP1 SWAP2 SUB SWAP1 REVERT JUMPDEST JUMPDEST JUMPDEST JUMPDEST PUSH1 0x4 PUSH1 0xF8 SHL PUSH1 0x1F PUSH1 0xF8 SHL DUP8 AND PUSH31 0xFFFFFFFFFFFFFFFFFFFFFFFFFFFFFFFFFFFFFFFFFFFFFFFFFFFFFFFFFFFFFF NOT AND EQ DUP1 ISZERO PUSH2 0xDEF JUMPI POP PUSH1 0x0 PUSH1 0xF8 SHL PUSH1 0x20 PUSH1 0xF8 SHL DUP8 AND PUSH31 0xFFFFFFFFFFFFFFFFFFFFFFFFFFFFFFFFFFFFFFFFFFFFFFFFFFFFFFFFFFFFFF NOT AND EQ ISZERO JUMPDEST ISZERO PUSH2 0xE9C JUMPI PUSH1 0x0 PUSH2 0xE0C DUP6 PUSH1 0x40 DUP9 PUSH2 0xE07 SWAP2 SWAP1 PUSH2 0x4662 JUMP JUMPDEST PUSH2 0x1E32 JUMP JUMPDEST PUSH1 0x20 PUSH2 0xE18 SWAP2 SWAP1 PUSH2 0x4696 JUMP JUMPDEST PUSH1 0x24 PUSH2 0xE25 DUP8 PUSH1 0xE4 PUSH2 0x1E32 JUMP JUMPDEST PUSH2 0xE2F SWAP2 SWAP1 PUSH2 0x4A06 JUMP JUMPDEST PUSH2 0xE39 SWAP2 SWAP1 PUSH2 0x4A06 JUMP JUMPDEST SWAP1 POP PUSH1 0x0 PUSH2 0xE80 PUSH2 0xE4C DUP7 DUP6 PUSH1 0x20 PUSH2 0x1DD9 JUMP JUMPDEST PUSH2 0xE7B DUP9 PUSH1 0x20 DUP7 PUSH2 0xE5D SWAP2 SWAP1 PUSH2 0x4A06 JUMP JUMPDEST PUSH1 0x20 DUP8 DUP13 MLOAD PUSH2 0xE6C SWAP2 SWAP1 PUSH2 0x4662 JUMP JUMPDEST PUSH2 0xE76 SWAP2 SWAP1 PUSH2 0x4662 JUMP JUMPDEST PUSH2 0x1DD9 JUMP JUMPDEST PUSH2 0x1E43 JUMP JUMPDEST SWAP1 POP PUSH2 0xE97 PUSH2 0xE91 DUP8 PUSH1 0x0 DUP6 PUSH2 0x1DD9 JUMP JUMPDEST DUP3 PUSH2 0x1E43 JUMP JUMPDEST SWAP6 POP POP POP JUMPDEST PUSH2 0xEA8 DUP5 PUSH1 0x0 DUP8 PUSH2 0x1DD9 JUMP JUMPDEST SWAP2 POP PUSH2 0xEF6 DUP3 PUSH2 0xEF1 PUSH2 0xEBD DUP7 DUP6 PUSH1 0x20 PUSH2 0x1DD9 JUMP JUMPDEST PUSH2 0xEEC DUP9 PUSH1 0x20 DUP12 PUSH2 0xECE SWAP2 SWAP1 PUSH2 0x4A06 JUMP JUMPDEST PUSH1 0x20 DUP13 DUP13 MLOAD PUSH2 0xEDD SWAP2 SWAP1 PUSH2 0x4662 JUMP JUMPDEST PUSH2 0xEE7 SWAP2 SWAP1 PUSH2 0x4662 JUMP JUMPDEST PUSH2 0x1DD9 JUMP JUMPDEST PUSH2 0x1E43 JUMP JUMPDEST PUSH2 0x1E43 JUMP JUMPDEST SWAP2 POP POP JUMPDEST SWAP6 SWAP5 POP POP POP POP POP JUMP JUMPDEST PUSH1 0x0 DUP1 PUSH1 0x60 PUSH1 0x0 PUSH1 0x1F PUSH1 0xF8 SHL DUP7 PUSH1 0x0 DUP2 MLOAD DUP2 LT PUSH2 0xF23 JUMPI PUSH2 0xF22 PUSH2 0x452D JUMP JUMPDEST JUMPDEST PUSH1 0x20 ADD ADD MLOAD PUSH1 0xF8 SHR PUSH1 0xF8 SHL AND PUSH1 0xF8 SHR PUSH1 0xFF AND SWAP1 POP PUSH1 0x4 DUP2 EQ PUSH2 0xF92 JUMPI DUP6 PUSH1 0x1 DUP2 MLOAD DUP2 LT PUSH2 0xF53 JUMPI PUSH2 0xF52 PUSH2 0x452D JUMP JUMPDEST JUMPDEST PUSH1 0x20 ADD ADD MLOAD PUSH1 0xF8 SHR PUSH1 0xF8 SHL PUSH1 0xF8 SHR PUSH1 0xFF AND SWAP3 POP DUP6 PUSH1 0x2 DUP2 MLOAD DUP2 LT PUSH2 0xF7A JUMPI PUSH2 0xF79 PUSH2 0x452D JUMP JUMPDEST JUMPDEST PUSH1 0x20 ADD ADD MLOAD PUSH1 0xF8 SHR PUSH1 0xF8 SHL PUSH1 0xF8 SHR PUSH1 0xFF AND SWAP4 POP PUSH2 0x10FE JUMP JUMPDEST PUSH1 0x0 PUSH1 0xF8 SHL PUSH1 0x20 PUSH1 0xF8 SHL DUP8 PUSH1 0x0 DUP2 MLOAD DUP2 LT PUSH2 0xFB0 JUMPI PUSH2 0xFAF PUSH2 0x452D JUMP JUMPDEST JUMPDEST PUSH1 0x20 ADD ADD MLOAD PUSH1 0xF8 SHR PUSH1 0xF8 SHL AND PUSH31 0xFFFFFFFFFFFFFFFFFFFFFFFFFFFFFFFFFFFFFFFFFFFFFFFFFFFFFFFFFFFFFF NOT AND EQ ISZERO PUSH2 0xFF3 JUMPI PUSH2 0x130 SWAP3 POP PUSH2 0x164 SWAP4 POP PUSH2 0x10FD JUMP JUMPDEST PUSH1 0x14 DUP6 MLOAD PUSH2 0x1001 SWAP2 SWAP1 PUSH2 0x4662 JUMP JUMPDEST SWAP3 POP PUSH2 0x100F DUP6 PUSH2 0x144 PUSH2 0x1E32 JUMP JUMPDEST PUSH2 0x1A4 PUSH2 0x101C SWAP2 SWAP1 PUSH2 0x4A06 JUMP JUMPDEST SWAP4 POP PUSH1 0x0 PUSH2 0x1036 DUP7 PUSH1 0x40 DUP8 PUSH2 0x1031 SWAP2 SWAP1 PUSH2 0x4662 JUMP JUMPDEST PUSH2 0x1E32 JUMP JUMPDEST PUSH1 0x20 PUSH2 0x1042 SWAP2 SWAP1 PUSH2 0x4696 JUMP JUMPDEST PUSH1 0x24 PUSH2 0x104F DUP9 PUSH1 0xE4 PUSH2 0x1E32 JUMP JUMPDEST PUSH2 0x1059 SWAP2 SWAP1 PUSH2 0x4A06 JUMP JUMPDEST PUSH2 0x1063 SWAP2 SWAP1 PUSH2 0x4A06 JUMP JUMPDEST SWAP1 POP PUSH1 0x0 PUSH2 0x10E1 PUSH2 0x2710 PUSH2 0x270E PUSH2 0x107A DUP11 DUP7 PUSH2 0x1E32 JUMP JUMPDEST PUSH2 0x1084 SWAP2 SWAP1 PUSH2 0x4696 JUMP JUMPDEST PUSH2 0x108E SWAP2 SWAP1 PUSH2 0x471F JUMP JUMPDEST PUSH1 0x40 MLOAD PUSH1 0x20 ADD PUSH2 0x109E SWAP2 SWAP1 PUSH2 0x49EB JUMP JUMPDEST PUSH1 0x40 MLOAD PUSH1 0x20 DUP2 DUP4 SUB SUB DUP2 MSTORE SWAP1 PUSH1 0x40 MSTORE PUSH2 0x10DC DUP10 PUSH1 0x20 DUP7 PUSH2 0x10BE SWAP2 SWAP1 PUSH2 0x4A06 JUMP JUMPDEST PUSH1 0x20 DUP8 DUP14 MLOAD PUSH2 0x10CD SWAP2 SWAP1 PUSH2 0x4662 JUMP JUMPDEST PUSH2 0x10D7 SWAP2 SWAP1 PUSH2 0x4662 JUMP JUMPDEST PUSH2 0x1DD9 JUMP JUMPDEST PUSH2 0x1E43 JUMP JUMPDEST SWAP1 POP PUSH2 0x10F8 PUSH2 0x10F2 DUP9 PUSH1 0x0 DUP6 PUSH2 0x1DD9 JUMP JUMPDEST DUP3 PUSH2 0x1E43 JUMP JUMPDEST SWAP7 POP POP POP JUMPDEST JUMPDEST PUSH1 0xA DUP2 GT DUP1 ISZERO PUSH2 0x110E JUMPI POP PUSH1 0x0 CALLVALUE GT JUMPDEST ISZERO PUSH2 0x1122 JUMPI DUP4 DUP4 DUP7 SWAP4 POP SWAP4 POP SWAP4 POP POP PUSH2 0x120D JUMP JUMPDEST PUSH1 0x0 PUSH2 0x112E DUP7 DUP7 PUSH2 0x1E32 JUMP JUMPDEST SWAP1 POP PUSH1 0x0 CALLVALUE EQ ISZERO PUSH2 0x114F JUMPI PUSH2 0x114E PUSH2 0x1146 DUP8 DUP7 PUSH2 0x1ECD JUMP JUMPDEST CALLER ADDRESS DUP5 PUSH2 0x1EDE JUMP JUMPDEST JUMPDEST PUSH1 0x0 PUSH2 0x11C2 PUSH2 0x2710 PUSH2 0x270E DUP5 PUSH2 0x1165 SWAP2 SWAP1 PUSH2 0x4696 JUMP JUMPDEST PUSH2 0x116F SWAP2 SWAP1 PUSH2 0x471F JUMP JUMPDEST PUSH1 0x40 MLOAD PUSH1 0x20 ADD PUSH2 0x117F SWAP2 SWAP1 PUSH2 0x49EB JUMP JUMPDEST PUSH1 0x40 MLOAD PUSH1 0x20 DUP2 DUP4 SUB SUB DUP2 MSTORE SWAP1 PUSH1 0x40 MSTORE PUSH2 0x11BD DUP10 PUSH1 0x20 DUP11 PUSH2 0x119F SWAP2 SWAP1 PUSH2 0x4A06 JUMP JUMPDEST PUSH1 0x20 DUP12 DUP14 MLOAD PUSH2 0x11AE SWAP2 SWAP1 PUSH2 0x4662 JUMP JUMPDEST PUSH2 0x11B8 SWAP2 SWAP1 PUSH2 0x4662 JUMP JUMPDEST PUSH2 0x1DD9 JUMP JUMPDEST PUSH2 0x1E43 JUMP JUMPDEST SWAP1 POP PUSH1 0x1 DUP4 EQ DUP1 PUSH2 0x11D3 JUMPI POP PUSH1 0x2 DUP4 EQ JUMPDEST ISZERO PUSH2 0x11E9 JUMPI DUP6 DUP6 DUP3 SWAP6 POP SWAP6 POP SWAP6 POP POP POP POP PUSH2 0x120D JUMP JUMPDEST PUSH2 0x11FE PUSH2 0x11F8 DUP9 PUSH1 0x0 DUP10 PUSH2 0x1DD9 JUMP JUMPDEST DUP3 PUSH2 0x1E43 JUMP JUMPDEST SWAP7 POP DUP6 DUP6 DUP9 SWAP6 POP SWAP6 POP SWAP6 POP POP POP POP JUMPDEST SWAP3 POP SWAP3 POP SWAP3 JUMP JUMPDEST PUSH1 0x0 PUSH1 0x60 PUSH1 0x0 PUSH1 0x1F PUSH1 0xF8 SHL DUP9 AND PUSH1 0xF8 SHR PUSH1 0xFF AND SWAP1 POP PUSH1 0x6 DUP2 LT ISZERO PUSH2 0x1525 JUMPI PUSH1 0x3 DUP2 LT ISZERO PUSH2 0x1378 JUMPI PUSH1 0x1 DUP2 EQ ISZERO PUSH2 0x126C JUMPI PUSH2 0x1261 DUP6 PUSH2 0x1252 DUP8 DUP11 PUSH2 0x1ECD JUMP JUMPDEST PUSH2 0x125C DUP9 DUP11 PUSH2 0x1E32 JUMP JUMPDEST PUSH2 0x1F7D JUMP JUMPDEST SWAP2 POP PUSH1 0x1 SWAP3 POP PUSH2 0x1373 JUMP JUMPDEST PUSH1 0x2 DUP2 EQ ISZERO PUSH2 0x129D JUMPI PUSH2 0x1292 DUP6 PUSH2 0x1283 DUP8 DUP11 PUSH2 0x1ECD JUMP JUMPDEST PUSH2 0x128D DUP9 DUP11 PUSH2 0x1E32 JUMP JUMPDEST PUSH2 0x2868 JUMP JUMPDEST SWAP2 POP PUSH1 0x1 SWAP3 POP PUSH2 0x1372 JUMP JUMPDEST PUSH1 0x0 DUP2 EQ ISZERO PUSH2 0x1371 JUMPI PUSH1 0x0 PUSH2 0x12BF DUP7 PUSH1 0x1 DUP9 MLOAD PUSH2 0x12BA SWAP2 SWAP1 PUSH2 0x4662 JUMP JUMPDEST PUSH2 0x2D14 JUMP JUMPDEST PUSH1 0xFF AND SWAP1 POP PUSH2 0x1367 PUSH1 0x0 DUP3 EQ PUSH2 0x1324 JUMPI PUSH1 0x1 DUP3 EQ PUSH2 0x12FD JUMPI PUSH32 0x0 PUSH2 0x131F JUMP JUMPDEST PUSH32 0x0 JUMPDEST PUSH2 0x1346 JUMP JUMPDEST PUSH32 0x0 JUMPDEST DUP10 DUP10 DUP9 PUSH2 0x1362 DUP12 PUSH1 0x0 PUSH1 0x1 DUP15 MLOAD PUSH2 0x135D SWAP2 SWAP1 PUSH2 0x4662 JUMP JUMPDEST PUSH2 0x1DD9 JUMP JUMPDEST PUSH2 0x2D25 JUMP JUMPDEST DUP1 SWAP5 POP DUP2 SWAP6 POP POP POP POP JUMPDEST JUMPDEST JUMPDEST PUSH2 0x1520 JUMP JUMPDEST PUSH1 0x3 DUP2 EQ ISZERO PUSH2 0x13A9 JUMPI PUSH2 0x139E DUP6 PUSH2 0x138F DUP8 DUP11 PUSH2 0x1ECD JUMP JUMPDEST PUSH2 0x1399 DUP9 DUP11 PUSH2 0x1E32 JUMP JUMPDEST PUSH2 0x2DCB JUMP JUMPDEST SWAP2 POP PUSH1 0x1 SWAP3 POP PUSH2 0x151F JUMP JUMPDEST PUSH1 0x4 DUP2 EQ ISZERO PUSH2 0x14DE JUMPI PUSH1 0x0 DUP5 EQ ISZERO PUSH2 0x13F9 JUMPI PUSH2 0x13F8 PUSH2 0x13C8 DUP7 DUP10 PUSH2 0x1ECD JUMP JUMPDEST PUSH32 0x0 PUSH2 0x13F3 DUP9 DUP11 PUSH2 0x1E32 JUMP JUMPDEST PUSH2 0x345E JUMP JUMPDEST JUMPDEST PUSH1 0x0 PUSH1 0xF8 SHL PUSH1 0x20 PUSH1 0xF8 SHL DUP10 AND PUSH31 0xFFFFFFFFFFFFFFFFFFFFFFFFFFFFFFFFFFFFFFFFFFFFFFFFFFFFFFFFFFFFFF NOT AND EQ PUSH2 0x1448 JUMPI PUSH2 0x1445 DUP6 PUSH1 0x0 PUSH1 0x14 DUP9 MLOAD PUSH2 0x1440 SWAP2 SWAP1 PUSH2 0x4662 JUMP JUMPDEST PUSH2 0x1DD9 JUMP JUMPDEST SWAP5 POP JUMPDEST PUSH32 0x0 PUSH20 0xFFFFFFFFFFFFFFFFFFFFFFFFFFFFFFFFFFFFFFFF AND DUP5 DUP7 PUSH1 0x40 MLOAD PUSH2 0x148E SWAP2 SWAP1 PUSH2 0x4A98 JUMP JUMPDEST PUSH1 0x0 PUSH1 0x40 MLOAD DUP1 DUP4 SUB DUP2 DUP6 DUP8 GAS CALL SWAP3 POP POP POP RETURNDATASIZE DUP1 PUSH1 0x0 DUP2 EQ PUSH2 0x14CB JUMPI PUSH1 0x40 MLOAD SWAP2 POP PUSH1 0x1F NOT PUSH1 0x3F RETURNDATASIZE ADD AND DUP3 ADD PUSH1 0x40 MSTORE RETURNDATASIZE DUP3 MSTORE RETURNDATASIZE PUSH1 0x0 PUSH1 0x20 DUP5 ADD RETURNDATACOPY PUSH2 0x14D0 JUMP JUMPDEST PUSH1 0x60 SWAP2 POP JUMPDEST POP DUP1 SWAP4 POP DUP2 SWAP5 POP POP POP PUSH2 0x151E JUMP JUMPDEST PUSH1 0x5 DUP2 EQ ISZERO PUSH2 0x151D JUMPI PUSH2 0x1514 PUSH32 0x0 DUP9 DUP9 DUP8 DUP10 PUSH2 0x2D25 JUMP JUMPDEST DUP1 SWAP4 POP DUP2 SWAP5 POP POP POP JUMPDEST JUMPDEST JUMPDEST JUMPDEST PUSH2 0x1CB6 JUMP JUMPDEST PUSH1 0xF DUP2 LT ISZERO PUSH2 0x1B49 JUMPI PUSH1 0xA DUP2 LT ISZERO PUSH2 0x17E6 JUMPI PUSH1 0x6 DUP2 EQ ISZERO PUSH2 0x1719 JUMPI PUSH1 0x0 PUSH2 0x1559 DUP7 PUSH1 0x1 DUP9 MLOAD PUSH2 0x1554 SWAP2 SWAP1 PUSH2 0x4662 JUMP JUMPDEST PUSH2 0x2D14 JUMP JUMPDEST PUSH1 0xFF AND SWAP1 POP PUSH1 0x0 PUSH1 0x3 DUP3 LT PUSH2 0x15EC JUMPI PUSH1 0x3 DUP3 EQ PUSH2 0x15C5 JUMPI PUSH1 0x4 DUP3 EQ PUSH2 0x159E JUMPI PUSH32 0x0 PUSH2 0x15C0 JUMP JUMPDEST PUSH32 0x0 JUMPDEST PUSH2 0x15E7 JUMP JUMPDEST PUSH32 0x0 JUMPDEST PUSH2 0x166C JUMP JUMPDEST PUSH1 0x0 DUP3 EQ PUSH2 0x1649 JUMPI PUSH1 0x1 DUP3 EQ PUSH2 0x1622 JUMPI PUSH32 0x0 PUSH2 0x1644 JUMP JUMPDEST PUSH32 0x0 JUMPDEST PUSH2 0x166B JUMP JUMPDEST PUSH32 0x0 JUMPDEST JUMPDEST SWAP1 POP PUSH1 0x0 DUP7 EQ ISZERO PUSH2 0x1695 JUMPI PUSH2 0x1694 PUSH2 0x1684 DUP9 DUP12 PUSH2 0x1ECD JUMP JUMPDEST DUP3 PUSH2 0x168F DUP11 DUP13 PUSH2 0x1E32 JUMP JUMPDEST PUSH2 0x345E JUMP JUMPDEST JUMPDEST DUP1 PUSH20 0xFFFFFFFFFFFFFFFFFFFFFFFFFFFFFFFFFFFFFFFF AND DUP7 PUSH2 0x16BA DUP10 PUSH1 0x0 PUSH1 0xF8 PUSH2 0x1DD9 JUMP JUMPDEST PUSH1 0x40 MLOAD PUSH2 0x16C7 SWAP2 SWAP1 PUSH2 0x4A98 JUMP JUMPDEST PUSH1 0x0 PUSH1 0x40 MLOAD DUP1 DUP4 SUB DUP2 DUP6 DUP8 GAS CALL SWAP3 POP POP POP RETURNDATASIZE DUP1 PUSH1 0x0 DUP2 EQ PUSH2 0x1704 JUMPI PUSH1 0x40 MLOAD SWAP2 POP PUSH1 0x1F NOT PUSH1 0x3F RETURNDATASIZE ADD AND DUP3 ADD PUSH1 0x40 MSTORE RETURNDATASIZE DUP3 MSTORE RETURNDATASIZE PUSH1 0x0 PUSH1 0x20 DUP5 ADD RETURNDATACOPY PUSH2 0x1709 JUMP JUMPDEST PUSH1 0x60 SWAP2 POP JUMPDEST POP DUP1 SWAP6 POP DUP2 SWAP7 POP POP POP POP POP PUSH2 0x17E1 JUMP JUMPDEST PUSH1 0x7 DUP2 EQ ISZERO PUSH2 0x175C JUMPI PUSH2 0x174F PUSH32 0x0 DUP9 DUP9 DUP8 DUP10 PUSH2 0x2D25 JUMP JUMPDEST DUP1 SWAP4 POP DUP2 SWAP5 POP POP POP PUSH2 0x17E0 JUMP JUMPDEST PUSH1 0x8 DUP2 EQ ISZERO PUSH2 0x179F JUMPI PUSH2 0x1792 PUSH32 0x0 DUP9 DUP9 DUP8 DUP10 PUSH2 0x2D25 JUMP JUMPDEST DUP1 SWAP4 POP DUP2 SWAP5 POP POP POP PUSH2 0x17DF JUMP JUMPDEST PUSH1 0x9 DUP2 EQ ISZERO PUSH2 0x17DE JUMPI PUSH2 0x17D5 PUSH32 0x0 DUP9 DUP9 DUP8 DUP10 PUSH2 0x2D25 JUMP JUMPDEST DUP1 SWAP4 POP DUP2 SWAP5 POP POP POP JUMPDEST JUMPDEST JUMPDEST JUMPDEST PUSH2 0x1B44 JUMP JUMPDEST PUSH1 0xC DUP2 EQ ISZERO PUSH2 0x196D JUMPI PUSH1 0x0 DUP5 EQ ISZERO PUSH2 0x18D6 JUMPI PUSH2 0x1835 PUSH2 0x1805 DUP7 DUP10 PUSH2 0x1ECD JUMP JUMPDEST PUSH32 0x0 PUSH2 0x1830 DUP9 DUP11 PUSH2 0x1E32 JUMP JUMPDEST PUSH2 0x345E JUMP JUMPDEST PUSH32 0x0 PUSH20 0xFFFFFFFFFFFFFFFFFFFFFFFFFFFFFFFFFFFFFFFF AND PUSH2 0x1879 DUP7 PUSH1 0x0 PUSH1 0x90 PUSH2 0x1DD9 JUMP JUMPDEST PUSH1 0x40 MLOAD PUSH2 0x1886 SWAP2 SWAP1 PUSH2 0x4A98 JUMP JUMPDEST PUSH1 0x0 PUSH1 0x40 MLOAD DUP1 DUP4 SUB DUP2 PUSH1 0x0 DUP7 GAS CALL SWAP2 POP POP RETURNDATASIZE DUP1 PUSH1 0x0 DUP2 EQ PUSH2 0x18C3 JUMPI PUSH1 0x40 MLOAD SWAP2 POP PUSH1 0x1F NOT PUSH1 0x3F RETURNDATASIZE ADD AND DUP3 ADD PUSH1 0x40 MSTORE RETURNDATASIZE DUP3 MSTORE RETURNDATASIZE PUSH1 0x0 PUSH1 0x20 DUP5 ADD RETURNDATACOPY PUSH2 0x18C8 JUMP JUMPDEST PUSH1 0x60 SWAP2 POP JUMPDEST POP DUP1 SWAP4 POP DUP2 SWAP5 POP POP POP PUSH2 0x1968 JUMP JUMPDEST PUSH32 0x0 PUSH20 0xFFFFFFFFFFFFFFFFFFFFFFFFFFFFFFFFFFFFFFFF AND DUP5 DUP7 PUSH1 0x40 MLOAD PUSH2 0x191C SWAP2 SWAP1 PUSH2 0x4A98 JUMP JUMPDEST PUSH1 0x0 PUSH1 0x40 MLOAD DUP1 DUP4 SUB DUP2 DUP6 DUP8 GAS CALL SWAP3 POP POP POP RETURNDATASIZE DUP1 PUSH1 0x0 DUP2 EQ PUSH2 0x1959 JUMPI PUSH1 0x40 MLOAD SWAP2 POP PUSH1 0x1F NOT PUSH1 0x3F RETURNDATASIZE ADD AND DUP3 ADD PUSH1 0x40 MSTORE RETURNDATASIZE DUP3 MSTORE RETURNDATASIZE PUSH1 0x0 PUSH1 0x20 DUP5 ADD RETURNDATACOPY PUSH2 0x195E JUMP JUMPDEST PUSH1 0x60 SWAP2 POP JUMPDEST POP DUP1 SWAP4 POP DUP2 SWAP5 POP POP POP JUMPDEST PUSH2 0x1B43 JUMP JUMPDEST PUSH1 0xD DUP2 EQ ISZERO PUSH2 0x19B0 JUMPI PUSH2 0x19A3 PUSH32 0x0 DUP9 DUP9 DUP8 DUP10 PUSH2 0x2D25 JUMP JUMPDEST DUP1 SWAP4 POP DUP2 SWAP5 POP POP POP PUSH2 0x1B42 JUMP JUMPDEST PUSH1 0xE DUP2 EQ ISZERO PUSH2 0x1B01 JUMPI PUSH1 0x0 DUP5 EQ ISZERO PUSH2 0x1A00 JUMPI PUSH2 0x19FF PUSH2 0x19CF DUP7 DUP10 PUSH2 0x1ECD JUMP JUMPDEST PUSH32 0x0 PUSH2 0x19FA DUP9 DUP11 PUSH2 0x1E32 JUMP JUMPDEST PUSH2 0x345E JUMP JUMPDEST JUMPDEST PUSH1 0x0 PUSH2 0x1A0D DUP7 PUSH1 0x70 PUSH2 0x1ECD JUMP JUMPDEST PUSH20 0xFFFFFFFFFFFFFFFFFFFFFFFFFFFFFFFFFFFFFFFF AND PUSH1 0x0 SHL PUSH2 0x1A31 DUP8 PUSH1 0x84 PUSH2 0x1E32 JUMP JUMPDEST TIMESTAMP PUSH1 0x40 MLOAD PUSH1 0x20 ADD PUSH2 0x1A44 SWAP4 SWAP3 SWAP2 SWAP1 PUSH2 0x4AC8 JUMP JUMPDEST PUSH1 0x40 MLOAD PUSH1 0x20 DUP2 DUP4 SUB SUB DUP2 MSTORE SWAP1 PUSH1 0x40 MSTORE SWAP1 POP PUSH32 0x0 PUSH20 0xFFFFFFFFFFFFFFFFFFFFFFFFFFFFFFFFFFFFFFFF AND DUP6 PUSH2 0x1AA3 PUSH2 0x1A9D DUP10 PUSH1 0x0 PUSH1 0x64 PUSH2 0x1DD9 JUMP JUMPDEST DUP5 PUSH2 0x1E43 JUMP JUMPDEST PUSH1 0x40 MLOAD PUSH2 0x1AB0 SWAP2 SWAP1 PUSH2 0x4A98 JUMP JUMPDEST PUSH1 0x0 PUSH1 0x40 MLOAD DUP1 DUP4 SUB DUP2 DUP6 DUP8 GAS CALL SWAP3 POP POP POP RETURNDATASIZE DUP1 PUSH1 0x0 DUP2 EQ PUSH2 0x1AED JUMPI PUSH1 0x40 MLOAD SWAP2 POP PUSH1 0x1F NOT PUSH1 0x3F RETURNDATASIZE ADD AND DUP3 ADD PUSH1 0x40 MSTORE RETURNDATASIZE DUP3 MSTORE RETURNDATASIZE PUSH1 0x0 PUSH1 0x20 DUP5 ADD RETURNDATACOPY PUSH2 0x1AF2 JUMP JUMPDEST PUSH1 0x60 SWAP2 POP JUMPDEST POP DUP1 SWAP5 POP DUP2 SWAP6 POP POP POP POP PUSH2 0x1B41 JUMP JUMPDEST PUSH1 0xB DUP2 EQ ISZERO PUSH2 0x1B40 JUMPI PUSH2 0x1B37 PUSH32 0x0 DUP9 DUP9 DUP8 DUP10 PUSH2 0x2D25 JUMP JUMPDEST DUP1 SWAP4 POP DUP2 SWAP5 POP POP POP JUMPDEST JUMPDEST JUMPDEST JUMPDEST JUMPDEST PUSH2 0x1CB5 JUMP JUMPDEST PUSH1 0xF DUP2 EQ ISZERO PUSH2 0x1B8C JUMPI PUSH2 0x1B7F PUSH32 0x0 DUP9 DUP9 DUP8 DUP10 PUSH2 0x2D25 JUMP JUMPDEST DUP1 SWAP4 POP DUP2 SWAP5 POP POP POP PUSH2 0x1CB4 JUMP JUMPDEST PUSH1 0x10 DUP2 EQ ISZERO PUSH2 0x1C72 JUMPI PUSH1 0x0 DUP5 EQ ISZERO PUSH2 0x1BDC JUMPI PUSH2 0x1BDB PUSH2 0x1BAB DUP7 DUP10 PUSH2 0x1ECD JUMP JUMPDEST PUSH32 0x0 PUSH2 0x1BD6 DUP9 DUP11 PUSH2 0x1E32 JUMP JUMPDEST PUSH2 0x345E JUMP JUMPDEST JUMPDEST PUSH32 0x0 PUSH20 0xFFFFFFFFFFFFFFFFFFFFFFFFFFFFFFFFFFFFFFFF AND DUP5 DUP7 PUSH1 0x40 MLOAD PUSH2 0x1C22 SWAP2 SWAP1 PUSH2 0x4A98 JUMP JUMPDEST PUSH1 0x0 PUSH1 0x40 MLOAD DUP1 DUP4 SUB DUP2 DUP6 DUP8 GAS CALL SWAP3 POP POP POP RETURNDATASIZE DUP1 PUSH1 0x0 DUP2 EQ PUSH2 0x1C5F JUMPI PUSH1 0x40 MLOAD SWAP2 POP PUSH1 0x1F NOT PUSH1 0x3F RETURNDATASIZE ADD AND DUP3 ADD PUSH1 0x40 MSTORE RETURNDATASIZE DUP3 MSTORE RETURNDATASIZE PUSH1 0x0 PUSH1 0x20 DUP5 ADD RETURNDATACOPY PUSH2 0x1C64 JUMP JUMPDEST PUSH1 0x60 SWAP2 POP JUMPDEST POP DUP1 SWAP4 POP DUP2 SWAP5 POP POP POP PUSH2 0x1CB3 JUMP JUMPDEST PUSH1 0x11 DUP2 EQ ISZERO PUSH2 0x1CB2 JUMPI PUSH2 0x1CA9 PUSH32 0x0 DUP9 DUP9 PUSH1 0x0 DUP10 PUSH2 0x2D25 JUMP JUMPDEST DUP1 SWAP4 POP DUP2 SWAP5 POP POP POP JUMPDEST JUMPDEST JUMPDEST JUMPDEST JUMPDEST POP SWAP6 POP SWAP6 SWAP4 POP POP POP POP JUMP JUMPDEST PUSH1 0x0 DUP1 PUSH1 0x0 PUSH2 0x1CD1 DUP5 PUSH1 0x0 PUSH2 0x1ECD JUMP JUMPDEST SWAP3 POP PUSH2 0x1CDE DUP5 PUSH1 0x14 PUSH2 0x34F6 JUMP JUMPDEST SWAP1 POP PUSH2 0x1CEB DUP5 PUSH1 0x17 PUSH2 0x1ECD JUMP JUMPDEST SWAP2 POP SWAP2 SWAP4 SWAP1 SWAP3 POP JUMP JUMPDEST PUSH1 0x0 DUP3 PUSH20 0xFFFFFFFFFFFFFFFFFFFFFFFFFFFFFFFFFFFFFFFF AND DUP5 PUSH20 0xFFFFFFFFFFFFFFFFFFFFFFFFFFFFFFFFFFFFFFFF AND GT ISZERO PUSH2 0x1D35 JUMPI DUP3 DUP5 DUP1 SWAP5 POP DUP2 SWAP6 POP POP POP JUMPDEST PUSH32 0x0 DUP5 DUP5 DUP5 PUSH1 0x40 MLOAD PUSH1 0x20 ADD PUSH2 0x1D6B SWAP4 SWAP3 SWAP2 SWAP1 PUSH2 0x4B1D JUMP JUMPDEST PUSH1 0x40 MLOAD PUSH1 0x20 DUP2 DUP4 SUB SUB DUP2 MSTORE SWAP1 PUSH1 0x40 MSTORE DUP1 MLOAD SWAP1 PUSH1 0x20 ADD KECCAK256 PUSH32 0xE34F199B19B2B4F47F68442619D555527D244F78A3297EA89325F843F87B8B54 PUSH1 0x0 SHL PUSH1 0x40 MLOAD PUSH1 0x20 ADD PUSH2 0x1DB7 SWAP4 SWAP3 SWAP2 SWAP1 PUSH2 0x4C14 JUMP JUMPDEST PUSH1 0x40 MLOAD PUSH1 0x20 DUP2 DUP4 SUB SUB DUP2 MSTORE SWAP1 PUSH1 0x40 MSTORE DUP1 MLOAD SWAP1 PUSH1 0x20 ADD KECCAK256 PUSH1 0x0 SHR SWAP1 POP SWAP4 SWAP3 POP POP POP JUMP JUMPDEST PUSH1 0x60 PUSH1 0x40 MLOAD SWAP1 POP PUSH1 0x1F DUP3 AND DUP1 ISZERO PUSH1 0x20 MUL DUP2 DUP4 ADD ADD DUP4 DUP2 ADD DUP6 DUP4 ISZERO PUSH1 0x20 MUL DUP5 DUP10 ADD ADD ADD JUMPDEST DUP2 DUP4 LT ISZERO PUSH2 0x1E19 JUMPI DUP1 MLOAD DUP4 MSTORE PUSH1 0x20 DUP4 ADD SWAP3 POP PUSH1 0x20 DUP2 ADD SWAP1 POP PUSH2 0x1DFC JUMP JUMPDEST POP DUP5 DUP5 MSTORE PUSH1 0x1F NOT PUSH1 0x1F DUP4 ADD AND PUSH1 0x40 MSTORE POP POP POP SWAP4 SWAP3 POP POP POP JUMP JUMPDEST PUSH1 0x0 DUP2 PUSH1 0x20 DUP5 ADD ADD MLOAD SWAP1 POP SWAP3 SWAP2 POP POP JUMP JUMPDEST PUSH1 0x60 DUP1 PUSH1 0x40 MLOAD SWAP1 POP DUP4 MLOAD DUP1 DUP3 MSTORE PUSH1 0x20 DUP3 ADD DUP2 DUP2 ADD PUSH1 0x20 DUP8 ADD JUMPDEST DUP2 DUP4 LT ISZERO PUSH2 0x1E79 JUMPI DUP1 MLOAD DUP4 MSTORE PUSH1 0x20 DUP4 ADD SWAP3 POP PUSH1 0x20 DUP2 ADD SWAP1 POP PUSH2 0x1E5C JUMP JUMPDEST POP DUP6 MLOAD SWAP3 POP DUP4 MLOAD DUP4 ADD DUP5 MSTORE DUP1 SWAP2 POP DUP3 DUP3 ADD SWAP1 POP PUSH1 0x20 DUP7 ADD JUMPDEST DUP2 DUP4 LT ISZERO PUSH2 0x1EAE JUMPI DUP1 MLOAD DUP4 MSTORE PUSH1 0x20 DUP4 ADD SWAP3 POP PUSH1 0x20 DUP2 ADD SWAP1 POP PUSH2 0x1E91 JUMP JUMPDEST POP PUSH1 0x1F NOT PUSH1 0x1F DUP9 MLOAD DUP6 ADD ISZERO DUP4 ADD ADD AND PUSH1 0x40 MSTORE POP POP POP DUP1 SWAP2 POP POP SWAP3 SWAP2 POP POP JUMP JUMPDEST PUSH1 0x0 DUP2 PUSH1 0x14 DUP5 ADD ADD MLOAD SWAP1 POP SWAP3 SWAP2 POP POP JUMP JUMPDEST PUSH1 0x0 PUSH1 0x40 MLOAD PUSH32 0x23B872DD00000000000000000000000000000000000000000000000000000000 DUP2 MSTORE DUP5 PUSH1 0x4 DUP3 ADD MSTORE DUP4 PUSH1 0x24 DUP3 ADD MSTORE DUP3 PUSH1 0x44 DUP3 ADD MSTORE PUSH1 0x20 PUSH1 0x0 PUSH1 0x64 DUP4 PUSH1 0x0 DUP11 GAS CALL RETURNDATASIZE ISZERO PUSH1 0x1F RETURNDATASIZE GT PUSH1 0x1 PUSH1 0x0 MLOAD EQ AND OR AND SWAP2 POP POP DUP1 PUSH2 0x1F76 JUMPI PUSH1 0x40 MLOAD PUSH32 0x8C379A000000000000000000000000000000000000000000000000000000000 DUP2 MSTORE PUSH1 0x4 ADD PUSH2 0x1F6D SWAP1 PUSH2 0x4CA8 JUMP JUMPDEST PUSH1 0x40 MLOAD DUP1 SWAP2 SUB SWAP1 REVERT JUMPDEST POP POP POP POP POP JUMP JUMPDEST PUSH1 0x60 PUSH1 0x0 PUSH2 0x1F98 DUP6 PUSH1 0x2 DUP8 MLOAD PUSH2 0x1F93 SWAP2 SWAP1 PUSH2 0x4662 JUMP JUMPDEST PUSH2 0x2D14 JUMP JUMPDEST PUSH1 0xFF AND SWAP1 POP PUSH1 0x0 DUP1 PUSH2 0x1FB7 DUP8 PUSH1 0x1 DUP10 MLOAD PUSH2 0x1FB2 SWAP2 SWAP1 PUSH2 0x4662 JUMP JUMPDEST PUSH2 0x2D14 JUMP JUMPDEST PUSH1 0xFF AND EQ PUSH2 0x1FDB JUMPI PUSH2 0x1FD6 DUP7 PUSH1 0x16 DUP9 MLOAD PUSH2 0x1FD1 SWAP2 SWAP1 PUSH2 0x4662 JUMP JUMPDEST PUSH2 0x1ECD JUMP JUMPDEST PUSH2 0x1FDD JUMP JUMPDEST CALLER JUMPDEST SWAP1 POP PUSH1 0x0 DUP1 PUSH1 0x0 PUSH2 0x1FF0 DUP10 DUP10 DUP10 DUP9 PUSH2 0x3507 JUMP JUMPDEST SWAP3 POP SWAP3 POP SWAP3 POP PUSH1 0x1 DUP6 GT ISZERO PUSH2 0x2466 JUMPI PUSH1 0x0 DUP3 PUSH1 0x1 DUP2 MLOAD DUP2 LT PUSH2 0x2015 JUMPI PUSH2 0x2014 PUSH2 0x452D JUMP JUMPDEST JUMPDEST PUSH1 0x20 MUL PUSH1 0x20 ADD ADD MLOAD PUSH20 0xFFFFFFFFFFFFFFFFFFFFFFFFFFFFFFFFFFFFFFFF AND DUP4 PUSH1 0x0 DUP2 MLOAD DUP2 LT PUSH2 0x2047 JUMPI PUSH2 0x2046 PUSH2 0x452D JUMP JUMPDEST JUMPDEST PUSH1 0x20 MUL PUSH1 0x20 ADD ADD MLOAD PUSH20 0xFFFFFFFFFFFFFFFFFFFFFFFFFFFFFFFFFFFFFFFF AND LT PUSH2 0x2071 JUMPI PUSH1 0x0 PUSH2 0x2074 JUMP JUMPDEST PUSH1 0x1 JUMPDEST SWAP1 POP DUP4 PUSH1 0x0 DUP2 MLOAD DUP2 LT PUSH2 0x208A JUMPI PUSH2 0x2089 PUSH2 0x452D JUMP JUMPDEST JUMPDEST PUSH1 0x20 MUL PUSH1 0x20 ADD ADD MLOAD PUSH20 0xFFFFFFFFFFFFFFFFFFFFFFFFFFFFFFFFFFFFFFFF AND PUSH4 0x22C0D9F DUP3 PUSH2 0x20D3 JUMPI DUP4 PUSH1 0x0 DUP2 MLOAD DUP2 LT PUSH2 0x20C6 JUMPI PUSH2 0x20C5 PUSH2 0x452D JUMP JUMPDEST JUMPDEST PUSH1 0x20 MUL PUSH1 0x20 ADD ADD MLOAD PUSH2 0x20D6 JUMP JUMPDEST PUSH1 0x0 JUMPDEST DUP4 PUSH2 0x20E2 JUMPI PUSH1 0x0 PUSH2 0x20FF JUMP JUMPDEST DUP5 PUSH1 0x0 DUP2 MLOAD DUP2 LT PUSH2 0x20F6 JUMPI PUSH2 0x20F5 PUSH2 0x452D JUMP JUMPDEST JUMPDEST PUSH1 0x20 MUL PUSH1 0x20 ADD ADD MLOAD JUMPDEST DUP8 PUSH1 0x1 DUP2 MLOAD DUP2 LT PUSH2 0x2113 JUMPI PUSH2 0x2112 PUSH2 0x452D JUMP JUMPDEST JUMPDEST PUSH1 0x20 MUL PUSH1 0x20 ADD ADD MLOAD PUSH1 0x40 MLOAD DUP5 PUSH4 0xFFFFFFFF AND PUSH1 0xE0 SHL DUP2 MSTORE PUSH1 0x4 ADD PUSH2 0x2139 SWAP4 SWAP3 SWAP2 SWAP1 PUSH2 0x4CEE JUMP JUMPDEST PUSH1 0x0 PUSH1 0x40 MLOAD DUP1 DUP4 SUB DUP2 PUSH1 0x0 DUP8 DUP1 EXTCODESIZE ISZERO DUP1 ISZERO PUSH2 0x2153 JUMPI PUSH1 0x0 DUP1 REVERT JUMPDEST POP GAS CALL ISZERO DUP1 ISZERO PUSH2 0x2167 JUMPI RETURNDATASIZE PUSH1 0x0 DUP1 RETURNDATACOPY RETURNDATASIZE PUSH1 0x0 REVERT JUMPDEST POP POP POP POP PUSH1 0x0 PUSH1 0x1 DUP8 PUSH2 0x217A SWAP2 SWAP1 PUSH2 0x4662 JUMP JUMPDEST SWAP1 POP PUSH1 0x0 PUSH1 0x1 SWAP1 POP JUMPDEST DUP2 DUP2 LT ISZERO PUSH2 0x2314 JUMPI DUP5 PUSH1 0x1 DUP3 PUSH2 0x2199 SWAP2 SWAP1 PUSH2 0x4A06 JUMP JUMPDEST DUP2 MLOAD DUP2 LT PUSH2 0x21AA JUMPI PUSH2 0x21A9 PUSH2 0x452D JUMP JUMPDEST JUMPDEST PUSH1 0x20 MUL PUSH1 0x20 ADD ADD MLOAD PUSH20 0xFFFFFFFFFFFFFFFFFFFFFFFFFFFFFFFFFFFFFFFF AND DUP6 DUP3 DUP2 MLOAD DUP2 LT PUSH2 0x21DB JUMPI PUSH2 0x21DA PUSH2 0x452D JUMP JUMPDEST JUMPDEST PUSH1 0x20 MUL PUSH1 0x20 ADD ADD MLOAD PUSH20 0xFFFFFFFFFFFFFFFFFFFFFFFFFFFFFFFFFFFFFFFF AND LT PUSH2 0x2205 JUMPI PUSH1 0x0 PUSH2 0x2208 JUMP JUMPDEST PUSH1 0x1 JUMPDEST SWAP3 POP DUP6 DUP2 DUP2 MLOAD DUP2 LT PUSH2 0x221D JUMPI PUSH2 0x221C PUSH2 0x452D JUMP JUMPDEST JUMPDEST PUSH1 0x20 MUL PUSH1 0x20 ADD ADD MLOAD PUSH20 0xFFFFFFFFFFFFFFFFFFFFFFFFFFFFFFFFFFFFFFFF AND PUSH4 0x22C0D9F DUP5 PUSH2 0x2265 JUMPI DUP6 DUP4 DUP2 MLOAD DUP2 LT PUSH2 0x2258 JUMPI PUSH2 0x2257 PUSH2 0x452D JUMP JUMPDEST JUMPDEST PUSH1 0x20 MUL PUSH1 0x20 ADD ADD MLOAD PUSH2 0x2268 JUMP JUMPDEST PUSH1 0x0 JUMPDEST DUP6 PUSH2 0x2274 JUMPI PUSH1 0x0 PUSH2 0x2290 JUMP JUMPDEST DUP7 DUP5 DUP2 MLOAD DUP2 LT PUSH2 0x2287 JUMPI PUSH2 0x2286 PUSH2 0x452D JUMP JUMPDEST JUMPDEST PUSH1 0x20 MUL PUSH1 0x20 ADD ADD MLOAD JUMPDEST DUP10 PUSH1 0x1 DUP7 PUSH2 0x229E SWAP2 SWAP1 PUSH2 0x4A06 JUMP JUMPDEST DUP2 MLOAD DUP2 LT PUSH2 0x22AF JUMPI PUSH2 0x22AE PUSH2 0x452D JUMP JUMPDEST JUMPDEST PUSH1 0x20 MUL PUSH1 0x20 ADD ADD MLOAD PUSH1 0x40 MLOAD DUP5 PUSH4 0xFFFFFFFF AND PUSH1 0xE0 SHL DUP2 MSTORE PUSH1 0x4 ADD PUSH2 0x22D5 SWAP4 SWAP3 SWAP2 SWAP1 PUSH2 0x4CEE JUMP JUMPDEST PUSH1 0x0 PUSH1 0x40 MLOAD DUP1 DUP4 SUB DUP2 PUSH1 0x0 DUP8 DUP1 EXTCODESIZE ISZERO DUP1 ISZERO PUSH2 0x22EF JUMPI PUSH1 0x0 DUP1 REVERT JUMPDEST POP GAS CALL ISZERO DUP1 ISZERO PUSH2 0x2303 JUMPI RETURNDATASIZE PUSH1 0x0 DUP1 RETURNDATACOPY RETURNDATASIZE PUSH1 0x0 REVERT JUMPDEST POP POP POP POP DUP1 DUP1 PUSH1 0x1 ADD SWAP2 POP POP PUSH2 0x2183 JUMP JUMPDEST POP DUP4 DUP8 DUP2 MLOAD DUP2 LT PUSH2 0x2328 JUMPI PUSH2 0x2327 PUSH2 0x452D JUMP JUMPDEST JUMPDEST PUSH1 0x20 MUL PUSH1 0x20 ADD ADD MLOAD PUSH20 0xFFFFFFFFFFFFFFFFFFFFFFFFFFFFFFFFFFFFFFFF AND DUP5 DUP3 DUP2 MLOAD DUP2 LT PUSH2 0x2359 JUMPI PUSH2 0x2358 PUSH2 0x452D JUMP JUMPDEST JUMPDEST PUSH1 0x20 MUL PUSH1 0x20 ADD ADD MLOAD PUSH20 0xFFFFFFFFFFFFFFFFFFFFFFFFFFFFFFFFFFFFFFFF AND LT PUSH2 0x2383 JUMPI PUSH1 0x0 PUSH2 0x2386 JUMP JUMPDEST PUSH1 0x1 JUMPDEST SWAP2 POP DUP5 DUP2 DUP2 MLOAD DUP2 LT PUSH2 0x239B JUMPI PUSH2 0x239A PUSH2 0x452D JUMP JUMPDEST JUMPDEST PUSH1 0x20 MUL PUSH1 0x20 ADD ADD MLOAD PUSH20 0xFFFFFFFFFFFFFFFFFFFFFFFFFFFFFFFFFFFFFFFF AND PUSH4 0x22C0D9F DUP4 PUSH2 0x23E3 JUMPI DUP5 DUP4 DUP2 MLOAD DUP2 LT PUSH2 0x23D6 JUMPI PUSH2 0x23D5 PUSH2 0x452D JUMP JUMPDEST JUMPDEST PUSH1 0x20 MUL PUSH1 0x20 ADD ADD MLOAD PUSH2 0x23E6 JUMP JUMPDEST PUSH1 0x0 JUMPDEST DUP5 PUSH2 0x23F2 JUMPI PUSH1 0x0 PUSH2 0x240E JUMP JUMPDEST DUP6 DUP5 DUP2 MLOAD DUP2 LT PUSH2 0x2405 JUMPI PUSH2 0x2404 PUSH2 0x452D JUMP JUMPDEST JUMPDEST PUSH1 0x20 MUL PUSH1 0x20 ADD ADD MLOAD JUMPDEST DUP10 PUSH1 0x40 MLOAD DUP5 PUSH4 0xFFFFFFFF AND PUSH1 0xE0 SHL DUP2 MSTORE PUSH1 0x4 ADD PUSH2 0x242D SWAP4 SWAP3 SWAP2 SWAP1 PUSH2 0x4CEE JUMP JUMPDEST PUSH1 0x0 PUSH1 0x40 MLOAD DUP1 DUP4 SUB DUP2 PUSH1 0x0 DUP8 DUP1 EXTCODESIZE ISZERO DUP1 ISZERO PUSH2 0x2447 JUMPI PUSH1 0x0 DUP1 REVERT JUMPDEST POP GAS CALL ISZERO DUP1 ISZERO PUSH2 0x245B JUMPI RETURNDATASIZE PUSH1 0x0 DUP1 RETURNDATACOPY RETURNDATASIZE PUSH1 0x0 REVERT JUMPDEST POP POP POP POP POP POP PUSH2 0x25B9 JUMP JUMPDEST PUSH1 0x0 DUP3 PUSH1 0x1 DUP2 MLOAD DUP2 LT PUSH2 0x247C JUMPI PUSH2 0x247B PUSH2 0x452D JUMP JUMPDEST JUMPDEST PUSH1 0x20 MUL PUSH1 0x20 ADD ADD MLOAD PUSH20 0xFFFFFFFFFFFFFFFFFFFFFFFFFFFFFFFFFFFFFFFF AND DUP4 PUSH1 0x0 DUP2 MLOAD DUP2 LT PUSH2 0x24AE JUMPI PUSH2 0x24AD PUSH2 0x452D JUMP JUMPDEST JUMPDEST PUSH1 0x20 MUL PUSH1 0x20 ADD ADD MLOAD PUSH20 0xFFFFFFFFFFFFFFFFFFFFFFFFFFFFFFFFFFFFFFFF AND LT PUSH2 0x24D8 JUMPI PUSH1 0x0 PUSH2 0x24DB JUMP JUMPDEST PUSH1 0x1 JUMPDEST SWAP1 POP DUP4 PUSH1 0x0 DUP2 MLOAD DUP2 LT PUSH2 0x24F1 JUMPI PUSH2 0x24F0 PUSH2 0x452D JUMP JUMPDEST JUMPDEST PUSH1 0x20 MUL PUSH1 0x20 ADD ADD MLOAD PUSH20 0xFFFFFFFFFFFFFFFFFFFFFFFFFFFFFFFFFFFFFFFF AND PUSH4 0x22C0D9F DUP3 PUSH2 0x253A JUMPI DUP4 PUSH1 0x0 DUP2 MLOAD DUP2 LT PUSH2 0x252D JUMPI PUSH2 0x252C PUSH2 0x452D JUMP JUMPDEST JUMPDEST PUSH1 0x20 MUL PUSH1 0x20 ADD ADD MLOAD PUSH2 0x253D JUMP JUMPDEST PUSH1 0x0 JUMPDEST DUP4 PUSH2 0x2549 JUMPI PUSH1 0x0 PUSH2 0x2566 JUMP JUMPDEST DUP5 PUSH1 0x0 DUP2 MLOAD DUP2 LT PUSH2 0x255D JUMPI PUSH2 0x255C PUSH2 0x452D JUMP JUMPDEST JUMPDEST PUSH1 0x20 MUL PUSH1 0x20 ADD ADD MLOAD JUMPDEST DUP9 PUSH1 0x40 MLOAD DUP5 PUSH4 0xFFFFFFFF AND PUSH1 0xE0 SHL DUP2 MSTORE PUSH1 0x4 ADD PUSH2 0x2585 SWAP4 SWAP3 SWAP2 SWAP1 PUSH2 0x4CEE JUMP JUMPDEST PUSH1 0x0 PUSH1 0x40 MLOAD DUP1 DUP4 SUB DUP2 PUSH1 0x0 DUP8 DUP1 EXTCODESIZE ISZERO DUP1 ISZERO PUSH2 0x259F JUMPI PUSH1 0x0 DUP1 REVERT JUMPDEST POP GAS CALL ISZERO DUP1 ISZERO PUSH2 0x25B3 JUMPI RETURNDATASIZE PUSH1 0x0 DUP1 RETURNDATACOPY RETURNDATASIZE PUSH1 0x0 REVERT JUMPDEST POP POP POP POP POP JUMPDEST PUSH1 0x0 DUP2 PUSH1 0x1 DUP8 PUSH2 0x25C9 SWAP2 SWAP1 PUSH2 0x4662 JUMP JUMPDEST DUP2 MLOAD DUP2 LT PUSH2 0x25DA JUMPI PUSH2 0x25D9 PUSH2 0x452D JUMP JUMPDEST JUMPDEST PUSH1 0x20 MUL PUSH1 0x20 ADD ADD MLOAD SWAP1 POP DUP1 PUSH1 0x40 MLOAD PUSH1 0x20 ADD PUSH2 0x25F5 SWAP2 SWAP1 PUSH2 0x49EB JUMP JUMPDEST PUSH1 0x40 MLOAD PUSH1 0x20 DUP2 DUP4 SUB SUB DUP2 MSTORE SWAP1 PUSH1 0x40 MSTORE SWAP7 POP ADDRESS PUSH20 0xFFFFFFFFFFFFFFFFFFFFFFFFFFFFFFFFFFFFFFFF AND DUP6 PUSH20 0xFFFFFFFFFFFFFFFFFFFFFFFFFFFFFFFFFFFFFFFF AND EQ DUP1 ISZERO PUSH2 0x26A6 JUMPI POP PUSH32 0x0 PUSH20 0xFFFFFFFFFFFFFFFFFFFFFFFFFFFFFFFFFFFFFFFF AND DUP4 DUP8 DUP2 MLOAD DUP2 LT PUSH2 0x2686 JUMPI PUSH2 0x2685 PUSH2 0x452D JUMP JUMPDEST JUMPDEST PUSH1 0x20 MUL PUSH1 0x20 ADD ADD MLOAD PUSH20 0xFFFFFFFFFFFFFFFFFFFFFFFFFFFFFFFFFFFFFFFF AND EQ JUMPDEST ISZERO PUSH2 0x285A JUMPI ADDRESS PUSH20 0xFFFFFFFFFFFFFFFFFFFFFFFFFFFFFFFFFFFFFFFF AND PUSH2 0x26D9 DUP12 PUSH1 0x2A DUP14 MLOAD PUSH2 0x26D4 SWAP2 SWAP1 PUSH2 0x4662 JUMP JUMPDEST PUSH2 0x1ECD JUMP JUMPDEST PUSH20 0xFFFFFFFFFFFFFFFFFFFFFFFFFFFFFFFFFFFFFFFF AND EQ ISZERO PUSH2 0x27AE JUMPI PUSH1 0x1 PUSH2 0x270E DUP12 PUSH1 0x2B DUP14 MLOAD PUSH2 0x2709 SWAP2 SWAP1 PUSH2 0x4662 JUMP JUMPDEST PUSH2 0x2D14 JUMP JUMPDEST PUSH1 0xFF AND EQ ISZERO PUSH2 0x27A3 JUMPI PUSH32 0x0 PUSH20 0xFFFFFFFFFFFFFFFFFFFFFFFFFFFFFFFFFFFFFFFF AND PUSH4 0x2E1A7D4D DUP3 PUSH1 0x40 MLOAD DUP3 PUSH4 0xFFFFFFFF AND PUSH1 0xE0 SHL DUP2 MSTORE PUSH1 0x4 ADD PUSH2 0x2770 SWAP2 SWAP1 PUSH2 0x49EB JUMP JUMPDEST PUSH1 0x0 PUSH1 0x40 MLOAD DUP1 DUP4 SUB DUP2 PUSH1 0x0 DUP8 DUP1 EXTCODESIZE ISZERO DUP1 ISZERO PUSH2 0x278A JUMPI PUSH1 0x0 DUP1 REVERT JUMPDEST POP GAS CALL ISZERO DUP1 ISZERO PUSH2 0x279E JUMPI RETURNDATASIZE PUSH1 0x0 DUP1 RETURNDATACOPY RETURNDATASIZE PUSH1 0x0 REVERT JUMPDEST POP POP POP POP JUMPDEST POP POP POP POP POP POP PUSH2 0x2861 JUMP JUMPDEST PUSH32 0x0 PUSH20 0xFFFFFFFFFFFFFFFFFFFFFFFFFFFFFFFFFFFFFFFF AND PUSH4 0x2E1A7D4D DUP3 PUSH1 0x40 MLOAD DUP3 PUSH4 0xFFFFFFFF AND PUSH1 0xE0 SHL DUP2 MSTORE PUSH1 0x4 ADD PUSH2 0x2807 SWAP2 SWAP1 PUSH2 0x49EB JUMP JUMPDEST PUSH1 0x0 PUSH1 0x40 MLOAD DUP1 DUP4 SUB DUP2 PUSH1 0x0 DUP8 DUP1 EXTCODESIZE ISZERO DUP1 ISZERO PUSH2 0x2821 JUMPI PUSH1 0x0 DUP1 REVERT JUMPDEST POP GAS CALL ISZERO DUP1 ISZERO PUSH2 0x2835 JUMPI RETURNDATASIZE PUSH1 0x0 DUP1 RETURNDATACOPY RETURNDATASIZE PUSH1 0x0 REVERT JUMPDEST POP POP POP POP PUSH2 0x2859 PUSH2 0x2853 DUP12 PUSH1 0x2A DUP14 MLOAD PUSH2 0x284E SWAP2 SWAP1 PUSH2 0x4662 JUMP JUMPDEST PUSH2 0x1ECD JUMP JUMPDEST DUP3 PUSH2 0x3AB7 JUMP JUMPDEST JUMPDEST POP POP POP POP POP POP JUMPDEST SWAP4 SWAP3 POP POP POP JUMP JUMPDEST PUSH1 0x60 PUSH1 0x0 PUSH2 0x2883 DUP6 PUSH1 0x2 DUP8 MLOAD PUSH2 0x287E SWAP2 SWAP1 PUSH2 0x4662 JUMP JUMPDEST PUSH2 0x2D14 JUMP JUMPDEST PUSH1 0xFF AND SWAP1 POP PUSH1 0x0 DUP1 PUSH2 0x28A2 DUP8 PUSH1 0x1 DUP10 MLOAD PUSH2 0x289D SWAP2 SWAP1 PUSH2 0x4662 JUMP JUMPDEST PUSH2 0x2D14 JUMP JUMPDEST PUSH1 0xFF AND EQ PUSH2 0x28C6 JUMPI PUSH2 0x28C1 DUP7 PUSH1 0x16 DUP9 MLOAD PUSH2 0x28BC SWAP2 SWAP1 PUSH2 0x4662 JUMP JUMPDEST PUSH2 0x1ECD JUMP JUMPDEST PUSH2 0x28C8 JUMP JUMPDEST CALLER JUMPDEST SWAP1 POP PUSH1 0x0 PUSH20 0xFFFFFFFFFFFFFFFFFFFFFFFFFFFFFFFFFFFFFFFF AND DUP6 PUSH20 0xFFFFFFFFFFFFFFFFFFFFFFFFFFFFFFFFFFFFFFFF AND EQ ISZERO PUSH2 0x2981 JUMPI PUSH32 0x0 PUSH20 0xFFFFFFFFFFFFFFFFFFFFFFFFFFFFFFFFFFFFFFFF AND PUSH4 0xD0E30DB0 DUP6 PUSH1 0x40 MLOAD DUP3 PUSH4 0xFFFFFFFF AND PUSH1 0xE0 SHL DUP2 MSTORE PUSH1 0x4 ADD PUSH1 0x0 PUSH1 0x40 MLOAD DUP1 DUP4 SUB DUP2 DUP6 DUP9 DUP1 EXTCODESIZE ISZERO DUP1 ISZERO PUSH2 0x2967 JUMPI PUSH1 0x0 DUP1 REVERT JUMPDEST POP GAS CALL ISZERO DUP1 ISZERO PUSH2 0x297B JUMPI RETURNDATASIZE PUSH1 0x0 DUP1 RETURNDATACOPY RETURNDATASIZE PUSH1 0x0 REVERT JUMPDEST POP POP POP POP POP JUMPDEST PUSH1 0x1 DUP3 GT ISZERO PUSH2 0x2A37 JUMPI PUSH2 0x29A1 ADDRESS DUP6 PUSH2 0x299C DUP10 PUSH1 0x40 PUSH1 0x2B PUSH2 0x1DD9 JUMP JUMPDEST PUSH2 0x3B0A JUMP JUMPDEST SWAP4 POP PUSH1 0x0 PUSH1 0x1 DUP4 PUSH2 0x29B2 SWAP2 SWAP1 PUSH2 0x4662 JUMP JUMPDEST SWAP1 POP PUSH1 0x0 PUSH1 0x1 SWAP1 POP JUMPDEST DUP2 DUP2 LT ISZERO PUSH2 0x2A00 JUMPI PUSH2 0x29F1 ADDRESS DUP8 PUSH2 0x29EC DUP12 PUSH1 0x17 DUP7 PUSH2 0x29D9 SWAP2 SWAP1 PUSH2 0x4696 JUMP JUMPDEST PUSH1 0x40 PUSH2 0x29E5 SWAP2 SWAP1 PUSH2 0x4A06 JUMP JUMPDEST PUSH1 0x2B PUSH2 0x1DD9 JUMP JUMPDEST PUSH2 0x3B0A JUMP JUMPDEST SWAP6 POP DUP1 DUP1 PUSH1 0x1 ADD SWAP2 POP POP PUSH2 0x29BB JUMP JUMPDEST POP PUSH2 0x2A2F DUP3 DUP7 PUSH2 0x2A2A DUP11 PUSH1 0x17 DUP7 PUSH2 0x2A17 SWAP2 SWAP1 PUSH2 0x4696 JUMP JUMPDEST PUSH1 0x40 PUSH2 0x2A23 SWAP2 SWAP1 PUSH2 0x4A06 JUMP JUMPDEST PUSH1 0x2B PUSH2 0x1DD9 JUMP JUMPDEST PUSH2 0x3B0A JUMP JUMPDEST SWAP5 POP POP PUSH2 0x2A51 JUMP JUMPDEST PUSH2 0x2A4E DUP2 DUP6 PUSH2 0x2A49 DUP10 PUSH1 0x40 PUSH1 0x2B PUSH2 0x1DD9 JUMP JUMPDEST PUSH2 0x3B0A JUMP JUMPDEST SWAP4 POP JUMPDEST PUSH2 0x2A5C DUP7 PUSH1 0x20 PUSH2 0x1E32 JUMP JUMPDEST DUP5 LT ISZERO PUSH2 0x2A95 JUMPI PUSH1 0x40 MLOAD PUSH32 0xBB2875C300000000000000000000000000000000000000000000000000000000 DUP2 MSTORE PUSH1 0x4 ADD PUSH1 0x40 MLOAD DUP1 SWAP2 SUB SWAP1 REVERT JUMPDEST ADDRESS PUSH20 0xFFFFFFFFFFFFFFFFFFFFFFFFFFFFFFFFFFFFFFFF AND DUP2 PUSH20 0xFFFFFFFFFFFFFFFFFFFFFFFFFFFFFFFFFFFFFFFF AND EQ ISZERO PUSH2 0x2CE9 JUMPI PUSH32 0x0 PUSH20 0xFFFFFFFFFFFFFFFFFFFFFFFFFFFFFFFFFFFFFFFF AND PUSH2 0x2B22 DUP8 PUSH1 0x17 DUP6 PUSH2 0x2B11 SWAP2 SWAP1 PUSH2 0x4696 JUMP JUMPDEST PUSH1 0x40 PUSH2 0x2B1D SWAP2 SWAP1 PUSH2 0x4A06 JUMP JUMPDEST PUSH2 0x1ECD JUMP JUMPDEST PUSH20 0xFFFFFFFFFFFFFFFFFFFFFFFFFFFFFFFFFFFFFFFF AND EQ ISZERO PUSH2 0x2CE8 JUMPI ADDRESS PUSH20 0xFFFFFFFFFFFFFFFFFFFFFFFFFFFFFFFFFFFFFFFF AND PUSH2 0x2B6C DUP8 PUSH1 0x2A DUP10 MLOAD PUSH2 0x2B67 SWAP2 SWAP1 PUSH2 0x4662 JUMP JUMPDEST PUSH2 0x1ECD JUMP JUMPDEST PUSH20 0xFFFFFFFFFFFFFFFFFFFFFFFFFFFFFFFFFFFFFFFF AND EQ ISZERO PUSH2 0x2C3B JUMPI PUSH1 0x1 PUSH2 0x2BA1 DUP8 PUSH1 0x2B DUP10 MLOAD PUSH2 0x2B9C SWAP2 SWAP1 PUSH2 0x4662 JUMP JUMPDEST PUSH2 0x2D14 JUMP JUMPDEST PUSH1 0xFF AND EQ ISZERO PUSH2 0x2C36 JUMPI PUSH32 0x0 PUSH20 0xFFFFFFFFFFFFFFFFFFFFFFFFFFFFFFFFFFFFFFFF AND PUSH4 0x2E1A7D4D DUP6 PUSH1 0x40 MLOAD DUP3 PUSH4 0xFFFFFFFF AND PUSH1 0xE0 SHL DUP2 MSTORE PUSH1 0x4 ADD PUSH2 0x2C03 SWAP2 SWAP1 PUSH2 0x49EB JUMP JUMPDEST PUSH1 0x0 PUSH1 0x40 MLOAD DUP1 DUP4 SUB DUP2 PUSH1 0x0 DUP8 DUP1 EXTCODESIZE ISZERO DUP1 ISZERO PUSH2 0x2C1D JUMPI PUSH1 0x0 DUP1 REVERT JUMPDEST POP GAS CALL ISZERO DUP1 ISZERO PUSH2 0x2C31 JUMPI RETURNDATASIZE PUSH1 0x0 DUP1 RETURNDATACOPY RETURNDATASIZE PUSH1 0x0 REVERT JUMPDEST POP POP POP POP JUMPDEST PUSH2 0x2CE7 JUMP JUMPDEST PUSH32 0x0 PUSH20 0xFFFFFFFFFFFFFFFFFFFFFFFFFFFFFFFFFFFFFFFF AND PUSH4 0x2E1A7D4D DUP6 PUSH1 0x40 MLOAD DUP3 PUSH4 0xFFFFFFFF AND PUSH1 0xE0 SHL DUP2 MSTORE PUSH1 0x4 ADD PUSH2 0x2C94 SWAP2 SWAP1 PUSH2 0x49EB JUMP JUMPDEST PUSH1 0x0 PUSH1 0x40 MLOAD DUP1 DUP4 SUB DUP2 PUSH1 0x0 DUP8 DUP1 EXTCODESIZE ISZERO DUP1 ISZERO PUSH2 0x2CAE JUMPI PUSH1 0x0 DUP1 REVERT JUMPDEST POP GAS CALL ISZERO DUP1 ISZERO PUSH2 0x2CC2 JUMPI RETURNDATASIZE PUSH1 0x0 DUP1 RETURNDATACOPY RETURNDATASIZE PUSH1 0x0 REVERT JUMPDEST POP POP POP POP PUSH2 0x2CE6 PUSH2 0x2CE0 DUP8 PUSH1 0x2A DUP10 MLOAD PUSH2 0x2CDB SWAP2 SWAP1 PUSH2 0x4662 JUMP JUMPDEST PUSH2 0x1ECD JUMP JUMPDEST DUP6 PUSH2 0x3AB7 JUMP JUMPDEST JUMPDEST JUMPDEST JUMPDEST DUP4 PUSH1 0x40 MLOAD PUSH1 0x20 ADD PUSH2 0x2CFA SWAP2 SWAP1 PUSH2 0x49EB JUMP JUMPDEST PUSH1 0x40 MLOAD PUSH1 0x20 DUP2 DUP4 SUB SUB DUP2 MSTORE SWAP1 PUSH1 0x40 MSTORE SWAP3 POP POP POP SWAP4 SWAP3 POP POP POP JUMP JUMPDEST PUSH1 0x0 DUP2 PUSH1 0x1 DUP5 ADD ADD MLOAD SWAP1 POP SWAP3 SWAP2 POP POP JUMP JUMPDEST PUSH1 0x0 PUSH1 0x60 PUSH1 0x0 DUP5 EQ ISZERO PUSH2 0x2D50 JUMPI PUSH2 0x2D4F PUSH2 0x2D3F DUP5 DUP9 PUSH2 0x1ECD JUMP JUMPDEST DUP9 PUSH2 0x2D4A DUP7 DUP10 PUSH2 0x1E32 JUMP JUMPDEST PUSH2 0x345E JUMP JUMPDEST JUMPDEST DUP7 PUSH20 0xFFFFFFFFFFFFFFFFFFFFFFFFFFFFFFFFFFFFFFFF AND DUP5 DUP5 PUSH1 0x40 MLOAD PUSH2 0x2D76 SWAP2 SWAP1 PUSH2 0x4A98 JUMP JUMPDEST PUSH1 0x0 PUSH1 0x40 MLOAD DUP1 DUP4 SUB DUP2 DUP6 DUP8 GAS CALL SWAP3 POP POP POP RETURNDATASIZE DUP1 PUSH1 0x0 DUP2 EQ PUSH2 0x2DB3 JUMPI PUSH1 0x40 MLOAD SWAP2 POP PUSH1 0x1F NOT PUSH1 0x3F RETURNDATASIZE ADD AND DUP3 ADD PUSH1 0x40 MSTORE RETURNDATASIZE DUP3 MSTORE RETURNDATASIZE PUSH1 0x0 PUSH1 0x20 DUP5 ADD RETURNDATACOPY PUSH2 0x2DB8 JUMP JUMPDEST PUSH1 0x60 SWAP2 POP JUMPDEST POP DUP1 SWAP3 POP DUP2 SWAP4 POP POP POP SWAP6 POP SWAP6 SWAP4 POP POP POP POP JUMP JUMPDEST PUSH1 0x60 PUSH1 0x0 PUSH2 0x2DE6 DUP6 PUSH1 0x2 DUP8 MLOAD PUSH2 0x2DE1 SWAP2 SWAP1 PUSH2 0x4662 JUMP JUMPDEST PUSH2 0x2D14 JUMP JUMPDEST PUSH1 0xFF AND SWAP1 POP PUSH1 0x0 DUP1 PUSH2 0x2E05 DUP8 PUSH1 0x1 DUP10 MLOAD PUSH2 0x2E00 SWAP2 SWAP1 PUSH2 0x4662 JUMP JUMPDEST PUSH2 0x2D14 JUMP JUMPDEST PUSH1 0xFF AND EQ PUSH2 0x2E29 JUMPI PUSH2 0x2E24 DUP7 PUSH1 0x16 DUP9 MLOAD PUSH2 0x2E1F SWAP2 SWAP1 PUSH2 0x4662 JUMP JUMPDEST PUSH2 0x1ECD JUMP JUMPDEST PUSH2 0x2E2B JUMP JUMPDEST CALLER JUMPDEST SWAP1 POP PUSH1 0x0 PUSH1 0x28 DUP4 PUSH2 0x2E3C SWAP2 SWAP1 PUSH2 0x4696 JUMP JUMPDEST PUSH1 0x54 PUSH2 0x2E48 SWAP2 SWAP1 PUSH2 0x4A06 JUMP JUMPDEST SWAP1 POP PUSH1 0x0 DUP1 JUMPDEST DUP5 DUP2 LT ISZERO PUSH2 0x33AD JUMPI PUSH1 0x0 PUSH2 0x2E7A DUP11 PUSH1 0x28 DUP5 PUSH2 0x2E69 SWAP2 SWAP1 PUSH2 0x4696 JUMP JUMPDEST PUSH1 0x54 PUSH2 0x2E75 SWAP2 SWAP1 PUSH2 0x4A06 JUMP JUMPDEST PUSH2 0x1ECD JUMP JUMPDEST SWAP1 POP PUSH1 0x0 PUSH2 0x2EA0 DUP12 PUSH1 0x28 DUP6 PUSH2 0x2E8F SWAP2 SWAP1 PUSH2 0x4696 JUMP JUMPDEST PUSH1 0x68 PUSH2 0x2E9B SWAP2 SWAP1 PUSH2 0x4A06 JUMP JUMPDEST PUSH2 0x1ECD JUMP JUMPDEST SWAP1 POP PUSH1 0x0 DUP1 PUSH20 0xFFFFFFFFFFFFFFFFFFFFFFFFFFFFFFFFFFFFFFFF AND DUP3 PUSH20 0xFFFFFFFFFFFFFFFFFFFFFFFFFFFFFFFFFFFFFFFF AND EQ SWAP1 POP PUSH2 0x2F7C PUSH2 0x2EFB DUP14 PUSH1 0x6 DUP8 PUSH2 0x2EE9 SWAP2 SWAP1 PUSH2 0x4696 JUMP JUMPDEST DUP10 PUSH2 0x2EF4 SWAP2 SWAP1 PUSH2 0x4A06 JUMP JUMPDEST PUSH1 0x4 PUSH2 0x1DD9 JUMP JUMPDEST PUSH2 0x2F28 DUP15 PUSH1 0x4 PUSH1 0x6 DUP10 PUSH2 0x2F0E SWAP2 SWAP1 PUSH2 0x4696 JUMP JUMPDEST DUP12 PUSH2 0x2F19 SWAP2 SWAP1 PUSH2 0x4A06 JUMP JUMPDEST PUSH2 0x2F23 SWAP2 SWAP1 PUSH2 0x4A06 JUMP JUMPDEST PUSH2 0x2D14 JUMP JUMPDEST PUSH2 0x2F55 DUP16 PUSH1 0x5 PUSH1 0x6 DUP11 PUSH2 0x2F3B SWAP2 SWAP1 PUSH2 0x4696 JUMP JUMPDEST DUP13 PUSH2 0x2F46 SWAP2 SWAP1 PUSH2 0x4A06 JUMP JUMPDEST PUSH2 0x2F50 SWAP2 SWAP1 PUSH2 0x4A06 JUMP JUMPDEST PUSH2 0x2D14 JUMP JUMPDEST DUP14 PUSH1 0x40 MLOAD PUSH1 0x20 ADD PUSH2 0x2F68 SWAP4 SWAP3 SWAP2 SWAP1 PUSH2 0x4D54 JUMP JUMPDEST PUSH1 0x40 MLOAD PUSH1 0x20 DUP2 DUP4 SUB SUB DUP2 MSTORE SWAP1 PUSH1 0x40 MSTORE PUSH2 0x1E43 JUMP JUMPDEST SWAP9 POP PUSH1 0x0 PUSH20 0xFFFFFFFFFFFFFFFFFFFFFFFFFFFFFFFFFFFFFFFF AND DUP12 PUSH20 0xFFFFFFFFFFFFFFFFFFFFFFFFFFFFFFFFFFFFFFFF AND EQ ISZERO DUP1 ISZERO PUSH2 0x2FB9 JUMPI POP DUP1 ISZERO JUMPDEST ISZERO PUSH2 0x30AB JUMPI PUSH2 0x2FC9 DUP12 DUP5 DUP13 PUSH2 0x345E JUMP JUMPDEST PUSH2 0x3019 DUP10 PUSH1 0x1 DUP11 PUSH2 0x2FDA SWAP2 SWAP1 PUSH2 0x4662 JUMP JUMPDEST DUP7 EQ PUSH2 0x3006 JUMPI PUSH1 0x0 PUSH1 0x40 MLOAD PUSH1 0x20 ADD PUSH2 0x2FF2 SWAP2 SWAP1 PUSH2 0x4DBC JUMP JUMPDEST PUSH1 0x40 MLOAD PUSH1 0x20 DUP2 DUP4 SUB SUB DUP2 MSTORE SWAP1 PUSH1 0x40 MSTORE PUSH2 0x3014 JUMP JUMPDEST PUSH2 0x3013 DUP15 PUSH1 0x34 PUSH1 0x20 PUSH2 0x1DD9 JUMP JUMPDEST JUMPDEST PUSH2 0x1E43 JUMP JUMPDEST SWAP9 POP DUP2 PUSH20 0xFFFFFFFFFFFFFFFFFFFFFFFFFFFFFFFFFFFFFFFF AND PUSH4 0x70A08231 ADDRESS PUSH1 0x40 MLOAD DUP3 PUSH4 0xFFFFFFFF AND PUSH1 0xE0 SHL DUP2 MSTORE PUSH1 0x4 ADD PUSH2 0x3054 SWAP2 SWAP1 PUSH2 0x45D6 JUMP JUMPDEST PUSH1 0x20 PUSH1 0x40 MLOAD DUP1 DUP4 SUB DUP2 DUP7 DUP1 EXTCODESIZE ISZERO DUP1 ISZERO PUSH2 0x306C JUMPI PUSH1 0x0 DUP1 REVERT JUMPDEST POP GAS STATICCALL ISZERO DUP1 ISZERO PUSH2 0x3080 JUMPI RETURNDATASIZE PUSH1 0x0 DUP1 RETURNDATACOPY RETURNDATASIZE PUSH1 0x0 REVERT JUMPDEST POP POP POP POP PUSH1 0x40 MLOAD RETURNDATASIZE PUSH1 0x1F NOT PUSH1 0x1F DUP3 ADD AND DUP3 ADD DUP1 PUSH1 0x40 MSTORE POP DUP2 ADD SWAP1 PUSH2 0x30A4 SWAP2 SWAP1 PUSH2 0x4606 JUMP JUMPDEST SWAP5 POP PUSH2 0x31FE JUMP JUMPDEST PUSH1 0x0 PUSH20 0xFFFFFFFFFFFFFFFFFFFFFFFFFFFFFFFFFFFFFFFF AND DUP12 PUSH20 0xFFFFFFFFFFFFFFFFFFFFFFFFFFFFFFFFFFFFFFFF AND EQ PUSH2 0x30EB JUMPI PUSH2 0x30EA DUP12 DUP5 DUP13 PUSH2 0x345E JUMP JUMPDEST JUMPDEST PUSH2 0x3164 DUP10 PUSH2 0x315F PUSH1 0x1 DUP12 PUSH2 0x30FF SWAP2 SWAP1 PUSH2 0x4662 JUMP JUMPDEST DUP8 EQ PUSH2 0x312B JUMPI PUSH1 0x0 PUSH1 0x40 MLOAD PUSH1 0x20 ADD PUSH2 0x3117 SWAP2 SWAP1 PUSH2 0x4DBC JUMP JUMPDEST PUSH1 0x40 MLOAD PUSH1 0x20 DUP2 DUP4 SUB SUB DUP2 MSTORE SWAP1 PUSH1 0x40 MSTORE PUSH2 0x3139 JUMP JUMPDEST PUSH2 0x3138 DUP16 PUSH1 0x34 PUSH1 0x20 PUSH2 0x1DD9 JUMP JUMPDEST JUMPDEST PUSH1 0x1 PUSH1 0x40 MLOAD PUSH1 0x20 ADD PUSH2 0x314B SWAP2 SWAP1 PUSH2 0x4DF2 JUMP JUMPDEST PUSH1 0x40 MLOAD PUSH1 0x20 DUP2 DUP4 SUB SUB DUP2 MSTORE SWAP1 PUSH1 0x40 MSTORE PUSH2 0x1E43 JUMP JUMPDEST PUSH2 0x1E43 JUMP JUMPDEST SWAP9 POP DUP1 PUSH2 0x31F9 JUMPI DUP2 PUSH20 0xFFFFFFFFFFFFFFFFFFFFFFFFFFFFFFFFFFFFFFFF AND PUSH4 0x70A08231 ADDRESS PUSH1 0x40 MLOAD DUP3 PUSH4 0xFFFFFFFF AND PUSH1 0xE0 SHL DUP2 MSTORE PUSH1 0x4 ADD PUSH2 0x31A4 SWAP2 SWAP1 PUSH2 0x45D6 JUMP JUMPDEST PUSH1 0x20 PUSH1 0x40 MLOAD DUP1 DUP4 SUB DUP2 DUP7 DUP1 EXTCODESIZE ISZERO DUP1 ISZERO PUSH2 0x31BC JUMPI PUSH1 0x0 DUP1 REVERT JUMPDEST POP GAS STATICCALL ISZERO DUP1 ISZERO PUSH2 0x31D0 JUMPI RETURNDATASIZE PUSH1 0x0 DUP1 RETURNDATACOPY RETURNDATASIZE PUSH1 0x0 REVERT JUMPDEST POP POP POP POP PUSH1 0x40 MLOAD RETURNDATASIZE PUSH1 0x1F NOT PUSH1 0x1F DUP3 ADD AND DUP3 ADD DUP1 PUSH1 0x40 MSTORE POP DUP2 ADD SWAP1 PUSH2 0x31F4 SWAP2 SWAP1 PUSH2 0x4606 JUMP JUMPDEST PUSH2 0x31FB JUMP JUMPDEST SELFBALANCE JUMPDEST SWAP5 POP JUMPDEST PUSH1 0x0 DUP1 DUP5 PUSH20 0xFFFFFFFFFFFFFFFFFFFFFFFFFFFFFFFFFFFFFFFF AND PUSH1 0x0 PUSH20 0xFFFFFFFFFFFFFFFFFFFFFFFFFFFFFFFFFFFFFFFF AND DUP15 PUSH20 0xFFFFFFFFFFFFFFFFFFFFFFFFFFFFFFFFFFFFFFFF AND EQ PUSH2 0x3253 JUMPI PUSH1 0x0 PUSH2 0x3255 JUMP JUMPDEST DUP13 JUMPDEST DUP13 PUSH1 0x40 MLOAD PUSH2 0x3263 SWAP2 SWAP1 PUSH2 0x4A98 JUMP JUMPDEST PUSH1 0x0 PUSH1 0x40 MLOAD DUP1 DUP4 SUB DUP2 DUP6 DUP8 GAS CALL SWAP3 POP POP POP RETURNDATASIZE DUP1 PUSH1 0x0 DUP2 EQ PUSH2 0x32A0 JUMPI PUSH1 0x40 MLOAD SWAP2 POP PUSH1 0x1F NOT PUSH1 0x3F RETURNDATASIZE ADD AND DUP3 ADD PUSH1 0x40 MSTORE RETURNDATASIZE DUP3 MSTORE RETURNDATASIZE PUSH1 0x0 PUSH1 0x20 DUP5 ADD RETURNDATACOPY PUSH2 0x32A5 JUMP JUMPDEST PUSH1 0x60 SWAP2 POP JUMPDEST POP SWAP2 POP SWAP2 POP DUP2 PUSH2 0x32EB JUMPI DUP1 PUSH1 0x40 MLOAD PUSH31 0xC73C9000000000000000000000000000000000000000000000000000000000 DUP2 MSTORE PUSH1 0x4 ADD PUSH2 0x32E2 SWAP2 SWAP1 PUSH2 0x4E0D JUMP JUMPDEST PUSH1 0x40 MLOAD DUP1 SWAP2 SUB SWAP1 REVERT JUMPDEST DUP3 PUSH2 0x3389 JUMPI DUP7 DUP5 PUSH20 0xFFFFFFFFFFFFFFFFFFFFFFFFFFFFFFFFFFFFFFFF AND PUSH4 0x70A08231 ADDRESS PUSH1 0x40 MLOAD DUP3 PUSH4 0xFFFFFFFF AND PUSH1 0xE0 SHL DUP2 MSTORE PUSH1 0x4 ADD PUSH2 0x332A SWAP2 SWAP1 PUSH2 0x45D6 JUMP JUMPDEST PUSH1 0x20 PUSH1 0x40 MLOAD DUP1 DUP4 SUB DUP2 DUP7 DUP1 EXTCODESIZE ISZERO DUP1 ISZERO PUSH2 0x3342 JUMPI PUSH1 0x0 DUP1 REVERT JUMPDEST POP GAS STATICCALL ISZERO DUP1 ISZERO PUSH2 0x3356 JUMPI RETURNDATASIZE PUSH1 0x0 DUP1 RETURNDATACOPY RETURNDATASIZE PUSH1 0x0 REVERT JUMPDEST POP POP POP POP PUSH1 0x40 MLOAD RETURNDATASIZE PUSH1 0x1F NOT PUSH1 0x1F DUP3 ADD AND DUP3 ADD DUP1 PUSH1 0x40 MSTORE POP DUP2 ADD SWAP1 PUSH2 0x337A SWAP2 SWAP1 PUSH2 0x4606 JUMP JUMPDEST PUSH2 0x3384 SWAP2 SWAP1 PUSH2 0x4662 JUMP JUMPDEST PUSH2 0x3396 JUMP JUMPDEST DUP7 SELFBALANCE PUSH2 0x3395 SWAP2 SWAP1 PUSH2 0x4662 JUMP JUMPDEST JUMPDEST SWAP12 POP DUP4 SWAP13 POP DUP6 DUP1 PUSH1 0x1 ADD SWAP7 POP POP POP POP POP POP POP PUSH2 0x2E4E JUMP JUMPDEST POP ADDRESS PUSH20 0xFFFFFFFFFFFFFFFFFFFFFFFFFFFFFFFFFFFFFFFF AND DUP4 PUSH20 0xFFFFFFFFFFFFFFFFFFFFFFFFFFFFFFFFFFFFFFFF AND EQ PUSH2 0x3431 JUMPI PUSH1 0x0 PUSH20 0xFFFFFFFFFFFFFFFFFFFFFFFFFFFFFFFFFFFFFFFF AND DUP8 PUSH20 0xFFFFFFFFFFFFFFFFFFFFFFFFFFFFFFFFFFFFFFFF AND EQ PUSH2 0x3425 JUMPI PUSH2 0x3420 DUP8 DUP5 DUP9 PUSH2 0xA93 JUMP JUMPDEST PUSH2 0x3430 JUMP JUMPDEST PUSH2 0x342F DUP4 DUP8 PUSH2 0x3AB7 JUMP JUMPDEST JUMPDEST JUMPDEST DUP6 PUSH1 0x40 MLOAD PUSH1 0x20 ADD PUSH2 0x3442 SWAP2 SWAP1 PUSH2 0x49EB JUMP JUMPDEST PUSH1 0x40 MLOAD PUSH1 0x20 DUP2 DUP4 SUB SUB DUP2 MSTORE SWAP1 PUSH1 0x40 MSTORE SWAP5 POP POP POP POP POP SWAP4 SWAP3 POP POP POP JUMP JUMPDEST PUSH1 0x0 PUSH1 0x40 MLOAD PUSH32 0x95EA7B300000000000000000000000000000000000000000000000000000000 DUP2 MSTORE DUP4 PUSH1 0x4 DUP3 ADD MSTORE DUP3 PUSH1 0x24 DUP3 ADD MSTORE PUSH1 0x20 PUSH1 0x0 PUSH1 0x44 DUP4 PUSH1 0x0 DUP10 GAS CALL RETURNDATASIZE ISZERO PUSH1 0x1F RETURNDATASIZE GT PUSH1 0x1 PUSH1 0x0 MLOAD EQ AND OR AND SWAP2 POP POP DUP1 PUSH2 0x34F0 JUMPI PUSH1 0x40 MLOAD PUSH32 0x8C379A000000000000000000000000000000000000000000000000000000000 DUP2 MSTORE PUSH1 0x4 ADD PUSH2 0x34E7 SWAP1 PUSH2 0x4E7B JUMP JUMPDEST PUSH1 0x40 MLOAD DUP1 SWAP2 SUB SWAP1 REVERT JUMPDEST POP POP POP POP JUMP JUMPDEST PUSH1 0x0 DUP2 PUSH1 0x3 DUP5 ADD ADD MLOAD SWAP1 POP SWAP3 SWAP2 POP POP JUMP JUMPDEST PUSH1 0x60 DUP1 PUSH1 0x60 DUP4 PUSH8 0xFFFFFFFFFFFFFFFF DUP2 GT ISZERO PUSH2 0x3526 JUMPI PUSH2 0x3525 PUSH2 0x403E JUMP JUMPDEST JUMPDEST PUSH1 0x40 MLOAD SWAP1 DUP1 DUP3 MSTORE DUP1 PUSH1 0x20 MUL PUSH1 0x20 ADD DUP3 ADD PUSH1 0x40 MSTORE DUP1 ISZERO PUSH2 0x3554 JUMPI DUP2 PUSH1 0x20 ADD PUSH1 0x20 DUP3 MUL DUP1 CALLDATASIZE DUP4 CALLDATACOPY DUP1 DUP3 ADD SWAP2 POP POP SWAP1 POP JUMPDEST POP SWAP3 POP PUSH1 0x1 DUP5 PUSH2 0x3564 SWAP2 SWAP1 PUSH2 0x4A06 JUMP JUMPDEST PUSH8 0xFFFFFFFFFFFFFFFF DUP2 GT ISZERO PUSH2 0x357D JUMPI PUSH2 0x357C PUSH2 0x403E JUMP JUMPDEST JUMPDEST PUSH1 0x40 MLOAD SWAP1 DUP1 DUP3 MSTORE DUP1 PUSH1 0x20 MUL PUSH1 0x20 ADD DUP3 ADD PUSH1 0x40 MSTORE DUP1 ISZERO PUSH2 0x35AB JUMPI DUP2 PUSH1 0x20 ADD PUSH1 0x20 DUP3 MUL DUP1 CALLDATASIZE DUP4 CALLDATACOPY DUP1 DUP3 ADD SWAP2 POP POP SWAP1 POP JUMPDEST POP SWAP2 POP DUP4 PUSH8 0xFFFFFFFFFFFFFFFF DUP2 GT ISZERO PUSH2 0x35C8 JUMPI PUSH2 0x35C7 PUSH2 0x403E JUMP JUMPDEST JUMPDEST PUSH1 0x40 MLOAD SWAP1 DUP1 DUP3 MSTORE DUP1 PUSH1 0x20 MUL PUSH1 0x20 ADD DUP3 ADD PUSH1 0x40 MSTORE DUP1 ISZERO PUSH2 0x35F6 JUMPI DUP2 PUSH1 0x20 ADD PUSH1 0x20 DUP3 MUL DUP1 CALLDATASIZE DUP4 CALLDATACOPY DUP1 DUP3 ADD SWAP2 POP POP SWAP1 POP JUMPDEST POP SWAP1 POP PUSH1 0x0 DUP1 PUSH1 0x0 DUP8 SWAP1 POP PUSH1 0x0 PUSH20 0xFFFFFFFFFFFFFFFFFFFFFFFFFFFFFFFFFFFFFFFF AND DUP10 PUSH20 0xFFFFFFFFFFFFFFFFFFFFFFFFFFFFFFFFFFFFFFFF AND EQ PUSH2 0x363B JUMPI DUP9 PUSH2 0x365D JUMP JUMPDEST PUSH32 0x0 JUMPDEST DUP6 PUSH1 0x0 DUP2 MLOAD DUP2 LT PUSH2 0x3671 JUMPI PUSH2 0x3670 PUSH2 0x452D JUMP JUMPDEST JUMPDEST PUSH1 0x20 MUL PUSH1 0x20 ADD ADD SWAP1 PUSH20 0xFFFFFFFFFFFFFFFFFFFFFFFFFFFFFFFFFFFFFFFF AND SWAP1 DUP2 PUSH20 0xFFFFFFFFFFFFFFFFFFFFFFFFFFFFFFFFFFFFFFFF AND DUP2 MSTORE POP POP PUSH1 0x0 JUMPDEST DUP8 DUP2 LT ISZERO PUSH2 0x396D JUMPI PUSH2 0x36E4 DUP12 PUSH1 0x14 PUSH1 0x1 DUP5 PUSH2 0x36C9 SWAP2 SWAP1 PUSH2 0x4A06 JUMP JUMPDEST PUSH2 0x36D3 SWAP2 SWAP1 PUSH2 0x4696 JUMP JUMPDEST PUSH1 0x40 PUSH2 0x36DF SWAP2 SWAP1 PUSH2 0x4A06 JUMP JUMPDEST PUSH2 0x1ECD JUMP JUMPDEST DUP7 PUSH1 0x1 DUP4 PUSH2 0x36F2 SWAP2 SWAP1 PUSH2 0x4A06 JUMP JUMPDEST DUP2 MLOAD DUP2 LT PUSH2 0x3703 JUMPI PUSH2 0x3702 PUSH2 0x452D JUMP JUMPDEST JUMPDEST PUSH1 0x20 MUL PUSH1 0x20 ADD ADD SWAP1 PUSH20 0xFFFFFFFFFFFFFFFFFFFFFFFFFFFFFFFFFFFFFFFF AND SWAP1 DUP2 PUSH20 0xFFFFFFFFFFFFFFFFFFFFFFFFFFFFFFFFFFFFFFFF AND DUP2 MSTORE POP POP DUP6 DUP2 DUP2 MLOAD DUP2 LT PUSH2 0x3750 JUMPI PUSH2 0x374F PUSH2 0x452D JUMP JUMPDEST JUMPDEST PUSH1 0x20 MUL PUSH1 0x20 ADD ADD MLOAD SWAP4 POP DUP6 PUSH1 0x1 DUP3 PUSH2 0x3768 SWAP2 SWAP1 PUSH2 0x4A06 JUMP JUMPDEST DUP2 MLOAD DUP2 LT PUSH2 0x3779 JUMPI PUSH2 0x3778 PUSH2 0x452D JUMP JUMPDEST JUMPDEST PUSH1 0x20 MUL PUSH1 0x20 ADD ADD MLOAD SWAP3 POP PUSH2 0x378D DUP5 DUP5 PUSH2 0x3D54 JUMP JUMPDEST DUP8 DUP3 DUP2 MLOAD DUP2 LT PUSH2 0x37A0 JUMPI PUSH2 0x379F PUSH2 0x452D JUMP JUMPDEST JUMPDEST PUSH1 0x20 MUL PUSH1 0x20 ADD ADD SWAP1 PUSH20 0xFFFFFFFFFFFFFFFFFFFFFFFFFFFFFFFFFFFFFFFF AND SWAP1 DUP2 PUSH20 0xFFFFFFFFFFFFFFFFFFFFFFFFFFFFFFFFFFFFFFFF AND DUP2 MSTORE POP POP PUSH1 0x0 DUP1 DUP9 DUP4 DUP2 MLOAD DUP2 LT PUSH2 0x37F0 JUMPI PUSH2 0x37EF PUSH2 0x452D JUMP JUMPDEST JUMPDEST PUSH1 0x20 MUL PUSH1 0x20 ADD ADD MLOAD PUSH20 0xFFFFFFFFFFFFFFFFFFFFFFFFFFFFFFFFFFFFFFFF AND PUSH4 0x902F1AC PUSH1 0x40 MLOAD DUP2 PUSH4 0xFFFFFFFF AND PUSH1 0xE0 SHL DUP2 MSTORE PUSH1 0x4 ADD PUSH1 0x60 PUSH1 0x40 MLOAD DUP1 DUP4 SUB DUP2 DUP7 DUP1 EXTCODESIZE ISZERO DUP1 ISZERO PUSH2 0x383D JUMPI PUSH1 0x0 DUP1 REVERT JUMPDEST POP GAS STATICCALL ISZERO DUP1 ISZERO PUSH2 0x3851 JUMPI RETURNDATASIZE PUSH1 0x0 DUP1 RETURNDATACOPY RETURNDATASIZE PUSH1 0x0 REVERT JUMPDEST POP POP POP POP PUSH1 0x40 MLOAD RETURNDATASIZE PUSH1 0x1F NOT PUSH1 0x1F DUP3 ADD AND DUP3 ADD DUP1 PUSH1 0x40 MSTORE POP DUP2 ADD SWAP1 PUSH2 0x3875 SWAP2 SWAP1 PUSH2 0x4F1D JUMP JUMPDEST POP PUSH14 0xFFFFFFFFFFFFFFFFFFFFFFFFFFFF AND SWAP2 POP PUSH14 0xFFFFFFFFFFFFFFFFFFFFFFFFFFFF AND SWAP2 POP DUP5 PUSH20 0xFFFFFFFFFFFFFFFFFFFFFFFFFFFFFFFFFFFFFFFF AND DUP7 PUSH20 0xFFFFFFFFFFFFFFFFFFFFFFFFFFFFFFFFFFFFFFFF AND GT ISZERO PUSH2 0x38D9 JUMPI DUP1 DUP3 DUP1 SWAP3 POP DUP2 SWAP4 POP POP POP JUMPDEST PUSH2 0x3E5 DUP5 PUSH2 0x38E7 SWAP2 SWAP1 PUSH2 0x4696 JUMP JUMPDEST PUSH2 0x3E8 DUP4 PUSH2 0x38F5 SWAP2 SWAP1 PUSH2 0x4696 JUMP JUMPDEST PUSH2 0x38FF SWAP2 SWAP1 PUSH2 0x4A06 JUMP JUMPDEST DUP2 PUSH2 0x3E5 DUP7 PUSH2 0x390E SWAP2 SWAP1 PUSH2 0x4696 JUMP JUMPDEST PUSH2 0x3918 SWAP2 SWAP1 PUSH2 0x4696 JUMP JUMPDEST PUSH2 0x3922 SWAP2 SWAP1 PUSH2 0x471F JUMP JUMPDEST DUP8 DUP5 DUP2 MLOAD DUP2 LT PUSH2 0x3935 JUMPI PUSH2 0x3934 PUSH2 0x452D JUMP JUMPDEST JUMPDEST PUSH1 0x20 MUL PUSH1 0x20 ADD ADD DUP2 DUP2 MSTORE POP POP DUP7 DUP4 DUP2 MLOAD DUP2 LT PUSH2 0x3954 JUMPI PUSH2 0x3953 PUSH2 0x452D JUMP JUMPDEST JUMPDEST PUSH1 0x20 MUL PUSH1 0x20 ADD ADD MLOAD SWAP4 POP DUP3 DUP1 PUSH1 0x1 ADD SWAP4 POP POP POP POP PUSH2 0x36AE JUMP JUMPDEST POP PUSH2 0x3979 DUP11 PUSH1 0x20 PUSH2 0x1E32 JUMP JUMPDEST DUP2 LT ISZERO PUSH2 0x39B2 JUMPI PUSH1 0x40 MLOAD PUSH32 0xBB2875C300000000000000000000000000000000000000000000000000000000 DUP2 MSTORE PUSH1 0x4 ADD PUSH1 0x40 MLOAD DUP1 SWAP2 SUB SWAP1 REVERT JUMPDEST PUSH1 0x0 PUSH20 0xFFFFFFFFFFFFFFFFFFFFFFFFFFFFFFFFFFFFFFFF AND DUP10 PUSH20 0xFFFFFFFFFFFFFFFFFFFFFFFFFFFFFFFFFFFFFFFF AND EQ ISZERO PUSH2 0x3A69 JUMPI PUSH32 0x0 PUSH20 0xFFFFFFFFFFFFFFFFFFFFFFFFFFFFFFFFFFFFFFFF AND PUSH4 0xD0E30DB0 DUP10 PUSH1 0x40 MLOAD DUP3 PUSH4 0xFFFFFFFF AND PUSH1 0xE0 SHL DUP2 MSTORE PUSH1 0x4 ADD PUSH1 0x0 PUSH1 0x40 MLOAD DUP1 DUP4 SUB DUP2 DUP6 DUP9 DUP1 EXTCODESIZE ISZERO DUP1 ISZERO PUSH2 0x3A4F JUMPI PUSH1 0x0 DUP1 REVERT JUMPDEST POP GAS CALL ISZERO DUP1 ISZERO PUSH2 0x3A63 JUMPI RETURNDATASIZE PUSH1 0x0 DUP1 RETURNDATACOPY RETURNDATASIZE PUSH1 0x0 REVERT JUMPDEST POP POP POP POP POP JUMPDEST PUSH2 0x3AAA DUP6 PUSH1 0x0 DUP2 MLOAD DUP2 LT PUSH2 0x3A80 JUMPI PUSH2 0x3A7F PUSH2 0x452D JUMP JUMPDEST JUMPDEST PUSH1 0x20 MUL PUSH1 0x20 ADD ADD MLOAD DUP8 PUSH1 0x0 DUP2 MLOAD DUP2 LT PUSH2 0x3A9C JUMPI PUSH2 0x3A9B PUSH2 0x452D JUMP JUMPDEST JUMPDEST PUSH1 0x20 MUL PUSH1 0x20 ADD ADD MLOAD DUP11 PUSH2 0xA93 JUMP JUMPDEST POP POP POP SWAP5 POP SWAP5 POP SWAP5 SWAP2 POP POP JUMP JUMPDEST PUSH1 0x0 DUP1 PUSH1 0x0 DUP1 PUSH1 0x0 DUP6 DUP8 GAS CALL SWAP1 POP DUP1 PUSH2 0x3B05 JUMPI PUSH1 0x40 MLOAD PUSH32 0x8C379A000000000000000000000000000000000000000000000000000000000 DUP2 MSTORE PUSH1 0x4 ADD PUSH2 0x3AFC SWAP1 PUSH2 0x4FBC JUMP JUMPDEST PUSH1 0x40 MLOAD DUP1 SWAP2 SUB SWAP1 REVERT JUMPDEST POP POP POP JUMP JUMPDEST PUSH1 0x0 DUP1 PUSH2 0x3B18 DUP4 PUSH1 0x0 PUSH2 0x1ECD JUMP JUMPDEST SWAP1 POP PUSH1 0x0 PUSH20 0xFFFFFFFFFFFFFFFFFFFFFFFFFFFFFFFFFFFFFFFF AND DUP2 PUSH20 0xFFFFFFFFFFFFFFFFFFFFFFFFFFFFFFFFFFFFFFFF AND EQ ISZERO PUSH2 0x3B73 JUMPI PUSH32 0x0 SWAP1 POP JUMPDEST PUSH1 0x0 PUSH2 0x3B80 DUP5 PUSH1 0x14 PUSH2 0x34F6 JUMP JUMPDEST SWAP1 POP PUSH1 0x0 PUSH2 0x3B8F DUP6 PUSH1 0x17 PUSH2 0x1ECD JUMP JUMPDEST SWAP1 POP PUSH1 0x0 DUP2 PUSH20 0xFFFFFFFFFFFFFFFFFFFFFFFFFFFFFFFFFFFFFFFF AND DUP5 PUSH20 0xFFFFFFFFFFFFFFFFFFFFFFFFFFFFFFFFFFFFFFFF AND LT SWAP1 POP DUP1 ISZERO PUSH2 0x3C86 JUMPI PUSH1 0x0 PUSH2 0x3BD7 DUP6 DUP5 DUP7 PUSH2 0x1CF4 JUMP JUMPDEST PUSH20 0xFFFFFFFFFFFFFFFFFFFFFFFFFFFFFFFFFFFFFFFF AND PUSH4 0x128ACB08 DUP11 DUP5 DUP12 PUSH5 0x1000276A4 DUP13 PUSH1 0x40 MLOAD DUP7 PUSH4 0xFFFFFFFF AND PUSH1 0xE0 SHL DUP2 MSTORE PUSH1 0x4 ADD PUSH2 0x3C1C SWAP6 SWAP5 SWAP4 SWAP3 SWAP2 SWAP1 PUSH2 0x4FFA JUMP JUMPDEST PUSH1 0x40 DUP1 MLOAD DUP1 DUP4 SUB DUP2 PUSH1 0x0 DUP8 DUP1 EXTCODESIZE ISZERO DUP1 ISZERO PUSH2 0x3C35 JUMPI PUSH1 0x0 DUP1 REVERT JUMPDEST POP GAS CALL ISZERO DUP1 ISZERO PUSH2 0x3C49 JUMPI RETURNDATASIZE PUSH1 0x0 DUP1 RETURNDATACOPY RETURNDATASIZE PUSH1 0x0 REVERT JUMPDEST POP POP POP POP PUSH1 0x40 MLOAD RETURNDATASIZE PUSH1 0x1F NOT PUSH1 0x1F DUP3 ADD AND DUP3 ADD DUP1 PUSH1 0x40 MSTORE POP DUP2 ADD SWAP1 PUSH2 0x3C6D SWAP2 SWAP1 PUSH2 0x5054 JUMP JUMPDEST SWAP2 POP POP DUP1 PUSH2 0x3C7A SWAP1 PUSH2 0x49A2 JUMP JUMPDEST SWAP6 POP POP POP POP POP POP PUSH2 0x3D4D JUMP JUMPDEST PUSH1 0x0 PUSH2 0x3C93 DUP6 DUP5 DUP7 PUSH2 0x1CF4 JUMP JUMPDEST PUSH20 0xFFFFFFFFFFFFFFFFFFFFFFFFFFFFFFFFFFFFFFFF AND PUSH4 0x128ACB08 DUP11 DUP5 DUP12 PUSH20 0xFFFD8963EFD1FC6A506488495D951D5263988D25 DUP13 PUSH1 0x40 MLOAD DUP7 PUSH4 0xFFFFFFFF AND PUSH1 0xE0 SHL DUP2 MSTORE PUSH1 0x4 ADD PUSH2 0x3CE7 SWAP6 SWAP5 SWAP4 SWAP3 SWAP2 SWAP1 PUSH2 0x4FFA JUMP JUMPDEST PUSH1 0x40 DUP1 MLOAD DUP1 DUP4 SUB DUP2 PUSH1 0x0 DUP8 DUP1 EXTCODESIZE ISZERO DUP1 ISZERO PUSH2 0x3D00 JUMPI PUSH1 0x0 DUP1 REVERT JUMPDEST POP GAS CALL ISZERO DUP1 ISZERO PUSH2 0x3D14 JUMPI RETURNDATASIZE PUSH1 0x0 DUP1 RETURNDATACOPY RETURNDATASIZE PUSH1 0x0 REVERT JUMPDEST POP POP POP POP PUSH1 0x40 MLOAD RETURNDATASIZE PUSH1 0x1F NOT PUSH1 0x1F DUP3 ADD AND DUP3 ADD DUP1 PUSH1 0x40 MSTORE POP DUP2 ADD SWAP1 PUSH2 0x3D38 SWAP2 SWAP1 PUSH2 0x5054 JUMP JUMPDEST POP SWAP1 POP DUP1 PUSH2 0x3D45 SWAP1 PUSH2 0x49A2 JUMP JUMPDEST SWAP6 POP POP POP POP POP POP JUMPDEST SWAP4 SWAP3 POP POP POP JUMP JUMPDEST PUSH1 0x0 DUP2 PUSH20 0xFFFFFFFFFFFFFFFFFFFFFFFFFFFFFFFFFFFFFFFF AND DUP4 PUSH20 0xFFFFFFFFFFFFFFFFFFFFFFFFFFFFFFFFFFFFFFFF AND EQ ISZERO PUSH2 0x3DC5 JUMPI PUSH1 0x40 MLOAD PUSH32 0x8C379A000000000000000000000000000000000000000000000000000000000 DUP2 MSTORE PUSH1 0x4 ADD PUSH2 0x3DBC SWAP1 PUSH2 0x50E0 JUMP JUMPDEST PUSH1 0x40 MLOAD DUP1 SWAP2 SUB SWAP1 REVERT JUMPDEST DUP2 PUSH20 0xFFFFFFFFFFFFFFFFFFFFFFFFFFFFFFFFFFFFFFFF AND DUP4 PUSH20 0xFFFFFFFFFFFFFFFFFFFFFFFFFFFFFFFFFFFFFFFF AND LT PUSH2 0x3DFF JUMPI DUP2 DUP4 PUSH2 0x3E02 JUMP JUMPDEST DUP3 DUP3 JUMPDEST DUP1 SWAP4 POP DUP2 SWAP5 POP POP POP PUSH1 0x0 PUSH20 0xFFFFFFFFFFFFFFFFFFFFFFFFFFFFFFFFFFFFFFFF AND DUP4 PUSH20 0xFFFFFFFFFFFFFFFFFFFFFFFFFFFFFFFFFFFFFFFF AND EQ ISZERO PUSH2 0x3E7A JUMPI PUSH1 0x40 MLOAD PUSH32 0x8C379A000000000000000000000000000000000000000000000000000000000 DUP2 MSTORE PUSH1 0x4 ADD PUSH2 0x3E71 SWAP1 PUSH2 0x514C JUMP JUMPDEST PUSH1 0x40 MLOAD DUP1 SWAP2 SUB SWAP1 REVERT JUMPDEST PUSH32 0x0 DUP4 DUP4 PUSH1 0x40 MLOAD PUSH1 0x20 ADD PUSH2 0x3EAE SWAP3 SWAP2 SWAP1 PUSH2 0x516C JUMP JUMPDEST PUSH1 0x40 MLOAD PUSH1 0x20 DUP2 DUP4 SUB SUB DUP2 MSTORE SWAP1 PUSH1 0x40 MSTORE DUP1 MLOAD SWAP1 PUSH1 0x20 ADD KECCAK256 PUSH1 0x40 MLOAD PUSH1 0x20 ADD PUSH2 0x3ED5 SWAP3 SWAP2 SWAP1 PUSH2 0x51E4 JUMP JUMPDEST PUSH1 0x40 MLOAD PUSH1 0x20 DUP2 DUP4 SUB SUB DUP2 MSTORE SWAP1 PUSH1 0x40 MSTORE DUP1 MLOAD SWAP1 PUSH1 0x20 ADD KECCAK256 PUSH1 0x0 SHR SWAP1 POP SWAP3 SWAP2 POP POP JUMP JUMPDEST PUSH1 0x0 PUSH1 0x40 MLOAD SWAP1 POP SWAP1 JUMP JUMPDEST PUSH1 0x0 DUP1 REVERT JUMPDEST PUSH1 0x0 DUP1 REVERT JUMPDEST PUSH1 0x0 DUP1 REVERT JUMPDEST PUSH1 0x0 DUP1 REVERT JUMPDEST PUSH1 0x0 DUP1 REVERT JUMPDEST PUSH1 0x0 DUP1 DUP4 PUSH1 0x1F DUP5 ADD SLT PUSH2 0x3F2F JUMPI PUSH2 0x3F2E PUSH2 0x3F0A JUMP JUMPDEST JUMPDEST DUP3 CALLDATALOAD SWAP1 POP PUSH8 0xFFFFFFFFFFFFFFFF DUP2 GT ISZERO PUSH2 0x3F4C JUMPI PUSH2 0x3F4B PUSH2 0x3F0F JUMP JUMPDEST JUMPDEST PUSH1 0x20 DUP4 ADD SWAP2 POP DUP4 PUSH1 0x20 DUP3 MUL DUP4 ADD GT ISZERO PUSH2 0x3F68 JUMPI PUSH2 0x3F67 PUSH2 0x3F14 JUMP JUMPDEST JUMPDEST SWAP3 POP SWAP3 SWAP1 POP JUMP JUMPDEST PUSH1 0x0 PUSH20 0xFFFFFFFFFFFFFFFFFFFFFFFFFFFFFFFFFFFFFFFF DUP3 AND SWAP1 POP SWAP2 SWAP1 POP JUMP JUMPDEST PUSH1 0x0 PUSH2 0x3F9A DUP3 PUSH2 0x3F6F JUMP JUMPDEST SWAP1 POP SWAP2 SWAP1 POP JUMP JUMPDEST PUSH2 0x3FAA DUP2 PUSH2 0x3F8F JUMP JUMPDEST DUP2 EQ PUSH2 0x3FB5 JUMPI PUSH1 0x0 DUP1 REVERT JUMPDEST POP JUMP JUMPDEST PUSH1 0x0 DUP2 CALLDATALOAD SWAP1 POP PUSH2 0x3FC7 DUP2 PUSH2 0x3FA1 JUMP JUMPDEST SWAP3 SWAP2 POP POP JUMP JUMPDEST PUSH1 0x0 DUP1 PUSH1 0x0 PUSH1 0x40 DUP5 DUP7 SUB SLT ISZERO PUSH2 0x3FE6 JUMPI PUSH2 0x3FE5 PUSH2 0x3F00 JUMP JUMPDEST JUMPDEST PUSH1 0x0 DUP5 ADD CALLDATALOAD PUSH8 0xFFFFFFFFFFFFFFFF DUP2 GT ISZERO PUSH2 0x4004 JUMPI PUSH2 0x4003 PUSH2 0x3F05 JUMP JUMPDEST JUMPDEST PUSH2 0x4010 DUP7 DUP3 DUP8 ADD PUSH2 0x3F19 JUMP JUMPDEST SWAP4 POP SWAP4 POP POP PUSH1 0x20 PUSH2 0x4023 DUP7 DUP3 DUP8 ADD PUSH2 0x3FB8 JUMP JUMPDEST SWAP2 POP POP SWAP3 POP SWAP3 POP SWAP3 JUMP JUMPDEST PUSH1 0x0 PUSH1 0x1F NOT PUSH1 0x1F DUP4 ADD AND SWAP1 POP SWAP2 SWAP1 POP JUMP JUMPDEST PUSH32 0x4E487B7100000000000000000000000000000000000000000000000000000000 PUSH1 0x0 MSTORE PUSH1 0x41 PUSH1 0x4 MSTORE PUSH1 0x24 PUSH1 0x0 REVERT JUMPDEST PUSH2 0x4076 DUP3 PUSH2 0x402D JUMP JUMPDEST DUP2 ADD DUP2 DUP2 LT PUSH8 0xFFFFFFFFFFFFFFFF DUP3 GT OR ISZERO PUSH2 0x4095 JUMPI PUSH2 0x4094 PUSH2 0x403E JUMP JUMPDEST JUMPDEST DUP1 PUSH1 0x40 MSTORE POP POP POP JUMP JUMPDEST PUSH1 0x0 PUSH2 0x40A8 PUSH2 0x3EF6 JUMP JUMPDEST SWAP1 POP PUSH2 0x40B4 DUP3 DUP3 PUSH2 0x406D JUMP JUMPDEST SWAP2 SWAP1 POP JUMP JUMPDEST PUSH1 0x0 PUSH8 0xFFFFFFFFFFFFFFFF DUP3 GT ISZERO PUSH2 0x40D4 JUMPI PUSH2 0x40D3 PUSH2 0x403E JUMP JUMPDEST JUMPDEST PUSH1 0x20 DUP3 MUL SWAP1 POP PUSH1 0x20 DUP2 ADD SWAP1 POP SWAP2 SWAP1 POP JUMP JUMPDEST PUSH1 0x0 DUP1 REVERT JUMPDEST PUSH1 0x0 PUSH8 0xFFFFFFFFFFFFFFFF DUP3 GT ISZERO PUSH2 0x4105 JUMPI PUSH2 0x4104 PUSH2 0x403E JUMP JUMPDEST JUMPDEST PUSH2 0x410E DUP3 PUSH2 0x402D JUMP JUMPDEST SWAP1 POP PUSH1 0x20 DUP2 ADD SWAP1 POP SWAP2 SWAP1 POP JUMP JUMPDEST DUP3 DUP2 DUP4 CALLDATACOPY PUSH1 0x0 DUP4 DUP4 ADD MSTORE POP POP POP JUMP JUMPDEST PUSH1 0x0 PUSH2 0x413D PUSH2 0x4138 DUP5 PUSH2 0x40EA JUMP JUMPDEST PUSH2 0x409E JUMP JUMPDEST SWAP1 POP DUP3 DUP2 MSTORE PUSH1 0x20 DUP2 ADD DUP5 DUP5 DUP5 ADD GT ISZERO PUSH2 0x4159 JUMPI PUSH2 0x4158 PUSH2 0x40E5 JUMP JUMPDEST JUMPDEST PUSH2 0x4164 DUP5 DUP3 DUP6 PUSH2 0x411B JUMP JUMPDEST POP SWAP4 SWAP3 POP POP POP JUMP JUMPDEST PUSH1 0x0 DUP3 PUSH1 0x1F DUP4 ADD SLT PUSH2 0x4181 JUMPI PUSH2 0x4180 PUSH2 0x3F0A JUMP JUMPDEST JUMPDEST DUP2 CALLDATALOAD PUSH2 0x4191 DUP5 DUP3 PUSH1 0x20 DUP7 ADD PUSH2 0x412A JUMP JUMPDEST SWAP2 POP POP SWAP3 SWAP2 POP POP JUMP JUMPDEST PUSH1 0x0 PUSH2 0x41AD PUSH2 0x41A8 DUP5 PUSH2 0x40B9 JUMP JUMPDEST PUSH2 0x409E JUMP JUMPDEST SWAP1 POP DUP1 DUP4 DUP3 MSTORE PUSH1 0x20 DUP3 ADD SWAP1 POP PUSH1 0x20 DUP5 MUL DUP4 ADD DUP6 DUP2 GT ISZERO PUSH2 0x41D0 JUMPI PUSH2 0x41CF PUSH2 0x3F14 JUMP JUMPDEST JUMPDEST DUP4 JUMPDEST DUP2 DUP2 LT ISZERO PUSH2 0x4217 JUMPI DUP1 CALLDATALOAD PUSH8 0xFFFFFFFFFFFFFFFF DUP2 GT ISZERO PUSH2 0x41F5 JUMPI PUSH2 0x41F4 PUSH2 0x3F0A JUMP JUMPDEST JUMPDEST DUP1 DUP7 ADD PUSH2 0x4202 DUP10 DUP3 PUSH2 0x416C JUMP JUMPDEST DUP6 MSTORE PUSH1 0x20 DUP6 ADD SWAP5 POP POP POP PUSH1 0x20 DUP2 ADD SWAP1 POP PUSH2 0x41D2 JUMP JUMPDEST POP POP POP SWAP4 SWAP3 POP POP POP JUMP JUMPDEST PUSH1 0x0 DUP3 PUSH1 0x1F DUP4 ADD SLT PUSH2 0x4236 JUMPI PUSH2 0x4235 PUSH2 0x3F0A JUMP JUMPDEST JUMPDEST DUP2 CALLDATALOAD PUSH2 0x4246 DUP5 DUP3 PUSH1 0x20 DUP7 ADD PUSH2 0x419A JUMP JUMPDEST SWAP2 POP POP SWAP3 SWAP2 POP POP JUMP JUMPDEST PUSH1 0x0 DUP2 SWAP1 POP SWAP2 SWAP1 POP JUMP JUMPDEST PUSH2 0x4262 DUP2 PUSH2 0x424F JUMP JUMPDEST DUP2 EQ PUSH2 0x426D JUMPI PUSH1 0x0 DUP1 REVERT JUMPDEST POP JUMP JUMPDEST PUSH1 0x0 DUP2 CALLDATALOAD SWAP1 POP PUSH2 0x427F DUP2 PUSH2 0x4259 JUMP JUMPDEST SWAP3 SWAP2 POP POP JUMP JUMPDEST PUSH1 0x0 DUP1 PUSH1 0x0 PUSH1 0x60 DUP5 DUP7 SUB SLT ISZERO PUSH2 0x429E JUMPI PUSH2 0x429D PUSH2 0x3F00 JUMP JUMPDEST JUMPDEST PUSH1 0x0 DUP5 ADD CALLDATALOAD PUSH8 0xFFFFFFFFFFFFFFFF DUP2 GT ISZERO PUSH2 0x42BC JUMPI PUSH2 0x42BB PUSH2 0x3F05 JUMP JUMPDEST JUMPDEST PUSH2 0x42C8 DUP7 DUP3 DUP8 ADD PUSH2 0x4221 JUMP JUMPDEST SWAP4 POP POP PUSH1 0x20 DUP5 ADD CALLDATALOAD PUSH8 0xFFFFFFFFFFFFFFFF DUP2 GT ISZERO PUSH2 0x42E9 JUMPI PUSH2 0x42E8 PUSH2 0x3F05 JUMP JUMPDEST JUMPDEST PUSH2 0x42F5 DUP7 DUP3 DUP8 ADD PUSH2 0x4221 JUMP JUMPDEST SWAP3 POP POP PUSH1 0x40 PUSH2 0x4306 DUP7 DUP3 DUP8 ADD PUSH2 0x4270 JUMP JUMPDEST SWAP2 POP POP SWAP3 POP SWAP3 POP SWAP3 JUMP JUMPDEST PUSH1 0x0 DUP1 PUSH1 0x40 DUP4 DUP6 SUB SLT ISZERO PUSH2 0x4327 JUMPI PUSH2 0x4326 PUSH2 0x3F00 JUMP JUMPDEST JUMPDEST PUSH1 0x0 DUP4 ADD CALLDATALOAD PUSH8 0xFFFFFFFFFFFFFFFF DUP2 GT ISZERO PUSH2 0x4345 JUMPI PUSH2 0x4344 PUSH2 0x3F05 JUMP JUMPDEST JUMPDEST PUSH2 0x4351 DUP6 DUP3 DUP7 ADD PUSH2 0x4221 JUMP JUMPDEST SWAP3 POP POP PUSH1 0x20 DUP4 ADD CALLDATALOAD PUSH8 0xFFFFFFFFFFFFFFFF DUP2 GT ISZERO PUSH2 0x4372 JUMPI PUSH2 0x4371 PUSH2 0x3F05 JUMP JUMPDEST JUMPDEST PUSH2 0x437E DUP6 DUP3 DUP7 ADD PUSH2 0x4221 JUMP JUMPDEST SWAP2 POP POP SWAP3 POP SWAP3 SWAP1 POP JUMP JUMPDEST PUSH1 0x0 PUSH1 0x20 DUP3 DUP5 SUB SLT ISZERO PUSH2 0x439E JUMPI PUSH2 0x439D PUSH2 0x3F00 JUMP JUMPDEST JUMPDEST PUSH1 0x0 PUSH2 0x43AC DUP5 DUP3 DUP6 ADD PUSH2 0x3FB8 JUMP JUMPDEST SWAP2 POP POP SWAP3 SWAP2 POP POP JUMP JUMPDEST PUSH1 0x0 DUP1 PUSH1 0x40 DUP4 DUP6 SUB SLT ISZERO PUSH2 0x43CC JUMPI PUSH2 0x43CB PUSH2 0x3F00 JUMP JUMPDEST JUMPDEST PUSH1 0x0 DUP4 ADD CALLDATALOAD PUSH8 0xFFFFFFFFFFFFFFFF DUP2 GT ISZERO PUSH2 0x43EA JUMPI PUSH2 0x43E9 PUSH2 0x3F05 JUMP JUMPDEST JUMPDEST PUSH2 0x43F6 DUP6 DUP3 DUP7 ADD PUSH2 0x416C JUMP JUMPDEST SWAP3 POP POP PUSH1 0x20 DUP4 ADD CALLDATALOAD PUSH8 0xFFFFFFFFFFFFFFFF DUP2 GT ISZERO PUSH2 0x4417 JUMPI PUSH2 0x4416 PUSH2 0x3F05 JUMP JUMPDEST JUMPDEST PUSH2 0x4423 DUP6 DUP3 DUP7 ADD PUSH2 0x416C JUMP JUMPDEST SWAP2 POP POP SWAP3 POP SWAP3 SWAP1 POP JUMP JUMPDEST PUSH1 0x0 DUP2 SWAP1 POP SWAP2 SWAP1 POP JUMP JUMPDEST PUSH2 0x4440 DUP2 PUSH2 0x442D JUMP JUMPDEST DUP2 EQ PUSH2 0x444B JUMPI PUSH1 0x0 DUP1 REVERT JUMPDEST POP JUMP JUMPDEST PUSH1 0x0 DUP2 CALLDATALOAD SWAP1 POP PUSH2 0x445D DUP2 PUSH2 0x4437 JUMP JUMPDEST SWAP3 SWAP2 POP POP JUMP JUMPDEST PUSH1 0x0 DUP1 DUP4 PUSH1 0x1F DUP5 ADD SLT PUSH2 0x4479 JUMPI PUSH2 0x4478 PUSH2 0x3F0A JUMP JUMPDEST JUMPDEST DUP3 CALLDATALOAD SWAP1 POP PUSH8 0xFFFFFFFFFFFFFFFF DUP2 GT ISZERO PUSH2 0x4496 JUMPI PUSH2 0x4495 PUSH2 0x3F0F JUMP JUMPDEST JUMPDEST PUSH1 0x20 DUP4 ADD SWAP2 POP DUP4 PUSH1 0x1 DUP3 MUL DUP4 ADD GT ISZERO PUSH2 0x44B2 JUMPI PUSH2 0x44B1 PUSH2 0x3F14 JUMP JUMPDEST JUMPDEST SWAP3 POP SWAP3 SWAP1 POP JUMP JUMPDEST PUSH1 0x0 DUP1 PUSH1 0x0 DUP1 PUSH1 0x60 DUP6 DUP8 SUB SLT ISZERO PUSH2 0x44D3 JUMPI PUSH2 0x44D2 PUSH2 0x3F00 JUMP JUMPDEST JUMPDEST PUSH1 0x0 PUSH2 0x44E1 DUP8 DUP3 DUP9 ADD PUSH2 0x444E JUMP JUMPDEST SWAP5 POP POP PUSH1 0x20 PUSH2 0x44F2 DUP8 DUP3 DUP9 ADD PUSH2 0x444E JUMP JUMPDEST SWAP4 POP POP PUSH1 0x40 DUP6 ADD CALLDATALOAD PUSH8 0xFFFFFFFFFFFFFFFF DUP2 GT ISZERO PUSH2 0x4513 JUMPI PUSH2 0x4512 PUSH2 0x3F05 JUMP JUMPDEST JUMPDEST PUSH2 0x451F DUP8 DUP3 DUP9 ADD PUSH2 0x4463 JUMP JUMPDEST SWAP3 POP SWAP3 POP POP SWAP3 SWAP6 SWAP2 SWAP5 POP SWAP3 POP JUMP JUMPDEST PUSH32 0x4E487B7100000000000000000000000000000000000000000000000000000000 PUSH1 0x0 MSTORE PUSH1 0x32 PUSH1 0x4 MSTORE PUSH1 0x24 PUSH1 0x0 REVERT JUMPDEST PUSH1 0x0 PUSH2 0x4567 DUP3 PUSH2 0x3F8F JUMP JUMPDEST SWAP1 POP SWAP2 SWAP1 POP JUMP JUMPDEST PUSH2 0x4577 DUP2 PUSH2 0x455C JUMP JUMPDEST DUP2 EQ PUSH2 0x4582 JUMPI PUSH1 0x0 DUP1 REVERT JUMPDEST POP JUMP JUMPDEST PUSH1 0x0 DUP2 CALLDATALOAD SWAP1 POP PUSH2 0x4594 DUP2 PUSH2 0x456E JUMP JUMPDEST SWAP3 SWAP2 POP POP JUMP JUMPDEST PUSH1 0x0 PUSH1 0x20 DUP3 DUP5 SUB SLT ISZERO PUSH2 0x45B0 JUMPI PUSH2 0x45AF PUSH2 0x3F00 JUMP JUMPDEST JUMPDEST PUSH1 0x0 PUSH2 0x45BE DUP5 DUP3 DUP6 ADD PUSH2 0x4585 JUMP JUMPDEST SWAP2 POP POP SWAP3 SWAP2 POP POP JUMP JUMPDEST PUSH2 0x45D0 DUP2 PUSH2 0x3F8F JUMP JUMPDEST DUP3 MSTORE POP POP JUMP JUMPDEST PUSH1 0x0 PUSH1 0x20 DUP3 ADD SWAP1 POP PUSH2 0x45EB PUSH1 0x0 DUP4 ADD DUP5 PUSH2 0x45C7 JUMP JUMPDEST SWAP3 SWAP2 POP POP JUMP JUMPDEST PUSH1 0x0 DUP2 MLOAD SWAP1 POP PUSH2 0x4600 DUP2 PUSH2 0x4259 JUMP JUMPDEST SWAP3 SWAP2 POP POP JUMP JUMPDEST PUSH1 0x0 PUSH1 0x20 DUP3 DUP5 SUB SLT ISZERO PUSH2 0x461C JUMPI PUSH2 0x461B PUSH2 0x3F00 JUMP JUMPDEST JUMPDEST PUSH1 0x0 PUSH2 0x462A DUP5 DUP3 DUP6 ADD PUSH2 0x45F1 JUMP JUMPDEST SWAP2 POP POP SWAP3 SWAP2 POP POP JUMP JUMPDEST PUSH32 0x4E487B7100000000000000000000000000000000000000000000000000000000 PUSH1 0x0 MSTORE PUSH1 0x11 PUSH1 0x4 MSTORE PUSH1 0x24 PUSH1 0x0 REVERT JUMPDEST PUSH1 0x0 PUSH2 0x466D DUP3 PUSH2 0x424F JUMP JUMPDEST SWAP2 POP PUSH2 0x4678 DUP4 PUSH2 0x424F JUMP JUMPDEST SWAP3 POP DUP3 DUP3 LT ISZERO PUSH2 0x468B JUMPI PUSH2 0x468A PUSH2 0x4633 JUMP JUMPDEST JUMPDEST DUP3 DUP3 SUB SWAP1 POP SWAP3 SWAP2 POP POP JUMP JUMPDEST PUSH1 0x0 PUSH2 0x46A1 DUP3 PUSH2 0x424F JUMP JUMPDEST SWAP2 POP PUSH2 0x46AC DUP4 PUSH2 0x424F JUMP JUMPDEST SWAP3 POP DUP2 PUSH32 0xFFFFFFFFFFFFFFFFFFFFFFFFFFFFFFFFFFFFFFFFFFFFFFFFFFFFFFFFFFFFFFFF DIV DUP4 GT DUP3 ISZERO ISZERO AND ISZERO PUSH2 0x46E5 JUMPI PUSH2 0x46E4 PUSH2 0x4633 JUMP JUMPDEST JUMPDEST DUP3 DUP3 MUL SWAP1 POP SWAP3 SWAP2 POP POP JUMP JUMPDEST PUSH32 0x4E487B7100000000000000000000000000000000000000000000000000000000 PUSH1 0x0 MSTORE PUSH1 0x12 PUSH1 0x4 MSTORE PUSH1 0x24 PUSH1 0x0 REVERT JUMPDEST PUSH1 0x0 PUSH2 0x472A DUP3 PUSH2 0x424F JUMP JUMPDEST SWAP2 POP PUSH2 0x4735 DUP4 PUSH2 0x424F JUMP JUMPDEST SWAP3 POP DUP3 PUSH2 0x4745 JUMPI PUSH2 0x4744 PUSH2 0x46F0 JUMP JUMPDEST JUMPDEST DUP3 DUP3 DIV SWAP1 POP SWAP3 SWAP2 POP POP JUMP JUMPDEST PUSH1 0x0 PUSH32 0xFF00000000000000000000000000000000000000000000000000000000000000 DUP3 AND SWAP1 POP SWAP2 SWAP1 POP JUMP JUMPDEST PUSH2 0x4785 DUP2 PUSH2 0x4750 JUMP JUMPDEST DUP3 MSTORE POP POP JUMP JUMPDEST PUSH2 0x4794 DUP2 PUSH2 0x424F JUMP JUMPDEST DUP3 MSTORE POP POP JUMP JUMPDEST PUSH1 0x0 DUP2 MLOAD SWAP1 POP SWAP2 SWAP1 POP JUMP JUMPDEST PUSH1 0x0 DUP3 DUP3 MSTORE PUSH1 0x20 DUP3 ADD SWAP1 POP SWAP3 SWAP2 POP POP JUMP JUMPDEST PUSH1 0x0 JUMPDEST DUP4 DUP2 LT ISZERO PUSH2 0x47D4 JUMPI DUP1 DUP3 ADD MLOAD DUP2 DUP5 ADD MSTORE PUSH1 0x20 DUP2 ADD SWAP1 POP PUSH2 0x47B9 JUMP JUMPDEST DUP4 DUP2 GT ISZERO PUSH2 0x47E3 JUMPI PUSH1 0x0 DUP5 DUP5 ADD MSTORE JUMPDEST POP POP POP POP JUMP JUMPDEST PUSH1 0x0 PUSH2 0x47F4 DUP3 PUSH2 0x479A JUMP JUMPDEST PUSH2 0x47FE DUP2 DUP6 PUSH2 0x47A5 JUMP JUMPDEST SWAP4 POP PUSH2 0x480E DUP2 DUP6 PUSH1 0x20 DUP7 ADD PUSH2 0x47B6 JUMP JUMPDEST PUSH2 0x4817 DUP2 PUSH2 0x402D JUMP JUMPDEST DUP5 ADD SWAP2 POP POP SWAP3 SWAP2 POP POP JUMP JUMPDEST PUSH1 0x0 PUSH1 0x60 DUP3 ADD SWAP1 POP PUSH2 0x4837 PUSH1 0x0 DUP4 ADD DUP7 PUSH2 0x477C JUMP JUMPDEST PUSH2 0x4844 PUSH1 0x20 DUP4 ADD DUP6 PUSH2 0x478B JUMP JUMPDEST DUP2 DUP2 SUB PUSH1 0x40 DUP4 ADD MSTORE PUSH2 0x4856 DUP2 DUP5 PUSH2 0x47E9 JUMP JUMPDEST SWAP1 POP SWAP5 SWAP4 POP POP POP POP JUMP JUMPDEST PUSH1 0x0 DUP2 SWAP1 POP SWAP2 SWAP1 POP JUMP JUMPDEST PUSH1 0x0 DUP2 SWAP1 POP SWAP2 SWAP1 POP JUMP JUMPDEST PUSH1 0x0 PUSH2 0x488F PUSH2 0x488A PUSH2 0x4885 DUP5 PUSH2 0x4860 JUMP JUMPDEST PUSH2 0x486A JUMP JUMPDEST PUSH2 0x424F JUMP JUMPDEST SWAP1 POP SWAP2 SWAP1 POP JUMP JUMPDEST PUSH2 0x489F DUP2 PUSH2 0x4874 JUMP JUMPDEST DUP3 MSTORE POP POP JUMP JUMPDEST PUSH1 0x0 PUSH1 0x60 DUP3 ADD SWAP1 POP PUSH2 0x48BA PUSH1 0x0 DUP4 ADD DUP7 PUSH2 0x477C JUMP JUMPDEST PUSH2 0x48C7 PUSH1 0x20 DUP4 ADD DUP6 PUSH2 0x4896 JUMP JUMPDEST DUP2 DUP2 SUB PUSH1 0x40 DUP4 ADD MSTORE PUSH2 0x48D9 DUP2 DUP5 PUSH2 0x47E9 JUMP JUMPDEST SWAP1 POP SWAP5 SWAP4 POP POP POP POP JUMP JUMPDEST PUSH1 0x0 DUP3 DUP3 MSTORE PUSH1 0x20 DUP3 ADD SWAP1 POP SWAP3 SWAP2 POP POP JUMP JUMPDEST PUSH32 0x5452414E534645525F4641494C45440000000000000000000000000000000000 PUSH1 0x0 DUP3 ADD MSTORE POP JUMP JUMPDEST PUSH1 0x0 PUSH2 0x492A PUSH1 0xF DUP4 PUSH2 0x48E3 JUMP JUMPDEST SWAP2 POP PUSH2 0x4935 DUP3 PUSH2 0x48F4 JUMP JUMPDEST PUSH1 0x20 DUP3 ADD SWAP1 POP SWAP2 SWAP1 POP JUMP JUMPDEST PUSH1 0x0 PUSH1 0x20 DUP3 ADD SWAP1 POP DUP2 DUP2 SUB PUSH1 0x0 DUP4 ADD MSTORE PUSH2 0x4959 DUP2 PUSH2 0x491D JUMP JUMPDEST SWAP1 POP SWAP2 SWAP1 POP JUMP JUMPDEST PUSH1 0x0 DUP2 MLOAD SWAP1 POP PUSH2 0x496F DUP2 PUSH2 0x4437 JUMP JUMPDEST SWAP3 SWAP2 POP POP JUMP JUMPDEST PUSH1 0x0 PUSH1 0x20 DUP3 DUP5 SUB SLT ISZERO PUSH2 0x498B JUMPI PUSH2 0x498A PUSH2 0x3F00 JUMP JUMPDEST JUMPDEST PUSH1 0x0 PUSH2 0x4999 DUP5 DUP3 DUP6 ADD PUSH2 0x4960 JUMP JUMPDEST SWAP2 POP POP SWAP3 SWAP2 POP POP JUMP JUMPDEST PUSH1 0x0 PUSH2 0x49AD DUP3 PUSH2 0x442D JUMP JUMPDEST SWAP2 POP PUSH32 0x8000000000000000000000000000000000000000000000000000000000000000 DUP3 EQ ISZERO PUSH2 0x49E0 JUMPI PUSH2 0x49DF PUSH2 0x4633 JUMP JUMPDEST JUMPDEST DUP2 PUSH1 0x0 SUB SWAP1 POP SWAP2 SWAP1 POP JUMP JUMPDEST PUSH1 0x0 PUSH1 0x20 DUP3 ADD SWAP1 POP PUSH2 0x4A00 PUSH1 0x0 DUP4 ADD DUP5 PUSH2 0x478B JUMP JUMPDEST SWAP3 SWAP2 POP POP JUMP JUMPDEST PUSH1 0x0 PUSH2 0x4A11 DUP3 PUSH2 0x424F JUMP JUMPDEST SWAP2 POP PUSH2 0x4A1C DUP4 PUSH2 0x424F JUMP JUMPDEST SWAP3 POP DUP3 PUSH32 0xFFFFFFFFFFFFFFFFFFFFFFFFFFFFFFFFFFFFFFFFFFFFFFFFFFFFFFFFFFFFFFFF SUB DUP3 GT ISZERO PUSH2 0x4A51 JUMPI PUSH2 0x4A50 PUSH2 0x4633 JUMP JUMPDEST JUMPDEST DUP3 DUP3 ADD SWAP1 POP SWAP3 SWAP2 POP POP JUMP JUMPDEST PUSH1 0x0 DUP2 SWAP1 POP SWAP3 SWAP2 POP POP JUMP JUMPDEST PUSH1 0x0 PUSH2 0x4A72 DUP3 PUSH2 0x479A JUMP JUMPDEST PUSH2 0x4A7C DUP2 DUP6 PUSH2 0x4A5C JUMP JUMPDEST SWAP4 POP PUSH2 0x4A8C DUP2 DUP6 PUSH1 0x20 DUP7 ADD PUSH2 0x47B6 JUMP JUMPDEST DUP1 DUP5 ADD SWAP2 POP POP SWAP3 SWAP2 POP POP JUMP JUMPDEST PUSH1 0x0 PUSH2 0x4AA4 DUP3 DUP5 PUSH2 0x4A67 JUMP JUMPDEST SWAP2 POP DUP2 SWAP1 POP SWAP3 SWAP2 POP POP JUMP JUMPDEST PUSH1 0x0 DUP2 SWAP1 POP SWAP2 SWAP1 POP JUMP JUMPDEST PUSH2 0x4AC2 DUP2 PUSH2 0x4AAF JUMP JUMPDEST DUP3 MSTORE POP POP JUMP JUMPDEST PUSH1 0x0 PUSH1 0x60 DUP3 ADD SWAP1 POP PUSH2 0x4ADD PUSH1 0x0 DUP4 ADD DUP7 PUSH2 0x4AB9 JUMP JUMPDEST PUSH2 0x4AEA PUSH1 0x20 DUP4 ADD DUP6 PUSH2 0x478B JUMP JUMPDEST PUSH2 0x4AF7 PUSH1 0x40 DUP4 ADD DUP5 PUSH2 0x478B JUMP JUMPDEST SWAP5 SWAP4 POP POP POP POP JUMP JUMPDEST PUSH1 0x0 PUSH3 0xFFFFFF DUP3 AND SWAP1 POP SWAP2 SWAP1 POP JUMP JUMPDEST PUSH2 0x4B17 DUP2 PUSH2 0x4AFF JUMP JUMPDEST DUP3 MSTORE POP POP JUMP JUMPDEST PUSH1 0x0 PUSH1 0x60 DUP3 ADD SWAP1 POP PUSH2 0x4B32 PUSH1 0x0 DUP4 ADD DUP7 PUSH2 0x45C7 JUMP JUMPDEST PUSH2 0x4B3F PUSH1 0x20 DUP4 ADD DUP6 PUSH2 0x45C7 JUMP JUMPDEST PUSH2 0x4B4C PUSH1 0x40 DUP4 ADD DUP5 PUSH2 0x4B0E JUMP JUMPDEST SWAP5 SWAP4 POP POP POP POP JUMP JUMPDEST PUSH1 0x0 DUP2 SWAP1 POP SWAP3 SWAP2 POP POP JUMP JUMPDEST PUSH32 0xFF00000000000000000000000000000000000000000000000000000000000000 PUSH1 0x0 DUP3 ADD MSTORE POP JUMP JUMPDEST PUSH1 0x0 PUSH2 0x4B95 PUSH1 0x1 DUP4 PUSH2 0x4B54 JUMP JUMPDEST SWAP2 POP PUSH2 0x4BA0 DUP3 PUSH2 0x4B5F JUMP JUMPDEST PUSH1 0x1 DUP3 ADD SWAP1 POP SWAP2 SWAP1 POP JUMP JUMPDEST PUSH1 0x0 DUP2 PUSH1 0x60 SHL SWAP1 POP SWAP2 SWAP1 POP JUMP JUMPDEST PUSH1 0x0 PUSH2 0x4BC3 DUP3 PUSH2 0x4BAB JUMP JUMPDEST SWAP1 POP SWAP2 SWAP1 POP JUMP JUMPDEST PUSH1 0x0 PUSH2 0x4BD5 DUP3 PUSH2 0x4BB8 JUMP JUMPDEST SWAP1 POP SWAP2 SWAP1 POP JUMP JUMPDEST PUSH2 0x4BED PUSH2 0x4BE8 DUP3 PUSH2 0x3F8F JUMP JUMPDEST PUSH2 0x4BCA JUMP JUMPDEST DUP3 MSTORE POP POP JUMP JUMPDEST PUSH1 0x0 DUP2 SWAP1 POP SWAP2 SWAP1 POP JUMP JUMPDEST PUSH2 0x4C0E PUSH2 0x4C09 DUP3 PUSH2 0x4AAF JUMP JUMPDEST PUSH2 0x4BF3 JUMP JUMPDEST DUP3 MSTORE POP POP JUMP JUMPDEST PUSH1 0x0 PUSH2 0x4C1F DUP3 PUSH2 0x4B88 JUMP JUMPDEST SWAP2 POP PUSH2 0x4C2B DUP3 DUP7 PUSH2 0x4BDC JUMP JUMPDEST PUSH1 0x14 DUP3 ADD SWAP2 POP PUSH2 0x4C3B DUP3 DUP6 PUSH2 0x4BFD JUMP JUMPDEST PUSH1 0x20 DUP3 ADD SWAP2 POP PUSH2 0x4C4B DUP3 DUP5 PUSH2 0x4BFD JUMP JUMPDEST PUSH1 0x20 DUP3 ADD SWAP2 POP DUP2 SWAP1 POP SWAP5 SWAP4 POP POP POP POP JUMP JUMPDEST PUSH32 0x5452414E534645525F46524F4D5F4641494C4544000000000000000000000000 PUSH1 0x0 DUP3 ADD MSTORE POP JUMP JUMPDEST PUSH1 0x0 PUSH2 0x4C92 PUSH1 0x14 DUP4 PUSH2 0x48E3 JUMP JUMPDEST SWAP2 POP PUSH2 0x4C9D DUP3 PUSH2 0x4C5C JUMP JUMPDEST PUSH1 0x20 DUP3 ADD SWAP1 POP SWAP2 SWAP1 POP JUMP JUMPDEST PUSH1 0x0 PUSH1 0x20 DUP3 ADD SWAP1 POP DUP2 DUP2 SUB PUSH1 0x0 DUP4 ADD MSTORE PUSH2 0x4CC1 DUP2 PUSH2 0x4C85 JUMP JUMPDEST SWAP1 POP SWAP2 SWAP1 POP JUMP JUMPDEST POP JUMP JUMPDEST PUSH1 0x0 PUSH2 0x4CD8 PUSH1 0x0 DUP4 PUSH2 0x47A5 JUMP JUMPDEST SWAP2 POP PUSH2 0x4CE3 DUP3 PUSH2 0x4CC8 JUMP JUMPDEST PUSH1 0x0 DUP3 ADD SWAP1 POP SWAP2 SWAP1 POP JUMP JUMPDEST PUSH1 0x0 PUSH1 0x80 DUP3 ADD SWAP1 POP PUSH2 0x4D03 PUSH1 0x0 DUP4 ADD DUP7 PUSH2 0x478B JUMP JUMPDEST PUSH2 0x4D10 PUSH1 0x20 DUP4 ADD DUP6 PUSH2 0x478B JUMP JUMPDEST PUSH2 0x4D1D PUSH1 0x40 DUP4 ADD DUP5 PUSH2 0x45C7 JUMP JUMPDEST DUP2 DUP2 SUB PUSH1 0x60 DUP4 ADD MSTORE PUSH2 0x4D2E DUP2 PUSH2 0x4CCB JUMP JUMPDEST SWAP1 POP SWAP5 SWAP4 POP POP POP POP JUMP JUMPDEST PUSH1 0x0 PUSH1 0xFF DUP3 AND SWAP1 POP SWAP2 SWAP1 POP JUMP JUMPDEST PUSH2 0x4D4E DUP2 PUSH2 0x4D38 JUMP JUMPDEST DUP3 MSTORE POP POP JUMP JUMPDEST PUSH1 0x0 PUSH1 0x60 DUP3 ADD SWAP1 POP PUSH2 0x4D69 PUSH1 0x0 DUP4 ADD DUP7 PUSH2 0x4D45 JUMP JUMPDEST PUSH2 0x4D76 PUSH1 0x20 DUP4 ADD DUP6 PUSH2 0x4D45 JUMP JUMPDEST PUSH2 0x4D83 PUSH1 0x40 DUP4 ADD DUP5 PUSH2 0x478B JUMP JUMPDEST SWAP5 SWAP4 POP POP POP POP JUMP JUMPDEST PUSH1 0x0 PUSH2 0x4DA6 PUSH2 0x4DA1 PUSH2 0x4D9C DUP5 PUSH2 0x4860 JUMP JUMPDEST PUSH2 0x486A JUMP JUMPDEST PUSH2 0x4D38 JUMP JUMPDEST SWAP1 POP SWAP2 SWAP1 POP JUMP JUMPDEST PUSH2 0x4DB6 DUP2 PUSH2 0x4D8B JUMP JUMPDEST DUP3 MSTORE POP POP JUMP JUMPDEST PUSH1 0x0 PUSH1 0x20 DUP3 ADD SWAP1 POP PUSH2 0x4DD1 PUSH1 0x0 DUP4 ADD DUP5 PUSH2 0x4DAD JUMP JUMPDEST SWAP3 SWAP2 POP POP JUMP JUMPDEST PUSH1 0x0 DUP2 ISZERO ISZERO SWAP1 POP SWAP2 SWAP1 POP JUMP JUMPDEST PUSH2 0x4DEC DUP2 PUSH2 0x4DD7 JUMP JUMPDEST DUP3 MSTORE POP POP JUMP JUMPDEST PUSH1 0x0 PUSH1 0x20 DUP3 ADD SWAP1 POP PUSH2 0x4E07 PUSH1 0x0 DUP4 ADD DUP5 PUSH2 0x4DE3 JUMP JUMPDEST SWAP3 SWAP2 POP POP JUMP JUMPDEST PUSH1 0x0 PUSH1 0x20 DUP3 ADD SWAP1 POP DUP2 DUP2 SUB PUSH1 0x0 DUP4 ADD MSTORE PUSH2 0x4E27 DUP2 DUP5 PUSH2 0x47E9 JUMP JUMPDEST SWAP1 POP SWAP3 SWAP2 POP POP JUMP JUMPDEST PUSH32 0x415050524F56455F4641494C4544000000000000000000000000000000000000 PUSH1 0x0 DUP3 ADD MSTORE POP JUMP JUMPDEST PUSH1 0x0 PUSH2 0x4E65 PUSH1 0xE DUP4 PUSH2 0x48E3 JUMP JUMPDEST SWAP2 POP PUSH2 0x4E70 DUP3 PUSH2 0x4E2F JUMP JUMPDEST PUSH1 0x20 DUP3 ADD SWAP1 POP SWAP2 SWAP1 POP JUMP JUMPDEST PUSH1 0x0 PUSH1 0x20 DUP3 ADD SWAP1 POP DUP2 DUP2 SUB PUSH1 0x0 DUP4 ADD MSTORE PUSH2 0x4E94 DUP2 PUSH2 0x4E58 JUMP JUMPDEST SWAP1 POP SWAP2 SWAP1 POP JUMP JUMPDEST PUSH1 0x0 PUSH14 0xFFFFFFFFFFFFFFFFFFFFFFFFFFFF DUP3 AND SWAP1 POP SWAP2 SWAP1 POP JUMP JUMPDEST PUSH2 0x4EBE DUP2 PUSH2 0x4E9B JUMP JUMPDEST DUP2 EQ PUSH2 0x4EC9 JUMPI PUSH1 0x0 DUP1 REVERT JUMPDEST POP JUMP JUMPDEST PUSH1 0x0 DUP2 MLOAD SWAP1 POP PUSH2 0x4EDB DUP2 PUSH2 0x4EB5 JUMP JUMPDEST SWAP3 SWAP2 POP POP JUMP JUMPDEST PUSH1 0x0 PUSH4 0xFFFFFFFF DUP3 AND SWAP1 POP SWAP2 SWAP1 POP JUMP JUMPDEST PUSH2 0x4EFA DUP2 PUSH2 0x4EE1 JUMP JUMPDEST DUP2 EQ PUSH2 0x4F05 JUMPI PUSH1 0x0 DUP1 REVERT JUMPDEST POP JUMP JUMPDEST PUSH1 0x0 DUP2 MLOAD SWAP1 POP PUSH2 0x4F17 DUP2 PUSH2 0x4EF1 JUMP JUMPDEST SWAP3 SWAP2 POP POP JUMP JUMPDEST PUSH1 0x0 DUP1 PUSH1 0x0 PUSH1 0x60 DUP5 DUP7 SUB SLT ISZERO PUSH2 0x4F36 JUMPI PUSH2 0x4F35 PUSH2 0x3F00 JUMP JUMPDEST JUMPDEST PUSH1 0x0 PUSH2 0x4F44 DUP7 DUP3 DUP8 ADD PUSH2 0x4ECC JUMP JUMPDEST SWAP4 POP POP PUSH1 0x20 PUSH2 0x4F55 DUP7 DUP3 DUP8 ADD PUSH2 0x4ECC JUMP JUMPDEST SWAP3 POP POP PUSH1 0x40 PUSH2 0x4F66 DUP7 DUP3 DUP8 ADD PUSH2 0x4F08 JUMP JUMPDEST SWAP2 POP POP SWAP3 POP SWAP3 POP SWAP3 JUMP JUMPDEST PUSH32 0x4554485F5452414E534645525F4641494C454400000000000000000000000000 PUSH1 0x0 DUP3 ADD MSTORE POP JUMP JUMPDEST PUSH1 0x0 PUSH2 0x4FA6 PUSH1 0x13 DUP4 PUSH2 0x48E3 JUMP JUMPDEST SWAP2 POP PUSH2 0x4FB1 DUP3 PUSH2 0x4F70 JUMP JUMPDEST PUSH1 0x20 DUP3 ADD SWAP1 POP SWAP2 SWAP1 POP JUMP JUMPDEST PUSH1 0x0 PUSH1 0x20 DUP3 ADD SWAP1 POP DUP2 DUP2 SUB PUSH1 0x0 DUP4 ADD MSTORE PUSH2 0x4FD5 DUP2 PUSH2 0x4F99 JUMP JUMPDEST SWAP1 POP SWAP2 SWAP1 POP JUMP JUMPDEST PUSH2 0x4FE5 DUP2 PUSH2 0x442D JUMP JUMPDEST DUP3 MSTORE POP POP JUMP JUMPDEST PUSH2 0x4FF4 DUP2 PUSH2 0x3F6F JUMP JUMPDEST DUP3 MSTORE POP POP JUMP JUMPDEST PUSH1 0x0 PUSH1 0xA0 DUP3 ADD SWAP1 POP PUSH2 0x500F PUSH1 0x0 DUP4 ADD DUP9 PUSH2 0x45C7 JUMP JUMPDEST PUSH2 0x501C PUSH1 0x20 DUP4 ADD DUP8 PUSH2 0x4DE3 JUMP JUMPDEST PUSH2 0x5029 PUSH1 0x40 DUP4 ADD DUP7 PUSH2 0x4FDC JUMP JUMPDEST PUSH2 0x5036 PUSH1 0x60 DUP4 ADD DUP6 PUSH2 0x4FEB JUMP JUMPDEST DUP2 DUP2 SUB PUSH1 0x80 DUP4 ADD MSTORE PUSH2 0x5048 DUP2 DUP5 PUSH2 0x47E9 JUMP JUMPDEST SWAP1 POP SWAP7 SWAP6 POP POP POP POP POP POP JUMP JUMPDEST PUSH1 0x0 DUP1 PUSH1 0x40 DUP4 DUP6 SUB SLT ISZERO PUSH2 0x506B JUMPI PUSH2 0x506A PUSH2 0x3F00 JUMP JUMPDEST JUMPDEST PUSH1 0x0 PUSH2 0x5079 DUP6 DUP3 DUP7 ADD PUSH2 0x4960 JUMP JUMPDEST SWAP3 POP POP PUSH1 0x20 PUSH2 0x508A DUP6 DUP3 DUP7 ADD PUSH2 0x4960 JUMP JUMPDEST SWAP2 POP POP SWAP3 POP SWAP3 SWAP1 POP JUMP JUMPDEST PUSH32 0x56323A4455505F41444452455353000000000000000000000000000000000000 PUSH1 0x0 DUP3 ADD MSTORE POP JUMP JUMPDEST PUSH1 0x0 PUSH2 0x50CA PUSH1 0xE DUP4 PUSH2 0x48E3 JUMP JUMPDEST SWAP2 POP PUSH2 0x50D5 DUP3 PUSH2 0x5094 JUMP JUMPDEST PUSH1 0x20 DUP3 ADD SWAP1 POP SWAP2 SWAP1 POP JUMP JUMPDEST PUSH1 0x0 PUSH1 0x20 DUP3 ADD SWAP1 POP DUP2 DUP2 SUB PUSH1 0x0 DUP4 ADD MSTORE PUSH2 0x50F9 DUP2 PUSH2 0x50BD JUMP JUMPDEST SWAP1 POP SWAP2 SWAP1 POP JUMP JUMPDEST PUSH32 0x56323A5A45524F5F414444524553530000000000000000000000000000000000 PUSH1 0x0 DUP3 ADD MSTORE POP JUMP JUMPDEST PUSH1 0x0 PUSH2 0x5136 PUSH1 0xF DUP4 PUSH2 0x48E3 JUMP JUMPDEST SWAP2 POP PUSH2 0x5141 DUP3 PUSH2 0x5100 JUMP JUMPDEST PUSH1 0x20 DUP3 ADD SWAP1 POP SWAP2 SWAP1 POP JUMP JUMPDEST PUSH1 0x0 PUSH1 0x20 DUP3 ADD SWAP1 POP DUP2 DUP2 SUB PUSH1 0x0 DUP4 ADD MSTORE PUSH2 0x5165 DUP2 PUSH2 0x5129 JUMP JUMPDEST SWAP1 POP SWAP2 SWAP1 POP JUMP JUMPDEST PUSH1 0x0 PUSH2 0x5178 DUP3 DUP6 PUSH2 0x4BDC JUMP JUMPDEST PUSH1 0x14 DUP3 ADD SWAP2 POP PUSH2 0x5188 DUP3 DUP5 PUSH2 0x4BDC JUMP JUMPDEST PUSH1 0x14 DUP3 ADD SWAP2 POP DUP2 SWAP1 POP SWAP4 SWAP3 POP POP POP JUMP JUMPDEST PUSH32 0x96E8AC4277198FF8B6F785478AA9A39F403CB768DD02CBEE326C3E7DA348845F PUSH1 0x0 DUP3 ADD MSTORE POP JUMP JUMPDEST PUSH1 0x0 PUSH2 0x51CE PUSH1 0x20 DUP4 PUSH2 0x4B54 JUMP JUMPDEST SWAP2 POP PUSH2 0x51D9 DUP3 PUSH2 0x5198 JUMP JUMPDEST PUSH1 0x20 DUP3 ADD SWAP1 POP SWAP2 SWAP1 POP JUMP JUMPDEST PUSH1 0x0 PUSH2 0x51EF DUP3 PUSH2 0x4B88 JUMP JUMPDEST SWAP2 POP PUSH2 0x51FB DUP3 DUP6 PUSH2 0x4BDC JUMP JUMPDEST PUSH1 0x14 DUP3 ADD SWAP2 POP PUSH2 0x520B DUP3 DUP5 PUSH2 0x4BFD JUMP JUMPDEST PUSH1 0x20 DUP3 ADD SWAP2 POP PUSH2 0x521A DUP3 PUSH2 0x51C1 JUMP JUMPDEST SWAP2 POP DUP2 SWAP1 POP SWAP4 SWAP3 POP POP POP JUMP INVALID LOG2 PUSH5 0x6970667358 0x22 SLT KECCAK256 COINBASE BLOCKHASH SDIV COINBASE 0x27 COINBASE DUP6 PUSH30 0x13FADA47FB004DF32890A9159B260E2131CCB752E16E068D64736F6C6343 STOP ADDMOD MULMOD STOP CALLER "},"methodIdentifiers":{"multiExecute(bytes[],bytes[])":"5fda5f7f","routeExecute(bytes[],bytes[],uint256)":"36c9a1d2","singleExecute(bytes,bytes)":"cf06783c","uniswapV3SwapCallback(int256,int256,bytes)":"fa461e33","withdrawERC20(address[],address)":"340ed32a","withdrawETH(address)":"690d8320"}}}}}