{
  "address": "0x99B9e8B2E79F511C7d97808A1174Ebe1835b9446",
  "abi": [
    {
      "inputs": [],
      "name": "DeadlineExpired",
      "type": "error"
    },
    {
      "inputs": [],
      "name": "EthTransferFailed",
      "type": "error"
    },
    {
      "inputs": [
        {
          "internalType": "uint256",
          "name": "maxFeeBps",
          "type": "uint256"
        }
      ],
      "name": "FeeTooHigh",
      "type": "error"
    },
    {
      "inputs": [
        {
          "internalType": "uint256",
          "name": "maxFeeBps",
          "type": "uint256"
        }
      ],
      "name": "FeeTooHigh",
      "type": "error"
    },
    {
      "inputs": [],
      "name": "IncorrectEthValue",
      "type": "error"
    },
    {
      "inputs": [],
      "name": "InsufficientOutputAmount",
      "type": "error"
    },
    {
      "inputs": [],
      "name": "ZeroAmountOut",
      "type": "error"
    },
    {
      "anonymous": false,
      "inputs": [
        {
          "indexed": true,
          "internalType": "address",
          "name": "partner",
          "type": "address"
        },
        {
          "indexed": true,
          "internalType": "address",
          "name": "token",
          "type": "address"
        },
        {
          "indexed": false,
          "internalType": "uint256",
          "name": "partnerFee",
          "type": "uint256"
        },
        {
          "indexed": false,
          "internalType": "uint256",
          "name": "protocolFee",
          "type": "uint256"
        }
      ],
      "name": "Fee",
      "type": "event"
    },
    {
      "anonymous": false,
      "inputs": [
        {
          "indexed": true,
          "internalType": "address",
          "name": "partner",
          "type": "address"
        },
        {
          "indexed": true,
          "internalType": "address",
          "name": "tokenIn",
          "type": "address"
        },
        {
          "indexed": true,
          "internalType": "address",
          "name": "tokenOut",
          "type": "address"
        },
        {
          "indexed": false,
          "internalType": "uint256",
          "name": "amountIn",
          "type": "uint256"
        },
        {
          "indexed": false,
          "internalType": "uint256",
          "name": "amountOut",
          "type": "uint256"
        }
      ],
      "name": "Warp",
      "type": "event"
    },
    {
      "inputs": [
        {
          "components": [
            {
              "internalType": "uint256",
              "name": "amountIn",
              "type": "uint256"
            },
            {
              "internalType": "uint256",
              "name": "amountOut",
              "type": "uint256"
            },
            {
              "internalType": "address",
              "name": "recipient",
              "type": "address"
            },
            {
              "internalType": "uint16",
              "name": "slippage",
              "type": "uint16"
            },
            {
              "internalType": "uint16",
              "name": "feeBps",
              "type": "uint16"
            },
            {
              "internalType": "uint48",
              "name": "deadline",
              "type": "uint48"
            },
            {
              "internalType": "address",
              "name": "partner",
              "type": "address"
            },
            {
              "internalType": "address[]",
              "name": "path",
              "type": "address[]"
            }
          ],
          "internalType": "struct IUniV2Router.ExactInputParams",
          "name": "params",
          "type": "tuple"
        }
      ],
      "name": "uniswapV2ExactInput",
      "outputs": [
        {
          "internalType": "uint256",
          "name": "amountOut",
          "type": "uint256"
        }
      ],
      "stateMutability": "payable",
      "type": "function"
    },
    {
      "inputs": [
        {
          "components": [
            {
              "internalType": "uint256",
              "name": "amountIn",
              "type": "uint256"
            },
            {
              "internalType": "uint256",
              "name": "amountOut",
              "type": "uint256"
            },
            {
              "internalType": "address",
              "name": "recipient",
              "type": "address"
            },
            {
              "internalType": "uint16",
              "name": "slippage",
              "type": "uint16"
            },
            {
              "internalType": "uint16",
              "name": "feeBps",
              "type": "uint16"
            },
            {
              "internalType": "uint48",
              "name": "deadline",
              "type": "uint48"
            },
            {
              "internalType": "address",
              "name": "partner",
              "type": "address"
            },
            {
              "internalType": "address[]",
              "name": "path",
              "type": "address[]"
            }
          ],
          "internalType": "struct IUniV2Router.ExactInputParams",
          "name": "params",
          "type": "tuple"
        },
        {
          "components": [
            {
              "internalType": "uint256",
              "name": "nonce",
              "type": "uint256"
            },
            {
              "internalType": "bytes",
              "name": "signature",
              "type": "bytes"
            }
          ],
          "internalType": "struct PermitParams",
          "name": "permit",
          "type": "tuple"
        }
      ],
      "name": "uniswapV2ExactInputPermit",
      "outputs": [
        {
          "internalType": "uint256",
          "name": "amountOut",
          "type": "uint256"
        }
      ],
      "stateMutability": "nonpayable",
      "type": "function"
    },
    {
      "inputs": [
        {
          "components": [
            {
              "internalType": "uint256",
              "name": "amountIn",
              "type": "uint256"
            },
            {
              "internalType": "uint256",
              "name": "amountOut",
              "type": "uint256"
            },
            {
              "internalType": "address",
              "name": "recipient",
              "type": "address"
            },
            {
              "internalType": "uint16",
              "name": "slippage",
              "type": "uint16"
            },
            {
              "internalType": "uint16",
              "name": "feeBps",
              "type": "uint16"
            },
            {
              "internalType": "uint48",
              "name": "deadline",
              "type": "uint48"
            },
            {
              "internalType": "address",
              "name": "partner",
              "type": "address"
            },
            {
              "internalType": "address",
              "name": "tokenIn",
              "type": "address"
            },
            {
              "internalType": "address",
              "name": "tokenOut",
              "type": "address"
            }
          ],
          "internalType": "struct IUniV2Router.ExactInputSingleParams",
          "name": "params",
          "type": "tuple"
        }
      ],
      "name": "uniswapV2ExactInputSingle",
      "outputs": [
        {
          "internalType": "uint256",
          "name": "amountOut",
          "type": "uint256"
        }
      ],
      "stateMutability": "payable",
      "type": "function"
    },
    {
      "inputs": [
        {
          "components": [
            {
              "internalType": "uint256",
              "name": "amountIn",
              "type": "uint256"
            },
            {
              "internalType": "uint256",
              "name": "amountOut",
              "type": "uint256"
            },
            {
              "internalType": "address",
              "name": "recipient",
              "type": "address"
            },
            {
              "internalType": "uint16",
              "name": "slippage",
              "type": "uint16"
            },
            {
              "internalType": "uint16",
              "name": "feeBps",
              "type": "uint16"
            },
            {
              "internalType": "uint48",
              "name": "deadline",
              "type": "uint48"
            },
            {
              "internalType": "address",
              "name": "partner",
              "type": "address"
            },
            {
              "internalType": "address",
              "name": "tokenIn",
              "type": "address"
            },
            {
              "internalType": "address",
              "name": "tokenOut",
              "type": "address"
            }
          ],
          "internalType": "struct IUniV2Router.ExactInputSingleParams",
          "name": "params",
          "type": "tuple"
        },
        {
          "components": [
            {
              "internalType": "uint256",
              "name": "nonce",
              "type": "uint256"
            },
            {
              "internalType": "bytes",
              "name": "signature",
              "type": "bytes"
            }
          ],
          "internalType": "struct PermitParams",
          "name": "permit",
          "type": "tuple"
        }
      ],
      "name": "uniswapV2ExactInputSinglePermit",
      "outputs": [
        {
          "internalType": "uint256",
          "name": "amountOut",
          "type": "uint256"
        }
      ],
      "stateMutability": "nonpayable",
      "type": "function"
    }
  ],
  "transactionHash": "0x6a0ea345a5c7cb5b4f33adf71dc6d7e322d754c09af7ccf81d99445cb322d0d6",
  "args": [],
  "numDeployments": 1,
  "solcInputHash": "0d6df50f9cbe5b402a0893d8bb42a4b7",
  "bytecode": "0x608060405234801561001057600080fd5b50612a64806100206000396000f3fe60806040526004361061003f5760003560e01c806311e37b8d1461004457806316c17042146100765780633b58c7c21461008957806379e65c001461009c575b600080fd5b34801561005057600080fd5b5061006461005f36600461248a565b6100bc565b60405190815260200160405180910390f35b6100646100843660046124db565b610395565b61006461009736600461250b565b610652565b3480156100a857600080fd5b506100646100b7366004612540565b610b49565b7fcd4d5c78b9e1b4c12c165f6dabad75194d4ff180375bd5b3c4499489a642191e546000907fcd4d5c78b9e1b4c12c165f6dabad75194d4ff180375bd5b3c4499489a642191c9082906101989073ffffffffffffffffffffffffffffffffffffffff16610130610100880160e0890161259a565b60006101446101208a016101008b0161259a565b73ffffffffffffffffffffffffffffffffffffffff16146101765761017161012089016101008a0161259a565b610f1d565b8454610100900473ffffffffffffffffffffffffffffffffffffffff16610f1d565b60038301546040805160e080820190925292935073ffffffffffffffffffffffffffffffffffffffff90911691632b67b570913391908190606082019081906101e8906101008e01908e0161259a565b73ffffffffffffffffffffffffffffffffffffffff90811682528c3516602082015260400161021d60c08d0160a08e016125d0565b65ffffffffffff90811682528b3516602091820152908252309082015260400161024d60c08b0160a08c016125d0565b65ffffffffffff16905261026460208901896125f8565b6040518563ffffffff1660e01b81526004016102839493929190612664565b600060405180830381600087803b15801561029d57600080fd5b505af11580156102b1573d6000803e3d6000fd5b50505050600382015473ffffffffffffffffffffffffffffffffffffffff166336c78516338388356102ea6101008b0160e08c0161259a565b60405160e086901b7fffffffff0000000000000000000000000000000000000000000000000000000016815273ffffffffffffffffffffffffffffffffffffffff9485166004820152928416602484015290831660448301529091166064820152608401600060405180830381600087803b15801561036857600080fd5b505af115801561037c573d6000803e3d6000fd5b5050505061038a8582611076565b925050505b92915050565b60006103a760c0830160a084016125d0565b65ffffffffffff164211156103e8576040517f1ab7da6b00000000000000000000000000000000000000000000000000000000815260040160405180910390fd5b7fcd4d5c78b9e1b4c12c165f6dabad75194d4ff180375bd5b3c4499489a642191e547fcd4d5c78b9e1b4c12c165f6dabad75194d4ff180375bd5b3c4499489a642191c906000906104eb9073ffffffffffffffffffffffffffffffffffffffff168261045b610100880160e0890161259a565b73ffffffffffffffffffffffffffffffffffffffff161461048c57610487610100870160e0880161259a565b6104aa565b8354610100900473ffffffffffffffffffffffffffffffffffffffff165b60006104be61012089016101008a0161259a565b73ffffffffffffffffffffffffffffffffffffffff1614610176576101716101208801610100890161259a565b90506000610500610100860160e0870161259a565b73ffffffffffffffffffffffffffffffffffffffff160361060a5734843514610555576040517fab0a033b00000000000000000000000000000000000000000000000000000000815260040160405180910390fd5b8160000160019054906101000a900473ffffffffffffffffffffffffffffffffffffffff1673ffffffffffffffffffffffffffffffffffffffff1663d0e30db0346040518263ffffffff1660e01b81526004016000604051808303818588803b1580156105c157600080fd5b505af11580156105d5573d6000803e3d6000fd5b505084546106059350610100900473ffffffffffffffffffffffffffffffffffffffff1691508390508635611667565b610640565b61064033828635610622610100890160e08a0161259a565b73ffffffffffffffffffffffffffffffffffffffff16929190611740565b61064a8482611076565b949350505050565b600061066460c0830160a084016125d0565b65ffffffffffff164211156106a5576040517f1ab7da6b00000000000000000000000000000000000000000000000000000000815260040160405180910390fd5b7fcd4d5c78b9e1b4c12c165f6dabad75194d4ff180375bd5b3c4499489a642191c600060016106d760e0860186612726565b6106e29291506127bd565b905060006106f360e0860186612726565b8080602002602001604051908101604052809392919081815260200183836020028082843760009201829052509394506107349250505060e0870187612726565b6000818110610745576107456127d0565b905060200201602081019061075a919061259a565b73ffffffffffffffffffffffffffffffffffffffff16036107e8578260000160019054906101000a900473ffffffffffffffffffffffffffffffffffffffff16816000815181106107ad576107ad6127d0565b602002602001019073ffffffffffffffffffffffffffffffffffffffff16908173ffffffffffffffffffffffffffffffffffffffff16815250505b60006107f760e0870187612726565b84818110610807576108076127d0565b905060200201602081019061081c919061259a565b73ffffffffffffffffffffffffffffffffffffffff16036108a9578260000160019054906101000a900473ffffffffffffffffffffffffffffffffffffffff1681838151811061086e5761086e6127d0565b602002602001019073ffffffffffffffffffffffffffffffffffffffff16908173ffffffffffffffffffffffffffffffffffffffff16815250505b600283015460009081906108d59073ffffffffffffffffffffffffffffffffffffffff168835856117a4565b90925090506108f760208801356108f260808a0160608b016127ff565b611a49565b816001835161090691906127bd565b81518110610916576109166127d0565b60200260200101511015610956576040517f42301c2300000000000000000000000000000000000000000000000000000000815260040160405180910390fd5b600061096560e0890189612726565b6000818110610976576109766127d0565b905060200201602081019061098b919061259a565b73ffffffffffffffffffffffffffffffffffffffff1603610acd57348735146109e0576040517fab0a033b00000000000000000000000000000000000000000000000000000000815260040160405180910390fd5b8460000160019054906101000a900473ffffffffffffffffffffffffffffffffffffffff1673ffffffffffffffffffffffffffffffffffffffff1663d0e30db0346040518263ffffffff1660e01b81526004016000604051808303818588803b158015610a4c57600080fd5b505af1158015610a60573d6000803e3d6000fd5b5050505050610ac882600081518110610a7b57610a7b6127d0565b6020026020010151886000013585600081518110610a9b57610a9b6127d0565b602002602001015173ffffffffffffffffffffffffffffffffffffffff166116679092919063ffffffff16565b610b32565b610b323383600081518110610ae457610ae46127d0565b6020026020010151896000013586600081518110610b0457610b046127d0565b602002602001015173ffffffffffffffffffffffffffffffffffffffff16611740909392919063ffffffff16565b610b3e87848484611a77565b979650505050505050565b60007fcd4d5c78b9e1b4c12c165f6dabad75194d4ff180375bd5b3c4499489a642191c816001610b7c60e0870187612726565b610b879291506127bd565b90506000610b9860e0870187612726565b808060200260200160405190810160405280939291908181526020018383602002808284376000920182905250939450610bd99250505060e0880188612726565b84818110610be957610be96127d0565b9050602002016020810190610bfe919061259a565b73ffffffffffffffffffffffffffffffffffffffff1603610c8b578260000160019054906101000a900473ffffffffffffffffffffffffffffffffffffffff16818381518110610c5057610c506127d0565b602002602001019073ffffffffffffffffffffffffffffffffffffffff16908173ffffffffffffffffffffffffffffffffffffffff16815250505b60028301546000908190610cb79073ffffffffffffffffffffffffffffffffffffffff168935856117a4565b60038701546040805160e08101909152865193955091935073ffffffffffffffffffffffffffffffffffffffff1691632b67b5709133918190606082019081908a90600090610d0857610d086127d0565b602002602001015173ffffffffffffffffffffffffffffffffffffffff1681526020018e6000013573ffffffffffffffffffffffffffffffffffffffff1681526020018e60a0016020810190610d5e91906125d0565b65ffffffffffff90811682528e35166020918201529082523090820152604001610d8e60c08e0160a08f016125d0565b65ffffffffffff169052610da560208c018c6125f8565b6040518563ffffffff1660e01b8152600401610dc49493929190612664565b600060405180830381600087803b158015610dde57600080fd5b505af1158015610df2573d6000803e3d6000fd5b5050506003860154835173ffffffffffffffffffffffffffffffffffffffff90911691506336c785169033908590600090610e2f57610e2f6127d0565b60209081029190910101518b35610e4960e08e018e612726565b6000818110610e5a57610e5a6127d0565b9050602002016020810190610e6f919061259a565b60405160e086901b7fffffffff0000000000000000000000000000000000000000000000000000000016815273ffffffffffffffffffffffffffffffffffffffff9485166004820152928416602484015290831660448301529091166064820152608401600060405180830381600087803b158015610eed57600080fd5b505af1158015610f01573d6000803e3d6000fd5b50505050610f1188848484611a77565b98975050505050505050565b60008173ffffffffffffffffffffffffffffffffffffffff168373ffffffffffffffffffffffffffffffffffffffff161115610f57579091905b6040517fffffffffffffffffffffffffffffffffffffffff000000000000000000000000606085811b8216602084015284901b1660348201528490604801604051602081830303815290604052805190602001206040516020016110389291907fff00000000000000000000000000000000000000000000000000000000000000815260609290921b7fffffffffffffffffffffffffffffffffffffffff00000000000000000000000016600183015260158201527f96e8ac4277198ff8b6f785478aa9a39f403cb768dd02cbee326c3e7da348845f603582015260550190565b604080517fffffffffffffffffffffffffffffffffffffffffffffffffffffffffffffffe08184030181529190528051602090910120949350505050565b60007fcd4d5c78b9e1b4c12c165f6dabad75194d4ff180375bd5b3c4499489a642191c81806110ac610100870160e0880161259a565b73ffffffffffffffffffffffffffffffffffffffff16146110dd576110d8610100860160e0870161259a565b6110fb565b8154610100900473ffffffffffffffffffffffffffffffffffffffff165b90506000806111126101208801610100890161259a565b73ffffffffffffffffffffffffffffffffffffffff16146111445761113f6101208701610100880161259a565b611162565b8254610100900473ffffffffffffffffffffffffffffffffffffffff165b90506000808673ffffffffffffffffffffffffffffffffffffffff16630902f1ac6040518163ffffffff1660e01b8152600401606060405180830381865afa1580156111b2573d6000803e3d6000fd5b505050506040513d601f19601f820116820180604052508101906111d69190612846565b506dffffffffffffffffffffffffffff1691506dffffffffffffffffffffffffffff1691508273ffffffffffffffffffffffffffffffffffffffff168473ffffffffffffffffffffffffffffffffffffffff16111561123157905b87356103e58181026103e8850201918302028161125057611250612896565b04955061126b60208901356108f260808b0160608c016127ff565b8610156112a4576040517f42301c2300000000000000000000000000000000000000000000000000000000815260040160405180910390fd5b60008373ffffffffffffffffffffffffffffffffffffffff168573ffffffffffffffffffffffffffffffffffffffff16106112e05760006112e3565b60015b90508773ffffffffffffffffffffffffffffffffffffffff1663022c0d9f8261130c578861130f565b60005b8361131b57600061131d565b895b6040517fffffffff0000000000000000000000000000000000000000000000000000000060e085901b16815260048101929092526024820152306044820152608060648201526000608482015260a401600060405180830381600087803b15801561138757600080fd5b505af115801561139b573d6000803e3d6000fd5b506113d492506113b491505060e08b0160c08c0161259a565b856113c560a08d0160808e016127ff565b61ffff168c602001358b61206e565b965086600003611410576040517f4497be8400000000000000000000000000000000000000000000000000000000815260040160405180910390fd5b60006114246101208b016101008c0161259a565b73ffffffffffffffffffffffffffffffffffffffff16036115775785546040517f2e1a7d4d0000000000000000000000000000000000000000000000000000000081526004810189905261010090910473ffffffffffffffffffffffffffffffffffffffff1690632e1a7d4d90602401600060405180830381600087803b1580156114ae57600080fd5b505af11580156114c2573d6000803e3d6000fd5b50600092506114da91505060608b0160408c0161259a565b73ffffffffffffffffffffffffffffffffffffffff168860405160006040518083038185875af1925050503d8060008114611531576040519150601f19603f3d011682016040523d82523d6000602084013e611536565b606091505b5050905080611571576040517f6d963f8800000000000000000000000000000000000000000000000000000000815260040160405180910390fd5b506115a8565b6115a861158a60608b0160408c0161259a565b73ffffffffffffffffffffffffffffffffffffffff86169089611667565b6115ba6101208a016101008b0161259a565b73ffffffffffffffffffffffffffffffffffffffff166115e16101008b0160e08c0161259a565b73ffffffffffffffffffffffffffffffffffffffff1661160760e08c0160c08d0161259a565b604080518d358152602081018c905273ffffffffffffffffffffffffffffffffffffffff92909216917f1d81b4318b379c644b5546ae9cf37d861a5c7547bf3dae6cfaecffa12f8748f3910160405180910390a450505050505092915050565b60405173ffffffffffffffffffffffffffffffffffffffff831660248201526044810182905261173b9084907fa9059cbb00000000000000000000000000000000000000000000000000000000906064015b604080517fffffffffffffffffffffffffffffffffffffffffffffffffffffffffffffffe08184030181529190526020810180517bffffffffffffffffffffffffffffffffffffffffffffffffffffffff167fffffffff0000000000000000000000000000000000000000000000000000000090931692909217909152612127565b505050565b60405173ffffffffffffffffffffffffffffffffffffffff8085166024830152831660448201526064810182905261179e9085907f23b872dd00000000000000000000000000000000000000000000000000000000906084016116b9565b50505050565b6060806000600184516117b791906127bd565b90508067ffffffffffffffff8111156117d2576117d26128c5565b6040519080825280602002602001820160405280156117fb578160200160208202803683370190505b509250835167ffffffffffffffff811115611818576118186128c5565b604051908082528060200260200182016040528015611841578160200160208202803683370190505b5091508482600081518110611858576118586127d0565b60200260200101818152505060005b81811015611a3f576000858281518110611883576118836127d0565b6020026020010151905060008683600161189d91906128f4565b815181106118ad576118ad6127d0565b602002602001015190506118c2898383610f1d565b8684815181106118d4576118d46127d0565b602002602001019073ffffffffffffffffffffffffffffffffffffffff16908173ffffffffffffffffffffffffffffffffffffffff168152505060008061191c8b8585610f1d565b73ffffffffffffffffffffffffffffffffffffffff16630902f1ac6040518163ffffffff1660e01b8152600401606060405180830381865afa158015611966573d6000803e3d6000fd5b505050506040513d601f19601f8201168201806040525081019061198a9190612846565b506dffffffffffffffffffffffffffff1691506dffffffffffffffffffffffffffff1691508273ffffffffffffffffffffffffffffffffffffffff168473ffffffffffffffffffffffffffffffffffffffff1611156119e557905b896103e502826103e80201818b6103e5020281611a0457611a04612896565b0499508987611a148760016128f4565b81518110611a2457611a246127d0565b60209081029190910101525050600190920191506118679050565b5050935093915050565b6000612710611a588382612907565b611a669061ffff1685612929565b611a709190612940565b9392505050565b60007fcd4d5c78b9e1b4c12c165f6dabad75194d4ff180375bd5b3c4499489a642191c816001611aaa60e0890189612726565b611ab59291506127bd565b9050611acf60208801356108f260808a0160608b016127ff565b8460018651611ade91906127bd565b81518110611aee57611aee6127d0565b60200260200101511015611b2e576040517f42301c2300000000000000000000000000000000000000000000000000000000815260040160405180910390fd5b60005b81811015611d1d576000611b468260016128f4565b90506000888281518110611b5c57611b5c6127d0565b602002602001015173ffffffffffffffffffffffffffffffffffffffff16898481518110611b8c57611b8c6127d0565b602002602001015173ffffffffffffffffffffffffffffffffffffffff1610611bb6576000611bb9565b60015b9050600060028a51611bcb91906127bd565b8410611bd75730611bf2565b888381518110611be957611be96127d0565b60200260200101515b9050888481518110611c0657611c066127d0565b602002602001015173ffffffffffffffffffffffffffffffffffffffff1663022c0d9f83611c4d57898581518110611c4057611c406127d0565b6020026020010151611c50565b60005b84611c5c576000611c77565b8a8681518110611c6e57611c6e6127d0565b60200260200101515b6040517fffffffff0000000000000000000000000000000000000000000000000000000060e085901b1681526004810192909252602482015273ffffffffffffffffffffffffffffffffffffffff84166044820152608060648201526000608482015260a401600060405180830381600087803b158015611cf757600080fd5b505af1158015611d0b573d6000803e3d6000fd5b50505050836001019350505050611b31565b50611d86611d3160e0890160c08a0161259a565b878381518110611d4357611d436127d0565b6020026020010151896080016020810190611d5e91906127ff565b61ffff168a60200135888681518110611d7957611d796127d0565b602002602001015161206e565b925082600003611dc2576040517f4497be8400000000000000000000000000000000000000000000000000000000815260040160405180910390fd5b6000611dd160e0890189612726565b83818110611de157611de16127d0565b9050602002016020810190611df6919061259a565b73ffffffffffffffffffffffffffffffffffffffff1603611f495781546040517f2e1a7d4d0000000000000000000000000000000000000000000000000000000081526004810185905261010090910473ffffffffffffffffffffffffffffffffffffffff1690632e1a7d4d90602401600060405180830381600087803b158015611e8057600080fd5b505af1158015611e94573d6000803e3d6000fd5b5060009250611eac9150506060890160408a0161259a565b73ffffffffffffffffffffffffffffffffffffffff168460405160006040518083038185875af1925050503d8060008114611f03576040519150601f19603f3d011682016040523d82523d6000602084013e611f08565b606091505b5050905080611f43576040517f6d963f8800000000000000000000000000000000000000000000000000000000815260040160405180910390fd5b50611f6f565b611f6f611f5c6060890160408a0161259a565b84888481518110610a9b57610a9b6127d0565b611f7c60e0880188612726565b82818110611f8c57611f8c6127d0565b9050602002016020810190611fa1919061259a565b73ffffffffffffffffffffffffffffffffffffffff16611fc460e0890189612726565b6000818110611fd557611fd56127d0565b9050602002016020810190611fea919061259a565b73ffffffffffffffffffffffffffffffffffffffff1661201060e08a0160c08b0161259a565b604080518b3581526020810188905273ffffffffffffffffffffffffffffffffffffffff92909216917f1d81b4318b379c644b5546ae9cf37d861a5c7547bf3dae6cfaecffa12f8748f3910160405180910390a45050949350505050565b60006107d08411156120b5576040517f7b9314200000000000000000000000000000000000000000000000000000000081526107d060048201526024015b60405180910390fd5b600082848111156120c7575050828203835b612710818702049190910190600073ffffffffffffffffffffffffffffffffffffffff8916156120fd5760646032840204612100565b60005b9050808303838214612118576121188a8a8484612236565b50505090910395945050505050565b6000612189826040518060400160405280602081526020017f5361666545524332303a206c6f772d6c6576656c2063616c6c206661696c65648152508573ffffffffffffffffffffffffffffffffffffffff166122fe9092919063ffffffff16565b90508051600014806121aa5750808060200190518101906121aa919061297b565b61173b576040517f08c379a000000000000000000000000000000000000000000000000000000000815260206004820152602a60248201527f5361666545524332303a204552433230206f7065726174696f6e20646964206e60448201527f6f7420737563636565640000000000000000000000000000000000000000000060648201526084016120ac565b73ffffffffffffffffffffffffffffffffffffffff84811660008181527f77fbd1c38a5ead50a5764a860fef6b91e5432a95f91228e67197edaf911cfc90602081815260408084209589168085529582528084208054890190557f77fbd1c38a5ead50a5764a860fef6b91e5432a95f91228e67197edaf911cfc9182529283902080548801905582518781529081018690528251919493927f3d2a5b5aa3c9e4a41eed8ae2e9e470c5cfb96fa51eb0935c607c0fd8ec3f3f5792918290030190a35050505050565b606061064a8484600085856000808673ffffffffffffffffffffffffffffffffffffffff16858760405161233291906129c1565b60006040518083038185875af1925050503d806000811461236f576040519150601f19603f3d011682016040523d82523d6000602084013e612374565b606091505b5091509150610b3e878383876060831561241657825160000361240f5773ffffffffffffffffffffffffffffffffffffffff85163b61240f576040517f08c379a000000000000000000000000000000000000000000000000000000000815260206004820152601d60248201527f416464726573733a2063616c6c20746f206e6f6e2d636f6e747261637400000060448201526064016120ac565b508161064a565b61064a838381511561242b5781518083602001fd5b806040517f08c379a00000000000000000000000000000000000000000000000000000000081526004016120ac91906129dd565b6000610120828403121561247257600080fd5b50919050565b60006040828403121561247257600080fd5b600080610140838503121561249e57600080fd5b6124a8848461245f565b915061012083013567ffffffffffffffff8111156124c557600080fd5b6124d185828601612478565b9150509250929050565b600061012082840312156124ee57600080fd5b611a70838361245f565b6000610100828403121561247257600080fd5b60006020828403121561251d57600080fd5b813567ffffffffffffffff81111561253457600080fd5b61064a848285016124f8565b6000806040838503121561255357600080fd5b823567ffffffffffffffff8082111561256b57600080fd5b612577868387016124f8565b9350602085013591508082111561258d57600080fd5b506124d185828601612478565b6000602082840312156125ac57600080fd5b813573ffffffffffffffffffffffffffffffffffffffff81168114611a7057600080fd5b6000602082840312156125e257600080fd5b813565ffffffffffff81168114611a7057600080fd5b60008083357fffffffffffffffffffffffffffffffffffffffffffffffffffffffffffffffe184360301811261262d57600080fd5b83018035915067ffffffffffffffff82111561264857600080fd5b60200191503681900382131561265d57600080fd5b9250929050565b600061010073ffffffffffffffffffffffffffffffffffffffff80881684528651818151166020860152816020820151166040860152604081015165ffffffffffff80821660608801528060608401511660808801525050508060208801511660a085015250604086015160c08401528060e08401528381840152506101208385828501376000838501820152601f9093017fffffffffffffffffffffffffffffffffffffffffffffffffffffffffffffffe016909101909101949350505050565b60008083357fffffffffffffffffffffffffffffffffffffffffffffffffffffffffffffffe184360301811261275b57600080fd5b83018035915067ffffffffffffffff82111561277657600080fd5b6020019150600581901b360382131561265d57600080fd5b7f4e487b7100000000000000000000000000000000000000000000000000000000600052601160045260246000fd5b8181038181111561038f5761038f61278e565b7f4e487b7100000000000000000000000000000000000000000000000000000000600052603260045260246000fd5b60006020828403121561281157600080fd5b813561ffff81168114611a7057600080fd5b80516dffffffffffffffffffffffffffff8116811461284157600080fd5b919050565b60008060006060848603121561285b57600080fd5b61286484612823565b925061287260208501612823565b9150604084015163ffffffff8116811461288b57600080fd5b809150509250925092565b7f4e487b7100000000000000000000000000000000000000000000000000000000600052601260045260246000fd5b7f4e487b7100000000000000000000000000000000000000000000000000000000600052604160045260246000fd5b8082018082111561038f5761038f61278e565b61ffff8281168282160390808211156129225761292261278e565b5092915050565b808202811582820484141761038f5761038f61278e565b600082612976577f4e487b7100000000000000000000000000000000000000000000000000000000600052601260045260246000fd5b500490565b60006020828403121561298d57600080fd5b81518015158114611a7057600080fd5b60005b838110156129b85781810151838201526020016129a0565b50506000910152565b600082516129d381846020870161299d565b9190910192915050565b60208152600082518060208401526129fc81604085016020870161299d565b601f017fffffffffffffffffffffffffffffffffffffffffffffffffffffffffffffffe016919091016040019291505056fea26469706673582212205d6a40228f7bd796f13f686800c91190f90f544f1db4eb97239926558f0b8cae64736f6c63430008130033",
  "devdoc": {
    "kind": "dev",
    "methods": {},
    "version": 1
  },
  "userdoc": {
    "errors": {
      "FeeTooHigh(uint256)": [
        {
          "notice": "The swap fee is over the maximum allowed"
        },
        {
          "notice": "The swap fee is over the maximum allowed"
        }
      ]
    },
    "kind": "user",
    "methods": {},
    "version": 1
  },
  "storageLayout": {
    "storage": [],
    "types": null
  }
}