{
  "_format": "hh-sol-artifact-1",
  "contractName": "UniversalRouter",
  "sourceName": "contracts/UniversalRouter.sol",
  "abi": [
    {
      "inputs": [
        {
          "components": [
            {
              "internalType": "address",
              "name": "weth",
              "type": "address"
            },
            {
              "internalType": "address",
              "name": "balancerRouter",
              "type": "address"
            },
            {
              "internalType": "address",
              "name": "bancorRouter",
              "type": "address"
            },
            {
              "internalType": "address",
              "name": "uniswapV2Factory",
              "type": "address"
            },
            {
              "internalType": "address",
              "name": "uniswapV3Factory",
              "type": "address"
            },
            {
              "internalType": "address",
              "name": "sushiswapRouter",
              "type": "address"
            },
            {
              "internalType": "address",
              "name": "pancakeswapRouter",
              "type": "address"
            },
            {
              "internalType": "address",
              "name": "shibaswapRouter",
              "type": "address"
            },
            {
              "internalType": "address",
              "name": "hyphenBridge",
              "type": "address"
            },
            {
              "internalType": "address",
              "name": "celerBridge",
              "type": "address"
            },
            {
              "internalType": "address",
              "name": "hopEthBridge",
              "type": "address"
            },
            {
              "internalType": "address",
              "name": "hopUsdcBridge",
              "type": "address"
            },
            {
              "internalType": "address",
              "name": "hopUsdtBridge",
              "type": "address"
            },
            {
              "internalType": "address",
              "name": "hopDaiBridge",
              "type": "address"
            },
            {
              "internalType": "address",
              "name": "hopWbtcBridge",
              "type": "address"
            },
            {
              "internalType": "address",
              "name": "hopMaticBridge",
              "type": "address"
            },
            {
              "internalType": "address",
              "name": "acrossBridge",
              "type": "address"
            },
            {
              "internalType": "address",
              "name": "multichainEthBridge",
              "type": "address"
            },
            {
              "internalType": "address",
              "name": "multichainErc20Bridge",
              "type": "address"
            },
            {
              "internalType": "address",
              "name": "synapseBridge",
              "type": "address"
            },
            {
              "internalType": "address",
              "name": "allBridge",
              "type": "address"
            },
            {
              "internalType": "address",
              "name": "portalBridge",
              "type": "address"
            },
            {
              "internalType": "address",
              "name": "optimismBridge",
              "type": "address"
            },
            {
              "internalType": "address",
              "name": "polygonPosBridge",
              "type": "address"
            },
            {
              "internalType": "address",
              "name": "polygonApproveAddr",
              "type": "address"
            },
            {
              "internalType": "address",
              "name": "omniBridge",
              "type": "address"
            }
          ],
          "internalType": "struct RouterParameters",
          "name": "params",
          "type": "tuple"
        }
      ],
      "stateMutability": "nonpayable",
      "type": "constructor"
    },
    {
      "inputs": [],
      "name": "BadPool",
      "type": "error"
    },
    {
      "inputs": [],
      "name": "BadSwapType",
      "type": "error"
    },
    {
      "inputs": [],
      "name": "DeadlinePassed",
      "type": "error"
    },
    {
      "inputs": [
        {
          "internalType": "bytes1",
          "name": "command",
          "type": "bytes1"
        },
        {
          "internalType": "uint256",
          "name": "commandNum",
          "type": "uint256"
        },
        {
          "internalType": "bytes",
          "name": "output",
          "type": "bytes"
        }
      ],
      "name": "FailedCommand",
      "type": "error"
    },
    {
      "inputs": [],
      "name": "FailedSwap",
      "type": "error"
    },
    {
      "inputs": [],
      "name": "IncorrectETHValue",
      "type": "error"
    },
    {
      "inputs": [],
      "name": "IncorrectFromToken",
      "type": "error"
    },
    {
      "inputs": [],
      "name": "InsufficientEth",
      "type": "error"
    },
    {
      "inputs": [],
      "name": "InsufficientLiquidity",
      "type": "error"
    },
    {
      "inputs": [],
      "name": "InsufficientOutput",
      "type": "error"
    },
    {
      "inputs": [],
      "name": "InvalidCommand",
      "type": "error"
    },
    {
      "inputs": [],
      "name": "InvalidInputLength",
      "type": "error"
    },
    {
      "inputs": [],
      "name": "InvalidToken",
      "type": "error"
    },
    {
      "inputs": [],
      "name": "InvalidTokenAmount",
      "type": "error"
    },
    {
      "inputs": [],
      "name": "NothingReceived",
      "type": "error"
    },
    {
      "inputs": [
        {
          "internalType": "bytes",
          "name": "message",
          "type": "bytes"
        }
      ],
      "name": "ThrowingError",
      "type": "error"
    },
    {
      "inputs": [],
      "name": "Unauthorized",
      "type": "error"
    },
    {
      "inputs": [
        {
          "internalType": "bytes[]",
          "name": "commands",
          "type": "bytes[]"
        },
        {
          "internalType": "bytes[]",
          "name": "inputs",
          "type": "bytes[]"
        }
      ],
      "name": "multiExecute",
      "outputs": [],
      "stateMutability": "payable",
      "type": "function"
    },
    {
      "inputs": [
        {
          "internalType": "bytes[]",
          "name": "commands",
          "type": "bytes[]"
        },
        {
          "internalType": "bytes[]",
          "name": "inputs",
          "type": "bytes[]"
        },
        {
          "internalType": "uint256",
          "name": "deadline",
          "type": "uint256"
        }
      ],
      "name": "routeExecute",
      "outputs": [],
      "stateMutability": "payable",
      "type": "function"
    },
    {
      "inputs": [
        {
          "internalType": "bytes",
          "name": "commands",
          "type": "bytes"
        },
        {
          "internalType": "bytes",
          "name": "input",
          "type": "bytes"
        }
      ],
      "name": "singleExecute",
      "outputs": [],
      "stateMutability": "payable",
      "type": "function"
    },
    {
      "inputs": [
        {
          "internalType": "int256",
          "name": "amount0Delta",
          "type": "int256"
        },
        {
          "internalType": "int256",
          "name": "amount1Delta",
          "type": "int256"
        },
        {
          "internalType": "bytes",
          "name": "_data",
          "type": "bytes"
        }
      ],
      "name": "uniswapV3SwapCallback",
      "outputs": [],
      "stateMutability": "nonpayable",
      "type": "function"
    },
    {
      "inputs": [
        {
          "internalType": "contract ERC20[]",
          "name": "_tokens",
          "type": "address[]"
        },
        {
          "internalType": "address",
          "name": "_receiver",
          "type": "address"
        }
      ],
      "name": "withdrawERC20",
      "outputs": [],
      "stateMutability": "nonpayable",
      "type": "function"
    },
    {
      "inputs": [
        {
          "internalType": "address",
          "name": "_receiver",
          "type": "address"
        }
      ],
      "name": "withdrawETH",
      "outputs": [],
      "stateMutability": "nonpayable",
      "type": "function"
    },
    {
      "stateMutability": "payable",
      "type": "receive"
    }
  ],
  "bytecode": "0x6103c06040523480156200001257600080fd5b5060405162005dcc38038062005dcc8339818101604052810190620000389190620009b6565b80806000015173ffffffffffffffffffffffffffffffffffffffff1660808173ffffffffffffffffffffffffffffffffffffffff1681525050806020015173ffffffffffffffffffffffffffffffffffffffff1660a08173ffffffffffffffffffffffffffffffffffffffff1681525050806040015173ffffffffffffffffffffffffffffffffffffffff1660c08173ffffffffffffffffffffffffffffffffffffffff1681525050806060015173ffffffffffffffffffffffffffffffffffffffff1660e08173ffffffffffffffffffffffffffffffffffffffff1681525050806080015173ffffffffffffffffffffffffffffffffffffffff166101008173ffffffffffffffffffffffffffffffffffffffff16815250508060a0015173ffffffffffffffffffffffffffffffffffffffff166101208173ffffffffffffffffffffffffffffffffffffffff16815250508060c0015173ffffffffffffffffffffffffffffffffffffffff166101408173ffffffffffffffffffffffffffffffffffffffff16815250508060e0015173ffffffffffffffffffffffffffffffffffffffff166101608173ffffffffffffffffffffffffffffffffffffffff168152505080610100015173ffffffffffffffffffffffffffffffffffffffff166101808173ffffffffffffffffffffffffffffffffffffffff168152505080610120015173ffffffffffffffffffffffffffffffffffffffff166101a08173ffffffffffffffffffffffffffffffffffffffff168152505080610140015173ffffffffffffffffffffffffffffffffffffffff166101c08173ffffffffffffffffffffffffffffffffffffffff168152505080610160015173ffffffffffffffffffffffffffffffffffffffff166101e08173ffffffffffffffffffffffffffffffffffffffff168152505080610180015173ffffffffffffffffffffffffffffffffffffffff166102008173ffffffffffffffffffffffffffffffffffffffff1681525050806101a0015173ffffffffffffffffffffffffffffffffffffffff166102208173ffffffffffffffffffffffffffffffffffffffff1681525050806101c0015173ffffffffffffffffffffffffffffffffffffffff166102408173ffffffffffffffffffffffffffffffffffffffff1681525050806101e0015173ffffffffffffffffffffffffffffffffffffffff166102608173ffffffffffffffffffffffffffffffffffffffff168152505080610200015173ffffffffffffffffffffffffffffffffffffffff166102808173ffffffffffffffffffffffffffffffffffffffff168152505080610220015173ffffffffffffffffffffffffffffffffffffffff166102a08173ffffffffffffffffffffffffffffffffffffffff168152505080610240015173ffffffffffffffffffffffffffffffffffffffff166102c08173ffffffffffffffffffffffffffffffffffffffff168152505080610260015173ffffffffffffffffffffffffffffffffffffffff166102e08173ffffffffffffffffffffffffffffffffffffffff168152505080610280015173ffffffffffffffffffffffffffffffffffffffff166103008173ffffffffffffffffffffffffffffffffffffffff1681525050806102a0015173ffffffffffffffffffffffffffffffffffffffff166103208173ffffffffffffffffffffffffffffffffffffffff1681525050806102c0015173ffffffffffffffffffffffffffffffffffffffff166103408173ffffffffffffffffffffffffffffffffffffffff1681525050806102e0015173ffffffffffffffffffffffffffffffffffffffff166103608173ffffffffffffffffffffffffffffffffffffffff168152505080610300015173ffffffffffffffffffffffffffffffffffffffff166103808173ffffffffffffffffffffffffffffffffffffffff168152505080610320015173ffffffffffffffffffffffffffffffffffffffff166103a08173ffffffffffffffffffffffffffffffffffffffff16815250505050620009e9565b6000604051905090565b600080fd5b600080fd5b6000601f19601f8301169050919050565b7f4e487b7100000000000000000000000000000000000000000000000000000000600052604160045260246000fd5b62000678826200062d565b810181811067ffffffffffffffff821117156200069a57620006996200063e565b5b80604052505050565b6000620006af62000619565b9050620006bd82826200066d565b919050565b600073ffffffffffffffffffffffffffffffffffffffff82169050919050565b6000620006ef82620006c2565b9050919050565b6200070181620006e2565b81146200070d57600080fd5b50565b6000815190506200072181620006f6565b92915050565b6000610340828403121562000741576200074062000628565b5b6200074e610340620006a3565b90506000620007608482850162000710565b6000830152506020620007768482850162000710565b60208301525060406200078c8482850162000710565b6040830152506060620007a28482850162000710565b6060830152506080620007b88482850162000710565b60808301525060a0620007ce8482850162000710565b60a08301525060c0620007e48482850162000710565b60c08301525060e0620007fa8482850162000710565b60e083015250610100620008118482850162000710565b61010083015250610120620008298482850162000710565b61012083015250610140620008418482850162000710565b61014083015250610160620008598482850162000710565b61016083015250610180620008718482850162000710565b610180830152506101a0620008898482850162000710565b6101a0830152506101c0620008a18482850162000710565b6101c0830152506101e0620008b98482850162000710565b6101e083015250610200620008d18482850162000710565b61020083015250610220620008e98482850162000710565b61022083015250610240620009018482850162000710565b61024083015250610260620009198482850162000710565b61026083015250610280620009318482850162000710565b610280830152506102a0620009498482850162000710565b6102a0830152506102c0620009618482850162000710565b6102c0830152506102e0620009798482850162000710565b6102e083015250610300620009918482850162000710565b61030083015250610320620009a98482850162000710565b6103208301525092915050565b60006103408284031215620009d057620009cf62000623565b5b6000620009e08482850162000727565b91505092915050565b60805160a05160c05160e05161010051610120516101405161016051610180516101a0516101c0516101e05161020051610220516102405161026051610280516102a0516102c0516102e05161030051610320516103405161036051610380516103a05161525c62000b706000396000611c8001526000611bad01526000611bde01526000611b570152600081816119d10152611a5701526000611b0f015260006117ad0152600081816118070152611837015260006118d8015260006117270152600061157a015260006115fe015260006115a0015260006115c7015260006116240152600061164b0152600061176a0152600061197b015260006112d9015260006112ff0152600061132601526000611d3701526000613e7c015260006114ec0152600081816113ca015261144a0152600081816109df0152818161263e01528181612719015281816127b00152818161290101528181612acb01528181612bac01528181612c3d0152818161363d015281816139e90152613b51015261525c6000f3fe6080604052600436106100595760003560e01c8063340ed32a1461006557806336c9a1d21461008e5780635fda5f7f146100aa578063690d8320146100c6578063cf06783c146100ef578063fa461e331461010b57610060565b3661006057005b600080fd5b34801561007157600080fd5b5061008c60048036038101906100879190613fcd565b610134565b005b6100a860048036038101906100a39190614285565b6102af565b005b6100c460048036038101906100bf9190614310565b610349565b005b3480156100d257600080fd5b506100ed60048036038101906100e89190614388565b61073e565b005b610109600480360381019061010491906143b5565b610801565b005b34801561011757600080fd5b50610132600480360381019061012d91906144b9565b610933565b005b73e9290c80b28db1b3d9853ab1ee60c6630b87f57e73ffffffffffffffffffffffffffffffffffffffff163373ffffffffffffffffffffffffffffffffffffffff16146101ad576040517f82b4290000000000000000000000000000000000000000000000000000000000815260040160405180910390fd5b60005b838390508110156102a95761029c8484838181106101d1576101d061452d565b5b90506020020160208101906101e6919061459a565b838686858181106101fa576101f961452d565b5b905060200201602081019061020f919061459a565b73ffffffffffffffffffffffffffffffffffffffff166370a08231306040518263ffffffff1660e01b815260040161024791906145d6565b60206040518083038186803b15801561025f57600080fd5b505afa158015610273573d6000803e3d6000fd5b505050506040513d601f19601f820116820180604052508101906102979190614606565b610a93565b80806001019150506101b0565b50505050565b80804211156102ea576040517f70f65caa00000000000000000000000000000000000000000000000000000000815260040160405180910390fd5b6001845111610338576103338460008151811061030a5761030961452d565b5b6020026020010151846000815181106103265761032561452d565b5b6020026020010151610801565b610343565b6103428484610349565b5b50505050565b60006060600080600080344761035f9190614662565b905060005b87518110156106f95760008982815181106103825761038161452d565b5b602002602001015160008151811061039d5761039c61452d565b5b602001015160f81c60f81b905060008983815181106103bf576103be61452d565b5b602002602001015190506000601f60f81b831690506000841180156103e957506103e883610b2b565b5b156105fd57600460f81b817effffffffffffffffffffffffffffffffffffffffffffffffffffffffffffff19161415610446576104418c85815181106104325761043161452d565b5b60200260200101516001610b62565b610486565b8b84815181106104595761045861452d565b5b60200260200101516001815181106104745761047361452d565b5b602001015160f81c60f81b60f81c60ff165b61ffff169650600460f81b817effffffffffffffffffffffffffffffffffffffffffffffffffffffffffffff191614156104e4576104df8c85815181106104d0576104cf61452d565b5b60200260200101516003610b62565b610524565b8b84815181106104f7576104f661452d565b5b60200260200101516002815181106105125761051161452d565b5b602001015160f81c60f81b60f81c60ff165b61ffff169750610581601f60f81b8d6001876105409190614662565b815181106105515761055061452d565b5b602002602001015160008151811061056c5761056b61452d565b5b602001015160f81c60f81b16848a858d610b73565b9150600560f81b817effffffffffffffffffffffffffffffffffffffffffffffffffffffffffffff19161180156105e45750600060f81b602060f81b84167effffffffffffffffffffffffffffffffffffffffffffffffffffffffffffff191614155b156105f85784476105f59190614662565b95505b610648565b61063b8c85815181106106135761061261452d565b5b60200260200101518c868151811061062e5761062d61452d565b5b6020026020010151610f03565b809450819950829a505050505b61068e83888a856000891461065d578a610689565b600034146106855761271061270e346106769190614696565b610680919061471f565b610688565b60005b5b611214565b809a50819b505050896106dc5782848a6040517fac70f6b30000000000000000000000000000000000000000000000000000000081526004016106d393929190614822565b60405180910390fd5b600086146106e957600095505b8380600101945050505050610364565b5080471015610734576040517fa01a9df600000000000000000000000000000000000000000000000000000000815260040160405180910390fd5b5050505050505050565b73e9290c80b28db1b3d9853ab1ee60c6630b87f57e73ffffffffffffffffffffffffffffffffffffffff163373ffffffffffffffffffffffffffffffffffffffff16146107b7576040517f82b4290000000000000000000000000000000000000000000000000000000000815260040160405180910390fd5b8073ffffffffffffffffffffffffffffffffffffffff166108fc479081150290604051600060405180830381858888f193505050501580156107fd573d6000803e3d6000fd5b5050565b60006060600080600034476108169190614662565b90506108228787610f03565b809850819450829550505050610883876000815181106108455761084461452d565b5b602001015160f81c60f81b8385896000341461087b5761271061270e3461086c9190614696565b610876919061471f565b61087e565b60005b611214565b8095508196505050846108f057866000815181106108a4576108a361452d565b5b602001015160f81c60f81b6000856040517fac70f6b30000000000000000000000000000000000000000000000000000000081526004016108e7939291906148a5565b60405180910390fd5b8047101561092a576040517fa01a9df600000000000000000000000000000000000000000000000000000000815260040160405180910390fd5b50505050505050565b60008413806109425750600083135b61094b57600080fd5b600080600061099d85858080601f016020809104026020016040519081016040528093929190818152602001838380828437600081840152601f19601f82011690508083019250505050505050611cc1565b925092509250600073ffffffffffffffffffffffffffffffffffffffff168373ffffffffffffffffffffffffffffffffffffffff16146109dd57826109ff565b7f00000000000000000000000000000000000000000000000000000000000000005b9250610a0c838383611cf4565b73ffffffffffffffffffffffffffffffffffffffff163373ffffffffffffffffffffffffffffffffffffffff1614610a70576040517fb2c0272200000000000000000000000000000000000000000000000000000000815260040160405180910390fd5b610a8a833360008a13610a835788610a85565b895b610a93565b50505050505050565b60006040517fa9059cbb000000000000000000000000000000000000000000000000000000008152836004820152826024820152602060006044836000895af13d15601f3d1160016000511416171691505080610b25576040517f08c379a0000000000000000000000000000000000000000000000000000000008152600401610b1c90614940565b60405180910390fd5b50505050565b60008060f81b604060f81b83167effffffffffffffffffffffffffffffffffffffffffffffffffffffffffffff1916149050919050565b600081600284010151905092915050565b6060600a60f81b601f60f81b86167effffffffffffffffffffffffffffffffffffffffffffffffffffffffffffff1916118015610bdc5750600060f81b602060f81b86167effffffffffffffffffffffffffffffffffffffffffffffffffffffffffffff191614155b15610be957829050610efa565b6000600460f81b877effffffffffffffffffffffffffffffffffffffffffffffffffffffffffffff1916148015610c21575060208351115b15610c7557610c338360406020611dd9565b806020019051810190610c469190614975565b610c4f906149a2565b604051602001610c5f91906149eb565b6040516020818303038152906040529250610d88565b600060f81b877effffffffffffffffffffffffffffffffffffffffffffffffffffffffffffff1916118015610ccf5750600560f81b877effffffffffffffffffffffffffffffffffffffffffffffffffffffffffffff1916105b15610cd957610d87565b600060f81b877effffffffffffffffffffffffffffffffffffffffffffffffffffffffffffff19161415610d1c5760208351610d159190614662565b9050610d86565b600560f81b877effffffffffffffffffffffffffffffffffffffffffffffffffffffffffffff19161415610d535760449050610d85565b6040517f12f269e500000000000000000000000000000000000000000000000000000000815260040160405180910390fd5b5b5b5b600460f81b601f60f81b87167effffffffffffffffffffffffffffffffffffffffffffffffffffffffffffff1916148015610def5750600060f81b602060f81b87167effffffffffffffffffffffffffffffffffffffffffffffffffffffffffffff191614155b15610e9c576000610e0c85604088610e079190614662565b611e32565b6020610e189190614696565b6024610e258760e4611e32565b610e2f9190614a06565b610e399190614a06565b90506000610e80610e4c86856020611dd9565b610e7b88602086610e5d9190614a06565b6020878c51610e6c9190614662565b610e769190614662565b611dd9565b611e43565b9050610e97610e9187600085611dd9565b82611e43565b955050505b610ea884600087611dd9565b9150610ef682610ef1610ebd86856020611dd9565b610eec8860208b610ece9190614a06565b60208c8c51610edd9190614662565b610ee79190614662565b611dd9565b611e43565b611e43565b9150505b95945050505050565b60008060606000601f60f81b86600081518110610f2357610f2261452d565b5b602001015160f81c60f81b1660f81c60ff16905060048114610f925785600181518110610f5357610f5261452d565b5b602001015160f81c60f81b60f81c60ff16925085600281518110610f7a57610f7961452d565b5b602001015160f81c60f81b60f81c60ff1693506110fe565b600060f81b602060f81b87600081518110610fb057610faf61452d565b5b602001015160f81c60f81b167effffffffffffffffffffffffffffffffffffffffffffffffffffffffffffff19161415610ff357610130925061016493506110fd565b601485516110019190614662565b925061100f85610144611e32565b6101a461101c9190614a06565b93506000611036866040876110319190614662565b611e32565b60206110429190614696565b602461104f8860e4611e32565b6110599190614a06565b6110639190614a06565b905060006110e161271061270e61107a8a86611e32565b6110849190614696565b61108e919061471f565b60405160200161109e91906149eb565b6040516020818303038152906040526110dc896020866110be9190614a06565b6020878d516110cd9190614662565b6110d79190614662565b611dd9565b611e43565b90506110f86110f288600085611dd9565b82611e43565b965050505b5b600a8111801561110e5750600034115b15611122578383869350935093505061120d565b600061112e8686611e32565b9050600034141561114f5761114e6111468786611ecd565b333084611ede565b5b60006111c261271061270e846111659190614696565b61116f919061471f565b60405160200161117f91906149eb565b6040516020818303038152906040526111bd8960208a61119f9190614a06565b60208b8d516111ae9190614662565b6111b89190614662565b611dd9565b611e43565b905060018314806111d35750600283145b156111e95785858295509550955050505061120d565b6111fe6111f888600089611dd9565b82611e43565b96508585889550955095505050505b9250925092565b600060606000601f60f81b881660f81c60ff169050600681101561152557600381101561137857600181141561126c5761126185611252878a611ecd565b61125c888a611e32565b611f7d565b915060019250611373565b600281141561129d5761129285611283878a611ecd565b61128d888a611e32565b612868565b915060019250611372565b60008114156113715760006112bf86600188516112ba9190614662565b612d14565b60ff1690506113676000821461132457600182146112fd577f000000000000000000000000000000000000000000000000000000000000000061131f565b7f00000000000000000000000000000000000000000000000000000000000000005b611346565b7f00000000000000000000000000000000000000000000000000000000000000005b8989886113628b600060018e5161135d9190614662565b611dd9565b612d25565b8094508195505050505b5b5b611520565b60038114156113a95761139e8561138f878a611ecd565b611399888a611e32565b612dcb565b91506001925061151f565b60048114156114de5760008414156113f9576113f86113c88689611ecd565b7f00000000000000000000000000000000000000000000000000000000000000006113f3888a611e32565b61345e565b5b600060f81b602060f81b89167effffffffffffffffffffffffffffffffffffffffffffffffffffffffffffff19161461144857611445856000601488516114409190614662565b611dd9565b94505b7f000000000000000000000000000000000000000000000000000000000000000073ffffffffffffffffffffffffffffffffffffffff16848660405161148e9190614a98565b60006040518083038185875af1925050503d80600081146114cb576040519150601f19603f3d011682016040523d82523d6000602084013e6114d0565b606091505b50809350819450505061151e565b600581141561151d576115147f000000000000000000000000000000000000000000000000000000000000000088888789612d25565b80935081945050505b5b5b5b611cb6565b600f811015611b4957600a8110156117e657600681141561171957600061155986600188516115549190614662565b612d14565b60ff1690506000600382106115ec57600382146115c5576004821461159e577f00000000000000000000000000000000000000000000000000000000000000006115c0565b7f00000000000000000000000000000000000000000000000000000000000000005b6115e7565b7f00000000000000000000000000000000000000000000000000000000000000005b61166c565b600082146116495760018214611622577f0000000000000000000000000000000000000000000000000000000000000000611644565b7f00000000000000000000000000000000000000000000000000000000000000005b61166b565b7f00000000000000000000000000000000000000000000000000000000000000005b5b9050600086141561169557611694611684888b611ecd565b8261168f8a8c611e32565b61345e565b5b8073ffffffffffffffffffffffffffffffffffffffff16866116ba89600060f8611dd9565b6040516116c79190614a98565b60006040518083038185875af1925050503d8060008114611704576040519150601f19603f3d011682016040523d82523d6000602084013e611709565b606091505b50809550819650505050506117e1565b600781141561175c5761174f7f000000000000000000000000000000000000000000000000000000000000000088888789612d25565b80935081945050506117e0565b600881141561179f576117927f000000000000000000000000000000000000000000000000000000000000000088888789612d25565b80935081945050506117df565b60098114156117de576117d57f000000000000000000000000000000000000000000000000000000000000000088888789612d25565b80935081945050505b5b5b5b611b44565b600c81141561196d5760008414156118d6576118356118058689611ecd565b7f0000000000000000000000000000000000000000000000000000000000000000611830888a611e32565b61345e565b7f000000000000000000000000000000000000000000000000000000000000000073ffffffffffffffffffffffffffffffffffffffff166118798660006090611dd9565b6040516118869190614a98565b6000604051808303816000865af19150503d80600081146118c3576040519150601f19603f3d011682016040523d82523d6000602084013e6118c8565b606091505b508093508194505050611968565b7f000000000000000000000000000000000000000000000000000000000000000073ffffffffffffffffffffffffffffffffffffffff16848660405161191c9190614a98565b60006040518083038185875af1925050503d8060008114611959576040519150601f19603f3d011682016040523d82523d6000602084013e61195e565b606091505b5080935081945050505b611b43565b600d8114156119b0576119a37f000000000000000000000000000000000000000000000000000000000000000088888789612d25565b8093508194505050611b42565b600e811415611b01576000841415611a00576119ff6119cf8689611ecd565b7f00000000000000000000000000000000000000000000000000000000000000006119fa888a611e32565b61345e565b5b6000611a0d866070611ecd565b73ffffffffffffffffffffffffffffffffffffffff1660001b611a31876084611e32565b42604051602001611a4493929190614ac8565b60405160208183030381529060405290507f000000000000000000000000000000000000000000000000000000000000000073ffffffffffffffffffffffffffffffffffffffff1685611aa3611a9d8960006064611dd9565b84611e43565b604051611ab09190614a98565b60006040518083038185875af1925050503d8060008114611aed576040519150601f19603f3d011682016040523d82523d6000602084013e611af2565b606091505b50809450819550505050611b41565b600b811415611b4057611b377f000000000000000000000000000000000000000000000000000000000000000088888789612d25565b80935081945050505b5b5b5b5b611cb5565b600f811415611b8c57611b7f7f000000000000000000000000000000000000000000000000000000000000000088888789612d25565b8093508194505050611cb4565b6010811415611c72576000841415611bdc57611bdb611bab8689611ecd565b7f0000000000000000000000000000000000000000000000000000000000000000611bd6888a611e32565b61345e565b5b7f000000000000000000000000000000000000000000000000000000000000000073ffffffffffffffffffffffffffffffffffffffff168486604051611c229190614a98565b60006040518083038185875af1925050503d8060008114611c5f576040519150601f19603f3d011682016040523d82523d6000602084013e611c64565b606091505b508093508194505050611cb3565b6011811415611cb257611ca97f00000000000000000000000000000000000000000000000000000000000000008888600089612d25565b80935081945050505b5b5b5b5b509550959350505050565b6000806000611cd1846000611ecd565b9250611cde8460146134f6565b9050611ceb846017611ecd565b91509193909250565b60008273ffffffffffffffffffffffffffffffffffffffff168473ffffffffffffffffffffffffffffffffffffffff161115611d3557828480945081955050505b7f0000000000000000000000000000000000000000000000000000000000000000848484604051602001611d6b93929190614b1d565b604051602081830303815290604052805190602001207fe34f199b19b2b4f47f68442619d555527d244f78a3297ea89325f843f87b8b5460001b604051602001611db793929190614c14565b6040516020818303038152906040528051906020012060001c90509392505050565b60606040519050601f821680156020028183010183810185831560200284890101015b81831015611e195780518352602083019250602081019050611dfc565b50848452601f19601f8301166040525050509392505050565b600081602084010151905092915050565b6060806040519050835180825260208201818101602087015b81831015611e795780518352602083019250602081019050611e5c565b50855192508351830184528091508282019050602086015b81831015611eae5780518352602083019250602081019050611e91565b50601f19601f8851850115830101166040525050508091505092915050565b600081601484010151905092915050565b60006040517f23b872dd0000000000000000000000000000000000000000000000000000000081528460048201528360248201528260448201526020600060648360008a5af13d15601f3d1160016000511416171691505080611f76576040517f08c379a0000000000000000000000000000000000000000000000000000000008152600401611f6d90614ca8565b60405180910390fd5b5050505050565b60606000611f988560028751611f939190614662565b612d14565b60ff169050600080611fb78760018951611fb29190614662565b612d14565b60ff1614611fdb57611fd68660168851611fd19190614662565b611ecd565b611fdd565b335b90506000806000611ff089898988613507565b9250925092506001851115612466576000826001815181106120155761201461452d565b5b602002602001015173ffffffffffffffffffffffffffffffffffffffff16836000815181106120475761204661452d565b5b602002602001015173ffffffffffffffffffffffffffffffffffffffff1610612071576000612074565b60015b90508360008151811061208a5761208961452d565b5b602002602001015173ffffffffffffffffffffffffffffffffffffffff1663022c0d9f826120d357836000815181106120c6576120c561452d565b5b60200260200101516120d6565b60005b836120e25760006120ff565b846000815181106120f6576120f561452d565b5b60200260200101515b876001815181106121135761211261452d565b5b60200260200101516040518463ffffffff1660e01b815260040161213993929190614cee565b600060405180830381600087803b15801561215357600080fd5b505af1158015612167573d6000803e3d6000fd5b50505050600060018761217a9190614662565b90506000600190505b8181101561231457846001826121999190614a06565b815181106121aa576121a961452d565b5b602002602001015173ffffffffffffffffffffffffffffffffffffffff168582815181106121db576121da61452d565b5b602002602001015173ffffffffffffffffffffffffffffffffffffffff1610612205576000612208565b60015b925085818151811061221d5761221c61452d565b5b602002602001015173ffffffffffffffffffffffffffffffffffffffff1663022c0d9f84612265578583815181106122585761225761452d565b5b6020026020010151612268565b60005b85612274576000612290565b8684815181106122875761228661452d565b5b60200260200101515b8960018661229e9190614a06565b815181106122af576122ae61452d565b5b60200260200101516040518463ffffffff1660e01b81526004016122d593929190614cee565b600060405180830381600087803b1580156122ef57600080fd5b505af1158015612303573d6000803e3d6000fd5b505050508080600101915050612183565b508387815181106123285761232761452d565b5b602002602001015173ffffffffffffffffffffffffffffffffffffffff168482815181106123595761235861452d565b5b602002602001015173ffffffffffffffffffffffffffffffffffffffff1610612383576000612386565b60015b915084818151811061239b5761239a61452d565b5b602002602001015173ffffffffffffffffffffffffffffffffffffffff1663022c0d9f836123e3578483815181106123d6576123d561452d565b5b60200260200101516123e6565b60005b846123f257600061240e565b8584815181106124055761240461452d565b5b60200260200101515b896040518463ffffffff1660e01b815260040161242d93929190614cee565b600060405180830381600087803b15801561244757600080fd5b505af115801561245b573d6000803e3d6000fd5b5050505050506125b9565b60008260018151811061247c5761247b61452d565b5b602002602001015173ffffffffffffffffffffffffffffffffffffffff16836000815181106124ae576124ad61452d565b5b602002602001015173ffffffffffffffffffffffffffffffffffffffff16106124d85760006124db565b60015b9050836000815181106124f1576124f061452d565b5b602002602001015173ffffffffffffffffffffffffffffffffffffffff1663022c0d9f8261253a578360008151811061252d5761252c61452d565b5b602002602001015161253d565b60005b83612549576000612566565b8460008151811061255d5761255c61452d565b5b60200260200101515b886040518463ffffffff1660e01b815260040161258593929190614cee565b600060405180830381600087803b15801561259f57600080fd5b505af11580156125b3573d6000803e3d6000fd5b50505050505b6000816001876125c99190614662565b815181106125da576125d961452d565b5b60200260200101519050806040516020016125f591906149eb565b60405160208183030381529060405296503073ffffffffffffffffffffffffffffffffffffffff168573ffffffffffffffffffffffffffffffffffffffff161480156126a657507f000000000000000000000000000000000000000000000000000000000000000073ffffffffffffffffffffffffffffffffffffffff168387815181106126865761268561452d565b5b602002602001015173ffffffffffffffffffffffffffffffffffffffff16145b1561285a573073ffffffffffffffffffffffffffffffffffffffff166126d98b602a8d516126d49190614662565b611ecd565b73ffffffffffffffffffffffffffffffffffffffff1614156127ae57600161270e8b602b8d516127099190614662565b612d14565b60ff1614156127a3577f000000000000000000000000000000000000000000000000000000000000000073ffffffffffffffffffffffffffffffffffffffff16632e1a7d4d826040518263ffffffff1660e01b815260040161277091906149eb565b600060405180830381600087803b15801561278a57600080fd5b505af115801561279e573d6000803e3d6000fd5b505050505b505050505050612861565b7f000000000000000000000000000000000000000000000000000000000000000073ffffffffffffffffffffffffffffffffffffffff16632e1a7d4d826040518263ffffffff1660e01b815260040161280791906149eb565b600060405180830381600087803b15801561282157600080fd5b505af1158015612835573d6000803e3d6000fd5b505050506128596128538b602a8d5161284e9190614662565b611ecd565b82613ab7565b5b5050505050505b9392505050565b60606000612883856002875161287e9190614662565b612d14565b60ff1690506000806128a2876001895161289d9190614662565b612d14565b60ff16146128c6576128c186601688516128bc9190614662565b611ecd565b6128c8565b335b9050600073ffffffffffffffffffffffffffffffffffffffff168573ffffffffffffffffffffffffffffffffffffffff161415612981577f000000000000000000000000000000000000000000000000000000000000000073ffffffffffffffffffffffffffffffffffffffff1663d0e30db0856040518263ffffffff1660e01b81526004016000604051808303818588803b15801561296757600080fd5b505af115801561297b573d6000803e3d6000fd5b50505050505b6001821115612a37576129a1308561299c896040602b611dd9565b613b0a565b935060006001836129b29190614662565b90506000600190505b81811015612a00576129f130876129ec8b6017866129d99190614696565b60406129e59190614a06565b602b611dd9565b613b0a565b955080806001019150506129bb565b50612a2f8286612a2a8a601786612a179190614696565b6040612a239190614a06565b602b611dd9565b613b0a565b945050612a51565b612a4e8185612a49896040602b611dd9565b613b0a565b93505b612a5c866020611e32565b841015612a95576040517fbb2875c300000000000000000000000000000000000000000000000000000000815260040160405180910390fd5b3073ffffffffffffffffffffffffffffffffffffffff168173ffffffffffffffffffffffffffffffffffffffff161415612ce9577f000000000000000000000000000000000000000000000000000000000000000073ffffffffffffffffffffffffffffffffffffffff16612b2287601785612b119190614696565b6040612b1d9190614a06565b611ecd565b73ffffffffffffffffffffffffffffffffffffffff161415612ce8573073ffffffffffffffffffffffffffffffffffffffff16612b6c87602a8951612b679190614662565b611ecd565b73ffffffffffffffffffffffffffffffffffffffff161415612c3b576001612ba187602b8951612b9c9190614662565b612d14565b60ff161415612c36577f000000000000000000000000000000000000000000000000000000000000000073ffffffffffffffffffffffffffffffffffffffff16632e1a7d4d856040518263ffffffff1660e01b8152600401612c0391906149eb565b600060405180830381600087803b158015612c1d57600080fd5b505af1158015612c31573d6000803e3d6000fd5b505050505b612ce7565b7f000000000000000000000000000000000000000000000000000000000000000073ffffffffffffffffffffffffffffffffffffffff16632e1a7d4d856040518263ffffffff1660e01b8152600401612c9491906149eb565b600060405180830381600087803b158015612cae57600080fd5b505af1158015612cc2573d6000803e3d6000fd5b50505050612ce6612ce087602a8951612cdb9190614662565b611ecd565b85613ab7565b5b5b5b83604051602001612cfa91906149eb565b604051602081830303815290604052925050509392505050565b600081600184010151905092915050565b600060606000841415612d5057612d4f612d3f8488611ecd565b88612d4a8689611e32565b61345e565b5b8673ffffffffffffffffffffffffffffffffffffffff168484604051612d769190614a98565b60006040518083038185875af1925050503d8060008114612db3576040519150601f19603f3d011682016040523d82523d6000602084013e612db8565b606091505b5080925081935050509550959350505050565b60606000612de68560028751612de19190614662565b612d14565b60ff169050600080612e058760018951612e009190614662565b612d14565b60ff1614612e2957612e248660168851612e1f9190614662565b611ecd565b612e2b565b335b90506000602883612e3c9190614696565b6054612e489190614a06565b90506000805b848110156133ad576000612e7a8a602884612e699190614696565b6054612e759190614a06565b611ecd565b90506000612ea08b602885612e8f9190614696565b6068612e9b9190614a06565b611ecd565b905060008073ffffffffffffffffffffffffffffffffffffffff168273ffffffffffffffffffffffffffffffffffffffff16149050612f7c612efb8d600687612ee99190614696565b89612ef49190614a06565b6004611dd9565b612f288e6004600689612f0e9190614696565b8b612f199190614a06565b612f239190614a06565b612d14565b612f558f600560068a612f3b9190614696565b8c612f469190614a06565b612f509190614a06565b612d14565b8d604051602001612f6893929190614d54565b604051602081830303815290604052611e43565b9850600073ffffffffffffffffffffffffffffffffffffffff168b73ffffffffffffffffffffffffffffffffffffffff1614158015612fb9575080155b156130ab57612fc98b848c61345e565b6130198960018a612fda9190614662565b8614613006576000604051602001612ff29190614dbc565b604051602081830303815290604052613014565b6130138e60346020611dd9565b5b611e43565b98508173ffffffffffffffffffffffffffffffffffffffff166370a08231306040518263ffffffff1660e01b815260040161305491906145d6565b60206040518083038186803b15801561306c57600080fd5b505afa158015613080573d6000803e3d6000fd5b505050506040513d601f19601f820116820180604052508101906130a49190614606565b94506131fe565b600073ffffffffffffffffffffffffffffffffffffffff168b73ffffffffffffffffffffffffffffffffffffffff16146130eb576130ea8b848c61345e565b5b6131648961315f60018b6130ff9190614662565b871461312b5760006040516020016131179190614dbc565b604051602081830303815290604052613139565b6131388f60346020611dd9565b5b600160405160200161314b9190614df2565b604051602081830303815290604052611e43565b611e43565b9850806131f9578173ffffffffffffffffffffffffffffffffffffffff166370a08231306040518263ffffffff1660e01b81526004016131a491906145d6565b60206040518083038186803b1580156131bc57600080fd5b505afa1580156131d0573d6000803e3d6000fd5b505050506040513d601f19601f820116820180604052508101906131f49190614606565b6131fb565b475b94505b6000808473ffffffffffffffffffffffffffffffffffffffff16600073ffffffffffffffffffffffffffffffffffffffff168e73ffffffffffffffffffffffffffffffffffffffff1614613253576000613255565b8c5b8c6040516132639190614a98565b60006040518083038185875af1925050503d80600081146132a0576040519150601f19603f3d011682016040523d82523d6000602084013e6132a5565b606091505b5091509150816132eb57806040517ec73c900000000000000000000000000000000000000000000000000000000081526004016132e29190614e0d565b60405180910390fd5b8261338957868473ffffffffffffffffffffffffffffffffffffffff166370a08231306040518263ffffffff1660e01b815260040161332a91906145d6565b60206040518083038186803b15801561334257600080fd5b505afa158015613356573d6000803e3d6000fd5b505050506040513d601f19601f8201168201806040525081019061337a9190614606565b6133849190614662565b613396565b86476133959190614662565b5b9b50839c5085806001019650505050505050612e4e565b503073ffffffffffffffffffffffffffffffffffffffff168373ffffffffffffffffffffffffffffffffffffffff161461343157600073ffffffffffffffffffffffffffffffffffffffff168773ffffffffffffffffffffffffffffffffffffffff161461342557613420878488610a93565b613430565b61342f8387613ab7565b5b5b8560405160200161344291906149eb565b6040516020818303038152906040529450505050509392505050565b60006040517f095ea7b3000000000000000000000000000000000000000000000000000000008152836004820152826024820152602060006044836000895af13d15601f3d11600160005114161716915050806134f0576040517f08c379a00000000000000000000000000000000000000000000000000000000081526004016134e790614e7b565b60405180910390fd5b50505050565b600081600384010151905092915050565b60608060608367ffffffffffffffff8111156135265761352561403e565b5b6040519080825280602002602001820160405280156135545781602001602082028036833780820191505090505b5092506001846135649190614a06565b67ffffffffffffffff81111561357d5761357c61403e565b5b6040519080825280602002602001820160405280156135ab5781602001602082028036833780820191505090505b5091508367ffffffffffffffff8111156135c8576135c761403e565b5b6040519080825280602002602001820160405280156135f65781602001602082028036833780820191505090505b5090506000806000879050600073ffffffffffffffffffffffffffffffffffffffff168973ffffffffffffffffffffffffffffffffffffffff161461363b578861365d565b7f00000000000000000000000000000000000000000000000000000000000000005b856000815181106136715761367061452d565b5b602002602001019073ffffffffffffffffffffffffffffffffffffffff16908173ffffffffffffffffffffffffffffffffffffffff168152505060005b8781101561396d576136e48b60146001846136c99190614a06565b6136d39190614696565b60406136df9190614a06565b611ecd565b866001836136f29190614a06565b815181106137035761370261452d565b5b602002602001019073ffffffffffffffffffffffffffffffffffffffff16908173ffffffffffffffffffffffffffffffffffffffff16815250508581815181106137505761374f61452d565b5b60200260200101519350856001826137689190614a06565b815181106137795761377861452d565b5b6020026020010151925061378d8484613d54565b8782815181106137a05761379f61452d565b5b602002602001019073ffffffffffffffffffffffffffffffffffffffff16908173ffffffffffffffffffffffffffffffffffffffff16815250506000808883815181106137f0576137ef61452d565b5b602002602001015173ffffffffffffffffffffffffffffffffffffffff16630902f1ac6040518163ffffffff1660e01b815260040160606040518083038186803b15801561383d57600080fd5b505afa158015613851573d6000803e3d6000fd5b505050506040513d601f19601f820116820180604052508101906138759190614f1d565b506dffffffffffffffffffffffffffff1691506dffffffffffffffffffffffffffff1691508473ffffffffffffffffffffffffffffffffffffffff168673ffffffffffffffffffffffffffffffffffffffff1611156138d957808280925081935050505b6103e5846138e79190614696565b6103e8836138f59190614696565b6138ff9190614a06565b816103e58661390e9190614696565b6139189190614696565b613922919061471f565b8784815181106139355761393461452d565b5b6020026020010181815250508683815181106139545761395361452d565b5b60200260200101519350828060010193505050506136ae565b506139798a6020611e32565b8110156139b2576040517fbb2875c300000000000000000000000000000000000000000000000000000000815260040160405180910390fd5b600073ffffffffffffffffffffffffffffffffffffffff168973ffffffffffffffffffffffffffffffffffffffff161415613a69577f000000000000000000000000000000000000000000000000000000000000000073ffffffffffffffffffffffffffffffffffffffff1663d0e30db0896040518263ffffffff1660e01b81526004016000604051808303818588803b158015613a4f57600080fd5b505af1158015613a63573d6000803e3d6000fd5b50505050505b613aaa85600081518110613a8057613a7f61452d565b5b602002602001015187600081518110613a9c57613a9b61452d565b5b60200260200101518a610a93565b5050509450945094915050565b600080600080600085875af1905080613b05576040517f08c379a0000000000000000000000000000000000000000000000000000000008152600401613afc90614fbc565b60405180910390fd5b505050565b600080613b18836000611ecd565b9050600073ffffffffffffffffffffffffffffffffffffffff168173ffffffffffffffffffffffffffffffffffffffff161415613b73577f000000000000000000000000000000000000000000000000000000000000000090505b6000613b808460146134f6565b90506000613b8f856017611ecd565b905060008173ffffffffffffffffffffffffffffffffffffffff168473ffffffffffffffffffffffffffffffffffffffff161090508015613c86576000613bd7858486611cf4565b73ffffffffffffffffffffffffffffffffffffffff1663128acb088a848b6401000276a48c6040518663ffffffff1660e01b8152600401613c1c959493929190614ffa565b6040805180830381600087803b158015613c3557600080fd5b505af1158015613c49573d6000803e3d6000fd5b505050506040513d601f19601f82011682018060405250810190613c6d9190615054565b91505080613c7a906149a2565b95505050505050613d4d565b6000613c93858486611cf4565b73ffffffffffffffffffffffffffffffffffffffff1663128acb088a848b73fffd8963efd1fc6a506488495d951d5263988d258c6040518663ffffffff1660e01b8152600401613ce7959493929190614ffa565b6040805180830381600087803b158015613d0057600080fd5b505af1158015613d14573d6000803e3d6000fd5b505050506040513d601f19601f82011682018060405250810190613d389190615054565b50905080613d45906149a2565b955050505050505b9392505050565b60008173ffffffffffffffffffffffffffffffffffffffff168373ffffffffffffffffffffffffffffffffffffffff161415613dc5576040517f08c379a0000000000000000000000000000000000000000000000000000000008152600401613dbc906150e0565b60405180910390fd5b8173ffffffffffffffffffffffffffffffffffffffff168373ffffffffffffffffffffffffffffffffffffffff1610613dff578183613e02565b82825b8093508194505050600073ffffffffffffffffffffffffffffffffffffffff168373ffffffffffffffffffffffffffffffffffffffff161415613e7a576040517f08c379a0000000000000000000000000000000000000000000000000000000008152600401613e719061514c565b60405180910390fd5b7f00000000000000000000000000000000000000000000000000000000000000008383604051602001613eae92919061516c565b60405160208183030381529060405280519060200120604051602001613ed59291906151e4565b6040516020818303038152906040528051906020012060001c905092915050565b6000604051905090565b600080fd5b600080fd5b600080fd5b600080fd5b600080fd5b60008083601f840112613f2f57613f2e613f0a565b5b8235905067ffffffffffffffff811115613f4c57613f4b613f0f565b5b602083019150836020820283011115613f6857613f67613f14565b5b9250929050565b600073ffffffffffffffffffffffffffffffffffffffff82169050919050565b6000613f9a82613f6f565b9050919050565b613faa81613f8f565b8114613fb557600080fd5b50565b600081359050613fc781613fa1565b92915050565b600080600060408486031215613fe657613fe5613f00565b5b600084013567ffffffffffffffff81111561400457614003613f05565b5b61401086828701613f19565b9350935050602061402386828701613fb8565b9150509250925092565b6000601f19601f8301169050919050565b7f4e487b7100000000000000000000000000000000000000000000000000000000600052604160045260246000fd5b6140768261402d565b810181811067ffffffffffffffff821117156140955761409461403e565b5b80604052505050565b60006140a8613ef6565b90506140b4828261406d565b919050565b600067ffffffffffffffff8211156140d4576140d361403e565b5b602082029050602081019050919050565b600080fd5b600067ffffffffffffffff8211156141055761410461403e565b5b61410e8261402d565b9050602081019050919050565b82818337600083830152505050565b600061413d614138846140ea565b61409e565b905082815260208101848484011115614159576141586140e5565b5b61416484828561411b565b509392505050565b600082601f83011261418157614180613f0a565b5b813561419184826020860161412a565b91505092915050565b60006141ad6141a8846140b9565b61409e565b905080838252602082019050602084028301858111156141d0576141cf613f14565b5b835b8181101561421757803567ffffffffffffffff8111156141f5576141f4613f0a565b5b808601614202898261416c565b855260208501945050506020810190506141d2565b5050509392505050565b600082601f83011261423657614235613f0a565b5b813561424684826020860161419a565b91505092915050565b6000819050919050565b6142628161424f565b811461426d57600080fd5b50565b60008135905061427f81614259565b92915050565b60008060006060848603121561429e5761429d613f00565b5b600084013567ffffffffffffffff8111156142bc576142bb613f05565b5b6142c886828701614221565b935050602084013567ffffffffffffffff8111156142e9576142e8613f05565b5b6142f586828701614221565b925050604061430686828701614270565b9150509250925092565b6000806040838503121561432757614326613f00565b5b600083013567ffffffffffffffff81111561434557614344613f05565b5b61435185828601614221565b925050602083013567ffffffffffffffff81111561437257614371613f05565b5b61437e85828601614221565b9150509250929050565b60006020828403121561439e5761439d613f00565b5b60006143ac84828501613fb8565b91505092915050565b600080604083850312156143cc576143cb613f00565b5b600083013567ffffffffffffffff8111156143ea576143e9613f05565b5b6143f68582860161416c565b925050602083013567ffffffffffffffff81111561441757614416613f05565b5b6144238582860161416c565b9150509250929050565b6000819050919050565b6144408161442d565b811461444b57600080fd5b50565b60008135905061445d81614437565b92915050565b60008083601f84011261447957614478613f0a565b5b8235905067ffffffffffffffff81111561449657614495613f0f565b5b6020830191508360018202830111156144b2576144b1613f14565b5b9250929050565b600080600080606085870312156144d3576144d2613f00565b5b60006144e18782880161444e565b94505060206144f28782880161444e565b935050604085013567ffffffffffffffff81111561451357614512613f05565b5b61451f87828801614463565b925092505092959194509250565b7f4e487b7100000000000000000000000000000000000000000000000000000000600052603260045260246000fd5b600061456782613f8f565b9050919050565b6145778161455c565b811461458257600080fd5b50565b6000813590506145948161456e565b92915050565b6000602082840312156145b0576145af613f00565b5b60006145be84828501614585565b91505092915050565b6145d081613f8f565b82525050565b60006020820190506145eb60008301846145c7565b92915050565b60008151905061460081614259565b92915050565b60006020828403121561461c5761461b613f00565b5b600061462a848285016145f1565b91505092915050565b7f4e487b7100000000000000000000000000000000000000000000000000000000600052601160045260246000fd5b600061466d8261424f565b91506146788361424f565b92508282101561468b5761468a614633565b5b828203905092915050565b60006146a18261424f565b91506146ac8361424f565b9250817fffffffffffffffffffffffffffffffffffffffffffffffffffffffffffffffff04831182151516156146e5576146e4614633565b5b828202905092915050565b7f4e487b7100000000000000000000000000000000000000000000000000000000600052601260045260246000fd5b600061472a8261424f565b91506147358361424f565b925082614745576147446146f0565b5b828204905092915050565b60007fff0000000000000000000000000000000000000000000000000000000000000082169050919050565b61478581614750565b82525050565b6147948161424f565b82525050565b600081519050919050565b600082825260208201905092915050565b60005b838110156147d45780820151818401526020810190506147b9565b838111156147e3576000848401525b50505050565b60006147f48261479a565b6147fe81856147a5565b935061480e8185602086016147b6565b6148178161402d565b840191505092915050565b6000606082019050614837600083018661477c565b614844602083018561478b565b818103604083015261485681846147e9565b9050949350505050565b6000819050919050565b6000819050919050565b600061488f61488a61488584614860565b61486a565b61424f565b9050919050565b61489f81614874565b82525050565b60006060820190506148ba600083018661477c565b6148c76020830185614896565b81810360408301526148d981846147e9565b9050949350505050565b600082825260208201905092915050565b7f5452414e534645525f4641494c45440000000000000000000000000000000000600082015250565b600061492a600f836148e3565b9150614935826148f4565b602082019050919050565b600060208201905081810360008301526149598161491d565b9050919050565b60008151905061496f81614437565b92915050565b60006020828403121561498b5761498a613f00565b5b600061499984828501614960565b91505092915050565b60006149ad8261442d565b91507f80000000000000000000000000000000000000000000000000000000000000008214156149e0576149df614633565b5b816000039050919050565b6000602082019050614a00600083018461478b565b92915050565b6000614a118261424f565b9150614a1c8361424f565b9250827fffffffffffffffffffffffffffffffffffffffffffffffffffffffffffffffff03821115614a5157614a50614633565b5b828201905092915050565b600081905092915050565b6000614a728261479a565b614a7c8185614a5c565b9350614a8c8185602086016147b6565b80840191505092915050565b6000614aa48284614a67565b915081905092915050565b6000819050919050565b614ac281614aaf565b82525050565b6000606082019050614add6000830186614ab9565b614aea602083018561478b565b614af7604083018461478b565b949350505050565b600062ffffff82169050919050565b614b1781614aff565b82525050565b6000606082019050614b3260008301866145c7565b614b3f60208301856145c7565b614b4c6040830184614b0e565b949350505050565b600081905092915050565b7fff00000000000000000000000000000000000000000000000000000000000000600082015250565b6000614b95600183614b54565b9150614ba082614b5f565b600182019050919050565b60008160601b9050919050565b6000614bc382614bab565b9050919050565b6000614bd582614bb8565b9050919050565b614bed614be882613f8f565b614bca565b82525050565b6000819050919050565b614c0e614c0982614aaf565b614bf3565b82525050565b6000614c1f82614b88565b9150614c2b8286614bdc565b601482019150614c3b8285614bfd565b602082019150614c4b8284614bfd565b602082019150819050949350505050565b7f5452414e534645525f46524f4d5f4641494c4544000000000000000000000000600082015250565b6000614c926014836148e3565b9150614c9d82614c5c565b602082019050919050565b60006020820190508181036000830152614cc181614c85565b9050919050565b50565b6000614cd86000836147a5565b9150614ce382614cc8565b600082019050919050565b6000608082019050614d03600083018661478b565b614d10602083018561478b565b614d1d60408301846145c7565b8181036060830152614d2e81614ccb565b9050949350505050565b600060ff82169050919050565b614d4e81614d38565b82525050565b6000606082019050614d696000830186614d45565b614d766020830185614d45565b614d83604083018461478b565b949350505050565b6000614da6614da1614d9c84614860565b61486a565b614d38565b9050919050565b614db681614d8b565b82525050565b6000602082019050614dd16000830184614dad565b92915050565b60008115159050919050565b614dec81614dd7565b82525050565b6000602082019050614e076000830184614de3565b92915050565b60006020820190508181036000830152614e2781846147e9565b905092915050565b7f415050524f56455f4641494c4544000000000000000000000000000000000000600082015250565b6000614e65600e836148e3565b9150614e7082614e2f565b602082019050919050565b60006020820190508181036000830152614e9481614e58565b9050919050565b60006dffffffffffffffffffffffffffff82169050919050565b614ebe81614e9b565b8114614ec957600080fd5b50565b600081519050614edb81614eb5565b92915050565b600063ffffffff82169050919050565b614efa81614ee1565b8114614f0557600080fd5b50565b600081519050614f1781614ef1565b92915050565b600080600060608486031215614f3657614f35613f00565b5b6000614f4486828701614ecc565b9350506020614f5586828701614ecc565b9250506040614f6686828701614f08565b9150509250925092565b7f4554485f5452414e534645525f4641494c454400000000000000000000000000600082015250565b6000614fa66013836148e3565b9150614fb182614f70565b602082019050919050565b60006020820190508181036000830152614fd581614f99565b9050919050565b614fe58161442d565b82525050565b614ff481613f6f565b82525050565b600060a08201905061500f60008301886145c7565b61501c6020830187614de3565b6150296040830186614fdc565b6150366060830185614feb565b818103608083015261504881846147e9565b90509695505050505050565b6000806040838503121561506b5761506a613f00565b5b600061507985828601614960565b925050602061508a85828601614960565b9150509250929050565b7f56323a4455505f41444452455353000000000000000000000000000000000000600082015250565b60006150ca600e836148e3565b91506150d582615094565b602082019050919050565b600060208201905081810360008301526150f9816150bd565b9050919050565b7f56323a5a45524f5f414444524553530000000000000000000000000000000000600082015250565b6000615136600f836148e3565b915061514182615100565b602082019050919050565b6000602082019050818103600083015261516581615129565b9050919050565b60006151788285614bdc565b6014820191506151888284614bdc565b6014820191508190509392505050565b7f96e8ac4277198ff8b6f785478aa9a39f403cb768dd02cbee326c3e7da348845f600082015250565b60006151ce602083614b54565b91506151d982615198565b602082019050919050565b60006151ef82614b88565b91506151fb8285614bdc565b60148201915061520b8284614bfd565b60208201915061521a826151c1565b9150819050939250505056fea2646970667358221220414005412741857d13fada47fb004df32890a9159b260e2131ccb752e16e068d64736f6c63430008090033",
  "linkReferences": {},
  "deployedLinkReferences": {}
}