{
  "address": "0xDb2Abb67DEe0479888d54F649eb6419dD2AE0702",
  "abi": [
    {
      "inputs": [],
      "name": "EthTransferFailed",
      "type": "error"
    },
    {
      "inputs": [
        {
          "internalType": "uint256",
          "name": "available",
          "type": "uint256"
        }
      ],
      "name": "InsufficientOwnerBalance",
      "type": "error"
    },
    {
      "anonymous": false,
      "inputs": [
        {
          "indexed": true,
          "internalType": "address",
          "name": "partner",
          "type": "address"
        },
        {
          "indexed": true,
          "internalType": "address",
          "name": "token",
          "type": "address"
        },
        {
          "indexed": false,
          "internalType": "uint256",
          "name": "amount",
          "type": "uint256"
        }
      ],
      "name": "Withdraw",
      "type": "event"
    },
    {
      "inputs": [
        {
          "internalType": "address",
          "name": "token",
          "type": "address"
        },
        {
          "internalType": "uint256",
          "name": "amount",
          "type": "uint256"
        },
        {
          "internalType": "address payable",
          "name": "to",
          "type": "address"
        }
      ],
      "name": "ownerWithdraw",
      "outputs": [],
      "stateMutability": "nonpayable",
      "type": "function"
    },
    {
      "inputs": [
        {
          "internalType": "address",
          "name": "partner",
          "type": "address"
        },
        {
          "internalType": "address",
          "name": "token",
          "type": "address"
        }
      ],
      "name": "partnerTokenBalance",
      "outputs": [
        {
          "internalType": "uint256",
          "name": "",
          "type": "uint256"
        }
      ],
      "stateMutability": "view",
      "type": "function"
    },
    {
      "inputs": [
        {
          "internalType": "address",
          "name": "token",
          "type": "address"
        }
      ],
      "name": "partnerWithdraw",
      "outputs": [],
      "stateMutability": "nonpayable",
      "type": "function"
    }
  ],
  "transactionHash": "0xa2a5328ded8ea9e425168e1bc8c2eb56a5f6dc740cf7b4c43797f6804fda1ec0",
  "args": [],
  "numDeployments": 1,
  "solcInputHash": "b02a0ce4f8d2d52325669cdc01d21082",
  "bytecode": "0x608060405234801561001057600080fd5b50610b8b806100206000396000f3fe608060405234801561001057600080fd5b50600436106100415760003560e01c8063044edc3c1461004657806378f91e371461005b578063b85eaaef14610080575b600080fd5b6100596100543660046109b0565b610093565b005b61006e6100693660046109f2565b610324565b60405190815260200160405180910390f35b61005961008e366004610a2b565b61037d565b61009b610539565b73ffffffffffffffffffffffffffffffffffffffff831660008181527f77fbd1c38a5ead50a5764a860fef6b91e5432a95f91228e67197edaf911cfc9160205260408120547f77fbd1c38a5ead50a5764a860fef6b91e5432a95f91228e67197edaf911cfc90929091901561019d576040517f70a0823100000000000000000000000000000000000000000000000000000000815230600482015273ffffffffffffffffffffffffffffffffffffffff8716906370a0823190602401602060405180830381865afa158015610174573d6000803e3d6000fd5b505050506040513d601f19601f820116820180604052508101906101989190610a4f565b61019f565b475b905060006101ad8383610a68565b9050808611156101f1576040517f366cb4bc000000000000000000000000000000000000000000000000000000008152600481018290526024015b60405180910390fd5b60405186815273ffffffffffffffffffffffffffffffffffffffff8816906000907f9b1bfa7fa9ee420a16e124f794c35ac9f90472acc99140eb2f6447c714cad8eb9060200160405180910390a373ffffffffffffffffffffffffffffffffffffffff87166102fa5760008573ffffffffffffffffffffffffffffffffffffffff168760405160006040518083038185875af1925050503d80600081146102b4576040519150601f19603f3d011682016040523d82523d6000602084013e6102b9565b606091505b50509050806102f4576040517f6d963f8800000000000000000000000000000000000000000000000000000000815260040160405180910390fd5b5061031b565b61031b73ffffffffffffffffffffffffffffffffffffffff88168688610604565b50505050505050565b73ffffffffffffffffffffffffffffffffffffffff82811660009081527f77fbd1c38a5ead50a5764a860fef6b91e5432a95f91228e67197edaf911cfc9060209081526040808320938516835292905220545b92915050565b3360009081527f77fbd1c38a5ead50a5764a860fef6b91e5432a95f91228e67197edaf911cfc906020818152604080842073ffffffffffffffffffffffffffffffffffffffff86168552909152909120548015610534573360009081526020838152604080832073ffffffffffffffffffffffffffffffffffffffff871684528252808320839055600185019091528120805483929061041e908490610a68565b909155505060405181815273ffffffffffffffffffffffffffffffffffffffff84169033907f9b1bfa7fa9ee420a16e124f794c35ac9f90472acc99140eb2f6447c714cad8eb9060200160405180910390a373ffffffffffffffffffffffffffffffffffffffff831661051357604051600090339083908381818185875af1925050503d80600081146104cd576040519150601f19603f3d011682016040523d82523d6000602084013e6104d2565b606091505b505090508061050d576040517f6d963f8800000000000000000000000000000000000000000000000000000000815260040160405180910390fd5b50505050565b61053473ffffffffffffffffffffffffffffffffffffffff84163383610604565b505050565b7fc8fcad8db84d3cc18b4c41d551ea0ee66dd599cde068d998e57d5e09332c131c6003015473ffffffffffffffffffffffffffffffffffffffff163314610602576040517f08c379a000000000000000000000000000000000000000000000000000000000815260206004820152602260248201527f4c69624469616d6f6e643a204d75737420626520636f6e7472616374206f776e60448201527f657200000000000000000000000000000000000000000000000000000000000060648201526084016101e8565b565b6040805173ffffffffffffffffffffffffffffffffffffffff848116602483015260448083018590528351808403909101815260649092018352602080830180517bffffffffffffffffffffffffffffffffffffffffffffffffffffffff167fa9059cbb0000000000000000000000000000000000000000000000000000000017905283518085019094528084527f5361666545524332303a206c6f772d6c6576656c2063616c6c206661696c656490840152610534928692916000916106cf91851690849061077c565b90508051600014806106f05750808060200190518101906106f09190610aa2565b610534576040517f08c379a000000000000000000000000000000000000000000000000000000000815260206004820152602a60248201527f5361666545524332303a204552433230206f7065726174696f6e20646964206e60448201527f6f7420737563636565640000000000000000000000000000000000000000000060648201526084016101e8565b606061078b8484600085610793565b949350505050565b606082471015610825576040517f08c379a000000000000000000000000000000000000000000000000000000000815260206004820152602660248201527f416464726573733a20696e73756666696369656e742062616c616e636520666f60448201527f722063616c6c000000000000000000000000000000000000000000000000000060648201526084016101e8565b6000808673ffffffffffffffffffffffffffffffffffffffff16858760405161084e9190610ae8565b60006040518083038185875af1925050503d806000811461088b576040519150601f19603f3d011682016040523d82523d6000602084013e610890565b606091505b50915091506108a1878383876108ac565b979650505050505050565b6060831561094257825160000361093b5773ffffffffffffffffffffffffffffffffffffffff85163b61093b576040517f08c379a000000000000000000000000000000000000000000000000000000000815260206004820152601d60248201527f416464726573733a2063616c6c20746f206e6f6e2d636f6e747261637400000060448201526064016101e8565b508161078b565b61078b83838151156109575781518083602001fd5b806040517f08c379a00000000000000000000000000000000000000000000000000000000081526004016101e89190610b04565b73ffffffffffffffffffffffffffffffffffffffff811681146109ad57600080fd5b50565b6000806000606084860312156109c557600080fd5b83356109d08161098b565b92506020840135915060408401356109e78161098b565b809150509250925092565b60008060408385031215610a0557600080fd5b8235610a108161098b565b91506020830135610a208161098b565b809150509250929050565b600060208284031215610a3d57600080fd5b8135610a488161098b565b9392505050565b600060208284031215610a6157600080fd5b5051919050565b81810381811115610377577f4e487b7100000000000000000000000000000000000000000000000000000000600052601160045260246000fd5b600060208284031215610ab457600080fd5b81518015158114610a4857600080fd5b60005b83811015610adf578181015183820152602001610ac7565b50506000910152565b60008251610afa818460208701610ac4565b9190910192915050565b6020815260008251806020840152610b23816040850160208701610ac4565b601f017fffffffffffffffffffffffffffffffffffffffffffffffffffffffffffffffe016919091016040019291505056fea2646970667358221220ead75095d3bbe2ebdcba0053dc3c0e5df5bd8311a059c54e3500ba9823841ff364736f6c63430008130033",
  "devdoc": {
    "kind": "dev",
    "methods": {},
    "version": 1
  },
  "userdoc": {
    "kind": "user",
    "methods": {},
    "notice": "The StarVault estimates, collects, and tracks fees for partners",
    "version": 1
  },
  "storageLayout": {
    "storage": [],
    "types": null
  }
}