{
  "address": "0xBc3DF9Aa6223128F517fDb3C93d51B1a28F0f96A",
  "abi": [
    {
      "inputs": [
        {
          "internalType": "uint256",
          "name": "_addressesLength",
          "type": "uint256"
        },
        {
          "internalType": "uint256",
          "name": "_calldataLength",
          "type": "uint256"
        }
      ],
      "name": "AddressAndCalldataLengthDoNotMatch",
      "type": "error"
    },
    {
      "inputs": [
        {
          "internalType": "address",
          "name": "_initializationContractAddress",
          "type": "address"
        },
        {
          "internalType": "bytes",
          "name": "_calldata",
          "type": "bytes"
        }
      ],
      "name": "InitializationFunctionReverted",
      "type": "error"
    },
    {
      "inputs": [
        {
          "internalType": "address[]",
          "name": "_addresses",
          "type": "address[]"
        },
        {
          "internalType": "bytes[]",
          "name": "_calldata",
          "type": "bytes[]"
        }
      ],
      "name": "multiInit",
      "outputs": [],
      "stateMutability": "nonpayable",
      "type": "function"
    }
  ],
  "transactionHash": "0x2dc24a2d6fef359a8fd538b13bcb299592d86698b32a795a4cc3e0c581211809",
  "args": [],
  "numDeployments": 2,
  "solcInputHash": "b3e79b299ff67309e24953e67dc08b9d",
  "bytecode": "0x608060405234801561000f575f80fd5b506105698061001d5f395ff3fe608060405234801561000f575f80fd5b5060043610610029575f3560e01c80636e02fa3c1461002d575b5f80fd5b61004061003b3660046102b2565b610042565b005b82811461008a576040517f7340e16600000000000000000000000000000000000000000000000000000000815260048101849052602481018290526044015b60405180910390fd5b5f5b8381101561012d5761011b8585838181106100a9576100a9610319565b90506020020160208101906100be9190610346565b8484848181106100d0576100d0610319565b90506020028101906100e29190610380565b8080601f0160208091040260200160405190810160405280939291908181526020018383808284375f9201919091525061013492505050565b80610125816103e1565b91505061008c565b5050505050565b73ffffffffffffffffffffffffffffffffffffffff8216610153575050565b6101758260405180606001604052806028815260200161050c6028913961022f565b5f808373ffffffffffffffffffffffffffffffffffffffff168360405161019c919061045f565b5f60405180830381855af49150503d805f81146101d4576040519150601f19603f3d011682016040523d82523d5f602084013e6101d9565b606091505b509150915081610229578051156101f35780518082602001fd5b83836040517f192105d70000000000000000000000000000000000000000000000000000000081526004016100819291906104c3565b50505050565b813b8181610229576040517f08c379a000000000000000000000000000000000000000000000000000000000815260040161008191906104f9565b5f8083601f84011261027a575f80fd5b50813567ffffffffffffffff811115610291575f80fd5b6020830191508360208260051b85010111156102ab575f80fd5b9250929050565b5f805f80604085870312156102c5575f80fd5b843567ffffffffffffffff808211156102dc575f80fd5b6102e88883890161026a565b90965094506020870135915080821115610300575f80fd5b5061030d8782880161026a565b95989497509550505050565b7f4e487b71000000000000000000000000000000000000000000000000000000005f52603260045260245ffd5b5f60208284031215610356575f80fd5b813573ffffffffffffffffffffffffffffffffffffffff81168114610379575f80fd5b9392505050565b5f8083357fffffffffffffffffffffffffffffffffffffffffffffffffffffffffffffffe18436030181126103b3575f80fd5b83018035915067ffffffffffffffff8211156103cd575f80fd5b6020019150368190038213156102ab575f80fd5b5f7fffffffffffffffffffffffffffffffffffffffffffffffffffffffffffffffff8203610436577f4e487b71000000000000000000000000000000000000000000000000000000005f52601160045260245ffd5b5060010190565b5f5b8381101561045757818101518382015260200161043f565b50505f910152565b5f825161047081846020870161043d565b9190910192915050565b5f815180845261049181602086016020860161043d565b601f017fffffffffffffffffffffffffffffffffffffffffffffffffffffffffffffffe0169290920160200192915050565b73ffffffffffffffffffffffffffffffffffffffff83168152604060208201525f6104f1604083018461047a565b949350505050565b602081525f610379602083018461047a56fe4c69624469616d6f6e644375743a205f696e6974206164647265737320686173206e6f20636f6465a2646970667358221220324e029d24bbe7c4e5a8f674242723cf36a97c6ba780a1ff99d7c96332ec897264736f6c63430008150033",
  "devdoc": {
    "kind": "dev",
    "methods": {},
    "version": 1
  },
  "userdoc": {
    "kind": "user",
    "methods": {},
    "version": 1
  },
  "storageLayout": {
    "storage": [],
    "types": null
  }
}