{
  "address": "0x12Ad749fbdCF48bBc2D4aDcD00f95BA99bd13b63",
  "abi": [
    {
      "inputs": [
        {
          "internalType": "bytes4",
          "name": "_functionSelector",
          "type": "bytes4"
        }
      ],
      "name": "facetAddress",
      "outputs": [
        {
          "internalType": "address",
          "name": "facetAddress_",
          "type": "address"
        }
      ],
      "stateMutability": "view",
      "type": "function"
    },
    {
      "inputs": [],
      "name": "facetAddresses",
      "outputs": [
        {
          "internalType": "address[]",
          "name": "facetAddresses_",
          "type": "address[]"
        }
      ],
      "stateMutability": "view",
      "type": "function"
    },
    {
      "inputs": [
        {
          "internalType": "address",
          "name": "_facet",
          "type": "address"
        }
      ],
      "name": "facetFunctionSelectors",
      "outputs": [
        {
          "internalType": "bytes4[]",
          "name": "facetFunctionSelectors_",
          "type": "bytes4[]"
        }
      ],
      "stateMutability": "view",
      "type": "function"
    },
    {
      "inputs": [],
      "name": "facets",
      "outputs": [
        {
          "components": [
            {
              "internalType": "address",
              "name": "facetAddress",
              "type": "address"
            },
            {
              "internalType": "bytes4[]",
              "name": "functionSelectors",
              "type": "bytes4[]"
            }
          ],
          "internalType": "struct IDiamondLoupe.Facet[]",
          "name": "facets_",
          "type": "tuple[]"
        }
      ],
      "stateMutability": "view",
      "type": "function"
    }
  ],
  "transactionHash": "0xdc9e747d7b695e54e67ea606e25300b95155b40e6a2752555f36b43f7101af9c",
  "args": [],
  "numDeployments": 3,
  "solcInputHash": "b3e79b299ff67309e24953e67dc08b9d",
  "bytecode": "0x608060405234801561000f575f80fd5b5061079a8061001d5f395ff3fe608060405234801561000f575f80fd5b506004361061004a575f3560e01c806352ef6b2c1461004e5780637a0ed6271461006c578063adfca15e14610081578063cdffacc6146100a1575b5f80fd5b61005661013c565b60405161006391906104c9565b60405180910390f35b6100746101cb565b604051610063919061057d565b61009461008f366004610623565b6103cd565b604051610063919061065d565b6101176100af36600461066f565b7fffffffff00000000000000000000000000000000000000000000000000000000165f9081527fc8fcad8db84d3cc18b4c41d551ea0ee66dd599cde068d998e57d5e09332c131c602052604090205473ffffffffffffffffffffffffffffffffffffffff1690565b60405173ffffffffffffffffffffffffffffffffffffffff9091168152602001610063565b60605f7fc8fcad8db84d3cc18b4c41d551ea0ee66dd599cde068d998e57d5e09332c131c600281018054604080516020808402820181019092528281529394508301828280156101c057602002820191905f5260205f20905b815473ffffffffffffffffffffffffffffffffffffffff168152600190910190602001808311610195575b505050505091505090565b7fc8fcad8db84d3cc18b4c41d551ea0ee66dd599cde068d998e57d5e09332c131e546060907fc8fcad8db84d3cc18b4c41d551ea0ee66dd599cde068d998e57d5e09332c131c908067ffffffffffffffff81111561022b5761022b6106ae565b60405190808252806020026020018201604052801561027057816020015b604080518082019091525f8152606060208201528152602001906001900390816102495790505b5092505f5b818110156103c7575f836002018281548110610293576102936106db565b905f5260205f20015f9054906101000a900473ffffffffffffffffffffffffffffffffffffffff169050808583815181106102d0576102d06106db565b60209081029190910181015173ffffffffffffffffffffffffffffffffffffffff92831690529082165f9081526001860182526040908190208054825181850281018501909352808352919290919083018282801561038d57602002820191905f5260205f20905f905b82829054906101000a900460e01b7bffffffffffffffffffffffffffffffffffffffffffffffffffffffff19168152602001906004019060208260030104928301926001038202915080841161033a5790505b50505050508583815181106103a4576103a46106db565b6020026020010151602001819052505080806103bf90610708565b915050610275565b50505090565b73ffffffffffffffffffffffffffffffffffffffff81165f9081527fc8fcad8db84d3cc18b4c41d551ea0ee66dd599cde068d998e57d5e09332c131d602090815260409182902080548351818402810184019094528084526060937fc8fcad8db84d3cc18b4c41d551ea0ee66dd599cde068d998e57d5e09332c131c93909291908301828280156104bc57602002820191905f5260205f20905f905b82829054906101000a900460e01b7bffffffffffffffffffffffffffffffffffffffffffffffffffffffff1916815260200190600401906020826003010492830192600103820291508084116104695790505b5050505050915050919050565b602080825282518282018190525f9190848201906040850190845b8181101561051657835173ffffffffffffffffffffffffffffffffffffffff16835292840192918401916001016104e4565b50909695505050505050565b5f8151808452602080850194508084015f5b838110156105725781517fffffffff000000000000000000000000000000000000000000000000000000001687529582019590820190600101610534565b509495945050505050565b5f6020808301818452808551808352604092508286019150828160051b8701018488015f5b83811015610615578883037fffffffffffffffffffffffffffffffffffffffffffffffffffffffffffffffc00185528151805173ffffffffffffffffffffffffffffffffffffffff16845287015187840187905261060287850182610522565b95880195935050908601906001016105a2565b509098975050505050505050565b5f60208284031215610633575f80fd5b813573ffffffffffffffffffffffffffffffffffffffff81168114610656575f80fd5b9392505050565b602081525f6106566020830184610522565b5f6020828403121561067f575f80fd5b81357fffffffff0000000000000000000000000000000000000000000000000000000081168114610656575f80fd5b7f4e487b71000000000000000000000000000000000000000000000000000000005f52604160045260245ffd5b7f4e487b71000000000000000000000000000000000000000000000000000000005f52603260045260245ffd5b5f7fffffffffffffffffffffffffffffffffffffffffffffffffffffffffffffffff820361075d577f4e487b71000000000000000000000000000000000000000000000000000000005f52601160045260245ffd5b506001019056fea2646970667358221220c8f5f3ce302eeef57384fda6bc330c0a31837b776598c41a169d4e7a163e09dc64736f6c63430008150033",
  "devdoc": {
    "kind": "dev",
    "methods": {
      "facetAddress(bytes4)": {
        "details": "If facet is not found return address(0).",
        "params": {
          "_functionSelector": "The function selector."
        },
        "returns": {
          "facetAddress_": "The facet address."
        }
      },
      "facetAddresses()": {
        "returns": {
          "facetAddresses_": "facetAddresses_"
        }
      },
      "facetFunctionSelectors(address)": {
        "params": {
          "_facet": "The facet address."
        },
        "returns": {
          "facetFunctionSelectors_": "facetFunctionSelectors_"
        }
      },
      "facets()": {
        "returns": {
          "facets_": "Facet"
        }
      }
    },
    "version": 1
  },
  "userdoc": {
    "kind": "user",
    "methods": {
      "facetAddress(bytes4)": {
        "notice": "Gets the facet that supports the given selector."
      },
      "facetAddresses()": {
        "notice": "Get all the facet addresses used by a diamond."
      },
      "facetFunctionSelectors(address)": {
        "notice": "Gets all the function selectors provided by a facet."
      },
      "facets()": {
        "notice": "Gets all facets and their selectors."
      }
    },
    "version": 1
  },
  "storageLayout": {
    "storage": [],
    "types": null
  }
}