{
  "address": "0xd153380b0d297eB44984d9D6cB9A4b9Eae03FCc0",
  "abi": [
    {
      "inputs": [
        {
          "internalType": "address",
          "name": "_initializationContractAddress",
          "type": "address"
        },
        {
          "internalType": "bytes",
          "name": "_calldata",
          "type": "bytes"
        }
      ],
      "name": "InitializationFunctionReverted",
      "type": "error"
    },
    {
      "anonymous": false,
      "inputs": [
        {
          "components": [
            {
              "internalType": "address",
              "name": "facetAddress",
              "type": "address"
            },
            {
              "internalType": "enum IDiamondCut.FacetCutAction",
              "name": "action",
              "type": "uint8"
            },
            {
              "internalType": "bytes4[]",
              "name": "functionSelectors",
              "type": "bytes4[]"
            }
          ],
          "indexed": false,
          "internalType": "struct IDiamondCut.FacetCut[]",
          "name": "_diamondCut",
          "type": "tuple[]"
        },
        {
          "indexed": false,
          "internalType": "address",
          "name": "_init",
          "type": "address"
        },
        {
          "indexed": false,
          "internalType": "bytes",
          "name": "_calldata",
          "type": "bytes"
        }
      ],
      "name": "DiamondCut",
      "type": "event"
    },
    {
      "anonymous": false,
      "inputs": [
        {
          "components": [
            {
              "internalType": "address",
              "name": "facetAddress",
              "type": "address"
            },
            {
              "internalType": "enum IDiamondCut.FacetCutAction",
              "name": "action",
              "type": "uint8"
            },
            {
              "internalType": "bytes4[]",
              "name": "functionSelectors",
              "type": "bytes4[]"
            }
          ],
          "indexed": false,
          "internalType": "struct IDiamondCut.FacetCut[]",
          "name": "_diamondCut",
          "type": "tuple[]"
        },
        {
          "indexed": false,
          "internalType": "address",
          "name": "_init",
          "type": "address"
        },
        {
          "indexed": false,
          "internalType": "bytes",
          "name": "_calldata",
          "type": "bytes"
        }
      ],
      "name": "DiamondCut",
      "type": "event"
    },
    {
      "inputs": [
        {
          "components": [
            {
              "internalType": "address",
              "name": "facetAddress",
              "type": "address"
            },
            {
              "internalType": "enum IDiamondCut.FacetCutAction",
              "name": "action",
              "type": "uint8"
            },
            {
              "internalType": "bytes4[]",
              "name": "functionSelectors",
              "type": "bytes4[]"
            }
          ],
          "internalType": "struct IDiamondCut.FacetCut[]",
          "name": "_diamondCut",
          "type": "tuple[]"
        },
        {
          "internalType": "address",
          "name": "_init",
          "type": "address"
        },
        {
          "internalType": "bytes",
          "name": "_calldata",
          "type": "bytes"
        }
      ],
      "name": "diamondCut",
      "outputs": [],
      "stateMutability": "nonpayable",
      "type": "function"
    }
  ],
  "transactionHash": "0xe642d558ea906d8f27774d228b75c244a50e52e35e78d29c0090b0cceb17f85e",
  "args": [],
  "numDeployments": 2,
  "solcInputHash": "acce8552035106bcb544f74bffe90834",
  "bytecode": "0x608060405234801561000f575f80fd5b50611b368061001d5f395ff3fe608060405234801561000f575f80fd5b5060043610610029575f3560e01c80631f931c1c1461002d575b5f80fd5b61004061003b36600461148a565b610042565b005b61004a61009a565b61009361005785876115fb565b8484848080601f0160208091040260200160405190810160405280939291908181526020018383808284375f9201919091525061016a92505050565b5050505050565b7fc8fcad8db84d3cc18b4c41d551ea0ee66dd599cde068d998e57d5e09332c131c6003015473ffffffffffffffffffffffffffffffffffffffff163314610168576040517f08c379a000000000000000000000000000000000000000000000000000000000815260206004820152602260248201527f4c69624469616d6f6e643a204d75737420626520636f6e7472616374206f776e60448201527f657200000000000000000000000000000000000000000000000000000000000060648201526084015b60405180910390fd5b565b5f5b835181101561035a575f8482815181106101885761018861174e565b60200260200101516020015190505f60028111156101a8576101a861177b565b8160028111156101ba576101ba61177b565b03610207576102028583815181106101d4576101d461174e565b60200260200101515f01518684815181106101f1576101f161174e565b6020026020010151604001516103a5565b610347565b600181600281111561021b5761021b61177b565b03610263576102028583815181106102355761023561174e565b60200260200101515f01518684815181106102525761025261174e565b60200260200101516040015161074e565b60028160028111156102775761027761177b565b036102bf576102028583815181106102915761029161174e565b60200260200101515f01518684815181106102ae576102ae61174e565b602002602001015160400151610b07565b6040517f08c379a000000000000000000000000000000000000000000000000000000000815260206004820152602760248201527f4c69624469616d6f6e644375743a20496e636f7272656374204661636574437560448201527f74416374696f6e00000000000000000000000000000000000000000000000000606482015260840161015f565b5080610352816117d5565b91505061016c565b507f8faa70878671ccd212d20771b795c50af8fd3ff6cf27f4bde57e5d4de0aeb67383838360405161038e93929190611877565b60405180910390a16103a08282610cf6565b505050565b5f815111610435576040517f08c379a000000000000000000000000000000000000000000000000000000000815260206004820152602b60248201527f4c69624469616d6f6e644375743a204e6f2073656c6563746f727320696e206660448201527f6163657420746f20637574000000000000000000000000000000000000000000606482015260840161015f565b7fc8fcad8db84d3cc18b4c41d551ea0ee66dd599cde068d998e57d5e09332c131c73ffffffffffffffffffffffffffffffffffffffff83166104f9576040517f08c379a000000000000000000000000000000000000000000000000000000000815260206004820152602c60248201527f4c69624469616d6f6e644375743a204164642066616365742063616e2774206260448201527f6520616464726573732830290000000000000000000000000000000000000000606482015260840161015f565b73ffffffffffffffffffffffffffffffffffffffff83165f908152600182016020526040812054906bffffffffffffffffffffffff82169003610540576105408285610deb565b5f5b8351811015610093575f84828151811061055e5761055e61174e565b6020908102919091018101517fffffffff0000000000000000000000000000000000000000000000000000000081165f9081529186905260409091205490915073ffffffffffffffffffffffffffffffffffffffff168015610642576040517f08c379a000000000000000000000000000000000000000000000000000000000815260206004820152603560248201527f4c69624469616d6f6e644375743a2043616e2774206164642066756e6374696f60448201527f6e207468617420616c7265616479206578697374730000000000000000000000606482015260840161015f565b7fffffffff0000000000000000000000000000000000000000000000000000000082165f81815260208781526040808320805473ffffffffffffffffffffffffffffffffffffffff908116740100000000000000000000000000000000000000006bffffffffffffffffffffffff8c16021782558c168085526001808c0185529285208054938401815585528385206008840401805463ffffffff60079095166004026101000a948502191660e08a901c94909402939093179092559390925287905281547fffffffffffffffffffffffff00000000000000000000000000000000000000001617905583610736816119da565b94505050508080610746906117d5565b915050610542565b5f8151116107de576040517f08c379a000000000000000000000000000000000000000000000000000000000815260206004820152602b60248201527f4c69624469616d6f6e644375743a204e6f2073656c6563746f727320696e206660448201527f6163657420746f20637574000000000000000000000000000000000000000000606482015260840161015f565b7fc8fcad8db84d3cc18b4c41d551ea0ee66dd599cde068d998e57d5e09332c131c73ffffffffffffffffffffffffffffffffffffffff83166108a2576040517f08c379a000000000000000000000000000000000000000000000000000000000815260206004820152602c60248201527f4c69624469616d6f6e644375743a204164642066616365742063616e2774206260448201527f6520616464726573732830290000000000000000000000000000000000000000606482015260840161015f565b73ffffffffffffffffffffffffffffffffffffffff83165f908152600182016020526040812054906bffffffffffffffffffffffff821690036108e9576108e98285610deb565b5f5b8351811015610093575f8482815181106109075761090761174e565b6020908102919091018101517fffffffff0000000000000000000000000000000000000000000000000000000081165f9081529186905260409091205490915073ffffffffffffffffffffffffffffffffffffffff90811690871681036109f0576040517f08c379a000000000000000000000000000000000000000000000000000000000815260206004820152603860248201527f4c69624469616d6f6e644375743a2043616e2774207265706c6163652066756e60448201527f6374696f6e20776974682073616d652066756e6374696f6e0000000000000000606482015260840161015f565b6109fb858284610e79565b7fffffffff0000000000000000000000000000000000000000000000000000000082165f81815260208781526040808320805473ffffffffffffffffffffffffffffffffffffffff908116740100000000000000000000000000000000000000006bffffffffffffffffffffffff8c16021782558c168085526001808c0185529285208054938401815585528385206008840401805463ffffffff60079095166004026101000a948502191660e08a901c94909402939093179092559390925287905281547fffffffffffffffffffffffff00000000000000000000000000000000000000001617905583610aef816119da565b94505050508080610aff906117d5565b9150506108eb565b5f815111610b97576040517f08c379a000000000000000000000000000000000000000000000000000000000815260206004820152602b60248201527f4c69624469616d6f6e644375743a204e6f2073656c6563746f727320696e206660448201527f6163657420746f20637574000000000000000000000000000000000000000000606482015260840161015f565b7fc8fcad8db84d3cc18b4c41d551ea0ee66dd599cde068d998e57d5e09332c131c73ffffffffffffffffffffffffffffffffffffffff831615610c5c576040517f08c379a000000000000000000000000000000000000000000000000000000000815260206004820152603660248201527f4c69624469616d6f6e644375743a2052656d6f7665206661636574206164647260448201527f657373206d757374206265206164647265737328302900000000000000000000606482015260840161015f565b5f5b8251811015610cf0575f838281518110610c7a57610c7a61174e565b6020908102919091018101517fffffffff0000000000000000000000000000000000000000000000000000000081165f9081529185905260409091205490915073ffffffffffffffffffffffffffffffffffffffff16610cdb848284610e79565b50508080610ce8906117d5565b915050610c5e565b50505050565b73ffffffffffffffffffffffffffffffffffffffff8216610d15575050565b610d3782604051806060016040528060288152602001611ab5602891396113e2565b5f808373ffffffffffffffffffffffffffffffffffffffff1683604051610d5e9190611a04565b5f60405180830381855af49150503d805f8114610d96576040519150601f19603f3d011682016040523d82523d5f602084013e610d9b565b606091505b509150915081610cf057805115610db55780518082602001fd5b83836040517f192105d700000000000000000000000000000000000000000000000000000000815260040161015f929190611a1f565b610e0d81604051806060016040528060248152602001611add602491396113e2565b60028201805473ffffffffffffffffffffffffffffffffffffffff9092165f8181526001948501602090815260408220860185905594840183559182529290200180547fffffffffffffffffffffffff0000000000000000000000000000000000000000169091179055565b73ffffffffffffffffffffffffffffffffffffffff8216610f1c576040517f08c379a000000000000000000000000000000000000000000000000000000000815260206004820152603760248201527f4c69624469616d6f6e644375743a2043616e27742072656d6f76652066756e6360448201527f74696f6e207468617420646f65736e2774206578697374000000000000000000606482015260840161015f565b3073ffffffffffffffffffffffffffffffffffffffff831603610fc1576040517f08c379a000000000000000000000000000000000000000000000000000000000815260206004820152602e60248201527f4c69624469616d6f6e644375743a2043616e27742072656d6f766520696d6d7560448201527f7461626c652066756e6374696f6e000000000000000000000000000000000000606482015260840161015f565b7fffffffff0000000000000000000000000000000000000000000000000000000081165f908152602084815260408083205473ffffffffffffffffffffffffffffffffffffffff86168452600180880190935290832054740100000000000000000000000000000000000000009091046bffffffffffffffffffffffff16929161104a91611a55565b905080821461118e5773ffffffffffffffffffffffffffffffffffffffff84165f908152600186016020526040812080548390811061108b5761108b61174e565b5f918252602080832060088304015473ffffffffffffffffffffffffffffffffffffffff8916845260018a019091526040909220805460079092166004026101000a90920460e01b9250829190859081106110e8576110e861174e565b5f91825260208083206008830401805463ffffffff60079094166004026101000a938402191660e09590951c929092029390931790557fffffffff0000000000000000000000000000000000000000000000000000000092909216825286905260409020805473ffffffffffffffffffffffffffffffffffffffff16740100000000000000000000000000000000000000006bffffffffffffffffffffffff8516021790555b73ffffffffffffffffffffffffffffffffffffffff84165f90815260018601602052604090208054806111c3576111c3611a6e565b5f828152602080822060087fffffffffffffffffffffffffffffffffffffffffffffffffffffffffffffffff90940193840401805463ffffffff600460078716026101000a0219169055919092557fffffffff0000000000000000000000000000000000000000000000000000000085168252869052604081208190558190036100935760028501545f9061125a90600190611a55565b73ffffffffffffffffffffffffffffffffffffffff86165f908152600180890160205260409091200154909150808214611344575f8760020183815481106112a4576112a461174e565b5f9182526020909120015460028901805473ffffffffffffffffffffffffffffffffffffffff90921692508291849081106112e1576112e161174e565b5f91825260208083209190910180547fffffffffffffffffffffffff00000000000000000000000000000000000000001673ffffffffffffffffffffffffffffffffffffffff948516179055929091168152600189810190925260409020018190555b8660020180548061135757611357611a6e565b5f828152602080822083017fffffffffffffffffffffffffffffffffffffffffffffffffffffffffffffffff90810180547fffffffffffffffffffffffff000000000000000000000000000000000000000016905590920190925573ffffffffffffffffffffffffffffffffffffffff88168252600189810190915260408220015550505050505050565b813b8181610cf0576040517f08c379a000000000000000000000000000000000000000000000000000000000815260040161015f9190611a9b565b803573ffffffffffffffffffffffffffffffffffffffff81168114611440575f80fd5b919050565b5f8083601f840112611455575f80fd5b50813567ffffffffffffffff81111561146c575f80fd5b602083019150836020828501011115611483575f80fd5b9250929050565b5f805f805f6060868803121561149e575f80fd5b853567ffffffffffffffff808211156114b5575f80fd5b818801915088601f8301126114c8575f80fd5b8135818111156114d6575f80fd5b8960208260051b85010111156114ea575f80fd5b602083019750809650506115006020890161141d565b94506040880135915080821115611515575f80fd5b5061152288828901611445565b969995985093965092949392505050565b7f4e487b71000000000000000000000000000000000000000000000000000000005f52604160045260245ffd5b6040516060810167ffffffffffffffff8111828210171561158357611583611533565b60405290565b604051601f82017fffffffffffffffffffffffffffffffffffffffffffffffffffffffffffffffe016810167ffffffffffffffff811182821017156115d0576115d0611533565b604052919050565b5f67ffffffffffffffff8211156115f1576115f1611533565b5060051b60200190565b5f61160d611608846115d8565b611589565b83815260208082019190600586811b86013681111561162a575f80fd5b865b8181101561174157803567ffffffffffffffff8082111561164c575f8081fd5b818a01915060608236031215611661575f8081fd5b611669611560565b6116728361141d565b81528683013560038110611685575f8081fd5b818801526040838101358381111561169c575f8081fd5b939093019236601f8501126116b2575f92508283fd5b833592506116c2611608846115d8565b83815292871b840188019288810190368511156116de575f8081fd5b948901945b8486101561172a5785357fffffffff000000000000000000000000000000000000000000000000000000008116811461171b575f8081fd5b825294890194908901906116e3565b91830191909152508852505094830194830161162c565b5092979650505050505050565b7f4e487b71000000000000000000000000000000000000000000000000000000005f52603260045260245ffd5b7f4e487b71000000000000000000000000000000000000000000000000000000005f52602160045260245ffd5b7f4e487b71000000000000000000000000000000000000000000000000000000005f52601160045260245ffd5b5f7fffffffffffffffffffffffffffffffffffffffffffffffffffffffffffffffff8203611805576118056117a8565b5060010190565b5f5b8381101561182657818101518382015260200161180e565b50505f910152565b5f815180845261184581602086016020860161180c565b601f017fffffffffffffffffffffffffffffffffffffffffffffffffffffffffffffffe0169290920160200192915050565b5f6060808301818452808751808352608092508286019150828160051b8701016020808b015f5b8481101561199d577fffffffffffffffffffffffffffffffffffffffffffffffffffffffffffffff808a8503018652815188850173ffffffffffffffffffffffffffffffffffffffff82511686528482015160038110611925577f4e487b71000000000000000000000000000000000000000000000000000000005f52602160045260245ffd5b868601526040918201519186018a9052815190819052908401905f90898701905b808310156119885783517fffffffff00000000000000000000000000000000000000000000000000000000168252928601926001929092019190860190611946565b5097850197955050509082019060010161189e565b505073ffffffffffffffffffffffffffffffffffffffff8a169088015286810360408801526119cc818961182e565b9a9950505050505050505050565b5f6bffffffffffffffffffffffff8083168181036119fa576119fa6117a8565b6001019392505050565b5f8251611a1581846020870161180c565b9190910192915050565b73ffffffffffffffffffffffffffffffffffffffff83168152604060208201525f611a4d604083018461182e565b949350505050565b81810381811115611a6857611a686117a8565b92915050565b7f4e487b71000000000000000000000000000000000000000000000000000000005f52603160045260245ffd5b602081525f611aad602083018461182e565b939250505056fe4c69624469616d6f6e644375743a205f696e6974206164647265737320686173206e6f20636f64654c69624469616d6f6e644375743a204e657720666163657420686173206e6f20636f6465a264697066735822122070ace028e39ba4ab077c482a5503d53ec2e6ea7df3dbcf0b70e6f4ad64c4b35264736f6c63430008150033",
  "devdoc": {
    "kind": "dev",
    "methods": {
      "diamondCut((address,uint8,bytes4[])[],address,bytes)": {
        "params": {
          "_calldata": "A function call, including function selector and arguments                  _calldata is executed with delegatecall on _init",
          "_diamondCut": "Contains the facet addresses and function selectors",
          "_init": "The address of the contract or facet to execute _calldata"
        }
      }
    },
    "version": 1
  },
  "userdoc": {
    "kind": "user",
    "methods": {
      "diamondCut((address,uint8,bytes4[])[],address,bytes)": {
        "notice": "Add/replace/remove any number of functions and optionally execute         a function with delegatecall"
      }
    },
    "version": 1
  },
  "storageLayout": {
    "storage": [],
    "types": null
  }
}