{
  "address": "0xc21946dd5AD4840723C93fee03dE886f3074b83A",
  "abi": [
    {
      "inputs": [
        {
          "internalType": "address",
          "name": "registrar",
          "type": "address"
        },
        {
          "internalType": "address",
          "name": "spender",
          "type": "address"
        },
        {
          "internalType": "uint256",
          "name": "tokenId",
          "type": "uint256"
        }
      ],
      "name": "ensApprove",
      "outputs": [],
      "stateMutability": "nonpayable",
      "type": "function"
    },
    {
      "inputs": [
        {
          "internalType": "address",
          "name": "registry",
          "type": "address"
        },
        {
          "internalType": "address",
          "name": "operator",
          "type": "address"
        },
        {
          "internalType": "bool",
          "name": "approved",
          "type": "bool"
        }
      ],
      "name": "ensSetApprovalForAll",
      "outputs": [],
      "stateMutability": "nonpayable",
      "type": "function"
    },
    {
      "inputs": [
        {
          "internalType": "address",
          "name": "reverseRegistrar",
          "type": "address"
        },
        {
          "internalType": "string",
          "name": "name",
          "type": "string"
        }
      ],
      "name": "ensSetReverseName",
      "outputs": [],
      "stateMutability": "nonpayable",
      "type": "function"
    },
    {
      "inputs": [
        {
          "internalType": "address",
          "name": "nameWrapper",
          "type": "address"
        },
        {
          "internalType": "bytes32",
          "name": "labelHash",
          "type": "bytes32"
        }
      ],
      "name": "ensUnwrap",
      "outputs": [],
      "stateMutability": "nonpayable",
      "type": "function"
    },
    {
      "inputs": [
        {
          "internalType": "address",
          "name": "",
          "type": "address"
        },
        {
          "internalType": "address",
          "name": "",
          "type": "address"
        },
        {
          "internalType": "uint256[]",
          "name": "",
          "type": "uint256[]"
        },
        {
          "internalType": "uint256[]",
          "name": "",
          "type": "uint256[]"
        },
        {
          "internalType": "bytes",
          "name": "",
          "type": "bytes"
        }
      ],
      "name": "onERC1155BatchReceived",
      "outputs": [
        {
          "internalType": "bytes4",
          "name": "",
          "type": "bytes4"
        }
      ],
      "stateMutability": "nonpayable",
      "type": "function"
    },
    {
      "inputs": [
        {
          "internalType": "address",
          "name": "",
          "type": "address"
        },
        {
          "internalType": "address",
          "name": "",
          "type": "address"
        },
        {
          "internalType": "uint256",
          "name": "",
          "type": "uint256"
        },
        {
          "internalType": "uint256",
          "name": "",
          "type": "uint256"
        },
        {
          "internalType": "bytes",
          "name": "",
          "type": "bytes"
        }
      ],
      "name": "onERC1155Received",
      "outputs": [
        {
          "internalType": "bytes4",
          "name": "",
          "type": "bytes4"
        }
      ],
      "stateMutability": "nonpayable",
      "type": "function"
    },
    {
      "inputs": [
        {
          "internalType": "address",
          "name": "",
          "type": "address"
        },
        {
          "internalType": "address",
          "name": "",
          "type": "address"
        },
        {
          "internalType": "uint256",
          "name": "",
          "type": "uint256"
        },
        {
          "internalType": "bytes",
          "name": "",
          "type": "bytes"
        }
      ],
      "name": "onERC721Received",
      "outputs": [
        {
          "internalType": "bytes4",
          "name": "",
          "type": "bytes4"
        }
      ],
      "stateMutability": "nonpayable",
      "type": "function"
    },
    {
      "inputs": [
        {
          "internalType": "bytes4",
          "name": "interfaceId",
          "type": "bytes4"
        }
      ],
      "name": "supportsInterface",
      "outputs": [
        {
          "internalType": "bool",
          "name": "",
          "type": "bool"
        }
      ],
      "stateMutability": "view",
      "type": "function"
    }
  ],
  "transactionHash": "0x3f2893de4e1a3196a7faeffd8b8ee12e7500317f62e419dbcf69d88e22d4edd7",
  "args": [],
  "numDeployments": 4,
  "solcInputHash": "b75a4e59db16e8a337d0d50a67058f73",
  "bytecode": "0x608060405234801561001057600080fd5b50610ac4806100206000396000f3fe608060405234801561001057600080fd5b50600436106100885760003560e01c8063bc197c811161005b578063bc197c8114610145578063caf02d661461017d578063e570049914610190578063f23a6e61146101a357600080fd5b806301ffc9a71461008d578063150b7a02146100b557806370101e901461011d5780638696f50e14610132575b600080fd5b6100a061009b366004610578565b6101db565b60405190151581526020015b60405180910390f35b6100ec6100c33660046106fe565b7f150b7a0200000000000000000000000000000000000000000000000000000000949350505050565b6040517fffffffff0000000000000000000000000000000000000000000000000000000090911681526020016100ac565b61013061012b366004610766565b610274565b005b6101306101403660046107b2565b61030b565b6100ec61015336600461085c565b7fbc197c810000000000000000000000000000000000000000000000000000000095945050505050565b61013061018b366004610906565b6103a4565b61013061019e366004610942565b610407565b6100ec6101b13660046109a4565b7ff23a6e610000000000000000000000000000000000000000000000000000000095945050505050565b60007fffffffff0000000000000000000000000000000000000000000000000000000082167f4e2312e000000000000000000000000000000000000000000000000000000000148061026e57507f01ffc9a7000000000000000000000000000000000000000000000000000000007fffffffff000000000000000000000000000000000000000000000000000000008316145b92915050565b61027c6104a9565b6040517fa22cb46500000000000000000000000000000000000000000000000000000000815273ffffffffffffffffffffffffffffffffffffffff8381166004830152821515602483015284169063a22cb465906044015b600060405180830381600087803b1580156102ee57600080fd5b505af1158015610302573d6000803e3d6000fd5b50505050505050565b6103136104a9565b6040517f8b4dfa75000000000000000000000000000000000000000000000000000000008152600481018290523060248201819052604482015273ffffffffffffffffffffffffffffffffffffffff831690638b4dfa7590606401600060405180830381600087803b15801561038857600080fd5b505af115801561039c573d6000803e3d6000fd5b505050505050565b6103ac6104a9565b6040517f095ea7b300000000000000000000000000000000000000000000000000000000815273ffffffffffffffffffffffffffffffffffffffff83811660048301526024820183905284169063095ea7b3906044016102d4565b61040f6104a9565b6040517fc47f002700000000000000000000000000000000000000000000000000000000815273ffffffffffffffffffffffffffffffffffffffff83169063c47f002790610461908490600401610a09565b6020604051808303816000875af1158015610480573d6000803e3d6000fd5b505050506040513d601f19601f820116820180604052508101906104a49190610a75565b505050565b7fc8fcad8db84d3cc18b4c41d551ea0ee66dd599cde068d998e57d5e09332c131c6003015473ffffffffffffffffffffffffffffffffffffffff163314610576576040517f08c379a000000000000000000000000000000000000000000000000000000000815260206004820152602260248201527f4c69624469616d6f6e643a204d75737420626520636f6e7472616374206f776e60448201527f6572000000000000000000000000000000000000000000000000000000000000606482015260840160405180910390fd5b565b60006020828403121561058a57600080fd5b81357fffffffff00000000000000000000000000000000000000000000000000000000811681146105ba57600080fd5b9392505050565b803573ffffffffffffffffffffffffffffffffffffffff811681146105e557600080fd5b919050565b7f4e487b7100000000000000000000000000000000000000000000000000000000600052604160045260246000fd5b604051601f82017fffffffffffffffffffffffffffffffffffffffffffffffffffffffffffffffe016810167ffffffffffffffff81118282101715610660576106606105ea565b604052919050565b600067ffffffffffffffff831115610682576106826105ea565b6106b360207fffffffffffffffffffffffffffffffffffffffffffffffffffffffffffffffe0601f86011601610619565b90508281528383830111156106c757600080fd5b828260208301376000602084830101529392505050565b600082601f8301126106ef57600080fd5b6105ba83833560208501610668565b6000806000806080858703121561071457600080fd5b61071d856105c1565b935061072b602086016105c1565b925060408501359150606085013567ffffffffffffffff81111561074e57600080fd5b61075a878288016106de565b91505092959194509250565b60008060006060848603121561077b57600080fd5b610784846105c1565b9250610792602085016105c1565b9150604084013580151581146107a757600080fd5b809150509250925092565b600080604083850312156107c557600080fd5b6107ce836105c1565b946020939093013593505050565b600082601f8301126107ed57600080fd5b8135602067ffffffffffffffff821115610809576108096105ea565b8160051b610818828201610619565b928352848101820192828101908785111561083257600080fd5b83870192505b8483101561085157823582529183019190830190610838565b979650505050505050565b600080600080600060a0868803121561087457600080fd5b61087d866105c1565b945061088b602087016105c1565b9350604086013567ffffffffffffffff808211156108a857600080fd5b6108b489838a016107dc565b945060608801359150808211156108ca57600080fd5b6108d689838a016107dc565b935060808801359150808211156108ec57600080fd5b506108f9888289016106de565b9150509295509295909350565b60008060006060848603121561091b57600080fd5b610924846105c1565b9250610932602085016105c1565b9150604084013590509250925092565b6000806040838503121561095557600080fd5b61095e836105c1565b9150602083013567ffffffffffffffff81111561097a57600080fd5b8301601f8101851361098b57600080fd5b61099a85823560208401610668565b9150509250929050565b600080600080600060a086880312156109bc57600080fd5b6109c5866105c1565b94506109d3602087016105c1565b93506040860135925060608601359150608086013567ffffffffffffffff8111156109fd57600080fd5b6108f9888289016106de565b600060208083528351808285015260005b81811015610a3657858101830151858201604001528201610a1a565b5060006040828601015260407fffffffffffffffffffffffffffffffffffffffffffffffffffffffffffffffe0601f8301168501019250505092915050565b600060208284031215610a8757600080fd5b505191905056fea2646970667358221220b1104b5092bcf0ac76522959ddf58a1e3d130060aa7f144ef2764c61e51a820c64736f6c63430008130033",
  "devdoc": {
    "kind": "dev",
    "methods": {
      "onERC721Received(address,address,uint256,bytes)": {
        "details": "See {IERC721Receiver-onERC721Received}. Always returns `IERC721Receiver.onERC721Received.selector`."
      },
      "supportsInterface(bytes4)": {
        "details": "See {IERC165-supportsInterface}."
      }
    },
    "version": 1
  },
  "userdoc": {
    "kind": "user",
    "methods": {},
    "version": 1
  },
  "storageLayout": {
    "storage": [],
    "types": null
  }
}