{
  "address": "0xDf8b88F993Bb4D880109CFC8d94Cd448f3649709",
  "abi": [
    {
      "inputs": [
        {
          "internalType": "address",
          "name": "reverseRegistrar",
          "type": "address"
        },
        {
          "internalType": "string",
          "name": "name",
          "type": "string"
        }
      ],
      "name": "ensSetReverseName",
      "outputs": [],
      "stateMutability": "nonpayable",
      "type": "function"
    },
    {
      "inputs": [
        {
          "internalType": "address",
          "name": "",
          "type": "address"
        },
        {
          "internalType": "address",
          "name": "",
          "type": "address"
        },
        {
          "internalType": "uint256[]",
          "name": "",
          "type": "uint256[]"
        },
        {
          "internalType": "uint256[]",
          "name": "",
          "type": "uint256[]"
        },
        {
          "internalType": "bytes",
          "name": "",
          "type": "bytes"
        }
      ],
      "name": "onERC1155BatchReceived",
      "outputs": [
        {
          "internalType": "bytes4",
          "name": "",
          "type": "bytes4"
        }
      ],
      "stateMutability": "nonpayable",
      "type": "function"
    },
    {
      "inputs": [
        {
          "internalType": "address",
          "name": "",
          "type": "address"
        },
        {
          "internalType": "address",
          "name": "",
          "type": "address"
        },
        {
          "internalType": "uint256",
          "name": "",
          "type": "uint256"
        },
        {
          "internalType": "uint256",
          "name": "",
          "type": "uint256"
        },
        {
          "internalType": "bytes",
          "name": "",
          "type": "bytes"
        }
      ],
      "name": "onERC1155Received",
      "outputs": [
        {
          "internalType": "bytes4",
          "name": "",
          "type": "bytes4"
        }
      ],
      "stateMutability": "nonpayable",
      "type": "function"
    },
    {
      "inputs": [
        {
          "internalType": "bytes4",
          "name": "interfaceId",
          "type": "bytes4"
        }
      ],
      "name": "supportsInterface",
      "outputs": [
        {
          "internalType": "bool",
          "name": "",
          "type": "bool"
        }
      ],
      "stateMutability": "view",
      "type": "function"
    }
  ],
  "transactionHash": "0x17073f476a55440a00793aa5c354e6323057fa31311f6f361e64909b5e492817",
  "args": [],
  "numDeployments": 1,
  "solcInputHash": "6901a6f15f9d89044c7cb81717665bae",
  "bytecode": "0x608060405234801561001057600080fd5b5061076b806100206000396000f3fe608060405234801561001057600080fd5b506004361061004c5760003560e01c806301ffc9a714610051578063bc197c8114610079578063e5700499146100e2578063f23a6e61146100f7575b600080fd5b61006461005f366004610339565b61012f565b60405190151581526020015b60405180910390f35b6100b161008736600461053f565b7fbc197c810000000000000000000000000000000000000000000000000000000095945050505050565b6040517fffffffff000000000000000000000000000000000000000000000000000000009091168152602001610070565b6100f56100f03660046105e9565b6101c8565b005b6100b161010536600461064b565b7ff23a6e610000000000000000000000000000000000000000000000000000000095945050505050565b60007fffffffff0000000000000000000000000000000000000000000000000000000082167f4e2312e00000000000000000000000000000000000000000000000000000000014806101c257507f01ffc9a7000000000000000000000000000000000000000000000000000000007fffffffff000000000000000000000000000000000000000000000000000000008316145b92915050565b6101d061026a565b6040517fc47f002700000000000000000000000000000000000000000000000000000000815273ffffffffffffffffffffffffffffffffffffffff83169063c47f0027906102229084906004016106b0565b6020604051808303816000875af1158015610241573d6000803e3d6000fd5b505050506040513d601f19601f82011682018060405250810190610265919061071c565b505050565b7fc8fcad8db84d3cc18b4c41d551ea0ee66dd599cde068d998e57d5e09332c131c6003015473ffffffffffffffffffffffffffffffffffffffff163314610337576040517f08c379a000000000000000000000000000000000000000000000000000000000815260206004820152602260248201527f4c69624469616d6f6e643a204d75737420626520636f6e7472616374206f776e60448201527f6572000000000000000000000000000000000000000000000000000000000000606482015260840160405180910390fd5b565b60006020828403121561034b57600080fd5b81357fffffffff000000000000000000000000000000000000000000000000000000008116811461037b57600080fd5b9392505050565b803573ffffffffffffffffffffffffffffffffffffffff811681146103a657600080fd5b919050565b7f4e487b7100000000000000000000000000000000000000000000000000000000600052604160045260246000fd5b604051601f82017fffffffffffffffffffffffffffffffffffffffffffffffffffffffffffffffe016810167ffffffffffffffff81118282101715610421576104216103ab565b604052919050565b600082601f83011261043a57600080fd5b8135602067ffffffffffffffff821115610456576104566103ab565b8160051b6104658282016103da565b928352848101820192828101908785111561047f57600080fd5b83870192505b8483101561049e57823582529183019190830190610485565b979650505050505050565b600067ffffffffffffffff8311156104c3576104c36103ab565b6104f460207fffffffffffffffffffffffffffffffffffffffffffffffffffffffffffffffe0601f860116016103da565b905082815283838301111561050857600080fd5b828260208301376000602084830101529392505050565b600082601f83011261053057600080fd5b61037b838335602085016104a9565b600080600080600060a0868803121561055757600080fd5b61056086610382565b945061056e60208701610382565b9350604086013567ffffffffffffffff8082111561058b57600080fd5b61059789838a01610429565b945060608801359150808211156105ad57600080fd5b6105b989838a01610429565b935060808801359150808211156105cf57600080fd5b506105dc8882890161051f565b9150509295509295909350565b600080604083850312156105fc57600080fd5b61060583610382565b9150602083013567ffffffffffffffff81111561062157600080fd5b8301601f8101851361063257600080fd5b610641858235602084016104a9565b9150509250929050565b600080600080600060a0868803121561066357600080fd5b61066c86610382565b945061067a60208701610382565b93506040860135925060608601359150608086013567ffffffffffffffff8111156106a457600080fd5b6105dc8882890161051f565b600060208083528351808285015260005b818110156106dd578581018301518582016040015282016106c1565b5060006040828601015260407fffffffffffffffffffffffffffffffffffffffffffffffffffffffffffffffe0601f8301168501019250505092915050565b60006020828403121561072e57600080fd5b505191905056fea2646970667358221220ba03ef398849f4c4320460d73c6403ed0dca12e8d5fb81500f67c5d5c9d9f9ca64736f6c63430008130033",
  "devdoc": {
    "kind": "dev",
    "methods": {
      "supportsInterface(bytes4)": {
        "details": "See {IERC165-supportsInterface}."
      }
    },
    "version": 1
  },
  "userdoc": {
    "kind": "user",
    "methods": {},
    "version": 1
  },
  "storageLayout": {
    "storage": [],
    "types": null
  }
}