{
  "address": "0xdf1CE68E8bB9321dA6f9aCD7C2e89841dE839b09",
  "abi": [
    {
      "inputs": [
        {
          "internalType": "address",
          "name": "uniswapV2Router02",
          "type": "address"
        },
        {
          "internalType": "address",
          "name": "uniswapV2Factory",
          "type": "address"
        }
      ],
      "name": "init",
      "outputs": [],
      "stateMutability": "nonpayable",
      "type": "function"
    }
  ],
  "transactionHash": "0x98ec8be6982811ccc25159a4757fb76aa2be0e21dc77090ec52332a5079d0f42",
  "args": [],
  "numDeployments": 4,
  "solcInputHash": "b3e79b299ff67309e24953e67dc08b9d",
  "bytecode": "0x608060405234801561000f575f80fd5b506102948061001d5f395ff3fe608060405234801561000f575f80fd5b5060043610610029575f3560e01c8063f09a40161461002d575b5f80fd5b61004061003b366004610205565b610042565b005b7fcd4d5c78b9e1b4c12c165f6dabad75194d4ff180375bd5b3c4499489a642191c805460ff166101985780547fffffffffffffffffffffffffffffffffffffffffffffffffffffffffffffff0016600190811782558101805473ffffffffffffffffffffffffffffffffffffffff85167fffffffffffffffffffffffff00000000000000000000000000000000000000009091168117909155604080517fad5c4648000000000000000000000000000000000000000000000000000000008152905163ad5c4648916004808201926020929091908290030181865afa15801561012d573d5f803e3d5ffd5b505050506040513d601f19601f82011682018060405250810190610151919061023c565b815473ffffffffffffffffffffffffffffffffffffffff91909116610100027fffffffffffffffffffffff0000000000000000000000000000000000000000ff9091161781555b60020180547fffffffffffffffffffffffff00000000000000000000000000000000000000001673ffffffffffffffffffffffffffffffffffffffff9290921691909117905550565b73ffffffffffffffffffffffffffffffffffffffff81168114610202575f80fd5b50565b5f8060408385031215610216575f80fd5b8235610221816101e1565b91506020830135610231816101e1565b809150509250929050565b5f6020828403121561024c575f80fd5b8151610257816101e1565b939250505056fea26469706673582212207082dd06f88be1ba26a12ccf1090aa79d55115bf3cb9844cc97c7bfca2dfe18e64736f6c63430008150033",
  "devdoc": {
    "kind": "dev",
    "methods": {},
    "version": 1
  },
  "userdoc": {
    "kind": "user",
    "methods": {},
    "version": 1
  },
  "storageLayout": {
    "storage": [],
    "types": null
  }
}