{
  "address": "0xD6ECCB798dab6fFd9fa5B52ECF721ce877937345",
  "abi": [
    {
      "inputs": [
        {
          "internalType": "address",
          "name": "weth",
          "type": "address"
        }
      ],
      "name": "init",
      "outputs": [],
      "stateMutability": "nonpayable",
      "type": "function"
    }
  ],
  "transactionHash": "0x49b8dae6ba80a41cd2ce903225e386884a7a433e9076157ef1f223d85e3eec89",
  "args": [],
  "numDeployments": 2,
  "solcInputHash": "b3e79b299ff67309e24953e67dc08b9d",
  "bytecode": "0x608060405234801561000f575f80fd5b5061010b8061001d5f395ff3fe6080604052348015600e575f80fd5b50600436106026575f3560e01c806319ab453c14602a575b5f80fd5b609b6035366004609d565b7f1c1cf3c8827d48db80e17913589584c81d7f8da7f2100c9a87a7bf64829a0e1080547fffffffffffffffffffffffff00000000000000000000000000000000000000001673ffffffffffffffffffffffffffffffffffffffff92909216919091179055565b005b5f6020828403121560ac575f80fd5b813573ffffffffffffffffffffffffffffffffffffffff8116811460ce575f80fd5b939250505056fea2646970667358221220db654aa773832cb25177ab095f9f9e36d04ea921b50cee293fcad90fe3fc7adc64736f6c63430008150033",
  "devdoc": {
    "kind": "dev",
    "methods": {},
    "version": 1
  },
  "userdoc": {
    "kind": "user",
    "methods": {},
    "version": 1
  },
  "storageLayout": {
    "storage": [],
    "types": null
  }
}