{
  "address": "0xe50ae9d11aa38c7fc48d1277d19c096f40c8bad9",
  "abi": [
    {
      "inputs": [
        {
          "internalType": "address",
          "name": "weth",
          "type": "address"
        }
      ],
      "name": "init",
      "outputs": [],
      "stateMutability": "nonpayable",
      "type": "function"
    }
  ],
  "transactionHash": "0xbfebb3e98ace4547229fcbbda76e00e1217ef9eb00496b1b1f724635d76f1e22",
  "args": [],
  "numDeployments": 1,
  "solcInputHash": "a50422372668a179608ea47e5e59713c",
  "bytecode": "0x608060405234801561000f575f80fd5b5061010b8061001d5f395ff3fe6080604052348015600e575f80fd5b50600436106026575f3560e01c806319ab453c14602a575b5f80fd5b609b6035366004609d565b7f1c1cf3c8827d48db80e17913589584c81d7f8da7f2100c9a87a7bf64829a0e1080547fffffffffffffffffffffffff00000000000000000000000000000000000000001673ffffffffffffffffffffffffffffffffffffffff92909216919091179055565b005b5f6020828403121560ac575f80fd5b813573ffffffffffffffffffffffffffffffffffffffff8116811460ce575f80fd5b939250505056fea2646970667358221220457100d3c8aa6dd7185d5dc8079500196e945db8b0c121ac851681876166246e64736f6c63430008150033",
  "devdoc": {
    "kind": "dev",
    "methods": {},
    "version": 1
  },
  "userdoc": {
    "kind": "user",
    "methods": {},
    "version": 1
  },
  "storageLayout": {
    "storage": [],
    "types": null
  }
}