{
  "address": "0x23DbabD503fE9Fe046065b735377458957F73f18",
  "abi": [
    {
      "inputs": [
        {
          "internalType": "address",
          "name": "uniswapV2Router02",
          "type": "address"
        },
        {
          "internalType": "address",
          "name": "uniswapV2Factory",
          "type": "address"
        },
        {
          "internalType": "address",
          "name": "permit2",
          "type": "address"
        }
      ],
      "name": "init",
      "outputs": [],
      "stateMutability": "nonpayable",
      "type": "function"
    }
  ],
  "transactionHash": "0xc6e146f7137aa6d4557bbb43a15b0ccdbc7da61bdab370a24ff5363e776e5979",
  "args": [],
  "numDeployments": 6,
  "solcInputHash": "67dda12c87973688d0861d0d4554c2ee",
  "bytecode": "0x608060405234801561001057600080fd5b506102e0806100206000396000f3fe608060405234801561001057600080fd5b506004361061002b5760003560e01c8063184b955914610030575b600080fd5b61004361003e36600461023b565b610045565b005b7fcd4d5c78b9e1b4c12c165f6dabad75194d4ff180375bd5b3c4499489a642191c805460ff166101cb5780547fffffffffffffffffffffffffffffffffffffffffffffffffffffffffffffff0016600190811782558101805473ffffffffffffffffffffffffffffffffffffffff86167fffffffffffffffffffffffff00000000000000000000000000000000000000009091168117909155604080517fad5c4648000000000000000000000000000000000000000000000000000000008152905163ad5c4648916004808201926020929091908290030181865afa158015610132573d6000803e3d6000fd5b505050506040513d601f19601f820116820180604052508101906101569190610286565b81547fffffffffffffffffffffff0000000000000000000000000000000000000000ff1661010073ffffffffffffffffffffffffffffffffffffffff928316021782556003820180547fffffffffffffffffffffffff0000000000000000000000000000000000000000169184169190911790555b60020180547fffffffffffffffffffffffff00000000000000000000000000000000000000001673ffffffffffffffffffffffffffffffffffffffff93909316929092179091555050565b73ffffffffffffffffffffffffffffffffffffffff8116811461023857600080fd5b50565b60008060006060848603121561025057600080fd5b833561025b81610216565b9250602084013561026b81610216565b9150604084013561027b81610216565b809150509250925092565b60006020828403121561029857600080fd5b81516102a381610216565b939250505056fea264697066735822122047b3a7763bd68008c32691fefdc4b97d8e3ecac529fcae10707b2c1793ef12c564736f6c63430008130033",
  "devdoc": {
    "kind": "dev",
    "methods": {},
    "version": 1
  },
  "userdoc": {
    "kind": "user",
    "methods": {},
    "version": 1
  },
  "storageLayout": {
    "storage": [],
    "types": null
  }
}