{
  "address": "0x56b990b4909E916E1dA74294D8b67ED045402313",
  "abi": [
    {
      "inputs": [],
      "name": "DeadlineExpired",
      "type": "error"
    },
    {
      "inputs": [],
      "name": "EthTransferFailed",
      "type": "error"
    },
    {
      "inputs": [
        {
          "internalType": "uint16",
          "name": "maxFeeBps",
          "type": "uint16"
        }
      ],
      "name": "FeeTooHigh",
      "type": "error"
    },
    {
      "inputs": [],
      "name": "IncorrectEthValue",
      "type": "error"
    },
    {
      "inputs": [],
      "name": "InsufficienTokensDelivered",
      "type": "error"
    },
    {
      "inputs": [],
      "name": "InsufficientOutputAmount",
      "type": "error"
    },
    {
      "anonymous": false,
      "inputs": [
        {
          "indexed": true,
          "internalType": "address",
          "name": "partner",
          "type": "address"
        },
        {
          "indexed": true,
          "internalType": "address",
          "name": "token",
          "type": "address"
        },
        {
          "indexed": false,
          "internalType": "uint256",
          "name": "partnerFee",
          "type": "uint256"
        },
        {
          "indexed": false,
          "internalType": "uint256",
          "name": "diamondFee",
          "type": "uint256"
        }
      ],
      "name": "CollectedFee",
      "type": "event"
    },
    {
      "inputs": [
        {
          "components": [
            {
              "internalType": "uint256",
              "name": "amountIn",
              "type": "uint256"
            },
            {
              "internalType": "uint256",
              "name": "amountOut",
              "type": "uint256"
            },
            {
              "internalType": "address",
              "name": "recipient",
              "type": "address"
            },
            {
              "internalType": "uint16",
              "name": "slippageBps",
              "type": "uint16"
            },
            {
              "internalType": "uint16",
              "name": "feeBps",
              "type": "uint16"
            },
            {
              "internalType": "uint48",
              "name": "deadline",
              "type": "uint48"
            },
            {
              "internalType": "address",
              "name": "partner",
              "type": "address"
            },
            {
              "internalType": "address[]",
              "name": "tokens",
              "type": "address[]"
            },
            {
              "internalType": "address[]",
              "name": "pools",
              "type": "address[]"
            },
            {
              "internalType": "uint16",
              "name": "poolFeeBps",
              "type": "uint16"
            }
          ],
          "internalType": "struct IUniV2Like.ExactInputParams",
          "name": "params",
          "type": "tuple"
        }
      ],
      "name": "uniswapV2LikeExactInput",
      "outputs": [
        {
          "internalType": "uint256",
          "name": "amountOut",
          "type": "uint256"
        }
      ],
      "stateMutability": "payable",
      "type": "function"
    },
    {
      "inputs": [
        {
          "components": [
            {
              "internalType": "uint256",
              "name": "amountIn",
              "type": "uint256"
            },
            {
              "internalType": "uint256",
              "name": "amountOut",
              "type": "uint256"
            },
            {
              "internalType": "address",
              "name": "recipient",
              "type": "address"
            },
            {
              "internalType": "address",
              "name": "pool",
              "type": "address"
            },
            {
              "internalType": "uint16",
              "name": "feeBps",
              "type": "uint16"
            },
            {
              "internalType": "uint16",
              "name": "slippageBps",
              "type": "uint16"
            },
            {
              "internalType": "address",
              "name": "partner",
              "type": "address"
            },
            {
              "internalType": "address",
              "name": "tokenIn",
              "type": "address"
            },
            {
              "internalType": "address",
              "name": "tokenOut",
              "type": "address"
            },
            {
              "internalType": "uint16",
              "name": "poolFeeBps",
              "type": "uint16"
            },
            {
              "internalType": "uint48",
              "name": "deadline",
              "type": "uint48"
            }
          ],
          "internalType": "struct IUniV2Like.ExactInputSingleParams",
          "name": "params",
          "type": "tuple"
        }
      ],
      "name": "uniswapV2LikeExactInputSingle",
      "outputs": [
        {
          "internalType": "uint256",
          "name": "amountOut",
          "type": "uint256"
        }
      ],
      "stateMutability": "payable",
      "type": "function"
    }
  ],
  "transactionHash": "0x48572c62ac75011b1d8867b610a55df2d54634c29df8fb31db0c0ffd2f899066",
  "args": [],
  "numDeployments": 1,
  "solcInputHash": "3cea87474e6027552200f51e71b5ae6b",
  "bytecode": "0x608060405234801561000f575f80fd5b50611f298061001d5f395ff3fe608060405260043610610028575f3560e01c8063baa8ed351461002c578063e32bac2e14610051575b5f80fd5b61003f61003a366004611a01565b610064565b60405190815260200160405180910390f35b61003f61005f366004611b7d565b6107e1565b5f81610140015165ffffffffffff164211156100ac576040517f1ab7da6b00000000000000000000000000000000000000000000000000000000815260040160405180910390fd5b60e08201516101008301517f1c1cf3c8827d48db80e17913589584c81d7f8da7f2100c9a87a7bf64829a0e109173ffffffffffffffffffffffffffffffffffffffff908116159116155f81610193576101008601516040517f70a0823100000000000000000000000000000000000000000000000000000000815230600482015273ffffffffffffffffffffffffffffffffffffffff909116906370a0823190602401602060405180830381865afa15801561016a573d5f803e3d5ffd5b505050506040513d601f19601f8201168201806040525081019061018e9190611c8a565b610195565b475b905082156101bb57835473ffffffffffffffffffffffffffffffffffffffff1660e08701525b81156101e057835473ffffffffffffffffffffffffffffffffffffffff166101008701525b5f80876060015173ffffffffffffffffffffffffffffffffffffffff16630902f1ac6040518163ffffffff1660e01b8152600401606060405180830381865afa15801561022f573d5f803e3d5ffd5b505050506040513d601f19601f820116820180604052508101906102539190611cbe565b506dffffffffffffffffffffffffffff1691506dffffffffffffffffffffffffffff16915087610100015173ffffffffffffffffffffffffffffffffffffffff168860e0015173ffffffffffffffffffffffffffffffffffffffff1611156102b757905b5f600a89610120015161ffff16816102d1576102d1611d0a565b046103e80361ffff16905080895f015102836103e8020182828b5f01510202816102fd576102fd611d0a565b0497505061031388602001518960a0015161106c565b87101561034c576040517f42301c2300000000000000000000000000000000000000000000000000000000815260040160405180910390fd5b841561043e578751341461038c576040517fab0a033b00000000000000000000000000000000000000000000000000000000815260040160405180910390fd5b8554604080517fd0e30db0000000000000000000000000000000000000000000000000000000008152905173ffffffffffffffffffffffffffffffffffffffff9092169163d0e30db09134916004808301925f92919082900301818588803b1580156103f6575f80fd5b505af1158015610408573d5f803e3d5ffd5b50505060608a01518a5160e08c0151610439945073ffffffffffffffffffffffffffffffffffffffff16925061109b565b61046f565b6060880151885160e08a015161046f9273ffffffffffffffffffffffffffffffffffffffff90911691339190611174565b5f88610100015173ffffffffffffffffffffffffffffffffffffffff168960e0015173ffffffffffffffffffffffffffffffffffffffff16106104b2575f6104b5565b60015b9050886060015173ffffffffffffffffffffffffffffffffffffffff1663022c0d9f826104e257896104e4565b5f5b836104ef575f6104f1565b8a5b6040517fffffffff0000000000000000000000000000000000000000000000000000000060e085901b16815260048101929092526024820152306044820152608060648201525f608482015260a4015f604051808303815f87803b158015610557575f80fd5b505af1158015610569573d5f803e3d5ffd5b505050505f8561060b576101008a01516040517f70a0823100000000000000000000000000000000000000000000000000000000815230600482015273ffffffffffffffffffffffffffffffffffffffff909116906370a0823190602401602060405180830381865afa1580156105e2573d5f803e3d5ffd5b505050506040513d601f19601f820116820180604052508101906106069190611c8a565b61060d565b475b90508481108061062557506106228986611d64565b81105b1561065c576040517f883d583b00000000000000000000000000000000000000000000000000000000815260040160405180910390fd5b61067a8a60c001518b61010001518c608001518d602001518d6111d8565b985085156107a05787546040517f2e1a7d4d000000000000000000000000000000000000000000000000000000008152600481018b905273ffffffffffffffffffffffffffffffffffffffff90911690632e1a7d4d906024015f604051808303815f87803b1580156106ea575f80fd5b505af11580156106fc573d5f803e3d5ffd5b505050505f8a6040015173ffffffffffffffffffffffffffffffffffffffff168a6040515f6040518083038185875af1925050503d805f811461075a576040519150601f19603f3d011682016040523d82523d5f602084013e61075f565b606091505b505090508061079a576040517f6d963f8800000000000000000000000000000000000000000000000000000000815260040160405180910390fd5b506107d4565b6107d48a604001518a8c610100015173ffffffffffffffffffffffffffffffffffffffff1661109b9092919063ffffffff16565b5050505050505050919050565b5f8160a0015165ffffffffffff16421115610828576040517f1ab7da6b00000000000000000000000000000000000000000000000000000000815260040160405180910390fd5b6101008201515160e083015180517f1c1cf3c8827d48db80e17913589584c81d7f8da7f2100c9a87a7bf64829a0e1092915f91829190829061086c5761086c611d77565b602002602001015173ffffffffffffffffffffffffffffffffffffffff161490505f8073ffffffffffffffffffffffffffffffffffffffff168660e0015184815181106108bb576108bb611d77565b602002602001015173ffffffffffffffffffffffffffffffffffffffff161490505f81610995578660e0015184815181106108f8576108f8611d77565b60209081029190910101516040517f70a0823100000000000000000000000000000000000000000000000000000000815230600482015273ffffffffffffffffffffffffffffffffffffffff909116906370a0823190602401602060405180830381865afa15801561096c573d5f803e3d5ffd5b505050506040513d601f19601f820116820180604052508101906109909190611c8a565b610997565b475b90505f6109bb88610120015161ffff16895f01518a60e001518b6101000151611295565b90506109cf8860200151896060015161106c565b81600183516109de9190611da4565b815181106109ee576109ee611d77565b60200260200101511015610a2e576040517f42301c2300000000000000000000000000000000000000000000000000000000815260040160405180910390fd5b8315610b5d5787513414610a6e576040517fab0a033b00000000000000000000000000000000000000000000000000000000815260040160405180910390fd5b8554604080517fd0e30db0000000000000000000000000000000000000000000000000000000008152905173ffffffffffffffffffffffffffffffffffffffff9092169163d0e30db09134916004808301925f92919082900301818588803b158015610ad8575f80fd5b505af1158015610aea573d5f803e3d5ffd5b5050505050610b588861010001515f81518110610b0957610b09611d77565b6020026020010151895f01518a60e001515f81518110610b2b57610b2b611d77565b602002602001015173ffffffffffffffffffffffffffffffffffffffff1661109b9092919063ffffffff16565b610bc8565b610bc8338961010001515f81518110610b7857610b78611d77565b60200260200101518a5f01518b60e001515f81518110610b9a57610b9a611d77565b602002602001015173ffffffffffffffffffffffffffffffffffffffff16611174909392919063ffffffff16565b5f5b85811015610dc1575f610bde826001611d64565b90505f8a60e001518281518110610bf757610bf7611d77565b602002602001015173ffffffffffffffffffffffffffffffffffffffff168b60e001518481518110610c2b57610c2b611d77565b602002602001015173ffffffffffffffffffffffffffffffffffffffff1610610c54575f610c57565b60015b90505f60028c60e0015151610c6c9190611da4565b8410610c785730610c98565b8b61010001518381518110610c8f57610c8f611d77565b60200260200101515b90508b61010001518481518110610cb157610cb1611d77565b602002602001015173ffffffffffffffffffffffffffffffffffffffff1663022c0d9f83610cf857868581518110610ceb57610ceb611d77565b6020026020010151610cfa565b5f5b84610d05575f610d20565b878681518110610d1757610d17611d77565b60200260200101515b6040517fffffffff0000000000000000000000000000000000000000000000000000000060e085901b1681526004810192909252602482015273ffffffffffffffffffffffffffffffffffffffff84166044820152608060648201525f608482015260a4015f604051808303815f87803b158015610d9c575f80fd5b505af1158015610dae573d5f803e3d5ffd5b505060019095019450610bca9350505050565b505f83610e7b578860e001518681518110610dde57610dde611d77565b60209081029190910101516040517f70a0823100000000000000000000000000000000000000000000000000000000815230600482015273ffffffffffffffffffffffffffffffffffffffff909116906370a0823190602401602060405180830381865afa158015610e52573d5f803e3d5ffd5b505050506040513d601f19601f82011682018060405250810190610e769190611c8a565b610e7d565b475b905082811080610e955750610e928884611d64565b81105b15610ecc576040517f883d583b00000000000000000000000000000000000000000000000000000000815260040160405180910390fd5b610f1b8960c001518a60e001518881518110610eea57610eea611d77565b60200260200101518b608001518c60200151868b81518110610f0e57610f0e611d77565b60200260200101516111d8565b975083156110415786546040517f2e1a7d4d000000000000000000000000000000000000000000000000000000008152600481018a905273ffffffffffffffffffffffffffffffffffffffff90911690632e1a7d4d906024015f604051808303815f87803b158015610f8b575f80fd5b505af1158015610f9d573d5f803e3d5ffd5b505050505f896040015173ffffffffffffffffffffffffffffffffffffffff16896040515f6040518083038185875af1925050503d805f8114610ffb576040519150601f19603f3d011682016040523d82523d5f602084013e611000565b606091505b505090508061103b576040517f6d963f8800000000000000000000000000000000000000000000000000000000815260040160405180910390fd5b50611060565b6110608960400151898b60e001518981518110610b2b57610b2b611d77565b50505050505050919050565b5f61271061107a8382611db7565b6110889061ffff1685611dd9565b6110929190611df0565b90505b92915050565b60405173ffffffffffffffffffffffffffffffffffffffff831660248201526044810182905261116f9084907fa9059cbb00000000000000000000000000000000000000000000000000000000906064015b604080517fffffffffffffffffffffffffffffffffffffffffffffffffffffffffffffffe08184030181529190526020810180517bffffffffffffffffffffffffffffffffffffffffffffffffffffffff167fffffffff00000000000000000000000000000000000000000000000000000000909316929092179091526114b2565b505050565b60405173ffffffffffffffffffffffffffffffffffffffff808516602483015283166044820152606481018290526111d29085907f23b872dd00000000000000000000000000000000000000000000000000000000906084016110ed565b50505050565b5f6107d061ffff85161115611222576040517f8ea70c070000000000000000000000000000000000000000000000000000000081526107d060048201526024015b60405180910390fd5b5f8284811115611233575050828203835b61271061ffff871682020491909101905f73ffffffffffffffffffffffffffffffffffffffff89161561126c576064603284020461126e565b5f5b9050808303838214611286576112868a8a84846115bf565b50505090910395945050505050565b80516060905f6112a6600a88611e03565b6112b2906103e8611e24565b62ffffff169050845167ffffffffffffffff8111156112d3576112d3611938565b6040519080825280602002602001820160405280156112fc578160200160208202803683370190505b50925085835f8151811061131257611312611d77565b6020026020010181815250505f5b828110156114a7575f86828151811061133b5761133b611d77565b602002602001015190505f878360016113549190611d64565b8151811061136457611364611d77565b602002602001015190505f8088858151811061138257611382611d77565b602002602001015173ffffffffffffffffffffffffffffffffffffffff16630902f1ac6040518163ffffffff1660e01b8152600401606060405180830381865afa1580156113d2573d5f803e3d5ffd5b505050506040513d601f19601f820116820180604052508101906113f69190611cbe565b506dffffffffffffffffffffffffffff1691506dffffffffffffffffffffffffffff1691508273ffffffffffffffffffffffffffffffffffffffff168473ffffffffffffffffffffffffffffffffffffffff16111561145157905b858b02826103e8020181878d02028161146c5761146c611d0a565b049a508a8861147c876001611d64565b8151811061148c5761148c611d77565b60209081029190910101525050600190920191506113209050565b505050949350505050565b5f611513826040518060400160405280602081526020017f5361666545524332303a206c6f772d6c6576656c2063616c6c206661696c65648152508573ffffffffffffffffffffffffffffffffffffffff166116c29092919063ffffffff16565b905080515f14806115335750808060200190518101906115339190611e40565b61116f576040517f08c379a000000000000000000000000000000000000000000000000000000000815260206004820152602a60248201527f5361666545524332303a204552433230206f7065726174696f6e20646964206e60448201527f6f742073756363656564000000000000000000000000000000000000000000006064820152608401611219565b7f4edbd34b5b006870ab724677d99b508debf8dcac0dc8134c9c43b93f8afe50f073ffffffffffffffffffffffffffffffffffffffff84161561162e5773ffffffffffffffffffffffffffffffffffffffff85165f908152600282016020526040902061162c90856116d8565b505b61163881866116d8565b5073ffffffffffffffffffffffffffffffffffffffff8581165f81815260038401602090815260408083209489168084529482528083208054890190556004860182529182902080548801905581518781529081018690527fb9c71741297b7329823b5575aa676062720448277d6da61cf68eb0fed6c4baf4910160405180910390a35050505050565b60606116d084845f856116f9565b949350505050565b5f6110928373ffffffffffffffffffffffffffffffffffffffff841661180e565b60608247101561178b576040517f08c379a000000000000000000000000000000000000000000000000000000000815260206004820152602660248201527f416464726573733a20696e73756666696369656e742062616c616e636520666f60448201527f722063616c6c00000000000000000000000000000000000000000000000000006064820152608401611219565b5f808673ffffffffffffffffffffffffffffffffffffffff1685876040516117b39190611e88565b5f6040518083038185875af1925050503d805f81146117ed576040519150601f19603f3d011682016040523d82523d5f602084013e6117f2565b606091505b50915091506118038783838761185a565b979650505050505050565b5f81815260018301602052604081205461185357508154600181810184555f848152602080822090930184905584548482528286019093526040902091909155611095565b505f611095565b606083156118ef5782515f036118e85773ffffffffffffffffffffffffffffffffffffffff85163b6118e8576040517f08c379a000000000000000000000000000000000000000000000000000000000815260206004820152601d60248201527f416464726573733a2063616c6c20746f206e6f6e2d636f6e74726163740000006044820152606401611219565b50816116d0565b6116d083838151156119045781518083602001fd5b806040517f08c379a00000000000000000000000000000000000000000000000000000000081526004016112199190611ea3565b7f4e487b71000000000000000000000000000000000000000000000000000000005f52604160045260245ffd5b604051610160810167ffffffffffffffff8111828210171561198957611989611938565b60405290565b604051610140810167ffffffffffffffff8111828210171561198957611989611938565b803573ffffffffffffffffffffffffffffffffffffffff811681146119d6575f80fd5b919050565b803561ffff811681146119d6575f80fd5b803565ffffffffffff811681146119d6575f80fd5b5f6101608284031215611a12575f80fd5b611a1a611965565b8235815260208301356020820152611a34604084016119b3565b6040820152611a45606084016119b3565b6060820152611a56608084016119db565b6080820152611a6760a084016119db565b60a0820152611a7860c084016119b3565b60c0820152611a8960e084016119b3565b60e0820152610100611a9c8185016119b3565b90820152610120611aae8482016119db565b90820152610140611ac08482016119ec565b908201529392505050565b5f82601f830112611ada575f80fd5b8135602067ffffffffffffffff80831115611af757611af7611938565b8260051b6040517fffffffffffffffffffffffffffffffffffffffffffffffffffffffffffffffe0603f83011681018181108482111715611b3a57611b3a611938565b604052938452858101830193838101925087851115611b57575f80fd5b83870191505b8482101561180357611b6e826119b3565b83529183019190830190611b5d565b5f60208284031215611b8d575f80fd5b813567ffffffffffffffff80821115611ba4575f80fd5b908301906101408286031215611bb8575f80fd5b611bc061198f565b8235815260208301356020820152611bda604084016119b3565b6040820152611beb606084016119db565b6060820152611bfc608084016119db565b6080820152611c0d60a084016119ec565b60a0820152611c1e60c084016119b3565b60c082015260e083013582811115611c34575f80fd5b611c4087828601611acb565b60e0830152506101008084013583811115611c59575f80fd5b611c6588828701611acb565b8284015250506101209150611c7b8284016119db565b91810191909152949350505050565b5f60208284031215611c9a575f80fd5b5051919050565b80516dffffffffffffffffffffffffffff811681146119d6575f80fd5b5f805f60608486031215611cd0575f80fd5b611cd984611ca1565b9250611ce760208501611ca1565b9150604084015163ffffffff81168114611cff575f80fd5b809150509250925092565b7f4e487b71000000000000000000000000000000000000000000000000000000005f52601260045260245ffd5b7f4e487b71000000000000000000000000000000000000000000000000000000005f52601160045260245ffd5b8082018082111561109557611095611d37565b7f4e487b71000000000000000000000000000000000000000000000000000000005f52603260045260245ffd5b8181038181111561109557611095611d37565b61ffff828116828216039080821115611dd257611dd2611d37565b5092915050565b808202811582820484141761109557611095611d37565b5f82611dfe57611dfe611d0a565b500490565b5f62ffffff80841680611e1857611e18611d0a565b92169190910492915050565b62ffffff828116828216039080821115611dd257611dd2611d37565b5f60208284031215611e50575f80fd5b81518015158114611e5f575f80fd5b9392505050565b5f5b83811015611e80578181015183820152602001611e68565b50505f910152565b5f8251611e99818460208701611e66565b9190910192915050565b602081525f8251806020840152611ec1816040850160208701611e66565b601f017fffffffffffffffffffffffffffffffffffffffffffffffffffffffffffffffe016919091016040019291505056fea2646970667358221220da5d9107efd9014c3a9bd3fd2411b9bd7d25a2546048e4a7592e3f9142f2ceb864736f6c63430008150033",
  "devdoc": {
    "kind": "dev",
    "methods": {},
    "version": 1
  },
  "userdoc": {
    "errors": {
      "FeeTooHigh(uint16)": [
        {
          "notice": "The swap fee is over the maximum allowed"
        }
      ]
    },
    "kind": "user",
    "methods": {},
    "notice": "A router for any Uniswap V2 fork The pools are not trusted to deliver the correct amount of tokens, so the router verifies this. The pool addresses passed in as a parameter instead of being looked up from the factory. The caller may use `getPair` on the factory to calculate pool addresses. Fees may vary from Uniswap V2's 0.3% (30 bps) and are passed in as `poolFeeBps`. Inspired by https://github.com/sushiswap/sushiswap/blob/master/protocols/route-processor/contracts/RouteProcessor4.sol#L323",
    "version": 1
  },
  "storageLayout": {
    "storage": [],
    "types": null
  }
}