{
  "address": "0x5b1Ce2E9c6741Af8b1f2b8e128101d3F1420be98",
  "abi": [
    {
      "inputs": [],
      "name": "CallbackAlreadyActive",
      "type": "error"
    },
    {
      "inputs": [],
      "name": "CallbackStillActive",
      "type": "error"
    },
    {
      "inputs": [],
      "name": "DeadlineExpired",
      "type": "error"
    },
    {
      "inputs": [],
      "name": "EthTransferFailed",
      "type": "error"
    },
    {
      "inputs": [
        {
          "internalType": "uint16",
          "name": "maxFeeBps",
          "type": "uint16"
        }
      ],
      "name": "FeeTooHigh",
      "type": "error"
    },
    {
      "inputs": [],
      "name": "IncorrectEthValue",
      "type": "error"
    },
    {
      "inputs": [],
      "name": "InsufficienTokensDelivered",
      "type": "error"
    },
    {
      "inputs": [],
      "name": "InsufficientOutputAmount",
      "type": "error"
    },
    {
      "inputs": [
        {
          "components": [
            {
              "internalType": "uint256",
              "name": "amountIn",
              "type": "uint256"
            },
            {
              "internalType": "uint256",
              "name": "amountOut",
              "type": "uint256"
            },
            {
              "internalType": "address",
              "name": "recipient",
              "type": "address"
            },
            {
              "internalType": "uint16",
              "name": "slippageBps",
              "type": "uint16"
            },
            {
              "internalType": "uint16",
              "name": "feeBps",
              "type": "uint16"
            },
            {
              "internalType": "uint48",
              "name": "deadline",
              "type": "uint48"
            },
            {
              "internalType": "address",
              "name": "partner",
              "type": "address"
            },
            {
              "internalType": "address[]",
              "name": "tokens",
              "type": "address[]"
            },
            {
              "internalType": "address[]",
              "name": "pools",
              "type": "address[]"
            }
          ],
          "internalType": "struct IUniV3Like.ExactInputParams",
          "name": "params",
          "type": "tuple"
        }
      ],
      "name": "uniswapV3LikeExactInput",
      "outputs": [
        {
          "internalType": "uint256",
          "name": "amountOut",
          "type": "uint256"
        }
      ],
      "stateMutability": "payable",
      "type": "function"
    },
    {
      "inputs": [
        {
          "components": [
            {
              "internalType": "address",
              "name": "recipient",
              "type": "address"
            },
            {
              "internalType": "address",
              "name": "partner",
              "type": "address"
            },
            {
              "internalType": "uint16",
              "name": "feeBps",
              "type": "uint16"
            },
            {
              "internalType": "uint16",
              "name": "slippageBps",
              "type": "uint16"
            },
            {
              "internalType": "uint256",
              "name": "amountIn",
              "type": "uint256"
            },
            {
              "internalType": "uint48",
              "name": "deadline",
              "type": "uint48"
            },
            {
              "internalType": "address",
              "name": "tokenIn",
              "type": "address"
            },
            {
              "internalType": "address",
              "name": "tokenOut",
              "type": "address"
            },
            {
              "internalType": "uint256",
              "name": "amountOut",
              "type": "uint256"
            },
            {
              "internalType": "address",
              "name": "pool",
              "type": "address"
            }
          ],
          "internalType": "struct IUniV3Like.ExactInputSingleParams",
          "name": "params",
          "type": "tuple"
        }
      ],
      "name": "uniswapV3LikeExactInputSingle",
      "outputs": [
        {
          "internalType": "uint256",
          "name": "amountOut",
          "type": "uint256"
        }
      ],
      "stateMutability": "payable",
      "type": "function"
    }
  ],
  "transactionHash": "0xa201d46aa06684496097e0c90f09665b708901a41e4d3eaf5c222a5a88510ab4",
  "args": [],
  "numDeployments": 4,
  "solcInputHash": "d4f46aaabe66ec0a8ac80cdeead2eb5f",
  "bytecode": "0x608060405234801561001057600080fd5b50611e9c806100206000396000f3fe6080604052600436106100285760003560e01c80626ee8b61461002d5780635576abd114610052575b600080fd5b61004061003b366004611a99565b610065565b60405190815260200160405180910390f35b610040610060366004611b98565b6109cd565b60008160a0015165ffffffffffff164211156100ad576040517f1ab7da6b00000000000000000000000000000000000000000000000000000000815260040160405180910390fd5b6101008201515160e08301518051600091829182906100ce576100ce611c52565b602002602001015173ffffffffffffffffffffffffffffffffffffffff1614905060008073ffffffffffffffffffffffffffffffffffffffff168560e00151848151811061011e5761011e611c52565b602002602001015173ffffffffffffffffffffffffffffffffffffffff1614905060008261014c573361014e565b305b9050821561026c577f1c1cf3c8827d48db80e17913589584c81d7f8da7f2100c9a87a7bf64829a0e105460e0870151805173ffffffffffffffffffffffffffffffffffffffff909216918291906000906101aa576101aa611c52565b73ffffffffffffffffffffffffffffffffffffffff9092166020928302919091019091015286513414610209576040517fab0a033b00000000000000000000000000000000000000000000000000000000815260040160405180910390fd5b8073ffffffffffffffffffffffffffffffffffffffff1663d0e30db0346040518263ffffffff1660e01b81526004016000604051808303818588803b15801561025157600080fd5b505af1158015610265573d6000803e3d6000fd5b5050505050505b81156102ff577f1c1cf3c8827d48db80e17913589584c81d7f8da7f2100c9a87a7bf64829a0e105460e0870151805173ffffffffffffffffffffffffffffffffffffffff90921691869081106102c4576102c4611c52565b602002602001019073ffffffffffffffffffffffffffffffffffffffff16908173ffffffffffffffffffffffffffffffffffffffff16815250505b60008660e00151858151811061031757610317611c52565b60209081029190910101516040517f70a0823100000000000000000000000000000000000000000000000000000000815230600482015273ffffffffffffffffffffffffffffffffffffffff909116906370a0823190602401602060405180830381865afa15801561038d573d6000803e3d6000fd5b505050506040513d601f19601f820116820180604052508101906103b19190611c81565b87519650905060005b858110156106a857600081600101905060008960e0015182815181106103e2576103e2611c52565b602002602001015173ffffffffffffffffffffffffffffffffffffffff168a60e00151848151811061041657610416611c52565b602002602001015173ffffffffffffffffffffffffffffffffffffffff161090506104a360405180606001604052808b81526020018773ffffffffffffffffffffffffffffffffffffffff1681526020018c60e00151868151811061047d5761047d611c52565b602002602001015173ffffffffffffffffffffffffffffffffffffffff16815250611136565b801561059a5760008a610100015184815181106104c2576104c2611c52565b60209081029190910101516040517f128acb080000000000000000000000000000000000000000000000000000000081523060048201528315156024820152604481018c90526401000276a4606482015260a06084820152600060a482015273ffffffffffffffffffffffffffffffffffffffff9091169063128acb089060c40160408051808303816000875af1158015610561573d6000803e3d6000fd5b505050506040513d601f19601f820116820180604052508101906105859190611c9a565b9150508061059290611ced565b995050610695565b60008a610100015184815181106105b3576105b3611c52565b60209081029190910101516040517f128acb080000000000000000000000000000000000000000000000000000000081523060048201528315156024820152604481018c905273fffd8963efd1fc6a506488495d951d5263988d25606482015260a06084820152600060a482015273ffffffffffffffffffffffffffffffffffffffff9091169063128acb089060c40160408051808303816000875af1158015610661573d6000803e3d6000fd5b505050506040513d601f19601f820116820180604052508101906106859190611c9a565b50905061069181611ced565b9950505b61069d61129f565b5030935090506103ba565b506106b78688606001516112ff565b8610156106f0576040517f42301c2300000000000000000000000000000000000000000000000000000000815260040160405180910390fd5b60008760e00151868151811061070857610708611c52565b60209081029190910101516040517f70a0823100000000000000000000000000000000000000000000000000000000815230600482015273ffffffffffffffffffffffffffffffffffffffff909116906370a0823190602401602060405180830381865afa15801561077e573d6000803e3d6000fd5b505050506040513d601f19601f820116820180604052508101906107a29190611c81565b9050818110806107ba57506107b78783611d25565b81105b156107f1576040517f883d583b00000000000000000000000000000000000000000000000000000000815260040160405180910390fd5b6108278860c001518960e00151888151811061080f5761080f611c52565b60200260200101518a608001518b602001518b61132f565b96508315610976577f1c1cf3c8827d48db80e17913589584c81d7f8da7f2100c9a87a7bf64829a0e10546040517f2e1a7d4d0000000000000000000000000000000000000000000000000000000081526004810189905273ffffffffffffffffffffffffffffffffffffffff90911690632e1a7d4d90602401600060405180830381600087803b1580156108ba57600080fd5b505af11580156108ce573d6000803e3d6000fd5b505050506000886040015173ffffffffffffffffffffffffffffffffffffffff168860405160006040518083038185875af1925050503d8060008114610930576040519150601f19603f3d011682016040523d82523d6000602084013e610935565b606091505b5050905080610970576040517f6d963f8800000000000000000000000000000000000000000000000000000000815260040160405180910390fd5b506109c2565b6109c28860400151888a60e00151898151811061099557610995611c52565b602002602001015173ffffffffffffffffffffffffffffffffffffffff166113f09092919063ffffffff16565b505050505050919050565b60008160a0015165ffffffffffff16421115610a15576040517f1ab7da6b00000000000000000000000000000000000000000000000000000000815260040160405180910390fd5b60c082015160e083015173ffffffffffffffffffffffffffffffffffffffff918216159116158115610b20577f1c1cf3c8827d48db80e17913589584c81d7f8da7f2100c9a87a7bf64829a0e105473ffffffffffffffffffffffffffffffffffffffff1660c0850181905260808501513414610abd576040517fab0a033b00000000000000000000000000000000000000000000000000000000815260040160405180910390fd5b8073ffffffffffffffffffffffffffffffffffffffff1663d0e30db0346040518263ffffffff1660e01b81526004016000604051808303818588803b158015610b0557600080fd5b505af1158015610b19573d6000803e3d6000fd5b5050505050505b8015610b64577f1c1cf3c8827d48db80e17913589584c81d7f8da7f2100c9a87a7bf64829a0e105473ffffffffffffffffffffffffffffffffffffffff1660e08501525b60e08401516040517f70a0823100000000000000000000000000000000000000000000000000000000815230600482015260009173ffffffffffffffffffffffffffffffffffffffff16906370a0823190602401602060405180830381865afa158015610bd5573d6000803e3d6000fd5b505050506040513d601f19601f82011682018060405250810190610bf99190611c81565b905060008560e0015173ffffffffffffffffffffffffffffffffffffffff168660c0015173ffffffffffffffffffffffffffffffffffffffff16109050610c9960405180606001604052808860800151815260200186610c595733610c5b565b305b73ffffffffffffffffffffffffffffffffffffffff1681526020018860c0015173ffffffffffffffffffffffffffffffffffffffff16815250611136565b8015610d795761012086015160808701516040517f128acb08000000000000000000000000000000000000000000000000000000008152306004820152831515602482015260448101919091526401000276a4606482015260a06084820152600060a482018190529173ffffffffffffffffffffffffffffffffffffffff169063128acb089060c40160408051808303816000875af1158015610d40573d6000803e3d6000fd5b505050506040513d601f19601f82011682018060405250810190610d649190611c9a565b91505080610d7190611ced565b955050610e5d565b61012086015160808701516040517f128acb080000000000000000000000000000000000000000000000000000000081523060048201528315156024820152604481019190915273fffd8963efd1fc6a506488495d951d5263988d25606482015260a06084820152600060a482018190529173ffffffffffffffffffffffffffffffffffffffff169063128acb089060c40160408051808303816000875af1158015610e29573d6000803e3d6000fd5b505050506040513d601f19601f82011682018060405250810190610e4d9190611c9a565b509050610e5981611ced565b9550505b610e6561129f565b610e7886610100015187606001516112ff565b851015610eb1576040517f42301c2300000000000000000000000000000000000000000000000000000000815260040160405180910390fd5b60e08601516040517f70a0823100000000000000000000000000000000000000000000000000000000815230600482015260009173ffffffffffffffffffffffffffffffffffffffff16906370a0823190602401602060405180830381865afa158015610f22573d6000803e3d6000fd5b505050506040513d601f19601f82011682018060405250810190610f469190611c81565b905082811080610f5e5750610f5b8684611d25565b81105b15610f95576040517f883d583b00000000000000000000000000000000000000000000000000000000815260040160405180910390fd5b610fb387602001518860e0015189604001518a61010001518a61132f565b95508315611102577f1c1cf3c8827d48db80e17913589584c81d7f8da7f2100c9a87a7bf64829a0e10546040517f2e1a7d4d0000000000000000000000000000000000000000000000000000000081526004810188905273ffffffffffffffffffffffffffffffffffffffff90911690632e1a7d4d90602401600060405180830381600087803b15801561104657600080fd5b505af115801561105a573d6000803e3d6000fd5b505050506000876000015173ffffffffffffffffffffffffffffffffffffffff168760405160006040518083038185875af1925050503d80600081146110bc576040519150601f19603f3d011682016040523d82523d6000602084013e6110c1565b606091505b50509050806110fc576040517f6d963f8800000000000000000000000000000000000000000000000000000000815260040160405180910390fd5b5061112c565b865160e088015161112c9173ffffffffffffffffffffffffffffffffffffffff90911690886113f0565b5050505050919050565b7f3029b773e586da235d6a0709bacd2cb14a2e6562f997f3c8684513a487bcbf7a5460ff16600103611194576040517f65d4e04900000000000000000000000000000000000000000000000000000000815260040160405180910390fd5b7f3029b773e586da235d6a0709bacd2cb14a2e6562f997f3c8684513a487bcbf7a805460017fffffffffffffffffffffffffffffffffffffffffffffffffffffffffffffff0090911617905580517f3029b773e586da235d6a0709bacd2cb14a2e6562f997f3c8684513a487bcbf7b5560208101517f3029b773e586da235d6a0709bacd2cb14a2e6562f997f3c8684513a487bcbf7c80547fffffffffffffffffffffffff000000000000000000000000000000000000000090811673ffffffffffffffffffffffffffffffffffffffff938416179091556040909201517f3029b773e586da235d6a0709bacd2cb14a2e6562f997f3c8684513a487bcbf7d80549093169116179055565b7f3029b773e586da235d6a0709bacd2cb14a2e6562f997f3c8684513a487bcbf7a5460ff166001036112fd576040517f129c8cdb00000000000000000000000000000000000000000000000000000000815260040160405180910390fd5b565b600061271061130e8382611d38565b61131c9061ffff1685611d5a565b6113269190611d71565b90505b92915050565b60006107d061ffff8516111561137a576040517f8ea70c070000000000000000000000000000000000000000000000000000000081526107d060048201526024015b60405180910390fd5b6000828481111561138c575050828203835b61271061ffff87168202049190910190600073ffffffffffffffffffffffffffffffffffffffff8916156113c657606460328402046113c9565b60005b90508083038382146113e1576113e18a8a8484611482565b50505090910395945050505050565b6040805173ffffffffffffffffffffffffffffffffffffffff8416602482015260448082018490528251808303909101815260649091019091526020810180517bffffffffffffffffffffffffffffffffffffffffffffffffffffffff167fa9059cbb0000000000000000000000000000000000000000000000000000000017905261147d908490611587565b505050565b7f4edbd34b5b006870ab724677d99b508debf8dcac0dc8134c9c43b93f8afe50f073ffffffffffffffffffffffffffffffffffffffff8416156114f25773ffffffffffffffffffffffffffffffffffffffff8516600090815260028201602052604090206114f09085611696565b505b6114fc8186611696565b5073ffffffffffffffffffffffffffffffffffffffff858116600081815260038401602090815260408083209489168084529482528083208054890190556004860182529182902080548801905581518781529081018690527fb9c71741297b7329823b5575aa676062720448277d6da61cf68eb0fed6c4baf4910160405180910390a35050505050565b60006115e9826040518060400160405280602081526020017f5361666545524332303a206c6f772d6c6576656c2063616c6c206661696c65648152508573ffffffffffffffffffffffffffffffffffffffff166116b89092919063ffffffff16565b905080516000148061160a57508080602001905181019061160a9190611dac565b61147d576040517f08c379a000000000000000000000000000000000000000000000000000000000815260206004820152602a60248201527f5361666545524332303a204552433230206f7065726174696f6e20646964206e60448201527f6f742073756363656564000000000000000000000000000000000000000000006064820152608401611371565b60006113268373ffffffffffffffffffffffffffffffffffffffff84166116cf565b60606116c7848460008561171e565b949350505050565b600081815260018301602052604081205461171657508154600181810184556000848152602080822090930184905584548482528286019093526040902091909155611329565b506000611329565b6060824710156117b0576040517f08c379a000000000000000000000000000000000000000000000000000000000815260206004820152602660248201527f416464726573733a20696e73756666696369656e742062616c616e636520666f60448201527f722063616c6c00000000000000000000000000000000000000000000000000006064820152608401611371565b6000808673ffffffffffffffffffffffffffffffffffffffff1685876040516117d99190611df9565b60006040518083038185875af1925050503d8060008114611816576040519150601f19603f3d011682016040523d82523d6000602084013e61181b565b606091505b509150915061182c87838387611837565b979650505050505050565b606083156118cd5782516000036118c65773ffffffffffffffffffffffffffffffffffffffff85163b6118c6576040517f08c379a000000000000000000000000000000000000000000000000000000000815260206004820152601d60248201527f416464726573733a2063616c6c20746f206e6f6e2d636f6e74726163740000006044820152606401611371565b50816116c7565b6116c783838151156118e25781518083602001fd5b806040517f08c379a00000000000000000000000000000000000000000000000000000000081526004016113719190611e15565b7f4e487b7100000000000000000000000000000000000000000000000000000000600052604160045260246000fd5b604051610120810167ffffffffffffffff8111828210171561196957611969611916565b60405290565b604051610140810167ffffffffffffffff8111828210171561196957611969611916565b803573ffffffffffffffffffffffffffffffffffffffff811681146119b757600080fd5b919050565b803561ffff811681146119b757600080fd5b803565ffffffffffff811681146119b757600080fd5b600082601f8301126119f557600080fd5b8135602067ffffffffffffffff80831115611a1257611a12611916565b8260051b6040517fffffffffffffffffffffffffffffffffffffffffffffffffffffffffffffffe0603f83011681018181108482111715611a5557611a55611916565b604052938452858101830193838101925087851115611a7357600080fd5b83870191505b8482101561182c57611a8a82611993565b83529183019190830190611a79565b600060208284031215611aab57600080fd5b813567ffffffffffffffff80821115611ac357600080fd5b908301906101208286031215611ad857600080fd5b611ae0611945565b8235815260208301356020820152611afa60408401611993565b6040820152611b0b606084016119bc565b6060820152611b1c608084016119bc565b6080820152611b2d60a084016119ce565b60a0820152611b3e60c08401611993565b60c082015260e083013582811115611b5557600080fd5b611b61878286016119e4565b60e0830152506101008084013583811115611b7b57600080fd5b611b87888287016119e4565b918301919091525095945050505050565b60006101408284031215611bab57600080fd5b611bb361196f565b611bbc83611993565b8152611bca60208401611993565b6020820152611bdb604084016119bc565b6040820152611bec606084016119bc565b606082015260808301356080820152611c0760a084016119ce565b60a0820152611c1860c08401611993565b60c0820152611c2960e08401611993565b60e08201526101008381013590820152610120611c47818501611993565b908201529392505050565b7f4e487b7100000000000000000000000000000000000000000000000000000000600052603260045260246000fd5b600060208284031215611c9357600080fd5b5051919050565b60008060408385031215611cad57600080fd5b505080516020909101519092909150565b7f4e487b7100000000000000000000000000000000000000000000000000000000600052601160045260246000fd5b60007f80000000000000000000000000000000000000000000000000000000000000008203611d1e57611d1e611cbe565b5060000390565b8082018082111561132957611329611cbe565b61ffff828116828216039080821115611d5357611d53611cbe565b5092915050565b808202811582820484141761132957611329611cbe565b600082611da7577f4e487b7100000000000000000000000000000000000000000000000000000000600052601260045260246000fd5b500490565b600060208284031215611dbe57600080fd5b81518015158114611dce57600080fd5b9392505050565b60005b83811015611df0578181015183820152602001611dd8565b50506000910152565b60008251611e0b818460208701611dd5565b9190910192915050565b6020815260008251806020840152611e34816040850160208701611dd5565b601f017fffffffffffffffffffffffffffffffffffffffffffffffffffffffffffffffe016919091016040019291505056fea2646970667358221220adb8c73ee527ac5d30a2c23e1dfe2ae76d7292c28e4b58ba16d44cff30c75ee164736f6c63430008130033",
  "devdoc": {
    "kind": "dev",
    "methods": {},
    "version": 1
  },
  "userdoc": {
    "errors": {
      "FeeTooHigh(uint16)": [
        {
          "notice": "The swap fee is over the maximum allowed"
        }
      ]
    },
    "kind": "user",
    "methods": {},
    "notice": "A router for any Uniswap V3 fork The pools are not trusted to deliver the correct amount of tokens, so the router verifies this. The pool addresses passed in as a parameter instead of being looked up from the factory. The caller may use `getPair` on the factory to calculate pool addresses.",
    "version": 1
  },
  "storageLayout": {
    "storage": [],
    "types": null
  }
}