{
  "address": "0x84Cd4555CeEA7B0A209232D2E47c316c08bAfDE8",
  "abi": [
    {
      "inputs": [],
      "name": "CallbackInactive",
      "type": "error"
    },
    {
      "inputs": [
        {
          "internalType": "int256",
          "name": "",
          "type": "int256"
        },
        {
          "internalType": "int256",
          "name": "",
          "type": "int256"
        },
        {
          "internalType": "bytes",
          "name": "",
          "type": "bytes"
        }
      ],
      "name": "uniswapV3SwapCallback",
      "outputs": [],
      "stateMutability": "nonpayable",
      "type": "function"
    }
  ],
  "transactionHash": "0xd195c234860e371d5c3a9394cc0fd567960221ecd585a9a63d840c29d6fe2604",
  "args": [],
  "numDeployments": 2,
  "solcInputHash": "8896f363218dc28dcce0dce6ecb03917",
  "bytecode": "0x608060405234801561000f575f80fd5b506107ab8061001d5f395ff3fe608060405234801561000f575f80fd5b5060043610610029575f3560e01c8063fa461e331461002d575b5f80fd5b61004061003b366004610649565b610042565b005b7f3029b773e586da235d6a0709bacd2cb14a2e6562f997f3c8684513a487bcbf7a5460ff166001146100a0576040517f7c0a084d00000000000000000000000000000000000000000000000000000000815260040160405180910390fd5b604080516060810182527f3029b773e586da235d6a0709bacd2cb14a2e6562f997f3c8684513a487bcbf7b5481527f3029b773e586da235d6a0709bacd2cb14a2e6562f997f3c8684513a487bcbf7c5473ffffffffffffffffffffffffffffffffffffffff908116602083018190527f3029b773e586da235d6a0709bacd2cb14a2e6562f997f3c8684513a487bcbf7d549091169282019290925290309003610173578051604082015161016e9173ffffffffffffffffffffffffffffffffffffffff9091169033906101f1565b6101a3565b6020810151815160408301516101a39273ffffffffffffffffffffffffffffffffffffffff9091169133906102ca565b50507f3029b773e586da235d6a0709bacd2cb14a2e6562f997f3c8684513a487bcbf7a80547fffffffffffffffffffffffffffffffffffffffffffffffffffffffffffffff00169055505050565b60405173ffffffffffffffffffffffffffffffffffffffff83166024820152604481018290526102c59084907fa9059cbb00000000000000000000000000000000000000000000000000000000906064015b604080517fffffffffffffffffffffffffffffffffffffffffffffffffffffffffffffffe08184030181529190526020810180517bffffffffffffffffffffffffffffffffffffffffffffffffffffffff167fffffffff000000000000000000000000000000000000000000000000000000009093169290921790915261032e565b505050565b60405173ffffffffffffffffffffffffffffffffffffffff808516602483015283166044820152606481018290526103289085907f23b872dd0000000000000000000000000000000000000000000000000000000090608401610243565b50505050565b5f61038f826040518060400160405280602081526020017f5361666545524332303a206c6f772d6c6576656c2063616c6c206661696c65648152508573ffffffffffffffffffffffffffffffffffffffff166104409092919063ffffffff16565b905080515f14806103af5750808060200190518101906103af91906106c2565b6102c5576040517f08c379a000000000000000000000000000000000000000000000000000000000815260206004820152602a60248201527f5361666545524332303a204552433230206f7065726174696f6e20646964206e60448201527f6f7420737563636565640000000000000000000000000000000000000000000060648201526084015b60405180910390fd5b606061044e84845f85610456565b949350505050565b6060824710156104e8576040517f08c379a000000000000000000000000000000000000000000000000000000000815260206004820152602660248201527f416464726573733a20696e73756666696369656e742062616c616e636520666f60448201527f722063616c6c00000000000000000000000000000000000000000000000000006064820152608401610437565b5f808673ffffffffffffffffffffffffffffffffffffffff168587604051610510919061070a565b5f6040518083038185875af1925050503d805f811461054a576040519150601f19603f3d011682016040523d82523d5f602084013e61054f565b606091505b50915091506105608783838761056b565b979650505050505050565b606083156106005782515f036105f95773ffffffffffffffffffffffffffffffffffffffff85163b6105f9576040517f08c379a000000000000000000000000000000000000000000000000000000000815260206004820152601d60248201527f416464726573733a2063616c6c20746f206e6f6e2d636f6e74726163740000006044820152606401610437565b508161044e565b61044e83838151156106155781518083602001fd5b806040517f08c379a00000000000000000000000000000000000000000000000000000000081526004016104379190610725565b5f805f806060858703121561065c575f80fd5b8435935060208501359250604085013567ffffffffffffffff80821115610681575f80fd5b818701915087601f830112610694575f80fd5b8135818111156106a2575f80fd5b8860208285010111156106b3575f80fd5b95989497505060200194505050565b5f602082840312156106d2575f80fd5b815180151581146106e1575f80fd5b9392505050565b5f5b838110156107025781810151838201526020016106ea565b50505f910152565b5f825161071b8184602087016106e8565b9190910192915050565b602081525f82518060208401526107438160408501602087016106e8565b601f017fffffffffffffffffffffffffffffffffffffffffffffffffffffffffffffffe016919091016040019291505056fea2646970667358221220ae02e27e1c69aecaba76c293c13c739b4f1d118ec67f28014cbdb9963ac87b3b64736f6c63430008150033",
  "devdoc": {
    "kind": "dev",
    "methods": {},
    "version": 1
  },
  "userdoc": {
    "kind": "user",
    "methods": {
      "uniswapV3SwapCallback(int256,int256,bytes)": {
        "notice": "See https://github.com/Uniswap/v3-periphery/blob/main/contracts/SwapRouter.sol NOTE: None of these arguments can be trusted"
      }
    },
    "version": 1
  },
  "storageLayout": {
    "storage": [],
    "types": null
  }
}