{
  "address": "0x72FFbe9f1261a001c30a8D16aA2514f81AfEddCA",
  "abi": [
    {
      "inputs": [],
      "name": "AlreadyInitialized",
      "type": "error"
    },
    {
      "inputs": [],
      "name": "EthTransferFailed",
      "type": "error"
    },
    {
      "inputs": [
        {
          "internalType": "address",
          "name": "_uniswapV2Router02",
          "type": "address"
        }
      ],
      "name": "initUniV2Router",
      "outputs": [],
      "stateMutability": "nonpayable",
      "type": "function"
    },
    {
      "inputs": [
        {
          "internalType": "uint256",
          "name": "amountOut",
          "type": "uint256"
        },
        {
          "internalType": "address[]",
          "name": "path",
          "type": "address[]"
        },
        {
          "internalType": "address",
          "name": "to",
          "type": "address"
        },
        {
          "internalType": "uint256",
          "name": "slippage",
          "type": "uint256"
        },
        {
          "internalType": "uint256",
          "name": "deadline",
          "type": "uint256"
        }
      ],
      "name": "uniswapV2SwapExactETHForTokens",
      "outputs": [
        {
          "internalType": "uint256[]",
          "name": "amounts",
          "type": "uint256[]"
        }
      ],
      "stateMutability": "payable",
      "type": "function"
    },
    {
      "inputs": [
        {
          "internalType": "uint256",
          "name": "amountIn",
          "type": "uint256"
        },
        {
          "internalType": "uint256",
          "name": "amountOut",
          "type": "uint256"
        },
        {
          "internalType": "address[]",
          "name": "path",
          "type": "address[]"
        },
        {
          "internalType": "address payable",
          "name": "to",
          "type": "address"
        },
        {
          "internalType": "uint256",
          "name": "slippage",
          "type": "uint256"
        },
        {
          "internalType": "uint256",
          "name": "deadline",
          "type": "uint256"
        }
      ],
      "name": "uniswapV2SwapExactTokensForETH",
      "outputs": [
        {
          "internalType": "uint256[]",
          "name": "amounts",
          "type": "uint256[]"
        }
      ],
      "stateMutability": "nonpayable",
      "type": "function"
    },
    {
      "inputs": [
        {
          "internalType": "uint256",
          "name": "amountIn",
          "type": "uint256"
        },
        {
          "internalType": "uint256",
          "name": "amountOut",
          "type": "uint256"
        },
        {
          "internalType": "address[]",
          "name": "path",
          "type": "address[]"
        },
        {
          "internalType": "address",
          "name": "to",
          "type": "address"
        },
        {
          "internalType": "uint256",
          "name": "slippage",
          "type": "uint256"
        },
        {
          "internalType": "uint256",
          "name": "deadline",
          "type": "uint256"
        }
      ],
      "name": "uniswapV2SwapExactTokensForTokens",
      "outputs": [
        {
          "internalType": "uint256[]",
          "name": "amounts",
          "type": "uint256[]"
        }
      ],
      "stateMutability": "nonpayable",
      "type": "function"
    }
  ],
  "transactionHash": "0xad3d5c20d4a4fc906a86adb1b03b002347f2d87074803e007bc9bc828ee6f856",
  "args": [],
  "numDeployments": 1,
  "solcInputHash": "06caccaaf8aecad836bcca193f537917",
  "bytecode": "0x608060405234801561000f575f80fd5b5061145c8061001d5f395ff3fe60806040526004361061003e575f3560e01c8063410e4f7314610042578063648bf06c1461006b5780639f5c72751461008a578063dead52a9146100ab575b5f80fd5b610055610050366004611049565b6100ca565b60405161006291906110af565b60405180910390f35b348015610076575f80fd5b506100556100853660046110f2565b610296565b348015610095575f80fd5b506100a96100a4366004611162565b610486565b005b3480156100b6575f80fd5b506100556100c53660046110f2565b6105e8565b7fcd4d5c78b9e1b4c12c165f6dabad75194d4ff180375bd5b3c4499489a642191c8054855160609291610100900473ffffffffffffffffffffffffffffffffffffffff169087905f9061011f5761011f611184565b73ffffffffffffffffffffffffffffffffffffffff9283166020918202929092010152600182015416637ff36ab5346127108781038b02048930886040518663ffffffff1660e01b81526004016101799493929190611200565b5f6040518083038185885af1158015610194573d5f803e3d5ffd5b50505050506040513d5f823e601f3d9081017fffffffffffffffffffffffffffffffffffffffffffffffffffffffffffffffe01682016040526101da9190810190611241565b91505f600187516101eb91906112c2565b90508783828151811061020057610200611184565b6020026020010151111561022e578783828151811061022157610221611184565b6020026020010181815250505b61028b8684838151811061024457610244611184565b602002602001015189848151811061025e5761025e611184565b602002602001015173ffffffffffffffffffffffffffffffffffffffff166108729092919063ffffffff16565b505095945050505050565b60605f7fcd4d5c78b9e1b4c12c165f6dabad75194d4ff180375bd5b3c4499489a642191c905061030233308a895f815181106102d4576102d4611184565b602002602001015173ffffffffffffffffffffffffffffffffffffffff1661094b909392919063ffffffff16565b600181015486516103639173ffffffffffffffffffffffffffffffffffffffff16908a9089905f9061033657610336611184565b602002602001015173ffffffffffffffffffffffffffffffffffffffff166109af9092919063ffffffff16565b600181015473ffffffffffffffffffffffffffffffffffffffff166338ed1739896127108781038b02048930886040518663ffffffff1660e01b81526004016103b0959493929190611300565b5f604051808303815f875af11580156103cb573d5f803e3d5ffd5b505050506040513d5f823e601f3d9081017fffffffffffffffffffffffffffffffffffffffffffffffffffffffffffffffe01682016040526104109190810190611241565b91505f6001875161042191906112c2565b90508783828151811061043657610436611184565b60200260200101511115610464578783828151811061045757610457611184565b6020026020010181815250505b61047a8684838151811061024457610244611184565b50509695505050505050565b61048e610b34565b7fcd4d5c78b9e1b4c12c165f6dabad75194d4ff180375bd5b3c4499489a642191c805460ff166105e45780547fffffffffffffffffffffffffffffffffffffffffffffffffffffffffffffff0016600190811782558101805473ffffffffffffffffffffffffffffffffffffffff84167fffffffffffffffffffffffff00000000000000000000000000000000000000009091168117909155604080517fad5c4648000000000000000000000000000000000000000000000000000000008152905163ad5c4648916004808201926020929091908290030181865afa158015610579573d5f803e3d5ffd5b505050506040513d601f19601f8201168201806040525081019061059d9190611348565b815473ffffffffffffffffffffffffffffffffffffffff91909116610100027fffffffffffffffffffffff0000000000000000000000000000000000000000ff9091161781555b5050565b60605f7fcd4d5c78b9e1b4c12c165f6dabad75194d4ff180375bd5b3c4499489a642191c905061062633308a895f815181106102d4576102d4611184565b6001810154865161065a9173ffffffffffffffffffffffffffffffffffffffff16908a9089905f9061033657610336611184565b5f6001875161066991906112c2565b82548851919250610100900473ffffffffffffffffffffffffffffffffffffffff169088908390811061069e5761069e611184565b73ffffffffffffffffffffffffffffffffffffffff928316602091820292909201015260018301546040517f18cbafe50000000000000000000000000000000000000000000000000000000081529116906318cbafe590610713908c906127108a81038e0204908c9030908b90600401611300565b5f604051808303815f875af115801561072e573d5f803e3d5ffd5b505050506040513d5f823e601f3d9081017fffffffffffffffffffffffffffffffffffffffffffffffffffffffffffffffe01682016040526107739190810190611241565b92508783828151811061078857610788611184565b602002602001015111156107b657878382815181106107a9576107a9611184565b6020026020010181815250505b5f8673ffffffffffffffffffffffffffffffffffffffff168483815181106107e0576107e0611184565b60200260200101516040515f6040518083038185875af1925050503d805f8114610825576040519150601f19603f3d011682016040523d82523d5f602084013e61082a565b606091505b5050905080610865576040517f6d963f8800000000000000000000000000000000000000000000000000000000815260040160405180910390fd5b5050509695505050505050565b60405173ffffffffffffffffffffffffffffffffffffffff83166024820152604481018290526109469084907fa9059cbb00000000000000000000000000000000000000000000000000000000906064015b604080517fffffffffffffffffffffffffffffffffffffffffffffffffffffffffffffffe08184030181529190526020810180517bffffffffffffffffffffffffffffffffffffffffffffffffffffffff167fffffffff0000000000000000000000000000000000000000000000000000000090931692909217909152610bff565b505050565b60405173ffffffffffffffffffffffffffffffffffffffff808516602483015283166044820152606481018290526109a99085907f23b872dd00000000000000000000000000000000000000000000000000000000906084016108c4565b50505050565b801580610a4d57506040517fdd62ed3e00000000000000000000000000000000000000000000000000000000815230600482015273ffffffffffffffffffffffffffffffffffffffff838116602483015284169063dd62ed3e90604401602060405180830381865afa158015610a27573d5f803e3d5ffd5b505050506040513d601f19601f82011682018060405250810190610a4b9190611363565b155b610ade576040517f08c379a000000000000000000000000000000000000000000000000000000000815260206004820152603660248201527f5361666545524332303a20617070726f76652066726f6d206e6f6e2d7a65726f60448201527f20746f206e6f6e2d7a65726f20616c6c6f77616e63650000000000000000000060648201526084015b60405180910390fd5b60405173ffffffffffffffffffffffffffffffffffffffff83166024820152604481018290526109469084907f095ea7b300000000000000000000000000000000000000000000000000000000906064016108c4565b7fc8fcad8db84d3cc18b4c41d551ea0ee66dd599cde068d998e57d5e09332c131c6003015473ffffffffffffffffffffffffffffffffffffffff163314610bfd576040517f08c379a000000000000000000000000000000000000000000000000000000000815260206004820152602260248201527f4c69624469616d6f6e643a204d75737420626520636f6e7472616374206f776e60448201527f65720000000000000000000000000000000000000000000000000000000000006064820152608401610ad5565b565b5f610c60826040518060400160405280602081526020017f5361666545524332303a206c6f772d6c6576656c2063616c6c206661696c65648152508573ffffffffffffffffffffffffffffffffffffffff16610d0c9092919063ffffffff16565b905080515f1480610c80575080806020019051810190610c80919061137a565b610946576040517f08c379a000000000000000000000000000000000000000000000000000000000815260206004820152602a60248201527f5361666545524332303a204552433230206f7065726174696f6e20646964206e60448201527f6f742073756363656564000000000000000000000000000000000000000000006064820152608401610ad5565b6060610d1a84845f85610d22565b949350505050565b606082471015610db4576040517f08c379a000000000000000000000000000000000000000000000000000000000815260206004820152602660248201527f416464726573733a20696e73756666696369656e742062616c616e636520666f60448201527f722063616c6c00000000000000000000000000000000000000000000000000006064820152608401610ad5565b5f808673ffffffffffffffffffffffffffffffffffffffff168587604051610ddc91906113bb565b5f6040518083038185875af1925050503d805f8114610e16576040519150601f19603f3d011682016040523d82523d5f602084013e610e1b565b606091505b5091509150610e2c87838387610e37565b979650505050505050565b60608315610ecc5782515f03610ec55773ffffffffffffffffffffffffffffffffffffffff85163b610ec5576040517f08c379a000000000000000000000000000000000000000000000000000000000815260206004820152601d60248201527f416464726573733a2063616c6c20746f206e6f6e2d636f6e74726163740000006044820152606401610ad5565b5081610d1a565b610d1a8383815115610ee15781518083602001fd5b806040517f08c379a0000000000000000000000000000000000000000000000000000000008152600401610ad591906113d6565b7f4e487b71000000000000000000000000000000000000000000000000000000005f52604160045260245ffd5b604051601f82017fffffffffffffffffffffffffffffffffffffffffffffffffffffffffffffffe016810167ffffffffffffffff81118282101715610f8957610f89610f15565b604052919050565b5f67ffffffffffffffff821115610faa57610faa610f15565b5060051b60200190565b73ffffffffffffffffffffffffffffffffffffffff81168114610fd5575f80fd5b50565b5f82601f830112610fe7575f80fd5b81356020610ffc610ff783610f91565b610f42565b82815260059290921b8401810191818101908684111561101a575f80fd5b8286015b8481101561103e57803561103181610fb4565b835291830191830161101e565b509695505050505050565b5f805f805f60a0868803121561105d575f80fd5b85359450602086013567ffffffffffffffff81111561107a575f80fd5b61108688828901610fd8565b945050604086013561109781610fb4565b94979396509394606081013594506080013592915050565b602080825282518282018190525f9190848201906040850190845b818110156110e6578351835292840192918401916001016110ca565b50909695505050505050565b5f805f805f8060c08789031215611107575f80fd5b8635955060208701359450604087013567ffffffffffffffff81111561112b575f80fd5b61113789828a01610fd8565b945050606087013561114881610fb4565b9598949750929560808101359460a0909101359350915050565b5f60208284031215611172575f80fd5b813561117d81610fb4565b9392505050565b7f4e487b71000000000000000000000000000000000000000000000000000000005f52603260045260245ffd5b5f8151808452602080850194508084015f5b838110156111f557815173ffffffffffffffffffffffffffffffffffffffff16875295820195908201906001016111c3565b509495945050505050565b848152608060208201525f61121860808301866111b1565b73ffffffffffffffffffffffffffffffffffffffff949094166040830152506060015292915050565b5f6020808385031215611252575f80fd5b825167ffffffffffffffff811115611268575f80fd5b8301601f81018513611278575f80fd5b8051611286610ff782610f91565b81815260059190911b820183019083810190878311156112a4575f80fd5b928401925b82841015610e2c578351825292840192908401906112a9565b818103818111156112fa577f4e487b71000000000000000000000000000000000000000000000000000000005f52601160045260245ffd5b92915050565b85815284602082015260a060408201525f61131e60a08301866111b1565b73ffffffffffffffffffffffffffffffffffffffff94909416606083015250608001529392505050565b5f60208284031215611358575f80fd5b815161117d81610fb4565b5f60208284031215611373575f80fd5b5051919050565b5f6020828403121561138a575f80fd5b8151801515811461117d575f80fd5b5f5b838110156113b357818101518382015260200161139b565b50505f910152565b5f82516113cc818460208701611399565b9190910192915050565b602081525f82518060208401526113f4816040850160208701611399565b601f017fffffffffffffffffffffffffffffffffffffffffffffffffffffffffffffffe016919091016040019291505056fea26469706673582212201e18621aba2207e179d657472545c7a2167feb57e507b2079ca9b0bec57cde0a64736f6c63430008150033",
  "devdoc": {
    "kind": "dev",
    "methods": {
      "uniswapV2SwapExactETHForTokens(uint256,address[],address,uint256,uint256)": {
        "params": {
          "amountOut": "Quoted amount out",
          "deadline": "Deadline in unix timestamp",
          "path": "[input coin, ..., output coin]",
          "slippage": "Slippage tolerance in bps",
          "to": "Recipient of output coin"
        }
      }
    },
    "version": 1
  },
  "userdoc": {
    "kind": "user",
    "methods": {},
    "version": 1
  },
  "storageLayout": {
    "storage": [],
    "types": null
  }
}