{
  "address": "0x3a3483806587f0e47c000A9956b147e9751923bE",
  "abi": [
    {
      "inputs": [],
      "name": "DeadlineExpired",
      "type": "error"
    },
    {
      "inputs": [],
      "name": "EthTransferFailed",
      "type": "error"
    },
    {
      "inputs": [
        {
          "internalType": "uint16",
          "name": "maxFeeBps",
          "type": "uint16"
        }
      ],
      "name": "FeeTooHigh",
      "type": "error"
    },
    {
      "inputs": [],
      "name": "IncorrectEthValue",
      "type": "error"
    },
    {
      "inputs": [],
      "name": "InsufficienTokensDelivered",
      "type": "error"
    },
    {
      "inputs": [],
      "name": "InsufficientOutputAmount",
      "type": "error"
    },
    {
      "anonymous": false,
      "inputs": [
        {
          "indexed": true,
          "internalType": "address",
          "name": "partner",
          "type": "address"
        },
        {
          "indexed": true,
          "internalType": "address",
          "name": "token",
          "type": "address"
        },
        {
          "indexed": false,
          "internalType": "uint256",
          "name": "partnerFee",
          "type": "uint256"
        },
        {
          "indexed": false,
          "internalType": "uint256",
          "name": "diamondFee",
          "type": "uint256"
        }
      ],
      "name": "CollectedFee",
      "type": "event"
    },
    {
      "inputs": [
        {
          "components": [
            {
              "internalType": "uint256",
              "name": "amountIn",
              "type": "uint256"
            },
            {
              "internalType": "uint256",
              "name": "amountOut",
              "type": "uint256"
            },
            {
              "internalType": "uint16[]",
              "name": "poolFeesBps",
              "type": "uint16[]"
            },
            {
              "internalType": "address",
              "name": "recipient",
              "type": "address"
            },
            {
              "internalType": "uint16",
              "name": "slippageBps",
              "type": "uint16"
            },
            {
              "internalType": "uint16",
              "name": "feeBps",
              "type": "uint16"
            },
            {
              "internalType": "uint48",
              "name": "deadline",
              "type": "uint48"
            },
            {
              "internalType": "address",
              "name": "partner",
              "type": "address"
            },
            {
              "internalType": "address[]",
              "name": "tokens",
              "type": "address[]"
            },
            {
              "internalType": "address[]",
              "name": "pools",
              "type": "address[]"
            }
          ],
          "internalType": "struct IUniV2Like.ExactInputParams",
          "name": "params",
          "type": "tuple"
        }
      ],
      "name": "uniswapV2LikeExactInput",
      "outputs": [
        {
          "internalType": "uint256",
          "name": "amountOut",
          "type": "uint256"
        }
      ],
      "stateMutability": "payable",
      "type": "function"
    },
    {
      "inputs": [
        {
          "components": [
            {
              "internalType": "uint256",
              "name": "amountIn",
              "type": "uint256"
            },
            {
              "internalType": "uint256",
              "name": "amountOut",
              "type": "uint256"
            },
            {
              "internalType": "address",
              "name": "recipient",
              "type": "address"
            },
            {
              "internalType": "address",
              "name": "pool",
              "type": "address"
            },
            {
              "internalType": "uint16",
              "name": "feeBps",
              "type": "uint16"
            },
            {
              "internalType": "uint16",
              "name": "slippageBps",
              "type": "uint16"
            },
            {
              "internalType": "address",
              "name": "partner",
              "type": "address"
            },
            {
              "internalType": "address",
              "name": "tokenIn",
              "type": "address"
            },
            {
              "internalType": "address",
              "name": "tokenOut",
              "type": "address"
            },
            {
              "internalType": "uint16",
              "name": "poolFeeBps",
              "type": "uint16"
            },
            {
              "internalType": "uint48",
              "name": "deadline",
              "type": "uint48"
            }
          ],
          "internalType": "struct IUniV2Like.ExactInputSingleParams",
          "name": "params",
          "type": "tuple"
        }
      ],
      "name": "uniswapV2LikeExactInputSingle",
      "outputs": [
        {
          "internalType": "uint256",
          "name": "amountOut",
          "type": "uint256"
        }
      ],
      "stateMutability": "payable",
      "type": "function"
    }
  ],
  "transactionHash": "0xed6100a3faa1492b6923ddf1a0024fae70914ae959ca8054f2ff7d9375425d2d",
  "args": [],
  "numDeployments": 2,
  "solcInputHash": "b3e79b299ff67309e24953e67dc08b9d",
  "bytecode": "0x608060405234801561000f575f80fd5b50611fac8061001d5f395ff3fe608060405260043610610028575f3560e01c8063baa8ed351461002c578063c83ee48414610051575b5f80fd5b61003f61003a366004611a4c565b610064565b60405190815260200160405180910390f35b61003f61005f366004611c07565b6107c6565b5f81610140015165ffffffffffff164211156100ac576040517f1ab7da6b00000000000000000000000000000000000000000000000000000000815260040160405180910390fd5b60e08201516101008301517f1c1cf3c8827d48db80e17913589584c81d7f8da7f2100c9a87a7bf64829a0e109173ffffffffffffffffffffffffffffffffffffffff908116159116155f81610193576101008601516040517f70a0823100000000000000000000000000000000000000000000000000000000815230600482015273ffffffffffffffffffffffffffffffffffffffff909116906370a0823190602401602060405180830381865afa15801561016a573d5f803e3d5ffd5b505050506040513d601f19601f8201168201806040525081019061018e9190611d25565b610195565b475b905082156101bb57835473ffffffffffffffffffffffffffffffffffffffff1660e08701525b81156101e057835473ffffffffffffffffffffffffffffffffffffffff166101008701525b5f80876060015173ffffffffffffffffffffffffffffffffffffffff16630902f1ac6040518163ffffffff1660e01b8152600401606060405180830381865afa15801561022f573d5f803e3d5ffd5b505050506040513d601f19601f820116820180604052508101906102539190611d59565b506dffffffffffffffffffffffffffff1691506dffffffffffffffffffffffffffff16915087610100015173ffffffffffffffffffffffffffffffffffffffff168860e0015173ffffffffffffffffffffffffffffffffffffffff1611156102b757905b610120880151885161ffff61271092830316918402908202908101908302816102e2576102e2611da5565b049750506102f888602001518960a00151611058565b871015610331576040517f42301c2300000000000000000000000000000000000000000000000000000000815260040160405180910390fd5b84156104235787513414610371576040517fab0a033b00000000000000000000000000000000000000000000000000000000815260040160405180910390fd5b8554604080517fd0e30db0000000000000000000000000000000000000000000000000000000008152905173ffffffffffffffffffffffffffffffffffffffff9092169163d0e30db09134916004808301925f92919082900301818588803b1580156103db575f80fd5b505af11580156103ed573d5f803e3d5ffd5b50505060608a01518a5160e08c015161041e945073ffffffffffffffffffffffffffffffffffffffff169250611087565b610454565b6060880151885160e08a01516104549273ffffffffffffffffffffffffffffffffffffffff90911691339190611160565b5f88610100015173ffffffffffffffffffffffffffffffffffffffff168960e0015173ffffffffffffffffffffffffffffffffffffffff1610610497575f61049a565b60015b9050886060015173ffffffffffffffffffffffffffffffffffffffff1663022c0d9f826104c757896104c9565b5f5b836104d4575f6104d6565b8a5b6040517fffffffff0000000000000000000000000000000000000000000000000000000060e085901b16815260048101929092526024820152306044820152608060648201525f608482015260a4015f604051808303815f87803b15801561053c575f80fd5b505af115801561054e573d5f803e3d5ffd5b505050505f856105f0576101008a01516040517f70a0823100000000000000000000000000000000000000000000000000000000815230600482015273ffffffffffffffffffffffffffffffffffffffff909116906370a0823190602401602060405180830381865afa1580156105c7573d5f803e3d5ffd5b505050506040513d601f19601f820116820180604052508101906105eb9190611d25565b6105f2565b475b90508481108061060a57506106078986611dff565b81105b15610641576040517f883d583b00000000000000000000000000000000000000000000000000000000815260040160405180910390fd5b61065f8a60c001518b61010001518c608001518d602001518d6111c4565b985085156107855787546040517f2e1a7d4d000000000000000000000000000000000000000000000000000000008152600481018b905273ffffffffffffffffffffffffffffffffffffffff90911690632e1a7d4d906024015f604051808303815f87803b1580156106cf575f80fd5b505af11580156106e1573d5f803e3d5ffd5b505050505f8a6040015173ffffffffffffffffffffffffffffffffffffffff168a6040515f6040518083038185875af1925050503d805f811461073f576040519150601f19603f3d011682016040523d82523d5f602084013e610744565b606091505b505090508061077f576040517f6d963f8800000000000000000000000000000000000000000000000000000000815260040160405180910390fd5b506107b9565b6107b98a604001518a8c610100015173ffffffffffffffffffffffffffffffffffffffff166110879092919063ffffffff16565b5050505050505050919050565b5f8160c0015165ffffffffffff1642111561080d576040517f1ab7da6b00000000000000000000000000000000000000000000000000000000815260040160405180910390fd5b6101208201515161010083015180517f1c1cf3c8827d48db80e17913589584c81d7f8da7f2100c9a87a7bf64829a0e1092915f91829190829061085257610852611e12565b602002602001015173ffffffffffffffffffffffffffffffffffffffff161490505f8073ffffffffffffffffffffffffffffffffffffffff1686610100015184815181106108a2576108a2611e12565b602002602001015173ffffffffffffffffffffffffffffffffffffffff161490505f8161097d5786610100015184815181106108e0576108e0611e12565b60209081029190910101516040517f70a0823100000000000000000000000000000000000000000000000000000000815230600482015273ffffffffffffffffffffffffffffffffffffffff909116906370a0823190602401602060405180830381865afa158015610954573d5f803e3d5ffd5b505050506040513d601f19601f820116820180604052508101906109789190611d25565b61097f565b475b90505f61099f8860400151895f01518a61010001518b6101200151611281565b90506109b388602001518960800151611058565b81600183516109c29190611e3f565b815181106109d2576109d2611e12565b60200260200101511015610a12576040517f42301c2300000000000000000000000000000000000000000000000000000000815260040160405180910390fd5b8315610b425787513414610a52576040517fab0a033b00000000000000000000000000000000000000000000000000000000815260040160405180910390fd5b8554604080517fd0e30db0000000000000000000000000000000000000000000000000000000008152905173ffffffffffffffffffffffffffffffffffffffff9092169163d0e30db09134916004808301925f92919082900301818588803b158015610abc575f80fd5b505af1158015610ace573d5f803e3d5ffd5b5050505050610b3d8861012001515f81518110610aed57610aed611e12565b6020026020010151895f01518a61010001515f81518110610b1057610b10611e12565b602002602001015173ffffffffffffffffffffffffffffffffffffffff166110879092919063ffffffff16565b610bae565b610bae338961012001515f81518110610b5d57610b5d611e12565b60200260200101518a5f01518b61010001515f81518110610b8057610b80611e12565b602002602001015173ffffffffffffffffffffffffffffffffffffffff16611160909392919063ffffffff16565b5f5b85811015610daa575f610bc4826001611dff565b90505f8a61010001518281518110610bde57610bde611e12565b602002602001015173ffffffffffffffffffffffffffffffffffffffff168b61010001518481518110610c1357610c13611e12565b602002602001015173ffffffffffffffffffffffffffffffffffffffff1610610c3c575f610c3f565b60015b90505f60028c610100015151610c559190611e3f565b8410610c615730610c81565b8b61012001518381518110610c7857610c78611e12565b60200260200101515b90508b61012001518481518110610c9a57610c9a611e12565b602002602001015173ffffffffffffffffffffffffffffffffffffffff1663022c0d9f83610ce157868581518110610cd457610cd4611e12565b6020026020010151610ce3565b5f5b84610cee575f610d09565b878681518110610d0057610d00611e12565b60200260200101515b6040517fffffffff0000000000000000000000000000000000000000000000000000000060e085901b1681526004810192909252602482015273ffffffffffffffffffffffffffffffffffffffff84166044820152608060648201525f608482015260a4015f604051808303815f87803b158015610d85575f80fd5b505af1158015610d97573d5f803e3d5ffd5b505060019095019450610bb09350505050565b505f83610e65578861010001518681518110610dc857610dc8611e12565b60209081029190910101516040517f70a0823100000000000000000000000000000000000000000000000000000000815230600482015273ffffffffffffffffffffffffffffffffffffffff909116906370a0823190602401602060405180830381865afa158015610e3c573d5f803e3d5ffd5b505050506040513d601f19601f82011682018060405250810190610e609190611d25565b610e67565b475b905082811080610e7f5750610e7c8884611dff565b81105b15610eb6576040517f883d583b00000000000000000000000000000000000000000000000000000000815260040160405180910390fd5b610f068960e001518a61010001518881518110610ed557610ed5611e12565b60200260200101518b60a001518c60200151868b81518110610ef957610ef9611e12565b60200260200101516111c4565b9750831561102c5786546040517f2e1a7d4d000000000000000000000000000000000000000000000000000000008152600481018a905273ffffffffffffffffffffffffffffffffffffffff90911690632e1a7d4d906024015f604051808303815f87803b158015610f76575f80fd5b505af1158015610f88573d5f803e3d5ffd5b505050505f896060015173ffffffffffffffffffffffffffffffffffffffff16896040515f6040518083038185875af1925050503d805f8114610fe6576040519150601f19603f3d011682016040523d82523d5f602084013e610feb565b606091505b5050905080611026576040517f6d963f8800000000000000000000000000000000000000000000000000000000815260040160405180910390fd5b5061104c565b61104c8960600151898b61010001518981518110610b1057610b10611e12565b50505050505050919050565b5f6127106110668382611e52565b6110749061ffff1685611e74565b61107e9190611e8b565b90505b92915050565b60405173ffffffffffffffffffffffffffffffffffffffff831660248201526044810182905261115b9084907fa9059cbb00000000000000000000000000000000000000000000000000000000906064015b604080517fffffffffffffffffffffffffffffffffffffffffffffffffffffffffffffffe08184030181529190526020810180517bffffffffffffffffffffffffffffffffffffffffffffffffffffffff167fffffffff00000000000000000000000000000000000000000000000000000000909316929092179091526114ae565b505050565b60405173ffffffffffffffffffffffffffffffffffffffff808516602483015283166044820152606481018290526111be9085907f23b872dd00000000000000000000000000000000000000000000000000000000906084016110d9565b50505050565b5f6107d061ffff8516111561120e576040517f8ea70c070000000000000000000000000000000000000000000000000000000081526107d060048201526024015b60405180910390fd5b5f828481111561121f575050828203835b61271061ffff871682020491909101905f73ffffffffffffffffffffffffffffffffffffffff891615611258576064603284020461125a565b5f5b9050808303838214611272576112728a8a84846115bb565b50505090910395945050505050565b805182516060919067ffffffffffffffff8111156112a1576112a1611934565b6040519080825280602002602001820160405280156112ca578160200160208202803683370190505b50915084825f815181106112e0576112e0611e12565b6020026020010181815250505f5b818110156114a4575f85828151811061130957611309611e12565b602002602001015190505f868360016113229190611dff565b8151811061133257611332611e12565b602002602001015190505f89848151811061134f5761134f611e12565b60200260200101516127106113649190611e52565b61ffff1690505f8088868151811061137e5761137e611e12565b602002602001015173ffffffffffffffffffffffffffffffffffffffff16630902f1ac6040518163ffffffff1660e01b8152600401606060405180830381865afa1580156113ce573d5f803e3d5ffd5b505050506040513d601f19601f820116820180604052508101906113f29190611d59565b506dffffffffffffffffffffffffffff1691506dffffffffffffffffffffffffffff1691508373ffffffffffffffffffffffffffffffffffffffff168573ffffffffffffffffffffffffffffffffffffffff16111561144d57905b828b0282612710020181848d02028161146857611468611da5565b049a508a88611478886001611dff565b8151811061148857611488611e12565b60209081029190910101525050600190930192506112ee915050565b5050949350505050565b5f61150f826040518060400160405280602081526020017f5361666545524332303a206c6f772d6c6576656c2063616c6c206661696c65648152508573ffffffffffffffffffffffffffffffffffffffff166116be9092919063ffffffff16565b905080515f148061152f57508080602001905181019061152f9190611ec3565b61115b576040517f08c379a000000000000000000000000000000000000000000000000000000000815260206004820152602a60248201527f5361666545524332303a204552433230206f7065726174696f6e20646964206e60448201527f6f742073756363656564000000000000000000000000000000000000000000006064820152608401611205565b7f4edbd34b5b006870ab724677d99b508debf8dcac0dc8134c9c43b93f8afe50f073ffffffffffffffffffffffffffffffffffffffff84161561162a5773ffffffffffffffffffffffffffffffffffffffff85165f908152600282016020526040902061162890856116d4565b505b61163481866116d4565b5073ffffffffffffffffffffffffffffffffffffffff8581165f81815260038401602090815260408083209489168084529482528083208054890190556004860182529182902080548801905581518781529081018690527fb9c71741297b7329823b5575aa676062720448277d6da61cf68eb0fed6c4baf4910160405180910390a35050505050565b60606116cc84845f856116f5565b949350505050565b5f61107e8373ffffffffffffffffffffffffffffffffffffffff841661180a565b606082471015611787576040517f08c379a000000000000000000000000000000000000000000000000000000000815260206004820152602660248201527f416464726573733a20696e73756666696369656e742062616c616e636520666f60448201527f722063616c6c00000000000000000000000000000000000000000000000000006064820152608401611205565b5f808673ffffffffffffffffffffffffffffffffffffffff1685876040516117af9190611f0b565b5f6040518083038185875af1925050503d805f81146117e9576040519150601f19603f3d011682016040523d82523d5f602084013e6117ee565b606091505b50915091506117ff87838387611856565b979650505050505050565b5f81815260018301602052604081205461184f57508154600181810184555f848152602080822090930184905584548482528286019093526040902091909155611081565b505f611081565b606083156118eb5782515f036118e45773ffffffffffffffffffffffffffffffffffffffff85163b6118e4576040517f08c379a000000000000000000000000000000000000000000000000000000000815260206004820152601d60248201527f416464726573733a2063616c6c20746f206e6f6e2d636f6e74726163740000006044820152606401611205565b50816116cc565b6116cc83838151156119005781518083602001fd5b806040517f08c379a00000000000000000000000000000000000000000000000000000000081526004016112059190611f26565b7f4e487b71000000000000000000000000000000000000000000000000000000005f52604160045260245ffd5b604051610160810167ffffffffffffffff8111828210171561198557611985611934565b60405290565b604051610140810167ffffffffffffffff8111828210171561198557611985611934565b604051601f82017fffffffffffffffffffffffffffffffffffffffffffffffffffffffffffffffe016810167ffffffffffffffff811182821017156119f6576119f6611934565b604052919050565b803573ffffffffffffffffffffffffffffffffffffffff81168114611a21575f80fd5b919050565b803561ffff81168114611a21575f80fd5b803565ffffffffffff81168114611a21575f80fd5b5f6101608284031215611a5d575f80fd5b611a65611961565b8235815260208301356020820152611a7f604084016119fe565b6040820152611a90606084016119fe565b6060820152611aa160808401611a26565b6080820152611ab260a08401611a26565b60a0820152611ac360c084016119fe565b60c0820152611ad460e084016119fe565b60e0820152610100611ae78185016119fe565b90820152610120611af9848201611a26565b90820152610140611b0b848201611a37565b908201529392505050565b5f67ffffffffffffffff821115611b2f57611b2f611934565b5060051b60200190565b5f82601f830112611b48575f80fd5b81356020611b5d611b5883611b16565b6119af565b82815260059290921b84018101918181019086841115611b7b575f80fd5b8286015b84811015611b9d57611b9081611a26565b8352918301918301611b7f565b509695505050505050565b5f82601f830112611bb7575f80fd5b81356020611bc7611b5883611b16565b82815260059290921b84018101918181019086841115611be5575f80fd5b8286015b84811015611b9d57611bfa816119fe565b8352918301918301611be9565b5f60208284031215611c17575f80fd5b813567ffffffffffffffff80821115611c2e575f80fd5b908301906101408286031215611c42575f80fd5b611c4a61198b565b8235815260208301356020820152604083013582811115611c69575f80fd5b611c7587828601611b39565b604083015250611c87606084016119fe565b6060820152611c9860808401611a26565b6080820152611ca960a08401611a26565b60a0820152611cba60c08401611a37565b60c0820152611ccb60e084016119fe565b60e08201526101008084013583811115611ce3575f80fd5b611cef88828701611ba8565b8284015250506101208084013583811115611d08575f80fd5b611d1488828701611ba8565b918301919091525095945050505050565b5f60208284031215611d35575f80fd5b5051919050565b80516dffffffffffffffffffffffffffff81168114611a21575f80fd5b5f805f60608486031215611d6b575f80fd5b611d7484611d3c565b9250611d8260208501611d3c565b9150604084015163ffffffff81168114611d9a575f80fd5b809150509250925092565b7f4e487b71000000000000000000000000000000000000000000000000000000005f52601260045260245ffd5b7f4e487b71000000000000000000000000000000000000000000000000000000005f52601160045260245ffd5b8082018082111561108157611081611dd2565b7f4e487b71000000000000000000000000000000000000000000000000000000005f52603260045260245ffd5b8181038181111561108157611081611dd2565b61ffff828116828216039080821115611e6d57611e6d611dd2565b5092915050565b808202811582820484141761108157611081611dd2565b5f82611ebe577f4e487b71000000000000000000000000000000000000000000000000000000005f52601260045260245ffd5b500490565b5f60208284031215611ed3575f80fd5b81518015158114611ee2575f80fd5b9392505050565b5f5b83811015611f03578181015183820152602001611eeb565b50505f910152565b5f8251611f1c818460208701611ee9565b9190910192915050565b602081525f8251806020840152611f44816040850160208701611ee9565b601f017fffffffffffffffffffffffffffffffffffffffffffffffffffffffffffffffe016919091016040019291505056fea2646970667358221220aaf978bbd46d7aa59e0b13503853260d5c63a4f09e8b0244f0315a0df4575eca64736f6c63430008150033",
  "devdoc": {
    "kind": "dev",
    "methods": {},
    "version": 1
  },
  "userdoc": {
    "errors": {
      "FeeTooHigh(uint16)": [
        {
          "notice": "The swap fee is over the maximum allowed"
        }
      ]
    },
    "kind": "user",
    "methods": {},
    "notice": "A router for any Uniswap V2 fork The pools are not trusted to deliver the correct amount of tokens, so the router verifies this. The pool addresses passed in as a parameter instead of being looked up from the factory. The caller may use `getPair` on the factory to calculate pool addresses. Fees may vary from Uniswap V2's 0.3% (30 bps) and are passed in as `poolFeeBps`. Inspired by https://github.com/sushiswap/sushiswap/blob/master/protocols/route-processor/contracts/RouteProcessor4.sol#L323",
    "version": 1
  },
  "storageLayout": {
    "storage": [],
    "types": null
  }
}