{
  "address": "0xF05266d056d0b42948111c8077Dd8Fa3904a8B3A",
  "abi": [
    {
      "inputs": [],
      "name": "InvalidCallbackSender",
      "type": "error"
    },
    {
      "inputs": [],
      "name": "SwapWithinZeroLiquidityRegion",
      "type": "error"
    },
    {
      "inputs": [
        {
          "internalType": "int256",
          "name": "amount0Delta",
          "type": "int256"
        },
        {
          "internalType": "int256",
          "name": "amount1Delta",
          "type": "int256"
        },
        {
          "internalType": "bytes",
          "name": "data",
          "type": "bytes"
        }
      ],
      "name": "uniswapV3SwapCallback",
      "outputs": [],
      "stateMutability": "nonpayable",
      "type": "function"
    }
  ],
  "transactionHash": "0xe74a89eb33328c9b560283f382b24d65804ed5ac646a38de03d609ed2eef9cdf",
  "args": [],
  "numDeployments": 1,
  "solcInputHash": "c2a383195eacfa7c2a38925476920812",
  "bytecode": "0x608060405234801561000f575f80fd5b506108538061001d5f395ff3fe608060405234801561000f575f80fd5b5060043610610029575f3560e01c8063fa461e331461002d575b5f80fd5b61004061003b36600461064b565b610042565b005b5f8412801561005057505f83125b15610087576040517fbe5147f800000000000000000000000000000000000000000000000000000000815260040160405180910390fd5b7f3029b773e586da235d6a0709bacd2cb14a2e6562f997f3c8684513a487bcbf7a5473ffffffffffffffffffffffffffffffffffffffff1633146100f7576040517f891fcda500000000000000000000000000000000000000000000000000000000815260040160405180910390fd5b7f3029b773e586da235d6a0709bacd2cb14a2e6562f997f3c8684513a487bcbf7a80547fffffffffffffffffffffffff00000000000000000000000000000000000000001690555f61014b828401846106ec565b90505f80861361015b578461015d565b855b90503073ffffffffffffffffffffffffffffffffffffffff16825f015173ffffffffffffffffffffffffffffffffffffffff16036101c05760208201516101bb9073ffffffffffffffffffffffffffffffffffffffff1633836101f3565b6101eb565b815160208301516101eb9173ffffffffffffffffffffffffffffffffffffffff9091169033846102cc565b505050505050565b60405173ffffffffffffffffffffffffffffffffffffffff83166024820152604481018290526102c79084907fa9059cbb00000000000000000000000000000000000000000000000000000000906064015b604080517fffffffffffffffffffffffffffffffffffffffffffffffffffffffffffffffe08184030181529190526020810180517bffffffffffffffffffffffffffffffffffffffffffffffffffffffff167fffffffff0000000000000000000000000000000000000000000000000000000090931692909217909152610330565b505050565b60405173ffffffffffffffffffffffffffffffffffffffff8085166024830152831660448201526064810182905261032a9085907f23b872dd0000000000000000000000000000000000000000000000000000000090608401610245565b50505050565b5f610391826040518060400160405280602081526020017f5361666545524332303a206c6f772d6c6576656c2063616c6c206661696c65648152508573ffffffffffffffffffffffffffffffffffffffff166104429092919063ffffffff16565b905080515f14806103b15750808060200190518101906103b1919061076a565b6102c7576040517f08c379a000000000000000000000000000000000000000000000000000000000815260206004820152602a60248201527f5361666545524332303a204552433230206f7065726174696f6e20646964206e60448201527f6f7420737563636565640000000000000000000000000000000000000000000060648201526084015b60405180910390fd5b606061045084845f85610458565b949350505050565b6060824710156104ea576040517f08c379a000000000000000000000000000000000000000000000000000000000815260206004820152602660248201527f416464726573733a20696e73756666696369656e742062616c616e636520666f60448201527f722063616c6c00000000000000000000000000000000000000000000000000006064820152608401610439565b5f808673ffffffffffffffffffffffffffffffffffffffff16858760405161051291906107b2565b5f6040518083038185875af1925050503d805f811461054c576040519150601f19603f3d011682016040523d82523d5f602084013e610551565b606091505b50915091506105628783838761056d565b979650505050505050565b606083156106025782515f036105fb5773ffffffffffffffffffffffffffffffffffffffff85163b6105fb576040517f08c379a000000000000000000000000000000000000000000000000000000000815260206004820152601d60248201527f416464726573733a2063616c6c20746f206e6f6e2d636f6e74726163740000006044820152606401610439565b5081610450565b61045083838151156106175781518083602001fd5b806040517f08c379a000000000000000000000000000000000000000000000000000000000815260040161043991906107cd565b5f805f806060858703121561065e575f80fd5b8435935060208501359250604085013567ffffffffffffffff80821115610683575f80fd5b818701915087601f830112610696575f80fd5b8135818111156106a4575f80fd5b8860208285010111156106b5575f80fd5b95989497505060200194505050565b803573ffffffffffffffffffffffffffffffffffffffff811681146106e7575f80fd5b919050565b5f604082840312156106fc575f80fd5b6040516040810181811067ffffffffffffffff82111715610744577f4e487b71000000000000000000000000000000000000000000000000000000005f52604160045260245ffd5b604052610750836106c4565b815261075e602084016106c4565b60208201529392505050565b5f6020828403121561077a575f80fd5b81518015158114610789575f80fd5b9392505050565b5f5b838110156107aa578181015183820152602001610792565b50505f910152565b5f82516107c3818460208701610790565b9190910192915050565b602081525f82518060208401526107eb816040850160208701610790565b601f017fffffffffffffffffffffffffffffffffffffffffffffffffffffffffffffffe016919091016040019291505056fea26469706673582212200269aba7a1bee556e540fce6046396a7ecbfff8c53e1b2dac7590bc23870b62464736f6c63430008150033",
  "devdoc": {
    "kind": "dev",
    "methods": {},
    "version": 1
  },
  "userdoc": {
    "kind": "user",
    "methods": {
      "uniswapV3SwapCallback(int256,int256,bytes)": {
        "notice": "See https://github.com/Uniswap/v3-periphery/blob/main/contracts/SwapRouter.sol"
      }
    },
    "version": 1
  },
  "storageLayout": {
    "storage": [],
    "types": null
  }
}