{
  "address": "0x5a762A2d7a4f9354D7E2327Da3f37e6CE6Db857D",
  "abi": [
    {
      "inputs": [],
      "name": "DeadlineExpired",
      "type": "error"
    },
    {
      "inputs": [],
      "name": "EthTransferFailed",
      "type": "error"
    },
    {
      "inputs": [
        {
          "internalType": "uint16",
          "name": "maxFeeBps",
          "type": "uint16"
        }
      ],
      "name": "FeeTooHigh",
      "type": "error"
    },
    {
      "inputs": [],
      "name": "IncorrectEthValue",
      "type": "error"
    },
    {
      "inputs": [],
      "name": "InsufficientOutputAmount",
      "type": "error"
    },
    {
      "inputs": [],
      "name": "ZeroAmountOut",
      "type": "error"
    },
    {
      "inputs": [
        {
          "components": [
            {
              "internalType": "uint256",
              "name": "amountIn",
              "type": "uint256"
            },
            {
              "internalType": "uint256",
              "name": "amountOut",
              "type": "uint256"
            },
            {
              "internalType": "address",
              "name": "recipient",
              "type": "address"
            },
            {
              "internalType": "uint16",
              "name": "slippage",
              "type": "uint16"
            },
            {
              "internalType": "uint16",
              "name": "feeBps",
              "type": "uint16"
            },
            {
              "internalType": "uint48",
              "name": "deadline",
              "type": "uint48"
            },
            {
              "internalType": "address",
              "name": "partner",
              "type": "address"
            },
            {
              "internalType": "address[]",
              "name": "path",
              "type": "address[]"
            }
          ],
          "internalType": "struct IUniV2Router.ExactInputParams",
          "name": "params",
          "type": "tuple"
        }
      ],
      "name": "uniswapV2ExactInput",
      "outputs": [
        {
          "internalType": "uint256",
          "name": "amountOut",
          "type": "uint256"
        }
      ],
      "stateMutability": "payable",
      "type": "function"
    },
    {
      "inputs": [
        {
          "components": [
            {
              "internalType": "uint256",
              "name": "amountIn",
              "type": "uint256"
            },
            {
              "internalType": "uint256",
              "name": "amountOut",
              "type": "uint256"
            },
            {
              "internalType": "address",
              "name": "recipient",
              "type": "address"
            },
            {
              "internalType": "uint16",
              "name": "slippage",
              "type": "uint16"
            },
            {
              "internalType": "uint16",
              "name": "feeBps",
              "type": "uint16"
            },
            {
              "internalType": "uint48",
              "name": "deadline",
              "type": "uint48"
            },
            {
              "internalType": "address",
              "name": "partner",
              "type": "address"
            },
            {
              "internalType": "address",
              "name": "tokenIn",
              "type": "address"
            },
            {
              "internalType": "address",
              "name": "tokenOut",
              "type": "address"
            }
          ],
          "internalType": "struct IUniV2Router.ExactInputSingleParams",
          "name": "params",
          "type": "tuple"
        }
      ],
      "name": "uniswapV2ExactInputSingle",
      "outputs": [
        {
          "internalType": "uint256",
          "name": "amountOut",
          "type": "uint256"
        }
      ],
      "stateMutability": "payable",
      "type": "function"
    }
  ],
  "transactionHash": "0x71ceb7e041dc294671f338fdc40fb2f6b17c19ca054f6a5acb1a5e91bb84aa29",
  "args": [],
  "numDeployments": 6,
  "solcInputHash": "0543f1b9a307b6e645ab4a866306bf25",
  "bytecode": "0x608060405234801561001057600080fd5b50611f3a806100206000396000f3fe6080604052600436106100295760003560e01c806316c170421461002e5780633b58c7c214610053575b600080fd5b61004161003c366004611a81565b610066565b60405190815260200160405180910390f35b610041610061366004611bde565b6106b3565b60008160a0015165ffffffffffff164211156100ae576040517f1ab7da6b00000000000000000000000000000000000000000000000000000000815260040160405180910390fd5b60e08201516101008301517fcd4d5c78b9e1b4c12c165f6dabad75194d4ff180375bd5b3c4499489a642191c9173ffffffffffffffffffffffffffffffffffffffff908116159116158115610120578254610100900473ffffffffffffffffffffffffffffffffffffffff1660e08601525b801561014a57825473ffffffffffffffffffffffffffffffffffffffff6101009182900416908601525b600283015460e086015161010087015160009261017f9273ffffffffffffffffffffffffffffffffffffffff90911691610ef3565b90506000808273ffffffffffffffffffffffffffffffffffffffff16630902f1ac6040518163ffffffff1660e01b8152600401606060405180830381865afa1580156101cf573d6000803e3d6000fd5b505050506040513d601f19601f820116820180604052508101906101f39190611cd3565b506dffffffffffffffffffffffffffff1691506dffffffffffffffffffffffffffff16915087610100015173ffffffffffffffffffffffffffffffffffffffff168860e0015173ffffffffffffffffffffffffffffffffffffffff16111561025757905b87516103e58082026103e8850201918302028161027657610276611d23565b04965061028b8860200151896060015161104c565b8710156102c4576040517f42301c2300000000000000000000000000000000000000000000000000000000815260040160405180910390fd5b84156103b75787513414610304576040517fab0a033b00000000000000000000000000000000000000000000000000000000815260040160405180910390fd5b8560000160019054906101000a900473ffffffffffffffffffffffffffffffffffffffff1673ffffffffffffffffffffffffffffffffffffffff1663d0e30db0346040518263ffffffff1660e01b81526004016000604051808303818588803b15801561037057600080fd5b505af1158015610384573d6000803e3d6000fd5b50508a5160e08c01516103b2945073ffffffffffffffffffffffffffffffffffffffff16925086915061107c565b6103e4565b875160e08901516103e49173ffffffffffffffffffffffffffffffffffffffff9091169033908690611155565b600088610100015173ffffffffffffffffffffffffffffffffffffffff168960e0015173ffffffffffffffffffffffffffffffffffffffff161061042957600061042c565b60015b90508373ffffffffffffffffffffffffffffffffffffffff1663022c0d9f826104555789610458565b60005b83610464576000610466565b8a5b6040517fffffffff0000000000000000000000000000000000000000000000000000000060e085901b16815260048101929092526024820152306044820152608060648201526000608482015260a401600060405180830381600087803b1580156104d057600080fd5b505af11580156104e4573d6000803e3d6000fd5b505050506105068960c001518a61010001518b608001518c602001518c6111b9565b975087600003610542576040517f4497be8400000000000000000000000000000000000000000000000000000000815260040160405180910390fd5b84156106735786546040517f2e1a7d4d000000000000000000000000000000000000000000000000000000008152600481018a905261010090910473ffffffffffffffffffffffffffffffffffffffff1690632e1a7d4d90602401600060405180830381600087803b1580156105b757600080fd5b505af11580156105cb573d6000803e3d6000fd5b505050506000896040015173ffffffffffffffffffffffffffffffffffffffff168960405160006040518083038185875af1925050503d806000811461062d576040519150601f19603f3d011682016040523d82523d6000602084013e610632565b606091505b505090508061066d576040517f6d963f8800000000000000000000000000000000000000000000000000000000815260040160405180910390fd5b506106a7565b6106a78960400151898b610100015173ffffffffffffffffffffffffffffffffffffffff1661107c9092919063ffffffff16565b50505050505050919050565b60008160a0015165ffffffffffff164211156106fb576040517f1ab7da6b00000000000000000000000000000000000000000000000000000000815260040160405180910390fd5b60e0820151517fcd4d5c78b9e1b4c12c165f6dabad75194d4ff180375bd5b3c4499489a642191c9060009061073290600190611d81565b905060008073ffffffffffffffffffffffffffffffffffffffff168560e0015160008151811061076457610764611d94565b602002602001015173ffffffffffffffffffffffffffffffffffffffff1614905060008073ffffffffffffffffffffffffffffffffffffffff168660e0015184815181106107b4576107b4611d94565b602002602001015173ffffffffffffffffffffffffffffffffffffffff161490508115610852578360000160019054906101000a900473ffffffffffffffffffffffffffffffffffffffff168660e0015160008151811061081757610817611d94565b602002602001019073ffffffffffffffffffffffffffffffffffffffff16908173ffffffffffffffffffffffffffffffffffffffff16815250505b80156108ce578360000160019054906101000a900473ffffffffffffffffffffffffffffffffffffffff168660e00151848151811061089357610893611d94565b602002602001019073ffffffffffffffffffffffffffffffffffffffff16908173ffffffffffffffffffffffffffffffffffffffff16815250505b6002840154865160e088015160009283926109019273ffffffffffffffffffffffffffffffffffffffff9092169161127a565b915091506109178860200151896060015161104c565b81600183516109269190611d81565b8151811061093657610936611d94565b60200260200101511015610976576040517f42301c2300000000000000000000000000000000000000000000000000000000815260040160405180910390fd5b8315610aa757875134146109b6576040517fab0a033b00000000000000000000000000000000000000000000000000000000815260040160405180910390fd5b8560000160019054906101000a900473ffffffffffffffffffffffffffffffffffffffff1673ffffffffffffffffffffffffffffffffffffffff1663d0e30db0346040518263ffffffff1660e01b81526004016000604051808303818588803b158015610a2257600080fd5b505af1158015610a36573d6000803e3d6000fd5b5050505050610aa282600081518110610a5157610a51611d94565b602002602001015189600001518a60e00151600081518110610a7557610a75611d94565b602002602001015173ffffffffffffffffffffffffffffffffffffffff1661107c9092919063ffffffff16565b610b10565b610b103383600081518110610abe57610abe611d94565b60200260200101518a600001518b60e00151600081518110610ae257610ae2611d94565b602002602001015173ffffffffffffffffffffffffffffffffffffffff16611155909392919063ffffffff16565b60005b85811015610d0c576000610b28826001611dc3565b905060008a60e001518281518110610b4257610b42611d94565b602002602001015173ffffffffffffffffffffffffffffffffffffffff168b60e001518481518110610b7657610b76611d94565b602002602001015173ffffffffffffffffffffffffffffffffffffffff1610610ba0576000610ba3565b60015b9050600060028c60e0015151610bb99190611d81565b8410610bc55730610be0565b858381518110610bd757610bd7611d94565b60200260200101515b9050858481518110610bf457610bf4611d94565b602002602001015173ffffffffffffffffffffffffffffffffffffffff1663022c0d9f83610c3b57868581518110610c2e57610c2e611d94565b6020026020010151610c3e565b60005b84610c4a576000610c65565b878681518110610c5c57610c5c611d94565b60200260200101515b6040517fffffffff0000000000000000000000000000000000000000000000000000000060e085901b1681526004810192909252602482015273ffffffffffffffffffffffffffffffffffffffff84166044820152608060648201526000608482015260a401600060405180830381600087803b158015610ce557600080fd5b505af1158015610cf9573d6000803e3d6000fd5b505060019095019450610b139350505050565b50610d5c8860c001518960e001518781518110610d2b57610d2b611d94565b60200260200101518a608001518b60200151858a81518110610d4f57610d4f611d94565b60200260200101516111b9565b965086600003610d98576040517f4497be8400000000000000000000000000000000000000000000000000000000815260040160405180910390fd5b8215610ec95785546040517f2e1a7d4d0000000000000000000000000000000000000000000000000000000081526004810189905261010090910473ffffffffffffffffffffffffffffffffffffffff1690632e1a7d4d90602401600060405180830381600087803b158015610e0d57600080fd5b505af1158015610e21573d6000803e3d6000fd5b505050506000886040015173ffffffffffffffffffffffffffffffffffffffff168860405160006040518083038185875af1925050503d8060008114610e83576040519150601f19603f3d011682016040523d82523d6000602084013e610e88565b606091505b5050905080610ec3576040517f6d963f8800000000000000000000000000000000000000000000000000000000815260040160405180910390fd5b50610ee8565b610ee88860400151888a60e001518881518110610a7557610a75611d94565b505050505050919050565b60008173ffffffffffffffffffffffffffffffffffffffff168373ffffffffffffffffffffffffffffffffffffffff161115610f2d579091905b6040517fffffffffffffffffffffffffffffffffffffffff000000000000000000000000606085811b8216602084015284901b16603482015284906048016040516020818303038152906040528051906020012060405160200161100e9291907fff00000000000000000000000000000000000000000000000000000000000000815260609290921b7fffffffffffffffffffffffffffffffffffffffff00000000000000000000000016600183015260158201527f96e8ac4277198ff8b6f785478aa9a39f403cb768dd02cbee326c3e7da348845f603582015260550190565b604080517fffffffffffffffffffffffffffffffffffffffffffffffffffffffffffffffe08184030181529190528051602090910120949350505050565b600061271061105b8382611dd6565b6110699061ffff1685611df8565b6110739190611e0f565b90505b92915050565b60405173ffffffffffffffffffffffffffffffffffffffff83166024820152604481018290526111509084907fa9059cbb00000000000000000000000000000000000000000000000000000000906064015b604080517fffffffffffffffffffffffffffffffffffffffffffffffffffffffffffffffe08184030181529190526020810180517bffffffffffffffffffffffffffffffffffffffffffffffffffffffff167fffffffff000000000000000000000000000000000000000000000000000000009093169290921790915261151f565b505050565b60405173ffffffffffffffffffffffffffffffffffffffff808516602483015283166044820152606481018290526111b39085907f23b872dd00000000000000000000000000000000000000000000000000000000906084016110ce565b50505050565b60006107d061ffff85161115611204576040517f8ea70c070000000000000000000000000000000000000000000000000000000081526107d060048201526024015b60405180910390fd5b60008284811115611216575050828203835b61271061ffff87168202049190910190600073ffffffffffffffffffffffffffffffffffffffff8916156112505760646032840204611253565b60005b905080830383821461126b5761126b8a8a848461162e565b50505090910395945050505050565b60608060006001845161128d9190611d81565b90508067ffffffffffffffff8111156112a8576112a86119b3565b6040519080825280602002602001820160405280156112d1578160200160208202803683370190505b509250835167ffffffffffffffff8111156112ee576112ee6119b3565b604051908082528060200260200182016040528015611317578160200160208202803683370190505b509150848260008151811061132e5761132e611d94565b60200260200101818152505060005b8181101561151557600085828151811061135957611359611d94565b602002602001015190506000868360016113739190611dc3565b8151811061138357611383611d94565b60200260200101519050611398898383610ef3565b8684815181106113aa576113aa611d94565b602002602001019073ffffffffffffffffffffffffffffffffffffffff16908173ffffffffffffffffffffffffffffffffffffffff16815250506000806113f28b8585610ef3565b73ffffffffffffffffffffffffffffffffffffffff16630902f1ac6040518163ffffffff1660e01b8152600401606060405180830381865afa15801561143c573d6000803e3d6000fd5b505050506040513d601f19601f820116820180604052508101906114609190611cd3565b506dffffffffffffffffffffffffffff1691506dffffffffffffffffffffffffffff1691508273ffffffffffffffffffffffffffffffffffffffff168473ffffffffffffffffffffffffffffffffffffffff1611156114bb57905b896103e502826103e80201818b6103e50202816114da576114da611d23565b04995089876114ea876001611dc3565b815181106114fa576114fa611d94565b602090810291909101015250506001909201915061133d9050565b5050935093915050565b6000611581826040518060400160405280602081526020017f5361666545524332303a206c6f772d6c6576656c2063616c6c206661696c65648152508573ffffffffffffffffffffffffffffffffffffffff166117339092919063ffffffff16565b90508051600014806115a25750808060200190518101906115a29190611e4a565b611150576040517f08c379a000000000000000000000000000000000000000000000000000000000815260206004820152602a60248201527f5361666545524332303a204552433230206f7065726174696f6e20646964206e60448201527f6f7420737563636565640000000000000000000000000000000000000000000060648201526084016111fb565b7f4edbd34b5b006870ab724677d99b508debf8dcac0dc8134c9c43b93f8afe50f073ffffffffffffffffffffffffffffffffffffffff84161561169e5773ffffffffffffffffffffffffffffffffffffffff85166000908152600282016020526040902061169c908561174a565b505b6116a8818661174a565b5073ffffffffffffffffffffffffffffffffffffffff858116600081815260038401602090815260408083209489168084529482528083208054890190556004860182529182902080548801905581518781529081018690527fb9c71741297b7329823b5575aa676062720448277d6da61cf68eb0fed6c4baf4910160405180910390a35050505050565b6060611742848460008561176c565b949350505050565b60006110738373ffffffffffffffffffffffffffffffffffffffff8416611885565b6060824710156117fe576040517f08c379a000000000000000000000000000000000000000000000000000000000815260206004820152602660248201527f416464726573733a20696e73756666696369656e742062616c616e636520666f60448201527f722063616c6c000000000000000000000000000000000000000000000000000060648201526084016111fb565b6000808673ffffffffffffffffffffffffffffffffffffffff1685876040516118279190611e97565b60006040518083038185875af1925050503d8060008114611864576040519150601f19603f3d011682016040523d82523d6000602084013e611869565b606091505b509150915061187a878383876118d4565b979650505050505050565b60008181526001830160205260408120546118cc57508154600181810184556000848152602080822090930184905584548482528286019093526040902091909155611076565b506000611076565b6060831561196a5782516000036119635773ffffffffffffffffffffffffffffffffffffffff85163b611963576040517f08c379a000000000000000000000000000000000000000000000000000000000815260206004820152601d60248201527f416464726573733a2063616c6c20746f206e6f6e2d636f6e747261637400000060448201526064016111fb565b5081611742565b611742838381511561197f5781518083602001fd5b806040517f08c379a00000000000000000000000000000000000000000000000000000000081526004016111fb9190611eb3565b7f4e487b7100000000000000000000000000000000000000000000000000000000600052604160045260246000fd5b604051610120810167ffffffffffffffff81118282101715611a0657611a066119b3565b60405290565b604051610100810167ffffffffffffffff81118282101715611a0657611a066119b3565b803573ffffffffffffffffffffffffffffffffffffffff81168114611a5457600080fd5b919050565b803561ffff81168114611a5457600080fd5b803565ffffffffffff81168114611a5457600080fd5b60006101208284031215611a9457600080fd5b611a9c6119e2565b8235815260208301356020820152611ab660408401611a30565b6040820152611ac760608401611a59565b6060820152611ad860808401611a59565b6080820152611ae960a08401611a6b565b60a0820152611afa60c08401611a30565b60c0820152611b0b60e08401611a30565b60e0820152610100611b1e818501611a30565b908201529392505050565b600082601f830112611b3a57600080fd5b8135602067ffffffffffffffff80831115611b5757611b576119b3565b8260051b6040517fffffffffffffffffffffffffffffffffffffffffffffffffffffffffffffffe0603f83011681018181108482111715611b9a57611b9a6119b3565b604052938452858101830193838101925087851115611bb857600080fd5b83870191505b8482101561187a57611bcf82611a30565b83529183019190830190611bbe565b600060208284031215611bf057600080fd5b813567ffffffffffffffff80821115611c0857600080fd5b908301906101008286031215611c1d57600080fd5b611c25611a0c565b8235815260208301356020820152611c3f60408401611a30565b6040820152611c5060608401611a59565b6060820152611c6160808401611a59565b6080820152611c7260a08401611a6b565b60a0820152611c8360c08401611a30565b60c082015260e083013582811115611c9a57600080fd5b611ca687828601611b29565b60e08301525095945050505050565b80516dffffffffffffffffffffffffffff81168114611a5457600080fd5b600080600060608486031215611ce857600080fd5b611cf184611cb5565b9250611cff60208501611cb5565b9150604084015163ffffffff81168114611d1857600080fd5b809150509250925092565b7f4e487b7100000000000000000000000000000000000000000000000000000000600052601260045260246000fd5b7f4e487b7100000000000000000000000000000000000000000000000000000000600052601160045260246000fd5b8181038181111561107657611076611d52565b7f4e487b7100000000000000000000000000000000000000000000000000000000600052603260045260246000fd5b8082018082111561107657611076611d52565b61ffff828116828216039080821115611df157611df1611d52565b5092915050565b808202811582820484141761107657611076611d52565b600082611e45577f4e487b7100000000000000000000000000000000000000000000000000000000600052601260045260246000fd5b500490565b600060208284031215611e5c57600080fd5b81518015158114611e6c57600080fd5b9392505050565b60005b83811015611e8e578181015183820152602001611e76565b50506000910152565b60008251611ea9818460208701611e73565b9190910192915050565b6020815260008251806020840152611ed2816040850160208701611e73565b601f017fffffffffffffffffffffffffffffffffffffffffffffffffffffffffffffffe016919091016040019291505056fea2646970667358221220ba9016802f76c3ccd9303698eb717320a3a3e1b3d6999a0c4401dc295c5942e664736f6c63430008130033",
  "devdoc": {
    "kind": "dev",
    "methods": {},
    "version": 1
  },
  "userdoc": {
    "errors": {
      "FeeTooHigh(uint16)": [
        {
          "notice": "The swap fee is over the maximum allowed"
        }
      ]
    },
    "kind": "user",
    "methods": {},
    "version": 1
  },
  "storageLayout": {
    "storage": [],
    "types": null
  }
}