{
  "address": "0x53f1B4fC1ED22aA154Aa31969BdB9fa3b6E9019c",
  "abi": [
    {
      "inputs": [],
      "name": "DeadlineExpired",
      "type": "error"
    },
    {
      "inputs": [],
      "name": "EthTransferFailed",
      "type": "error"
    },
    {
      "inputs": [
        {
          "internalType": "uint256",
          "name": "maxFeeBps",
          "type": "uint256"
        }
      ],
      "name": "FeeTooHigh",
      "type": "error"
    },
    {
      "inputs": [],
      "name": "IncorrectEthValue",
      "type": "error"
    },
    {
      "inputs": [],
      "name": "InsufficientOutputAmount",
      "type": "error"
    },
    {
      "inputs": [],
      "name": "ZeroAmountOut",
      "type": "error"
    },
    {
      "inputs": [
        {
          "components": [
            {
              "internalType": "uint256",
              "name": "amountIn",
              "type": "uint256"
            },
            {
              "internalType": "uint256",
              "name": "amountOut",
              "type": "uint256"
            },
            {
              "internalType": "address",
              "name": "recipient",
              "type": "address"
            },
            {
              "internalType": "uint16",
              "name": "slippage",
              "type": "uint16"
            },
            {
              "internalType": "uint16",
              "name": "feeBps",
              "type": "uint16"
            },
            {
              "internalType": "uint48",
              "name": "deadline",
              "type": "uint48"
            },
            {
              "internalType": "address",
              "name": "partner",
              "type": "address"
            },
            {
              "internalType": "address[]",
              "name": "path",
              "type": "address[]"
            }
          ],
          "internalType": "struct IUniV2Router.ExactInputParams",
          "name": "params",
          "type": "tuple"
        },
        {
          "components": [
            {
              "internalType": "uint256",
              "name": "nonce",
              "type": "uint256"
            },
            {
              "internalType": "bytes",
              "name": "signature",
              "type": "bytes"
            }
          ],
          "internalType": "struct PermitParams",
          "name": "permit",
          "type": "tuple"
        }
      ],
      "name": "uniswapV2ExactInput",
      "outputs": [
        {
          "internalType": "uint256",
          "name": "amountOut",
          "type": "uint256"
        }
      ],
      "stateMutability": "payable",
      "type": "function"
    },
    {
      "inputs": [
        {
          "components": [
            {
              "internalType": "uint256",
              "name": "amountIn",
              "type": "uint256"
            },
            {
              "internalType": "uint256",
              "name": "amountOut",
              "type": "uint256"
            },
            {
              "internalType": "address",
              "name": "recipient",
              "type": "address"
            },
            {
              "internalType": "uint16",
              "name": "slippage",
              "type": "uint16"
            },
            {
              "internalType": "uint16",
              "name": "feeBps",
              "type": "uint16"
            },
            {
              "internalType": "uint48",
              "name": "deadline",
              "type": "uint48"
            },
            {
              "internalType": "address",
              "name": "partner",
              "type": "address"
            },
            {
              "internalType": "address",
              "name": "tokenIn",
              "type": "address"
            },
            {
              "internalType": "address",
              "name": "tokenOut",
              "type": "address"
            }
          ],
          "internalType": "struct IUniV2Router.ExactInputSingleParams",
          "name": "params",
          "type": "tuple"
        },
        {
          "components": [
            {
              "internalType": "uint256",
              "name": "nonce",
              "type": "uint256"
            },
            {
              "internalType": "bytes",
              "name": "signature",
              "type": "bytes"
            }
          ],
          "internalType": "struct PermitParams",
          "name": "permit",
          "type": "tuple"
        }
      ],
      "name": "uniswapV2ExactInputSingle",
      "outputs": [
        {
          "internalType": "uint256",
          "name": "amountOut",
          "type": "uint256"
        }
      ],
      "stateMutability": "payable",
      "type": "function"
    }
  ],
  "transactionHash": "0x07f16b6647b279d0e54e21d3cb59470e4cd976ffa16ac2a7d480a8c6256a1bea",
  "args": [],
  "numDeployments": 14,
  "solcInputHash": "0f48b09af4559a5a1154fd1799b5eac0",
  "bytecode": "0x608060405234801561001057600080fd5b506124ff806100206000396000f3fe6080604052600436106100295760003560e01c80630d164c381461002e578063a817b67d14610053575b600080fd5b61004161003c366004611f74565b610066565b60405190815260200160405180910390f35b610041610061366004612070565b610b74565b60008260a0015165ffffffffffff164211156100ae576040517f1ab7da6b00000000000000000000000000000000000000000000000000000000815260040160405180910390fd5b60e0830151517fcd4d5c78b9e1b4c12c165f6dabad75194d4ff180375bd5b3c4499489a642191c906000906100e59060019061217b565b905060008073ffffffffffffffffffffffffffffffffffffffff168660e001516000815181106101175761011761218e565b602002602001015173ffffffffffffffffffffffffffffffffffffffff1614905060008073ffffffffffffffffffffffffffffffffffffffff168760e0015184815181106101675761016761218e565b602002602001015173ffffffffffffffffffffffffffffffffffffffff161490508115610205578360000160019054906101000a900473ffffffffffffffffffffffffffffffffffffffff168760e001516000815181106101ca576101ca61218e565b602002602001019073ffffffffffffffffffffffffffffffffffffffff16908173ffffffffffffffffffffffffffffffffffffffff16815250505b8015610281578360000160019054906101000a900473ffffffffffffffffffffffffffffffffffffffff168760e0015184815181106102465761024661218e565b602002602001019073ffffffffffffffffffffffffffffffffffffffff16908173ffffffffffffffffffffffffffffffffffffffff16815250505b6002840154875160e089015160009283926102b49273ffffffffffffffffffffffffffffffffffffffff909216916113cc565b915091506102ca89602001518a60600151611671565b81600183516102d9919061217b565b815181106102e9576102e961218e565b60200260200101511015610329576040517f42301c2300000000000000000000000000000000000000000000000000000000815260040160405180910390fd5b831561045a5788513414610369576040517fab0a033b00000000000000000000000000000000000000000000000000000000815260040160405180910390fd5b8560000160019054906101000a900473ffffffffffffffffffffffffffffffffffffffff1673ffffffffffffffffffffffffffffffffffffffff1663d0e30db0346040518263ffffffff1660e01b81526004016000604051808303818588803b1580156103d557600080fd5b505af11580156103e9573d6000803e3d6000fd5b5050505050610455826000815181106104045761040461218e565b60200260200101518a600001518b60e001516000815181106104285761042861218e565b602002602001015173ffffffffffffffffffffffffffffffffffffffff166116a19092919063ffffffff16565b6106a9565b8560030160009054906101000a900473ffffffffffffffffffffffffffffffffffffffff1673ffffffffffffffffffffffffffffffffffffffff16632b67b57033604051806060016040528060405180608001604052808f60e001516000815181106104c8576104c861218e565b602002602001015173ffffffffffffffffffffffffffffffffffffffff1681526020018f6000015173ffffffffffffffffffffffffffffffffffffffff1681526020018f60a0015165ffffffffffff1681526020018e6000013565ffffffffffff1681525081526020013073ffffffffffffffffffffffffffffffffffffffff1681526020018d60a0015165ffffffffffff168152508b806020019061056e91906121bd565b6040518563ffffffff1660e01b815260040161058d9493929190612229565b600060405180830381600087803b1580156105a757600080fd5b505af11580156105bb573d6000803e3d6000fd5b5050506003870154835173ffffffffffffffffffffffffffffffffffffffff90911691506336c7851690339085906000906105f8576105f861218e565b60200260200101518c600001518d60e0015160008151811061061c5761061c61218e565b60200260200101516040518563ffffffff1660e01b8152600401610676949392919073ffffffffffffffffffffffffffffffffffffffff948516815292841660208401529083166040830152909116606082015260800190565b600060405180830381600087803b15801561069057600080fd5b505af11580156106a4573d6000803e3d6000fd5b505050505b60005b858110156108a45760006106c18260016122eb565b905060008b60e0015182815181106106db576106db61218e565b602002602001015173ffffffffffffffffffffffffffffffffffffffff168c60e00151848151811061070f5761070f61218e565b602002602001015173ffffffffffffffffffffffffffffffffffffffff161061073957600061073c565b60015b9050600060028d60e0015151610752919061217b565b841061075e5730610779565b8583815181106107705761077061218e565b60200260200101515b905085848151811061078d5761078d61218e565b602002602001015173ffffffffffffffffffffffffffffffffffffffff1663022c0d9f836107d4578685815181106107c7576107c761218e565b60200260200101516107d7565b60005b846107e35760006107fe565b8786815181106107f5576107f561218e565b60200260200101515b6040517fffffffff0000000000000000000000000000000000000000000000000000000060e085901b1681526004810192909252602482015273ffffffffffffffffffffffffffffffffffffffff84166044820152608060648201526000608482015260a401600060405180830381600087803b15801561087e57600080fd5b505af1158015610892573d6000803e3d6000fd5b505050508360010193505050506106ac565b506108f88960c001518a60e0015187815181106108c3576108c361218e565b60200260200101518b6080015161ffff168c60200151858a815181106108eb576108eb61218e565b6020026020010151611733565b965086600003610934576040517f4497be8400000000000000000000000000000000000000000000000000000000815260040160405180910390fd5b8215610a655785546040517f2e1a7d4d0000000000000000000000000000000000000000000000000000000081526004810189905261010090910473ffffffffffffffffffffffffffffffffffffffff1690632e1a7d4d90602401600060405180830381600087803b1580156109a957600080fd5b505af11580156109bd573d6000803e3d6000fd5b505050506000896040015173ffffffffffffffffffffffffffffffffffffffff168860405160006040518083038185875af1925050503d8060008114610a1f576040519150601f19603f3d011682016040523d82523d6000602084013e610a24565b606091505b5050905080610a5f576040517f6d963f8800000000000000000000000000000000000000000000000000000000815260040160405180910390fd5b50610a84565b610a848960400151888b60e0015188815181106104285761042861218e565b82610aac578860e001518581518110610a9f57610a9f61218e565b6020026020010151610aaf565b60005b73ffffffffffffffffffffffffffffffffffffffff1684610aee578960e00151600081518110610ae157610ae161218e565b6020026020010151610af1565b60005b73ffffffffffffffffffffffffffffffffffffffff168a60c0015173ffffffffffffffffffffffffffffffffffffffff167f1d81b4318b379c644b5546ae9cf37d861a5c7547bf3dae6cfaecffa12f8748f38c600001518b604051610b60929190918252602082015260400190565b60405180910390a450505050505092915050565b60008260a0015165ffffffffffff16421115610bbc576040517f1ab7da6b00000000000000000000000000000000000000000000000000000000815260040160405180910390fd5b60e08301516101008401517fcd4d5c78b9e1b4c12c165f6dabad75194d4ff180375bd5b3c4499489a642191c9173ffffffffffffffffffffffffffffffffffffffff908116159116158115610c2e578254610100900473ffffffffffffffffffffffffffffffffffffffff1660e08701525b8015610c5857825473ffffffffffffffffffffffffffffffffffffffff6101009182900416908701525b600283015460e0870151610100880151600092610c8d9273ffffffffffffffffffffffffffffffffffffffff909116916117ec565b90506000808273ffffffffffffffffffffffffffffffffffffffff16630902f1ac6040518163ffffffff1660e01b8152600401606060405180830381865afa158015610cdd573d6000803e3d6000fd5b505050506040513d601f19601f82011682018060405250810190610d01919061231c565b506dffffffffffffffffffffffffffff1691506dffffffffffffffffffffffffffff16915088610100015173ffffffffffffffffffffffffffffffffffffffff168960e0015173ffffffffffffffffffffffffffffffffffffffff161115610d6557905b88516103e58082026103e88502019183020281610d8457610d8461236c565b049650610d9989602001518a60600151611671565b871015610dd2576040517f42301c2300000000000000000000000000000000000000000000000000000000815260040160405180910390fd5b8415610ec55788513414610e12576040517fab0a033b00000000000000000000000000000000000000000000000000000000815260040160405180910390fd5b8560000160019054906101000a900473ffffffffffffffffffffffffffffffffffffffff1673ffffffffffffffffffffffffffffffffffffffff1663d0e30db0346040518263ffffffff1660e01b81526004016000604051808303818588803b158015610e7e57600080fd5b505af1158015610e92573d6000803e3d6000fd5b50508b5160e08d0151610ec0945073ffffffffffffffffffffffffffffffffffffffff1692508691506116a1565b611046565b60038601546040805160e080820183528c015173ffffffffffffffffffffffffffffffffffffffff908116606083019081528d518216608084015260a0808f01805165ffffffffffff908116928601929092528e35821660c0860152918452306020808601919091529151169383019390935290921691632b67b57091339190610f51908d018d6121bd565b6040518563ffffffff1660e01b8152600401610f709493929190612229565b600060405180830381600087803b158015610f8a57600080fd5b505af1158015610f9e573d6000803e3d6000fd5b505050506003860154895160e08b01516040517f36c7851600000000000000000000000000000000000000000000000000000000815233600482015273ffffffffffffffffffffffffffffffffffffffff8781166024830152928316604482015290821660648201529116906336c7851690608401600060405180830381600087803b15801561102d57600080fd5b505af1158015611041573d6000803e3d6000fd5b505050505b600089610100015173ffffffffffffffffffffffffffffffffffffffff168a60e0015173ffffffffffffffffffffffffffffffffffffffff161061108b57600061108e565b60015b90508373ffffffffffffffffffffffffffffffffffffffff1663022c0d9f826110b757896110ba565b60005b836110c65760006110c8565b8a5b6040517fffffffff0000000000000000000000000000000000000000000000000000000060e085901b16815260048101929092526024820152306044820152608060648201526000608482015260a401600060405180830381600087803b15801561113257600080fd5b505af1158015611146573d6000803e3d6000fd5b5050505061116c8a60c001518b61010001518c6080015161ffff168d602001518c611733565b9750876000036111a8576040517f4497be8400000000000000000000000000000000000000000000000000000000815260040160405180910390fd5b84156112d95786546040517f2e1a7d4d000000000000000000000000000000000000000000000000000000008152600481018a905261010090910473ffffffffffffffffffffffffffffffffffffffff1690632e1a7d4d90602401600060405180830381600087803b15801561121d57600080fd5b505af1158015611231573d6000803e3d6000fd5b5050505060008a6040015173ffffffffffffffffffffffffffffffffffffffff168960405160006040518083038185875af1925050503d8060008114611293576040519150601f19603f3d011682016040523d82523d6000602084013e611298565b606091505b50509050806112d3576040517f6d963f8800000000000000000000000000000000000000000000000000000000815260040160405180910390fd5b5061130d565b61130d8a60400151898c610100015173ffffffffffffffffffffffffffffffffffffffff166116a19092919063ffffffff16565b8461131d57896101000151611320565b60005b73ffffffffffffffffffffffffffffffffffffffff1686611345578a60e00151611348565b60005b73ffffffffffffffffffffffffffffffffffffffff168b60c0015173ffffffffffffffffffffffffffffffffffffffff167f1d81b4318b379c644b5546ae9cf37d861a5c7547bf3dae6cfaecffa12f8748f38d600001518c6040516113b7929190918252602082015260400190565b60405180910390a45050505050505092915050565b6060806000600184516113df919061217b565b90508067ffffffffffffffff8111156113fa576113fa611dd9565b604051908082528060200260200182016040528015611423578160200160208202803683370190505b509250835167ffffffffffffffff81111561144057611440611dd9565b604051908082528060200260200182016040528015611469578160200160208202803683370190505b50915084826000815181106114805761148061218e565b60200260200101818152505060005b818110156116675760008582815181106114ab576114ab61218e565b602002602001015190506000868360016114c591906122eb565b815181106114d5576114d561218e565b602002602001015190506114ea8983836117ec565b8684815181106114fc576114fc61218e565b602002602001019073ffffffffffffffffffffffffffffffffffffffff16908173ffffffffffffffffffffffffffffffffffffffff16815250506000806115448b85856117ec565b73ffffffffffffffffffffffffffffffffffffffff16630902f1ac6040518163ffffffff1660e01b8152600401606060405180830381865afa15801561158e573d6000803e3d6000fd5b505050506040513d601f19601f820116820180604052508101906115b2919061231c565b506dffffffffffffffffffffffffffff1691506dffffffffffffffffffffffffffff1691508273ffffffffffffffffffffffffffffffffffffffff168473ffffffffffffffffffffffffffffffffffffffff16111561160d57905b896103e502826103e80201818b6103e502028161162c5761162c61236c565b049950898761163c8760016122eb565b8151811061164c5761164c61218e565b602090810291909101015250506001909201915061148f9050565b5050935093915050565b6000612710611680838261239b565b61168e9061ffff16856123bd565b61169891906123d4565b90505b92915050565b6040805173ffffffffffffffffffffffffffffffffffffffff8416602482015260448082018490528251808303909101815260649091019091526020810180517bffffffffffffffffffffffffffffffffffffffffffffffffffffffff167fa9059cbb0000000000000000000000000000000000000000000000000000000017905261172e908490611945565b505050565b60006107d084111561177a576040517f7b9314200000000000000000000000000000000000000000000000000000000081526107d060048201526024015b60405180910390fd5b6000828481111561178c575050828203835b612710818702049190910190600073ffffffffffffffffffffffffffffffffffffffff8916156117c257606460328402046117c5565b60005b90508083038382146117dd576117dd8a8a8484611a54565b50505090910395945050505050565b60008173ffffffffffffffffffffffffffffffffffffffff168373ffffffffffffffffffffffffffffffffffffffff161115611826579091905b6040517fffffffffffffffffffffffffffffffffffffffff000000000000000000000000606085811b8216602084015284901b1660348201528490604801604051602081830303815290604052805190602001206040516020016119079291907fff00000000000000000000000000000000000000000000000000000000000000815260609290921b7fffffffffffffffffffffffffffffffffffffffff00000000000000000000000016600183015260158201527f96e8ac4277198ff8b6f785478aa9a39f403cb768dd02cbee326c3e7da348845f603582015260550190565b604080517fffffffffffffffffffffffffffffffffffffffffffffffffffffffffffffffe08184030181529190528051602090910120949350505050565b60006119a7826040518060400160405280602081526020017f5361666545524332303a206c6f772d6c6576656c2063616c6c206661696c65648152508573ffffffffffffffffffffffffffffffffffffffff16611b599092919063ffffffff16565b90508051600014806119c85750808060200190518101906119c8919061240f565b61172e576040517f08c379a000000000000000000000000000000000000000000000000000000000815260206004820152602a60248201527f5361666545524332303a204552433230206f7065726174696f6e20646964206e60448201527f6f742073756363656564000000000000000000000000000000000000000000006064820152608401611771565b7f77fbd1c38a5ead50a5764a860fef6b91e5432a95f91228e67197edaf911cfc8d73ffffffffffffffffffffffffffffffffffffffff841615611ac45773ffffffffffffffffffffffffffffffffffffffff851660009081526002820160205260409020611ac29085611b70565b505b611ace8186611b70565b5073ffffffffffffffffffffffffffffffffffffffff858116600081815260038401602090815260408083209489168084529482528083208054890190556004860182529182902080548801905581518781529081018690527fb9c71741297b7329823b5575aa676062720448277d6da61cf68eb0fed6c4baf4910160405180910390a35050505050565b6060611b688484600085611b92565b949350505050565b60006116988373ffffffffffffffffffffffffffffffffffffffff8416611cab565b606082471015611c24576040517f08c379a000000000000000000000000000000000000000000000000000000000815260206004820152602660248201527f416464726573733a20696e73756666696369656e742062616c616e636520666f60448201527f722063616c6c00000000000000000000000000000000000000000000000000006064820152608401611771565b6000808673ffffffffffffffffffffffffffffffffffffffff168587604051611c4d919061245c565b60006040518083038185875af1925050503d8060008114611c8a576040519150601f19603f3d011682016040523d82523d6000602084013e611c8f565b606091505b5091509150611ca087838387611cfa565b979650505050505050565b6000818152600183016020526040812054611cf25750815460018181018455600084815260208082209093018490558454848252828601909352604090209190915561169b565b50600061169b565b60608315611d90578251600003611d895773ffffffffffffffffffffffffffffffffffffffff85163b611d89576040517f08c379a000000000000000000000000000000000000000000000000000000000815260206004820152601d60248201527f416464726573733a2063616c6c20746f206e6f6e2d636f6e74726163740000006044820152606401611771565b5081611b68565b611b688383815115611da55781518083602001fd5b806040517f08c379a00000000000000000000000000000000000000000000000000000000081526004016117719190612478565b7f4e487b7100000000000000000000000000000000000000000000000000000000600052604160045260246000fd5b604051610100810167ffffffffffffffff81118282101715611e2c57611e2c611dd9565b60405290565b604051610120810167ffffffffffffffff81118282101715611e2c57611e2c611dd9565b803573ffffffffffffffffffffffffffffffffffffffff81168114611e7a57600080fd5b919050565b803561ffff81168114611e7a57600080fd5b803565ffffffffffff81168114611e7a57600080fd5b600082601f830112611eb857600080fd5b8135602067ffffffffffffffff80831115611ed557611ed5611dd9565b8260051b6040517fffffffffffffffffffffffffffffffffffffffffffffffffffffffffffffffe0603f83011681018181108482111715611f1857611f18611dd9565b604052938452858101830193838101925087851115611f3657600080fd5b83870191505b84821015611ca057611f4d82611e56565b83529183019190830190611f3c565b600060408284031215611f6e57600080fd5b50919050565b60008060408385031215611f8757600080fd5b823567ffffffffffffffff80821115611f9f57600080fd5b908401906101008287031215611fb457600080fd5b611fbc611e08565b8235815260208301356020820152611fd660408401611e56565b6040820152611fe760608401611e7f565b6060820152611ff860808401611e7f565b608082015261200960a08401611e91565b60a082015261201a60c08401611e56565b60c082015260e08301358281111561203157600080fd5b61203d88828601611ea7565b60e0830152509350602085013591508082111561205957600080fd5b5061206685828601611f5c565b9150509250929050565b60008082840361014081121561208557600080fd5b6101208082121561209557600080fd5b61209d611e32565b915084358252602085013560208301526120b960408601611e56565b60408301526120ca60608601611e7f565b60608301526120db60808601611e7f565b60808301526120ec60a08601611e91565b60a08301526120fd60c08601611e56565b60c083015261210e60e08601611e56565b60e0830152610100612121818701611e56565b9083015290925083013567ffffffffffffffff81111561214057600080fd5b61206685828601611f5c565b7f4e487b7100000000000000000000000000000000000000000000000000000000600052601160045260246000fd5b8181038181111561169b5761169b61214c565b7f4e487b7100000000000000000000000000000000000000000000000000000000600052603260045260246000fd5b60008083357fffffffffffffffffffffffffffffffffffffffffffffffffffffffffffffffe18436030181126121f257600080fd5b83018035915067ffffffffffffffff82111561220d57600080fd5b60200191503681900382131561222257600080fd5b9250929050565b600061010073ffffffffffffffffffffffffffffffffffffffff80881684528651818151166020860152816020820151166040860152604081015165ffffffffffff80821660608801528060608401511660808801525050508060208801511660a085015250604086015160c08401528060e08401528381840152506101208385828501376000838501820152601f9093017fffffffffffffffffffffffffffffffffffffffffffffffffffffffffffffffe016909101909101949350505050565b8082018082111561169b5761169b61214c565b80516dffffffffffffffffffffffffffff81168114611e7a57600080fd5b60008060006060848603121561233157600080fd5b61233a846122fe565b9250612348602085016122fe565b9150604084015163ffffffff8116811461236157600080fd5b809150509250925092565b7f4e487b7100000000000000000000000000000000000000000000000000000000600052601260045260246000fd5b61ffff8281168282160390808211156123b6576123b661214c565b5092915050565b808202811582820484141761169b5761169b61214c565b60008261240a577f4e487b7100000000000000000000000000000000000000000000000000000000600052601260045260246000fd5b500490565b60006020828403121561242157600080fd5b8151801515811461243157600080fd5b9392505050565b60005b8381101561245357818101518382015260200161243b565b50506000910152565b6000825161246e818460208701612438565b9190910192915050565b6020815260008251806020840152612497816040850160208701612438565b601f017fffffffffffffffffffffffffffffffffffffffffffffffffffffffffffffffe016919091016040019291505056fea2646970667358221220fdc5457b1ac2fad7a0a1844e6f8e8347ba8384403c9cf0f1c28014fe0dafa24464736f6c63430008130033",
  "devdoc": {
    "kind": "dev",
    "methods": {},
    "version": 1
  },
  "userdoc": {
    "errors": {
      "FeeTooHigh(uint256)": [
        {
          "notice": "The swap fee is over the maximum allowed"
        }
      ]
    },
    "kind": "user",
    "methods": {},
    "version": 1
  },
  "storageLayout": {
    "storage": [],
    "types": null
  }
}