{
  "address": "0xb8B3A2C8D3062cae23AbB5A0B29D6DEE88167E70",
  "abi": [
    {
      "inputs": [],
      "name": "CallbackAlreadyActive",
      "type": "error"
    },
    {
      "inputs": [],
      "name": "CallbackStillActive",
      "type": "error"
    },
    {
      "inputs": [],
      "name": "DeadlineExpired",
      "type": "error"
    },
    {
      "inputs": [],
      "name": "EthNotSupportedForWarp",
      "type": "error"
    },
    {
      "inputs": [
        {
          "internalType": "uint16",
          "name": "maxFeeBps",
          "type": "uint16"
        }
      ],
      "name": "FeeTooHigh",
      "type": "error"
    },
    {
      "inputs": [],
      "name": "InconsistentPartPayerOut",
      "type": "error"
    },
    {
      "inputs": [],
      "name": "InconsistentPartTokenOut",
      "type": "error"
    },
    {
      "inputs": [],
      "name": "IncorrectEthValue",
      "type": "error"
    },
    {
      "inputs": [],
      "name": "InsufficientAmountRemaining",
      "type": "error"
    },
    {
      "inputs": [],
      "name": "InsufficientOutputAmount",
      "type": "error"
    },
    {
      "inputs": [],
      "name": "InsufficientTokensDelivered",
      "type": "error"
    },
    {
      "inputs": [],
      "name": "NotEnoughParts",
      "type": "error"
    },
    {
      "inputs": [],
      "name": "UnexpectedPayerForWrap",
      "type": "error"
    },
    {
      "inputs": [],
      "name": "UnexpectedTokenForUnwrap",
      "type": "error"
    },
    {
      "inputs": [],
      "name": "UnexpectedTokenForWrap",
      "type": "error"
    },
    {
      "inputs": [],
      "name": "UnexpectedTokenOut",
      "type": "error"
    },
    {
      "inputs": [],
      "name": "UnexpectedValueAndTokenCombination",
      "type": "error"
    },
    {
      "inputs": [],
      "name": "UnhandledCommand",
      "type": "error"
    },
    {
      "inputs": [],
      "name": "UnhandledPoolKind",
      "type": "error"
    },
    {
      "anonymous": false,
      "inputs": [
        {
          "indexed": true,
          "internalType": "address",
          "name": "partner",
          "type": "address"
        },
        {
          "indexed": true,
          "internalType": "address",
          "name": "token",
          "type": "address"
        },
        {
          "indexed": false,
          "internalType": "uint256",
          "name": "partnerFee",
          "type": "uint256"
        },
        {
          "indexed": false,
          "internalType": "uint256",
          "name": "diamondFee",
          "type": "uint256"
        }
      ],
      "name": "CollectedFee",
      "type": "event"
    },
    {
      "inputs": [],
      "name": "COMMAND_TYPE_SPLIT",
      "outputs": [
        {
          "internalType": "uint256",
          "name": "",
          "type": "uint256"
        }
      ],
      "stateMutability": "view",
      "type": "function"
    },
    {
      "inputs": [],
      "name": "COMMAND_TYPE_UNWRAP",
      "outputs": [
        {
          "internalType": "uint256",
          "name": "",
          "type": "uint256"
        }
      ],
      "stateMutability": "view",
      "type": "function"
    },
    {
      "inputs": [],
      "name": "COMMAND_TYPE_WARP_CURVE_EXACT_INPUT_SINGLE",
      "outputs": [
        {
          "internalType": "uint256",
          "name": "",
          "type": "uint256"
        }
      ],
      "stateMutability": "view",
      "type": "function"
    },
    {
      "inputs": [],
      "name": "COMMAND_TYPE_WARP_UNI_V2_LIKE_EXACT_INPUT",
      "outputs": [
        {
          "internalType": "uint256",
          "name": "",
          "type": "uint256"
        }
      ],
      "stateMutability": "view",
      "type": "function"
    },
    {
      "inputs": [],
      "name": "COMMAND_TYPE_WARP_UNI_V2_LIKE_EXACT_INPUT_SINGLE",
      "outputs": [
        {
          "internalType": "uint256",
          "name": "",
          "type": "uint256"
        }
      ],
      "stateMutability": "view",
      "type": "function"
    },
    {
      "inputs": [],
      "name": "COMMAND_TYPE_WARP_UNI_V3_LIKE_EXACT_INPUT",
      "outputs": [
        {
          "internalType": "uint256",
          "name": "",
          "type": "uint256"
        }
      ],
      "stateMutability": "view",
      "type": "function"
    },
    {
      "inputs": [],
      "name": "COMMAND_TYPE_WARP_UNI_V3_LIKE_EXACT_INPUT_SINGLE",
      "outputs": [
        {
          "internalType": "uint256",
          "name": "",
          "type": "uint256"
        }
      ],
      "stateMutability": "view",
      "type": "function"
    },
    {
      "inputs": [],
      "name": "COMMAND_TYPE_WRAP",
      "outputs": [
        {
          "internalType": "uint256",
          "name": "",
          "type": "uint256"
        }
      ],
      "stateMutability": "view",
      "type": "function"
    },
    {
      "inputs": [],
      "name": "commandTypeSplit",
      "outputs": [
        {
          "internalType": "uint256",
          "name": "",
          "type": "uint256"
        }
      ],
      "stateMutability": "pure",
      "type": "function"
    },
    {
      "inputs": [],
      "name": "commandTypeUnwrap",
      "outputs": [
        {
          "internalType": "uint256",
          "name": "",
          "type": "uint256"
        }
      ],
      "stateMutability": "pure",
      "type": "function"
    },
    {
      "inputs": [],
      "name": "commandTypeWarpCurveExactInputSingle",
      "outputs": [
        {
          "internalType": "uint256",
          "name": "",
          "type": "uint256"
        }
      ],
      "stateMutability": "pure",
      "type": "function"
    },
    {
      "inputs": [],
      "name": "commandTypeWarpUniV2LikeExactInput",
      "outputs": [
        {
          "internalType": "uint256",
          "name": "",
          "type": "uint256"
        }
      ],
      "stateMutability": "pure",
      "type": "function"
    },
    {
      "inputs": [],
      "name": "commandTypeWarpUniV2LikeExactInputSingle",
      "outputs": [
        {
          "internalType": "uint256",
          "name": "",
          "type": "uint256"
        }
      ],
      "stateMutability": "pure",
      "type": "function"
    },
    {
      "inputs": [],
      "name": "commandTypeWarpUniV3LikeExactInput",
      "outputs": [
        {
          "internalType": "uint256",
          "name": "",
          "type": "uint256"
        }
      ],
      "stateMutability": "pure",
      "type": "function"
    },
    {
      "inputs": [],
      "name": "commandTypeWarpUniV3LikeExactInputSingle",
      "outputs": [
        {
          "internalType": "uint256",
          "name": "",
          "type": "uint256"
        }
      ],
      "stateMutability": "pure",
      "type": "function"
    },
    {
      "inputs": [],
      "name": "commandTypeWrap",
      "outputs": [
        {
          "internalType": "uint256",
          "name": "",
          "type": "uint256"
        }
      ],
      "stateMutability": "pure",
      "type": "function"
    },
    {
      "inputs": [
        {
          "components": [
            {
              "internalType": "address",
              "name": "partner",
              "type": "address"
            },
            {
              "internalType": "uint16",
              "name": "feeBps",
              "type": "uint16"
            },
            {
              "internalType": "uint16",
              "name": "slippageBps",
              "type": "uint16"
            },
            {
              "internalType": "address",
              "name": "recipient",
              "type": "address"
            },
            {
              "internalType": "address",
              "name": "tokenIn",
              "type": "address"
            },
            {
              "internalType": "address",
              "name": "tokenOut",
              "type": "address"
            },
            {
              "internalType": "uint256",
              "name": "amountIn",
              "type": "uint256"
            },
            {
              "internalType": "uint256",
              "name": "amountOut",
              "type": "uint256"
            },
            {
              "internalType": "uint48",
              "name": "deadline",
              "type": "uint48"
            },
            {
              "internalType": "bytes",
              "name": "commands",
              "type": "bytes"
            }
          ],
          "internalType": "struct IWarpLink.Params",
          "name": "params",
          "type": "tuple"
        }
      ],
      "name": "warpLinkEngage",
      "outputs": [],
      "stateMutability": "payable",
      "type": "function"
    }
  ],
  "transactionHash": "0x5e478bd2d8bdcf0f38fd669dc6d735ca58d483ef7bb07b2f73c46487cd2085f8",
  "args": [],
  "numDeployments": 3,
  "solcInputHash": "a4ac5d642fa54a4b458d2f7e4f0d7ffe",
  "bytecode": "0x608060405234801561000f575f80fd5b50613aa08061001d5f395ff3fe608060405260043610610109575f3560e01c8063cd98504c116100a1578063dcc4555111610071578063e92a6f0511610057578063e92a6f051461022d578063eb2b767714610241578063fa31c9c014610255575f80fd5b8063dcc4555114610204578063e67cbdb814610219575f80fd5b8063cd98504c146101b6578063cedf0d18146101ca578063d267733d146101dd578063dc76f872146101f1575f80fd5b806391f46532116100dc57806391f465321461016957806393a4c0cb1461017c578063ad5d50261461018f578063b41e3c2c146101a3575f80fd5b80632cad76e81461010d57806344b14b811461012e57806367ec524c1461014257806372c30b0614610155575b5f80fd5b348015610118575f80fd5b5060085b60405190815260200160405180910390f35b348015610139575f80fd5b5061011c600181565b34801561014d575f80fd5b50600761011c565b348015610160575f80fd5b5061011c600881565b348015610174575f80fd5b50600461011c565b348015610187575f80fd5b50600361011c565b34801561019a575f80fd5b5061011c600781565b3480156101ae575f80fd5b50600661011c565b3480156101c1575f80fd5b5061011c600681565b3480156101d5575f80fd5b50600561011c565b3480156101e8575f80fd5b5061011c600281565b3480156101fc575f80fd5b50600261011c565b61021761021236600461369f565b610268565b005b348015610224575f80fd5b5061011c600381565b348015610238575f80fd5b5061011c600481565b34801561024c575f80fd5b5061011c600581565b348015610260575f80fd5b50600161011c565b80610100015165ffffffffffff164211156102af576040517f1ab7da6b00000000000000000000000000000000000000000000000000000000815260040160405180910390fd5b604080516060810182525f8082526020820181905291810182815260c08401518252608084015173ffffffffffffffffffffffffffffffffffffffff1690529034900361035257608082015173ffffffffffffffffffffffffffffffffffffffff16610347576040517fd34bde3a00000000000000000000000000000000000000000000000000000000815260040160405180910390fd5b3360208201526103e8565b608082015173ffffffffffffffffffffffffffffffffffffffff16156103a4576040517fd34bde3a00000000000000000000000000000000000000000000000000000000815260040160405180910390fd5b8160c0015134146103e1576040517fab0a033b00000000000000000000000000000000000000000000000000000000815260040160405180910390fd5b3060208201525b5f61040c836101200151604080518082019091528181528151909101602082015290565b90506104188183610579565b8051604082015160a0860151929450909173ffffffffffffffffffffffffffffffffffffffff80831691161461047a576040517fae39073000000000000000000000000000000000000000000000000000000000815260040160405180910390fd5b61048c8560e0015186604001516106b1565b8210156104c5576040517f42301c2300000000000000000000000000000000000000000000000000000000815260040160405180910390fd5b6104e1855f01518660a0015187602001518860e00151866106de565b915073ffffffffffffffffffffffffffffffffffffffff811661054b57846060015173ffffffffffffffffffffffffffffffffffffffff166108fc8390811502906040515f60405180830381858888f19350505050158015610545573d5f803e3d5ffd5b50610572565b60608501516105729073ffffffffffffffffffffffffffffffffffffffff8316908461079b565b5050505050565b604080516060810182525f80825260208201819052918101919091525f6105a68480516001018051915290565b60ff1690505f5b818110156106a5575f6105c68680516001018051915290565b60ff169050600181036105e3576105dc85610874565b9450610692565b600281036105f4576105dc856109df565b60038103610606576105dc8686610bac565b60048103610618576105dc868661106c565b6005810361062a576105dc86866112fd565b6006810361063c576105dc868661198d565b6007810361064e576105dc8686611e39565b60088103610660576105dc86866122f6565b6040517f8ccd166700000000000000000000000000000000000000000000000000000000815260040160405180910390fd5b508061069d816137c5565b9150506105ad565b50829150505b92915050565b5f6127106106bf83826137fc565b6106cd9061ffff1685613817565b6106d7919061385b565b9392505050565b5f6107d061ffff85161115610728576040517f8ea70c070000000000000000000000000000000000000000000000000000000081526107d060048201526024015b60405180910390fd5b5f8284811115610739575050828203835b61271061ffff871682020491909101905f73ffffffffffffffffffffffffffffffffffffffff8916156107725760646032840204610774565b5f5b905080830383821461078c5761078c8a8a8484612611565b50505090910395945050505050565b60405173ffffffffffffffffffffffffffffffffffffffff831660248201526044810182905261086f9084907fa9059cbb00000000000000000000000000000000000000000000000000000000906064015b604080517fffffffffffffffffffffffffffffffffffffffffffffffffffffffffffffffe08184030181529190526020810180517bffffffffffffffffffffffffffffffffffffffffffffffffffffffff167fffffffff0000000000000000000000000000000000000000000000000000000090931692909217909152612714565b505050565b604080516060810182525f8082526020820181905281830152908201517f1c1cf3c8827d48db80e17913589584c81d7f8da7f2100c9a87a7bf64829a0e109073ffffffffffffffffffffffffffffffffffffffff1615610900576040517f45369fbb00000000000000000000000000000000000000000000000000000000815260040160405180910390fd5b602083015173ffffffffffffffffffffffffffffffffffffffff163014610953576040517f32d40df100000000000000000000000000000000000000000000000000000000815260040160405180910390fd5b805473ffffffffffffffffffffffffffffffffffffffff166040808501829052845181517fd0e30db0000000000000000000000000000000000000000000000000000000008152915163d0e30db0926004808201925f9290919082900301818588803b1580156109c1575f80fd5b505af11580156109d3573d5f803e3d5ffd5b50959695505050505050565b604080516060810182525f80825260208201819052818301527f1c1cf3c8827d48db80e17913589584c81d7f8da7f2100c9a87a7bf64829a0e108054928401519192909173ffffffffffffffffffffffffffffffffffffffff918216911614610a74576040517fb2ee070800000000000000000000000000000000000000000000000000000000815260040160405180910390fd5b602083015173ffffffffffffffffffffffffffffffffffffffff81163014801590610aa0573060208601525b5f60408601528015610ad65784518354610ad69173ffffffffffffffffffffffffffffffffffffffff9091169084903090612821565b825485516040517f2e1a7d4d00000000000000000000000000000000000000000000000000000000815273ffffffffffffffffffffffffffffffffffffffff90921691632e1a7d4d91610b2f9160040190815260200190565b5f604051808303815f87803b158015610b46575f80fd5b505af1158015610b58573d5f803e3d5ffd5b5050506020860151865160405173ffffffffffffffffffffffffffffffffffffffff909216925080156108fc02915f818181858888f19350505050158015610ba2573d5f803e3d5ffd5b5093949350505050565b604080516060810182525f80825260208201819052818301529082015173ffffffffffffffffffffffffffffffffffffffff16610c15576040517f767836b800000000000000000000000000000000000000000000000000000000815260040160405180910390fd5b604080516080810182525f8082526020820181905291810182905260608101919091528351601401805190855273ffffffffffffffffffffffffffffffffffffffff1681528351601401805190855273ffffffffffffffffffffffffffffffffffffffff1660208201528351600101805190855260ff1660011460408201528351600201805190855261ffff16606082015260208301513073ffffffffffffffffffffffffffffffffffffffff90911603610cfd57602081015183516040850151610cf89273ffffffffffffffffffffffffffffffffffffffff9091169161079b565b610d40565b610d3983602001518260200151855f0151866040015173ffffffffffffffffffffffffffffffffffffffff16612821909392919063ffffffff16565b3060208401525b5f80826020015173ffffffffffffffffffffffffffffffffffffffff16630902f1ac6040518163ffffffff1660e01b8152600401606060405180830381865afa158015610d8f573d5f803e3d5ffd5b505050506040513d601f19601f82011682018060405250810190610db391906138b0565b506dffffffffffffffffffffffffffff1691506dffffffffffffffffffffffffffff1691508260400151610de357905b6060830151855161ffff6127109283031691840290820290810190830281610e0d57610e0d61382e565b0486525082516040517f70a082310000000000000000000000000000000000000000000000000000000081523060048201525f9173ffffffffffffffffffffffffffffffffffffffff16906370a0823190602401602060405180830381865afa158015610e7c573d5f803e3d5ffd5b505050506040513d601f19601f82011682018060405250810190610ea091906138fc565b9050836020015173ffffffffffffffffffffffffffffffffffffffff1663022c0d9f8560400151610ed2578751610ed4565b5f5b8660400151610ee3575f610ee6565b88515b6040517fffffffff0000000000000000000000000000000000000000000000000000000060e085901b16815260048101929092526024820152306044820152608060648201525f608482015260a4015f604051808303815f87803b158015610f4c575f80fd5b505af1158015610f5e573d5f803e3d5ffd5b505085516040517f70a082310000000000000000000000000000000000000000000000000000000081523060048201525f935073ffffffffffffffffffffffffffffffffffffffff90911691506370a0823190602401602060405180830381865afa158015610fcf573d5f803e3d5ffd5b505050506040513d601f19601f82011682018060405250810190610ff391906138fc565b90508181108061100d5750865161100a9083613913565b81105b15611044576040517f946beb5300000000000000000000000000000000000000000000000000000000815260040160405180910390fd5b5050915173ffffffffffffffffffffffffffffffffffffffff16604085015250919392505050565b604080516060810182525f80825260208201819052918101919091525f6110998480516001018051915290565b835160ff9190911691505f60028310156110df576040517f1d6beb5700000000000000000000000000000000000000000000000000000000815260040160405180910390fd5b5f805f5b858110156112ce575f6110f7600188613926565b82106111035785611130565b6127106111168b80516002018051915290565b8a516111269161ffff1690613817565b611130919061385b565b90508581111561116c576040517f0f24c51700000000000000000000000000000000000000000000000000000000815260040160405180910390fd5b6111768187613926565b604080516060810182525f6020808301828152838501928352868452908e015173ffffffffffffffffffffffffffffffffffffffff908116909152928d01519092169091529096506111c88b82610579565b9050825f036111e45780602001519350806040015194506112b6565b8473ffffffffffffffffffffffffffffffffffffffff16816040015173ffffffffffffffffffffffffffffffffffffffff161461124d576040517fd7af48f200000000000000000000000000000000000000000000000000000000815260040160405180910390fd5b8373ffffffffffffffffffffffffffffffffffffffff16816020015173ffffffffffffffffffffffffffffffffffffffff16146112b6576040517f51a769fd00000000000000000000000000000000000000000000000000000000815260040160405180910390fd5b80516112c29087613913565b955050506001016110e3565b5073ffffffffffffffffffffffffffffffffffffffff9081166020880152166040860152845250919392505050565b604080516060810182525f808252602082018190529181019190915261133d60405180606001604052806060815260200160608152602001606081525090565b5f61134e8580516001018051915290565b60ff16905061135e816001613913565b67ffffffffffffffff81111561137657611376613553565b60405190808252806020026020018201604052801561139f578160200160208202803683370190505b50808352604085015181519091905f906113bb576113bb613939565b602002602001019073ffffffffffffffffffffffffffffffffffffffff16908173ffffffffffffffffffffffffffffffffffffffff16815250505f5b8181101561145357855160140180519087528351611416836001613913565b8151811061142657611426613939565b73ffffffffffffffffffffffffffffffffffffffff909216602092830291909101909101526001016113f7565b5061145e8582612885565b602083015261146d8582612926565b6040830152815180515f91908390811061148957611489613939565b60209081029190910101516040517f70a0823100000000000000000000000000000000000000000000000000000000815230600482015273ffffffffffffffffffffffffffffffffffffffff909116906370a0823190602401602060405180830381865afa1580156114fd573d5f803e3d5ffd5b505050506040513d601f19601f8201168201806040525081019061152191906138fc565b90505f61153e8460400151875f0151865f015187602001516129ae565b90503073ffffffffffffffffffffffffffffffffffffffff16866020015173ffffffffffffffffffffffffffffffffffffffff16036115cb576115c684602001515f8151811061159057611590613939565b6020026020010151875f0151886040015173ffffffffffffffffffffffffffffffffffffffff1661079b9092919063ffffffff16565b611627565b611620866020015185602001515f815181106115e9576115e9613939565b6020026020010151885f0151896040015173ffffffffffffffffffffffffffffffffffffffff16612821909392919063ffffffff16565b3060208701525b5f5b8381101561181b575f61163d826001613913565b90505f865f0151828151811061165557611655613939565b602002602001015173ffffffffffffffffffffffffffffffffffffffff16875f0151848151811061168857611688613939565b602002602001015173ffffffffffffffffffffffffffffffffffffffff16106116b1575f6116b4565b60015b90505f6002885f0151516116c89190613926565b84106116d457306116f3565b876020015183815181106116ea576116ea613939565b60200260200101515b90508760200151848151811061170b5761170b613939565b602002602001015173ffffffffffffffffffffffffffffffffffffffff1663022c0d9f836117525786858151811061174557611745613939565b6020026020010151611754565b5f5b8461175f575f61177a565b87868151811061177157611771613939565b60200260200101515b6040517fffffffff0000000000000000000000000000000000000000000000000000000060e085901b1681526004810192909252602482015273ffffffffffffffffffffffffffffffffffffffff84166044820152608060648201525f608482015260a4015f604051808303815f87803b1580156117f6575f80fd5b505af1158015611808573d5f803e3d5ffd5b5050600190950194506116299350505050565b505f845f0151848151811061183257611832613939565b60209081029190910101516040517f70a0823100000000000000000000000000000000000000000000000000000000815230600482015273ffffffffffffffffffffffffffffffffffffffff909116906370a0823190602401602060405180830381865afa1580156118a6573d5f803e3d5ffd5b505050506040513d601f19601f820116820180604052508101906118ca91906138fc565b905081600183516118db9190613926565b815181106118eb576118eb613939565b60209081029190910101518752828110806119105750865161190d9084613913565b81105b15611947576040517f946beb5300000000000000000000000000000000000000000000000000000000815260040160405180910390fd5b845180518590811061195b5761195b613939565b602090810291909101015173ffffffffffffffffffffffffffffffffffffffff16604088015250949695505050505050565b60408051606080820183525f80835260208084018290528385018290528451608081018652828152908101829052938401819052908301528351601401805190855290919073ffffffffffffffffffffffffffffffffffffffff1681528351601401805190855273ffffffffffffffffffffffffffffffffffffffff9081166020830152604084015116611a4d576040517f767836b800000000000000000000000000000000000000000000000000000000815260040160405180910390fd5b80516040517f70a082310000000000000000000000000000000000000000000000000000000081523060048201525f9173ffffffffffffffffffffffffffffffffffffffff16906370a0823190602401602060405180830381865afa158015611ab8573d5f803e3d5ffd5b505050506040513d601f19601f82011682018060405250810190611adc91906138fc565b90505f825f015173ffffffffffffffffffffffffffffffffffffffff16856040015173ffffffffffffffffffffffffffffffffffffffff16109050611b716040518060600160405280875f01518152602001876020015173ffffffffffffffffffffffffffffffffffffffff168152602001876040015173ffffffffffffffffffffffffffffffffffffffff16815250612bdb565b8015611c4957602083015185516040517f128acb08000000000000000000000000000000000000000000000000000000008152306004820152831515602482015260448101919091526401000276a4606482015260a060848201525f60a482018190529173ffffffffffffffffffffffffffffffffffffffff169063128acb089060c40160408051808303815f875af1158015611c10573d5f803e3d5ffd5b505050506040513d601f19601f82011682018060405250810190611c349190613966565b91505080611c4190613988565b865250611d25565b602083015185516040517f128acb080000000000000000000000000000000000000000000000000000000081523060048201528315156024820152604481019190915273fffd8963efd1fc6a506488495d951d5263988d25606482015260a060848201525f60a482018190529173ffffffffffffffffffffffffffffffffffffffff169063128acb089060c40160408051808303815f875af1158015611cf1573d5f803e3d5ffd5b505050506040513d601f19601f82011682018060405250810190611d159190613966565b509050611d2181613988565b8652505b611d2d612d44565b82516040517f70a082310000000000000000000000000000000000000000000000000000000081523060048201525f9173ffffffffffffffffffffffffffffffffffffffff16906370a0823190602401602060405180830381865afa158015611d98573d5f803e3d5ffd5b505050506040513d601f19601f82011682018060405250810190611dbc91906138fc565b905082811080611dd657508551611dd39084613913565b81105b15611e0d576040517f946beb5300000000000000000000000000000000000000000000000000000000815260040160405180910390fd5b5050905173ffffffffffffffffffffffffffffffffffffffff1660408401525050306020820152919050565b604080516060810182525f8082526020820181905291810191909152611e7960405180606001604052806060815260200160608152602001606081525090565b5f611e8a8580516001018051915290565b60ff169050611e998582612885565b8252611ea58582612885565b602083015281515f90611eb9600184613926565b81518110611ec957611ec9613939565b60209081029190910101516040517f70a082310000000000000000000000000000000000000000000000000000000081523060048201529091505f9073ffffffffffffffffffffffffffffffffffffffff8316906370a0823190602401602060405180830381865afa158015611f41573d5f803e3d5ffd5b505050506040513d601f19601f82011682018060405250810190611f6591906138fc565b90505f5b83811015612206575f8115611fa2578551611f85600184613926565b81518110611f9557611f95613939565b6020026020010151611fa8565b87604001515b9050855f01518281518110611fbf57611fbf613939565b60209081029190910181015173ffffffffffffffffffffffffffffffffffffffff9081166040808c0182905280516060810182528c5181528c850151841694810194909452918416918301829052119061201890612bdb565b825f03612026573060208a01525b5f8760200151848151811061203d5761203d613939565b60200260200101519050811561211b5789516040517f128acb08000000000000000000000000000000000000000000000000000000008152306004820152831515602482015260448101919091526401000276a4606482015260a060848201525f60a482018190529073ffffffffffffffffffffffffffffffffffffffff83169063128acb089060c40160408051808303815f875af11580156120e2573d5f803e3d5ffd5b505050506040513d601f19601f820116820180604052508101906121069190613966565b9150508061211390613988565b8b52506121f3565b89516040517f128acb080000000000000000000000000000000000000000000000000000000081523060048201528315156024820152604481019190915273fffd8963efd1fc6a506488495d951d5263988d25606482015260a060848201525f60a482018190529073ffffffffffffffffffffffffffffffffffffffff83169063128acb089060c40160408051808303815f875af11580156121bf573d5f803e3d5ffd5b505050506040513d601f19601f820116820180604052508101906121e39190613966565b5090506121ef81613988565b8b52505b6121fb612d44565b505050600101611f69565b5060408087015190517f70a082310000000000000000000000000000000000000000000000000000000081523060048201525f9173ffffffffffffffffffffffffffffffffffffffff16906370a0823190602401602060405180830381865afa158015612275573d5f803e3d5ffd5b505050506040513d601f19601f8201168201806040525081019061229991906138fc565b9050818110806122b3575086516122b09083613913565b81105b156122ea576040517f946beb5300000000000000000000000000000000000000000000000000000000815260040160405180910390fd5b50949695505050505050565b60408051606080820183525f8083526020808401829052838501829052845160c0810186528281529081018290529384018190529083018190526080830181905260a08301528351601401805190855290919073ffffffffffffffffffffffffffffffffffffffff1681528351601401805190855273ffffffffffffffffffffffffffffffffffffffff1660208201528351600101805190855260ff1660408201528351600101805190855260ff1660608201528351600101805190855260ff1660808201528351600101805190855260ff1660011460a082015260408301518151602085015173ffffffffffffffffffffffffffffffffffffffff928316159291821615913091161461243b576020850151855160408701516124349273ffffffffffffffffffffffffffffffffffffffff909116913090612821565b3060208601525b5f816124d55783516040517f70a0823100000000000000000000000000000000000000000000000000000000815230600482015273ffffffffffffffffffffffffffffffffffffffff909116906370a0823190602401602060405180830381865afa1580156124ac573d5f803e3d5ffd5b505050506040513d601f19601f820116820180604052508101906124d091906138fc565b6124d7565b475b90508261250c5760208401518651604088015161250c9273ffffffffffffffffffffffffffffffffffffffff90911691612da4565b61253e84608001518560a00151866020015186612529575f61252c565b89515b604089015160608a01518c515f612e93565b5f826125d85784516040517f70a0823100000000000000000000000000000000000000000000000000000000815230600482015273ffffffffffffffffffffffffffffffffffffffff909116906370a0823190602401602060405180830381865afa1580156125af573d5f803e3d5ffd5b505050506040513d601f19601f820116820180604052508101906125d391906138fc565b6125da565b475b855173ffffffffffffffffffffffffffffffffffffffff16604089015290506126038282613926565b875250949695505050505050565b7f4edbd34b5b006870ab724677d99b508debf8dcac0dc8134c9c43b93f8afe50f073ffffffffffffffffffffffffffffffffffffffff8416156126805773ffffffffffffffffffffffffffffffffffffffff85165f908152600282016020526040902061267e9085613222565b505b61268a8186613222565b5073ffffffffffffffffffffffffffffffffffffffff8581165f81815260038401602090815260408083209489168084529482528083208054890190556004860182529182902080548801905581518781529081018690527fb9c71741297b7329823b5575aa676062720448277d6da61cf68eb0fed6c4baf4910160405180910390a35050505050565b5f612775826040518060400160405280602081526020017f5361666545524332303a206c6f772d6c6576656c2063616c6c206661696c65648152508573ffffffffffffffffffffffffffffffffffffffff166132439092919063ffffffff16565b905080515f148061279557508080602001905181019061279591906139be565b61086f576040517f08c379a000000000000000000000000000000000000000000000000000000000815260206004820152602a60248201527f5361666545524332303a204552433230206f7065726174696f6e20646964206e60448201527f6f74207375636365656400000000000000000000000000000000000000000000606482015260840161071f565b60405173ffffffffffffffffffffffffffffffffffffffff8085166024830152831660448201526064810182905261287f9085907f23b872dd00000000000000000000000000000000000000000000000000000000906084016107ed565b50505050565b60608167ffffffffffffffff8111156128a0576128a0613553565b6040519080825280602002602001820160405280156128c9578160200160208202803683370190505b5090505f5b8281101561291f57835160140180519085528282815181106128f2576128f2613939565b73ffffffffffffffffffffffffffffffffffffffff909216602092830291909101909101526001016128ce565b5092915050565b60608167ffffffffffffffff81111561294157612941613553565b60405190808252806020026020018201604052801561296a578160200160208202803683370190505b5090505f5b8281101561291f578351600201805190855282828151811061299357612993613939565b61ffff9092166020928302919091019091015260010161296f565b805182516060919067ffffffffffffffff8111156129ce576129ce613553565b6040519080825280602002602001820160405280156129f7578160200160208202803683370190505b50915084825f81518110612a0d57612a0d613939565b6020026020010181815250505f5b81811015612bd1575f858281518110612a3657612a36613939565b602002602001015190505f86836001612a4f9190613913565b81518110612a5f57612a5f613939565b602002602001015190505f898481518110612a7c57612a7c613939565b6020026020010151612710612a9191906137fc565b61ffff1690505f80888681518110612aab57612aab613939565b602002602001015173ffffffffffffffffffffffffffffffffffffffff16630902f1ac6040518163ffffffff1660e01b8152600401606060405180830381865afa158015612afb573d5f803e3d5ffd5b505050506040513d601f19601f82011682018060405250810190612b1f91906138b0565b506dffffffffffffffffffffffffffff1691506dffffffffffffffffffffffffffff1691508373ffffffffffffffffffffffffffffffffffffffff168573ffffffffffffffffffffffffffffffffffffffff161115612b7a57905b828b0282612710020181848d020281612b9557612b9561382e565b049a508a88612ba5886001613913565b81518110612bb557612bb5613939565b6020908102919091010152505060019093019250612a1b915050565b5050949350505050565b7f3029b773e586da235d6a0709bacd2cb14a2e6562f997f3c8684513a487bcbf7a5460ff16600103612c39576040517f65d4e04900000000000000000000000000000000000000000000000000000000815260040160405180910390fd5b7f3029b773e586da235d6a0709bacd2cb14a2e6562f997f3c8684513a487bcbf7a805460017fffffffffffffffffffffffffffffffffffffffffffffffffffffffffffffff0090911617905580517f3029b773e586da235d6a0709bacd2cb14a2e6562f997f3c8684513a487bcbf7b5560208101517f3029b773e586da235d6a0709bacd2cb14a2e6562f997f3c8684513a487bcbf7c80547fffffffffffffffffffffffff000000000000000000000000000000000000000090811673ffffffffffffffffffffffffffffffffffffffff938416179091556040909201517f3029b773e586da235d6a0709bacd2cb14a2e6562f997f3c8684513a487bcbf7d80549093169116179055565b7f3029b773e586da235d6a0709bacd2cb14a2e6562f997f3c8684513a487bcbf7a5460ff16600103612da2576040517f129c8cdb00000000000000000000000000000000000000000000000000000000815260040160405180910390fd5b565b6040805173ffffffffffffffffffffffffffffffffffffffff8416602482015260448082018490528251808303909101815260649091019091526020810180517bffffffffffffffffffffffffffffffffffffffffffffffffffffffff167f095ea7b300000000000000000000000000000000000000000000000000000000179052612e308482613259565b61287f5760405173ffffffffffffffffffffffffffffffffffffffff841660248201525f6044820152612e899085907f095ea7b300000000000000000000000000000000000000000000000000000000906064016107ed565b61287f8482612714565b8760ff16600103612fbd578615612f48576040517fa6417ed600000000000000000000000000000000000000000000000000000000815260ff808616600f90810b6004840152908516900b6024820152604481018390526064810182905273ffffffffffffffffffffffffffffffffffffffff87169063a6417ed69087906084015b5f604051808303818588803b158015612f2c575f80fd5b505af1158015612f3e573d5f803e3d5ffd5b5050505050613218565b6040517f3df0212400000000000000000000000000000000000000000000000000000000815260ff808616600f90810b6004840152908516900b6024820152604481018390526064810182905273ffffffffffffffffffffffffffffffffffffffff871690633df02124908790608401612f15565b8760ff166002036130fb578615613086576040517fa6417ed600000000000000000000000000000000000000000000000000000000815260ff808616600f90810b6004840152908516900b6024820152604481018390526064810182905273ffffffffffffffffffffffffffffffffffffffff87169063a6417ed69087906084015b60206040518083038185885af115801561305b573d5f803e3d5ffd5b50505050506040513d601f19601f8201168201806040525081019061308091906138fc565b50613218565b6040517f3df0212400000000000000000000000000000000000000000000000000000000815260ff808616600f90810b6004840152908516900b6024820152604481018390526064810182905273ffffffffffffffffffffffffffffffffffffffff871690633df0212490879060840161303f565b8760ff166003036131e6578615613179576040517f65b2489b00000000000000000000000000000000000000000000000000000000815260ff808616600483015284166024820152604481018390526064810182905273ffffffffffffffffffffffffffffffffffffffff8716906365b2489b90879060840161303f565b6040517f5b41b90800000000000000000000000000000000000000000000000000000000815260ff808616600483015284166024820152604481018390526064810182905273ffffffffffffffffffffffffffffffffffffffff871690635b41b90890879060840161303f565b6040517ff1c43ede00000000000000000000000000000000000000000000000000000000815260040160405180910390fd5b5050505050505050565b5f6106d78373ffffffffffffffffffffffffffffffffffffffff8416613314565b606061325184845f85613360565b949350505050565b5f805f8473ffffffffffffffffffffffffffffffffffffffff168460405161328191906139ff565b5f604051808303815f865af19150503d805f81146132ba576040519150601f19603f3d011682016040523d82523d5f602084013e6132bf565b606091505b50915091508180156132e95750805115806132e95750808060200190518101906132e991906139be565b801561330b575073ffffffffffffffffffffffffffffffffffffffff85163b15155b95945050505050565b5f81815260018301602052604081205461335957508154600181810184555f8481526020808220909301849055845484825282860190935260409020919091556106ab565b505f6106ab565b6060824710156133f2576040517f08c379a000000000000000000000000000000000000000000000000000000000815260206004820152602660248201527f416464726573733a20696e73756666696369656e742062616c616e636520666f60448201527f722063616c6c0000000000000000000000000000000000000000000000000000606482015260840161071f565b5f808673ffffffffffffffffffffffffffffffffffffffff16858760405161341a91906139ff565b5f6040518083038185875af1925050503d805f8114613454576040519150601f19603f3d011682016040523d82523d5f602084013e613459565b606091505b509150915061346a87838387613475565b979650505050505050565b6060831561350a5782515f036135035773ffffffffffffffffffffffffffffffffffffffff85163b613503576040517f08c379a000000000000000000000000000000000000000000000000000000000815260206004820152601d60248201527f416464726573733a2063616c6c20746f206e6f6e2d636f6e7472616374000000604482015260640161071f565b5081613251565b613251838381511561351f5781518083602001fd5b806040517f08c379a000000000000000000000000000000000000000000000000000000000815260040161071f9190613a1a565b7f4e487b71000000000000000000000000000000000000000000000000000000005f52604160045260245ffd5b604051610140810167ffffffffffffffff811182821017156135a4576135a4613553565b60405290565b803573ffffffffffffffffffffffffffffffffffffffff811681146135cd575f80fd5b919050565b803561ffff811681146135cd575f80fd5b803565ffffffffffff811681146135cd575f80fd5b5f82601f830112613607575f80fd5b813567ffffffffffffffff8082111561362257613622613553565b604051601f83017fffffffffffffffffffffffffffffffffffffffffffffffffffffffffffffffe0908116603f0116810190828211818310171561366857613668613553565b81604052838152866020858801011115613680575f80fd5b836020870160208301375f602085830101528094505050505092915050565b5f602082840312156136af575f80fd5b813567ffffffffffffffff808211156136c6575f80fd5b9083019061014082860312156136da575f80fd5b6136e2613580565b6136eb836135aa565b81526136f9602084016135d2565b602082015261370a604084016135d2565b604082015261371b606084016135aa565b606082015261372c608084016135aa565b608082015261373d60a084016135aa565b60a082015260c083013560c082015260e083013560e08201526101006137648185016135e3565b90820152610120838101358381111561377b575f80fd5b613787888287016135f8565b918301919091525095945050505050565b7f4e487b71000000000000000000000000000000000000000000000000000000005f52601160045260245ffd5b5f7fffffffffffffffffffffffffffffffffffffffffffffffffffffffffffffffff82036137f5576137f5613798565b5060010190565b61ffff82811682821603908082111561291f5761291f613798565b80820281158282048414176106ab576106ab613798565b7f4e487b71000000000000000000000000000000000000000000000000000000005f52601260045260245ffd5b5f8261388e577f4e487b71000000000000000000000000000000000000000000000000000000005f52601260045260245ffd5b500490565b80516dffffffffffffffffffffffffffff811681146135cd575f80fd5b5f805f606084860312156138c2575f80fd5b6138cb84613893565b92506138d960208501613893565b9150604084015163ffffffff811681146138f1575f80fd5b809150509250925092565b5f6020828403121561390c575f80fd5b5051919050565b808201808211156106ab576106ab613798565b818103818111156106ab576106ab613798565b7f4e487b71000000000000000000000000000000000000000000000000000000005f52603260045260245ffd5b5f8060408385031215613977575f80fd5b505080516020909101519092909150565b5f7f800000000000000000000000000000000000000000000000000000000000000082036139b8576139b8613798565b505f0390565b5f602082840312156139ce575f80fd5b815180151581146106d7575f80fd5b5f5b838110156139f75781810151838201526020016139df565b50505f910152565b5f8251613a108184602087016139dd565b9190910192915050565b602081525f8251806020840152613a388160408501602087016139dd565b601f017fffffffffffffffffffffffffffffffffffffffffffffffffffffffffffffffe016919091016040019291505056fea2646970667358221220b26ee2a5834b5f17900f49b4bca63a1e86ee414c2e843498f92ab32d93bd084c64736f6c63430008150033",
  "devdoc": {
    "kind": "dev",
    "methods": {},
    "version": 1
  },
  "userdoc": {
    "errors": {
      "FeeTooHigh(uint16)": [
        {
          "notice": "The swap fee is over the maximum allowed"
        }
      ]
    },
    "kind": "user",
    "methods": {},
    "version": 1
  },
  "storageLayout": {
    "storage": [],
    "types": null
  }
}