{
  "address": "0x32726E537C7b405f8A0910C41C97E0f52c637e2F",
  "abi": [
    {
      "inputs": [],
      "name": "DeadlineExpired",
      "type": "error"
    },
    {
      "inputs": [],
      "name": "EthNotSupportedForWarp",
      "type": "error"
    },
    {
      "inputs": [
        {
          "internalType": "uint16",
          "name": "maxFeeBps",
          "type": "uint16"
        }
      ],
      "name": "FeeTooHigh",
      "type": "error"
    },
    {
      "inputs": [],
      "name": "InconsistentPartPayerOut",
      "type": "error"
    },
    {
      "inputs": [],
      "name": "InconsistentPartTokenOut",
      "type": "error"
    },
    {
      "inputs": [],
      "name": "IncorrectEthValue",
      "type": "error"
    },
    {
      "inputs": [],
      "name": "InsufficientAmountRemaining",
      "type": "error"
    },
    {
      "inputs": [],
      "name": "InsufficientOutputAmount",
      "type": "error"
    },
    {
      "inputs": [],
      "name": "InsufficientTokensDelivered",
      "type": "error"
    },
    {
      "inputs": [],
      "name": "NotEnoughParts",
      "type": "error"
    },
    {
      "inputs": [],
      "name": "UnexpectedPayerForWrap",
      "type": "error"
    },
    {
      "inputs": [],
      "name": "UnexpectedTokenForUnwrap",
      "type": "error"
    },
    {
      "inputs": [],
      "name": "UnexpectedTokenForWrap",
      "type": "error"
    },
    {
      "inputs": [],
      "name": "UnexpectedTokenOut",
      "type": "error"
    },
    {
      "inputs": [],
      "name": "UnexpectedValueAndTokenCombination",
      "type": "error"
    },
    {
      "inputs": [],
      "name": "UnhandledCommand",
      "type": "error"
    },
    {
      "anonymous": false,
      "inputs": [
        {
          "indexed": true,
          "internalType": "address",
          "name": "partner",
          "type": "address"
        },
        {
          "indexed": true,
          "internalType": "address",
          "name": "token",
          "type": "address"
        },
        {
          "indexed": false,
          "internalType": "uint256",
          "name": "partnerFee",
          "type": "uint256"
        },
        {
          "indexed": false,
          "internalType": "uint256",
          "name": "diamondFee",
          "type": "uint256"
        }
      ],
      "name": "CollectedFee",
      "type": "event"
    },
    {
      "inputs": [],
      "name": "COMMAND_TYPE_SPLIT",
      "outputs": [
        {
          "internalType": "uint256",
          "name": "",
          "type": "uint256"
        }
      ],
      "stateMutability": "view",
      "type": "function"
    },
    {
      "inputs": [],
      "name": "COMMAND_TYPE_UNWRAP",
      "outputs": [
        {
          "internalType": "uint256",
          "name": "",
          "type": "uint256"
        }
      ],
      "stateMutability": "view",
      "type": "function"
    },
    {
      "inputs": [],
      "name": "COMMAND_TYPE_WARP_UNI_V2_LIKE_EXACT_INPUT",
      "outputs": [
        {
          "internalType": "uint256",
          "name": "",
          "type": "uint256"
        }
      ],
      "stateMutability": "view",
      "type": "function"
    },
    {
      "inputs": [],
      "name": "COMMAND_TYPE_WARP_UNI_V2_LIKE_EXACT_INPUT_SINGLE",
      "outputs": [
        {
          "internalType": "uint256",
          "name": "",
          "type": "uint256"
        }
      ],
      "stateMutability": "view",
      "type": "function"
    },
    {
      "inputs": [],
      "name": "COMMAND_TYPE_WARP_UNI_V3_LIKE_EXACT_INPUT",
      "outputs": [
        {
          "internalType": "uint256",
          "name": "",
          "type": "uint256"
        }
      ],
      "stateMutability": "view",
      "type": "function"
    },
    {
      "inputs": [],
      "name": "COMMAND_TYPE_WARP_UNI_V3_LIKE_EXACT_INPUT_SINGLE",
      "outputs": [
        {
          "internalType": "uint256",
          "name": "",
          "type": "uint256"
        }
      ],
      "stateMutability": "view",
      "type": "function"
    },
    {
      "inputs": [],
      "name": "COMMAND_TYPE_WRAP",
      "outputs": [
        {
          "internalType": "uint256",
          "name": "",
          "type": "uint256"
        }
      ],
      "stateMutability": "view",
      "type": "function"
    },
    {
      "inputs": [],
      "name": "commandTypeSplit",
      "outputs": [
        {
          "internalType": "uint256",
          "name": "",
          "type": "uint256"
        }
      ],
      "stateMutability": "pure",
      "type": "function"
    },
    {
      "inputs": [],
      "name": "commandTypeUnwrap",
      "outputs": [
        {
          "internalType": "uint256",
          "name": "",
          "type": "uint256"
        }
      ],
      "stateMutability": "pure",
      "type": "function"
    },
    {
      "inputs": [],
      "name": "commandTypeWarpUniV2LikeExactInput",
      "outputs": [
        {
          "internalType": "uint256",
          "name": "",
          "type": "uint256"
        }
      ],
      "stateMutability": "pure",
      "type": "function"
    },
    {
      "inputs": [],
      "name": "commandTypeWarpUniV2LikeExactInputSingle",
      "outputs": [
        {
          "internalType": "uint256",
          "name": "",
          "type": "uint256"
        }
      ],
      "stateMutability": "pure",
      "type": "function"
    },
    {
      "inputs": [],
      "name": "commandTypeWarpUniV3LikeExactInput",
      "outputs": [
        {
          "internalType": "uint256",
          "name": "",
          "type": "uint256"
        }
      ],
      "stateMutability": "pure",
      "type": "function"
    },
    {
      "inputs": [],
      "name": "commandTypeWarpUniV3LikeExactInputSingle",
      "outputs": [
        {
          "internalType": "uint256",
          "name": "",
          "type": "uint256"
        }
      ],
      "stateMutability": "pure",
      "type": "function"
    },
    {
      "inputs": [],
      "name": "commandTypeWrap",
      "outputs": [
        {
          "internalType": "uint256",
          "name": "",
          "type": "uint256"
        }
      ],
      "stateMutability": "pure",
      "type": "function"
    },
    {
      "inputs": [
        {
          "components": [
            {
              "internalType": "address",
              "name": "partner",
              "type": "address"
            },
            {
              "internalType": "uint16",
              "name": "feeBps",
              "type": "uint16"
            },
            {
              "internalType": "uint16",
              "name": "slippageBps",
              "type": "uint16"
            },
            {
              "internalType": "address",
              "name": "recipient",
              "type": "address"
            },
            {
              "internalType": "address",
              "name": "tokenIn",
              "type": "address"
            },
            {
              "internalType": "address",
              "name": "tokenOut",
              "type": "address"
            },
            {
              "internalType": "uint256",
              "name": "amountIn",
              "type": "uint256"
            },
            {
              "internalType": "uint256",
              "name": "amountOut",
              "type": "uint256"
            },
            {
              "internalType": "uint48",
              "name": "deadline",
              "type": "uint48"
            },
            {
              "internalType": "bytes",
              "name": "commands",
              "type": "bytes"
            }
          ],
          "internalType": "struct IWarpLink.Params",
          "name": "params",
          "type": "tuple"
        }
      ],
      "name": "warpLinkEngage",
      "outputs": [],
      "stateMutability": "payable",
      "type": "function"
    }
  ],
  "transactionHash": "0x0197ade3c778fc2c932ba2cccfd76b463b827a227b55f2a7031ca28d63eb2a92",
  "args": [],
  "numDeployments": 2,
  "solcInputHash": "c2a383195eacfa7c2a38925476920812",
  "bytecode": "0x608060405234801561000f575f80fd5b506132108061001d5f395ff3fe6080604052600436106100e4575f3560e01c8063cedf0d1811610087578063e67cbdb811610057578063e67cbdb8146101d1578063e92a6f05146101e5578063eb2b7677146101f9578063fa31c9c01461020d575f80fd5b8063cedf0d1814610182578063d267733d14610195578063dc76f872146101a9578063dcc45551146101bc575f80fd5b806393a4c0cb116100c257806393a4c0cb14610134578063ad5d502614610147578063b41e3c2c1461015b578063cd98504c1461016e575f80fd5b806344b14b81146100e857806367ec524c1461010e57806391f4653214610121575b5f80fd5b3480156100f3575f80fd5b506100fc600181565b60405190815260200160405180910390f35b348015610119575f80fd5b5060076100fc565b34801561012c575f80fd5b5060046100fc565b34801561013f575f80fd5b5060036100fc565b348015610152575f80fd5b506100fc600781565b348015610166575f80fd5b5060066100fc565b348015610179575f80fd5b506100fc600681565b34801561018d575f80fd5b5060056100fc565b3480156101a0575f80fd5b506100fc600281565b3480156101b4575f80fd5b5060026100fc565b6101cf6101ca366004612dbe565b610220565b005b3480156101dc575f80fd5b506100fc600381565b3480156101f0575f80fd5b506100fc600481565b348015610204575f80fd5b506100fc600581565b348015610218575f80fd5b5060016100fc565b80610100015165ffffffffffff16421115610267576040517f1ab7da6b00000000000000000000000000000000000000000000000000000000815260040160405180910390fd5b604080516060810182525f8082526020820181905291810182815260c08401518252608084015173ffffffffffffffffffffffffffffffffffffffff1690529034900361030a57608082015173ffffffffffffffffffffffffffffffffffffffff166102ff576040517fd34bde3a00000000000000000000000000000000000000000000000000000000815260040160405180910390fd5b3360208201526103a0565b608082015173ffffffffffffffffffffffffffffffffffffffff161561035c576040517fd34bde3a00000000000000000000000000000000000000000000000000000000815260040160405180910390fd5b8160c001513414610399576040517fab0a033b00000000000000000000000000000000000000000000000000000000815260040160405180910390fd5b3060208201525b5f6103c4836101200151604080518082019091528181528151909101602082015290565b90506103d08183610531565b8051604082015160a0860151929450909173ffffffffffffffffffffffffffffffffffffffff808316911614610432576040517fae39073000000000000000000000000000000000000000000000000000000000815260040160405180910390fd5b6104448560e001518660400151610657565b82101561047d576040517f42301c2300000000000000000000000000000000000000000000000000000000815260040160405180910390fd5b610499855f01518660a0015187602001518860e0015186610684565b915073ffffffffffffffffffffffffffffffffffffffff811661050357846060015173ffffffffffffffffffffffffffffffffffffffff166108fc8390811502906040515f60405180830381858888f193505050501580156104fd573d5f803e3d5ffd5b5061052a565b606085015161052a9073ffffffffffffffffffffffffffffffffffffffff83169084610741565b5050505050565b604080516060810182525f80825260208201819052918101919091525f61055e8480516001018051915290565b60ff1690505f5b8181101561064b575f61057e8680516001018051915290565b60ff1690506001810361059b576105948561081a565b9450610638565b600281036105ac5761059485610985565b600381036105be576105948686610b52565b600481036105d0576105948686611012565b600581036105e25761059486866112a3565b600681036105f4576105948686611933565b60078103610606576105948686611e49565b6040517f8ccd166700000000000000000000000000000000000000000000000000000000815260040160405180910390fd5b508061064381612ee4565b915050610565565b50829150505b92915050565b5f6127106106658382612f1b565b6106739061ffff1685612f36565b61067d9190612f7a565b9392505050565b5f6107d061ffff851611156106ce576040517f8ea70c070000000000000000000000000000000000000000000000000000000081526107d060048201526024015b60405180910390fd5b5f82848111156106df575050828203835b61271061ffff871682020491909101905f73ffffffffffffffffffffffffffffffffffffffff891615610718576064603284020461071a565b5f5b9050808303838214610732576107328a8a8484612432565b50505090910395945050505050565b60405173ffffffffffffffffffffffffffffffffffffffff83166024820152604481018290526108159084907fa9059cbb00000000000000000000000000000000000000000000000000000000906064015b604080517fffffffffffffffffffffffffffffffffffffffffffffffffffffffffffffffe08184030181529190526020810180517bffffffffffffffffffffffffffffffffffffffffffffffffffffffff167fffffffff0000000000000000000000000000000000000000000000000000000090931692909217909152612535565b505050565b604080516060810182525f8082526020820181905281830152908201517f1c1cf3c8827d48db80e17913589584c81d7f8da7f2100c9a87a7bf64829a0e109073ffffffffffffffffffffffffffffffffffffffff16156108a6576040517f45369fbb00000000000000000000000000000000000000000000000000000000815260040160405180910390fd5b602083015173ffffffffffffffffffffffffffffffffffffffff1630146108f9576040517f32d40df100000000000000000000000000000000000000000000000000000000815260040160405180910390fd5b805473ffffffffffffffffffffffffffffffffffffffff166040808501829052845181517fd0e30db0000000000000000000000000000000000000000000000000000000008152915163d0e30db0926004808201925f9290919082900301818588803b158015610967575f80fd5b505af1158015610979573d5f803e3d5ffd5b50959695505050505050565b604080516060810182525f80825260208201819052818301527f1c1cf3c8827d48db80e17913589584c81d7f8da7f2100c9a87a7bf64829a0e108054928401519192909173ffffffffffffffffffffffffffffffffffffffff918216911614610a1a576040517fb2ee070800000000000000000000000000000000000000000000000000000000815260040160405180910390fd5b602083015173ffffffffffffffffffffffffffffffffffffffff81163014801590610a46573060208601525b5f60408601528015610a7c5784518354610a7c9173ffffffffffffffffffffffffffffffffffffffff9091169084903090612642565b825485516040517f2e1a7d4d00000000000000000000000000000000000000000000000000000000815273ffffffffffffffffffffffffffffffffffffffff90921691632e1a7d4d91610ad59160040190815260200190565b5f604051808303815f87803b158015610aec575f80fd5b505af1158015610afe573d5f803e3d5ffd5b5050506020860151865160405173ffffffffffffffffffffffffffffffffffffffff909216925080156108fc02915f818181858888f19350505050158015610b48573d5f803e3d5ffd5b5093949350505050565b604080516060810182525f80825260208201819052818301529082015173ffffffffffffffffffffffffffffffffffffffff16610bbb576040517f767836b800000000000000000000000000000000000000000000000000000000815260040160405180910390fd5b604080516080810182525f8082526020820181905291810182905260608101919091528351601401805190855273ffffffffffffffffffffffffffffffffffffffff1681528351601401805190855273ffffffffffffffffffffffffffffffffffffffff1660208201528351600101805190855260ff1660011460408201528351600201805190855261ffff16606082015260208301513073ffffffffffffffffffffffffffffffffffffffff90911603610ca357602081015183516040850151610c9e9273ffffffffffffffffffffffffffffffffffffffff90911691610741565b610ce6565b610cdf83602001518260200151855f0151866040015173ffffffffffffffffffffffffffffffffffffffff16612642909392919063ffffffff16565b3060208401525b5f80826020015173ffffffffffffffffffffffffffffffffffffffff16630902f1ac6040518163ffffffff1660e01b8152600401606060405180830381865afa158015610d35573d5f803e3d5ffd5b505050506040513d601f19601f82011682018060405250810190610d599190612fcf565b506dffffffffffffffffffffffffffff1691506dffffffffffffffffffffffffffff1691508260400151610d8957905b6060830151855161ffff6127109283031691840290820290810190830281610db357610db3612f4d565b0486525082516040517f70a082310000000000000000000000000000000000000000000000000000000081523060048201525f9173ffffffffffffffffffffffffffffffffffffffff16906370a0823190602401602060405180830381865afa158015610e22573d5f803e3d5ffd5b505050506040513d601f19601f82011682018060405250810190610e46919061301b565b9050836020015173ffffffffffffffffffffffffffffffffffffffff1663022c0d9f8560400151610e78578751610e7a565b5f5b8660400151610e89575f610e8c565b88515b6040517fffffffff0000000000000000000000000000000000000000000000000000000060e085901b16815260048101929092526024820152306044820152608060648201525f608482015260a4015f604051808303815f87803b158015610ef2575f80fd5b505af1158015610f04573d5f803e3d5ffd5b505085516040517f70a082310000000000000000000000000000000000000000000000000000000081523060048201525f935073ffffffffffffffffffffffffffffffffffffffff90911691506370a0823190602401602060405180830381865afa158015610f75573d5f803e3d5ffd5b505050506040513d601f19601f82011682018060405250810190610f99919061301b565b905081811080610fb357508651610fb09083613032565b81105b15610fea576040517f946beb5300000000000000000000000000000000000000000000000000000000815260040160405180910390fd5b5050915173ffffffffffffffffffffffffffffffffffffffff16604085015250919392505050565b604080516060810182525f80825260208201819052918101919091525f61103f8480516001018051915290565b835160ff9190911691505f6002831015611085576040517f1d6beb5700000000000000000000000000000000000000000000000000000000815260040160405180910390fd5b5f805f5b85811015611274575f61109d600188613045565b82106110a957856110d6565b6127106110bc8b80516002018051915290565b8a516110cc9161ffff1690612f36565b6110d69190612f7a565b905085811115611112576040517f0f24c51700000000000000000000000000000000000000000000000000000000815260040160405180910390fd5b61111c8187613045565b604080516060810182525f6020808301828152838501928352868452908e015173ffffffffffffffffffffffffffffffffffffffff908116909152928d015190921690915290965061116e8b82610531565b9050825f0361118a57806020015193508060400151945061125c565b8473ffffffffffffffffffffffffffffffffffffffff16816040015173ffffffffffffffffffffffffffffffffffffffff16146111f3576040517fd7af48f200000000000000000000000000000000000000000000000000000000815260040160405180910390fd5b8373ffffffffffffffffffffffffffffffffffffffff16816020015173ffffffffffffffffffffffffffffffffffffffff161461125c576040517f51a769fd00000000000000000000000000000000000000000000000000000000815260040160405180910390fd5b80516112689087613032565b95505050600101611089565b5073ffffffffffffffffffffffffffffffffffffffff9081166020880152166040860152845250919392505050565b604080516060810182525f80825260208201819052918101919091526112e360405180606001604052806060815260200160608152602001606081525090565b5f6112f48580516001018051915290565b60ff169050611304816001613032565b67ffffffffffffffff81111561131c5761131c612c72565b604051908082528060200260200182016040528015611345578160200160208202803683370190505b50808352604085015181519091905f9061136157611361613058565b602002602001019073ffffffffffffffffffffffffffffffffffffffff16908173ffffffffffffffffffffffffffffffffffffffff16815250505f5b818110156113f9578551601401805190875283516113bc836001613032565b815181106113cc576113cc613058565b73ffffffffffffffffffffffffffffffffffffffff9092166020928302919091019091015260010161139d565b5061140485826126a6565b60208301526114138582612747565b6040830152815180515f91908390811061142f5761142f613058565b60209081029190910101516040517f70a0823100000000000000000000000000000000000000000000000000000000815230600482015273ffffffffffffffffffffffffffffffffffffffff909116906370a0823190602401602060405180830381865afa1580156114a3573d5f803e3d5ffd5b505050506040513d601f19601f820116820180604052508101906114c7919061301b565b90505f6114e48460400151875f0151865f015187602001516127cf565b90503073ffffffffffffffffffffffffffffffffffffffff16866020015173ffffffffffffffffffffffffffffffffffffffff16036115715761156c84602001515f8151811061153657611536613058565b6020026020010151875f0151886040015173ffffffffffffffffffffffffffffffffffffffff166107419092919063ffffffff16565b6115cd565b6115c6866020015185602001515f8151811061158f5761158f613058565b6020026020010151885f0151896040015173ffffffffffffffffffffffffffffffffffffffff16612642909392919063ffffffff16565b3060208701525b5f5b838110156117c1575f6115e3826001613032565b90505f865f015182815181106115fb576115fb613058565b602002602001015173ffffffffffffffffffffffffffffffffffffffff16875f0151848151811061162e5761162e613058565b602002602001015173ffffffffffffffffffffffffffffffffffffffff1610611657575f61165a565b60015b90505f6002885f01515161166e9190613045565b841061167a5730611699565b8760200151838151811061169057611690613058565b60200260200101515b9050876020015184815181106116b1576116b1613058565b602002602001015173ffffffffffffffffffffffffffffffffffffffff1663022c0d9f836116f8578685815181106116eb576116eb613058565b60200260200101516116fa565b5f5b84611705575f611720565b87868151811061171757611717613058565b60200260200101515b6040517fffffffff0000000000000000000000000000000000000000000000000000000060e085901b1681526004810192909252602482015273ffffffffffffffffffffffffffffffffffffffff84166044820152608060648201525f608482015260a4015f604051808303815f87803b15801561179c575f80fd5b505af11580156117ae573d5f803e3d5ffd5b5050600190950194506115cf9350505050565b505f845f015184815181106117d8576117d8613058565b60209081029190910101516040517f70a0823100000000000000000000000000000000000000000000000000000000815230600482015273ffffffffffffffffffffffffffffffffffffffff909116906370a0823190602401602060405180830381865afa15801561184c573d5f803e3d5ffd5b505050506040513d601f19601f82011682018060405250810190611870919061301b565b905081600183516118819190613045565b8151811061189157611891613058565b60209081029190910101518752828110806118b6575086516118b39084613032565b81105b156118ed576040517f946beb5300000000000000000000000000000000000000000000000000000000815260040160405180910390fd5b845180518590811061190157611901613058565b602090810291909101015173ffffffffffffffffffffffffffffffffffffffff16604088015250949695505050505050565b60408051606080820183525f80835260208084018290528385018290528451608081018652828152908101829052938401819052908301528351601401805190855290919073ffffffffffffffffffffffffffffffffffffffff1681528351601401805190855273ffffffffffffffffffffffffffffffffffffffff90811660208301526040840151166119f3576040517f767836b800000000000000000000000000000000000000000000000000000000815260040160405180910390fd5b80516040517f70a082310000000000000000000000000000000000000000000000000000000081523060048201525f9173ffffffffffffffffffffffffffffffffffffffff16906370a0823190602401602060405180830381865afa158015611a5e573d5f803e3d5ffd5b505050506040513d601f19601f82011682018060405250810190611a82919061301b565b82516040868101805182518084019093526020808a01805173ffffffffffffffffffffffffffffffffffffffff908116865293518416828601523090528701517f3029b773e586da235d6a0709bacd2cb14a2e6562f997f3c8684513a487bcbf7a80547fffffffffffffffffffffffff0000000000000000000000000000000000000000169184169190911790559394509182169190921610908115611c0e575f846020015173ffffffffffffffffffffffffffffffffffffffff1663128acb0830858a5f01516401000276a487604051602001611b8b9190815173ffffffffffffffffffffffffffffffffffffffff9081168252602092830151169181019190915260400190565b6040516020818303038152906040526040518663ffffffff1660e01b8152600401611bba9594939291906130f0565b60408051808303815f875af1158015611bd5573d5f803e3d5ffd5b505050506040513d601f19601f82011682018060405250810190611bf99190613136565b91505080611c0690613158565b875250611d04565b5f846020015173ffffffffffffffffffffffffffffffffffffffff1663128acb0830858a5f015173fffd8963efd1fc6a506488495d951d5263988d2587604051602001611c869190815173ffffffffffffffffffffffffffffffffffffffff9081168252602092830151169181019190915260400190565b6040516020818303038152906040526040518663ffffffff1660e01b8152600401611cb59594939291906130f0565b60408051808303815f875af1158015611cd0573d5f803e3d5ffd5b505050506040513d601f19601f82011682018060405250810190611cf49190613136565b509050611d0081613158565b8752505b7f3029b773e586da235d6a0709bacd2cb14a2e6562f997f3c8684513a487bcbf7a5473ffffffffffffffffffffffffffffffffffffffff1615611da3576040517f08c379a000000000000000000000000000000000000000000000000000000000815260206004820152601760248201527f43414c4c4241434b5f504f4f4c5f4e4f545f524553455400000000000000000060448201526064016106c5565b83516040517f70a082310000000000000000000000000000000000000000000000000000000081523060048201525f9173ffffffffffffffffffffffffffffffffffffffff16906370a0823190602401602060405180830381865afa158015611e0e573d5f803e3d5ffd5b505050506040513d601f19601f82011682018060405250810190611e32919061301b565b905083811080610fb357508651610fb09085613032565b604080516060810182525f8082526020820181905291810191909152611e8960405180606001604052806060815260200160608152602001606081525090565b5f611e9a8580516001018051915290565b60ff169050611ea985826126a6565b8252611eb585826126a6565b602083015281515f90611ec9600184613045565b81518110611ed957611ed9613058565b60209081029190910101516040517f70a082310000000000000000000000000000000000000000000000000000000081523060048201529091505f9073ffffffffffffffffffffffffffffffffffffffff8316906370a0823190602401602060405180830381865afa158015611f51573d5f803e3d5ffd5b505050506040513d601f19601f82011682018060405250810190611f75919061301b565b90505f5b83811015612342575f8115611fb2578551611f95600184613045565b81518110611fa557611fa5613058565b6020026020010151611fb8565b87604001515b9050855f01518281518110611fcf57611fcf613058565b60209081029190910181015173ffffffffffffffffffffffffffffffffffffffff9081166040808c0182905280518082019091528b84015183168152918416928201839052909110905f849003612027573060208b01525b5f8860200151858151811061203e5761203e613058565b60200260200101519050806120707f3029b773e586da235d6a0709bacd2cb14a2e6562f997f3c8684513a487bcbf7a90565b80547fffffffffffffffffffffffff00000000000000000000000000000000000000001673ffffffffffffffffffffffffffffffffffffffff9290921691909117905582156121a1575f8173ffffffffffffffffffffffffffffffffffffffff1663128acb0830868f5f01516401000276a48860405160200161211e9190815173ffffffffffffffffffffffffffffffffffffffff9081168252602092830151169181019190915260400190565b6040516020818303038152906040526040518663ffffffff1660e01b815260040161214d9594939291906130f0565b60408051808303815f875af1158015612168573d5f803e3d5ffd5b505050506040513d601f19601f8201168201806040525081019061218c9190613136565b9150508061219990613158565b8c5250612293565b5f8173ffffffffffffffffffffffffffffffffffffffff1663128acb0830868f5f015173fffd8963efd1fc6a506488495d951d5263988d25886040516020016122159190815173ffffffffffffffffffffffffffffffffffffffff9081168252602092830151169181019190915260400190565b6040516020818303038152906040526040518663ffffffff1660e01b81526004016122449594939291906130f0565b60408051808303815f875af115801561225f573d5f803e3d5ffd5b505050506040513d601f19601f820116820180604052508101906122839190613136565b50905061228f81613158565b8c52505b7f3029b773e586da235d6a0709bacd2cb14a2e6562f997f3c8684513a487bcbf7a5473ffffffffffffffffffffffffffffffffffffffff1615612332576040517f08c379a000000000000000000000000000000000000000000000000000000000815260206004820152601760248201527f43414c4c4241434b5f504f4f4c5f4e4f545f524553455400000000000000000060448201526064016106c5565b505060019092019150611f799050565b5060408087015190517f70a082310000000000000000000000000000000000000000000000000000000081523060048201525f9173ffffffffffffffffffffffffffffffffffffffff16906370a0823190602401602060405180830381865afa1580156123b1573d5f803e3d5ffd5b505050506040513d601f19601f820116820180604052508101906123d5919061301b565b9050818110806123ef575086516123ec9083613032565b81105b15612426576040517f946beb5300000000000000000000000000000000000000000000000000000000815260040160405180910390fd5b50949695505050505050565b7f4edbd34b5b006870ab724677d99b508debf8dcac0dc8134c9c43b93f8afe50f073ffffffffffffffffffffffffffffffffffffffff8416156124a15773ffffffffffffffffffffffffffffffffffffffff85165f908152600282016020526040902061249f90856129fc565b505b6124ab81866129fc565b5073ffffffffffffffffffffffffffffffffffffffff8581165f81815260038401602090815260408083209489168084529482528083208054890190556004860182529182902080548801905581518781529081018690527fb9c71741297b7329823b5575aa676062720448277d6da61cf68eb0fed6c4baf4910160405180910390a35050505050565b5f612596826040518060400160405280602081526020017f5361666545524332303a206c6f772d6c6576656c2063616c6c206661696c65648152508573ffffffffffffffffffffffffffffffffffffffff16612a1d9092919063ffffffff16565b905080515f14806125b65750808060200190518101906125b6919061318e565b610815576040517f08c379a000000000000000000000000000000000000000000000000000000000815260206004820152602a60248201527f5361666545524332303a204552433230206f7065726174696f6e20646964206e60448201527f6f7420737563636565640000000000000000000000000000000000000000000060648201526084016106c5565b60405173ffffffffffffffffffffffffffffffffffffffff808516602483015283166044820152606481018290526126a09085907f23b872dd0000000000000000000000000000000000000000000000000000000090608401610793565b50505050565b60608167ffffffffffffffff8111156126c1576126c1612c72565b6040519080825280602002602001820160405280156126ea578160200160208202803683370190505b5090505f5b82811015612740578351601401805190855282828151811061271357612713613058565b73ffffffffffffffffffffffffffffffffffffffff909216602092830291909101909101526001016126ef565b5092915050565b60608167ffffffffffffffff81111561276257612762612c72565b60405190808252806020026020018201604052801561278b578160200160208202803683370190505b5090505f5b8281101561274057835160020180519085528282815181106127b4576127b4613058565b61ffff90921660209283029190910190910152600101612790565b805182516060919067ffffffffffffffff8111156127ef576127ef612c72565b604051908082528060200260200182016040528015612818578160200160208202803683370190505b50915084825f8151811061282e5761282e613058565b6020026020010181815250505f5b818110156129f2575f85828151811061285757612857613058565b602002602001015190505f868360016128709190613032565b8151811061288057612880613058565b602002602001015190505f89848151811061289d5761289d613058565b60200260200101516127106128b29190612f1b565b61ffff1690505f808886815181106128cc576128cc613058565b602002602001015173ffffffffffffffffffffffffffffffffffffffff16630902f1ac6040518163ffffffff1660e01b8152600401606060405180830381865afa15801561291c573d5f803e3d5ffd5b505050506040513d601f19601f820116820180604052508101906129409190612fcf565b506dffffffffffffffffffffffffffff1691506dffffffffffffffffffffffffffff1691508373ffffffffffffffffffffffffffffffffffffffff168573ffffffffffffffffffffffffffffffffffffffff16111561299b57905b828b0282612710020181848d0202816129b6576129b6612f4d565b049a508a886129c6886001613032565b815181106129d6576129d6613058565b602090810291909101015250506001909301925061283c915050565b5050949350505050565b5f61067d8373ffffffffffffffffffffffffffffffffffffffff8416612a33565b6060612a2b84845f85612a7f565b949350505050565b5f818152600183016020526040812054612a7857508154600181810184555f848152602080822090930184905584548482528286019093526040902091909155610651565b505f610651565b606082471015612b11576040517f08c379a000000000000000000000000000000000000000000000000000000000815260206004820152602660248201527f416464726573733a20696e73756666696369656e742062616c616e636520666f60448201527f722063616c6c000000000000000000000000000000000000000000000000000060648201526084016106c5565b5f808673ffffffffffffffffffffffffffffffffffffffff168587604051612b3991906131ad565b5f6040518083038185875af1925050503d805f8114612b73576040519150601f19603f3d011682016040523d82523d5f602084013e612b78565b606091505b5091509150612b8987838387612b94565b979650505050505050565b60608315612c295782515f03612c225773ffffffffffffffffffffffffffffffffffffffff85163b612c22576040517f08c379a000000000000000000000000000000000000000000000000000000000815260206004820152601d60248201527f416464726573733a2063616c6c20746f206e6f6e2d636f6e747261637400000060448201526064016106c5565b5081612a2b565b612a2b8383815115612c3e5781518083602001fd5b806040517f08c379a00000000000000000000000000000000000000000000000000000000081526004016106c591906131c8565b7f4e487b71000000000000000000000000000000000000000000000000000000005f52604160045260245ffd5b604051610140810167ffffffffffffffff81118282101715612cc357612cc3612c72565b60405290565b803573ffffffffffffffffffffffffffffffffffffffff81168114612cec575f80fd5b919050565b803561ffff81168114612cec575f80fd5b803565ffffffffffff81168114612cec575f80fd5b5f82601f830112612d26575f80fd5b813567ffffffffffffffff80821115612d4157612d41612c72565b604051601f83017fffffffffffffffffffffffffffffffffffffffffffffffffffffffffffffffe0908116603f01168101908282118183101715612d8757612d87612c72565b81604052838152866020858801011115612d9f575f80fd5b836020870160208301375f602085830101528094505050505092915050565b5f60208284031215612dce575f80fd5b813567ffffffffffffffff80821115612de5575f80fd5b908301906101408286031215612df9575f80fd5b612e01612c9f565b612e0a83612cc9565b8152612e1860208401612cf1565b6020820152612e2960408401612cf1565b6040820152612e3a60608401612cc9565b6060820152612e4b60808401612cc9565b6080820152612e5c60a08401612cc9565b60a082015260c083013560c082015260e083013560e0820152610100612e83818501612d02565b908201526101208381013583811115612e9a575f80fd5b612ea688828701612d17565b918301919091525095945050505050565b7f4e487b71000000000000000000000000000000000000000000000000000000005f52601160045260245ffd5b5f7fffffffffffffffffffffffffffffffffffffffffffffffffffffffffffffffff8203612f1457612f14612eb7565b5060010190565b61ffff82811682821603908082111561274057612740612eb7565b808202811582820484141761065157610651612eb7565b7f4e487b71000000000000000000000000000000000000000000000000000000005f52601260045260245ffd5b5f82612fad577f4e487b71000000000000000000000000000000000000000000000000000000005f52601260045260245ffd5b500490565b80516dffffffffffffffffffffffffffff81168114612cec575f80fd5b5f805f60608486031215612fe1575f80fd5b612fea84612fb2565b9250612ff860208501612fb2565b9150604084015163ffffffff81168114613010575f80fd5b809150509250925092565b5f6020828403121561302b575f80fd5b5051919050565b8082018082111561065157610651612eb7565b8181038181111561065157610651612eb7565b7f4e487b71000000000000000000000000000000000000000000000000000000005f52603260045260245ffd5b5f5b8381101561309f578181015183820152602001613087565b50505f910152565b5f81518084526130be816020860160208601613085565b601f017fffffffffffffffffffffffffffffffffffffffffffffffffffffffffffffffe0169290920160200192915050565b5f73ffffffffffffffffffffffffffffffffffffffff8088168352861515602084015285604084015280851660608401525060a06080830152612b8960a08301846130a7565b5f8060408385031215613147575f80fd5b505080516020909101519092909150565b5f7f8000000000000000000000000000000000000000000000000000000000000000820361318857613188612eb7565b505f0390565b5f6020828403121561319e575f80fd5b8151801515811461067d575f80fd5b5f82516131be818460208701613085565b9190910192915050565b602081525f61067d60208301846130a756fea26469706673582212200d747087baadb09a641e8be01a4f46c1363ba34cb508a54054341d2aa597a06c64736f6c63430008150033",
  "devdoc": {
    "kind": "dev",
    "methods": {},
    "version": 1
  },
  "userdoc": {
    "errors": {
      "FeeTooHigh(uint16)": [
        {
          "notice": "The swap fee is over the maximum allowed"
        }
      ]
    },
    "kind": "user",
    "methods": {},
    "version": 1
  },
  "storageLayout": {
    "storage": [],
    "types": null
  }
}