{
  "address": "0x76B4bA62639A7e1B736BA39E808968727856299e",
  "abi": [
    {
      "inputs": [],
      "name": "CallbackAlreadyActive",
      "type": "error"
    },
    {
      "inputs": [],
      "name": "CallbackStillActive",
      "type": "error"
    },
    {
      "inputs": [],
      "name": "DeadlineExpired",
      "type": "error"
    },
    {
      "inputs": [
        {
          "internalType": "uint256",
          "name": "maxFeeBps",
          "type": "uint256"
        }
      ],
      "name": "FeeTooHigh",
      "type": "error"
    },
    {
      "inputs": [],
      "name": "IllegalJumpInSplit",
      "type": "error"
    },
    {
      "inputs": [],
      "name": "InconsistentPartPayerOut",
      "type": "error"
    },
    {
      "inputs": [],
      "name": "InconsistentPartTokenOut",
      "type": "error"
    },
    {
      "inputs": [],
      "name": "InsufficientAmountRemaining",
      "type": "error"
    },
    {
      "inputs": [],
      "name": "InsufficientEthValue",
      "type": "error"
    },
    {
      "inputs": [],
      "name": "InsufficientOutputAmount",
      "type": "error"
    },
    {
      "inputs": [],
      "name": "InsufficientTokensDelivered",
      "type": "error"
    },
    {
      "inputs": [],
      "name": "InvalidSgReceiveSrcAddress",
      "type": "error"
    },
    {
      "inputs": [],
      "name": "InvalidSgReceiverSender",
      "type": "error"
    },
    {
      "inputs": [],
      "name": "JumpMustBeLastCommand",
      "type": "error"
    },
    {
      "inputs": [],
      "name": "NativeTokenNotSupported",
      "type": "error"
    },
    {
      "inputs": [],
      "name": "NotEnoughParts",
      "type": "error"
    },
    {
      "inputs": [],
      "name": "UnexpectedPayerForWrap",
      "type": "error"
    },
    {
      "inputs": [],
      "name": "UnexpectedTokenForUnwrap",
      "type": "error"
    },
    {
      "inputs": [],
      "name": "UnexpectedTokenForWrap",
      "type": "error"
    },
    {
      "inputs": [],
      "name": "UnexpectedTokenOut",
      "type": "error"
    },
    {
      "inputs": [],
      "name": "UnhandledCommand",
      "type": "error"
    },
    {
      "inputs": [],
      "name": "UnhandledPoolKind",
      "type": "error"
    },
    {
      "inputs": [
        {
          "internalType": "uint16",
          "name": "",
          "type": "uint16"
        },
        {
          "internalType": "bytes",
          "name": "_srcAddress",
          "type": "bytes"
        },
        {
          "internalType": "uint256",
          "name": "",
          "type": "uint256"
        },
        {
          "internalType": "address",
          "name": "_token",
          "type": "address"
        },
        {
          "internalType": "uint256",
          "name": "amountLD",
          "type": "uint256"
        },
        {
          "internalType": "bytes",
          "name": "payload",
          "type": "bytes"
        }
      ],
      "name": "sgReceive",
      "outputs": [],
      "stateMutability": "nonpayable",
      "type": "function"
    },
    {
      "inputs": [
        {
          "components": [
            {
              "internalType": "address",
              "name": "partner",
              "type": "address"
            },
            {
              "internalType": "uint16",
              "name": "feeBps",
              "type": "uint16"
            },
            {
              "internalType": "uint16",
              "name": "slippageBps",
              "type": "uint16"
            },
            {
              "internalType": "address",
              "name": "recipient",
              "type": "address"
            },
            {
              "internalType": "address",
              "name": "tokenIn",
              "type": "address"
            },
            {
              "internalType": "address",
              "name": "tokenOut",
              "type": "address"
            },
            {
              "internalType": "uint256",
              "name": "amountIn",
              "type": "uint256"
            },
            {
              "internalType": "uint256",
              "name": "amountOut",
              "type": "uint256"
            },
            {
              "internalType": "uint48",
              "name": "deadline",
              "type": "uint48"
            },
            {
              "internalType": "bytes",
              "name": "commands",
              "type": "bytes"
            }
          ],
          "internalType": "struct IWarpLink.Params",
          "name": "params",
          "type": "tuple"
        },
        {
          "components": [
            {
              "internalType": "uint256",
              "name": "nonce",
              "type": "uint256"
            },
            {
              "internalType": "bytes",
              "name": "signature",
              "type": "bytes"
            }
          ],
          "internalType": "struct PermitParams",
          "name": "permit",
          "type": "tuple"
        }
      ],
      "name": "warpLinkEngage",
      "outputs": [],
      "stateMutability": "payable",
      "type": "function"
    }
  ],
  "transactionHash": "0x6735986f80f94b5fcc12afe73f447bc7169998ebcc84fc305eb112586e0b7c2f",
  "args": [],
  "numDeployments": 7,
  "solcInputHash": "cab82fec86d5f7c2b235b39f2bed97ca",
  "bytecode": "0x608060405234801561001057600080fd5b50614d15806100206000396000f3fe6080604052600436106100295760003560e01c8063ab8236f31461002e578063dc7b39db14610050575b600080fd5b34801561003a57600080fd5b5061004e610049366004614355565b610063565b005b61004e61005e366004614429565b6102e3565b7f1c1cf3c8827d48db80e17913589584c81d7f8da7f2100c9a87a7bf64829a0e106002015473ffffffffffffffffffffffffffffffffffffffff1633146100d6576040517fcebf3f7700000000000000000000000000000000000000000000000000000000815260040160405180910390fd5b6000858060200190518101906100ec919061454c565b905073ffffffffffffffffffffffffffffffffffffffff8116301461013d576040517fa9d0d13300000000000000000000000000000000000000000000000000000000815260040160405180910390fd5b60008280602001905181019061015391906145f3565b90503073ffffffffffffffffffffffffffffffffffffffff1663dc7b39db604051806101400160405280846000015173ffffffffffffffffffffffffffffffffffffffff168152602001846020015161ffff168152602001846040015161ffff168152602001846060015173ffffffffffffffffffffffffffffffffffffffff1681526020018873ffffffffffffffffffffffffffffffffffffffff1681526020018460a0015173ffffffffffffffffffffffffffffffffffffffff1681526020018781526020018460e00151815260200184610100015165ffffffffffff168152602001846101200151815250604051806040016040528060008152602001604051806020016040528060008152508152506040518363ffffffff1660e01b815260040161028392919061475a565b600060405180830381600087803b15801561029d57600080fd5b505af19250505080156102ae575060015b6102d95760608101516102d99073ffffffffffffffffffffffffffffffffffffffff871690866107c2565b5050505050505050565b81610100015165ffffffffffff1642111561032a576040517f1ab7da6b00000000000000000000000000000000000000000000000000000000815260040160405180910390fd5b6040805161014081018252600080825260208083018281528385018381526060808601858152608080880187815260a0890188815260c0808b018a905260e0808c018b81526101008d018c90526101208d019b909b528e5173ffffffffffffffffffffffffffffffffffffffff9081168d52998f015161ffff9081169099529b8e01805189168452958e01518916909652998c015190925291519093169092528701519094529285018051841690915251909116610440578260c00151341015610420576040517f1985c73500000000000000000000000000000000000000000000000000000000815260040160405180910390fd5b60c083015161042f90346148a8565b6101208201523060c08201526105d2565b3360c082015234610120820152600061045c60208401846148bb565b905011156105d2577f1c1cf3c8827d48db80e17913589584c81d7f8da7f2100c9a87a7bf64829a0e1060010160009054906101000a900473ffffffffffffffffffffffffffffffffffffffff1673ffffffffffffffffffffffffffffffffffffffff16632b67b5703360405180606001604052806040518060800160405280896080015173ffffffffffffffffffffffffffffffffffffffff1681526020018960c0015173ffffffffffffffffffffffffffffffffffffffff16815260200189610100015165ffffffffffff168152602001886000013565ffffffffffff1681525081526020013073ffffffffffffffffffffffffffffffffffffffff16815260200187610100015165ffffffffffff1681525085806020019061058091906148bb565b6040518563ffffffff1660e01b815260040161059f9493929190614927565b600060405180830381600087803b1580156105b957600080fd5b505af11580156105cd573d6000803e3d6000fd5b505050505b60006105f7846101200151604080518082019091528181528151909101602082015290565b9050610603818361089b565b60a08082015160e0830151918701519294509173ffffffffffffffffffffffffffffffffffffffff808316911614610667576040517fae39073000000000000000000000000000000000000000000000000000000000815260040160405180910390fd5b6106798660e001518760400151610a60565b8210156106b2576040517f42301c2300000000000000000000000000000000000000000000000000000000815260040160405180910390fd5b610120840151156106f057610120840151604051339180156108fc02916000818181858888f193505050501580156106ee573d6000803e3d6000fd5b505b83610100015160010361070557505050505050565b61072686600001518760a00151886020015161ffff168960e0015186610a8e565b915073ffffffffffffffffffffffffffffffffffffffff811661079357856060015173ffffffffffffffffffffffffffffffffffffffff166108fc839081150290604051600060405180830381858888f1935050505015801561078d573d6000803e3d6000fd5b506107ba565b60608601516107ba9073ffffffffffffffffffffffffffffffffffffffff831690846107c2565b505050505050565b60405173ffffffffffffffffffffffffffffffffffffffff83166024820152604481018290526108969084907fa9059cbb00000000000000000000000000000000000000000000000000000000906064015b604080517fffffffffffffffffffffffffffffffffffffffffffffffffffffffffffffffe08184030181529190526020810180517bffffffffffffffffffffffffffffffffffffffffffffffffffffffff167fffffffff0000000000000000000000000000000000000000000000000000000090931692909217909152610b47565b505050565b6040805161014081018252600080825260208201819052918101829052606081018290526080810182905260a0810182905260c0810182905260e08101829052610100810182905261012081019190915260006108fe8480516001018051915290565b60ff16905060005b81811015610a545760006109208680516001018051915290565b60ff1690506001810361093d5761093685610c56565b9450610a41565b6002810361094e5761093685610e03565b60038103610960576109368686611044565b600481036109725761093686866115fc565b60058103610984576109368686611949565b600681036109965761093686866120d3565b600781036109a85761093686866125dd565b600881036109ba576109368686612afc565b60098103610a0f576109cd6001846148a8565b8214610a05576040517fe31c95e900000000000000000000000000000000000000000000000000000000815260040160405180910390fd5b6109368686612f05565b6040517f8ccd166700000000000000000000000000000000000000000000000000000000815260040160405180910390fd5b5080610a4c816149e9565b915050610906565b50829150505b92915050565b6000612710610a6f8382614a21565b610a7d9061ffff1685614a3c565b610a879190614a82565b9392505050565b60006107d0841115610ad5576040517f7b9314200000000000000000000000000000000000000000000000000000000081526107d060048201526024015b60405180910390fd5b60008284811115610ae7575050828203835b612710818702049190910190600073ffffffffffffffffffffffffffffffffffffffff891615610b1d5760646032840204610b20565b60005b9050808303838214610b3857610b388a8a84846133d1565b50505090910395945050505050565b6000610ba9826040518060400160405280602081526020017f5361666545524332303a206c6f772d6c6576656c2063616c6c206661696c65648152508573ffffffffffffffffffffffffffffffffffffffff166134d69092919063ffffffff16565b9050805160001480610bca575080806020019051810190610bca9190614abd565b610896576040517f08c379a000000000000000000000000000000000000000000000000000000000815260206004820152602a60248201527f5361666545524332303a204552433230206f7065726174696f6e20646964206e60448201527f6f742073756363656564000000000000000000000000000000000000000000006064820152608401610acc565b6040805161014081018252600080825260208201819052918101829052606081018290526080810182905260a0810182905260c0810182905260e08082018390526101008201839052610120820192909252908201517f1c1cf3c8827d48db80e17913589584c81d7f8da7f2100c9a87a7bf64829a0e109073ffffffffffffffffffffffffffffffffffffffff1615610d1b576040517f45369fbb00000000000000000000000000000000000000000000000000000000815260040160405180910390fd5b60c083015173ffffffffffffffffffffffffffffffffffffffff163014610d6e576040517f32d40df100000000000000000000000000000000000000000000000000000000815260040160405180910390fd5b805473ffffffffffffffffffffffffffffffffffffffff1660e0840181905260a0840151604080517fd0e30db0000000000000000000000000000000000000000000000000000000008152905163d0e30db0929160048082019260009290919082900301818588803b158015610de357600080fd5b505af1158015610df7573d6000803e3d6000fd5b50959695505050505050565b6040805161014081018252600080825260208201819052918101829052606081018290526080810182905260a0810182905260c0810182905260e0810182905261010081018290526101208101829052907f1c1cf3c8827d48db80e17913589584c81d7f8da7f2100c9a87a7bf64829a0e10805460e085015191925073ffffffffffffffffffffffffffffffffffffffff918216911614610ed0576040517fb2ee070800000000000000000000000000000000000000000000000000000000815260040160405180910390fd5b60c083015173ffffffffffffffffffffffffffffffffffffffff81163014801590610efc573060c08601525b600060e08601528015610fad57600183015460a086015184546040517f36c7851600000000000000000000000000000000000000000000000000000000815273ffffffffffffffffffffffffffffffffffffffff8681166004830152306024830152928316604482015290821660648201529116906336c7851690608401600060405180830381600087803b158015610f9457600080fd5b505af1158015610fa8573d6000803e3d6000fd5b505050505b825460a08601516040517f2e1a7d4d00000000000000000000000000000000000000000000000000000000815273ffffffffffffffffffffffffffffffffffffffff90921691632e1a7d4d916110099160040190815260200190565b600060405180830381600087803b15801561102357600080fd5b505af1158015611037573d6000803e3d6000fd5b5096979650505050505050565b6040805161014081018252600080825260208201819052918101829052606081018290526080810182905260a0810182905260c0810182905260e08101829052610100810182905261012081019190915260e082015173ffffffffffffffffffffffffffffffffffffffff166110e6576040517fb10b947e00000000000000000000000000000000000000000000000000000000815260040160405180910390fd5b6040805160808101825260008082526020820181905291810182905260608101919091528351601401805190855273ffffffffffffffffffffffffffffffffffffffff1681528351601401805190855273ffffffffffffffffffffffffffffffffffffffff1660208201528351600101805190855260ff1660011460408201528351600201805190855261ffff16606082015260c08301513073ffffffffffffffffffffffffffffffffffffffff909116036111d8576111d381602001518460a001518560e0015173ffffffffffffffffffffffffffffffffffffffff166107c29092919063ffffffff16565b6112b0565b7f1c1cf3c8827d48db80e17913589584c81d7f8da7f2100c9a87a7bf64829a0e106001015460c0840151602083015160a086015160e08701516040517f36c7851600000000000000000000000000000000000000000000000000000000815273ffffffffffffffffffffffffffffffffffffffff948516600482015292841660248401529083166044830152821660648201529116906336c7851690608401600060405180830381600087803b15801561129157600080fd5b505af11580156112a5573d6000803e3d6000fd5b50503060c086015250505b600080826020015173ffffffffffffffffffffffffffffffffffffffff16630902f1ac6040518163ffffffff1660e01b8152600401606060405180830381865afa158015611302573d6000803e3d6000fd5b505050506040513d601f19601f820116820180604052508101906113269190614afd565b506dffffffffffffffffffffffffffff1691506dffffffffffffffffffffffffffff169150826040015161135657905b606083015160a086015161ffff612710928303169184029082029081019083028161138357611383614a53565b0460a08701525082516040517f70a0823100000000000000000000000000000000000000000000000000000000815230600482015260009173ffffffffffffffffffffffffffffffffffffffff16906370a0823190602401602060405180830381865afa1580156113f8573d6000803e3d6000fd5b505050506040513d601f19601f8201168201806040525081019061141c9190614b4d565b9050836020015173ffffffffffffffffffffffffffffffffffffffff1663022c0d9f8560400151611451578760a00151611454565b60005b866040015161146457600061146a565b8860a001515b6040517fffffffff0000000000000000000000000000000000000000000000000000000060e085901b16815260048101929092526024820152306044820152608060648201526000608482015260a401600060405180830381600087803b1580156114d457600080fd5b505af11580156114e8573d6000803e3d6000fd5b505085516040517f70a082310000000000000000000000000000000000000000000000000000000081523060048201526000935073ffffffffffffffffffffffffffffffffffffffff90911691506370a0823190602401602060405180830381865afa15801561155c573d6000803e3d6000fd5b505050506040513d601f19601f820116820180604052508101906115809190614b4d565b90508181108061159d575060a087015161159a9083614b66565b81105b156115d4576040517f946beb5300000000000000000000000000000000000000000000000000000000815260040160405180910390fd5b5050915173ffffffffffffffffffffffffffffffffffffffff1660e085015250919392505050565b6040805161014081018252600080825260208201819052918101829052606081018290526080810182905260a0810182905260c0810182905260e081018290526101008101829052610120810191909152600061165f8480516001018051915290565b60ff16905060008360a001519050600060028310156116aa576040517f1d6beb5700000000000000000000000000000000000000000000000000000000815260040160405180910390fd5b60008060005b858110156119175760006116c56001886148a8565b82106116d15785611701565b6127106116e48b80516002018051915290565b61ffff168a60a001516116f79190614a3c565b6117019190614a82565b90508581111561173d576040517f0f24c51700000000000000000000000000000000000000000000000000000000815260040160405180910390fd5b61174781876148a8565b6040805161014081018252600080825260208201819052918101829052606081018290526080810182905260c080820183815260e0808401858152610100850186905261012085019590955260a08401879052918e015173ffffffffffffffffffffffffffffffffffffffff908116909152908d0151169091529096506117ce8b8261089b565b905080610100015160010361180f576040517fd35869f800000000000000000000000000000000000000000000000000000000815260040160405180910390fd5b8260000361182a578060c0015193508060e0015194506118fc565b8473ffffffffffffffffffffffffffffffffffffffff168160e0015173ffffffffffffffffffffffffffffffffffffffff1614611893576040517fd7af48f200000000000000000000000000000000000000000000000000000000815260040160405180910390fd5b8373ffffffffffffffffffffffffffffffffffffffff168160c0015173ffffffffffffffffffffffffffffffffffffffff16146118fc576040517f51a769fd00000000000000000000000000000000000000000000000000000000815260040160405180910390fd5b60a081015161190b9087614b66565b955050506001016116b0565b5073ffffffffffffffffffffffffffffffffffffffff90811660c08801521660e086015260a085015250919392505050565b6040805161014081018252600080825260208201819052918101829052606081018290526080810182905260a0810182905260c0810182905260e0810182905261010081018290526101208101919091526119be60405180606001604052806060815260200160608152602001606081525090565b60006119d08580516001018051915290565b60ff1690506119e0816001614b66565b67ffffffffffffffff8111156119f8576119f86141e4565b604051908082528060200260200182016040528015611a21578160200160208202803683370190505b5080835260e08501518151909190600090611a3e57611a3e614b79565b602002602001019073ffffffffffffffffffffffffffffffffffffffff16908173ffffffffffffffffffffffffffffffffffffffff168152505060005b81811015611ad757855160140180519087528351611a9a836001614b66565b81518110611aaa57611aaa614b79565b73ffffffffffffffffffffffffffffffffffffffff90921660209283029190910190910152600101611a7b565b50611ae285826134ed565b6020830152611af1858261358f565b6040830152815180516000919083908110611b0e57611b0e614b79565b60209081029190910101516040517f70a0823100000000000000000000000000000000000000000000000000000000815230600482015273ffffffffffffffffffffffffffffffffffffffff909116906370a0823190602401602060405180830381865afa158015611b84573d6000803e3d6000fd5b505050506040513d601f19601f82011682018060405250810190611ba89190614b4d565b90506000611bc884604001518760a0015186600001518760200151613618565b90503073ffffffffffffffffffffffffffffffffffffffff168660c0015173ffffffffffffffffffffffffffffffffffffffff1603611c5757611c528460200151600081518110611c1b57611c1b614b79565b60200260200101518760a001518860e0015173ffffffffffffffffffffffffffffffffffffffff166107c29092919063ffffffff16565b611d52565b7f1c1cf3c8827d48db80e17913589584c81d7f8da7f2100c9a87a7bf64829a0e115460c08701516020860151805173ffffffffffffffffffffffffffffffffffffffff909316926336c78516929190600090611cb557611cb5614b79565b60200260200101518960a001518a60e001516040518563ffffffff1660e01b8152600401611d19949392919073ffffffffffffffffffffffffffffffffffffffff948516815292841660208401529083166040830152909116606082015260800190565b600060405180830381600087803b158015611d3357600080fd5b505af1158015611d47573d6000803e3d6000fd5b50503060c089015250505b60005b83811015611f56576000611d6a826001614b66565b9050600086600001518281518110611d8457611d84614b79565b602002602001015173ffffffffffffffffffffffffffffffffffffffff1687600001518481518110611db857611db8614b79565b602002602001015173ffffffffffffffffffffffffffffffffffffffff1610611de2576000611de5565b60015b905060006002886000015151611dfb91906148a8565b8410611e075730611e26565b87602001518381518110611e1d57611e1d614b79565b60200260200101515b905087602001518481518110611e3e57611e3e614b79565b602002602001015173ffffffffffffffffffffffffffffffffffffffff1663022c0d9f83611e8557868581518110611e7857611e78614b79565b6020026020010151611e88565b60005b84611e94576000611eaf565b878681518110611ea657611ea6614b79565b60200260200101515b6040517fffffffff0000000000000000000000000000000000000000000000000000000060e085901b1681526004810192909252602482015273ffffffffffffffffffffffffffffffffffffffff84166044820152608060648201526000608482015260a401600060405180830381600087803b158015611f2f57600080fd5b505af1158015611f43573d6000803e3d6000fd5b505060019095019450611d559350505050565b50600084600001518481518110611f6f57611f6f614b79565b60209081029190910101516040517f70a0823100000000000000000000000000000000000000000000000000000000815230600482015273ffffffffffffffffffffffffffffffffffffffff909116906370a0823190602401602060405180830381865afa158015611fe5573d6000803e3d6000fd5b505050506040513d601f19601f820116820180604052508101906120099190614b4d565b9050816001835161201a91906148a8565b8151811061202a5761202a614b79565b60200260200101518760a001818152505082811080612056575060a08701516120539084614b66565b81105b1561208d576040517f946beb5300000000000000000000000000000000000000000000000000000000815260040160405180910390fd5b84518051859081106120a1576120a1614b79565b602090810291909101015173ffffffffffffffffffffffffffffffffffffffff1660e088015250949695505050505050565b6040805161014081018252600080825260208201819052918101829052606081018290526080810182905260a0810182905260c0810182905260e0810182905261010081018290526101208101919091526040805160808101825260008082526020820181905291810182905260608101919091528351601401805190855273ffffffffffffffffffffffffffffffffffffffff1681528351601401805190855273ffffffffffffffffffffffffffffffffffffffff908116602083015260e0840151166121cd576040517fb10b947e00000000000000000000000000000000000000000000000000000000815260040160405180910390fd5b80516040517f70a0823100000000000000000000000000000000000000000000000000000000815230600482015260009173ffffffffffffffffffffffffffffffffffffffff16906370a0823190602401602060405180830381865afa15801561223b573d6000803e3d6000fd5b505050506040513d601f19601f8201168201806040525081019061225f9190614b4d565b90506000826000015173ffffffffffffffffffffffffffffffffffffffff168560e0015173ffffffffffffffffffffffffffffffffffffffff161090506122f760405180606001604052808760a0015181526020018760c0015173ffffffffffffffffffffffffffffffffffffffff1681526020018760e0015173ffffffffffffffffffffffffffffffffffffffff1681525061384d565b80156123db57602083015160a0868101516040517f128acb08000000000000000000000000000000000000000000000000000000008152306004820152841515602482015260448101919091526401000276a460648201526084810191909152600060a482018190529173ffffffffffffffffffffffffffffffffffffffff169063128acb089060c40160408051808303816000875af115801561239f573d6000803e3d6000fd5b505050506040513d601f19601f820116820180604052508101906123c39190614ba8565b915050806123d090614bcc565b60a0870152506124c3565b602083015160a0868101516040517f128acb080000000000000000000000000000000000000000000000000000000081523060048201528415156024820152604481019190915273fffd8963efd1fc6a506488495d951d5263988d2560648201526084810191909152600060a482018190529173ffffffffffffffffffffffffffffffffffffffff169063128acb089060c40160408051808303816000875af115801561248c573d6000803e3d6000fd5b505050506040513d601f19601f820116820180604052508101906124b09190614ba8565b5090506124bc81614bcc565b60a0870152505b6124cb6139b6565b82516040517f70a0823100000000000000000000000000000000000000000000000000000000815230600482015260009173ffffffffffffffffffffffffffffffffffffffff16906370a0823190602401602060405180830381865afa158015612539573d6000803e3d6000fd5b505050506040513d601f19601f8201168201806040525081019061255d9190614b4d565b90508281108061257a575060a08601516125779084614b66565b81105b156125b1576040517f946beb5300000000000000000000000000000000000000000000000000000000815260040160405180910390fd5b5050905173ffffffffffffffffffffffffffffffffffffffff1660e084015250503060c0820152919050565b6040805161014081018252600080825260208201819052918101829052606081018290526080810182905260a0810182905260c0810182905260e08101829052610100810182905261012081019190915261265260405180606001604052806060815260200160608152602001606081525090565b60006126648580516001018051915290565b60ff16905061267385826134ed565b825261267f85826134ed565b602083015281516000906126946001846148a8565b815181106126a4576126a4614b79565b60209081029190910101516040517f70a0823100000000000000000000000000000000000000000000000000000000815230600482015290915060009073ffffffffffffffffffffffffffffffffffffffff8316906370a0823190602401602060405180830381865afa15801561271f573d6000803e3d6000fd5b505050506040513d601f19601f820116820180604052508101906127439190614b4d565b905060005b83811015612a0657600081156127825785516127656001846148a8565b8151811061277557612775614b79565b6020026020010151612788565b8760e001515b9050856000015182815181106127a0576127a0614b79565b60209081029190910181015173ffffffffffffffffffffffffffffffffffffffff90811660e08b018190526040805160608101825260a08d0151815260c08d015184169481019490945291841691830182905211906127fe9061384d565b8260000361280d573060c08a01525b60008760200151848151811061282557612825614b79565b60200260200101519050811561290f5760a08a8101516040517f128acb08000000000000000000000000000000000000000000000000000000008152306004820152841515602482015260448101919091526401000276a460648201526084810191909152600060a482018190529073ffffffffffffffffffffffffffffffffffffffff83169063128acb089060c40160408051808303816000875af11580156128d3573d6000803e3d6000fd5b505050506040513d601f19601f820116820180604052508101906128f79190614ba8565b9150508061290490614bcc565b60a08c0152506129f3565b60a08a8101516040517f128acb080000000000000000000000000000000000000000000000000000000081523060048201528415156024820152604481019190915273fffd8963efd1fc6a506488495d951d5263988d2560648201526084810191909152600060a482018190529073ffffffffffffffffffffffffffffffffffffffff83169063128acb089060c40160408051808303816000875af11580156129bc573d6000803e3d6000fd5b505050506040513d601f19601f820116820180604052508101906129e09190614ba8565b5090506129ec81614bcc565b60a08c0152505b6129fb6139b6565b505050600101612748565b5060e08601516040517f70a0823100000000000000000000000000000000000000000000000000000000815230600482015260009173ffffffffffffffffffffffffffffffffffffffff16906370a0823190602401602060405180830381865afa158015612a78573d6000803e3d6000fd5b505050506040513d601f19601f82011682018060405250810190612a9c9190614b4d565b905081811080612ab9575060a0870151612ab69083614b66565b81105b15612af0576040517f946beb5300000000000000000000000000000000000000000000000000000000815260040160405180910390fd5b50949695505050505050565b6040805161014081018252600080825260208201819052918101829052606081018290526080810182905260a0810182905260c0810182905260e0810182905261010081018290526101208101919091526040805160c081018252600080825260208201819052918101829052606081018290526080810182905260a08101919091528351601401805190855273ffffffffffffffffffffffffffffffffffffffff1681528351601401805190855273ffffffffffffffffffffffffffffffffffffffff1660208201528351600101805190855260ff1660408201528351600101805190855260ff1660608201528351600101805190855260ff1660808201528351600101805190855260ff1660011460a082015260e0830151815160c085015173ffffffffffffffffffffffffffffffffffffffff9283161592918216159130911614612d15577f1c1cf3c8827d48db80e17913589584c81d7f8da7f2100c9a87a7bf64829a0e106001015460c086015160a087015160e08801516040517f36c7851600000000000000000000000000000000000000000000000000000000815273ffffffffffffffffffffffffffffffffffffffff93841660048201523060248201529183166044830152821660648201529116906336c7851690608401600060405180830381600087803b158015612cf657600080fd5b505af1158015612d0a573d6000803e3d6000fd5b50503060c088015250505b600081612db25783516040517f70a0823100000000000000000000000000000000000000000000000000000000815230600482015273ffffffffffffffffffffffffffffffffffffffff909116906370a0823190602401602060405180830381865afa158015612d89573d6000803e3d6000fd5b505050506040513d601f19601f82011682018060405250810190612dad9190614b4d565b612db4565b475b905082612df257612df284602001518760a001518860e0015173ffffffffffffffffffffffffffffffffffffffff16613a169092919063ffffffff16565b612e2c84608001518560a00151866020015186612e10576000612e16565b8960a001515b886040015189606001518c60a001516000613b0c565b600082612ec95784516040517f70a0823100000000000000000000000000000000000000000000000000000000815230600482015273ffffffffffffffffffffffffffffffffffffffff909116906370a0823190602401602060405180830381865afa158015612ea0573d6000803e3d6000fd5b505050506040513d601f19601f82011682018060405250810190612ec49190614b4d565b612ecb565b475b855173ffffffffffffffffffffffffffffffffffffffff1660e08901529050612ef482826148a8565b60a088015250949695505050505050565b6040805161014081018252600080825260208201819052918101829052606081018290526080810182905260a0810182905260c0810182905260e08101829052610100810182905261012081019190915260e082015173ffffffffffffffffffffffffffffffffffffffff16612fa7576040517fb10b947e00000000000000000000000000000000000000000000000000000000815260040160405180910390fd5b612fdd6040518060a00160405280600061ffff168152602001600081526020016000815260200160008152602001606081525090565b8351600201805190855261ffff1681528351600101805190855260ff1660208201528351600101805190855260ff1660408201528351600401805190855263ffffffff166060820152835160208082018051909201018552608082018190525160000361306c57825160e0840151602085015160a086015161306693929161ffff169080610a8e565b60a08401525b61307e83606001518460800151610a60565b8360a0015110156130bb576040517f42301c2300000000000000000000000000000000000000000000000000000000815260040160405180910390fd5b60e083015173ffffffffffffffffffffffffffffffffffffffff161561321f5760c083015173ffffffffffffffffffffffffffffffffffffffff1630146131cd577f1c1cf3c8827d48db80e17913589584c81d7f8da7f2100c9a87a7bf64829a0e106001015460c084015160a085015160e08601516040517f36c7851600000000000000000000000000000000000000000000000000000000815273ffffffffffffffffffffffffffffffffffffffff93841660048201523060248201529183166044830152821660648201529116906336c7851690608401600060405180830381600087803b1580156131ae57600080fd5b505af11580156131c2573d6000803e3d6000fd5b50503060c086015250505b61321f7f1c1cf3c8827d48db80e17913589584c81d7f8da7f2100c9a87a7bf64829a0e106002015460a085015160e086015173ffffffffffffffffffffffffffffffffffffffff908116921690613a16565b60016101008401527f1c1cf3c8827d48db80e17913589584c81d7f8da7f2100c9a87a7bf64829a0e125461012084015182516020840151604085015160a088015173ffffffffffffffffffffffffffffffffffffffff90951694639fbf10fc94939291903090606461329282605f614a3c565b61329c9190614a82565b60405180606001604052808b606001518152602001600081526020016040518060200160405280600081525081525060008b6080015151116132e2578c604001516132e4565b305b60405160200161331f919060609190911b7fffffffffffffffffffffffffffffffffffffffff00000000000000000000000016815260140190565b604080517fffffffffffffffffffffffffffffffffffffffffffffffffffffffffffffffe08184030181529082905260808d01517fffffffff0000000000000000000000000000000000000000000000000000000060e08d901b16835261338f9998979695949392600401614c04565b6000604051808303818588803b1580156133a857600080fd5b505af11580156133bc573d6000803e3d6000fd5b50506000610120870152509395945050505050565b7f77fbd1c38a5ead50a5764a860fef6b91e5432a95f91228e67197edaf911cfc8d73ffffffffffffffffffffffffffffffffffffffff8416156134415773ffffffffffffffffffffffffffffffffffffffff85166000908152600282016020526040902061343f9085613e97565b505b61344b8186613e97565b5073ffffffffffffffffffffffffffffffffffffffff858116600081815260038401602090815260408083209489168084529482528083208054890190556004860182529182902080548801905581518781529081018690527fb9c71741297b7329823b5575aa676062720448277d6da61cf68eb0fed6c4baf4910160405180910390a35050505050565b60606134e58484600085613eb9565b949350505050565b60608167ffffffffffffffff811115613508576135086141e4565b604051908082528060200260200182016040528015613531578160200160208202803683370190505b50905060005b82811015613588578351601401805190855282828151811061355b5761355b614b79565b73ffffffffffffffffffffffffffffffffffffffff90921660209283029190910190910152600101613537565b5092915050565b60608167ffffffffffffffff8111156135aa576135aa6141e4565b6040519080825280602002602001820160405280156135d3578160200160208202803683370190505b50905060005b8281101561358857835160020180519085528282815181106135fd576135fd614b79565b61ffff909216602092830291909101909101526001016135d9565b805182516060919067ffffffffffffffff811115613638576136386141e4565b604051908082528060200260200182016040528015613661578160200160208202803683370190505b509150848260008151811061367857613678614b79565b60200260200101818152505060005b818110156138435760008582815181106136a3576136a3614b79565b602002602001015190506000868360016136bd9190614b66565b815181106136cd576136cd614b79565b6020026020010151905060008984815181106136eb576136eb614b79565b60200260200101516127106137009190614a21565b61ffff16905060008088868151811061371b5761371b614b79565b602002602001015173ffffffffffffffffffffffffffffffffffffffff16630902f1ac6040518163ffffffff1660e01b8152600401606060405180830381865afa15801561376d573d6000803e3d6000fd5b505050506040513d601f19601f820116820180604052508101906137919190614afd565b506dffffffffffffffffffffffffffff1691506dffffffffffffffffffffffffffff1691508373ffffffffffffffffffffffffffffffffffffffff168573ffffffffffffffffffffffffffffffffffffffff1611156137ec57905b828b0282612710020181848d02028161380757613807614a53565b049a508a88613817886001614b66565b8151811061382757613827614b79565b6020908102919091010152505060019093019250613687915050565b5050949350505050565b7f3029b773e586da235d6a0709bacd2cb14a2e6562f997f3c8684513a487bcbf7a5460ff166001036138ab576040517f65d4e04900000000000000000000000000000000000000000000000000000000815260040160405180910390fd5b7f3029b773e586da235d6a0709bacd2cb14a2e6562f997f3c8684513a487bcbf7a805460017fffffffffffffffffffffffffffffffffffffffffffffffffffffffffffffff0090911617905580517f3029b773e586da235d6a0709bacd2cb14a2e6562f997f3c8684513a487bcbf7b5560208101517f3029b773e586da235d6a0709bacd2cb14a2e6562f997f3c8684513a487bcbf7c80547fffffffffffffffffffffffff000000000000000000000000000000000000000090811673ffffffffffffffffffffffffffffffffffffffff938416179091556040909201517f3029b773e586da235d6a0709bacd2cb14a2e6562f997f3c8684513a487bcbf7d80549093169116179055565b7f3029b773e586da235d6a0709bacd2cb14a2e6562f997f3c8684513a487bcbf7a5460ff16600103613a14576040517f129c8cdb00000000000000000000000000000000000000000000000000000000815260040160405180910390fd5b565b6040805173ffffffffffffffffffffffffffffffffffffffff8416602482015260448082018490528251808303909101815260649091019091526020810180517bffffffffffffffffffffffffffffffffffffffffffffffffffffffff167f095ea7b300000000000000000000000000000000000000000000000000000000179052613aa28482613fd2565b613b065760405173ffffffffffffffffffffffffffffffffffffffff8416602482015260006044820152613afc9085907f095ea7b30000000000000000000000000000000000000000000000000000000090606401610814565b613b068482610b47565b50505050565b8760ff16600103613c3a578615613bc5576040517fa6417ed600000000000000000000000000000000000000000000000000000000815260ff808616600f90810b6004840152908516900b6024820152604481018390526064810182905273ffffffffffffffffffffffffffffffffffffffff87169063a6417ed69087906084015b6000604051808303818588803b158015613ba757600080fd5b505af1158015613bbb573d6000803e3d6000fd5b50505050506102d9565b6040517f3df0212400000000000000000000000000000000000000000000000000000000815260ff808616600f90810b6004840152908516900b6024820152604481018390526064810182905273ffffffffffffffffffffffffffffffffffffffff871690633df02124908790608401613b8e565b8760ff16600203613d7a578615613d05576040517fa6417ed600000000000000000000000000000000000000000000000000000000815260ff808616600f90810b6004840152908516900b6024820152604481018390526064810182905273ffffffffffffffffffffffffffffffffffffffff87169063a6417ed69087906084015b60206040518083038185885af1158015613cda573d6000803e3d6000fd5b50505050506040513d601f19601f82011682018060405250810190613cff9190614b4d565b506102d9565b6040517f3df0212400000000000000000000000000000000000000000000000000000000815260ff808616600f90810b6004840152908516900b6024820152604481018390526064810182905273ffffffffffffffffffffffffffffffffffffffff871690633df02124908790608401613cbc565b8760ff16600303613e65578615613df8576040517f65b2489b00000000000000000000000000000000000000000000000000000000815260ff808616600483015284166024820152604481018390526064810182905273ffffffffffffffffffffffffffffffffffffffff8716906365b2489b908790608401613cbc565b6040517f5b41b90800000000000000000000000000000000000000000000000000000000815260ff808616600483015284166024820152604481018390526064810182905273ffffffffffffffffffffffffffffffffffffffff871690635b41b908908790608401613cbc565b6040517ff1c43ede00000000000000000000000000000000000000000000000000000000815260040160405180910390fd5b6000610a878373ffffffffffffffffffffffffffffffffffffffff8416614093565b606082471015613f4b576040517f08c379a000000000000000000000000000000000000000000000000000000000815260206004820152602660248201527f416464726573733a20696e73756666696369656e742062616c616e636520666f60448201527f722063616c6c00000000000000000000000000000000000000000000000000006064820152608401610acc565b6000808673ffffffffffffffffffffffffffffffffffffffff168587604051613f749190614cb0565b60006040518083038185875af1925050503d8060008114613fb1576040519150601f19603f3d011682016040523d82523d6000602084013e613fb6565b606091505b5091509150613fc7878383876140e2565b979650505050505050565b60008060008473ffffffffffffffffffffffffffffffffffffffff1684604051613ffc9190614cb0565b6000604051808303816000865af19150503d8060008114614039576040519150601f19603f3d011682016040523d82523d6000602084013e61403e565b606091505b50915091508180156140685750805115806140685750808060200190518101906140689190614abd565b801561408a575073ffffffffffffffffffffffffffffffffffffffff85163b15155b95945050505050565b60008181526001830160205260408120546140da57508154600181810184556000848152602080822090930184905584548482528286019093526040902091909155610a5a565b506000610a5a565b606083156141785782516000036141715773ffffffffffffffffffffffffffffffffffffffff85163b614171576040517f08c379a000000000000000000000000000000000000000000000000000000000815260206004820152601d60248201527f416464726573733a2063616c6c20746f206e6f6e2d636f6e74726163740000006044820152606401610acc565b50816134e5565b6134e5838381511561418d5781518083602001fd5b806040517f08c379a0000000000000000000000000000000000000000000000000000000008152600401610acc9190614ccc565b61ffff811681146141d157600080fd5b50565b80356141df816141c1565b919050565b7f4e487b7100000000000000000000000000000000000000000000000000000000600052604160045260246000fd5b604051610140810167ffffffffffffffff81118282101715614237576142376141e4565b60405290565b604051601f82017fffffffffffffffffffffffffffffffffffffffffffffffffffffffffffffffe016810167ffffffffffffffff81118282101715614284576142846141e4565b604052919050565b600067ffffffffffffffff8211156142a6576142a66141e4565b50601f017fffffffffffffffffffffffffffffffffffffffffffffffffffffffffffffffe01660200190565b600082601f8301126142e357600080fd5b81356142f66142f18261428c565b61423d565b81815284602083860101111561430b57600080fd5b816020850160208301376000918101602001919091529392505050565b73ffffffffffffffffffffffffffffffffffffffff811681146141d157600080fd5b80356141df81614328565b60008060008060008060c0878903121561436e57600080fd5b8635614379816141c1565b9550602087013567ffffffffffffffff8082111561439657600080fd5b6143a28a838b016142d2565b965060408901359550606089013591506143bb82614328565b9093506080880135925060a088013590808211156143d857600080fd5b506143e589828a016142d2565b9150509295509295509295565b65ffffffffffff811681146141d157600080fd5b80356141df816143f2565b60006040828403121561442357600080fd5b50919050565b6000806040838503121561443c57600080fd5b823567ffffffffffffffff8082111561445457600080fd5b90840190610140828703121561446957600080fd5b614471614213565b61447a8361434a565b8152614488602084016141d4565b6020820152614499604084016141d4565b60408201526144aa6060840161434a565b60608201526144bb6080840161434a565b60808201526144cc60a0840161434a565b60a082015260c083013560c082015260e083013560e08201526101006144f3818501614406565b90820152610120838101358381111561450b57600080fd5b614517898287016142d2565b82840152505080945050602085013591508082111561453557600080fd5b5061454285828601614411565b9150509250929050565b60006020828403121561455e57600080fd5b8151610a8781614328565b80516141df81614328565b80516141df816141c1565b80516141df816143f2565b60005b838110156145a557818101518382015260200161458d565b50506000910152565b600082601f8301126145bf57600080fd5b81516145cd6142f18261428c565b8181528460208386010111156145e257600080fd5b6134e582602083016020870161458a565b60006020828403121561460557600080fd5b815167ffffffffffffffff8082111561461d57600080fd5b90830190610140828603121561463257600080fd5b61463a614213565b61464383614569565b815261465160208401614574565b602082015261466260408401614574565b604082015261467360608401614569565b606082015261468460808401614569565b608082015261469560a08401614569565b60a082015260c083015160c082015260e083015160e08201526101006146bc81850161457f565b9082015261012083810151838111156146d457600080fd5b6146e0888287016145ae565b918301919091525095945050505050565b6000815180845261470981602086016020860161458a565b601f017fffffffffffffffffffffffffffffffffffffffffffffffffffffffffffffffe0169290920160200192915050565b8051825260006020820151604060208501526134e560408501826146f1565b6040815261478160408201845173ffffffffffffffffffffffffffffffffffffffff169052565b60006020840151614798606084018261ffff169052565b50604084015161ffff8116608084015250606084015173ffffffffffffffffffffffffffffffffffffffff811660a084015250608084015173ffffffffffffffffffffffffffffffffffffffff811660c08401525060a084015173ffffffffffffffffffffffffffffffffffffffff811660e08401525060c0840151610100818185015260e08601519150610120828186015281870151925061014091506148498286018465ffffffffffff169052565b86015161016085019190915290506148656101808401826146f1565b9050828103602084015261408a818561473b565b7f4e487b7100000000000000000000000000000000000000000000000000000000600052601160045260246000fd5b81810381811115610a5a57610a5a614879565b60008083357fffffffffffffffffffffffffffffffffffffffffffffffffffffffffffffffe18436030181126148f057600080fd5b83018035915067ffffffffffffffff82111561490b57600080fd5b60200191503681900382131561492057600080fd5b9250929050565b600061010073ffffffffffffffffffffffffffffffffffffffff80881684528651818151166020860152816020820151166040860152604081015165ffffffffffff80821660608801528060608401511660808801525050508060208801511660a085015250604086015160c08401528060e08401528381840152506101208385828501376000838501820152601f9093017fffffffffffffffffffffffffffffffffffffffffffffffffffffffffffffffe016909101909101949350505050565b60007fffffffffffffffffffffffffffffffffffffffffffffffffffffffffffffffff8203614a1a57614a1a614879565b5060010190565b61ffff82811682821603908082111561358857613588614879565b8082028115828204841417610a5a57610a5a614879565b7f4e487b7100000000000000000000000000000000000000000000000000000000600052601260045260246000fd5b600082614ab8577f4e487b7100000000000000000000000000000000000000000000000000000000600052601260045260246000fd5b500490565b600060208284031215614acf57600080fd5b81518015158114610a8757600080fd5b80516dffffffffffffffffffffffffffff811681146141df57600080fd5b600080600060608486031215614b1257600080fd5b614b1b84614adf565b9250614b2960208501614adf565b9150604084015163ffffffff81168114614b4257600080fd5b809150509250925092565b600060208284031215614b5f57600080fd5b5051919050565b80820180821115610a5a57610a5a614879565b7f4e487b7100000000000000000000000000000000000000000000000000000000600052603260045260246000fd5b60008060408385031215614bbb57600080fd5b505080516020909101519092909150565b60007f80000000000000000000000000000000000000000000000000000000000000008203614bfd57614bfd614879565b5060000390565b600061012061ffff8c1683528a602084015289604084015273ffffffffffffffffffffffffffffffffffffffff891660608401528760808401528660a08401528060c084015285518184015250602085015161014083015260408501516060610160840152614c776101808401826146f1565b905082810360e0840152614c8b81866146f1565b9050828103610100840152614ca081856146f1565b9c9b505050505050505050505050565b60008251614cc281846020870161458a565b9190910192915050565b602081526000610a8760208301846146f156fea264697066735822122088a442c252d10a93ec58f5fbbd0cca368c9ceb5b3dd788a11f1c0f8869b1332664736f6c63430008130033",
  "devdoc": {
    "kind": "dev",
    "methods": {},
    "version": 1
  },
  "userdoc": {
    "errors": {
      "FeeTooHigh(uint256)": [
        {
          "notice": "The swap fee is over the maximum allowed"
        }
      ]
    },
    "kind": "user",
    "methods": {
      "sgReceive(uint16,bytes,uint256,address,uint256,bytes)": {
        "notice": "Cross-chain callback from Stargate The tokens have already been received by this contract, `t.payer` is set to this contract before `sgReceive` is called by the router. The `_nonce` field is not checked since it's assumed that LayerZero will not deliver the same message more than once. The Stargate router is trusted, meaning `_token` and `amountLD` is not verified. Should the Stargate router be compromised, an attacker can drain this contract. If the payload can not be decoded, tokens are left in this contract. If execution runs out of gas, tokens are left in this contract. If an error occurs during engage, such as insufficient output amount, tokens are refunded to the recipient. See https://stargateprotocol.gitbook.io/stargate/interfaces/evm-solidity-interfaces/istargatereceiver.sol"
      }
    },
    "version": 1
  },
  "storageLayout": {
    "storage": [],
    "types": null
  }
}