{
  "address": "0x2689aD4f1c864D2Bc6280085F01a556394f3d390",
  "abi": [
    {
      "inputs": [],
      "name": "DeadlineExpired",
      "type": "error"
    },
    {
      "inputs": [],
      "name": "EthNotSupportedForWarp",
      "type": "error"
    },
    {
      "inputs": [
        {
          "internalType": "uint16",
          "name": "maxFeeBps",
          "type": "uint16"
        }
      ],
      "name": "FeeTooHigh",
      "type": "error"
    },
    {
      "inputs": [],
      "name": "InconsistentPartPayerOut",
      "type": "error"
    },
    {
      "inputs": [],
      "name": "InconsistentPartTokenOut",
      "type": "error"
    },
    {
      "inputs": [],
      "name": "IncorrectEthValue",
      "type": "error"
    },
    {
      "inputs": [],
      "name": "InsufficientAmountRemaining",
      "type": "error"
    },
    {
      "inputs": [],
      "name": "InsufficientOutputAmount",
      "type": "error"
    },
    {
      "inputs": [],
      "name": "InsufficientTokensDelivered",
      "type": "error"
    },
    {
      "inputs": [],
      "name": "NotEnoughParts",
      "type": "error"
    },
    {
      "inputs": [],
      "name": "UnexpectedPayerForWrap",
      "type": "error"
    },
    {
      "inputs": [],
      "name": "UnexpectedTokenForUnwrap",
      "type": "error"
    },
    {
      "inputs": [],
      "name": "UnexpectedTokenForWrap",
      "type": "error"
    },
    {
      "inputs": [],
      "name": "UnexpectedTokenOut",
      "type": "error"
    },
    {
      "inputs": [],
      "name": "UnexpectedValueAndTokenCombination",
      "type": "error"
    },
    {
      "inputs": [],
      "name": "UnhandledCommand",
      "type": "error"
    },
    {
      "anonymous": false,
      "inputs": [
        {
          "indexed": true,
          "internalType": "address",
          "name": "partner",
          "type": "address"
        },
        {
          "indexed": true,
          "internalType": "address",
          "name": "token",
          "type": "address"
        },
        {
          "indexed": false,
          "internalType": "uint256",
          "name": "partnerFee",
          "type": "uint256"
        },
        {
          "indexed": false,
          "internalType": "uint256",
          "name": "diamondFee",
          "type": "uint256"
        }
      ],
      "name": "CollectedFee",
      "type": "event"
    },
    {
      "inputs": [],
      "name": "COMMAND_TYPE_SPLIT",
      "outputs": [
        {
          "internalType": "uint256",
          "name": "",
          "type": "uint256"
        }
      ],
      "stateMutability": "view",
      "type": "function"
    },
    {
      "inputs": [],
      "name": "COMMAND_TYPE_UNWRAP",
      "outputs": [
        {
          "internalType": "uint256",
          "name": "",
          "type": "uint256"
        }
      ],
      "stateMutability": "view",
      "type": "function"
    },
    {
      "inputs": [],
      "name": "COMMAND_TYPE_WARP_UNI_V2_LIKE_EXACT_INPUT",
      "outputs": [
        {
          "internalType": "uint256",
          "name": "",
          "type": "uint256"
        }
      ],
      "stateMutability": "view",
      "type": "function"
    },
    {
      "inputs": [],
      "name": "COMMAND_TYPE_WARP_UNI_V2_LIKE_EXACT_INPUT_SINGLE",
      "outputs": [
        {
          "internalType": "uint256",
          "name": "",
          "type": "uint256"
        }
      ],
      "stateMutability": "view",
      "type": "function"
    },
    {
      "inputs": [],
      "name": "COMMAND_TYPE_WRAP",
      "outputs": [
        {
          "internalType": "uint256",
          "name": "",
          "type": "uint256"
        }
      ],
      "stateMutability": "view",
      "type": "function"
    },
    {
      "inputs": [],
      "name": "commandTypeSplit",
      "outputs": [
        {
          "internalType": "uint256",
          "name": "",
          "type": "uint256"
        }
      ],
      "stateMutability": "pure",
      "type": "function"
    },
    {
      "inputs": [],
      "name": "commandTypeUnwrap",
      "outputs": [
        {
          "internalType": "uint256",
          "name": "",
          "type": "uint256"
        }
      ],
      "stateMutability": "pure",
      "type": "function"
    },
    {
      "inputs": [],
      "name": "commandTypeWarpUniV2LikeExactInput",
      "outputs": [
        {
          "internalType": "uint256",
          "name": "",
          "type": "uint256"
        }
      ],
      "stateMutability": "pure",
      "type": "function"
    },
    {
      "inputs": [],
      "name": "commandTypeWarpUniV2LikeExactInputSingle",
      "outputs": [
        {
          "internalType": "uint256",
          "name": "",
          "type": "uint256"
        }
      ],
      "stateMutability": "pure",
      "type": "function"
    },
    {
      "inputs": [],
      "name": "commandTypeWrap",
      "outputs": [
        {
          "internalType": "uint256",
          "name": "",
          "type": "uint256"
        }
      ],
      "stateMutability": "pure",
      "type": "function"
    },
    {
      "inputs": [
        {
          "components": [
            {
              "internalType": "address",
              "name": "partner",
              "type": "address"
            },
            {
              "internalType": "uint16",
              "name": "feeBps",
              "type": "uint16"
            },
            {
              "internalType": "uint16",
              "name": "slippageBps",
              "type": "uint16"
            },
            {
              "internalType": "address",
              "name": "recipient",
              "type": "address"
            },
            {
              "internalType": "address",
              "name": "tokenIn",
              "type": "address"
            },
            {
              "internalType": "address",
              "name": "tokenOut",
              "type": "address"
            },
            {
              "internalType": "uint256",
              "name": "amountIn",
              "type": "uint256"
            },
            {
              "internalType": "uint256",
              "name": "amountOut",
              "type": "uint256"
            },
            {
              "internalType": "uint48",
              "name": "deadline",
              "type": "uint48"
            },
            {
              "internalType": "bytes",
              "name": "commands",
              "type": "bytes"
            }
          ],
          "internalType": "struct IWarpLink.Params",
          "name": "params",
          "type": "tuple"
        }
      ],
      "name": "warpLinkEngage",
      "outputs": [],
      "stateMutability": "payable",
      "type": "function"
    }
  ],
  "transactionHash": "0xad704cc0adc4ef26f3d423fd13b6943c180a9489cb43546658156d97e1efed67",
  "args": [],
  "numDeployments": 1,
  "solcInputHash": "394ffe99c61827ecbab168bc9ae5eddb",
  "bytecode": "0x608060405234801561000f575f80fd5b506125ca8061001d5f395ff3fe6080604052600436106100b8575f3560e01c8063dc76f87211610071578063e92a6f051161004c578063e92a6f051461016b578063eb2b76771461017f578063fa31c9c014610193575f80fd5b8063dc76f8721461012f578063dcc4555114610142578063e67cbdb814610157575f80fd5b806393a4c0cb116100a157806393a4c0cb146100f5578063cedf0d1814610108578063d267733d1461011b575f80fd5b806344b14b81146100bc57806391f46532146100e2575b5f80fd5b3480156100c7575f80fd5b506100d0600181565b60405190815260200160405180910390f35b3480156100ed575f80fd5b5060046100d0565b348015610100575f80fd5b5060036100d0565b348015610113575f80fd5b5060056100d0565b348015610126575f80fd5b506100d0600281565b34801561013a575f80fd5b5060026100d0565b610155610150366004612221565b6101a6565b005b348015610162575f80fd5b506100d0600381565b348015610176575f80fd5b506100d0600481565b34801561018a575f80fd5b506100d0600581565b34801561019e575f80fd5b5060016100d0565b80610100015165ffffffffffff164211156101ed576040517f1ab7da6b00000000000000000000000000000000000000000000000000000000815260040160405180910390fd5b604080516060810182525f8082526020820181905291810182815260c08401518252608084015173ffffffffffffffffffffffffffffffffffffffff1690529034900361029057608082015173ffffffffffffffffffffffffffffffffffffffff16610285576040517fd34bde3a00000000000000000000000000000000000000000000000000000000815260040160405180910390fd5b336020820152610326565b608082015173ffffffffffffffffffffffffffffffffffffffff16156102e2576040517fd34bde3a00000000000000000000000000000000000000000000000000000000815260040160405180910390fd5b8160c00151341461031f576040517fab0a033b00000000000000000000000000000000000000000000000000000000815260040160405180910390fd5b3060208201525b5f61034a836101200151604080518082019091528181528151909101602082015290565b905061035681836104b7565b8051604082015160a0860151929450909173ffffffffffffffffffffffffffffffffffffffff8083169116146103b8576040517fae39073000000000000000000000000000000000000000000000000000000000815260040160405180910390fd5b6103ca8560e0015186604001516105b9565b821015610403576040517f42301c2300000000000000000000000000000000000000000000000000000000815260040160405180910390fd5b61041f855f01518660a0015187602001518860e00151866105e6565b915073ffffffffffffffffffffffffffffffffffffffff811661048957846060015173ffffffffffffffffffffffffffffffffffffffff166108fc8390811502906040515f60405180830381858888f19350505050158015610483573d5f803e3d5ffd5b506104b0565b60608501516104b09073ffffffffffffffffffffffffffffffffffffffff831690846106a3565b5050505050565b604080516060810182525f80825260208201819052918101919091525f6104e48480516001018051915290565b60ff1690505f5b818110156105ad575f6105048680516001018051915290565b60ff169050600181036105215761051a8561077c565b945061059a565b600281036105325761051a856108e7565b600381036105445761051a8686610ab4565b600481036105565761051a8686610f74565b600581036105685761051a8686611205565b6040517f8ccd166700000000000000000000000000000000000000000000000000000000815260040160405180910390fd5b50806105a581612347565b9150506104eb565b50829150505b92915050565b5f6127106105c7838261237e565b6105d59061ffff1685612399565b6105df91906123dd565b9392505050565b5f6107d061ffff85161115610630576040517f8ea70c070000000000000000000000000000000000000000000000000000000081526107d060048201526024015b60405180910390fd5b5f8284811115610641575050828203835b61271061ffff871682020491909101905f73ffffffffffffffffffffffffffffffffffffffff89161561067a576064603284020461067c565b5f5b9050808303838214610694576106948a8a8484611895565b50505090910395945050505050565b60405173ffffffffffffffffffffffffffffffffffffffff83166024820152604481018290526107779084907fa9059cbb00000000000000000000000000000000000000000000000000000000906064015b604080517fffffffffffffffffffffffffffffffffffffffffffffffffffffffffffffffe08184030181529190526020810180517bffffffffffffffffffffffffffffffffffffffffffffffffffffffff167fffffffff0000000000000000000000000000000000000000000000000000000090931692909217909152611998565b505050565b604080516060810182525f8082526020820181905281830152908201517f1c1cf3c8827d48db80e17913589584c81d7f8da7f2100c9a87a7bf64829a0e109073ffffffffffffffffffffffffffffffffffffffff1615610808576040517f45369fbb00000000000000000000000000000000000000000000000000000000815260040160405180910390fd5b602083015173ffffffffffffffffffffffffffffffffffffffff16301461085b576040517f32d40df100000000000000000000000000000000000000000000000000000000815260040160405180910390fd5b805473ffffffffffffffffffffffffffffffffffffffff166040808501829052845181517fd0e30db0000000000000000000000000000000000000000000000000000000008152915163d0e30db0926004808201925f9290919082900301818588803b1580156108c9575f80fd5b505af11580156108db573d5f803e3d5ffd5b50959695505050505050565b604080516060810182525f80825260208201819052818301527f1c1cf3c8827d48db80e17913589584c81d7f8da7f2100c9a87a7bf64829a0e108054928401519192909173ffffffffffffffffffffffffffffffffffffffff91821691161461097c576040517fb2ee070800000000000000000000000000000000000000000000000000000000815260040160405180910390fd5b602083015173ffffffffffffffffffffffffffffffffffffffff811630148015906109a8573060208601525b5f604086015280156109de57845183546109de9173ffffffffffffffffffffffffffffffffffffffff9091169084903090611aa5565b825485516040517f2e1a7d4d00000000000000000000000000000000000000000000000000000000815273ffffffffffffffffffffffffffffffffffffffff90921691632e1a7d4d91610a379160040190815260200190565b5f604051808303815f87803b158015610a4e575f80fd5b505af1158015610a60573d5f803e3d5ffd5b5050506020860151865160405173ffffffffffffffffffffffffffffffffffffffff909216925080156108fc02915f818181858888f19350505050158015610aaa573d5f803e3d5ffd5b5093949350505050565b604080516060810182525f80825260208201819052818301529082015173ffffffffffffffffffffffffffffffffffffffff16610b1d576040517f767836b800000000000000000000000000000000000000000000000000000000815260040160405180910390fd5b604080516080810182525f8082526020820181905291810182905260608101919091528351601401805190855273ffffffffffffffffffffffffffffffffffffffff1681528351601401805190855273ffffffffffffffffffffffffffffffffffffffff1660208201528351600101805190855260ff1660011460408201528351600201805190855261ffff16606082015260208301513073ffffffffffffffffffffffffffffffffffffffff90911603610c0557602081015183516040850151610c009273ffffffffffffffffffffffffffffffffffffffff909116916106a3565b610c48565b610c4183602001518260200151855f0151866040015173ffffffffffffffffffffffffffffffffffffffff16611aa5909392919063ffffffff16565b3060208401525b5f80826020015173ffffffffffffffffffffffffffffffffffffffff16630902f1ac6040518163ffffffff1660e01b8152600401606060405180830381865afa158015610c97573d5f803e3d5ffd5b505050506040513d601f19601f82011682018060405250810190610cbb9190612432565b506dffffffffffffffffffffffffffff1691506dffffffffffffffffffffffffffff1691508260400151610ceb57905b6060830151855161ffff6127109283031691840290820290810190830281610d1557610d156123b0565b0486525082516040517f70a082310000000000000000000000000000000000000000000000000000000081523060048201525f9173ffffffffffffffffffffffffffffffffffffffff16906370a0823190602401602060405180830381865afa158015610d84573d5f803e3d5ffd5b505050506040513d601f19601f82011682018060405250810190610da8919061247e565b9050836020015173ffffffffffffffffffffffffffffffffffffffff1663022c0d9f8560400151610dda578751610ddc565b5f5b8660400151610deb575f610dee565b88515b6040517fffffffff0000000000000000000000000000000000000000000000000000000060e085901b16815260048101929092526024820152306044820152608060648201525f608482015260a4015f604051808303815f87803b158015610e54575f80fd5b505af1158015610e66573d5f803e3d5ffd5b505085516040517f70a082310000000000000000000000000000000000000000000000000000000081523060048201525f935073ffffffffffffffffffffffffffffffffffffffff90911691506370a0823190602401602060405180830381865afa158015610ed7573d5f803e3d5ffd5b505050506040513d601f19601f82011682018060405250810190610efb919061247e565b905081811080610f1557508651610f129083612495565b81105b15610f4c576040517f946beb5300000000000000000000000000000000000000000000000000000000815260040160405180910390fd5b5050915173ffffffffffffffffffffffffffffffffffffffff16604085015250919392505050565b604080516060810182525f80825260208201819052918101919091525f610fa18480516001018051915290565b835160ff9190911691505f6002831015610fe7576040517f1d6beb5700000000000000000000000000000000000000000000000000000000815260040160405180910390fd5b5f805f5b858110156111d6575f610fff6001886124a8565b821061100b5785611038565b61271061101e8b80516002018051915290565b8a5161102e9161ffff1690612399565b61103891906123dd565b905085811115611074576040517f0f24c51700000000000000000000000000000000000000000000000000000000815260040160405180910390fd5b61107e81876124a8565b604080516060810182525f6020808301828152838501928352868452908e015173ffffffffffffffffffffffffffffffffffffffff908116909152928d01519092169091529096506110d08b826104b7565b9050825f036110ec5780602001519350806040015194506111be565b8473ffffffffffffffffffffffffffffffffffffffff16816040015173ffffffffffffffffffffffffffffffffffffffff1614611155576040517fd7af48f200000000000000000000000000000000000000000000000000000000815260040160405180910390fd5b8373ffffffffffffffffffffffffffffffffffffffff16816020015173ffffffffffffffffffffffffffffffffffffffff16146111be576040517f51a769fd00000000000000000000000000000000000000000000000000000000815260040160405180910390fd5b80516111ca9087612495565b95505050600101610feb565b5073ffffffffffffffffffffffffffffffffffffffff9081166020880152166040860152845250919392505050565b604080516060810182525f808252602082018190529181019190915261124560405180606001604052806060815260200160608152602001606081525090565b5f6112568580516001018051915290565b60ff169050611266816001612495565b67ffffffffffffffff81111561127e5761127e6120d5565b6040519080825280602002602001820160405280156112a7578160200160208202803683370190505b50808352604085015181519091905f906112c3576112c36124bb565b602002602001019073ffffffffffffffffffffffffffffffffffffffff16908173ffffffffffffffffffffffffffffffffffffffff16815250505f5b8181101561135b5785516014018051908752835161131e836001612495565b8151811061132e5761132e6124bb565b73ffffffffffffffffffffffffffffffffffffffff909216602092830291909101909101526001016112ff565b506113668582611b09565b60208301526113758582611baa565b6040830152815180515f919083908110611391576113916124bb565b60209081029190910101516040517f70a0823100000000000000000000000000000000000000000000000000000000815230600482015273ffffffffffffffffffffffffffffffffffffffff909116906370a0823190602401602060405180830381865afa158015611405573d5f803e3d5ffd5b505050506040513d601f19601f82011682018060405250810190611429919061247e565b90505f6114468460400151875f0151865f01518760200151611c32565b90503073ffffffffffffffffffffffffffffffffffffffff16866020015173ffffffffffffffffffffffffffffffffffffffff16036114d3576114ce84602001515f81518110611498576114986124bb565b6020026020010151875f0151886040015173ffffffffffffffffffffffffffffffffffffffff166106a39092919063ffffffff16565b61152f565b611528866020015185602001515f815181106114f1576114f16124bb565b6020026020010151885f0151896040015173ffffffffffffffffffffffffffffffffffffffff16611aa5909392919063ffffffff16565b3060208701525b5f5b83811015611723575f611545826001612495565b90505f865f0151828151811061155d5761155d6124bb565b602002602001015173ffffffffffffffffffffffffffffffffffffffff16875f01518481518110611590576115906124bb565b602002602001015173ffffffffffffffffffffffffffffffffffffffff16106115b9575f6115bc565b60015b90505f6002885f0151516115d091906124a8565b84106115dc57306115fb565b876020015183815181106115f2576115f26124bb565b60200260200101515b905087602001518481518110611613576116136124bb565b602002602001015173ffffffffffffffffffffffffffffffffffffffff1663022c0d9f8361165a5786858151811061164d5761164d6124bb565b602002602001015161165c565b5f5b84611667575f611682565b878681518110611679576116796124bb565b60200260200101515b6040517fffffffff0000000000000000000000000000000000000000000000000000000060e085901b1681526004810192909252602482015273ffffffffffffffffffffffffffffffffffffffff84166044820152608060648201525f608482015260a4015f604051808303815f87803b1580156116fe575f80fd5b505af1158015611710573d5f803e3d5ffd5b5050600190950194506115319350505050565b505f845f0151848151811061173a5761173a6124bb565b60209081029190910101516040517f70a0823100000000000000000000000000000000000000000000000000000000815230600482015273ffffffffffffffffffffffffffffffffffffffff909116906370a0823190602401602060405180830381865afa1580156117ae573d5f803e3d5ffd5b505050506040513d601f19601f820116820180604052508101906117d2919061247e565b905081600183516117e391906124a8565b815181106117f3576117f36124bb565b6020908102919091010151875282811080611818575086516118159084612495565b81105b1561184f576040517f946beb5300000000000000000000000000000000000000000000000000000000815260040160405180910390fd5b8451805185908110611863576118636124bb565b602090810291909101015173ffffffffffffffffffffffffffffffffffffffff16604088015250949695505050505050565b7f4edbd34b5b006870ab724677d99b508debf8dcac0dc8134c9c43b93f8afe50f073ffffffffffffffffffffffffffffffffffffffff8416156119045773ffffffffffffffffffffffffffffffffffffffff85165f90815260028201602052604090206119029085611e5f565b505b61190e8186611e5f565b5073ffffffffffffffffffffffffffffffffffffffff8581165f81815260038401602090815260408083209489168084529482528083208054890190556004860182529182902080548801905581518781529081018690527fb9c71741297b7329823b5575aa676062720448277d6da61cf68eb0fed6c4baf4910160405180910390a35050505050565b5f6119f9826040518060400160405280602081526020017f5361666545524332303a206c6f772d6c6576656c2063616c6c206661696c65648152508573ffffffffffffffffffffffffffffffffffffffff16611e809092919063ffffffff16565b905080515f1480611a19575080806020019051810190611a1991906124e8565b610777576040517f08c379a000000000000000000000000000000000000000000000000000000000815260206004820152602a60248201527f5361666545524332303a204552433230206f7065726174696f6e20646964206e60448201527f6f742073756363656564000000000000000000000000000000000000000000006064820152608401610627565b60405173ffffffffffffffffffffffffffffffffffffffff80851660248301528316604482015260648101829052611b039085907f23b872dd00000000000000000000000000000000000000000000000000000000906084016106f5565b50505050565b60608167ffffffffffffffff811115611b2457611b246120d5565b604051908082528060200260200182016040528015611b4d578160200160208202803683370190505b5090505f5b82811015611ba35783516014018051908552828281518110611b7657611b766124bb565b73ffffffffffffffffffffffffffffffffffffffff90921660209283029190910190910152600101611b52565b5092915050565b60608167ffffffffffffffff811115611bc557611bc56120d5565b604051908082528060200260200182016040528015611bee578160200160208202803683370190505b5090505f5b82811015611ba35783516002018051908552828281518110611c1757611c176124bb565b61ffff90921660209283029190910190910152600101611bf3565b805182516060919067ffffffffffffffff811115611c5257611c526120d5565b604051908082528060200260200182016040528015611c7b578160200160208202803683370190505b50915084825f81518110611c9157611c916124bb565b6020026020010181815250505f5b81811015611e55575f858281518110611cba57611cba6124bb565b602002602001015190505f86836001611cd39190612495565b81518110611ce357611ce36124bb565b602002602001015190505f898481518110611d0057611d006124bb565b6020026020010151612710611d15919061237e565b61ffff1690505f80888681518110611d2f57611d2f6124bb565b602002602001015173ffffffffffffffffffffffffffffffffffffffff16630902f1ac6040518163ffffffff1660e01b8152600401606060405180830381865afa158015611d7f573d5f803e3d5ffd5b505050506040513d601f19601f82011682018060405250810190611da39190612432565b506dffffffffffffffffffffffffffff1691506dffffffffffffffffffffffffffff1691508373ffffffffffffffffffffffffffffffffffffffff168573ffffffffffffffffffffffffffffffffffffffff161115611dfe57905b828b0282612710020181848d020281611e1957611e196123b0565b049a508a88611e29886001612495565b81518110611e3957611e396124bb565b6020908102919091010152505060019093019250611c9f915050565b5050949350505050565b5f6105df8373ffffffffffffffffffffffffffffffffffffffff8416611e96565b6060611e8e84845f85611ee2565b949350505050565b5f818152600183016020526040812054611edb57508154600181810184555f8481526020808220909301849055845484825282860190935260409020919091556105b3565b505f6105b3565b606082471015611f74576040517f08c379a000000000000000000000000000000000000000000000000000000000815260206004820152602660248201527f416464726573733a20696e73756666696369656e742062616c616e636520666f60448201527f722063616c6c00000000000000000000000000000000000000000000000000006064820152608401610627565b5f808673ffffffffffffffffffffffffffffffffffffffff168587604051611f9c9190612529565b5f6040518083038185875af1925050503d805f8114611fd6576040519150601f19603f3d011682016040523d82523d5f602084013e611fdb565b606091505b5091509150611fec87838387611ff7565b979650505050505050565b6060831561208c5782515f036120855773ffffffffffffffffffffffffffffffffffffffff85163b612085576040517f08c379a000000000000000000000000000000000000000000000000000000000815260206004820152601d60248201527f416464726573733a2063616c6c20746f206e6f6e2d636f6e74726163740000006044820152606401610627565b5081611e8e565b611e8e83838151156120a15781518083602001fd5b806040517f08c379a00000000000000000000000000000000000000000000000000000000081526004016106279190612544565b7f4e487b71000000000000000000000000000000000000000000000000000000005f52604160045260245ffd5b604051610140810167ffffffffffffffff81118282101715612126576121266120d5565b60405290565b803573ffffffffffffffffffffffffffffffffffffffff8116811461214f575f80fd5b919050565b803561ffff8116811461214f575f80fd5b803565ffffffffffff8116811461214f575f80fd5b5f82601f830112612189575f80fd5b813567ffffffffffffffff808211156121a4576121a46120d5565b604051601f83017fffffffffffffffffffffffffffffffffffffffffffffffffffffffffffffffe0908116603f011681019082821181831017156121ea576121ea6120d5565b81604052838152866020858801011115612202575f80fd5b836020870160208301375f602085830101528094505050505092915050565b5f60208284031215612231575f80fd5b813567ffffffffffffffff80821115612248575f80fd5b90830190610140828603121561225c575f80fd5b612264612102565b61226d8361212c565b815261227b60208401612154565b602082015261228c60408401612154565b604082015261229d6060840161212c565b60608201526122ae6080840161212c565b60808201526122bf60a0840161212c565b60a082015260c083013560c082015260e083013560e08201526101006122e6818501612165565b9082015261012083810135838111156122fd575f80fd5b6123098882870161217a565b918301919091525095945050505050565b7f4e487b71000000000000000000000000000000000000000000000000000000005f52601160045260245ffd5b5f7fffffffffffffffffffffffffffffffffffffffffffffffffffffffffffffffff82036123775761237761231a565b5060010190565b61ffff828116828216039080821115611ba357611ba361231a565b80820281158282048414176105b3576105b361231a565b7f4e487b71000000000000000000000000000000000000000000000000000000005f52601260045260245ffd5b5f82612410577f4e487b71000000000000000000000000000000000000000000000000000000005f52601260045260245ffd5b500490565b80516dffffffffffffffffffffffffffff8116811461214f575f80fd5b5f805f60608486031215612444575f80fd5b61244d84612415565b925061245b60208501612415565b9150604084015163ffffffff81168114612473575f80fd5b809150509250925092565b5f6020828403121561248e575f80fd5b5051919050565b808201808211156105b3576105b361231a565b818103818111156105b3576105b361231a565b7f4e487b71000000000000000000000000000000000000000000000000000000005f52603260045260245ffd5b5f602082840312156124f8575f80fd5b815180151581146105df575f80fd5b5f5b83811015612521578181015183820152602001612509565b50505f910152565b5f825161253a818460208701612507565b9190910192915050565b602081525f8251806020840152612562816040850160208701612507565b601f017fffffffffffffffffffffffffffffffffffffffffffffffffffffffffffffffe016919091016040019291505056fea26469706673582212201dd625e65d341baef8310089d39588998f0e0b9caff11ffc5ee84c086238a91864736f6c63430008150033",
  "devdoc": {
    "kind": "dev",
    "methods": {},
    "version": 1
  },
  "userdoc": {
    "errors": {
      "FeeTooHigh(uint16)": [
        {
          "notice": "The swap fee is over the maximum allowed"
        }
      ]
    },
    "kind": "user",
    "methods": {},
    "version": 1
  },
  "storageLayout": {
    "storage": [],
    "types": null
  }
}