{
  "address": "0x3f93f837af9390F52D192933782091B1a2808fD2",
  "abi": [
    {
      "inputs": [],
      "name": "DeadlineExpired",
      "type": "error"
    },
    {
      "inputs": [],
      "name": "EthTransferFailed",
      "type": "error"
    },
    {
      "inputs": [
        {
          "internalType": "uint256",
          "name": "maxFeeBps",
          "type": "uint256"
        }
      ],
      "name": "FeeTooHigh",
      "type": "error"
    },
    {
      "inputs": [
        {
          "internalType": "uint256",
          "name": "maxFeeBps",
          "type": "uint256"
        }
      ],
      "name": "FeeTooHigh",
      "type": "error"
    },
    {
      "inputs": [],
      "name": "InsufficientOutputAmount",
      "type": "error"
    },
    {
      "inputs": [],
      "name": "PermitForEthToken",
      "type": "error"
    },
    {
      "inputs": [],
      "name": "UnhandledPoolKind",
      "type": "error"
    },
    {
      "inputs": [],
      "name": "UnhandledPoolKind",
      "type": "error"
    },
    {
      "anonymous": false,
      "inputs": [
        {
          "indexed": true,
          "internalType": "address",
          "name": "partner",
          "type": "address"
        },
        {
          "indexed": true,
          "internalType": "address",
          "name": "token",
          "type": "address"
        },
        {
          "indexed": false,
          "internalType": "uint256",
          "name": "partnerFee",
          "type": "uint256"
        },
        {
          "indexed": false,
          "internalType": "uint256",
          "name": "protocolFee",
          "type": "uint256"
        }
      ],
      "name": "Fee",
      "type": "event"
    },
    {
      "anonymous": false,
      "inputs": [
        {
          "indexed": true,
          "internalType": "address",
          "name": "partner",
          "type": "address"
        },
        {
          "indexed": true,
          "internalType": "address",
          "name": "tokenIn",
          "type": "address"
        },
        {
          "indexed": true,
          "internalType": "address",
          "name": "tokenOut",
          "type": "address"
        },
        {
          "indexed": false,
          "internalType": "uint256",
          "name": "amountIn",
          "type": "uint256"
        },
        {
          "indexed": false,
          "internalType": "uint256",
          "name": "amountOut",
          "type": "uint256"
        }
      ],
      "name": "Warp",
      "type": "event"
    },
    {
      "inputs": [
        {
          "components": [
            {
              "internalType": "uint256",
              "name": "amountIn",
              "type": "uint256"
            },
            {
              "internalType": "uint256",
              "name": "amountOut",
              "type": "uint256"
            },
            {
              "internalType": "address",
              "name": "recipient",
              "type": "address"
            },
            {
              "internalType": "address",
              "name": "pool",
              "type": "address"
            },
            {
              "internalType": "uint16",
              "name": "feeBps",
              "type": "uint16"
            },
            {
              "internalType": "uint16",
              "name": "slippageBps",
              "type": "uint16"
            },
            {
              "internalType": "address",
              "name": "partner",
              "type": "address"
            },
            {
              "internalType": "address",
              "name": "tokenIn",
              "type": "address"
            },
            {
              "internalType": "address",
              "name": "tokenOut",
              "type": "address"
            },
            {
              "internalType": "uint48",
              "name": "deadline",
              "type": "uint48"
            },
            {
              "internalType": "uint8",
              "name": "tokenIndexIn",
              "type": "uint8"
            },
            {
              "internalType": "uint8",
              "name": "tokenIndexOut",
              "type": "uint8"
            },
            {
              "internalType": "uint8",
              "name": "kind",
              "type": "uint8"
            },
            {
              "internalType": "bool",
              "name": "underlying",
              "type": "bool"
            }
          ],
          "internalType": "struct ICurve.ExactInputSingleParams",
          "name": "params",
          "type": "tuple"
        }
      ],
      "name": "curveExactInputSingle",
      "outputs": [
        {
          "internalType": "uint256",
          "name": "amountOut",
          "type": "uint256"
        }
      ],
      "stateMutability": "payable",
      "type": "function"
    },
    {
      "inputs": [
        {
          "components": [
            {
              "internalType": "uint256",
              "name": "amountIn",
              "type": "uint256"
            },
            {
              "internalType": "uint256",
              "name": "amountOut",
              "type": "uint256"
            },
            {
              "internalType": "address",
              "name": "recipient",
              "type": "address"
            },
            {
              "internalType": "address",
              "name": "pool",
              "type": "address"
            },
            {
              "internalType": "uint16",
              "name": "feeBps",
              "type": "uint16"
            },
            {
              "internalType": "uint16",
              "name": "slippageBps",
              "type": "uint16"
            },
            {
              "internalType": "address",
              "name": "partner",
              "type": "address"
            },
            {
              "internalType": "address",
              "name": "tokenIn",
              "type": "address"
            },
            {
              "internalType": "address",
              "name": "tokenOut",
              "type": "address"
            },
            {
              "internalType": "uint48",
              "name": "deadline",
              "type": "uint48"
            },
            {
              "internalType": "uint8",
              "name": "tokenIndexIn",
              "type": "uint8"
            },
            {
              "internalType": "uint8",
              "name": "tokenIndexOut",
              "type": "uint8"
            },
            {
              "internalType": "uint8",
              "name": "kind",
              "type": "uint8"
            },
            {
              "internalType": "bool",
              "name": "underlying",
              "type": "bool"
            }
          ],
          "internalType": "struct ICurve.ExactInputSingleParams",
          "name": "params",
          "type": "tuple"
        },
        {
          "components": [
            {
              "internalType": "uint256",
              "name": "nonce",
              "type": "uint256"
            },
            {
              "internalType": "bytes",
              "name": "signature",
              "type": "bytes"
            }
          ],
          "internalType": "struct PermitParams",
          "name": "permit",
          "type": "tuple"
        }
      ],
      "name": "curveExactInputSinglePermit",
      "outputs": [
        {
          "internalType": "uint256",
          "name": "amountOut",
          "type": "uint256"
        }
      ],
      "stateMutability": "payable",
      "type": "function"
    }
  ],
  "transactionHash": "0x59fa591fa8825caa79ba3e8a028127bde11ab8b6dbc5bd470e045a13c8f986cd",
  "args": [],
  "numDeployments": 14,
  "solcInputHash": "db603b0e303f3ae5b5e977ed50fed2d0",
  "bytecode": "0x608060405234801561001057600080fd5b506119d1806100206000396000f3fe6080604052600436106100295760003560e01c806356bf88f01461002e578063aef417b114610053575b600080fd5b61004161003c3660046115a1565b610066565b60405190815260200160405180910390f35b6100416100613660046115f9565b610348565b60008061007a610100850160e08601611616565b73ffffffffffffffffffffffffffffffffffffffff16036100c7576040517f53e40ce200000000000000000000000000000000000000000000000000000000815260040160405180910390fd5b61010a6100da6080850160608601611616565b84356100ed610100870160e08801611616565b73ffffffffffffffffffffffffffffffffffffffff169190610430565b7f1c1cf3c8827d48db80e17913589584c81d7f8da7f2100c9a87a7bf64829a0e11546040805160e080820190925273ffffffffffffffffffffffffffffffffffffffff90921691632b67b57091339190819060608201908190610174906101008c01908c01611616565b73ffffffffffffffffffffffffffffffffffffffff90811682528a351660208201526040016101ab6101408b016101208c01611653565b65ffffffffffff908116825289351660209182015290825230908201526040016101dd61014089016101208a01611653565b65ffffffffffff1690526101f4602087018761167b565b6040518563ffffffff1660e01b815260040161021394939291906116e7565b600060405180830381600087803b15801561022d57600080fd5b505af1158015610241573d6000803e3d6000fd5b5050505061026c7f1c1cf3c8827d48db80e17913589584c81d7f8da7f2100c9a87a7bf64829a0e1090565b6001015473ffffffffffffffffffffffffffffffffffffffff166336c78516333086356102a0610100890160e08a01611616565b60405160e086901b7fffffffff0000000000000000000000000000000000000000000000000000000016815273ffffffffffffffffffffffffffffffffffffffff9485166004820152928416602484015290831660448301529091166064820152608401600060405180830381600087803b15801561031e57600080fd5b505af1158015610332573d6000803e3d6000fd5b5050505061033f836105a4565b90505b92915050565b600061035c61014083016101208401611653565b65ffffffffffff1642111561039d576040517f1ab7da6b00000000000000000000000000000000000000000000000000000000815260040160405180910390fd5b60006103b0610100840160e08501611616565b73ffffffffffffffffffffffffffffffffffffffff1614610427576103f16103de6080840160608501611616565b83356100ed610100860160e08701611616565b61042733308435610409610100870160e08801611616565b73ffffffffffffffffffffffffffffffffffffffff16929190610a4c565b610342826105a4565b6040805173ffffffffffffffffffffffffffffffffffffffff8416602482015260448082018490528251808303909101815260649091019091526020810180517bffffffffffffffffffffffffffffffffffffffffffffffffffffffff167f095ea7b3000000000000000000000000000000000000000000000000000000001790526104bc8482610aaa565b61059e5760405173ffffffffffffffffffffffffffffffffffffffff84166024820152600060448201526105949085907f095ea7b300000000000000000000000000000000000000000000000000000000906064015b604080517fffffffffffffffffffffffffffffffffffffffffffffffffffffffffffffffe08184030181529190526020810180517bffffffffffffffffffffffffffffffffffffffffffffffffffffffff167fffffffff0000000000000000000000000000000000000000000000000000000090931692909217909152610b6b565b61059e8482610b6b565b50505050565b600080806105ba61012085016101008601611616565b73ffffffffffffffffffffffffffffffffffffffff16149050600081610681576105ec61012085016101008601611616565b6040517f70a0823100000000000000000000000000000000000000000000000000000000815230600482015273ffffffffffffffffffffffffffffffffffffffff91909116906370a0823190602401602060405180830381865afa158015610658573d6000803e3d6000fd5b505050506040513d601f19601f8201168201806040525081019061067c91906117a9565b610683565b475b905061073661069a6101a0860161018087016117c2565b6106ac6101c087016101a088016117f6565b6106bc6080880160608901611616565b346106cf6101608a016101408b016117c2565b6106e16101808b016101608c016117c2565b8a6000013560008073ffffffffffffffffffffffffffffffffffffffff168d60e00160208101906107129190611616565b73ffffffffffffffffffffffffffffffffffffffff16148061073157508a5b610c84565b6000826107e45761074f61012086016101008701611616565b6040517f70a0823100000000000000000000000000000000000000000000000000000000815230600482015273ffffffffffffffffffffffffffffffffffffffff91909116906370a0823190602401602060405180830381865afa1580156107bb573d6000803e3d6000fd5b505050506040513d601f19601f820116820180604052508101906107df91906117a9565b6107e6565b475b90506107f28282611842565b935083158061081c5750610819602086013561081460c0880160a08901611855565b611180565b84105b15610853576040517f42301c2300000000000000000000000000000000000000000000000000000000815260040160405180910390fd5b61086561012086016101008701611616565b73ffffffffffffffffffffffffffffffffffffffff1661088c610100870160e08801611616565b73ffffffffffffffffffffffffffffffffffffffff166108b260e0880160c08901611616565b60408051893581526020810189905273ffffffffffffffffffffffffffffffffffffffff92909216917f1d81b4318b379c644b5546ae9cf37d861a5c7547bf3dae6cfaecffa12f8748f3910160405180910390a461094a61091960e0870160c08801611616565b61092b61012088016101008901611616565b61093b60a0890160808a01611855565b61ffff168860200135886111a7565b93508215610a015760006109646060870160408801611616565b73ffffffffffffffffffffffffffffffffffffffff168560405160006040518083038185875af1925050503d80600081146109bb576040519150601f19603f3d011682016040523d82523d6000602084013e6109c0565b606091505b50509050806109fb576040517f6d963f8800000000000000000000000000000000000000000000000000000000815260040160405180910390fd5b50610a44565b610a44610a146060870160408801611616565b85610a2761012089016101008a01611616565b73ffffffffffffffffffffffffffffffffffffffff16919061125b565b505050919050565b60405173ffffffffffffffffffffffffffffffffffffffff8085166024830152831660448201526064810182905261059e9085907f23b872dd0000000000000000000000000000000000000000000000000000000090608401610512565b60008060008473ffffffffffffffffffffffffffffffffffffffff1684604051610ad4919061189d565b6000604051808303816000865af19150503d8060008114610b11576040519150601f19603f3d011682016040523d82523d6000602084013e610b16565b606091505b5091509150818015610b40575080511580610b40575080806020019051810190610b4091906118b9565b8015610b62575073ffffffffffffffffffffffffffffffffffffffff85163b15155b95945050505050565b6000610bcd826040518060400160405280602081526020017f5361666545524332303a206c6f772d6c6576656c2063616c6c206661696c65648152508573ffffffffffffffffffffffffffffffffffffffff166112b19092919063ffffffff16565b9050805160001480610bee575080806020019051810190610bee91906118b9565b610c7f576040517f08c379a000000000000000000000000000000000000000000000000000000000815260206004820152602a60248201527f5361666545524332303a204552433230206f7065726174696f6e20646964206e60448201527f6f7420737563636565640000000000000000000000000000000000000000000060648201526084015b60405180910390fd5b505050565b8860ff16600103610db2578715610d3d576040517fa6417ed600000000000000000000000000000000000000000000000000000000815260ff808716600f90810b6004840152908616900b6024820152604481018490526064810183905273ffffffffffffffffffffffffffffffffffffffff88169063a6417ed69088906084015b6000604051808303818588803b158015610d1f57600080fd5b505af1158015610d33573d6000803e3d6000fd5b5050505050611175565b6040517f3df0212400000000000000000000000000000000000000000000000000000000815260ff808716600f90810b6004840152908616900b6024820152604481018490526064810183905273ffffffffffffffffffffffffffffffffffffffff881690633df02124908890608401610d06565b8860ff16600203610ef2578715610e7d576040517fa6417ed600000000000000000000000000000000000000000000000000000000815260ff808716600f90810b6004840152908616900b6024820152604481018490526064810183905273ffffffffffffffffffffffffffffffffffffffff88169063a6417ed69088906084015b60206040518083038185885af1158015610e52573d6000803e3d6000fd5b50505050506040513d601f19601f82011682018060405250810190610e7791906117a9565b50611175565b6040517f3df0212400000000000000000000000000000000000000000000000000000000815260ff808716600f90810b6004840152908616900b6024820152604481018490526064810183905273ffffffffffffffffffffffffffffffffffffffff881690633df02124908890608401610e34565b8860ff16600303611093578715610f70576040517f65b2489b00000000000000000000000000000000000000000000000000000000815260ff808716600483015285166024820152604481018490526064810183905273ffffffffffffffffffffffffffffffffffffffff8816906365b2489b908890608401610e34565b8015610fea576040517f394747c500000000000000000000000000000000000000000000000000000000815260ff80871660048301528516602482015260448101849052606481018390526001608482015273ffffffffffffffffffffffffffffffffffffffff88169063394747c590889060a401610e34565b6040517f5b41b90800000000000000000000000000000000000000000000000000000000815260ff868116600483015285166024820152604481018490526064810183905273ffffffffffffffffffffffffffffffffffffffff881690635b41b908906084016020604051808303816000875af115801561106f573d6000803e3d6000fd5b505050506040513d601f19601f82011682018060405250810190610e7791906117a9565b8860ff166004036111435787156110d6576040517ff1c43ede00000000000000000000000000000000000000000000000000000000815260040160405180910390fd5b6040517f5b41b90800000000000000000000000000000000000000000000000000000000815260ff808716600483015285166024820152604481018490526064810183905273ffffffffffffffffffffffffffffffffffffffff881690635b41b908908890608401610d06565b6040517ff1c43ede00000000000000000000000000000000000000000000000000000000815260040160405180910390fd5b505050505050505050565b600061271061118f83826118d6565b61119d9061ffff16856118f8565b61033f919061190f565b60006107d08411156111e9576040517f7b9314200000000000000000000000000000000000000000000000000000000081526107d06004820152602401610c76565b600082848111156111fb575050828203835b612710818702049190910190600073ffffffffffffffffffffffffffffffffffffffff8916156112315760646032840204611234565b60005b905080830383821461124c5761124c8a8a84846112c8565b50505090910395945050505050565b60405173ffffffffffffffffffffffffffffffffffffffff8316602482015260448101829052610c7f9084907fa9059cbb0000000000000000000000000000000000000000000000000000000090606401610512565b60606112c08484600085611390565b949350505050565b73ffffffffffffffffffffffffffffffffffffffff84811660008181527f77fbd1c38a5ead50a5764a860fef6b91e5432a95f91228e67197edaf911cfc90602081815260408084209589168085529582528084208054890190557f77fbd1c38a5ead50a5764a860fef6b91e5432a95f91228e67197edaf911cfc9182529283902080548801905582518781529081018690528251919493927f3d2a5b5aa3c9e4a41eed8ae2e9e470c5cfb96fa51eb0935c607c0fd8ec3f3f5792918290030190a35050505050565b606082471015611422576040517f08c379a000000000000000000000000000000000000000000000000000000000815260206004820152602660248201527f416464726573733a20696e73756666696369656e742062616c616e636520666f60448201527f722063616c6c00000000000000000000000000000000000000000000000000006064820152608401610c76565b6000808673ffffffffffffffffffffffffffffffffffffffff16858760405161144b919061189d565b60006040518083038185875af1925050503d8060008114611488576040519150601f19603f3d011682016040523d82523d6000602084013e61148d565b606091505b509150915061149e878383876114a9565b979650505050505050565b6060831561153f5782516000036115385773ffffffffffffffffffffffffffffffffffffffff85163b611538576040517f08c379a000000000000000000000000000000000000000000000000000000000815260206004820152601d60248201527f416464726573733a2063616c6c20746f206e6f6e2d636f6e74726163740000006044820152606401610c76565b50816112c0565b6112c083838151156115545781518083602001fd5b806040517f08c379a0000000000000000000000000000000000000000000000000000000008152600401610c76919061194a565b60006101c0828403121561159b57600080fd5b50919050565b6000806101e083850312156115b557600080fd5b6115bf8484611588565b91506101c083013567ffffffffffffffff8111156115dc57600080fd5b8301604081860312156115ee57600080fd5b809150509250929050565b60006101c0828403121561160c57600080fd5b61033f8383611588565b60006020828403121561162857600080fd5b813573ffffffffffffffffffffffffffffffffffffffff8116811461164c57600080fd5b9392505050565b60006020828403121561166557600080fd5b813565ffffffffffff8116811461164c57600080fd5b60008083357fffffffffffffffffffffffffffffffffffffffffffffffffffffffffffffffe18436030181126116b057600080fd5b83018035915067ffffffffffffffff8211156116cb57600080fd5b6020019150368190038213156116e057600080fd5b9250929050565b600061010073ffffffffffffffffffffffffffffffffffffffff80881684528651818151166020860152816020820151166040860152604081015165ffffffffffff80821660608801528060608401511660808801525050508060208801511660a085015250604086015160c08401528060e08401528381840152506101208385828501376000838501820152601f9093017fffffffffffffffffffffffffffffffffffffffffffffffffffffffffffffffe016909101909101949350505050565b6000602082840312156117bb57600080fd5b5051919050565b6000602082840312156117d457600080fd5b813560ff8116811461164c57600080fd5b80151581146117f357600080fd5b50565b60006020828403121561180857600080fd5b813561164c816117e5565b7f4e487b7100000000000000000000000000000000000000000000000000000000600052601160045260246000fd5b8181038181111561034257610342611813565b60006020828403121561186757600080fd5b813561ffff8116811461164c57600080fd5b60005b8381101561189457818101518382015260200161187c565b50506000910152565b600082516118af818460208701611879565b9190910192915050565b6000602082840312156118cb57600080fd5b815161164c816117e5565b61ffff8281168282160390808211156118f1576118f1611813565b5092915050565b808202811582820484141761034257610342611813565b600082611945577f4e487b7100000000000000000000000000000000000000000000000000000000600052601260045260246000fd5b500490565b6020815260008251806020840152611969816040850160208701611879565b601f017fffffffffffffffffffffffffffffffffffffffffffffffffffffffffffffffe016919091016040019291505056fea26469706673582212209bee2be8dc58177c521067d9126fa603a009b463a826a071a37707559b30df8f64736f6c63430008130033",
  "devdoc": {
    "kind": "dev",
    "methods": {},
    "version": 1
  },
  "userdoc": {
    "errors": {
      "FeeTooHigh(uint256)": [
        {
          "notice": "The swap fee is over the maximum allowed"
        },
        {
          "notice": "The swap fee is over the maximum allowed"
        }
      ],
      "PermitForEthToken()": [
        {
          "notice": "A function expecting a permit was used when the input token is ETH"
        }
      ]
    },
    "kind": "user",
    "methods": {},
    "notice": "Swaps for Curve pools The pools are not trusted to deliver the correct amount of tokens, so the router verifies this.",
    "version": 1
  },
  "storageLayout": {
    "storage": [],
    "types": null
  }
}