{
  "address": "0x177dbf9D5C601B7A7a358aD752Ac1D7d54986D5a",
  "abi": [
    {
      "inputs": [],
      "name": "CallbackAlreadyActive",
      "type": "error"
    },
    {
      "inputs": [],
      "name": "CallbackAlreadyActive",
      "type": "error"
    },
    {
      "inputs": [],
      "name": "CallbackStillActive",
      "type": "error"
    },
    {
      "inputs": [],
      "name": "CallbackStillActive",
      "type": "error"
    },
    {
      "inputs": [],
      "name": "DeadlineExpired",
      "type": "error"
    },
    {
      "inputs": [],
      "name": "EthTransferFailed",
      "type": "error"
    },
    {
      "inputs": [
        {
          "internalType": "uint256",
          "name": "maxFeeBps",
          "type": "uint256"
        }
      ],
      "name": "FeeTooHigh",
      "type": "error"
    },
    {
      "inputs": [
        {
          "internalType": "uint256",
          "name": "maxFeeBps",
          "type": "uint256"
        }
      ],
      "name": "FeeTooHigh",
      "type": "error"
    },
    {
      "inputs": [],
      "name": "IncorrectEthValue",
      "type": "error"
    },
    {
      "inputs": [],
      "name": "InsufficientOutputAmount",
      "type": "error"
    },
    {
      "anonymous": false,
      "inputs": [
        {
          "indexed": true,
          "internalType": "address",
          "name": "partner",
          "type": "address"
        },
        {
          "indexed": true,
          "internalType": "address",
          "name": "token",
          "type": "address"
        },
        {
          "indexed": false,
          "internalType": "uint256",
          "name": "partnerFee",
          "type": "uint256"
        },
        {
          "indexed": false,
          "internalType": "uint256",
          "name": "protocolFee",
          "type": "uint256"
        }
      ],
      "name": "Fee",
      "type": "event"
    },
    {
      "anonymous": false,
      "inputs": [
        {
          "indexed": true,
          "internalType": "address",
          "name": "partner",
          "type": "address"
        },
        {
          "indexed": true,
          "internalType": "address",
          "name": "tokenIn",
          "type": "address"
        },
        {
          "indexed": true,
          "internalType": "address",
          "name": "tokenOut",
          "type": "address"
        },
        {
          "indexed": false,
          "internalType": "uint256",
          "name": "amountIn",
          "type": "uint256"
        },
        {
          "indexed": false,
          "internalType": "uint256",
          "name": "amountOut",
          "type": "uint256"
        }
      ],
      "name": "Warp",
      "type": "event"
    },
    {
      "inputs": [
        {
          "components": [
            {
              "internalType": "uint256",
              "name": "amountIn",
              "type": "uint256"
            },
            {
              "internalType": "uint256",
              "name": "amountOut",
              "type": "uint256"
            },
            {
              "internalType": "address",
              "name": "recipient",
              "type": "address"
            },
            {
              "internalType": "uint16",
              "name": "slippageBps",
              "type": "uint16"
            },
            {
              "internalType": "uint16",
              "name": "feeBps",
              "type": "uint16"
            },
            {
              "internalType": "uint48",
              "name": "deadline",
              "type": "uint48"
            },
            {
              "internalType": "address",
              "name": "partner",
              "type": "address"
            },
            {
              "internalType": "address[]",
              "name": "tokens",
              "type": "address[]"
            },
            {
              "internalType": "address[]",
              "name": "pools",
              "type": "address[]"
            }
          ],
          "internalType": "struct IUniV3Like.ExactInputParams",
          "name": "params",
          "type": "tuple"
        }
      ],
      "name": "uniswapV3LikeExactInput",
      "outputs": [
        {
          "internalType": "uint256",
          "name": "amountOut",
          "type": "uint256"
        }
      ],
      "stateMutability": "payable",
      "type": "function"
    },
    {
      "inputs": [
        {
          "components": [
            {
              "internalType": "uint256",
              "name": "amountIn",
              "type": "uint256"
            },
            {
              "internalType": "uint256",
              "name": "amountOut",
              "type": "uint256"
            },
            {
              "internalType": "address",
              "name": "recipient",
              "type": "address"
            },
            {
              "internalType": "uint16",
              "name": "slippageBps",
              "type": "uint16"
            },
            {
              "internalType": "uint16",
              "name": "feeBps",
              "type": "uint16"
            },
            {
              "internalType": "uint48",
              "name": "deadline",
              "type": "uint48"
            },
            {
              "internalType": "address",
              "name": "partner",
              "type": "address"
            },
            {
              "internalType": "address[]",
              "name": "tokens",
              "type": "address[]"
            },
            {
              "internalType": "address[]",
              "name": "pools",
              "type": "address[]"
            }
          ],
          "internalType": "struct IUniV3Like.ExactInputParams",
          "name": "params",
          "type": "tuple"
        },
        {
          "components": [
            {
              "internalType": "uint256",
              "name": "nonce",
              "type": "uint256"
            },
            {
              "internalType": "bytes",
              "name": "signature",
              "type": "bytes"
            }
          ],
          "internalType": "struct PermitParams",
          "name": "permit",
          "type": "tuple"
        }
      ],
      "name": "uniswapV3LikeExactInputPermit",
      "outputs": [
        {
          "internalType": "uint256",
          "name": "amountOut",
          "type": "uint256"
        }
      ],
      "stateMutability": "nonpayable",
      "type": "function"
    },
    {
      "inputs": [
        {
          "components": [
            {
              "internalType": "address",
              "name": "recipient",
              "type": "address"
            },
            {
              "internalType": "address",
              "name": "partner",
              "type": "address"
            },
            {
              "internalType": "uint16",
              "name": "feeBps",
              "type": "uint16"
            },
            {
              "internalType": "uint16",
              "name": "slippageBps",
              "type": "uint16"
            },
            {
              "internalType": "uint256",
              "name": "amountIn",
              "type": "uint256"
            },
            {
              "internalType": "uint48",
              "name": "deadline",
              "type": "uint48"
            },
            {
              "internalType": "address",
              "name": "tokenIn",
              "type": "address"
            },
            {
              "internalType": "address",
              "name": "tokenOut",
              "type": "address"
            },
            {
              "internalType": "uint256",
              "name": "amountOut",
              "type": "uint256"
            },
            {
              "internalType": "address",
              "name": "pool",
              "type": "address"
            }
          ],
          "internalType": "struct IUniV3Like.ExactInputSingleParams",
          "name": "params",
          "type": "tuple"
        }
      ],
      "name": "uniswapV3LikeExactInputSingle",
      "outputs": [
        {
          "internalType": "uint256",
          "name": "amountOut",
          "type": "uint256"
        }
      ],
      "stateMutability": "payable",
      "type": "function"
    },
    {
      "inputs": [
        {
          "components": [
            {
              "internalType": "address",
              "name": "recipient",
              "type": "address"
            },
            {
              "internalType": "address",
              "name": "partner",
              "type": "address"
            },
            {
              "internalType": "uint16",
              "name": "feeBps",
              "type": "uint16"
            },
            {
              "internalType": "uint16",
              "name": "slippageBps",
              "type": "uint16"
            },
            {
              "internalType": "uint256",
              "name": "amountIn",
              "type": "uint256"
            },
            {
              "internalType": "uint48",
              "name": "deadline",
              "type": "uint48"
            },
            {
              "internalType": "address",
              "name": "tokenIn",
              "type": "address"
            },
            {
              "internalType": "address",
              "name": "tokenOut",
              "type": "address"
            },
            {
              "internalType": "uint256",
              "name": "amountOut",
              "type": "uint256"
            },
            {
              "internalType": "address",
              "name": "pool",
              "type": "address"
            }
          ],
          "internalType": "struct IUniV3Like.ExactInputSingleParams",
          "name": "params",
          "type": "tuple"
        },
        {
          "components": [
            {
              "internalType": "uint256",
              "name": "nonce",
              "type": "uint256"
            },
            {
              "internalType": "bytes",
              "name": "signature",
              "type": "bytes"
            }
          ],
          "internalType": "struct PermitParams",
          "name": "permit",
          "type": "tuple"
        }
      ],
      "name": "uniswapV3LikeExactInputSinglePermit",
      "outputs": [
        {
          "internalType": "uint256",
          "name": "amountOut",
          "type": "uint256"
        }
      ],
      "stateMutability": "nonpayable",
      "type": "function"
    }
  ],
  "transactionHash": "0x5580d3cd95f77fbc2696fb7eaa4ca96dc5c59165011a8f29b2b98375074ea258",
  "args": [],
  "numDeployments": 13,
  "solcInputHash": "900c3c28c2b77d8c6e19c16322d84301",
  "bytecode": "0x608060405234801561001057600080fd5b50612569806100206000396000f3fe60806040526004361061003e5760003560e01c80626ee8b6146100435780635576abd114610068578063a33aea141461007b578063cda932d11461009b575b600080fd5b610056610051366004611fec565b6100bb565b60405190815260200160405180910390f35b610056610076366004612034565b61024f565b34801561008757600080fd5b50610056610096366004612063565b6103b2565b3480156100a757600080fd5b506100566100b63660046120b4565b6104fc565b60006100cd60c0830160a0840161210e565b65ffffffffffff1642111561010e576040517f1ab7da6b00000000000000000000000000000000000000000000000000000000815260040160405180910390fd5b600061011d60e0840184612136565b600081811061012e5761012e6121a5565b905060200201602081019061014391906121d4565b73ffffffffffffffffffffffffffffffffffffffff160361023e5734823514610198576040517fab0a033b00000000000000000000000000000000000000000000000000000000815260040160405180910390fd5b7f1c1cf3c8827d48db80e17913589584c81d7f8da7f2100c9a87a7bf64829a0e1054604080517fd0e30db0000000000000000000000000000000000000000000000000000000008152905173ffffffffffffffffffffffffffffffffffffffff9092169163d0e30db0913491600480830192600092919082900301818588803b15801561022457600080fd5b505af1158015610238573d6000803e3d6000fd5b50505050505b61024982600061065b565b92915050565b600061026160c0830160a0840161210e565b65ffffffffffff164211156102a2576040517f1ab7da6b00000000000000000000000000000000000000000000000000000000815260040160405180910390fd5b60006102b460e0840160c085016121d4565b73ffffffffffffffffffffffffffffffffffffffff16036103a7577f1c1cf3c8827d48db80e17913589584c81d7f8da7f2100c9a87a7bf64829a0e105473ffffffffffffffffffffffffffffffffffffffff1660808301353414610344576040517fab0a033b00000000000000000000000000000000000000000000000000000000815260040160405180910390fd5b8073ffffffffffffffffffffffffffffffffffffffff1663d0e30db0346040518263ffffffff1660e01b81526004016000604051808303818588803b15801561038c57600080fd5b505af11580156103a0573d6000803e3d6000fd5b5050505050505b6102498260006110dc565b7f1c1cf3c8827d48db80e17913589584c81d7f8da7f2100c9a87a7bf64829a0e11546040805160e080820190925260009273ffffffffffffffffffffffffffffffffffffffff1691632b67b57091339181906060820190819061041a908b0160c08c016121d4565b73ffffffffffffffffffffffffffffffffffffffff908116825260808b013516602082015260400161045260c08b0160a08c0161210e565b65ffffffffffff9081168252893516602091820152908252309082015260400161048260c0890160a08a0161210e565b65ffffffffffff169052610499602087018761220a565b6040518563ffffffff1660e01b81526004016104b8949392919061226f565b600060405180830381600087803b1580156104d257600080fd5b505af11580156104e6573d6000803e3d6000fd5b505050506104f58360016110dc565b9392505050565b7f1c1cf3c8827d48db80e17913589584c81d7f8da7f2100c9a87a7bf64829a0e11546040805160e080820190925260009273ffffffffffffffffffffffffffffffffffffffff1691632b67b570913391819060608201908190610561908b018b612136565b6000818110610572576105726121a5565b905060200201602081019061058791906121d4565b73ffffffffffffffffffffffffffffffffffffffff90811682528a351660208201526040016105bc60c08b0160a08c0161210e565b65ffffffffffff908116825289351660209182015290825230908201526040016105ec60c0890160a08a0161210e565b65ffffffffffff169052610603602087018761220a565b6040518563ffffffff1660e01b8152600401610622949392919061226f565b600060405180830381600087803b15801561063c57600080fd5b505af1158015610650573d6000803e3d6000fd5b505050506104f58360015b60008061066c610100850185612136565b9150600090508061068060e0870187612136565b6000818110610691576106916121a5565b90506020020160208101906106a691906121d4565b73ffffffffffffffffffffffffffffffffffffffff16146106c757336106c9565b305b905060006106da60e0870187612136565b80806020026020016040519081016040528093929190818152602001838360200280828437600092018290525093945061071b9250505060e0880188612136565b600081811061072c5761072c6121a5565b905060200201602081019061074191906121d4565b73ffffffffffffffffffffffffffffffffffffffff16036107e5577f1c1cf3c8827d48db80e17913589584c81d7f8da7f2100c9a87a7bf64829a0e1054815173ffffffffffffffffffffffffffffffffffffffff9091169082906000906107aa576107aa6121a5565b602002602001019073ffffffffffffffffffffffffffffffffffffffff16908173ffffffffffffffffffffffffffffffffffffffff16815250505b60006107f460e0880188612136565b85818110610804576108046121a5565b905060200201602081019061081991906121d4565b73ffffffffffffffffffffffffffffffffffffffff16036108be577f1c1cf3c8827d48db80e17913589584c81d7f8da7f2100c9a87a7bf64829a0e1054815173ffffffffffffffffffffffffffffffffffffffff90911690829085908110610883576108836121a5565b602002602001019073ffffffffffffffffffffffffffffffffffffffff16908173ffffffffffffffffffffffffffffffffffffffff16815250505b60008184815181106108d2576108d26121a5565b60209081029190910101516040517f70a0823100000000000000000000000000000000000000000000000000000000815230600482015273ffffffffffffffffffffffffffffffffffffffff909116906370a0823190602401602060405180830381865afa158015610948573d6000803e3d6000fd5b505050506040513d601f19601f8201168201806040525081019061096c9190612331565b87359550905060005b84811015610c815760008160010190506000848281518110610999576109996121a5565b602002602001015173ffffffffffffffffffffffffffffffffffffffff168584815181106109c9576109c96121a5565b602002602001015173ffffffffffffffffffffffffffffffffffffffff16109050610a5860405180608001604052808a81526020018873ffffffffffffffffffffffffffffffffffffffff168152602001878681518110610a2c57610a2c6121a5565b602002602001015173ffffffffffffffffffffffffffffffffffffffff1681526020018b81525061188c565b8015610b61576000610a6e6101008c018c612136565b85818110610a7e57610a7e6121a5565b9050602002016020810190610a9391906121d4565b6040517f128acb080000000000000000000000000000000000000000000000000000000081523060048201528315156024820152604481018b90526401000276a4606482015260a06084820152600060a482015273ffffffffffffffffffffffffffffffffffffffff919091169063128acb089060c40160408051808303816000875af1158015610b28573d6000803e3d6000fd5b505050506040513d601f19601f82011682018060405250810190610b4c919061234a565b91505080610b599061239d565b985050610c6e565b6000610b716101008c018c612136565b85818110610b8157610b816121a5565b9050602002016020810190610b9691906121d4565b6040517f128acb080000000000000000000000000000000000000000000000000000000081523060048201528315156024820152604481018b905273fffd8963efd1fc6a506488495d951d5263988d25606482015260a06084820152600060a482015273ffffffffffffffffffffffffffffffffffffffff919091169063128acb089060c40160408051808303816000875af1158015610c3a573d6000803e3d6000fd5b505050506040513d601f19601f82011682018060405250810190610c5e919061234a565b509050610c6a8161239d565b9850505b610c76611a1b565b503094509050610975565b5080828581518110610c9557610c956121a5565b60209081029190910101516040517f70a0823100000000000000000000000000000000000000000000000000000000815230600482015273ffffffffffffffffffffffffffffffffffffffff909116906370a0823190602401602060405180830381865afa158015610d0b573d6000803e3d6000fd5b505050506040513d601f19601f82011682018060405250810190610d2f9190612331565b610d3991906123d5565b9450841580610d5f5750610d5c85610d5760808a0160608b016123e8565b611a7b565b85105b15610d96576040517f42301c2300000000000000000000000000000000000000000000000000000000815260040160405180910390fd5b610da360e0880188612136565b85818110610db357610db36121a5565b9050602002016020810190610dc891906121d4565b73ffffffffffffffffffffffffffffffffffffffff16610deb60e0890189612136565b6000818110610dfc57610dfc6121a5565b9050602002016020810190610e1191906121d4565b73ffffffffffffffffffffffffffffffffffffffff16610e3760e08a0160c08b016121d4565b604080518b358152602081018a905273ffffffffffffffffffffffffffffffffffffffff92909216917f1d81b4318b379c644b5546ae9cf37d861a5c7547bf3dae6cfaecffa12f8748f3910160405180910390a4610eda610e9e60e0890160c08a016121d4565b838681518110610eb057610eb06121a5565b6020026020010151896080016020810190610ecb91906123e8565b61ffff168a6020013589611aa2565b94506000610eeb60e0890189612136565b86818110610efb57610efb6121a5565b9050602002016020810190610f1091906121d4565b73ffffffffffffffffffffffffffffffffffffffff160361107f577f1c1cf3c8827d48db80e17913589584c81d7f8da7f2100c9a87a7bf64829a0e10546040517f2e1a7d4d0000000000000000000000000000000000000000000000000000000081526004810187905273ffffffffffffffffffffffffffffffffffffffff90911690632e1a7d4d90602401600060405180830381600087803b158015610fb657600080fd5b505af1158015610fca573d6000803e3d6000fd5b5060009250610fe29150506060890160408a016121d4565b73ffffffffffffffffffffffffffffffffffffffff168660405160006040518083038185875af1925050503d8060008114611039576040519150601f19603f3d011682016040523d82523d6000602084013e61103e565b606091505b5050905080611079576040517f6d963f8800000000000000000000000000000000000000000000000000000000815260040160405180910390fd5b506110d2565b6110d26110926060890160408a016121d4565b868487815181106110a5576110a56121a5565b602002602001015173ffffffffffffffffffffffffffffffffffffffff16611b5b9092919063ffffffff16565b5050505092915050565b600080806110f060e0860160c087016121d4565b73ffffffffffffffffffffffffffffffffffffffff161490506000816111255761112060e0860160c087016121d4565b61115e565b7f1c1cf3c8827d48db80e17913589584c81d7f8da7f2100c9a87a7bf64829a0e105473ffffffffffffffffffffffffffffffffffffffff165b9050600080611174610100880160e089016121d4565b73ffffffffffffffffffffffffffffffffffffffff16146111a5576111a0610100870160e088016121d4565b6111de565b7f1c1cf3c8827d48db80e17913589584c81d7f8da7f2100c9a87a7bf64829a0e105473ffffffffffffffffffffffffffffffffffffffff165b6040517f70a0823100000000000000000000000000000000000000000000000000000000815230600482015290915060009073ffffffffffffffffffffffffffffffffffffffff8316906370a0823190602401602060405180830381865afa15801561124e573d6000803e3d6000fd5b505050506040513d601f19601f820116820180604052508101906112729190612331565b905060008273ffffffffffffffffffffffffffffffffffffffff168473ffffffffffffffffffffffffffffffffffffffff1610905061130c60405180608001604052808a608001358152602001876112ca57336112cc565b305b73ffffffffffffffffffffffffffffffffffffffff1681526020018673ffffffffffffffffffffffffffffffffffffffff1681526020018981525061188c565b80156113f75760006113266101408a016101208b016121d4565b6040517f128acb08000000000000000000000000000000000000000000000000000000008152306004820152831515602482015260808b013560448201526401000276a4606482015260a06084820152600060a482015273ffffffffffffffffffffffffffffffffffffffff919091169063128acb089060c40160408051808303816000875af11580156113be573d6000803e3d6000fd5b505050506040513d601f19601f820116820180604052508101906113e2919061234a565b915050806113ef9061239d565b9650506114e6565b600061140b6101408a016101208b016121d4565b6040517f128acb08000000000000000000000000000000000000000000000000000000008152306004820152831515602482015260808b0135604482015273fffd8963efd1fc6a506488495d951d5263988d25606482015260a06084820152600060a482015273ffffffffffffffffffffffffffffffffffffffff919091169063128acb089060c40160408051808303816000875af11580156114b2573d6000803e3d6000fd5b505050506040513d601f19601f820116820180604052508101906114d6919061234a565b5090506114e28161239d565b9650505b6114ee611a1b565b6040517f70a08231000000000000000000000000000000000000000000000000000000008152306004820152829073ffffffffffffffffffffffffffffffffffffffff8516906370a0823190602401602060405180830381865afa15801561155a573d6000803e3d6000fd5b505050506040513d601f19601f8201168201806040525081019061157e9190612331565b61158891906123d5565b95508515806115ae57506115ab610100890135610d5760808b0160608c016123e8565b86105b156115e5576040517f42301c2300000000000000000000000000000000000000000000000000000000815260040160405180910390fd5b6115f6610100890160e08a016121d4565b73ffffffffffffffffffffffffffffffffffffffff1661161c60e08a0160c08b016121d4565b73ffffffffffffffffffffffffffffffffffffffff1661164260408b0160208c016121d4565b73ffffffffffffffffffffffffffffffffffffffff167f1d81b4318b379c644b5546ae9cf37d861a5c7547bf3dae6cfaecffa12f8748f38b608001358a604051611696929190918252602082015260400190565b60405180910390a46116d26116b160408a0160208b016121d4565b846116c260608c0160408d016123e8565b61ffff168b61010001358a611aa2565b955060006116e76101008a0160e08b016121d4565b73ffffffffffffffffffffffffffffffffffffffff1603611853577f1c1cf3c8827d48db80e17913589584c81d7f8da7f2100c9a87a7bf64829a0e10546040517f2e1a7d4d0000000000000000000000000000000000000000000000000000000081526004810188905273ffffffffffffffffffffffffffffffffffffffff90911690632e1a7d4d90602401600060405180830381600087803b15801561178d57600080fd5b505af11580156117a1573d6000803e3d6000fd5b50600092506117b691505060208a018a6121d4565b73ffffffffffffffffffffffffffffffffffffffff168760405160006040518083038185875af1925050503d806000811461180d576040519150601f19603f3d011682016040523d82523d6000602084013e611812565b606091505b505090508061184d576040517f6d963f8800000000000000000000000000000000000000000000000000000000815260040160405180910390fd5b50611881565b61188161186360208a018a6121d4565b73ffffffffffffffffffffffffffffffffffffffff85169088611b5b565b505050505092915050565b7f3029b773e586da235d6a0709bacd2cb14a2e6562f997f3c8684513a487bcbf7a5460ff166001036118ea576040517f65d4e04900000000000000000000000000000000000000000000000000000000815260040160405180910390fd5b7f3029b773e586da235d6a0709bacd2cb14a2e6562f997f3c8684513a487bcbf7a80547fffffffffffffffffffffffffffffffffffffffffffffffffffffffffffffff0016600117905580517f3029b773e586da235d6a0709bacd2cb14a2e6562f997f3c8684513a487bcbf7b5560208101517f3029b773e586da235d6a0709bacd2cb14a2e6562f997f3c8684513a487bcbf7c80547fffffffffffffffffffffffff000000000000000000000000000000000000000090811673ffffffffffffffffffffffffffffffffffffffff9384161790915560408301517f3029b773e586da235d6a0709bacd2cb14a2e6562f997f3c8684513a487bcbf7d80549092169216919091179055606001517f3029b773e586da235d6a0709bacd2cb14a2e6562f997f3c8684513a487bcbf7e55565b7f3029b773e586da235d6a0709bacd2cb14a2e6562f997f3c8684513a487bcbf7a5460ff16600103611a79576040517f129c8cdb00000000000000000000000000000000000000000000000000000000815260040160405180910390fd5b565b6000612710611a8a838261240c565b611a989061ffff168561242e565b6104f59190612445565b60006107d0841115611ae9576040517f7b9314200000000000000000000000000000000000000000000000000000000081526107d060048201526024015b60405180910390fd5b60008284811115611afb575050828203835b612710818702049190910190600073ffffffffffffffffffffffffffffffffffffffff891615611b315760646032840204611b34565b60005b9050808303838214611b4c57611b4c8a8a8484611bed565b50505090910395945050505050565b6040805173ffffffffffffffffffffffffffffffffffffffff8416602482015260448082018490528251808303909101815260649091019091526020810180517bffffffffffffffffffffffffffffffffffffffffffffffffffffffff167fa9059cbb00000000000000000000000000000000000000000000000000000000179052611be8908490611cb5565b505050565b73ffffffffffffffffffffffffffffffffffffffff84811660008181527f77fbd1c38a5ead50a5764a860fef6b91e5432a95f91228e67197edaf911cfc90602081815260408084209589168085529582528084208054890190557f77fbd1c38a5ead50a5764a860fef6b91e5432a95f91228e67197edaf911cfc9182529283902080548801905582518781529081018690528251919493927f3d2a5b5aa3c9e4a41eed8ae2e9e470c5cfb96fa51eb0935c607c0fd8ec3f3f5792918290030190a35050505050565b6000611d17826040518060400160405280602081526020017f5361666545524332303a206c6f772d6c6576656c2063616c6c206661696c65648152508573ffffffffffffffffffffffffffffffffffffffff16611dc49092919063ffffffff16565b9050805160001480611d38575080806020019051810190611d389190612480565b611be8576040517f08c379a000000000000000000000000000000000000000000000000000000000815260206004820152602a60248201527f5361666545524332303a204552433230206f7065726174696f6e20646964206e60448201527f6f742073756363656564000000000000000000000000000000000000000000006064820152608401611ae0565b6060611dd38484600085611ddb565b949350505050565b606082471015611e6d576040517f08c379a000000000000000000000000000000000000000000000000000000000815260206004820152602660248201527f416464726573733a20696e73756666696369656e742062616c616e636520666f60448201527f722063616c6c00000000000000000000000000000000000000000000000000006064820152608401611ae0565b6000808673ffffffffffffffffffffffffffffffffffffffff168587604051611e9691906124c6565b60006040518083038185875af1925050503d8060008114611ed3576040519150601f19603f3d011682016040523d82523d6000602084013e611ed8565b606091505b5091509150611ee987838387611ef4565b979650505050505050565b60608315611f8a578251600003611f835773ffffffffffffffffffffffffffffffffffffffff85163b611f83576040517f08c379a000000000000000000000000000000000000000000000000000000000815260206004820152601d60248201527f416464726573733a2063616c6c20746f206e6f6e2d636f6e74726163740000006044820152606401611ae0565b5081611dd3565b611dd38383815115611f9f5781518083602001fd5b806040517f08c379a0000000000000000000000000000000000000000000000000000000008152600401611ae091906124e2565b60006101208284031215611fe657600080fd5b50919050565b600060208284031215611ffe57600080fd5b813567ffffffffffffffff81111561201557600080fd5b611dd384828501611fd3565b60006101408284031215611fe657600080fd5b6000610140828403121561204757600080fd5b6104f58383612021565b600060408284031215611fe657600080fd5b600080610160838503121561207757600080fd5b6120818484612021565b915061014083013567ffffffffffffffff81111561209e57600080fd5b6120aa85828601612051565b9150509250929050565b600080604083850312156120c757600080fd5b823567ffffffffffffffff808211156120df57600080fd5b6120eb86838701611fd3565b9350602085013591508082111561210157600080fd5b506120aa85828601612051565b60006020828403121561212057600080fd5b813565ffffffffffff811681146104f557600080fd5b60008083357fffffffffffffffffffffffffffffffffffffffffffffffffffffffffffffffe184360301811261216b57600080fd5b83018035915067ffffffffffffffff82111561218657600080fd5b6020019150600581901b360382131561219e57600080fd5b9250929050565b7f4e487b7100000000000000000000000000000000000000000000000000000000600052603260045260246000fd5b6000602082840312156121e657600080fd5b813573ffffffffffffffffffffffffffffffffffffffff811681146104f557600080fd5b60008083357fffffffffffffffffffffffffffffffffffffffffffffffffffffffffffffffe184360301811261223f57600080fd5b83018035915067ffffffffffffffff82111561225a57600080fd5b60200191503681900382131561219e57600080fd5b600061010073ffffffffffffffffffffffffffffffffffffffff80881684528651818151166020860152816020820151166040860152604081015165ffffffffffff80821660608801528060608401511660808801525050508060208801511660a085015250604086015160c08401528060e08401528381840152506101208385828501376000838501820152601f9093017fffffffffffffffffffffffffffffffffffffffffffffffffffffffffffffffe016909101909101949350505050565b60006020828403121561234357600080fd5b5051919050565b6000806040838503121561235d57600080fd5b505080516020909101519092909150565b7f4e487b7100000000000000000000000000000000000000000000000000000000600052601160045260246000fd5b60007f800000000000000000000000000000000000000000000000000000000000000082036123ce576123ce61236e565b5060000390565b818103818111156102495761024961236e565b6000602082840312156123fa57600080fd5b813561ffff811681146104f557600080fd5b61ffff8281168282160390808211156124275761242761236e565b5092915050565b80820281158282048414176102495761024961236e565b60008261247b577f4e487b7100000000000000000000000000000000000000000000000000000000600052601260045260246000fd5b500490565b60006020828403121561249257600080fd5b815180151581146104f557600080fd5b60005b838110156124bd5781810151838201526020016124a5565b50506000910152565b600082516124d88184602087016124a2565b9190910192915050565b60208152600082518060208401526125018160408501602087016124a2565b601f017fffffffffffffffffffffffffffffffffffffffffffffffffffffffffffffffe016919091016040019291505056fea26469706673582212202e3f7a0a85a74a569674a8a1d37477e2ca2cf80f08f920e27c04a285e898f7b864736f6c63430008130033",
  "devdoc": {
    "kind": "dev",
    "methods": {},
    "version": 1
  },
  "userdoc": {
    "errors": {
      "FeeTooHigh(uint256)": [
        {
          "notice": "The swap fee is over the maximum allowed"
        },
        {
          "notice": "The swap fee is over the maximum allowed"
        }
      ]
    },
    "kind": "user",
    "methods": {},
    "notice": "A router for any Uniswap V3 fork The pools are not trusted to deliver the correct amount of tokens, so the router verifies this. The pool addresses passed in as a parameter instead of being looked up from the factory. The caller may use `getPair` on the factory to calculate pool addresses.",
    "version": 1
  },
  "storageLayout": {
    "storage": [],
    "types": null
  }
}