{
  "address": "0x65F1F2Bf39c3d72a8801e67372147D3BFC997f41",
  "abi": [
    {
      "inputs": [],
      "name": "CallbackAlreadyActive",
      "type": "error"
    },
    {
      "inputs": [],
      "name": "CallbackAlreadyActive",
      "type": "error"
    },
    {
      "inputs": [],
      "name": "CallbackStillActive",
      "type": "error"
    },
    {
      "inputs": [],
      "name": "CallbackStillActive",
      "type": "error"
    },
    {
      "inputs": [],
      "name": "DeadlineExpired",
      "type": "error"
    },
    {
      "inputs": [],
      "name": "EthTransferFailed",
      "type": "error"
    },
    {
      "inputs": [
        {
          "internalType": "uint256",
          "name": "maxFeeBps",
          "type": "uint256"
        }
      ],
      "name": "FeeTooHigh",
      "type": "error"
    },
    {
      "inputs": [
        {
          "internalType": "uint256",
          "name": "maxFeeBps",
          "type": "uint256"
        }
      ],
      "name": "FeeTooHigh",
      "type": "error"
    },
    {
      "inputs": [],
      "name": "IncorrectEthValue",
      "type": "error"
    },
    {
      "inputs": [],
      "name": "InsufficienTokensDelivered",
      "type": "error"
    },
    {
      "inputs": [],
      "name": "InsufficientOutputAmount",
      "type": "error"
    },
    {
      "anonymous": false,
      "inputs": [
        {
          "indexed": true,
          "internalType": "address",
          "name": "partner",
          "type": "address"
        },
        {
          "indexed": true,
          "internalType": "address",
          "name": "token",
          "type": "address"
        },
        {
          "indexed": false,
          "internalType": "uint256",
          "name": "partnerFee",
          "type": "uint256"
        },
        {
          "indexed": false,
          "internalType": "uint256",
          "name": "protocolFee",
          "type": "uint256"
        }
      ],
      "name": "Fee",
      "type": "event"
    },
    {
      "anonymous": false,
      "inputs": [
        {
          "indexed": true,
          "internalType": "address",
          "name": "partner",
          "type": "address"
        },
        {
          "indexed": true,
          "internalType": "address",
          "name": "tokenIn",
          "type": "address"
        },
        {
          "indexed": true,
          "internalType": "address",
          "name": "tokenOut",
          "type": "address"
        },
        {
          "indexed": false,
          "internalType": "uint256",
          "name": "amountIn",
          "type": "uint256"
        },
        {
          "indexed": false,
          "internalType": "uint256",
          "name": "amountOut",
          "type": "uint256"
        }
      ],
      "name": "Warp",
      "type": "event"
    },
    {
      "inputs": [
        {
          "components": [
            {
              "internalType": "uint256",
              "name": "amountIn",
              "type": "uint256"
            },
            {
              "internalType": "uint256",
              "name": "amountOut",
              "type": "uint256"
            },
            {
              "internalType": "address",
              "name": "recipient",
              "type": "address"
            },
            {
              "internalType": "uint16",
              "name": "slippageBps",
              "type": "uint16"
            },
            {
              "internalType": "uint16",
              "name": "feeBps",
              "type": "uint16"
            },
            {
              "internalType": "uint48",
              "name": "deadline",
              "type": "uint48"
            },
            {
              "internalType": "address",
              "name": "partner",
              "type": "address"
            },
            {
              "internalType": "address[]",
              "name": "tokens",
              "type": "address[]"
            },
            {
              "internalType": "address[]",
              "name": "pools",
              "type": "address[]"
            }
          ],
          "internalType": "struct IUniV3Like.ExactInputParams",
          "name": "params",
          "type": "tuple"
        },
        {
          "components": [
            {
              "internalType": "uint256",
              "name": "nonce",
              "type": "uint256"
            },
            {
              "internalType": "bytes",
              "name": "signature",
              "type": "bytes"
            }
          ],
          "internalType": "struct PermitParams",
          "name": "permit",
          "type": "tuple"
        }
      ],
      "name": "uniswapV3LikeExactInput",
      "outputs": [
        {
          "internalType": "uint256",
          "name": "amountOut",
          "type": "uint256"
        }
      ],
      "stateMutability": "payable",
      "type": "function"
    },
    {
      "inputs": [
        {
          "components": [
            {
              "internalType": "address",
              "name": "recipient",
              "type": "address"
            },
            {
              "internalType": "address",
              "name": "partner",
              "type": "address"
            },
            {
              "internalType": "uint16",
              "name": "feeBps",
              "type": "uint16"
            },
            {
              "internalType": "uint16",
              "name": "slippageBps",
              "type": "uint16"
            },
            {
              "internalType": "uint256",
              "name": "amountIn",
              "type": "uint256"
            },
            {
              "internalType": "uint48",
              "name": "deadline",
              "type": "uint48"
            },
            {
              "internalType": "address",
              "name": "tokenIn",
              "type": "address"
            },
            {
              "internalType": "address",
              "name": "tokenOut",
              "type": "address"
            },
            {
              "internalType": "uint256",
              "name": "amountOut",
              "type": "uint256"
            },
            {
              "internalType": "address",
              "name": "pool",
              "type": "address"
            }
          ],
          "internalType": "struct IUniV3Like.ExactInputSingleParams",
          "name": "params",
          "type": "tuple"
        },
        {
          "components": [
            {
              "internalType": "uint256",
              "name": "nonce",
              "type": "uint256"
            },
            {
              "internalType": "bytes",
              "name": "signature",
              "type": "bytes"
            }
          ],
          "internalType": "struct PermitParams",
          "name": "permit",
          "type": "tuple"
        }
      ],
      "name": "uniswapV3LikeExactInputSingle",
      "outputs": [
        {
          "internalType": "uint256",
          "name": "amountOut",
          "type": "uint256"
        }
      ],
      "stateMutability": "payable",
      "type": "function"
    }
  ],
  "transactionHash": "0xfbc60c32816b1860da34a310845ba4b0d568a71629dfc2c7cde9ff1d25357bb4",
  "args": [],
  "numDeployments": 9,
  "solcInputHash": "124f6b0f1e207f1540b01e365d13000c",
  "bytecode": "0x608060405234801561001057600080fd5b506124cf806100206000396000f3fe6080604052600436106100295760003560e01c80630bdf6a0d1461002e5780632494644d14610053575b600080fd5b61004161003c366004611e90565b610066565b60405190815260200160405180910390f35b61004161006136600461203d565b6109f6565b60008260a0015165ffffffffffff164211156100ae576040517f1ab7da6b00000000000000000000000000000000000000000000000000000000815260040160405180910390fd5b60c083015160e084015173ffffffffffffffffffffffffffffffffffffffff9182161591161581156101b9577f1c1cf3c8827d48db80e17913589584c81d7f8da7f2100c9a87a7bf64829a0e105473ffffffffffffffffffffffffffffffffffffffff1660c0860181905260808601513414610156576040517fab0a033b00000000000000000000000000000000000000000000000000000000815260040160405180910390fd5b8073ffffffffffffffffffffffffffffffffffffffff1663d0e30db0346040518263ffffffff1660e01b81526004016000604051808303818588803b15801561019e57600080fd5b505af11580156101b2573d6000803e3d6000fd5b5050505050505b80156101fd577f1c1cf3c8827d48db80e17913589584c81d7f8da7f2100c9a87a7bf64829a0e105473ffffffffffffffffffffffffffffffffffffffff1660e08601525b60e08501516040517f70a0823100000000000000000000000000000000000000000000000000000000815230600482015260009173ffffffffffffffffffffffffffffffffffffffff16906370a0823190602401602060405180830381865afa15801561026e573d6000803e3d6000fd5b505050506040513d601f19601f820116820180604052508101906102929190612157565b905060008660e0015173ffffffffffffffffffffffffffffffffffffffff168760c0015173ffffffffffffffffffffffffffffffffffffffff16109050610332604051806060016040528089608001518152602001866102f257336102f4565b305b73ffffffffffffffffffffffffffffffffffffffff1681526020018960c0015173ffffffffffffffffffffffffffffffffffffffff168152506115d2565b836104a3577f1c1cf3c8827d48db80e17913589584c81d7f8da7f2100c9a87a7bf64829a0e1060010160009054906101000a900473ffffffffffffffffffffffffffffffffffffffff1673ffffffffffffffffffffffffffffffffffffffff16632b67b57033604051806060016040528060405180608001604052808d60c0015173ffffffffffffffffffffffffffffffffffffffff1681526020018d6080015173ffffffffffffffffffffffffffffffffffffffff1681526020018d60a0015165ffffffffffff1681526020018c6000013565ffffffffffff1681525081526020013073ffffffffffffffffffffffffffffffffffffffff1681526020018b60a0015165ffffffffffff168152508980602001906104519190612170565b6040518563ffffffff1660e01b815260040161047094939291906121dc565b600060405180830381600087803b15801561048a57600080fd5b505af115801561049e573d6000803e3d6000fd5b505050505b80156105835761012087015160808801516040517f128acb08000000000000000000000000000000000000000000000000000000008152306004820152831515602482015260448101919091526401000276a4606482015260a06084820152600060a482018190529173ffffffffffffffffffffffffffffffffffffffff169063128acb089060c40160408051808303816000875af115801561054a573d6000803e3d6000fd5b505050506040513d601f19601f8201168201806040525081019061056e919061229e565b9150508061057b906122f1565b955050610667565b61012087015160808801516040517f128acb080000000000000000000000000000000000000000000000000000000081523060048201528315156024820152604481019190915273fffd8963efd1fc6a506488495d951d5263988d25606482015260a06084820152600060a482018190529173ffffffffffffffffffffffffffffffffffffffff169063128acb089060c40160408051808303816000875af1158015610633573d6000803e3d6000fd5b505050506040513d601f19601f82011682018060405250810190610657919061229e565b509050610663816122f1565b9550505b61066f61173b565b610682876101000151886060015161179b565b8510156106bb576040517f42301c2300000000000000000000000000000000000000000000000000000000815260040160405180910390fd5b60e08701516040517f70a0823100000000000000000000000000000000000000000000000000000000815230600482015260009173ffffffffffffffffffffffffffffffffffffffff16906370a0823190602401602060405180830381865afa15801561072c573d6000803e3d6000fd5b505050506040513d601f19601f820116820180604052508101906107509190612157565b90508281108061076857506107658684612329565b81105b1561079f576040517f883d583b00000000000000000000000000000000000000000000000000000000815260040160405180910390fd5b6107c188602001518960e001518a6040015161ffff168b61010001518a6117cb565b95508315610910577f1c1cf3c8827d48db80e17913589584c81d7f8da7f2100c9a87a7bf64829a0e10546040517f2e1a7d4d0000000000000000000000000000000000000000000000000000000081526004810188905273ffffffffffffffffffffffffffffffffffffffff90911690632e1a7d4d90602401600060405180830381600087803b15801561085457600080fd5b505af1158015610868573d6000803e3d6000fd5b505050506000886000015173ffffffffffffffffffffffffffffffffffffffff168760405160006040518083038185875af1925050503d80600081146108ca576040519150601f19603f3d011682016040523d82523d6000602084013e6108cf565b606091505b505090508061090a576040517f6d963f8800000000000000000000000000000000000000000000000000000000815260040160405180910390fd5b5061093a565b875160e089015161093a9173ffffffffffffffffffffffffffffffffffffffff9091169088611884565b83610949578760e0015161094c565b60005b73ffffffffffffffffffffffffffffffffffffffff1685610971578860c00151610974565b60005b73ffffffffffffffffffffffffffffffffffffffff16896020015173ffffffffffffffffffffffffffffffffffffffff167f1d81b4318b379c644b5546ae9cf37d861a5c7547bf3dae6cfaecffa12f8748f38b608001518a6040516109e3929190918252602082015260400190565b60405180910390a4505050505092915050565b60008260a0015165ffffffffffff16421115610a3e576040517f1ab7da6b00000000000000000000000000000000000000000000000000000000815260040160405180910390fd5b6101008301515160e0840151805160009182918290610a5f57610a5f61233c565b602002602001015173ffffffffffffffffffffffffffffffffffffffff1614905060008073ffffffffffffffffffffffffffffffffffffffff168660e001518481518110610aaf57610aaf61233c565b602002602001015173ffffffffffffffffffffffffffffffffffffffff16149050600082610add5733610adf565b305b90508215610bfd577f1c1cf3c8827d48db80e17913589584c81d7f8da7f2100c9a87a7bf64829a0e105460e0880151805173ffffffffffffffffffffffffffffffffffffffff90921691829190600090610b3b57610b3b61233c565b73ffffffffffffffffffffffffffffffffffffffff9092166020928302919091019091015287513414610b9a576040517fab0a033b00000000000000000000000000000000000000000000000000000000815260040160405180910390fd5b8073ffffffffffffffffffffffffffffffffffffffff1663d0e30db0346040518263ffffffff1660e01b81526004016000604051808303818588803b158015610be257600080fd5b505af1158015610bf6573d6000803e3d6000fd5b5050505050505b8115610c90577f1c1cf3c8827d48db80e17913589584c81d7f8da7f2100c9a87a7bf64829a0e105460e0880151805173ffffffffffffffffffffffffffffffffffffffff9092169186908110610c5557610c5561233c565b602002602001019073ffffffffffffffffffffffffffffffffffffffff16908173ffffffffffffffffffffffffffffffffffffffff16815250505b60008760e001518581518110610ca857610ca861233c565b60209081029190910101516040517f70a0823100000000000000000000000000000000000000000000000000000000815230600482015273ffffffffffffffffffffffffffffffffffffffff909116906370a0823190602401602060405180830381865afa158015610d1e573d6000803e3d6000fd5b505050506040513d601f19601f82011682018060405250810190610d429190612157565b88519650905083610ed3577f1c1cf3c8827d48db80e17913589584c81d7f8da7f2100c9a87a7bf64829a0e1060010160009054906101000a900473ffffffffffffffffffffffffffffffffffffffff1673ffffffffffffffffffffffffffffffffffffffff16632b67b57033604051806060016040528060405180608001604052808e60e00151600081518110610ddb57610ddb61233c565b602002602001015173ffffffffffffffffffffffffffffffffffffffff1681526020018e6000015173ffffffffffffffffffffffffffffffffffffffff1681526020018e60a0015165ffffffffffff1681526020018d6000013565ffffffffffff1681525081526020013073ffffffffffffffffffffffffffffffffffffffff1681526020018c60a0015165ffffffffffff168152508a8060200190610e819190612170565b6040518563ffffffff1660e01b8152600401610ea094939291906121dc565b600060405180830381600087803b158015610eba57600080fd5b505af1158015610ece573d6000803e3d6000fd5b505050505b60005b858110156111c457600081600101905060008a60e001518281518110610efe57610efe61233c565b602002602001015173ffffffffffffffffffffffffffffffffffffffff168b60e001518481518110610f3257610f3261233c565b602002602001015173ffffffffffffffffffffffffffffffffffffffff16109050610fbf60405180606001604052808b81526020018773ffffffffffffffffffffffffffffffffffffffff1681526020018d60e001518681518110610f9957610f9961233c565b602002602001015173ffffffffffffffffffffffffffffffffffffffff168152506115d2565b80156110b65760008b61010001518481518110610fde57610fde61233c565b60209081029190910101516040517f128acb080000000000000000000000000000000000000000000000000000000081523060048201528315156024820152604481018c90526401000276a4606482015260a06084820152600060a482015273ffffffffffffffffffffffffffffffffffffffff9091169063128acb089060c40160408051808303816000875af115801561107d573d6000803e3d6000fd5b505050506040513d601f19601f820116820180604052508101906110a1919061229e565b915050806110ae906122f1565b9950506111b1565b60008b610100015184815181106110cf576110cf61233c565b60209081029190910101516040517f128acb080000000000000000000000000000000000000000000000000000000081523060048201528315156024820152604481018c905273fffd8963efd1fc6a506488495d951d5263988d25606482015260a06084820152600060a482015273ffffffffffffffffffffffffffffffffffffffff9091169063128acb089060c40160408051808303816000875af115801561117d573d6000803e3d6000fd5b505050506040513d601f19601f820116820180604052508101906111a1919061229e565b5090506111ad816122f1565b9950505b6111b961173b565b503093509050610ed6565b506111d386896060015161179b565b86101561120c576040517f42301c2300000000000000000000000000000000000000000000000000000000815260040160405180910390fd5b60008860e0015186815181106112245761122461233c565b60209081029190910101516040517f70a0823100000000000000000000000000000000000000000000000000000000815230600482015273ffffffffffffffffffffffffffffffffffffffff909116906370a0823190602401602060405180830381865afa15801561129a573d6000803e3d6000fd5b505050506040513d601f19601f820116820180604052508101906112be9190612157565b9050818110806112d657506112d38783612329565b81105b1561130d576040517f883d583b00000000000000000000000000000000000000000000000000000000815260040160405180910390fd5b6113478960c001518a60e00151888151811061132b5761132b61233c565b60200260200101518b6080015161ffff168c602001518b6117cb565b96508315611496577f1c1cf3c8827d48db80e17913589584c81d7f8da7f2100c9a87a7bf64829a0e10546040517f2e1a7d4d0000000000000000000000000000000000000000000000000000000081526004810189905273ffffffffffffffffffffffffffffffffffffffff90911690632e1a7d4d90602401600060405180830381600087803b1580156113da57600080fd5b505af11580156113ee573d6000803e3d6000fd5b505050506000896040015173ffffffffffffffffffffffffffffffffffffffff168860405160006040518083038185875af1925050503d8060008114611450576040519150601f19603f3d011682016040523d82523d6000602084013e611455565b606091505b5050905080611490576040517f6d963f8800000000000000000000000000000000000000000000000000000000815260040160405180910390fd5b506114e2565b6114e28960400151888b60e0015189815181106114b5576114b561233c565b602002602001015173ffffffffffffffffffffffffffffffffffffffff166118849092919063ffffffff16565b8361150a578860e0015186815181106114fd576114fd61233c565b602002602001015161150d565b60005b73ffffffffffffffffffffffffffffffffffffffff168561154c578960e0015160008151811061153f5761153f61233c565b602002602001015161154f565b60005b73ffffffffffffffffffffffffffffffffffffffff168a60c0015173ffffffffffffffffffffffffffffffffffffffff167f1d81b4318b379c644b5546ae9cf37d861a5c7547bf3dae6cfaecffa12f8748f38c600001518b6040516115be929190918252602082015260400190565b60405180910390a450505050505092915050565b7f3029b773e586da235d6a0709bacd2cb14a2e6562f997f3c8684513a487bcbf7a5460ff16600103611630576040517f65d4e04900000000000000000000000000000000000000000000000000000000815260040160405180910390fd5b7f3029b773e586da235d6a0709bacd2cb14a2e6562f997f3c8684513a487bcbf7a805460017fffffffffffffffffffffffffffffffffffffffffffffffffffffffffffffff0090911617905580517f3029b773e586da235d6a0709bacd2cb14a2e6562f997f3c8684513a487bcbf7b5560208101517f3029b773e586da235d6a0709bacd2cb14a2e6562f997f3c8684513a487bcbf7c80547fffffffffffffffffffffffff000000000000000000000000000000000000000090811673ffffffffffffffffffffffffffffffffffffffff938416179091556040909201517f3029b773e586da235d6a0709bacd2cb14a2e6562f997f3c8684513a487bcbf7d80549093169116179055565b7f3029b773e586da235d6a0709bacd2cb14a2e6562f997f3c8684513a487bcbf7a5460ff16600103611799576040517f129c8cdb00000000000000000000000000000000000000000000000000000000815260040160405180910390fd5b565b60006127106117aa838261236b565b6117b89061ffff168561238d565b6117c291906123a4565b90505b92915050565b60006107d0841115611812576040517f7b9314200000000000000000000000000000000000000000000000000000000081526107d060048201526024015b60405180910390fd5b60008284811115611824575050828203835b612710818702049190910190600073ffffffffffffffffffffffffffffffffffffffff89161561185a576064603284020461185d565b60005b9050808303838214611875576118758a8a8484611916565b50505090910395945050505050565b6040805173ffffffffffffffffffffffffffffffffffffffff8416602482015260448082018490528251808303909101815260649091019091526020810180517bffffffffffffffffffffffffffffffffffffffffffffffffffffffff167fa9059cbb00000000000000000000000000000000000000000000000000000000179052611911908490611a1b565b505050565b7f77fbd1c38a5ead50a5764a860fef6b91e5432a95f91228e67197edaf911cfc8d73ffffffffffffffffffffffffffffffffffffffff8416156119865773ffffffffffffffffffffffffffffffffffffffff8516600090815260028201602052604090206119849085611b2a565b505b6119908186611b2a565b5073ffffffffffffffffffffffffffffffffffffffff858116600081815260038401602090815260408083209489168084529482528083208054890190556004860182529182902080548801905581518781529081018690527f3d2a5b5aa3c9e4a41eed8ae2e9e470c5cfb96fa51eb0935c607c0fd8ec3f3f57910160405180910390a35050505050565b6000611a7d826040518060400160405280602081526020017f5361666545524332303a206c6f772d6c6576656c2063616c6c206661696c65648152508573ffffffffffffffffffffffffffffffffffffffff16611b4c9092919063ffffffff16565b9050805160001480611a9e575080806020019051810190611a9e91906123df565b611911576040517f08c379a000000000000000000000000000000000000000000000000000000000815260206004820152602a60248201527f5361666545524332303a204552433230206f7065726174696f6e20646964206e60448201527f6f742073756363656564000000000000000000000000000000000000000000006064820152608401611809565b60006117c28373ffffffffffffffffffffffffffffffffffffffff8416611b63565b6060611b5b8484600085611bb2565b949350505050565b6000818152600183016020526040812054611baa575081546001818101845560008481526020808220909301849055845484825282860190935260409020919091556117c5565b5060006117c5565b606082471015611c44576040517f08c379a000000000000000000000000000000000000000000000000000000000815260206004820152602660248201527f416464726573733a20696e73756666696369656e742062616c616e636520666f60448201527f722063616c6c00000000000000000000000000000000000000000000000000006064820152608401611809565b6000808673ffffffffffffffffffffffffffffffffffffffff168587604051611c6d919061242c565b60006040518083038185875af1925050503d8060008114611caa576040519150601f19603f3d011682016040523d82523d6000602084013e611caf565b606091505b5091509150611cc087838387611ccb565b979650505050505050565b60608315611d61578251600003611d5a5773ffffffffffffffffffffffffffffffffffffffff85163b611d5a576040517f08c379a000000000000000000000000000000000000000000000000000000000815260206004820152601d60248201527f416464726573733a2063616c6c20746f206e6f6e2d636f6e74726163740000006044820152606401611809565b5081611b5b565b611b5b8383815115611d765781518083602001fd5b806040517f08c379a00000000000000000000000000000000000000000000000000000000081526004016118099190612448565b7f4e487b7100000000000000000000000000000000000000000000000000000000600052604160045260246000fd5b604051610140810167ffffffffffffffff81118282101715611dfd57611dfd611daa565b60405290565b604051610120810167ffffffffffffffff81118282101715611dfd57611dfd611daa565b803573ffffffffffffffffffffffffffffffffffffffff81168114611e4b57600080fd5b919050565b803561ffff81168114611e4b57600080fd5b803565ffffffffffff81168114611e4b57600080fd5b600060408284031215611e8a57600080fd5b50919050565b600080828403610160811215611ea557600080fd5b61014080821215611eb557600080fd5b611ebd611dd9565b9150611ec885611e27565b8252611ed660208601611e27565b6020830152611ee760408601611e50565b6040830152611ef860608601611e50565b606083015260808501356080830152611f1360a08601611e62565b60a0830152611f2460c08601611e27565b60c0830152611f3560e08601611e27565b60e08301526101008581013590830152610120611f53818701611e27565b9083015290925083013567ffffffffffffffff811115611f7257600080fd5b611f7e85828601611e78565b9150509250929050565b600082601f830112611f9957600080fd5b8135602067ffffffffffffffff80831115611fb657611fb6611daa565b8260051b6040517fffffffffffffffffffffffffffffffffffffffffffffffffffffffffffffffe0603f83011681018181108482111715611ff957611ff9611daa565b60405293845285810183019383810192508785111561201757600080fd5b83870191505b84821015611cc05761202e82611e27565b8352918301919083019061201d565b6000806040838503121561205057600080fd5b823567ffffffffffffffff8082111561206857600080fd5b90840190610120828703121561207d57600080fd5b612085611e03565b823581526020830135602082015261209f60408401611e27565b60408201526120b060608401611e50565b60608201526120c160808401611e50565b60808201526120d260a08401611e62565b60a08201526120e360c08401611e27565b60c082015260e0830135828111156120fa57600080fd5b61210688828601611f88565b60e083015250610100808401358381111561212057600080fd5b61212c89828701611f88565b82840152505080945050602085013591508082111561214a57600080fd5b50611f7e85828601611e78565b60006020828403121561216957600080fd5b5051919050565b60008083357fffffffffffffffffffffffffffffffffffffffffffffffffffffffffffffffe18436030181126121a557600080fd5b83018035915067ffffffffffffffff8211156121c057600080fd5b6020019150368190038213156121d557600080fd5b9250929050565b600061010073ffffffffffffffffffffffffffffffffffffffff80881684528651818151166020860152816020820151166040860152604081015165ffffffffffff80821660608801528060608401511660808801525050508060208801511660a085015250604086015160c08401528060e08401528381840152506101208385828501376000838501820152601f9093017fffffffffffffffffffffffffffffffffffffffffffffffffffffffffffffffe016909101909101949350505050565b600080604083850312156122b157600080fd5b505080516020909101519092909150565b7f4e487b7100000000000000000000000000000000000000000000000000000000600052601160045260246000fd5b60007f80000000000000000000000000000000000000000000000000000000000000008203612322576123226122c2565b5060000390565b808201808211156117c5576117c56122c2565b7f4e487b7100000000000000000000000000000000000000000000000000000000600052603260045260246000fd5b61ffff828116828216039080821115612386576123866122c2565b5092915050565b80820281158282048414176117c5576117c56122c2565b6000826123da577f4e487b7100000000000000000000000000000000000000000000000000000000600052601260045260246000fd5b500490565b6000602082840312156123f157600080fd5b8151801515811461240157600080fd5b9392505050565b60005b8381101561242357818101518382015260200161240b565b50506000910152565b6000825161243e818460208701612408565b9190910192915050565b6020815260008251806020840152612467816040850160208701612408565b601f017fffffffffffffffffffffffffffffffffffffffffffffffffffffffffffffffe016919091016040019291505056fea2646970667358221220fc55561e00111dec13711a45b80f6291b7a48b178bc6c0952e1bf017c766c5d464736f6c63430008130033",
  "devdoc": {
    "kind": "dev",
    "methods": {},
    "version": 1
  },
  "userdoc": {
    "errors": {
      "FeeTooHigh(uint256)": [
        {
          "notice": "The swap fee is over the maximum allowed"
        },
        {
          "notice": "The swap fee is over the maximum allowed"
        }
      ]
    },
    "kind": "user",
    "methods": {},
    "notice": "A router for any Uniswap V3 fork The pools are not trusted to deliver the correct amount of tokens, so the router verifies this. The pool addresses passed in as a parameter instead of being looked up from the factory. The caller may use `getPair` on the factory to calculate pool addresses.",
    "version": 1
  },
  "storageLayout": {
    "storage": [],
    "types": null
  }
}