{
  "address": "0x130B854Ea7B464f9c5A01D958CcAEA08C3c10fa5",
  "abi": [
    {
      "inputs": [],
      "name": "DeadlineExpired",
      "type": "error"
    },
    {
      "inputs": [],
      "name": "EthTransferFailed",
      "type": "error"
    },
    {
      "inputs": [
        {
          "internalType": "uint256",
          "name": "maxFeeBps",
          "type": "uint256"
        }
      ],
      "name": "FeeTooHigh",
      "type": "error"
    },
    {
      "inputs": [
        {
          "internalType": "uint256",
          "name": "maxFeeBps",
          "type": "uint256"
        }
      ],
      "name": "FeeTooHigh",
      "type": "error"
    },
    {
      "inputs": [],
      "name": "IncorrectEthValue",
      "type": "error"
    },
    {
      "inputs": [],
      "name": "InsufficientOutputAmount",
      "type": "error"
    },
    {
      "anonymous": false,
      "inputs": [
        {
          "indexed": true,
          "internalType": "address",
          "name": "partner",
          "type": "address"
        },
        {
          "indexed": true,
          "internalType": "address",
          "name": "token",
          "type": "address"
        },
        {
          "indexed": false,
          "internalType": "uint256",
          "name": "partnerFee",
          "type": "uint256"
        },
        {
          "indexed": false,
          "internalType": "uint256",
          "name": "protocolFee",
          "type": "uint256"
        }
      ],
      "name": "Fee",
      "type": "event"
    },
    {
      "anonymous": false,
      "inputs": [
        {
          "indexed": true,
          "internalType": "address",
          "name": "partner",
          "type": "address"
        },
        {
          "indexed": true,
          "internalType": "address",
          "name": "tokenIn",
          "type": "address"
        },
        {
          "indexed": true,
          "internalType": "address",
          "name": "tokenOut",
          "type": "address"
        },
        {
          "indexed": false,
          "internalType": "uint256",
          "name": "amountIn",
          "type": "uint256"
        },
        {
          "indexed": false,
          "internalType": "uint256",
          "name": "amountOut",
          "type": "uint256"
        }
      ],
      "name": "Warp",
      "type": "event"
    },
    {
      "inputs": [
        {
          "components": [
            {
              "internalType": "uint256",
              "name": "amountIn",
              "type": "uint256"
            },
            {
              "internalType": "uint256",
              "name": "amountOut",
              "type": "uint256"
            },
            {
              "internalType": "uint16[]",
              "name": "poolFeesBps",
              "type": "uint16[]"
            },
            {
              "internalType": "address",
              "name": "recipient",
              "type": "address"
            },
            {
              "internalType": "uint16",
              "name": "slippageBps",
              "type": "uint16"
            },
            {
              "internalType": "uint16",
              "name": "feeBps",
              "type": "uint16"
            },
            {
              "internalType": "uint48",
              "name": "deadline",
              "type": "uint48"
            },
            {
              "internalType": "address",
              "name": "partner",
              "type": "address"
            },
            {
              "internalType": "address[]",
              "name": "tokens",
              "type": "address[]"
            },
            {
              "internalType": "address[]",
              "name": "pools",
              "type": "address[]"
            }
          ],
          "internalType": "struct IUniV2Like.ExactInputParams",
          "name": "params",
          "type": "tuple"
        }
      ],
      "name": "uniswapV2LikeExactInput",
      "outputs": [
        {
          "internalType": "uint256",
          "name": "amountOut",
          "type": "uint256"
        }
      ],
      "stateMutability": "payable",
      "type": "function"
    },
    {
      "inputs": [
        {
          "components": [
            {
              "internalType": "uint256",
              "name": "amountIn",
              "type": "uint256"
            },
            {
              "internalType": "uint256",
              "name": "amountOut",
              "type": "uint256"
            },
            {
              "internalType": "uint16[]",
              "name": "poolFeesBps",
              "type": "uint16[]"
            },
            {
              "internalType": "address",
              "name": "recipient",
              "type": "address"
            },
            {
              "internalType": "uint16",
              "name": "slippageBps",
              "type": "uint16"
            },
            {
              "internalType": "uint16",
              "name": "feeBps",
              "type": "uint16"
            },
            {
              "internalType": "uint48",
              "name": "deadline",
              "type": "uint48"
            },
            {
              "internalType": "address",
              "name": "partner",
              "type": "address"
            },
            {
              "internalType": "address[]",
              "name": "tokens",
              "type": "address[]"
            },
            {
              "internalType": "address[]",
              "name": "pools",
              "type": "address[]"
            }
          ],
          "internalType": "struct IUniV2Like.ExactInputParams",
          "name": "params",
          "type": "tuple"
        },
        {
          "components": [
            {
              "internalType": "uint256",
              "name": "nonce",
              "type": "uint256"
            },
            {
              "internalType": "bytes",
              "name": "signature",
              "type": "bytes"
            }
          ],
          "internalType": "struct PermitParams",
          "name": "permit",
          "type": "tuple"
        }
      ],
      "name": "uniswapV2LikeExactInputPermit",
      "outputs": [
        {
          "internalType": "uint256",
          "name": "amountOut",
          "type": "uint256"
        }
      ],
      "stateMutability": "nonpayable",
      "type": "function"
    },
    {
      "inputs": [
        {
          "components": [
            {
              "internalType": "uint256",
              "name": "amountIn",
              "type": "uint256"
            },
            {
              "internalType": "uint256",
              "name": "amountOut",
              "type": "uint256"
            },
            {
              "internalType": "address",
              "name": "recipient",
              "type": "address"
            },
            {
              "internalType": "address",
              "name": "pool",
              "type": "address"
            },
            {
              "internalType": "uint16",
              "name": "feeBps",
              "type": "uint16"
            },
            {
              "internalType": "uint16",
              "name": "slippageBps",
              "type": "uint16"
            },
            {
              "internalType": "address",
              "name": "partner",
              "type": "address"
            },
            {
              "internalType": "address",
              "name": "tokenIn",
              "type": "address"
            },
            {
              "internalType": "address",
              "name": "tokenOut",
              "type": "address"
            },
            {
              "internalType": "uint16",
              "name": "poolFeeBps",
              "type": "uint16"
            },
            {
              "internalType": "uint48",
              "name": "deadline",
              "type": "uint48"
            }
          ],
          "internalType": "struct IUniV2Like.ExactInputSingleParams",
          "name": "params",
          "type": "tuple"
        }
      ],
      "name": "uniswapV2LikeExactInputSingle",
      "outputs": [
        {
          "internalType": "uint256",
          "name": "amountOut",
          "type": "uint256"
        }
      ],
      "stateMutability": "payable",
      "type": "function"
    },
    {
      "inputs": [
        {
          "components": [
            {
              "internalType": "uint256",
              "name": "amountIn",
              "type": "uint256"
            },
            {
              "internalType": "uint256",
              "name": "amountOut",
              "type": "uint256"
            },
            {
              "internalType": "address",
              "name": "recipient",
              "type": "address"
            },
            {
              "internalType": "address",
              "name": "pool",
              "type": "address"
            },
            {
              "internalType": "uint16",
              "name": "feeBps",
              "type": "uint16"
            },
            {
              "internalType": "uint16",
              "name": "slippageBps",
              "type": "uint16"
            },
            {
              "internalType": "address",
              "name": "partner",
              "type": "address"
            },
            {
              "internalType": "address",
              "name": "tokenIn",
              "type": "address"
            },
            {
              "internalType": "address",
              "name": "tokenOut",
              "type": "address"
            },
            {
              "internalType": "uint16",
              "name": "poolFeeBps",
              "type": "uint16"
            },
            {
              "internalType": "uint48",
              "name": "deadline",
              "type": "uint48"
            }
          ],
          "internalType": "struct IUniV2Like.ExactInputSingleParams",
          "name": "params",
          "type": "tuple"
        },
        {
          "components": [
            {
              "internalType": "uint256",
              "name": "nonce",
              "type": "uint256"
            },
            {
              "internalType": "bytes",
              "name": "signature",
              "type": "bytes"
            }
          ],
          "internalType": "struct PermitParams",
          "name": "permit",
          "type": "tuple"
        }
      ],
      "name": "uniswapV2LikeExactInputSinglePermit",
      "outputs": [
        {
          "internalType": "uint256",
          "name": "amountOut",
          "type": "uint256"
        }
      ],
      "stateMutability": "nonpayable",
      "type": "function"
    }
  ],
  "transactionHash": "0xb4e5e135000eaddbc0c63d36dedfe28e3b8a21db5254ce94b60afa995f376dc5",
  "args": [],
  "numDeployments": 12,
  "solcInputHash": "109792ad932d81938f372f5fdbf353a0",
  "bytecode": "0x608060405234801561001057600080fd5b506128f3806100206000396000f3fe60806040526004361061003f5760003560e01c806311f1fdef14610044578063baa8ed3514610076578063c83ee48414610089578063d1b72bc41461009c575b600080fd5b34801561005057600080fd5b5061006461005f3660046121c1565b6100bc565b60405190815260200160405180910390f35b610064610084366004612212565b610319565b610064610097366004612242565b61052d565b3480156100a857600080fd5b506100646100b7366004612277565b610766565b7f1c1cf3c8827d48db80e17913589584c81d7f8da7f2100c9a87a7bf64829a0e11546040805160e080820190925260009273ffffffffffffffffffffffffffffffffffffffff1691632b67b570913391819060608201908190610126906101008c01908c016122fa565b73ffffffffffffffffffffffffffffffffffffffff90811682528a3516602082015260400161015d6101608b016101408c0161232b565b65ffffffffffff9081168252893516602091820152908252309082015260400161018f61016089016101408a0161232b565b65ffffffffffff1690526101a66020870187612346565b6040518563ffffffff1660e01b81526004016101c594939291906123b2565b600060405180830381600087803b1580156101df57600080fd5b505af11580156101f3573d6000803e3d6000fd5b5050505061021e7f1c1cf3c8827d48db80e17913589584c81d7f8da7f2100c9a87a7bf64829a0e1090565b6001015473ffffffffffffffffffffffffffffffffffffffff166336c785163361024e60808701606088016122fa565b8635610261610100890160e08a016122fa565b60405160e086901b7fffffffff0000000000000000000000000000000000000000000000000000000016815273ffffffffffffffffffffffffffffffffffffffff9485166004820152928416602484015290831660448301529091166064820152608401600060405180830381600087803b1580156102df57600080fd5b505af11580156102f3573d6000803e3d6000fd5b505050506103108380360381019061030b9190612506565b610a0c565b90505b92915050565b600061032d6101608301610140840161232b565b65ffffffffffff1642111561036e576040517f1ab7da6b00000000000000000000000000000000000000000000000000000000815260040160405180910390fd5b6000610381610100840160e085016122fa565b73ffffffffffffffffffffffffffffffffffffffff16036104d657348235146103d6576040517fab0a033b00000000000000000000000000000000000000000000000000000000815260040160405180910390fd5b7f1c1cf3c8827d48db80e17913589584c81d7f8da7f2100c9a87a7bf64829a0e1054604080517fd0e30db0000000000000000000000000000000000000000000000000000000008152905173ffffffffffffffffffffffffffffffffffffffff9092169163d0e30db0913491600480830192600092919082900301818588803b15801561046257600080fd5b505af1158015610476573d6000803e3d6000fd5b50505050506104d182606001602081019061049191906122fa565b7f1c1cf3c8827d48db80e17913589584c81d7f8da7f2100c9a87a7bf64829a0e105473ffffffffffffffffffffffffffffffffffffffff16908435611083565b61051b565b61051b336104ea60808501606086016122fa565b84356104fd610100870160e088016122fa565b73ffffffffffffffffffffffffffffffffffffffff1692919061115c565b61031361030b36849003840184612506565b600061053f60e0830160c0840161232b565b65ffffffffffff16421115610580576040517f1ab7da6b00000000000000000000000000000000000000000000000000000000815260040160405180910390fd5b60006105906101008401846125d2565b60008181106105a1576105a161263a565b90506020020160208101906105b691906122fa565b73ffffffffffffffffffffffffffffffffffffffff16036106ef573482351461060b576040517fab0a033b00000000000000000000000000000000000000000000000000000000815260040160405180910390fd5b7f1c1cf3c8827d48db80e17913589584c81d7f8da7f2100c9a87a7bf64829a0e1054604080517fd0e30db0000000000000000000000000000000000000000000000000000000008152905173ffffffffffffffffffffffffffffffffffffffff9092169163d0e30db0913491600480830192600092919082900301818588803b15801561069757600080fd5b505af11580156106ab573d6000803e3d6000fd5b50505050506106ea828061012001906106c491906125d2565b60008181106106d5576106d561263a565b905060200201602081019061049191906122fa565b61075d565b61075d336107016101208501856125d2565b60008181106107125761071261263a565b905060200201602081019061072791906122fa565b84356107376101008701876125d2565b60008181106107485761074861263a565b90506020020160208101906104fd91906122fa565b610313826111c0565b7f1c1cf3c8827d48db80e17913589584c81d7f8da7f2100c9a87a7bf64829a0e11546040805160e0810190915260009173ffffffffffffffffffffffffffffffffffffffff1690632b67b5709033908060608101806107c96101008b018b6125d2565b60008181106107da576107da61263a565b90506020020160208101906107ef91906122fa565b73ffffffffffffffffffffffffffffffffffffffff90811682528a3516602082015260400161082460e08b0160c08c0161232b565b65ffffffffffff9081168252893516602091820152908252309082015260400161085460e0890160c08a0161232b565b65ffffffffffff16905261086b6020870187612346565b6040518563ffffffff1660e01b815260040161088a94939291906123b2565b600060405180830381600087803b1580156108a457600080fd5b505af11580156108b8573d6000803e3d6000fd5b505050506108e37f1c1cf3c8827d48db80e17913589584c81d7f8da7f2100c9a87a7bf64829a0e1090565b6001015473ffffffffffffffffffffffffffffffffffffffff166336c78516336109116101208701876125d2565b60008181106109225761092261263a565b905060200201602081019061093791906122fa565b86356109476101008901896125d2565b60008181106109585761095861263a565b905060200201602081019061096d91906122fa565b60405160e086901b7fffffffff0000000000000000000000000000000000000000000000000000000016815273ffffffffffffffffffffffffffffffffffffffff9485166004820152928416602484015290831660448301529091166064820152608401600060405180830381600087803b1580156109eb57600080fd5b505af11580156109ff573d6000803e3d6000fd5b50505050610310836111c0565b60e08101516101008201516000917f1c1cf3c8827d48db80e17913589584c81d7f8da7f2100c9a87a7bf64829a0e109173ffffffffffffffffffffffffffffffffffffffff918216159116158115610a7c57825473ffffffffffffffffffffffffffffffffffffffff1660e08601525b8015610aa157825473ffffffffffffffffffffffffffffffffffffffff166101008601525b6101008501516040517f70a0823100000000000000000000000000000000000000000000000000000000815230600482015260009173ffffffffffffffffffffffffffffffffffffffff16906370a0823190602401602060405180830381865afa158015610b13573d6000803e3d6000fd5b505050506040513d601f19601f82011682018060405250810190610b379190612669565b9050600080876060015173ffffffffffffffffffffffffffffffffffffffff16630902f1ac6040518163ffffffff1660e01b8152600401606060405180830381865afa158015610b8b573d6000803e3d6000fd5b505050506040513d601f19601f82011682018060405250810190610baf91906126a0565b506dffffffffffffffffffffffffffff1691506dffffffffffffffffffffffffffff16915087610100015173ffffffffffffffffffffffffffffffffffffffff168860e0015173ffffffffffffffffffffffffffffffffffffffff161115610c1357905b610120880151885161ffff6127109283031691840290820290810190830281610c3e57610c3e6126f0565b04975050600088610100015173ffffffffffffffffffffffffffffffffffffffff168960e0015173ffffffffffffffffffffffffffffffffffffffff1610610c87576000610c8a565b60015b9050886060015173ffffffffffffffffffffffffffffffffffffffff1663022c0d9f82610cb75789610cba565b60005b83610cc6576000610cc8565b8a5b6040517fffffffff0000000000000000000000000000000000000000000000000000000060e085901b16815260048101929092526024820152306044820152608060648201526000608482015260a401600060405180830381600087803b158015610d3257600080fd5b505af1158015610d46573d6000803e3d6000fd5b505050506101008901516040517f70a08231000000000000000000000000000000000000000000000000000000008152306004820152859173ffffffffffffffffffffffffffffffffffffffff16906370a0823190602401602060405180830381865afa158015610dbb573d6000803e3d6000fd5b505050506040513d601f19601f82011682018060405250810190610ddf9190612669565b610de9919061274e565b9750871580610e085750610e0589602001518a60a00151611a9b565b88105b15610e3f576040517f42301c2300000000000000000000000000000000000000000000000000000000815260040160405180910390fd5b84610e4f57886101000151610e52565b60005b73ffffffffffffffffffffffffffffffffffffffff1686610e77578960e00151610e7a565b60005b73ffffffffffffffffffffffffffffffffffffffff168a60c0015173ffffffffffffffffffffffffffffffffffffffff167f1d81b4318b379c644b5546ae9cf37d861a5c7547bf3dae6cfaecffa12f8748f38c600001518c604051610ee9929190918252602082015260400190565b60405180910390a4610f138960c001518a61010001518b6080015161ffff168c602001518c611ac2565b975084156110435786546040517f2e1a7d4d000000000000000000000000000000000000000000000000000000008152600481018a905273ffffffffffffffffffffffffffffffffffffffff90911690632e1a7d4d90602401600060405180830381600087803b158015610f8657600080fd5b505af1158015610f9a573d6000803e3d6000fd5b505050506000896040015173ffffffffffffffffffffffffffffffffffffffff16896040515b60006040518083038185875af1925050503d8060008114610ffd576040519150601f19603f3d011682016040523d82523d6000602084013e611002565b606091505b505090508061103d576040517f6d963f8800000000000000000000000000000000000000000000000000000000815260040160405180910390fd5b50611077565b6110778960400151898b610100015173ffffffffffffffffffffffffffffffffffffffff166110839092919063ffffffff16565b50505050505050919050565b60405173ffffffffffffffffffffffffffffffffffffffff83166024820152604481018290526111579084907fa9059cbb00000000000000000000000000000000000000000000000000000000906064015b604080517fffffffffffffffffffffffffffffffffffffffffffffffffffffffffffffffe08184030181529190526020810180517bffffffffffffffffffffffffffffffffffffffffffffffffffffffff167fffffffff0000000000000000000000000000000000000000000000000000000090931692909217909152611b7b565b505050565b60405173ffffffffffffffffffffffffffffffffffffffff808516602483015283166044820152606481018290526111ba9085907f23b872dd00000000000000000000000000000000000000000000000000000000906084016110d5565b50505050565b60007f1c1cf3c8827d48db80e17913589584c81d7f8da7f2100c9a87a7bf64829a0e10816111f26101008501856125d2565b808060200260200160405190810160405280939291908181526020018383602002808284376000920182905250939450611234925050506101208601866125d2565b9050905060008073ffffffffffffffffffffffffffffffffffffffff16836000815181106112645761126461263a565b602002602001015173ffffffffffffffffffffffffffffffffffffffff1614905060008073ffffffffffffffffffffffffffffffffffffffff168484815181106112b0576112b061263a565b602002602001015173ffffffffffffffffffffffffffffffffffffffff161490508115611340578454845173ffffffffffffffffffffffffffffffffffffffff9091169085906000906113055761130561263a565b602002602001019073ffffffffffffffffffffffffffffffffffffffff16908173ffffffffffffffffffffffffffffffffffffffff16815250505b80156113b0578454845173ffffffffffffffffffffffffffffffffffffffff909116908590859081106113755761137561263a565b602002602001019073ffffffffffffffffffffffffffffffffffffffff16908173ffffffffffffffffffffffffffffffffffffffff16815250505b60008484815181106113c4576113c461263a565b60209081029190910101516040517f70a0823100000000000000000000000000000000000000000000000000000000815230600482015273ffffffffffffffffffffffffffffffffffffffff909116906370a0823190602401602060405180830381865afa15801561143a573d6000803e3d6000fd5b505050506040513d601f19601f8201168201806040525081019061145e9190612669565b905060006114ed61147260408b018b6125d2565b80806020026020016040519081016040528093929190818152602001838360200280828437600092019190915250508c3591508990506114b66101208e018e6125d2565b80806020026020016040519081016040528093929190818152602001838360200280828437600092019190915250611c8a92505050565b905060005b85811015611710576000611507826001612761565b9050600088828151811061151d5761151d61263a565b602002602001015173ffffffffffffffffffffffffffffffffffffffff1689848151811061154d5761154d61263a565b602002602001015173ffffffffffffffffffffffffffffffffffffffff161061157757600061157a565b60015b9050600060028a5161158c919061274e565b841061159857306115cb565b6115a66101208e018e6125d2565b848181106115b6576115b661263a565b90506020020160208101906115cb91906122fa565b90506115db6101208e018e6125d2565b858181106115eb576115eb61263a565b905060200201602081019061160091906122fa565b73ffffffffffffffffffffffffffffffffffffffff1663022c0d9f8361163f578685815181106116325761163261263a565b6020026020010151611642565b60005b8461164e576000611669565b8786815181106116605761166061263a565b60200260200101515b6040517fffffffff0000000000000000000000000000000000000000000000000000000060e085901b1681526004810192909252602482015273ffffffffffffffffffffffffffffffffffffffff84166044820152608060648201526000608482015260a401600060405180830381600087803b1580156116e957600080fd5b505af11580156116fd573d6000803e3d6000fd5b5050600190950194506114f29350505050565b50818686815181106117245761172461263a565b60209081029190910101516040517f70a0823100000000000000000000000000000000000000000000000000000000815230600482015273ffffffffffffffffffffffffffffffffffffffff909116906370a0823190602401602060405180830381865afa15801561179a573d6000803e3d6000fd5b505050506040513d601f19601f820116820180604052508101906117be9190612669565b6117c8919061274e565b97508715806117f257506117ef60208a01356117ea60a08c0160808d01612774565b611a9b565b88105b15611829576040517f42301c2300000000000000000000000000000000000000000000000000000000815260040160405180910390fd5b6118376101008a018a6125d2565b868181106118475761184761263a565b905060200201602081019061185c91906122fa565b73ffffffffffffffffffffffffffffffffffffffff166118806101008b018b6125d2565b60008181106118915761189161263a565b90506020020160208101906118a691906122fa565b73ffffffffffffffffffffffffffffffffffffffff166118cd6101008c0160e08d016122fa565b604080518d358152602081018d905273ffffffffffffffffffffffffffffffffffffffff92909216917f1d81b4318b379c644b5546ae9cf37d861a5c7547bf3dae6cfaecffa12f8748f3910160405180910390a461198a6119356101008b0160e08c016122fa565b8787815181106119475761194761263a565b60200260200101518b60a00160208101906119629190612774565b61ffff168c60200135858a8151811061197d5761197d61263a565b6020026020010151611ac2565b97508215611a485786546040517f2e1a7d4d000000000000000000000000000000000000000000000000000000008152600481018a905273ffffffffffffffffffffffffffffffffffffffff90911690632e1a7d4d90602401600060405180830381600087803b1580156119fd57600080fd5b505af1158015611a11573d6000803e3d6000fd5b5060009250611a2991505060808b0160608c016122fa565b73ffffffffffffffffffffffffffffffffffffffff1689604051610fc0565b611077611a5b60808b0160608c016122fa565b89888881518110611a6e57611a6e61263a565b602002602001015173ffffffffffffffffffffffffffffffffffffffff166110839092919063ffffffff16565b6000612710611aaa838261278f565b611ab89061ffff16856127b1565b61031091906127c8565b60006107d0841115611b09576040517f7b9314200000000000000000000000000000000000000000000000000000000081526107d060048201526024015b60405180910390fd5b60008284811115611b1b575050828203835b612710818702049190910190600073ffffffffffffffffffffffffffffffffffffffff891615611b515760646032840204611b54565b60005b9050808303838214611b6c57611b6c8a8a8484611ebf565b50505090910395945050505050565b6000611bdd826040518060400160405280602081526020017f5361666545524332303a206c6f772d6c6576656c2063616c6c206661696c65648152508573ffffffffffffffffffffffffffffffffffffffff16611f879092919063ffffffff16565b9050805160001480611bfe575080806020019051810190611bfe9190612803565b611157576040517f08c379a000000000000000000000000000000000000000000000000000000000815260206004820152602a60248201527f5361666545524332303a204552433230206f7065726174696f6e20646964206e60448201527f6f742073756363656564000000000000000000000000000000000000000000006064820152608401611b00565b805182516060919067ffffffffffffffff811115611caa57611caa612474565b604051908082528060200260200182016040528015611cd3578160200160208202803683370190505b5091508482600081518110611cea57611cea61263a565b60200260200101818152505060005b81811015611eb5576000858281518110611d1557611d1561263a565b60200260200101519050600086836001611d2f9190612761565b81518110611d3f57611d3f61263a565b602002602001015190506000898481518110611d5d57611d5d61263a565b6020026020010151612710611d72919061278f565b61ffff169050600080888681518110611d8d57611d8d61263a565b602002602001015173ffffffffffffffffffffffffffffffffffffffff16630902f1ac6040518163ffffffff1660e01b8152600401606060405180830381865afa158015611ddf573d6000803e3d6000fd5b505050506040513d601f19601f82011682018060405250810190611e0391906126a0565b506dffffffffffffffffffffffffffff1691506dffffffffffffffffffffffffffff1691508373ffffffffffffffffffffffffffffffffffffffff168573ffffffffffffffffffffffffffffffffffffffff161115611e5e57905b828b0282612710020181848d020281611e7957611e796126f0565b049a508a88611e89886001612761565b81518110611e9957611e9961263a565b6020908102919091010152505060019093019250611cf9915050565b5050949350505050565b73ffffffffffffffffffffffffffffffffffffffff84811660008181527f77fbd1c38a5ead50a5764a860fef6b91e5432a95f91228e67197edaf911cfc90602081815260408084209589168085529582528084208054890190557f77fbd1c38a5ead50a5764a860fef6b91e5432a95f91228e67197edaf911cfc9182529283902080548801905582518781529081018690528251919493927f3d2a5b5aa3c9e4a41eed8ae2e9e470c5cfb96fa51eb0935c607c0fd8ec3f3f5792918290030190a35050505050565b6060611f968484600085611f9e565b949350505050565b606082471015612030576040517f08c379a000000000000000000000000000000000000000000000000000000000815260206004820152602660248201527f416464726573733a20696e73756666696369656e742062616c616e636520666f60448201527f722063616c6c00000000000000000000000000000000000000000000000000006064820152608401611b00565b6000808673ffffffffffffffffffffffffffffffffffffffff1685876040516120599190612850565b60006040518083038185875af1925050503d8060008114612096576040519150601f19603f3d011682016040523d82523d6000602084013e61209b565b606091505b50915091506120ac878383876120b7565b979650505050505050565b6060831561214d5782516000036121465773ffffffffffffffffffffffffffffffffffffffff85163b612146576040517f08c379a000000000000000000000000000000000000000000000000000000000815260206004820152601d60248201527f416464726573733a2063616c6c20746f206e6f6e2d636f6e74726163740000006044820152606401611b00565b5081611f96565b611f9683838151156121625781518083602001fd5b806040517f08c379a0000000000000000000000000000000000000000000000000000000008152600401611b00919061286c565b600061016082840312156121a957600080fd5b50919050565b6000604082840312156121a957600080fd5b60008061018083850312156121d557600080fd5b6121df8484612196565b915061016083013567ffffffffffffffff8111156121fc57600080fd5b612208858286016121af565b9150509250929050565b6000610160828403121561222557600080fd5b6103108383612196565b600061014082840312156121a957600080fd5b60006020828403121561225457600080fd5b813567ffffffffffffffff81111561226b57600080fd5b611f968482850161222f565b6000806040838503121561228a57600080fd5b823567ffffffffffffffff808211156122a257600080fd5b6122ae8683870161222f565b935060208501359150808211156122c457600080fd5b50612208858286016121af565b803573ffffffffffffffffffffffffffffffffffffffff811681146122f557600080fd5b919050565b60006020828403121561230c57600080fd5b610310826122d1565b803565ffffffffffff811681146122f557600080fd5b60006020828403121561233d57600080fd5b61031082612315565b60008083357fffffffffffffffffffffffffffffffffffffffffffffffffffffffffffffffe184360301811261237b57600080fd5b83018035915067ffffffffffffffff82111561239657600080fd5b6020019150368190038213156123ab57600080fd5b9250929050565b600061010073ffffffffffffffffffffffffffffffffffffffff80881684528651818151166020860152816020820151166040860152604081015165ffffffffffff80821660608801528060608401511660808801525050508060208801511660a085015250604086015160c08401528060e08401528381840152506101208385828501376000838501820152601f9093017fffffffffffffffffffffffffffffffffffffffffffffffffffffffffffffffe016909101909101949350505050565b7f4e487b7100000000000000000000000000000000000000000000000000000000600052604160045260246000fd5b604051610160810167ffffffffffffffff811182821017156124ee577f4e487b7100000000000000000000000000000000000000000000000000000000600052604160045260246000fd5b60405290565b803561ffff811681146122f557600080fd5b6000610160828403121561251957600080fd5b6125216124a3565b823581526020830135602082015261253b604084016122d1565b604082015261254c606084016122d1565b606082015261255d608084016124f4565b608082015261256e60a084016124f4565b60a082015261257f60c084016122d1565b60c082015261259060e084016122d1565b60e08201526101006125a38185016122d1565b908201526101206125b58482016124f4565b908201526101406125c7848201612315565b908201529392505050565b60008083357fffffffffffffffffffffffffffffffffffffffffffffffffffffffffffffffe184360301811261260757600080fd5b83018035915067ffffffffffffffff82111561262257600080fd5b6020019150600581901b36038213156123ab57600080fd5b7f4e487b7100000000000000000000000000000000000000000000000000000000600052603260045260246000fd5b60006020828403121561267b57600080fd5b5051919050565b80516dffffffffffffffffffffffffffff811681146122f557600080fd5b6000806000606084860312156126b557600080fd5b6126be84612682565b92506126cc60208501612682565b9150604084015163ffffffff811681146126e557600080fd5b809150509250925092565b7f4e487b7100000000000000000000000000000000000000000000000000000000600052601260045260246000fd5b7f4e487b7100000000000000000000000000000000000000000000000000000000600052601160045260246000fd5b818103818111156103135761031361271f565b808201808211156103135761031361271f565b60006020828403121561278657600080fd5b610310826124f4565b61ffff8281168282160390808211156127aa576127aa61271f565b5092915050565b80820281158282048414176103135761031361271f565b6000826127fe577f4e487b7100000000000000000000000000000000000000000000000000000000600052601260045260246000fd5b500490565b60006020828403121561281557600080fd5b8151801515811461282557600080fd5b9392505050565b60005b8381101561284757818101518382015260200161282f565b50506000910152565b6000825161286281846020870161282c565b9190910192915050565b602081526000825180602084015261288b81604085016020870161282c565b601f017fffffffffffffffffffffffffffffffffffffffffffffffffffffffffffffffe016919091016040019291505056fea2646970667358221220ee3ecd0478ba1cb81bb0ae6d35620661efb73e4e5fe53fc7d3d675b9bc4234ab64736f6c63430008130033",
  "devdoc": {
    "kind": "dev",
    "methods": {},
    "version": 1
  },
  "userdoc": {
    "errors": {
      "FeeTooHigh(uint256)": [
        {
          "notice": "The swap fee is over the maximum allowed"
        },
        {
          "notice": "The swap fee is over the maximum allowed"
        }
      ]
    },
    "kind": "user",
    "methods": {},
    "notice": "A router for any Uniswap V2 fork The pools are not trusted to deliver the correct amount of tokens, so the router verifies this. The pool addresses passed in as a parameter instead of being looked up from the factory. The caller may use `getPair` on the factory to calculate pool addresses. Fees may vary from Uniswap V2's 0.3% (30 bps) and are passed in as `poolFeeBps`. Inspired by https://github.com/sushiswap/sushiswap/blob/master/protocols/route-processor/contracts/RouteProcessor4.sol#L323",
    "version": 1
  },
  "storageLayout": {
    "storage": [],
    "types": null
  }
}