{
  "address": "0x56247BeF1Af8E1F78Dab98a929745908ACAEDc45",
  "abi": [
    {
      "inputs": [
        {
          "internalType": "address",
          "name": "weth",
          "type": "address"
        }
      ],
      "name": "init",
      "outputs": [],
      "stateMutability": "nonpayable",
      "type": "function"
    }
  ],
  "transactionHash": "0xb50f0c9864d26dfa0191f96e339229d6cfaf617e8cf6adea56b9f1db382ec3d7",
  "args": [],
  "numDeployments": 1,
  "solcInputHash": "0543f1b9a307b6e645ab4a866306bf25",
  "bytecode": "0x608060405234801561001057600080fd5b50610111806100206000396000f3fe6080604052348015600f57600080fd5b506004361060285760003560e01c806319ab453c14602d575b600080fd5b609e603836600460a0565b7f1c1cf3c8827d48db80e17913589584c81d7f8da7f2100c9a87a7bf64829a0e1080547fffffffffffffffffffffffff00000000000000000000000000000000000000001673ffffffffffffffffffffffffffffffffffffffff92909216919091179055565b005b60006020828403121560b157600080fd5b813573ffffffffffffffffffffffffffffffffffffffff8116811460d457600080fd5b939250505056fea26469706673582212205c63274821f0f7513b2be7571bba4638c3a83468cc33cfadaf02a2d498951d0564736f6c63430008130033",
  "devdoc": {
    "kind": "dev",
    "methods": {},
    "version": 1
  },
  "userdoc": {
    "kind": "user",
    "methods": {},
    "version": 1
  },
  "storageLayout": {
    "storage": [],
    "types": null
  }
}