{
  "address": "0x5d2B42611B1765a2E2FA54545ce3e07ED6495eD1",
  "abi": [
    {
      "inputs": [],
      "name": "DeadlineExpired",
      "type": "error"
    },
    {
      "inputs": [],
      "name": "EthTransferFailed",
      "type": "error"
    },
    {
      "inputs": [
        {
          "internalType": "uint256",
          "name": "maxFeeBps",
          "type": "uint256"
        }
      ],
      "name": "FeeTooHigh",
      "type": "error"
    },
    {
      "inputs": [],
      "name": "IncorrectEthValue",
      "type": "error"
    },
    {
      "inputs": [],
      "name": "InsufficienTokensDelivered",
      "type": "error"
    },
    {
      "inputs": [],
      "name": "InsufficientOutputAmount",
      "type": "error"
    },
    {
      "inputs": [
        {
          "components": [
            {
              "internalType": "uint256",
              "name": "amountIn",
              "type": "uint256"
            },
            {
              "internalType": "uint256",
              "name": "amountOut",
              "type": "uint256"
            },
            {
              "internalType": "uint16[]",
              "name": "poolFeesBps",
              "type": "uint16[]"
            },
            {
              "internalType": "address",
              "name": "recipient",
              "type": "address"
            },
            {
              "internalType": "uint16",
              "name": "slippageBps",
              "type": "uint16"
            },
            {
              "internalType": "uint16",
              "name": "feeBps",
              "type": "uint16"
            },
            {
              "internalType": "uint48",
              "name": "deadline",
              "type": "uint48"
            },
            {
              "internalType": "address",
              "name": "partner",
              "type": "address"
            },
            {
              "internalType": "address[]",
              "name": "tokens",
              "type": "address[]"
            },
            {
              "internalType": "address[]",
              "name": "pools",
              "type": "address[]"
            }
          ],
          "internalType": "struct IUniV2Like.ExactInputParams",
          "name": "params",
          "type": "tuple"
        },
        {
          "components": [
            {
              "internalType": "uint256",
              "name": "nonce",
              "type": "uint256"
            },
            {
              "internalType": "bytes",
              "name": "signature",
              "type": "bytes"
            }
          ],
          "internalType": "struct PermitParams",
          "name": "permit",
          "type": "tuple"
        }
      ],
      "name": "uniswapV2LikeExactInput",
      "outputs": [
        {
          "internalType": "uint256",
          "name": "amountOut",
          "type": "uint256"
        }
      ],
      "stateMutability": "payable",
      "type": "function"
    },
    {
      "inputs": [
        {
          "components": [
            {
              "internalType": "uint256",
              "name": "amountIn",
              "type": "uint256"
            },
            {
              "internalType": "uint256",
              "name": "amountOut",
              "type": "uint256"
            },
            {
              "internalType": "address",
              "name": "recipient",
              "type": "address"
            },
            {
              "internalType": "address",
              "name": "pool",
              "type": "address"
            },
            {
              "internalType": "uint16",
              "name": "feeBps",
              "type": "uint16"
            },
            {
              "internalType": "uint16",
              "name": "slippageBps",
              "type": "uint16"
            },
            {
              "internalType": "address",
              "name": "partner",
              "type": "address"
            },
            {
              "internalType": "address",
              "name": "tokenIn",
              "type": "address"
            },
            {
              "internalType": "address",
              "name": "tokenOut",
              "type": "address"
            },
            {
              "internalType": "uint16",
              "name": "poolFeeBps",
              "type": "uint16"
            },
            {
              "internalType": "uint48",
              "name": "deadline",
              "type": "uint48"
            }
          ],
          "internalType": "struct IUniV2Like.ExactInputSingleParams",
          "name": "params",
          "type": "tuple"
        },
        {
          "components": [
            {
              "internalType": "uint256",
              "name": "nonce",
              "type": "uint256"
            },
            {
              "internalType": "bytes",
              "name": "signature",
              "type": "bytes"
            }
          ],
          "internalType": "struct PermitParams",
          "name": "permit",
          "type": "tuple"
        }
      ],
      "name": "uniswapV2LikeExactInputSingle",
      "outputs": [
        {
          "internalType": "uint256",
          "name": "amountOut",
          "type": "uint256"
        }
      ],
      "stateMutability": "payable",
      "type": "function"
    }
  ],
  "transactionHash": "0x485f84e83b9254eafbaabad5709a20b7d9c39609447559ccf84bad22c2c955af",
  "args": [],
  "numDeployments": 6,
  "solcInputHash": "ac666446ff1468fa2eb3919fc03c190e",
  "bytecode": "0x608060405234801561001057600080fd5b50612458806100206000396000f3fe6080604052600436106100295760003560e01c806383cf9ad51461002e578063a39a934214610053575b600080fd5b61004161003c366004611d4a565b610066565b60405190815260200160405180910390f35b610041610061366004611f4c565b610935565b600082610140015165ffffffffffff164211156100af576040517f1ab7da6b00000000000000000000000000000000000000000000000000000000815260040160405180910390fd5b60e08301516101008401517f1c1cf3c8827d48db80e17913589584c81d7f8da7f2100c9a87a7bf64829a0e109173ffffffffffffffffffffffffffffffffffffffff90811615911615600081610199576101008701516040517f70a0823100000000000000000000000000000000000000000000000000000000815230600482015273ffffffffffffffffffffffffffffffffffffffff909116906370a0823190602401602060405180830381865afa158015610170573d6000803e3d6000fd5b505050506040513d601f19601f82011682018060405250810190610194919061208c565b61019b565b475b905082156101c157835473ffffffffffffffffffffffffffffffffffffffff1660e08801525b81156101e657835473ffffffffffffffffffffffffffffffffffffffff166101008801525b600080886060015173ffffffffffffffffffffffffffffffffffffffff16630902f1ac6040518163ffffffff1660e01b8152600401606060405180830381865afa158015610238573d6000803e3d6000fd5b505050506040513d601f19601f8201168201806040525081019061025c91906120c3565b506dffffffffffffffffffffffffffff1691506dffffffffffffffffffffffffffff16915088610100015173ffffffffffffffffffffffffffffffffffffffff168960e0015173ffffffffffffffffffffffffffffffffffffffff1611156102c057905b610120890151895161ffff61271092830316918402908202908101908302816102eb576102eb612113565b0497505061030189602001518a60a001516113d1565b87101561033a576040517f42301c2300000000000000000000000000000000000000000000000000000000815260040160405180910390fd5b8415610430578851341461037a576040517fab0a033b00000000000000000000000000000000000000000000000000000000815260040160405180910390fd5b8554604080517fd0e30db0000000000000000000000000000000000000000000000000000000008152905173ffffffffffffffffffffffffffffffffffffffff9092169163d0e30db0913491600480830192600092919082900301818588803b1580156103e657600080fd5b505af11580156103fa573d6000803e3d6000fd5b50505060608b01518b5160e08d015161042b945073ffffffffffffffffffffffffffffffffffffffff169250611401565b6105b5565b60018601546040805160e080820183528c015173ffffffffffffffffffffffffffffffffffffffff908116606083019081528d51821660808401526101408e01805165ffffffffffff90811660a08601528e35811660c08601529184523060208086019190915290519091169383019390935290921691632b67b570913391906104bc908d018d612142565b6040518563ffffffff1660e01b81526004016104db94939291906121ae565b600060405180830381600087803b1580156104f557600080fd5b505af1158015610509573d6000803e3d6000fd5b50505050600186015460608a01518a5160e08c01516040517f36c7851600000000000000000000000000000000000000000000000000000000815233600482015273ffffffffffffffffffffffffffffffffffffffff93841660248201529183166044830152821660648201529116906336c7851690608401600060405180830381600087803b15801561059c57600080fd5b505af11580156105b0573d6000803e3d6000fd5b505050505b600089610100015173ffffffffffffffffffffffffffffffffffffffff168a60e0015173ffffffffffffffffffffffffffffffffffffffff16106105fa5760006105fd565b60015b9050896060015173ffffffffffffffffffffffffffffffffffffffff1663022c0d9f8261062a578961062d565b60005b8361063957600061063b565b8a5b6040517fffffffff0000000000000000000000000000000000000000000000000000000060e085901b16815260048101929092526024820152306044820152608060648201526000608482015260a401600060405180830381600087803b1580156106a557600080fd5b505af11580156106b9573d6000803e3d6000fd5b505050506101008a01516040517f70a0823100000000000000000000000000000000000000000000000000000000815230600482015260009173ffffffffffffffffffffffffffffffffffffffff16906370a0823190602401602060405180830381865afa15801561072f573d6000803e3d6000fd5b505050506040513d601f19601f82011682018060405250810190610753919061208c565b90508481108061076b5750610768898661229f565b81105b156107a2576040517f883d583b00000000000000000000000000000000000000000000000000000000815260040160405180910390fd5b6107c48b60c001518c61010001518d6080015161ffff168e602001518d611493565b985085156108f35787546040517f2e1a7d4d000000000000000000000000000000000000000000000000000000008152600481018b905273ffffffffffffffffffffffffffffffffffffffff90911690632e1a7d4d90602401600060405180830381600087803b15801561083757600080fd5b505af115801561084b573d6000803e3d6000fd5b5050505060008b6040015173ffffffffffffffffffffffffffffffffffffffff168a60405160006040518083038185875af1925050503d80600081146108ad576040519150601f19603f3d011682016040523d82523d6000602084013e6108b2565b606091505b50509050806108ed576040517f6d963f8800000000000000000000000000000000000000000000000000000000815260040160405180910390fd5b50610927565b6109278b604001518a8d610100015173ffffffffffffffffffffffffffffffffffffffff166114019092919063ffffffff16565b505050505050505092915050565b60008260c0015165ffffffffffff1642111561097d576040517f1ab7da6b00000000000000000000000000000000000000000000000000000000815260040160405180910390fd5b6101208301515161010084015180517f1c1cf3c8827d48db80e17913589584c81d7f8da7f2100c9a87a7bf64829a0e10929160009182919082906109c3576109c36122b2565b602002602001015173ffffffffffffffffffffffffffffffffffffffff1614905060008073ffffffffffffffffffffffffffffffffffffffff168761010001518481518110610a1457610a146122b2565b602002602001015173ffffffffffffffffffffffffffffffffffffffff16149050600081610af2578761010001518481518110610a5357610a536122b2565b60209081029190910101516040517f70a0823100000000000000000000000000000000000000000000000000000000815230600482015273ffffffffffffffffffffffffffffffffffffffff909116906370a0823190602401602060405180830381865afa158015610ac9573d6000803e3d6000fd5b505050506040513d601f19601f82011682018060405250810190610aed919061208c565b610af4565b475b90506000610b1689604001518a600001518b61010001518c610120015161154c565b9050610b2a89602001518a608001516113d1565b8160018351610b3991906122e1565b81518110610b4957610b496122b2565b60200260200101511015610b89576040517f42301c2300000000000000000000000000000000000000000000000000000000815260040160405180910390fd5b8315610cc05788513414610bc9576040517fab0a033b00000000000000000000000000000000000000000000000000000000815260040160405180910390fd5b8554604080517fd0e30db0000000000000000000000000000000000000000000000000000000008152905173ffffffffffffffffffffffffffffffffffffffff9092169163d0e30db0913491600480830192600092919082900301818588803b158015610c3557600080fd5b505af1158015610c49573d6000803e3d6000fd5b5050505050610cbb896101200151600081518110610c6957610c696122b2565b60200260200101518a600001518b6101000151600081518110610c8e57610c8e6122b2565b602002602001015173ffffffffffffffffffffffffffffffffffffffff166114019092919063ffffffff16565b610f15565b8560010160009054906101000a900473ffffffffffffffffffffffffffffffffffffffff1673ffffffffffffffffffffffffffffffffffffffff16632b67b57033604051806060016040528060405180608001604052808f6101000151600081518110610d2f57610d2f6122b2565b602002602001015173ffffffffffffffffffffffffffffffffffffffff1681526020018f6000015173ffffffffffffffffffffffffffffffffffffffff1681526020018f60c0015165ffffffffffff1681526020018e6000013565ffffffffffff1681525081526020013073ffffffffffffffffffffffffffffffffffffffff1681526020018d60c0015165ffffffffffff168152508b8060200190610dd59190612142565b6040518563ffffffff1660e01b8152600401610df494939291906121ae565b600060405180830381600087803b158015610e0e57600080fd5b505af1158015610e22573d6000803e3d6000fd5b5050505060018601546101208a0151805173ffffffffffffffffffffffffffffffffffffffff909216916336c78516913391600090610e6357610e636122b2565b60200260200101518c600001518d6101000151600081518110610e8857610e886122b2565b60200260200101516040518563ffffffff1660e01b8152600401610ee2949392919073ffffffffffffffffffffffffffffffffffffffff948516815292841660208401529083166040830152909116606082015260800190565b600060405180830381600087803b158015610efc57600080fd5b505af1158015610f10573d6000803e3d6000fd5b505050505b60005b8581101561111e576000610f2d82600161229f565b905060008b61010001518281518110610f4857610f486122b2565b602002602001015173ffffffffffffffffffffffffffffffffffffffff168c61010001518481518110610f7d57610f7d6122b2565b602002602001015173ffffffffffffffffffffffffffffffffffffffff1610610fa7576000610faa565b60015b9050600060028d610100015151610fc191906122e1565b8410610fcd5730610fed565b8c61012001518381518110610fe457610fe46122b2565b60200260200101515b90508c61012001518481518110611006576110066122b2565b602002602001015173ffffffffffffffffffffffffffffffffffffffff1663022c0d9f8361104d57868581518110611040576110406122b2565b6020026020010151611050565b60005b8461105c576000611077565b87868151811061106e5761106e6122b2565b60200260200101515b6040517fffffffff0000000000000000000000000000000000000000000000000000000060e085901b1681526004810192909252602482015273ffffffffffffffffffffffffffffffffffffffff84166044820152608060648201526000608482015260a401600060405180830381600087803b1580156110f757600080fd5b505af115801561110b573d6000803e3d6000fd5b505060019095019450610f189350505050565b5060008961010001518681518110611138576111386122b2565b60209081029190910101516040517f70a0823100000000000000000000000000000000000000000000000000000000815230600482015273ffffffffffffffffffffffffffffffffffffffff909116906370a0823190602401602060405180830381865afa1580156111ae573d6000803e3d6000fd5b505050506040513d601f19601f820116820180604052508101906111d2919061208c565b9050828110806111ea57506111e7888461229f565b81105b15611221576040517f883d583b00000000000000000000000000000000000000000000000000000000815260040160405180910390fd5b6112758a60e001518b61010001518881518110611240576112406122b2565b60200260200101518c60a0015161ffff168d60200151868b81518110611268576112686122b2565b6020026020010151611493565b975083156113a45786546040517f2e1a7d4d000000000000000000000000000000000000000000000000000000008152600481018a905273ffffffffffffffffffffffffffffffffffffffff90911690632e1a7d4d90602401600060405180830381600087803b1580156112e857600080fd5b505af11580156112fc573d6000803e3d6000fd5b5050505060008a6060015173ffffffffffffffffffffffffffffffffffffffff168960405160006040518083038185875af1925050503d806000811461135e576040519150601f19603f3d011682016040523d82523d6000602084013e611363565b606091505b505090508061139e576040517f6d963f8800000000000000000000000000000000000000000000000000000000815260040160405180910390fd5b506113c4565b6113c48a60600151898c61010001518981518110610c8e57610c8e6122b2565b5050505050505092915050565b60006127106113e083826122f4565b6113ee9061ffff1685612316565b6113f8919061232d565b90505b92915050565b6040805173ffffffffffffffffffffffffffffffffffffffff8416602482015260448082018490528251808303909101815260649091019091526020810180517bffffffffffffffffffffffffffffffffffffffffffffffffffffffff167fa9059cbb0000000000000000000000000000000000000000000000000000000017905261148e908490611781565b505050565b60006107d08411156114da576040517f7b9314200000000000000000000000000000000000000000000000000000000081526107d060048201526024015b60405180910390fd5b600082848111156114ec575050828203835b612710818702049190910190600073ffffffffffffffffffffffffffffffffffffffff8916156115225760646032840204611525565b60005b905080830383821461153d5761153d8a8a8484611890565b50505090910395945050505050565b805182516060919067ffffffffffffffff81111561156c5761156c611c15565b604051908082528060200260200182016040528015611595578160200160208202803683370190505b50915084826000815181106115ac576115ac6122b2565b60200260200101818152505060005b818110156117775760008582815181106115d7576115d76122b2565b602002602001015190506000868360016115f1919061229f565b81518110611601576116016122b2565b60200260200101519050600089848151811061161f5761161f6122b2565b602002602001015161271061163491906122f4565b61ffff16905060008088868151811061164f5761164f6122b2565b602002602001015173ffffffffffffffffffffffffffffffffffffffff16630902f1ac6040518163ffffffff1660e01b8152600401606060405180830381865afa1580156116a1573d6000803e3d6000fd5b505050506040513d601f19601f820116820180604052508101906116c591906120c3565b506dffffffffffffffffffffffffffff1691506dffffffffffffffffffffffffffff1691508373ffffffffffffffffffffffffffffffffffffffff168573ffffffffffffffffffffffffffffffffffffffff16111561172057905b828b0282612710020181848d02028161173b5761173b612113565b049a508a8861174b88600161229f565b8151811061175b5761175b6122b2565b60209081029190910101525050600190930192506115bb915050565b5050949350505050565b60006117e3826040518060400160405280602081526020017f5361666545524332303a206c6f772d6c6576656c2063616c6c206661696c65648152508573ffffffffffffffffffffffffffffffffffffffff166119959092919063ffffffff16565b90508051600014806118045750808060200190518101906118049190612368565b61148e576040517f08c379a000000000000000000000000000000000000000000000000000000000815260206004820152602a60248201527f5361666545524332303a204552433230206f7065726174696f6e20646964206e60448201527f6f7420737563636565640000000000000000000000000000000000000000000060648201526084016114d1565b7f77fbd1c38a5ead50a5764a860fef6b91e5432a95f91228e67197edaf911cfc8d73ffffffffffffffffffffffffffffffffffffffff8416156119005773ffffffffffffffffffffffffffffffffffffffff8516600090815260028201602052604090206118fe90856119ac565b505b61190a81866119ac565b5073ffffffffffffffffffffffffffffffffffffffff858116600081815260038401602090815260408083209489168084529482528083208054890190556004860182529182902080548801905581518781529081018690527fb9c71741297b7329823b5575aa676062720448277d6da61cf68eb0fed6c4baf4910160405180910390a35050505050565b60606119a484846000856119ce565b949350505050565b60006113f88373ffffffffffffffffffffffffffffffffffffffff8416611ae7565b606082471015611a60576040517f08c379a000000000000000000000000000000000000000000000000000000000815260206004820152602660248201527f416464726573733a20696e73756666696369656e742062616c616e636520666f60448201527f722063616c6c000000000000000000000000000000000000000000000000000060648201526084016114d1565b6000808673ffffffffffffffffffffffffffffffffffffffff168587604051611a8991906123b5565b60006040518083038185875af1925050503d8060008114611ac6576040519150601f19603f3d011682016040523d82523d6000602084013e611acb565b606091505b5091509150611adc87838387611b36565b979650505050505050565b6000818152600183016020526040812054611b2e575081546001818101845560008481526020808220909301849055845484825282860190935260409020919091556113fb565b5060006113fb565b60608315611bcc578251600003611bc55773ffffffffffffffffffffffffffffffffffffffff85163b611bc5576040517f08c379a000000000000000000000000000000000000000000000000000000000815260206004820152601d60248201527f416464726573733a2063616c6c20746f206e6f6e2d636f6e747261637400000060448201526064016114d1565b50816119a4565b6119a48383815115611be15781518083602001fd5b806040517f08c379a00000000000000000000000000000000000000000000000000000000081526004016114d191906123d1565b7f4e487b7100000000000000000000000000000000000000000000000000000000600052604160045260246000fd5b604051610160810167ffffffffffffffff81118282101715611c6857611c68611c15565b60405290565b604051610140810167ffffffffffffffff81118282101715611c6857611c68611c15565b604051601f82017fffffffffffffffffffffffffffffffffffffffffffffffffffffffffffffffe016810167ffffffffffffffff81118282101715611cd957611cd9611c15565b604052919050565b803573ffffffffffffffffffffffffffffffffffffffff81168114611d0557600080fd5b919050565b803561ffff81168114611d0557600080fd5b803565ffffffffffff81168114611d0557600080fd5b600060408284031215611d4457600080fd5b50919050565b600080828403610180811215611d5f57600080fd5b61016080821215611d6f57600080fd5b611d77611c44565b91508435825260208501356020830152611d9360408601611ce1565b6040830152611da460608601611ce1565b6060830152611db560808601611d0a565b6080830152611dc660a08601611d0a565b60a0830152611dd760c08601611ce1565b60c0830152611de860e08601611ce1565b60e0830152610100611dfb818701611ce1565b90830152610120611e0d868201611d0a565b90830152610140611e1f868201611d1c565b9083015290925083013567ffffffffffffffff811115611e3e57600080fd5b611e4a85828601611d32565b9150509250929050565b600067ffffffffffffffff821115611e6e57611e6e611c15565b5060051b60200190565b600082601f830112611e8957600080fd5b81356020611e9e611e9983611e54565b611c92565b82815260059290921b84018101918181019086841115611ebd57600080fd5b8286015b84811015611edf57611ed281611d0a565b8352918301918301611ec1565b509695505050505050565b600082601f830112611efb57600080fd5b81356020611f0b611e9983611e54565b82815260059290921b84018101918181019086841115611f2a57600080fd5b8286015b84811015611edf57611f3f81611ce1565b8352918301918301611f2e565b60008060408385031215611f5f57600080fd5b823567ffffffffffffffff80821115611f7757600080fd5b908401906101408287031215611f8c57600080fd5b611f94611c6e565b8235815260208301356020820152604083013582811115611fb457600080fd5b611fc088828601611e78565b604083015250611fd260608401611ce1565b6060820152611fe360808401611d0a565b6080820152611ff460a08401611d0a565b60a082015261200560c08401611d1c565b60c082015261201660e08401611ce1565b60e0820152610100808401358381111561202f57600080fd5b61203b89828701611eea565b828401525050610120808401358381111561205557600080fd5b61206189828701611eea565b82840152505080945050602085013591508082111561207f57600080fd5b50611e4a85828601611d32565b60006020828403121561209e57600080fd5b5051919050565b80516dffffffffffffffffffffffffffff81168114611d0557600080fd5b6000806000606084860312156120d857600080fd5b6120e1846120a5565b92506120ef602085016120a5565b9150604084015163ffffffff8116811461210857600080fd5b809150509250925092565b7f4e487b7100000000000000000000000000000000000000000000000000000000600052601260045260246000fd5b60008083357fffffffffffffffffffffffffffffffffffffffffffffffffffffffffffffffe184360301811261217757600080fd5b83018035915067ffffffffffffffff82111561219257600080fd5b6020019150368190038213156121a757600080fd5b9250929050565b600061010073ffffffffffffffffffffffffffffffffffffffff80881684528651818151166020860152816020820151166040860152604081015165ffffffffffff80821660608801528060608401511660808801525050508060208801511660a085015250604086015160c08401528060e08401528381840152506101208385828501376000838501820152601f9093017fffffffffffffffffffffffffffffffffffffffffffffffffffffffffffffffe016909101909101949350505050565b7f4e487b7100000000000000000000000000000000000000000000000000000000600052601160045260246000fd5b808201808211156113fb576113fb612270565b7f4e487b7100000000000000000000000000000000000000000000000000000000600052603260045260246000fd5b818103818111156113fb576113fb612270565b61ffff82811682821603908082111561230f5761230f612270565b5092915050565b80820281158282048414176113fb576113fb612270565b600082612363577f4e487b7100000000000000000000000000000000000000000000000000000000600052601260045260246000fd5b500490565b60006020828403121561237a57600080fd5b8151801515811461238a57600080fd5b9392505050565b60005b838110156123ac578181015183820152602001612394565b50506000910152565b600082516123c7818460208701612391565b9190910192915050565b60208152600082518060208401526123f0816040850160208701612391565b601f017fffffffffffffffffffffffffffffffffffffffffffffffffffffffffffffffe016919091016040019291505056fea2646970667358221220399c85134c5d6fab62d44952b5178b72d200fd12458e887718463f800e5bed2564736f6c63430008130033",
  "devdoc": {
    "kind": "dev",
    "methods": {},
    "version": 1
  },
  "userdoc": {
    "errors": {
      "FeeTooHigh(uint256)": [
        {
          "notice": "The swap fee is over the maximum allowed"
        }
      ]
    },
    "kind": "user",
    "methods": {},
    "notice": "A router for any Uniswap V2 fork The pools are not trusted to deliver the correct amount of tokens, so the router verifies this. The pool addresses passed in as a parameter instead of being looked up from the factory. The caller may use `getPair` on the factory to calculate pool addresses. Fees may vary from Uniswap V2's 0.3% (30 bps) and are passed in as `poolFeeBps`. Inspired by https://github.com/sushiswap/sushiswap/blob/master/protocols/route-processor/contracts/RouteProcessor4.sol#L323",
    "version": 1
  },
  "storageLayout": {
    "storage": [],
    "types": null
  }
}