{
  "address": "0x7F2970FF7658d334ff5F4F01a7Ec1b76c797fDEd",
  "abi": [
    {
      "inputs": [],
      "name": "CallbackInactive",
      "type": "error"
    },
    {
      "inputs": [
        {
          "internalType": "int256",
          "name": "",
          "type": "int256"
        },
        {
          "internalType": "int256",
          "name": "",
          "type": "int256"
        },
        {
          "internalType": "bytes",
          "name": "",
          "type": "bytes"
        }
      ],
      "name": "algebraSwapCallback",
      "outputs": [],
      "stateMutability": "nonpayable",
      "type": "function"
    },
    {
      "inputs": [
        {
          "internalType": "int256",
          "name": "",
          "type": "int256"
        },
        {
          "internalType": "int256",
          "name": "",
          "type": "int256"
        },
        {
          "internalType": "bytes",
          "name": "",
          "type": "bytes"
        }
      ],
      "name": "uniswapV3SwapCallback",
      "outputs": [],
      "stateMutability": "nonpayable",
      "type": "function"
    }
  ],
  "transactionHash": "0xd427bc0516d32032ca7e4b565150f2a79b038c6a29318b7feacd5cdda541e493",
  "args": [],
  "numDeployments": 2,
  "solcInputHash": "d4f46aaabe66ec0a8ac80cdeead2eb5f",
  "bytecode": "0x608060405234801561001057600080fd5b506107d3806100206000396000f3fe608060405234801561001057600080fd5b50600436106100365760003560e01c80632c8958f61461003b578063fa461e331461003b575b600080fd5b61004e610049366004610663565b610050565b005b61005861005e565b50505050565b7f3029b773e586da235d6a0709bacd2cb14a2e6562f997f3c8684513a487bcbf7a5460ff166001146100bc576040517f7c0a084d00000000000000000000000000000000000000000000000000000000815260040160405180910390fd5b604080516060810182527f3029b773e586da235d6a0709bacd2cb14a2e6562f997f3c8684513a487bcbf7b5481527f3029b773e586da235d6a0709bacd2cb14a2e6562f997f3c8684513a487bcbf7c5473ffffffffffffffffffffffffffffffffffffffff908116602083018190527f3029b773e586da235d6a0709bacd2cb14a2e6562f997f3c8684513a487bcbf7d54909116928201929092529030900361018f578051604082015161018a9173ffffffffffffffffffffffffffffffffffffffff909116903390610209565b6101bf565b6020810151815160408301516101bf9273ffffffffffffffffffffffffffffffffffffffff9091169133906102e2565b507f3029b773e586da235d6a0709bacd2cb14a2e6562f997f3c8684513a487bcbf7a80547fffffffffffffffffffffffffffffffffffffffffffffffffffffffffffffff00169055565b60405173ffffffffffffffffffffffffffffffffffffffff83166024820152604481018290526102dd9084907fa9059cbb00000000000000000000000000000000000000000000000000000000906064015b604080517fffffffffffffffffffffffffffffffffffffffffffffffffffffffffffffffe08184030181529190526020810180517bffffffffffffffffffffffffffffffffffffffffffffffffffffffff167fffffffff0000000000000000000000000000000000000000000000000000000090931692909217909152610340565b505050565b60405173ffffffffffffffffffffffffffffffffffffffff808516602483015283166044820152606481018290526100589085907f23b872dd000000000000000000000000000000000000000000000000000000009060840161025b565b60006103a2826040518060400160405280602081526020017f5361666545524332303a206c6f772d6c6576656c2063616c6c206661696c65648152508573ffffffffffffffffffffffffffffffffffffffff166104549092919063ffffffff16565b90508051600014806103c35750808060200190518101906103c391906106e3565b6102dd576040517f08c379a000000000000000000000000000000000000000000000000000000000815260206004820152602a60248201527f5361666545524332303a204552433230206f7065726174696f6e20646964206e60448201527f6f7420737563636565640000000000000000000000000000000000000000000060648201526084015b60405180910390fd5b6060610463848460008561046b565b949350505050565b6060824710156104fd576040517f08c379a000000000000000000000000000000000000000000000000000000000815260206004820152602660248201527f416464726573733a20696e73756666696369656e742062616c616e636520666f60448201527f722063616c6c0000000000000000000000000000000000000000000000000000606482015260840161044b565b6000808673ffffffffffffffffffffffffffffffffffffffff1685876040516105269190610730565b60006040518083038185875af1925050503d8060008114610563576040519150601f19603f3d011682016040523d82523d6000602084013e610568565b606091505b509150915061057987838387610584565b979650505050505050565b6060831561061a5782516000036106135773ffffffffffffffffffffffffffffffffffffffff85163b610613576040517f08c379a000000000000000000000000000000000000000000000000000000000815260206004820152601d60248201527f416464726573733a2063616c6c20746f206e6f6e2d636f6e7472616374000000604482015260640161044b565b5081610463565b610463838381511561062f5781518083602001fd5b806040517f08c379a000000000000000000000000000000000000000000000000000000000815260040161044b919061074c565b6000806000806060858703121561067957600080fd5b8435935060208501359250604085013567ffffffffffffffff8082111561069f57600080fd5b818701915087601f8301126106b357600080fd5b8135818111156106c257600080fd5b8860208285010111156106d457600080fd5b95989497505060200194505050565b6000602082840312156106f557600080fd5b8151801515811461070557600080fd5b9392505050565b60005b8381101561072757818101518382015260200161070f565b50506000910152565b6000825161074281846020870161070c565b9190910192915050565b602081526000825180602084015261076b81604085016020870161070c565b601f017fffffffffffffffffffffffffffffffffffffffffffffffffffffffffffffffe016919091016040019291505056fea26469706673582212204a558a2d5115edbaa68ab2ec00d5877143a728b384a04a454bb118328f1260e264736f6c63430008130033",
  "devdoc": {
    "kind": "dev",
    "methods": {},
    "version": 1
  },
  "userdoc": {
    "kind": "user",
    "methods": {
      "algebraSwapCallback(int256,int256,bytes)": {
        "notice": "NOTE: None of these arguments can be trusted"
      },
      "uniswapV3SwapCallback(int256,int256,bytes)": {
        "notice": "See https://github.com/Uniswap/v3-periphery/blob/main/contracts/SwapRouter.sol NOTE: None of these arguments can be trusted"
      }
    },
    "notice": "NOTE: Using a shared internal functions uses about 3K more gas than having two externals with the code duplicated",
    "version": 1
  },
  "storageLayout": {
    "storage": [],
    "types": null
  }
}