{
  "address": "0x195c3182320D98bA0F8443220FEB771a69438251",
  "abi": [
    {
      "inputs": [],
      "name": "DeadlineExpired",
      "type": "error"
    },
    {
      "inputs": [],
      "name": "EthTransferFailed",
      "type": "error"
    },
    {
      "inputs": [
        {
          "internalType": "uint256",
          "name": "maxFeeBps",
          "type": "uint256"
        }
      ],
      "name": "FeeTooHigh",
      "type": "error"
    },
    {
      "inputs": [
        {
          "internalType": "uint256",
          "name": "maxFeeBps",
          "type": "uint256"
        }
      ],
      "name": "FeeTooHigh",
      "type": "error"
    },
    {
      "inputs": [],
      "name": "IncorrectEthValue",
      "type": "error"
    },
    {
      "inputs": [],
      "name": "InsufficienTokensDelivered",
      "type": "error"
    },
    {
      "inputs": [],
      "name": "InsufficientOutputAmount",
      "type": "error"
    },
    {
      "anonymous": false,
      "inputs": [
        {
          "indexed": true,
          "internalType": "address",
          "name": "partner",
          "type": "address"
        },
        {
          "indexed": true,
          "internalType": "address",
          "name": "token",
          "type": "address"
        },
        {
          "indexed": false,
          "internalType": "uint256",
          "name": "partnerFee",
          "type": "uint256"
        },
        {
          "indexed": false,
          "internalType": "uint256",
          "name": "protocolFee",
          "type": "uint256"
        }
      ],
      "name": "Fee",
      "type": "event"
    },
    {
      "anonymous": false,
      "inputs": [
        {
          "indexed": true,
          "internalType": "address",
          "name": "partner",
          "type": "address"
        },
        {
          "indexed": true,
          "internalType": "address",
          "name": "tokenIn",
          "type": "address"
        },
        {
          "indexed": true,
          "internalType": "address",
          "name": "tokenOut",
          "type": "address"
        },
        {
          "indexed": false,
          "internalType": "uint256",
          "name": "amountIn",
          "type": "uint256"
        },
        {
          "indexed": false,
          "internalType": "uint256",
          "name": "amountOut",
          "type": "uint256"
        }
      ],
      "name": "Warp",
      "type": "event"
    },
    {
      "inputs": [
        {
          "components": [
            {
              "internalType": "uint256",
              "name": "amountIn",
              "type": "uint256"
            },
            {
              "internalType": "uint256",
              "name": "amountOut",
              "type": "uint256"
            },
            {
              "internalType": "uint16[]",
              "name": "poolFeesBps",
              "type": "uint16[]"
            },
            {
              "internalType": "address",
              "name": "recipient",
              "type": "address"
            },
            {
              "internalType": "uint16",
              "name": "slippageBps",
              "type": "uint16"
            },
            {
              "internalType": "uint16",
              "name": "feeBps",
              "type": "uint16"
            },
            {
              "internalType": "uint48",
              "name": "deadline",
              "type": "uint48"
            },
            {
              "internalType": "address",
              "name": "partner",
              "type": "address"
            },
            {
              "internalType": "address[]",
              "name": "tokens",
              "type": "address[]"
            },
            {
              "internalType": "address[]",
              "name": "pools",
              "type": "address[]"
            }
          ],
          "internalType": "struct IUniV2Like.ExactInputParams",
          "name": "params",
          "type": "tuple"
        },
        {
          "components": [
            {
              "internalType": "uint256",
              "name": "nonce",
              "type": "uint256"
            },
            {
              "internalType": "bytes",
              "name": "signature",
              "type": "bytes"
            }
          ],
          "internalType": "struct PermitParams",
          "name": "permit",
          "type": "tuple"
        }
      ],
      "name": "uniswapV2LikeExactInput",
      "outputs": [
        {
          "internalType": "uint256",
          "name": "amountOut",
          "type": "uint256"
        }
      ],
      "stateMutability": "payable",
      "type": "function"
    },
    {
      "inputs": [
        {
          "components": [
            {
              "internalType": "uint256",
              "name": "amountIn",
              "type": "uint256"
            },
            {
              "internalType": "uint256",
              "name": "amountOut",
              "type": "uint256"
            },
            {
              "internalType": "address",
              "name": "recipient",
              "type": "address"
            },
            {
              "internalType": "address",
              "name": "pool",
              "type": "address"
            },
            {
              "internalType": "uint16",
              "name": "feeBps",
              "type": "uint16"
            },
            {
              "internalType": "uint16",
              "name": "slippageBps",
              "type": "uint16"
            },
            {
              "internalType": "address",
              "name": "partner",
              "type": "address"
            },
            {
              "internalType": "address",
              "name": "tokenIn",
              "type": "address"
            },
            {
              "internalType": "address",
              "name": "tokenOut",
              "type": "address"
            },
            {
              "internalType": "uint16",
              "name": "poolFeeBps",
              "type": "uint16"
            },
            {
              "internalType": "uint48",
              "name": "deadline",
              "type": "uint48"
            }
          ],
          "internalType": "struct IUniV2Like.ExactInputSingleParams",
          "name": "params",
          "type": "tuple"
        },
        {
          "components": [
            {
              "internalType": "uint256",
              "name": "nonce",
              "type": "uint256"
            },
            {
              "internalType": "bytes",
              "name": "signature",
              "type": "bytes"
            }
          ],
          "internalType": "struct PermitParams",
          "name": "permit",
          "type": "tuple"
        }
      ],
      "name": "uniswapV2LikeExactInputSingle",
      "outputs": [
        {
          "internalType": "uint256",
          "name": "amountOut",
          "type": "uint256"
        }
      ],
      "stateMutability": "payable",
      "type": "function"
    }
  ],
  "transactionHash": "0x14407a7f3181c0154b7a4ff2dabc0a7a9f42d39947517acc4c156ceedcc879cc",
  "args": [],
  "numDeployments": 8,
  "solcInputHash": "124f6b0f1e207f1540b01e365d13000c",
  "bytecode": "0x608060405234801561001057600080fd5b506125f0806100206000396000f3fe6080604052600436106100295760003560e01c806383cf9ad51461002e578063a39a934214610053575b600080fd5b61004161003c366004611ee2565b610066565b60405190815260200160405180910390f35b6100416100613660046120e4565b6109e7565b600082610140015165ffffffffffff164211156100af576040517f1ab7da6b00000000000000000000000000000000000000000000000000000000815260040160405180910390fd5b60e08301516101008401517f1c1cf3c8827d48db80e17913589584c81d7f8da7f2100c9a87a7bf64829a0e109173ffffffffffffffffffffffffffffffffffffffff90811615911615600081610199576101008701516040517f70a0823100000000000000000000000000000000000000000000000000000000815230600482015273ffffffffffffffffffffffffffffffffffffffff909116906370a0823190602401602060405180830381865afa158015610170573d6000803e3d6000fd5b505050506040513d601f19601f820116820180604052508101906101949190612224565b61019b565b475b905082156101c157835473ffffffffffffffffffffffffffffffffffffffff1660e08801525b81156101e657835473ffffffffffffffffffffffffffffffffffffffff166101008801525b600080886060015173ffffffffffffffffffffffffffffffffffffffff16630902f1ac6040518163ffffffff1660e01b8152600401606060405180830381865afa158015610238573d6000803e3d6000fd5b505050506040513d601f19601f8201168201806040525081019061025c919061225b565b506dffffffffffffffffffffffffffff1691506dffffffffffffffffffffffffffff16915088610100015173ffffffffffffffffffffffffffffffffffffffff168960e0015173ffffffffffffffffffffffffffffffffffffffff1611156102c057905b610120890151895161ffff61271092830316918402908202908101908302816102eb576102eb6122ab565b0497505061030189602001518a60a00151611569565b87101561033a576040517f42301c2300000000000000000000000000000000000000000000000000000000815260040160405180910390fd5b8415610430578851341461037a576040517fab0a033b00000000000000000000000000000000000000000000000000000000815260040160405180910390fd5b8554604080517fd0e30db0000000000000000000000000000000000000000000000000000000008152905173ffffffffffffffffffffffffffffffffffffffff9092169163d0e30db0913491600480830192600092919082900301818588803b1580156103e657600080fd5b505af11580156103fa573d6000803e3d6000fd5b50505060608b01518b5160e08d015161042b945073ffffffffffffffffffffffffffffffffffffffff169250611599565b6105b5565b60018601546040805160e080820183528c015173ffffffffffffffffffffffffffffffffffffffff908116606083019081528d51821660808401526101408e01805165ffffffffffff90811660a08601528e35811660c08601529184523060208086019190915290519091169383019390935290921691632b67b570913391906104bc908d018d6122da565b6040518563ffffffff1660e01b81526004016104db9493929190612346565b600060405180830381600087803b1580156104f557600080fd5b505af1158015610509573d6000803e3d6000fd5b50505050600186015460608a01518a5160e08c01516040517f36c7851600000000000000000000000000000000000000000000000000000000815233600482015273ffffffffffffffffffffffffffffffffffffffff93841660248201529183166044830152821660648201529116906336c7851690608401600060405180830381600087803b15801561059c57600080fd5b505af11580156105b0573d6000803e3d6000fd5b505050505b600089610100015173ffffffffffffffffffffffffffffffffffffffff168a60e0015173ffffffffffffffffffffffffffffffffffffffff16106105fa5760006105fd565b60015b9050896060015173ffffffffffffffffffffffffffffffffffffffff1663022c0d9f8261062a578961062d565b60005b8361063957600061063b565b8a5b6040517fffffffff0000000000000000000000000000000000000000000000000000000060e085901b16815260048101929092526024820152306044820152608060648201526000608482015260a401600060405180830381600087803b1580156106a557600080fd5b505af11580156106b9573d6000803e3d6000fd5b505050506101008a01516040517f70a0823100000000000000000000000000000000000000000000000000000000815230600482015260009173ffffffffffffffffffffffffffffffffffffffff16906370a0823190602401602060405180830381865afa15801561072f573d6000803e3d6000fd5b505050506040513d601f19601f820116820180604052508101906107539190612224565b90508481108061076b57506107688986612437565b81105b156107a2576040517f883d583b00000000000000000000000000000000000000000000000000000000815260040160405180910390fd5b6107c48b60c001518c61010001518d6080015161ffff168e602001518d61162b565b985085156108f35787546040517f2e1a7d4d000000000000000000000000000000000000000000000000000000008152600481018b905273ffffffffffffffffffffffffffffffffffffffff90911690632e1a7d4d90602401600060405180830381600087803b15801561083757600080fd5b505af115801561084b573d6000803e3d6000fd5b5050505060008b6040015173ffffffffffffffffffffffffffffffffffffffff168a60405160006040518083038185875af1925050503d80600081146108ad576040519150601f19603f3d011682016040523d82523d6000602084013e6108b2565b606091505b50509050806108ed576040517f6d963f8800000000000000000000000000000000000000000000000000000000815260040160405180910390fd5b50610927565b6109278b604001518a8d610100015173ffffffffffffffffffffffffffffffffffffffff166115999092919063ffffffff16565b85610937578a610100015161093a565b60005b73ffffffffffffffffffffffffffffffffffffffff168761095f578b60e00151610962565b60005b73ffffffffffffffffffffffffffffffffffffffff168c60c0015173ffffffffffffffffffffffffffffffffffffffff167f1d81b4318b379c644b5546ae9cf37d861a5c7547bf3dae6cfaecffa12f8748f38e600001518d6040516109d1929190918252602082015260400190565b60405180910390a4505050505050505092915050565b60008260c0015165ffffffffffff16421115610a2f576040517f1ab7da6b00000000000000000000000000000000000000000000000000000000815260040160405180910390fd5b6101208301515161010084015180517f1c1cf3c8827d48db80e17913589584c81d7f8da7f2100c9a87a7bf64829a0e1092916000918291908290610a7557610a7561244a565b602002602001015173ffffffffffffffffffffffffffffffffffffffff1614905060008073ffffffffffffffffffffffffffffffffffffffff168761010001518481518110610ac657610ac661244a565b602002602001015173ffffffffffffffffffffffffffffffffffffffff16149050600081610ba4578761010001518481518110610b0557610b0561244a565b60209081029190910101516040517f70a0823100000000000000000000000000000000000000000000000000000000815230600482015273ffffffffffffffffffffffffffffffffffffffff909116906370a0823190602401602060405180830381865afa158015610b7b573d6000803e3d6000fd5b505050506040513d601f19601f82011682018060405250810190610b9f9190612224565b610ba6565b475b90506000610bc889604001518a600001518b61010001518c61012001516116e4565b9050610bdc89602001518a60800151611569565b8160018351610beb9190612479565b81518110610bfb57610bfb61244a565b60200260200101511015610c3b576040517f42301c2300000000000000000000000000000000000000000000000000000000815260040160405180910390fd5b8315610d725788513414610c7b576040517fab0a033b00000000000000000000000000000000000000000000000000000000815260040160405180910390fd5b8554604080517fd0e30db0000000000000000000000000000000000000000000000000000000008152905173ffffffffffffffffffffffffffffffffffffffff9092169163d0e30db0913491600480830192600092919082900301818588803b158015610ce757600080fd5b505af1158015610cfb573d6000803e3d6000fd5b5050505050610d6d896101200151600081518110610d1b57610d1b61244a565b60200260200101518a600001518b6101000151600081518110610d4057610d4061244a565b602002602001015173ffffffffffffffffffffffffffffffffffffffff166115999092919063ffffffff16565b610fc7565b8560010160009054906101000a900473ffffffffffffffffffffffffffffffffffffffff1673ffffffffffffffffffffffffffffffffffffffff16632b67b57033604051806060016040528060405180608001604052808f6101000151600081518110610de157610de161244a565b602002602001015173ffffffffffffffffffffffffffffffffffffffff1681526020018f6000015173ffffffffffffffffffffffffffffffffffffffff1681526020018f60c0015165ffffffffffff1681526020018e6000013565ffffffffffff1681525081526020013073ffffffffffffffffffffffffffffffffffffffff1681526020018d60c0015165ffffffffffff168152508b8060200190610e8791906122da565b6040518563ffffffff1660e01b8152600401610ea69493929190612346565b600060405180830381600087803b158015610ec057600080fd5b505af1158015610ed4573d6000803e3d6000fd5b5050505060018601546101208a0151805173ffffffffffffffffffffffffffffffffffffffff909216916336c78516913391600090610f1557610f1561244a565b60200260200101518c600001518d6101000151600081518110610f3a57610f3a61244a565b60200260200101516040518563ffffffff1660e01b8152600401610f94949392919073ffffffffffffffffffffffffffffffffffffffff948516815292841660208401529083166040830152909116606082015260800190565b600060405180830381600087803b158015610fae57600080fd5b505af1158015610fc2573d6000803e3d6000fd5b505050505b60005b858110156111d0576000610fdf826001612437565b905060008b61010001518281518110610ffa57610ffa61244a565b602002602001015173ffffffffffffffffffffffffffffffffffffffff168c6101000151848151811061102f5761102f61244a565b602002602001015173ffffffffffffffffffffffffffffffffffffffff161061105957600061105c565b60015b9050600060028d6101000151516110739190612479565b841061107f573061109f565b8c610120015183815181106110965761109661244a565b60200260200101515b90508c610120015184815181106110b8576110b861244a565b602002602001015173ffffffffffffffffffffffffffffffffffffffff1663022c0d9f836110ff578685815181106110f2576110f261244a565b6020026020010151611102565b60005b8461110e576000611129565b8786815181106111205761112061244a565b60200260200101515b6040517fffffffff0000000000000000000000000000000000000000000000000000000060e085901b1681526004810192909252602482015273ffffffffffffffffffffffffffffffffffffffff84166044820152608060648201526000608482015260a401600060405180830381600087803b1580156111a957600080fd5b505af11580156111bd573d6000803e3d6000fd5b505060019095019450610fca9350505050565b50600089610100015186815181106111ea576111ea61244a565b60209081029190910101516040517f70a0823100000000000000000000000000000000000000000000000000000000815230600482015273ffffffffffffffffffffffffffffffffffffffff909116906370a0823190602401602060405180830381865afa158015611260573d6000803e3d6000fd5b505050506040513d601f19601f820116820180604052508101906112849190612224565b90508281108061129c57506112998884612437565b81105b156112d3576040517f883d583b00000000000000000000000000000000000000000000000000000000815260040160405180910390fd5b6113278a60e001518b610100015188815181106112f2576112f261244a565b60200260200101518c60a0015161ffff168d60200151868b8151811061131a5761131a61244a565b602002602001015161162b565b975083156114565786546040517f2e1a7d4d000000000000000000000000000000000000000000000000000000008152600481018a905273ffffffffffffffffffffffffffffffffffffffff90911690632e1a7d4d90602401600060405180830381600087803b15801561139a57600080fd5b505af11580156113ae573d6000803e3d6000fd5b5050505060008a6060015173ffffffffffffffffffffffffffffffffffffffff168960405160006040518083038185875af1925050503d8060008114611410576040519150601f19603f3d011682016040523d82523d6000602084013e611415565b606091505b5050905080611450576040517f6d963f8800000000000000000000000000000000000000000000000000000000815260040160405180910390fd5b50611476565b6114768a60600151898c61010001518981518110610d4057610d4061244a565b8361149f5789610100015186815181106114925761149261244a565b60200260200101516114a2565b60005b73ffffffffffffffffffffffffffffffffffffffff16856114e2578a61010001516000815181106114d5576114d561244a565b60200260200101516114e5565b60005b73ffffffffffffffffffffffffffffffffffffffff168b60e0015173ffffffffffffffffffffffffffffffffffffffff167f1d81b4318b379c644b5546ae9cf37d861a5c7547bf3dae6cfaecffa12f8748f38d600001518c604051611554929190918252602082015260400190565b60405180910390a45050505050505092915050565b6000612710611578838261248c565b6115869061ffff16856124ae565b61159091906124c5565b90505b92915050565b6040805173ffffffffffffffffffffffffffffffffffffffff8416602482015260448082018490528251808303909101815260649091019091526020810180517bffffffffffffffffffffffffffffffffffffffffffffffffffffffff167fa9059cbb00000000000000000000000000000000000000000000000000000000179052611626908490611919565b505050565b60006107d0841115611672576040517f7b9314200000000000000000000000000000000000000000000000000000000081526107d060048201526024015b60405180910390fd5b60008284811115611684575050828203835b612710818702049190910190600073ffffffffffffffffffffffffffffffffffffffff8916156116ba57606460328402046116bd565b60005b90508083038382146116d5576116d58a8a8484611a28565b50505090910395945050505050565b805182516060919067ffffffffffffffff81111561170457611704611dad565b60405190808252806020026020018201604052801561172d578160200160208202803683370190505b50915084826000815181106117445761174461244a565b60200260200101818152505060005b8181101561190f57600085828151811061176f5761176f61244a565b602002602001015190506000868360016117899190612437565b815181106117995761179961244a565b6020026020010151905060008984815181106117b7576117b761244a565b60200260200101516127106117cc919061248c565b61ffff1690506000808886815181106117e7576117e761244a565b602002602001015173ffffffffffffffffffffffffffffffffffffffff16630902f1ac6040518163ffffffff1660e01b8152600401606060405180830381865afa158015611839573d6000803e3d6000fd5b505050506040513d601f19601f8201168201806040525081019061185d919061225b565b506dffffffffffffffffffffffffffff1691506dffffffffffffffffffffffffffff1691508373ffffffffffffffffffffffffffffffffffffffff168573ffffffffffffffffffffffffffffffffffffffff1611156118b857905b828b0282612710020181848d0202816118d3576118d36122ab565b049a508a886118e3886001612437565b815181106118f3576118f361244a565b6020908102919091010152505060019093019250611753915050565b5050949350505050565b600061197b826040518060400160405280602081526020017f5361666545524332303a206c6f772d6c6576656c2063616c6c206661696c65648152508573ffffffffffffffffffffffffffffffffffffffff16611b2d9092919063ffffffff16565b905080516000148061199c57508080602001905181019061199c9190612500565b611626576040517f08c379a000000000000000000000000000000000000000000000000000000000815260206004820152602a60248201527f5361666545524332303a204552433230206f7065726174696f6e20646964206e60448201527f6f742073756363656564000000000000000000000000000000000000000000006064820152608401611669565b7f77fbd1c38a5ead50a5764a860fef6b91e5432a95f91228e67197edaf911cfc8d73ffffffffffffffffffffffffffffffffffffffff841615611a985773ffffffffffffffffffffffffffffffffffffffff851660009081526002820160205260409020611a969085611b44565b505b611aa28186611b44565b5073ffffffffffffffffffffffffffffffffffffffff858116600081815260038401602090815260408083209489168084529482528083208054890190556004860182529182902080548801905581518781529081018690527f3d2a5b5aa3c9e4a41eed8ae2e9e470c5cfb96fa51eb0935c607c0fd8ec3f3f57910160405180910390a35050505050565b6060611b3c8484600085611b66565b949350505050565b60006115908373ffffffffffffffffffffffffffffffffffffffff8416611c7f565b606082471015611bf8576040517f08c379a000000000000000000000000000000000000000000000000000000000815260206004820152602660248201527f416464726573733a20696e73756666696369656e742062616c616e636520666f60448201527f722063616c6c00000000000000000000000000000000000000000000000000006064820152608401611669565b6000808673ffffffffffffffffffffffffffffffffffffffff168587604051611c21919061254d565b60006040518083038185875af1925050503d8060008114611c5e576040519150601f19603f3d011682016040523d82523d6000602084013e611c63565b606091505b5091509150611c7487838387611cce565b979650505050505050565b6000818152600183016020526040812054611cc657508154600181810184556000848152602080822090930184905584548482528286019093526040902091909155611593565b506000611593565b60608315611d64578251600003611d5d5773ffffffffffffffffffffffffffffffffffffffff85163b611d5d576040517f08c379a000000000000000000000000000000000000000000000000000000000815260206004820152601d60248201527f416464726573733a2063616c6c20746f206e6f6e2d636f6e74726163740000006044820152606401611669565b5081611b3c565b611b3c8383815115611d795781518083602001fd5b806040517f08c379a00000000000000000000000000000000000000000000000000000000081526004016116699190612569565b7f4e487b7100000000000000000000000000000000000000000000000000000000600052604160045260246000fd5b604051610160810167ffffffffffffffff81118282101715611e0057611e00611dad565b60405290565b604051610140810167ffffffffffffffff81118282101715611e0057611e00611dad565b604051601f82017fffffffffffffffffffffffffffffffffffffffffffffffffffffffffffffffe016810167ffffffffffffffff81118282101715611e7157611e71611dad565b604052919050565b803573ffffffffffffffffffffffffffffffffffffffff81168114611e9d57600080fd5b919050565b803561ffff81168114611e9d57600080fd5b803565ffffffffffff81168114611e9d57600080fd5b600060408284031215611edc57600080fd5b50919050565b600080828403610180811215611ef757600080fd5b61016080821215611f0757600080fd5b611f0f611ddc565b91508435825260208501356020830152611f2b60408601611e79565b6040830152611f3c60608601611e79565b6060830152611f4d60808601611ea2565b6080830152611f5e60a08601611ea2565b60a0830152611f6f60c08601611e79565b60c0830152611f8060e08601611e79565b60e0830152610100611f93818701611e79565b90830152610120611fa5868201611ea2565b90830152610140611fb7868201611eb4565b9083015290925083013567ffffffffffffffff811115611fd657600080fd5b611fe285828601611eca565b9150509250929050565b600067ffffffffffffffff82111561200657612006611dad565b5060051b60200190565b600082601f83011261202157600080fd5b8135602061203661203183611fec565b611e2a565b82815260059290921b8401810191818101908684111561205557600080fd5b8286015b848110156120775761206a81611ea2565b8352918301918301612059565b509695505050505050565b600082601f83011261209357600080fd5b813560206120a361203183611fec565b82815260059290921b840181019181810190868411156120c257600080fd5b8286015b84811015612077576120d781611e79565b83529183019183016120c6565b600080604083850312156120f757600080fd5b823567ffffffffffffffff8082111561210f57600080fd5b90840190610140828703121561212457600080fd5b61212c611e06565b823581526020830135602082015260408301358281111561214c57600080fd5b61215888828601612010565b60408301525061216a60608401611e79565b606082015261217b60808401611ea2565b608082015261218c60a08401611ea2565b60a082015261219d60c08401611eb4565b60c08201526121ae60e08401611e79565b60e082015261010080840135838111156121c757600080fd5b6121d389828701612082565b82840152505061012080840135838111156121ed57600080fd5b6121f989828701612082565b82840152505080945050602085013591508082111561221757600080fd5b50611fe285828601611eca565b60006020828403121561223657600080fd5b5051919050565b80516dffffffffffffffffffffffffffff81168114611e9d57600080fd5b60008060006060848603121561227057600080fd5b6122798461223d565b92506122876020850161223d565b9150604084015163ffffffff811681146122a057600080fd5b809150509250925092565b7f4e487b7100000000000000000000000000000000000000000000000000000000600052601260045260246000fd5b60008083357fffffffffffffffffffffffffffffffffffffffffffffffffffffffffffffffe184360301811261230f57600080fd5b83018035915067ffffffffffffffff82111561232a57600080fd5b60200191503681900382131561233f57600080fd5b9250929050565b600061010073ffffffffffffffffffffffffffffffffffffffff80881684528651818151166020860152816020820151166040860152604081015165ffffffffffff80821660608801528060608401511660808801525050508060208801511660a085015250604086015160c08401528060e08401528381840152506101208385828501376000838501820152601f9093017fffffffffffffffffffffffffffffffffffffffffffffffffffffffffffffffe016909101909101949350505050565b7f4e487b7100000000000000000000000000000000000000000000000000000000600052601160045260246000fd5b8082018082111561159357611593612408565b7f4e487b7100000000000000000000000000000000000000000000000000000000600052603260045260246000fd5b8181038181111561159357611593612408565b61ffff8281168282160390808211156124a7576124a7612408565b5092915050565b808202811582820484141761159357611593612408565b6000826124fb577f4e487b7100000000000000000000000000000000000000000000000000000000600052601260045260246000fd5b500490565b60006020828403121561251257600080fd5b8151801515811461252257600080fd5b9392505050565b60005b8381101561254457818101518382015260200161252c565b50506000910152565b6000825161255f818460208701612529565b9190910192915050565b6020815260008251806020840152612588816040850160208701612529565b601f017fffffffffffffffffffffffffffffffffffffffffffffffffffffffffffffffe016919091016040019291505056fea2646970667358221220e0545809640dd628f5f956a7746091e36a6546b08863a6f8532bd729612b391964736f6c63430008130033",
  "devdoc": {
    "kind": "dev",
    "methods": {},
    "version": 1
  },
  "userdoc": {
    "errors": {
      "FeeTooHigh(uint256)": [
        {
          "notice": "The swap fee is over the maximum allowed"
        },
        {
          "notice": "The swap fee is over the maximum allowed"
        }
      ]
    },
    "kind": "user",
    "methods": {},
    "notice": "A router for any Uniswap V2 fork The pools are not trusted to deliver the correct amount of tokens, so the router verifies this. The pool addresses passed in as a parameter instead of being looked up from the factory. The caller may use `getPair` on the factory to calculate pool addresses. Fees may vary from Uniswap V2's 0.3% (30 bps) and are passed in as `poolFeeBps`. Inspired by https://github.com/sushiswap/sushiswap/blob/master/protocols/route-processor/contracts/RouteProcessor4.sol#L323",
    "version": 1
  },
  "storageLayout": {
    "storage": [],
    "types": null
  }
}