{
  "address": "0x32726E537C7b405f8A0910C41C97E0f52c637e2F",
  "abi": [
    {
      "inputs": [],
      "name": "CallbackAlreadyActive",
      "type": "error"
    },
    {
      "inputs": [],
      "name": "CallbackStillActive",
      "type": "error"
    },
    {
      "inputs": [],
      "name": "DeadlineExpired",
      "type": "error"
    },
    {
      "inputs": [
        {
          "internalType": "uint256",
          "name": "maxFeeBps",
          "type": "uint256"
        }
      ],
      "name": "FeeTooHigh",
      "type": "error"
    },
    {
      "inputs": [],
      "name": "IllegalJumpInSplit",
      "type": "error"
    },
    {
      "inputs": [],
      "name": "InconsistentPartPayerOut",
      "type": "error"
    },
    {
      "inputs": [],
      "name": "InconsistentPartTokenOut",
      "type": "error"
    },
    {
      "inputs": [],
      "name": "InsufficientAmountRemaining",
      "type": "error"
    },
    {
      "inputs": [],
      "name": "InsufficientEthValue",
      "type": "error"
    },
    {
      "inputs": [],
      "name": "InsufficientOutputAmount",
      "type": "error"
    },
    {
      "inputs": [],
      "name": "InsufficientTokensDelivered",
      "type": "error"
    },
    {
      "inputs": [],
      "name": "InvalidSgReceiveSrcAddress",
      "type": "error"
    },
    {
      "inputs": [],
      "name": "InvalidSgReceiverSender",
      "type": "error"
    },
    {
      "inputs": [],
      "name": "JumpMustBeLastCommand",
      "type": "error"
    },
    {
      "inputs": [],
      "name": "NativeTokenNotSupported",
      "type": "error"
    },
    {
      "inputs": [],
      "name": "NotEnoughParts",
      "type": "error"
    },
    {
      "inputs": [],
      "name": "UnexpectedPayerForWrap",
      "type": "error"
    },
    {
      "inputs": [],
      "name": "UnexpectedTokenForUnwrap",
      "type": "error"
    },
    {
      "inputs": [],
      "name": "UnexpectedTokenForWrap",
      "type": "error"
    },
    {
      "inputs": [],
      "name": "UnexpectedTokenOut",
      "type": "error"
    },
    {
      "inputs": [],
      "name": "UnhandledCommand",
      "type": "error"
    },
    {
      "inputs": [],
      "name": "UnhandledPoolKind",
      "type": "error"
    },
    {
      "inputs": [
        {
          "internalType": "uint16",
          "name": "",
          "type": "uint16"
        },
        {
          "internalType": "bytes",
          "name": "_srcAddress",
          "type": "bytes"
        },
        {
          "internalType": "uint256",
          "name": "",
          "type": "uint256"
        },
        {
          "internalType": "address",
          "name": "_token",
          "type": "address"
        },
        {
          "internalType": "uint256",
          "name": "amountLD",
          "type": "uint256"
        },
        {
          "internalType": "bytes",
          "name": "payload",
          "type": "bytes"
        }
      ],
      "name": "sgReceive",
      "outputs": [],
      "stateMutability": "nonpayable",
      "type": "function"
    },
    {
      "inputs": [
        {
          "components": [
            {
              "internalType": "address",
              "name": "partner",
              "type": "address"
            },
            {
              "internalType": "uint16",
              "name": "feeBps",
              "type": "uint16"
            },
            {
              "internalType": "uint16",
              "name": "slippageBps",
              "type": "uint16"
            },
            {
              "internalType": "address",
              "name": "recipient",
              "type": "address"
            },
            {
              "internalType": "address",
              "name": "tokenIn",
              "type": "address"
            },
            {
              "internalType": "address",
              "name": "tokenOut",
              "type": "address"
            },
            {
              "internalType": "uint256",
              "name": "amountIn",
              "type": "uint256"
            },
            {
              "internalType": "uint256",
              "name": "amountOut",
              "type": "uint256"
            },
            {
              "internalType": "uint48",
              "name": "deadline",
              "type": "uint48"
            },
            {
              "internalType": "bytes",
              "name": "commands",
              "type": "bytes"
            }
          ],
          "internalType": "struct IWarpLink.Params",
          "name": "params",
          "type": "tuple"
        },
        {
          "components": [
            {
              "internalType": "uint256",
              "name": "nonce",
              "type": "uint256"
            },
            {
              "internalType": "bytes",
              "name": "signature",
              "type": "bytes"
            }
          ],
          "internalType": "struct PermitParams",
          "name": "permit",
          "type": "tuple"
        }
      ],
      "name": "warpLinkEngage",
      "outputs": [],
      "stateMutability": "payable",
      "type": "function"
    }
  ],
  "transactionHash": "0xa24a06d79cdce2199fb02edffadfab449f26054031ef5cf2ed3b0ea26c27f411",
  "args": [],
  "numDeployments": 6,
  "solcInputHash": "2fd815f28fffb50f03668fa5b5d5e4b5",
  "bytecode": "0x608060405234801561001057600080fd5b50614fe7806100206000396000f3fe6080604052600436106100295760003560e01c8063ab8236f31461002e578063dc7b39db14610050575b600080fd5b34801561003a57600080fd5b5061004e610049366004614605565b610063565b005b61004e61005e3660046146d9565b6102d0565b7f1c1cf3c8827d48db80e17913589584c81d7f8da7f2100c9a87a7bf64829a0e106002015473ffffffffffffffffffffffffffffffffffffffff1633146100d6576040517fcebf3f7700000000000000000000000000000000000000000000000000000000815260040160405180910390fd5b601485015173ffffffffffffffffffffffffffffffffffffffff8116301461012a576040517fa9d0d13300000000000000000000000000000000000000000000000000000000815260040160405180910390fd5b6000828060200190518101906101409190614886565b90503073ffffffffffffffffffffffffffffffffffffffff1663dc7b39db604051806101400160405280846000015173ffffffffffffffffffffffffffffffffffffffff168152602001846020015161ffff168152602001846040015161ffff168152602001846060015173ffffffffffffffffffffffffffffffffffffffff1681526020018873ffffffffffffffffffffffffffffffffffffffff1681526020018460a0015173ffffffffffffffffffffffffffffffffffffffff1681526020018781526020018460e00151815260200184610100015165ffffffffffff168152602001846101200151815250604051806040016040528060008152602001604051806020016040528060008152508152506040518363ffffffff1660e01b8152600401610270929190614ae3565b600060405180830381600087803b15801561028a57600080fd5b505af192505050801561029b575060015b6102c65760608101516102c69073ffffffffffffffffffffffffffffffffffffffff87169086610821565b5050505050505050565b81610100015165ffffffffffff16421115610317576040517f1ab7da6b00000000000000000000000000000000000000000000000000000000815260040160405180910390fd5b6040805161016081018252600080825260208201819052918101829052606081018290526080810182905260a0810182905260c0810182905260e0810182905261010081018290526101208101829052610140810191909152825173ffffffffffffffffffffffffffffffffffffffff908116825260208085015161ffff9081169184019190915260408086018051831660808087019182526060808a015187169488019490945260e08901519387019390935290519092169091526101008086015165ffffffffffff1660a085015260c0808701519085015290850180518316918401919091525116610463578260c00151341015610443576040517f1985c73500000000000000000000000000000000000000000000000000000000815260040160405180910390fd5b60c08301516104529034614b4a565b6101408201523060e08201526105f5565b3360e082015234610140820152600061047f6020840184614b5d565b905011156105f5577f1c1cf3c8827d48db80e17913589584c81d7f8da7f2100c9a87a7bf64829a0e1060010160009054906101000a900473ffffffffffffffffffffffffffffffffffffffff1673ffffffffffffffffffffffffffffffffffffffff16632b67b5703360405180606001604052806040518060800160405280896080015173ffffffffffffffffffffffffffffffffffffffff1681526020018960c0015173ffffffffffffffffffffffffffffffffffffffff16815260200189610100015165ffffffffffff168152602001886000013565ffffffffffff1681525081526020013073ffffffffffffffffffffffffffffffffffffffff16815260200187610100015165ffffffffffff168152508580602001906105a39190614b5d565b6040518563ffffffff1660e01b81526004016105c29493929190614bc9565b600060405180830381600087803b1580156105dc57600080fd5b505af11580156105f0573d6000803e3d6000fd5b505050505b600061061a846101200151604080518082019091528181528151909101602082015290565b905061062681836108fa565b60c081015161010082015160a0870151929450909173ffffffffffffffffffffffffffffffffffffffff80831691161461068c576040517fae39073000000000000000000000000000000000000000000000000000000000815260040160405180910390fd5b61069e8660e001518760400151610ac7565b8210156106d7576040517f42301c2300000000000000000000000000000000000000000000000000000000815260040160405180910390fd5b8361012001516001036106ec57505050505050565b61070d86600001518760a00151886020015161ffff168960e0015186610af5565b915081600003610749576040517f42301c2300000000000000000000000000000000000000000000000000000000815260040160405180910390fd5b73ffffffffffffffffffffffffffffffffffffffff81166107b457856060015173ffffffffffffffffffffffffffffffffffffffff166108fc839081150290604051600060405180830381858888f193505050501580156107ae573d6000803e3d6000fd5b506107db565b60608601516107db9073ffffffffffffffffffffffffffffffffffffffff83169084610821565b6101408401511561081957610140840151604051339180156108fc02916000818181858888f19350505050158015610817573d6000803e3d6000fd5b505b505050505050565b60405173ffffffffffffffffffffffffffffffffffffffff83166024820152604481018290526108f59084907fa9059cbb00000000000000000000000000000000000000000000000000000000906064015b604080517fffffffffffffffffffffffffffffffffffffffffffffffffffffffffffffffe08184030181529190526020810180517bffffffffffffffffffffffffffffffffffffffffffffffffffffffff167fffffffff0000000000000000000000000000000000000000000000000000000090931692909217909152610bae565b505050565b6040805161016081018252600080825260208201819052918101829052606081018290526080810182905260a0810182905260c0810182905260e081018290526101008101829052610120810182905261014081019190915260006109658480516001018051915290565b60ff16905060005b81811015610abb5760006109878680516001018051915290565b60ff169050600181036109a45761099d85610cbd565b9450610aa8565b600281036109b55761099d85610e73565b600381036109c75761099d86866110be565b600481036109d95761099d8686611682565b600581036109eb5761099d86866119e2565b600681036109fd5761099d8686612178565b60078103610a0f5761099d868661268a565b60088103610a215761099d8686612bb0565b60098103610a7657610a34600184614b4a565b8214610a6c576040517fe31c95e900000000000000000000000000000000000000000000000000000000815260040160405180910390fd5b61099d8686612fc5565b6040517f8ccd166700000000000000000000000000000000000000000000000000000000815260040160405180910390fd5b5080610ab381614c8b565b91505061096d565b50829150505b92915050565b6000612710610ad68382614cc3565b610ae49061ffff1685614cde565b610aee9190614d24565b9392505050565b60006107d0841115610b3c576040517f7b9314200000000000000000000000000000000000000000000000000000000081526107d060048201526024015b60405180910390fd5b60008284811115610b4e575050828203835b612710818702049190910190600073ffffffffffffffffffffffffffffffffffffffff891615610b845760646032840204610b87565b60005b9050808303838214610b9f57610b9f8a8a8484613681565b50505090910395945050505050565b6000610c10826040518060400160405280602081526020017f5361666545524332303a206c6f772d6c6576656c2063616c6c206661696c65648152508573ffffffffffffffffffffffffffffffffffffffff166137869092919063ffffffff16565b9050805160001480610c31575080806020019051810190610c319190614d5f565b6108f5576040517f08c379a000000000000000000000000000000000000000000000000000000000815260206004820152602a60248201527f5361666545524332303a204552433230206f7065726174696f6e20646964206e60448201527f6f742073756363656564000000000000000000000000000000000000000000006064820152608401610b33565b6040805161016081018252600080825260208201819052918101829052606081018290526080810182905260a0810182905260c0810182905260e081018290526101008082018390526101208201839052610140820192909252908201517f1c1cf3c8827d48db80e17913589584c81d7f8da7f2100c9a87a7bf64829a0e109073ffffffffffffffffffffffffffffffffffffffff1615610d8a576040517f45369fbb00000000000000000000000000000000000000000000000000000000815260040160405180910390fd5b60e083015173ffffffffffffffffffffffffffffffffffffffff163014610ddd576040517f32d40df100000000000000000000000000000000000000000000000000000000815260040160405180910390fd5b805473ffffffffffffffffffffffffffffffffffffffff16610100840181905260c0840151604080517fd0e30db0000000000000000000000000000000000000000000000000000000008152905163d0e30db0929160048082019260009290919082900301818588803b158015610e5357600080fd5b505af1158015610e67573d6000803e3d6000fd5b50959695505050505050565b6040805161016081018252600080825260208201819052918101829052606081018290526080810182905260a0810182905260c0810182905260e08101829052610100810182905261012081018290526101408101829052907f1c1cf3c8827d48db80e17913589584c81d7f8da7f2100c9a87a7bf64829a0e10805461010085015191925073ffffffffffffffffffffffffffffffffffffffff918216911614610f49576040517fb2ee070800000000000000000000000000000000000000000000000000000000815260040160405180910390fd5b60e083015173ffffffffffffffffffffffffffffffffffffffff81163014801590610f75573060e08601525b6000610100860152801561102757600183015460c086015184546040517f36c7851600000000000000000000000000000000000000000000000000000000815273ffffffffffffffffffffffffffffffffffffffff8681166004830152306024830152928316604482015290821660648201529116906336c7851690608401600060405180830381600087803b15801561100e57600080fd5b505af1158015611022573d6000803e3d6000fd5b505050505b825460c08601516040517f2e1a7d4d00000000000000000000000000000000000000000000000000000000815273ffffffffffffffffffffffffffffffffffffffff90921691632e1a7d4d916110839160040190815260200190565b600060405180830381600087803b15801561109d57600080fd5b505af11580156110b1573d6000803e3d6000fd5b5096979650505050505050565b6040805161016081018252600080825260208201819052918101829052606081018290526080810182905260a0810182905260c0810182905260e081018290526101008101829052610120810182905261014081019190915261010082015173ffffffffffffffffffffffffffffffffffffffff16611169576040517fb10b947e00000000000000000000000000000000000000000000000000000000815260040160405180910390fd5b6040805160808101825260008082526020820181905291810182905260608101919091528351601401805190855273ffffffffffffffffffffffffffffffffffffffff1681528351601401805190855273ffffffffffffffffffffffffffffffffffffffff1660208201528351600101805190855260ff1660011460408201528351600201805190855261ffff16606082015260e08301513073ffffffffffffffffffffffffffffffffffffffff9091160361125c5761125781602001518460c0015185610100015173ffffffffffffffffffffffffffffffffffffffff166108219092919063ffffffff16565b611335565b7f1c1cf3c8827d48db80e17913589584c81d7f8da7f2100c9a87a7bf64829a0e106001015460e0840151602083015160c08601516101008701516040517f36c7851600000000000000000000000000000000000000000000000000000000815273ffffffffffffffffffffffffffffffffffffffff948516600482015292841660248401529083166044830152821660648201529116906336c7851690608401600060405180830381600087803b15801561131657600080fd5b505af115801561132a573d6000803e3d6000fd5b50503060e086015250505b600080826020015173ffffffffffffffffffffffffffffffffffffffff16630902f1ac6040518163ffffffff1660e01b8152600401606060405180830381865afa158015611387573d6000803e3d6000fd5b505050506040513d601f19601f820116820180604052508101906113ab9190614d9f565b506dffffffffffffffffffffffffffff1691506dffffffffffffffffffffffffffff16915082604001516113db57905b606083015160c086015161ffff612710928303169184029082029081019083028161140857611408614cf5565b0460c08701525082516040517f70a0823100000000000000000000000000000000000000000000000000000000815230600482015260009173ffffffffffffffffffffffffffffffffffffffff16906370a0823190602401602060405180830381865afa15801561147d573d6000803e3d6000fd5b505050506040513d601f19601f820116820180604052508101906114a19190614def565b9050836020015173ffffffffffffffffffffffffffffffffffffffff1663022c0d9f85604001516114d6578760c001516114d9565b60005b86604001516114e95760006114ef565b8860c001515b6040517fffffffff0000000000000000000000000000000000000000000000000000000060e085901b16815260048101929092526024820152306044820152608060648201526000608482015260a401600060405180830381600087803b15801561155957600080fd5b505af115801561156d573d6000803e3d6000fd5b505085516040517f70a082310000000000000000000000000000000000000000000000000000000081523060048201526000935073ffffffffffffffffffffffffffffffffffffffff90911691506370a0823190602401602060405180830381865afa1580156115e1573d6000803e3d6000fd5b505050506040513d601f19601f820116820180604052508101906116059190614def565b905081811080611622575060c087015161161f9083614e08565b81105b15611659576040517f946beb5300000000000000000000000000000000000000000000000000000000815260040160405180910390fd5b5050915173ffffffffffffffffffffffffffffffffffffffff1661010085015250919392505050565b6040805161016081018252600080825260208201819052918101829052606081018290526080810182905260a0810182905260c0810182905260e081018290526101008101829052610120810182905261014081019190915260006116ed8480516001018051915290565b60ff16905060008360c00151905060006002831015611738576040517f1d6beb5700000000000000000000000000000000000000000000000000000000815260040160405180910390fd5b60008060005b858110156119af576000611753600188614b4a565b821061175f578561178f565b6127106117728b80516002018051915290565b61ffff168a60c001516117859190614cde565b61178f9190614d24565b9050858111156117cb576040517f0f24c51700000000000000000000000000000000000000000000000000000000815260040160405180910390fd5b6117d58187614b4a565b6040805161016081018252600080825260208201819052918101829052606081018290526080810182905260a0810182905260e0808201838152610100808401858152610120850186905261014085019590955260c08401879052918e015173ffffffffffffffffffffffffffffffffffffffff908116909152908d0151169091529096506118648b826108fa565b90508061012001516001036118a5576040517fd35869f800000000000000000000000000000000000000000000000000000000815260040160405180910390fd5b826000036118c1578060e0015193508061010001519450611994565b8473ffffffffffffffffffffffffffffffffffffffff1681610100015173ffffffffffffffffffffffffffffffffffffffff161461192b576040517fd7af48f200000000000000000000000000000000000000000000000000000000815260040160405180910390fd5b8373ffffffffffffffffffffffffffffffffffffffff168160e0015173ffffffffffffffffffffffffffffffffffffffff1614611994576040517f51a769fd00000000000000000000000000000000000000000000000000000000815260040160405180910390fd5b60c08101516119a39087614e08565b9550505060010161173e565b5073ffffffffffffffffffffffffffffffffffffffff90811660e08801521661010086015260c085015250919392505050565b6040805161016081018252600080825260208201819052918101829052606081018290526080810182905260a0810182905260c0810182905260e0810182905261010081018290526101208101829052610140810191909152611a5f60405180606001604052806060815260200160608152602001606081525090565b6000611a718580516001018051915290565b60ff169050611a81816001614e08565b67ffffffffffffffff811115611a9957611a99614494565b604051908082528060200260200182016040528015611ac2578160200160208202803683370190505b508083526101008501518151909190600090611ae057611ae0614e1b565b602002602001019073ffffffffffffffffffffffffffffffffffffffff16908173ffffffffffffffffffffffffffffffffffffffff168152505060005b81811015611b7957855160140180519087528351611b3c836001614e08565b81518110611b4c57611b4c614e1b565b73ffffffffffffffffffffffffffffffffffffffff90921660209283029190910190910152600101611b1d565b50611b84858261379d565b6020830152611b93858261383f565b6040830152815180516000919083908110611bb057611bb0614e1b565b60209081029190910101516040517f70a0823100000000000000000000000000000000000000000000000000000000815230600482015273ffffffffffffffffffffffffffffffffffffffff909116906370a0823190602401602060405180830381865afa158015611c26573d6000803e3d6000fd5b505050506040513d601f19601f82011682018060405250810190611c4a9190614def565b90506000611c6a84604001518760c00151866000015187602001516138c8565b90503073ffffffffffffffffffffffffffffffffffffffff168660e0015173ffffffffffffffffffffffffffffffffffffffff1603611cfa57611cf58460200151600081518110611cbd57611cbd614e1b565b60200260200101518760c0015188610100015173ffffffffffffffffffffffffffffffffffffffff166108219092919063ffffffff16565b611df6565b7f1c1cf3c8827d48db80e17913589584c81d7f8da7f2100c9a87a7bf64829a0e115460e08701516020860151805173ffffffffffffffffffffffffffffffffffffffff909316926336c78516929190600090611d5857611d58614e1b565b60200260200101518960c001518a61010001516040518563ffffffff1660e01b8152600401611dbd949392919073ffffffffffffffffffffffffffffffffffffffff948516815292841660208401529083166040830152909116606082015260800190565b600060405180830381600087803b158015611dd757600080fd5b505af1158015611deb573d6000803e3d6000fd5b50503060e089015250505b60005b83811015611ffa576000611e0e826001614e08565b9050600086600001518281518110611e2857611e28614e1b565b602002602001015173ffffffffffffffffffffffffffffffffffffffff1687600001518481518110611e5c57611e5c614e1b565b602002602001015173ffffffffffffffffffffffffffffffffffffffff1610611e86576000611e89565b60015b905060006002886000015151611e9f9190614b4a565b8410611eab5730611eca565b87602001518381518110611ec157611ec1614e1b565b60200260200101515b905087602001518481518110611ee257611ee2614e1b565b602002602001015173ffffffffffffffffffffffffffffffffffffffff1663022c0d9f83611f2957868581518110611f1c57611f1c614e1b565b6020026020010151611f2c565b60005b84611f38576000611f53565b878681518110611f4a57611f4a614e1b565b60200260200101515b6040517fffffffff0000000000000000000000000000000000000000000000000000000060e085901b1681526004810192909252602482015273ffffffffffffffffffffffffffffffffffffffff84166044820152608060648201526000608482015260a401600060405180830381600087803b158015611fd357600080fd5b505af1158015611fe7573d6000803e3d6000fd5b505060019095019450611df99350505050565b5060008460000151848151811061201357612013614e1b565b60209081029190910101516040517f70a0823100000000000000000000000000000000000000000000000000000000815230600482015273ffffffffffffffffffffffffffffffffffffffff909116906370a0823190602401602060405180830381865afa158015612089573d6000803e3d6000fd5b505050506040513d601f19601f820116820180604052508101906120ad9190614def565b905081600183516120be9190614b4a565b815181106120ce576120ce614e1b565b60200260200101518760c0018181525050828110806120fa575060c08701516120f79084614e08565b81105b15612131576040517f946beb5300000000000000000000000000000000000000000000000000000000815260040160405180910390fd5b845180518590811061214557612145614e1b565b602090810291909101015173ffffffffffffffffffffffffffffffffffffffff1661010088015250949695505050505050565b6040805161016081018252600080825260208201819052918101829052606081018290526080810182905260a0810182905260c0810182905260e08101829052610100810182905261012081018290526101408101919091526040805160808101825260008082526020820181905291810182905260608101919091528351601401805190855273ffffffffffffffffffffffffffffffffffffffff1681528351601401805190855273ffffffffffffffffffffffffffffffffffffffff90811660208301526101008401511661227b576040517fb10b947e00000000000000000000000000000000000000000000000000000000815260040160405180910390fd5b80516040517f70a0823100000000000000000000000000000000000000000000000000000000815230600482015260009173ffffffffffffffffffffffffffffffffffffffff16906370a0823190602401602060405180830381865afa1580156122e9573d6000803e3d6000fd5b505050506040513d601f19601f8201168201806040525081019061230d9190614def565b90506000826000015173ffffffffffffffffffffffffffffffffffffffff1685610100015173ffffffffffffffffffffffffffffffffffffffff161090506123a760405180606001604052808760c0015181526020018760e0015173ffffffffffffffffffffffffffffffffffffffff16815260200187610100015173ffffffffffffffffffffffffffffffffffffffff16815250613afd565b801561248957602083015160c08601516040517f128acb08000000000000000000000000000000000000000000000000000000008152306004820152831515602482015260448101919091526401000276a4606482015260a06084820152600060a482018190529173ffffffffffffffffffffffffffffffffffffffff169063128acb089060c40160408051808303816000875af115801561244d573d6000803e3d6000fd5b505050506040513d601f19601f820116820180604052508101906124719190614e4a565b9150508061247e90614e6e565b60c08701525061256f565b602083015160c08601516040517f128acb080000000000000000000000000000000000000000000000000000000081523060048201528315156024820152604481019190915273fffd8963efd1fc6a506488495d951d5263988d25606482015260a06084820152600060a482018190529173ffffffffffffffffffffffffffffffffffffffff169063128acb089060c40160408051808303816000875af1158015612538573d6000803e3d6000fd5b505050506040513d601f19601f8201168201806040525081019061255c9190614e4a565b50905061256881614e6e565b60c0870152505b612577613c66565b82516040517f70a0823100000000000000000000000000000000000000000000000000000000815230600482015260009173ffffffffffffffffffffffffffffffffffffffff16906370a0823190602401602060405180830381865afa1580156125e5573d6000803e3d6000fd5b505050506040513d601f19601f820116820180604052508101906126099190614def565b905082811080612626575060c08601516126239084614e08565b81105b1561265d576040517f946beb5300000000000000000000000000000000000000000000000000000000815260040160405180910390fd5b5050905173ffffffffffffffffffffffffffffffffffffffff1661010084015250503060e0820152919050565b6040805161016081018252600080825260208201819052918101829052606081018290526080810182905260a0810182905260c0810182905260e081018290526101008101829052610120810182905261014081019190915261270760405180606001604052806060815260200160608152602001606081525090565b60006127198580516001018051915290565b60ff169050612728858261379d565b8252612734858261379d565b60208301528151600090612749600184614b4a565b8151811061275957612759614e1b565b60209081029190910101516040517f70a0823100000000000000000000000000000000000000000000000000000000815230600482015290915060009073ffffffffffffffffffffffffffffffffffffffff8316906370a0823190602401602060405180830381865afa1580156127d4573d6000803e3d6000fd5b505050506040513d601f19601f820116820180604052508101906127f89190614def565b905060005b83811015612ab9576000811561283757855161281a600184614b4a565b8151811061282a5761282a614e1b565b602002602001015161283e565b8761010001515b90508560000151828151811061285657612856614e1b565b60209081029190910181015173ffffffffffffffffffffffffffffffffffffffff9081166101008b018190526040805160608101825260c08d0151815260e08d015184169481019490945291841691830182905211906128b590613afd565b826000036128c4573060e08a01525b6000876020015184815181106128dc576128dc614e1b565b6020026020010151905081156129c45760c08a01516040517f128acb08000000000000000000000000000000000000000000000000000000008152306004820152831515602482015260448101919091526401000276a4606482015260a06084820152600060a482018190529073ffffffffffffffffffffffffffffffffffffffff83169063128acb089060c40160408051808303816000875af1158015612988573d6000803e3d6000fd5b505050506040513d601f19601f820116820180604052508101906129ac9190614e4a565b915050806129b990614e6e565b60c08c015250612aa6565b60c08a01516040517f128acb080000000000000000000000000000000000000000000000000000000081523060048201528315156024820152604481019190915273fffd8963efd1fc6a506488495d951d5263988d25606482015260a06084820152600060a482018190529073ffffffffffffffffffffffffffffffffffffffff83169063128acb089060c40160408051808303816000875af1158015612a6f573d6000803e3d6000fd5b505050506040513d601f19601f82011682018060405250810190612a939190614e4a565b509050612a9f81614e6e565b60c08c0152505b612aae613c66565b5050506001016127fd565b506101008601516040517f70a0823100000000000000000000000000000000000000000000000000000000815230600482015260009173ffffffffffffffffffffffffffffffffffffffff16906370a0823190602401602060405180830381865afa158015612b2c573d6000803e3d6000fd5b505050506040513d601f19601f82011682018060405250810190612b509190614def565b905081811080612b6d575060c0870151612b6a9083614e08565b81105b15612ba4576040517f946beb5300000000000000000000000000000000000000000000000000000000815260040160405180910390fd5b50949695505050505050565b6040805161016081018252600080825260208201819052918101829052606081018290526080810182905260a0810182905260c0810182905260e08101829052610100810182905261012081018290526101408101919091526040805160c081018252600080825260208201819052918101829052606081018290526080810182905260a08101919091528351601401805190855273ffffffffffffffffffffffffffffffffffffffff1681528351601401805190855273ffffffffffffffffffffffffffffffffffffffff1660208201528351600101805190855260ff1660408201528351600101805190855260ff1660608201528351600101805190855260ff1660808201528351600101805190855260ff1660011460a0820152610100830151815160e085015173ffffffffffffffffffffffffffffffffffffffff9283161592918216159130911614612dd3577f1c1cf3c8827d48db80e17913589584c81d7f8da7f2100c9a87a7bf64829a0e106001015460e086015160c08701516101008801516040517f36c7851600000000000000000000000000000000000000000000000000000000815273ffffffffffffffffffffffffffffffffffffffff93841660048201523060248201529183166044830152821660648201529116906336c7851690608401600060405180830381600087803b158015612db457600080fd5b505af1158015612dc8573d6000803e3d6000fd5b50503060e088015250505b600081612e705783516040517f70a0823100000000000000000000000000000000000000000000000000000000815230600482015273ffffffffffffffffffffffffffffffffffffffff909116906370a0823190602401602060405180830381865afa158015612e47573d6000803e3d6000fd5b505050506040513d601f19601f82011682018060405250810190612e6b9190614def565b612e72565b475b905082612eb157612eb184602001518760c0015188610100015173ffffffffffffffffffffffffffffffffffffffff16613cc69092919063ffffffff16565b612eeb84608001518560a00151866020015186612ecf576000612ed5565b8960c001515b886040015189606001518c60c001516000613dbc565b600082612f885784516040517f70a0823100000000000000000000000000000000000000000000000000000000815230600482015273ffffffffffffffffffffffffffffffffffffffff909116906370a0823190602401602060405180830381865afa158015612f5f573d6000803e3d6000fd5b505050506040513d601f19601f82011682018060405250810190612f839190614def565b612f8a565b475b855173ffffffffffffffffffffffffffffffffffffffff166101008901529050612fb48282614b4a565b60c088015250949695505050505050565b6040805161016081018252600080825260208201819052918101829052606081018290526080810182905260a0810182905260c0810182905260e081018290526101008101829052610120810182905261014081019190915261010082015173ffffffffffffffffffffffffffffffffffffffff16613070576040517fb10b947e00000000000000000000000000000000000000000000000000000000815260040160405180910390fd5b6130a66040518060a00160405280600061ffff168152602001600081526020016000815260200160008152602001606081525090565b8351600201805190855261ffff1681528351600101805190855260ff1660208201528351600101805190855260ff1660408201528351600401805190855263ffffffff166060820181905215613204576040805161014081018252600080825260208083018281528385018381526060808601858152608080880187905260a080890188815260c08a0189905260e08a018981526101008b01998a526101208b019586528e5173ffffffffffffffffffffffffffffffffffffffff9081168c528f8a015161ffff908116909952938f01519097169095528c8a015182169092528c516014018051908e52169092528a5184018051908c5290925288015165ffffffffffff169092528751808201805190910182018952909152915190916131cf91839101614ea6565b604080517fffffffffffffffffffffffffffffffffffffffffffffffffffffffffffffffe08184030181529190526080830152505b80608001515160000361323a578251610100840151602085015160c086015161323493929161ffff169080610af5565b60c08401525b61324c83606001518460800151610ac7565b8360c001511015613289576040517f42301c2300000000000000000000000000000000000000000000000000000000815260040160405180910390fd5b7f1c1cf3c8827d48db80e17913589584c81d7f8da7f2100c9a87a7bf64829a0e125461010084015173ffffffffffffffffffffffffffffffffffffffff9182169116156134705760e084015173ffffffffffffffffffffffffffffffffffffffff1630146133c3577f1c1cf3c8827d48db80e17913589584c81d7f8da7f2100c9a87a7bf64829a0e106001015460e085015160c08601516101008701516040517f36c7851600000000000000000000000000000000000000000000000000000000815273ffffffffffffffffffffffffffffffffffffffff93841660048201523060248201529183166044830152821660648201529116906336c7851690608401600060405180830381600087803b1580156133a457600080fd5b505af11580156133b8573d6000803e3d6000fd5b50503060e087015250505b6134708260800151516000146133d95781613448565b8173ffffffffffffffffffffffffffffffffffffffff1663a9e56f3c6040518163ffffffff1660e01b8152600401602060405180830381865afa158015613424573d6000803e3d6000fd5b505050506040513d601f19601f820116820180604052508101906134489190614eb9565b60c086015161010087015173ffffffffffffffffffffffffffffffffffffffff169190613cc6565b60016101208501526080820151511561348957806134f8565b8073ffffffffffffffffffffffffffffffffffffffff1663a9e56f3c6040518163ffffffff1660e01b8152600401602060405180830381865afa1580156134d4573d6000803e3d6000fd5b505050506040513d601f19601f820116820180604052508101906134f89190614eb9565b73ffffffffffffffffffffffffffffffffffffffff16639fbf10fc856101400151846000015185602001518660400151308a60c0015160648c60c00151605f6135419190614cde565b61354b9190614d24565b60405180606001604052808c606001518152602001600081526020016040518060200160405280600081525081525060008c608001515111613591578d60400151613593565b305b6040516020016135ce919060609190911b7fffffffffffffffffffffffffffffffffffffffff00000000000000000000000016815260140190565b604080517fffffffffffffffffffffffffffffffffffffffffffffffffffffffffffffffe08184030181529082905260808e01517fffffffff0000000000000000000000000000000000000000000000000000000060e08d901b16835261363e9998979695949392600401614ed6565b6000604051808303818588803b15801561365757600080fd5b505af115801561366b573d6000803e3d6000fd5b5050600061014088015250949695505050505050565b7f77fbd1c38a5ead50a5764a860fef6b91e5432a95f91228e67197edaf911cfc8d73ffffffffffffffffffffffffffffffffffffffff8416156136f15773ffffffffffffffffffffffffffffffffffffffff8516600090815260028201602052604090206136ef9085614147565b505b6136fb8186614147565b5073ffffffffffffffffffffffffffffffffffffffff858116600081815260038401602090815260408083209489168084529482528083208054890190556004860182529182902080548801905581518781529081018690527fb9c71741297b7329823b5575aa676062720448277d6da61cf68eb0fed6c4baf4910160405180910390a35050505050565b60606137958484600085614169565b949350505050565b60608167ffffffffffffffff8111156137b8576137b8614494565b6040519080825280602002602001820160405280156137e1578160200160208202803683370190505b50905060005b82811015613838578351601401805190855282828151811061380b5761380b614e1b565b73ffffffffffffffffffffffffffffffffffffffff909216602092830291909101909101526001016137e7565b5092915050565b60608167ffffffffffffffff81111561385a5761385a614494565b604051908082528060200260200182016040528015613883578160200160208202803683370190505b50905060005b8281101561383857835160020180519085528282815181106138ad576138ad614e1b565b61ffff90921660209283029190910190910152600101613889565b805182516060919067ffffffffffffffff8111156138e8576138e8614494565b604051908082528060200260200182016040528015613911578160200160208202803683370190505b509150848260008151811061392857613928614e1b565b60200260200101818152505060005b81811015613af357600085828151811061395357613953614e1b565b6020026020010151905060008683600161396d9190614e08565b8151811061397d5761397d614e1b565b60200260200101519050600089848151811061399b5761399b614e1b565b60200260200101516127106139b09190614cc3565b61ffff1690506000808886815181106139cb576139cb614e1b565b602002602001015173ffffffffffffffffffffffffffffffffffffffff16630902f1ac6040518163ffffffff1660e01b8152600401606060405180830381865afa158015613a1d573d6000803e3d6000fd5b505050506040513d601f19601f82011682018060405250810190613a419190614d9f565b506dffffffffffffffffffffffffffff1691506dffffffffffffffffffffffffffff1691508373ffffffffffffffffffffffffffffffffffffffff168573ffffffffffffffffffffffffffffffffffffffff161115613a9c57905b828b0282612710020181848d020281613ab757613ab7614cf5565b049a508a88613ac7886001614e08565b81518110613ad757613ad7614e1b565b6020908102919091010152505060019093019250613937915050565b5050949350505050565b7f3029b773e586da235d6a0709bacd2cb14a2e6562f997f3c8684513a487bcbf7a5460ff16600103613b5b576040517f65d4e04900000000000000000000000000000000000000000000000000000000815260040160405180910390fd5b7f3029b773e586da235d6a0709bacd2cb14a2e6562f997f3c8684513a487bcbf7a805460017fffffffffffffffffffffffffffffffffffffffffffffffffffffffffffffff0090911617905580517f3029b773e586da235d6a0709bacd2cb14a2e6562f997f3c8684513a487bcbf7b5560208101517f3029b773e586da235d6a0709bacd2cb14a2e6562f997f3c8684513a487bcbf7c80547fffffffffffffffffffffffff000000000000000000000000000000000000000090811673ffffffffffffffffffffffffffffffffffffffff938416179091556040909201517f3029b773e586da235d6a0709bacd2cb14a2e6562f997f3c8684513a487bcbf7d80549093169116179055565b7f3029b773e586da235d6a0709bacd2cb14a2e6562f997f3c8684513a487bcbf7a5460ff16600103613cc4576040517f129c8cdb00000000000000000000000000000000000000000000000000000000815260040160405180910390fd5b565b6040805173ffffffffffffffffffffffffffffffffffffffff8416602482015260448082018490528251808303909101815260649091019091526020810180517bffffffffffffffffffffffffffffffffffffffffffffffffffffffff167f095ea7b300000000000000000000000000000000000000000000000000000000179052613d528482614282565b613db65760405173ffffffffffffffffffffffffffffffffffffffff8416602482015260006044820152613dac9085907f095ea7b30000000000000000000000000000000000000000000000000000000090606401610873565b613db68482610bae565b50505050565b8760ff16600103613eea578615613e75576040517fa6417ed600000000000000000000000000000000000000000000000000000000815260ff808616600f90810b6004840152908516900b6024820152604481018390526064810182905273ffffffffffffffffffffffffffffffffffffffff87169063a6417ed69087906084015b6000604051808303818588803b158015613e5757600080fd5b505af1158015613e6b573d6000803e3d6000fd5b50505050506102c6565b6040517f3df0212400000000000000000000000000000000000000000000000000000000815260ff808616600f90810b6004840152908516900b6024820152604481018390526064810182905273ffffffffffffffffffffffffffffffffffffffff871690633df02124908790608401613e3e565b8760ff1660020361402a578615613fb5576040517fa6417ed600000000000000000000000000000000000000000000000000000000815260ff808616600f90810b6004840152908516900b6024820152604481018390526064810182905273ffffffffffffffffffffffffffffffffffffffff87169063a6417ed69087906084015b60206040518083038185885af1158015613f8a573d6000803e3d6000fd5b50505050506040513d601f19601f82011682018060405250810190613faf9190614def565b506102c6565b6040517f3df0212400000000000000000000000000000000000000000000000000000000815260ff808616600f90810b6004840152908516900b6024820152604481018390526064810182905273ffffffffffffffffffffffffffffffffffffffff871690633df02124908790608401613f6c565b8760ff166003036141155786156140a8576040517f65b2489b00000000000000000000000000000000000000000000000000000000815260ff808616600483015284166024820152604481018390526064810182905273ffffffffffffffffffffffffffffffffffffffff8716906365b2489b908790608401613f6c565b6040517f5b41b90800000000000000000000000000000000000000000000000000000000815260ff808616600483015284166024820152604481018390526064810182905273ffffffffffffffffffffffffffffffffffffffff871690635b41b908908790608401613f6c565b6040517ff1c43ede00000000000000000000000000000000000000000000000000000000815260040160405180910390fd5b6000610aee8373ffffffffffffffffffffffffffffffffffffffff8416614343565b6060824710156141fb576040517f08c379a000000000000000000000000000000000000000000000000000000000815260206004820152602660248201527f416464726573733a20696e73756666696369656e742062616c616e636520666f60448201527f722063616c6c00000000000000000000000000000000000000000000000000006064820152608401610b33565b6000808673ffffffffffffffffffffffffffffffffffffffff1685876040516142249190614f82565b60006040518083038185875af1925050503d8060008114614261576040519150601f19603f3d011682016040523d82523d6000602084013e614266565b606091505b509150915061427787838387614392565b979650505050505050565b60008060008473ffffffffffffffffffffffffffffffffffffffff16846040516142ac9190614f82565b6000604051808303816000865af19150503d80600081146142e9576040519150601f19603f3d011682016040523d82523d6000602084013e6142ee565b606091505b50915091508180156143185750805115806143185750808060200190518101906143189190614d5f565b801561433a575073ffffffffffffffffffffffffffffffffffffffff85163b15155b95945050505050565b600081815260018301602052604081205461438a57508154600181810184556000848152602080822090930184905584548482528286019093526040902091909155610ac1565b506000610ac1565b606083156144285782516000036144215773ffffffffffffffffffffffffffffffffffffffff85163b614421576040517f08c379a000000000000000000000000000000000000000000000000000000000815260206004820152601d60248201527f416464726573733a2063616c6c20746f206e6f6e2d636f6e74726163740000006044820152606401610b33565b5081613795565b613795838381511561443d5781518083602001fd5b806040517f08c379a0000000000000000000000000000000000000000000000000000000008152600401610b339190614f9e565b61ffff8116811461448157600080fd5b50565b803561448f81614471565b919050565b7f4e487b7100000000000000000000000000000000000000000000000000000000600052604160045260246000fd5b604051610140810167ffffffffffffffff811182821017156144e7576144e7614494565b60405290565b604051601f82017fffffffffffffffffffffffffffffffffffffffffffffffffffffffffffffffe016810167ffffffffffffffff8111828210171561453457614534614494565b604052919050565b600067ffffffffffffffff82111561455657614556614494565b50601f017fffffffffffffffffffffffffffffffffffffffffffffffffffffffffffffffe01660200190565b600082601f83011261459357600080fd5b81356145a66145a18261453c565b6144ed565b8181528460208386010111156145bb57600080fd5b816020850160208301376000918101602001919091529392505050565b73ffffffffffffffffffffffffffffffffffffffff8116811461448157600080fd5b803561448f816145d8565b60008060008060008060c0878903121561461e57600080fd5b863561462981614471565b9550602087013567ffffffffffffffff8082111561464657600080fd5b6146528a838b01614582565b9650604089013595506060890135915061466b826145d8565b9093506080880135925060a0880135908082111561468857600080fd5b5061469589828a01614582565b9150509295509295509295565b65ffffffffffff8116811461448157600080fd5b803561448f816146a2565b6000604082840312156146d357600080fd5b50919050565b600080604083850312156146ec57600080fd5b823567ffffffffffffffff8082111561470457600080fd5b90840190610140828703121561471957600080fd5b6147216144c3565b61472a836145fa565b815261473860208401614484565b602082015261474960408401614484565b604082015261475a606084016145fa565b606082015261476b608084016145fa565b608082015261477c60a084016145fa565b60a082015260c083013560c082015260e083013560e08201526101006147a38185016146b6565b9082015261012083810135838111156147bb57600080fd5b6147c789828701614582565b8284015250508094505060208501359150808211156147e557600080fd5b506147f2858286016146c1565b9150509250929050565b805161448f816145d8565b805161448f81614471565b805161448f816146a2565b60005b83811015614838578181015183820152602001614820565b50506000910152565b600082601f83011261485257600080fd5b81516148606145a18261453c565b81815284602083860101111561487557600080fd5b61379582602083016020870161481d565b60006020828403121561489857600080fd5b815167ffffffffffffffff808211156148b057600080fd5b9083019061014082860312156148c557600080fd5b6148cd6144c3565b6148d6836147fc565b81526148e460208401614807565b60208201526148f560408401614807565b6040820152614906606084016147fc565b6060820152614917608084016147fc565b608082015261492860a084016147fc565b60a082015260c083015160c082015260e083015160e082015261010061494f818501614812565b90820152610120838101518381111561496757600080fd5b61497388828701614841565b918301919091525095945050505050565b6000815180845261499c81602086016020860161481d565b601f017fffffffffffffffffffffffffffffffffffffffffffffffffffffffffffffffe0169290920160200192915050565b805173ffffffffffffffffffffffffffffffffffffffff16825260006101406020830151614a02602086018261ffff169052565b506040830151614a18604086018261ffff169052565b506060830151614a40606086018273ffffffffffffffffffffffffffffffffffffffff169052565b506080830151614a68608086018273ffffffffffffffffffffffffffffffffffffffff169052565b5060a0830151614a9060a086018273ffffffffffffffffffffffffffffffffffffffff169052565b5060c083015160c085015260e083015160e085015261010080840151614abf8287018265ffffffffffff169052565b5050610120808401518282870152614ad983870182614984565b9695505050505050565b604081526000614af660408301856149ce565b828103602084015283518152602084015160406020830152614ad96040830182614984565b7f4e487b7100000000000000000000000000000000000000000000000000000000600052601160045260246000fd5b81810381811115610ac157610ac1614b1b565b60008083357fffffffffffffffffffffffffffffffffffffffffffffffffffffffffffffffe1843603018112614b9257600080fd5b83018035915067ffffffffffffffff821115614bad57600080fd5b602001915036819003821315614bc257600080fd5b9250929050565b600061010073ffffffffffffffffffffffffffffffffffffffff80881684528651818151166020860152816020820151166040860152604081015165ffffffffffff80821660608801528060608401511660808801525050508060208801511660a085015250604086015160c08401528060e08401528381840152506101208385828501376000838501820152601f9093017fffffffffffffffffffffffffffffffffffffffffffffffffffffffffffffffe016909101909101949350505050565b60007fffffffffffffffffffffffffffffffffffffffffffffffffffffffffffffffff8203614cbc57614cbc614b1b565b5060010190565b61ffff82811682821603908082111561383857613838614b1b565b8082028115828204841417610ac157610ac1614b1b565b7f4e487b7100000000000000000000000000000000000000000000000000000000600052601260045260246000fd5b600082614d5a577f4e487b7100000000000000000000000000000000000000000000000000000000600052601260045260246000fd5b500490565b600060208284031215614d7157600080fd5b81518015158114610aee57600080fd5b80516dffffffffffffffffffffffffffff8116811461448f57600080fd5b600080600060608486031215614db457600080fd5b614dbd84614d81565b9250614dcb60208501614d81565b9150604084015163ffffffff81168114614de457600080fd5b809150509250925092565b600060208284031215614e0157600080fd5b5051919050565b80820180821115610ac157610ac1614b1b565b7f4e487b7100000000000000000000000000000000000000000000000000000000600052603260045260246000fd5b60008060408385031215614e5d57600080fd5b505080516020909101519092909150565b60007f80000000000000000000000000000000000000000000000000000000000000008203614e9f57614e9f614b1b565b5060000390565b602081526000610aee60208301846149ce565b600060208284031215614ecb57600080fd5b8151610aee816145d8565b600061012061ffff8c1683528a602084015289604084015273ffffffffffffffffffffffffffffffffffffffff891660608401528760808401528660a08401528060c084015285518184015250602085015161014083015260408501516060610160840152614f49610180840182614984565b905082810360e0840152614f5d8186614984565b9050828103610100840152614f728185614984565b9c9b505050505050505050505050565b60008251614f9481846020870161481d565b9190910192915050565b602081526000610aee602083018461498456fea2646970667358221220a72855edf0d06296270395a6be841920b6168693c9f9f298b07caf39e2c2329864736f6c63430008130033",
  "devdoc": {
    "kind": "dev",
    "methods": {},
    "version": 1
  },
  "userdoc": {
    "errors": {
      "FeeTooHigh(uint256)": [
        {
          "notice": "The swap fee is over the maximum allowed"
        }
      ]
    },
    "kind": "user",
    "methods": {
      "sgReceive(uint16,bytes,uint256,address,uint256,bytes)": {
        "notice": "Cross-chain callback from Stargate The tokens have already been received by this contract, `t.payer` is set to this contract before `sgReceive` is called by the router. The `_nonce` field is not checked since it's assumed that LayerZero will not deliver the same message more than once. The Stargate composer is trusted, meaning `_token` and `amountLD` is not verified. Should the Stargate composer be compromised, an attacker can drain this contract. If the payload can not be decoded, tokens are left in this contract. If execution runs out of gas, tokens are left in this contract. If an error occurs during engage, such as insufficient output amount, tokens are refunded to the recipient. See https://stargateprotocol.gitbook.io/stargate/interfaces/evm-solidity-interfaces/istargatereceiver.sol"
      }
    },
    "version": 1
  },
  "storageLayout": {
    "storage": [],
    "types": null
  }
}