{
  "address": "0xc3A341353927a8b091b3ee68c745cdBe8E47a1b1",
  "abi": [
    {
      "inputs": [],
      "name": "CallbackAlreadyActive",
      "type": "error"
    },
    {
      "inputs": [],
      "name": "CallbackStillActive",
      "type": "error"
    },
    {
      "inputs": [],
      "name": "DeadlineExpired",
      "type": "error"
    },
    {
      "inputs": [],
      "name": "EthNotSupportedForWarp",
      "type": "error"
    },
    {
      "inputs": [
        {
          "internalType": "uint16",
          "name": "maxFeeBps",
          "type": "uint16"
        }
      ],
      "name": "FeeTooHigh",
      "type": "error"
    },
    {
      "inputs": [],
      "name": "InconsistentPartPayerOut",
      "type": "error"
    },
    {
      "inputs": [],
      "name": "InconsistentPartTokenOut",
      "type": "error"
    },
    {
      "inputs": [],
      "name": "IncorrectEthValue",
      "type": "error"
    },
    {
      "inputs": [],
      "name": "InsufficientAmountRemaining",
      "type": "error"
    },
    {
      "inputs": [],
      "name": "InsufficientOutputAmount",
      "type": "error"
    },
    {
      "inputs": [],
      "name": "InsufficientTokensDelivered",
      "type": "error"
    },
    {
      "inputs": [],
      "name": "NotEnoughParts",
      "type": "error"
    },
    {
      "inputs": [],
      "name": "UnexpectedPayerForWrap",
      "type": "error"
    },
    {
      "inputs": [],
      "name": "UnexpectedTokenForUnwrap",
      "type": "error"
    },
    {
      "inputs": [],
      "name": "UnexpectedTokenForWrap",
      "type": "error"
    },
    {
      "inputs": [],
      "name": "UnexpectedTokenOut",
      "type": "error"
    },
    {
      "inputs": [],
      "name": "UnexpectedValueAndTokenCombination",
      "type": "error"
    },
    {
      "inputs": [],
      "name": "UnhandledCommand",
      "type": "error"
    },
    {
      "inputs": [],
      "name": "UnhandledPoolKind",
      "type": "error"
    },
    {
      "inputs": [],
      "name": "COMMAND_TYPE_SPLIT",
      "outputs": [
        {
          "internalType": "uint256",
          "name": "",
          "type": "uint256"
        }
      ],
      "stateMutability": "view",
      "type": "function"
    },
    {
      "inputs": [],
      "name": "COMMAND_TYPE_UNWRAP",
      "outputs": [
        {
          "internalType": "uint256",
          "name": "",
          "type": "uint256"
        }
      ],
      "stateMutability": "view",
      "type": "function"
    },
    {
      "inputs": [],
      "name": "COMMAND_TYPE_WARP_CURVE_EXACT_INPUT_SINGLE",
      "outputs": [
        {
          "internalType": "uint256",
          "name": "",
          "type": "uint256"
        }
      ],
      "stateMutability": "view",
      "type": "function"
    },
    {
      "inputs": [],
      "name": "COMMAND_TYPE_WARP_UNI_V2_LIKE_EXACT_INPUT",
      "outputs": [
        {
          "internalType": "uint256",
          "name": "",
          "type": "uint256"
        }
      ],
      "stateMutability": "view",
      "type": "function"
    },
    {
      "inputs": [],
      "name": "COMMAND_TYPE_WARP_UNI_V2_LIKE_EXACT_INPUT_SINGLE",
      "outputs": [
        {
          "internalType": "uint256",
          "name": "",
          "type": "uint256"
        }
      ],
      "stateMutability": "view",
      "type": "function"
    },
    {
      "inputs": [],
      "name": "COMMAND_TYPE_WARP_UNI_V3_LIKE_EXACT_INPUT",
      "outputs": [
        {
          "internalType": "uint256",
          "name": "",
          "type": "uint256"
        }
      ],
      "stateMutability": "view",
      "type": "function"
    },
    {
      "inputs": [],
      "name": "COMMAND_TYPE_WARP_UNI_V3_LIKE_EXACT_INPUT_SINGLE",
      "outputs": [
        {
          "internalType": "uint256",
          "name": "",
          "type": "uint256"
        }
      ],
      "stateMutability": "view",
      "type": "function"
    },
    {
      "inputs": [],
      "name": "COMMAND_TYPE_WRAP",
      "outputs": [
        {
          "internalType": "uint256",
          "name": "",
          "type": "uint256"
        }
      ],
      "stateMutability": "view",
      "type": "function"
    },
    {
      "inputs": [],
      "name": "commandTypeSplit",
      "outputs": [
        {
          "internalType": "uint256",
          "name": "",
          "type": "uint256"
        }
      ],
      "stateMutability": "pure",
      "type": "function"
    },
    {
      "inputs": [],
      "name": "commandTypeUnwrap",
      "outputs": [
        {
          "internalType": "uint256",
          "name": "",
          "type": "uint256"
        }
      ],
      "stateMutability": "pure",
      "type": "function"
    },
    {
      "inputs": [],
      "name": "commandTypeWarpCurveExactInputSingle",
      "outputs": [
        {
          "internalType": "uint256",
          "name": "",
          "type": "uint256"
        }
      ],
      "stateMutability": "pure",
      "type": "function"
    },
    {
      "inputs": [],
      "name": "commandTypeWarpUniV2LikeExactInput",
      "outputs": [
        {
          "internalType": "uint256",
          "name": "",
          "type": "uint256"
        }
      ],
      "stateMutability": "pure",
      "type": "function"
    },
    {
      "inputs": [],
      "name": "commandTypeWarpUniV2LikeExactInputSingle",
      "outputs": [
        {
          "internalType": "uint256",
          "name": "",
          "type": "uint256"
        }
      ],
      "stateMutability": "pure",
      "type": "function"
    },
    {
      "inputs": [],
      "name": "commandTypeWarpUniV3LikeExactInput",
      "outputs": [
        {
          "internalType": "uint256",
          "name": "",
          "type": "uint256"
        }
      ],
      "stateMutability": "pure",
      "type": "function"
    },
    {
      "inputs": [],
      "name": "commandTypeWarpUniV3LikeExactInputSingle",
      "outputs": [
        {
          "internalType": "uint256",
          "name": "",
          "type": "uint256"
        }
      ],
      "stateMutability": "pure",
      "type": "function"
    },
    {
      "inputs": [],
      "name": "commandTypeWrap",
      "outputs": [
        {
          "internalType": "uint256",
          "name": "",
          "type": "uint256"
        }
      ],
      "stateMutability": "pure",
      "type": "function"
    },
    {
      "inputs": [
        {
          "components": [
            {
              "internalType": "address",
              "name": "partner",
              "type": "address"
            },
            {
              "internalType": "uint16",
              "name": "feeBps",
              "type": "uint16"
            },
            {
              "internalType": "uint16",
              "name": "slippageBps",
              "type": "uint16"
            },
            {
              "internalType": "address",
              "name": "recipient",
              "type": "address"
            },
            {
              "internalType": "address",
              "name": "tokenIn",
              "type": "address"
            },
            {
              "internalType": "address",
              "name": "tokenOut",
              "type": "address"
            },
            {
              "internalType": "uint256",
              "name": "amountIn",
              "type": "uint256"
            },
            {
              "internalType": "uint256",
              "name": "amountOut",
              "type": "uint256"
            },
            {
              "internalType": "uint48",
              "name": "deadline",
              "type": "uint48"
            },
            {
              "internalType": "bytes",
              "name": "commands",
              "type": "bytes"
            }
          ],
          "internalType": "struct IWarpLink.Params",
          "name": "params",
          "type": "tuple"
        },
        {
          "components": [
            {
              "internalType": "uint256",
              "name": "nonce",
              "type": "uint256"
            },
            {
              "internalType": "bytes",
              "name": "signature",
              "type": "bytes"
            }
          ],
          "internalType": "struct PermitParams",
          "name": "permit",
          "type": "tuple"
        }
      ],
      "name": "warpLinkEngage",
      "outputs": [],
      "stateMutability": "payable",
      "type": "function"
    }
  ],
  "transactionHash": "0xb3d054bbce6e90008189cba69a252cbd5ea034370784ad39d1d9f86af1990444",
  "args": [],
  "numDeployments": 2,
  "solcInputHash": "67dda12c87973688d0861d0d4554c2ee",
  "bytecode": "0x608060405234801561001057600080fd5b5061409b806100206000396000f3fe60806040526004361061010e5760003560e01c8063cd98504c116100a5578063dc7b39db11610074578063e92a6f0511610059578063e92a6f0514610240578063eb2b767714610255578063fa31c9c01461026a57600080fd5b8063dc7b39db14610216578063e67cbdb81461022b57600080fd5b8063cd98504c146101c4578063cedf0d18146101d9578063d267733d146101ed578063dc76f8721461020257600080fd5b806391f46532116100e157806391f465321461017357806393a4c0cb14610187578063ad5d50261461019b578063b41e3c2c146101b057600080fd5b80632cad76e81461011357806344b14b811461013557806367ec524c1461014a57806372c30b061461015e575b600080fd5b34801561011f57600080fd5b5060085b60405190815260200160405180910390f35b34801561014157600080fd5b50610123600181565b34801561015657600080fd5b506007610123565b34801561016a57600080fd5b50610123600881565b34801561017f57600080fd5b506004610123565b34801561019357600080fd5b506003610123565b3480156101a757600080fd5b50610123600781565b3480156101bc57600080fd5b506006610123565b3480156101d057600080fd5b50610123600681565b3480156101e557600080fd5b506005610123565b3480156101f957600080fd5b50610123600281565b34801561020e57600080fd5b506002610123565b610229610224366004613b26565b61027e565b005b34801561023757600080fd5b50610123600381565b34801561024c57600080fd5b50610123600481565b34801561026157600080fd5b50610123600581565b34801561027657600080fd5b506001610123565b81610100015165ffffffffffff164211156102c5576040517f1ab7da6b00000000000000000000000000000000000000000000000000000000815260040160405180910390fd5b608082015173ffffffffffffffffffffffffffffffffffffffff1615610453577f1c1cf3c8827d48db80e17913589584c81d7f8da7f2100c9a87a7bf64829a0e1060010160009054906101000a900473ffffffffffffffffffffffffffffffffffffffff1673ffffffffffffffffffffffffffffffffffffffff16632b67b5703360405180606001604052806040518060800160405280886080015173ffffffffffffffffffffffffffffffffffffffff1681526020018860c0015173ffffffffffffffffffffffffffffffffffffffff16815260200188610100015165ffffffffffff168152602001876000013565ffffffffffff1681525081526020013073ffffffffffffffffffffffffffffffffffffffff16815260200186610100015165ffffffffffff168152508480602001906104019190613c49565b6040518563ffffffff1660e01b81526004016104209493929190613cb5565b600060405180830381600087803b15801561043a57600080fd5b505af115801561044e573d6000803e3d6000fd5b505050505b60408051608080820183526000808352602083018190529282018381526060830184815260c087015184529186015173ffffffffffffffffffffffffffffffffffffffff16905261010085015165ffffffffffff1690529034900361050e57608083015173ffffffffffffffffffffffffffffffffffffffff16610503576040517fd34bde3a00000000000000000000000000000000000000000000000000000000815260040160405180910390fd5b3360208201526105a4565b608083015173ffffffffffffffffffffffffffffffffffffffff1615610560576040517fd34bde3a00000000000000000000000000000000000000000000000000000000815260040160405180910390fd5b8260c00151341461059d576040517fab0a033b00000000000000000000000000000000000000000000000000000000815260040160405180910390fd5b3060208201525b60006105c9846101200151604080518082019091528181528151909101602082015290565b90506105d5818361073b565b8051604082015160a0870151929450909173ffffffffffffffffffffffffffffffffffffffff808316911614610637576040517fae39073000000000000000000000000000000000000000000000000000000000815260040160405180910390fd5b6106498660e00151876040015161087e565b821015610682576040517f42301c2300000000000000000000000000000000000000000000000000000000815260040160405180910390fd5b61069f86600001518760a0015188602001518960e00151866108ac565b915073ffffffffffffffffffffffffffffffffffffffff811661070c57856060015173ffffffffffffffffffffffffffffffffffffffff166108fc839081150290604051600060405180830381858888f19350505050158015610706573d6000803e3d6000fd5b50610733565b60608601516107339073ffffffffffffffffffffffffffffffffffffffff8316908461096d565b505050505050565b60408051608081018252600080825260208201819052918101829052606081019190915260006107718480516001018051915290565b60ff16905060005b818110156108725760006107938680516001018051915290565b60ff169050600181036107b0576107a985610a46565b945061085f565b600281036107c1576107a985610bbd565b600381036107d3576107a98686610dc8565b600481036107e5576107a98686611334565b600581036107f7576107a986866115dc565b60068103610809576107a98686611d45565b6007810361081b576107a9868661220f565b6008810361082d576107a986866126e9565b6040517f8ccd166700000000000000000000000000000000000000000000000000000000815260040160405180910390fd5b508061086a81613da6565b915050610779565b50829150505b92915050565b600061271061088d8382613dde565b61089b9061ffff1685613df9565b6108a59190613e3f565b9392505050565b60006107d061ffff851611156108f7576040517f8ea70c070000000000000000000000000000000000000000000000000000000081526107d060048201526024015b60405180910390fd5b60008284811115610909575050828203835b61271061ffff87168202049190910190600073ffffffffffffffffffffffffffffffffffffffff8916156109435760646032840204610946565b60005b905080830383821461095e5761095e8a8a8484612ab0565b50505090910395945050505050565b60405173ffffffffffffffffffffffffffffffffffffffff8316602482015260448101829052610a419084907fa9059cbb00000000000000000000000000000000000000000000000000000000906064015b604080517fffffffffffffffffffffffffffffffffffffffffffffffffffffffffffffffe08184030181529190526020810180517bffffffffffffffffffffffffffffffffffffffffffffffffffffffff167fffffffff0000000000000000000000000000000000000000000000000000000090931692909217909152612bb5565b505050565b604080516080810182526000808252602082018190528183018190526060820152908201517f1c1cf3c8827d48db80e17913589584c81d7f8da7f2100c9a87a7bf64829a0e109073ffffffffffffffffffffffffffffffffffffffff1615610ada576040517f45369fbb00000000000000000000000000000000000000000000000000000000815260040160405180910390fd5b602083015173ffffffffffffffffffffffffffffffffffffffff163014610b2d576040517f32d40df100000000000000000000000000000000000000000000000000000000815260040160405180910390fd5b805473ffffffffffffffffffffffffffffffffffffffff166040808501829052845181517fd0e30db0000000000000000000000000000000000000000000000000000000008152915163d0e30db09260048082019260009290919082900301818588803b158015610b9d57600080fd5b505af1158015610bb1573d6000803e3d6000fd5b50959695505050505050565b6040805160808101825260008082526020820181905281830181905260608201527f1c1cf3c8827d48db80e17913589584c81d7f8da7f2100c9a87a7bf64829a0e108054928401519192909173ffffffffffffffffffffffffffffffffffffffff918216911614610c5a576040517fb2ee070800000000000000000000000000000000000000000000000000000000815260040160405180910390fd5b602083015173ffffffffffffffffffffffffffffffffffffffff81163014801590610c86573060208601525b600060408601528015610d34576001830154855184546040517f36c7851600000000000000000000000000000000000000000000000000000000815273ffffffffffffffffffffffffffffffffffffffff8681166004830152306024830152928316604482015290821660648201529116906336c7851690608401600060405180830381600087803b158015610d1b57600080fd5b505af1158015610d2f573d6000803e3d6000fd5b505050505b825485516040517f2e1a7d4d00000000000000000000000000000000000000000000000000000000815273ffffffffffffffffffffffffffffffffffffffff90921691632e1a7d4d91610d8d9160040190815260200190565b600060405180830381600087803b158015610da757600080fd5b505af1158015610dbb573d6000803e3d6000fd5b5096979650505050505050565b6040805160808101825260008082526020820181905281830181905260608201529082015173ffffffffffffffffffffffffffffffffffffffff16610e39576040517f767836b800000000000000000000000000000000000000000000000000000000815260040160405180910390fd5b6040805160808101825260008082526020820181905291810182905260608101919091528351601401805190855273ffffffffffffffffffffffffffffffffffffffff1681528351601401805190855273ffffffffffffffffffffffffffffffffffffffff1660208201528351600101805190855260ff1660011460408201528351600201805190855261ffff16606082015260208301513073ffffffffffffffffffffffffffffffffffffffff90911603610f2257602081015183516040850151610f1d9273ffffffffffffffffffffffffffffffffffffffff9091169161096d565b610ff7565b7f1c1cf3c8827d48db80e17913589584c81d7f8da7f2100c9a87a7bf64829a0e106001015460208481015190830151855160408088015190517f36c7851600000000000000000000000000000000000000000000000000000000815273ffffffffffffffffffffffffffffffffffffffff948516600482015292841660248401529083166044830152821660648201529116906336c7851690608401600060405180830381600087803b158015610fd857600080fd5b505af1158015610fec573d6000803e3d6000fd5b505030602086015250505b600080826020015173ffffffffffffffffffffffffffffffffffffffff16630902f1ac6040518163ffffffff1660e01b8152600401606060405180830381865afa158015611049573d6000803e3d6000fd5b505050506040513d601f19601f8201168201806040525081019061106d9190613e98565b506dffffffffffffffffffffffffffff1691506dffffffffffffffffffffffffffff169150826040015161109d57905b6060830151855161ffff61271092830316918402908202908101908302816110c7576110c7613e10565b0486525082516040517f70a0823100000000000000000000000000000000000000000000000000000000815230600482015260009173ffffffffffffffffffffffffffffffffffffffff16906370a0823190602401602060405180830381865afa158015611139573d6000803e3d6000fd5b505050506040513d601f19601f8201168201806040525081019061115d9190613ee8565b9050836020015173ffffffffffffffffffffffffffffffffffffffff1663022c0d9f856040015161118f578751611192565b60005b86604001516111a25760006111a5565b88515b6040517fffffffff0000000000000000000000000000000000000000000000000000000060e085901b16815260048101929092526024820152306044820152608060648201526000608482015260a401600060405180830381600087803b15801561120f57600080fd5b505af1158015611223573d6000803e3d6000fd5b505085516040517f70a082310000000000000000000000000000000000000000000000000000000081523060048201526000935073ffffffffffffffffffffffffffffffffffffffff90911691506370a0823190602401602060405180830381865afa158015611297573d6000803e3d6000fd5b505050506040513d601f19601f820116820180604052508101906112bb9190613ee8565b9050818110806112d5575086516112d29083613f01565b81105b1561130c576040517f946beb5300000000000000000000000000000000000000000000000000000000815260040160405180910390fd5b5050915173ffffffffffffffffffffffffffffffffffffffff16604085015250919392505050565b604080516080810182526000808252602082018190529181018290526060810191909152600061136a8480516001018051915290565b835160ff919091169150600060028310156113b1576040517f1d6beb5700000000000000000000000000000000000000000000000000000000815260040160405180910390fd5b60008060005b858110156115ad5760006113cc600188613f14565b82106113d85785611405565b6127106113eb8b80516002018051915290565b8a516113fb9161ffff1690613df9565b6114059190613e3f565b905085811115611441576040517f0f24c51700000000000000000000000000000000000000000000000000000000815260040160405180910390fd5b61144b8187613f14565b60408051608081018252600060208083018281528385018381526060850193909352868452908e015173ffffffffffffffffffffffffffffffffffffffff908116909152928d01519092169091529096506114a68b8261073b565b9050826000036114c3578060200151935080604001519450611595565b8473ffffffffffffffffffffffffffffffffffffffff16816040015173ffffffffffffffffffffffffffffffffffffffff161461152c576040517fd7af48f200000000000000000000000000000000000000000000000000000000815260040160405180910390fd5b8373ffffffffffffffffffffffffffffffffffffffff16816020015173ffffffffffffffffffffffffffffffffffffffff1614611595576040517f51a769fd00000000000000000000000000000000000000000000000000000000815260040160405180910390fd5b80516115a19087613f01565b955050506001016113b7565b5073ffffffffffffffffffffffffffffffffffffffff9081166020880152166040860152845250919392505050565b60408051608081018252600080825260208201819052918101829052606081019190915261162460405180606001604052806060815260200160608152602001606081525090565b60006116368580516001018051915290565b60ff169050611646816001613f01565b67ffffffffffffffff81111561165e5761165e6139b9565b604051908082528060200260200182016040528015611687578160200160208202803683370190505b50808352604085015181519091906000906116a4576116a4613f27565b602002602001019073ffffffffffffffffffffffffffffffffffffffff16908173ffffffffffffffffffffffffffffffffffffffff168152505060005b8181101561173d57855160140180519087528351611700836001613f01565b8151811061171057611710613f27565b73ffffffffffffffffffffffffffffffffffffffff909216602092830291909101909101526001016116e1565b506117488582612cc4565b60208301526117578582612d66565b604083015281518051600091908390811061177457611774613f27565b60209081029190910101516040517f70a0823100000000000000000000000000000000000000000000000000000000815230600482015273ffffffffffffffffffffffffffffffffffffffff909116906370a0823190602401602060405180830381865afa1580156117ea573d6000803e3d6000fd5b505050506040513d601f19601f8201168201806040525081019061180e9190613ee8565b9050600061182e8460400151876000015186600001518760200151612def565b90503073ffffffffffffffffffffffffffffffffffffffff16866020015173ffffffffffffffffffffffffffffffffffffffff16036118bd576118b8846020015160008151811061188157611881613f27565b60200260200101518760000151886040015173ffffffffffffffffffffffffffffffffffffffff1661096d9092919063ffffffff16565b6119cb565b7f1c1cf3c8827d48db80e17913589584c81d7f8da7f2100c9a87a7bf64829a0e115460208781015190860151805173ffffffffffffffffffffffffffffffffffffffff909316926336c7851692919060009061191b5761191b613f27565b602090810291909101015189516040808c015190517fffffffff0000000000000000000000000000000000000000000000000000000060e087901b16815273ffffffffffffffffffffffffffffffffffffffff948516600482015292841660248401529083166044830152919091166064820152608401600060405180830381600087803b1580156119ac57600080fd5b505af11580156119c0573d6000803e3d6000fd5b505030602089015250505b60005b83811015611bcf5760006119e3826001613f01565b90506000866000015182815181106119fd576119fd613f27565b602002602001015173ffffffffffffffffffffffffffffffffffffffff1687600001518481518110611a3157611a31613f27565b602002602001015173ffffffffffffffffffffffffffffffffffffffff1610611a5b576000611a5e565b60015b905060006002886000015151611a749190613f14565b8410611a805730611a9f565b87602001518381518110611a9657611a96613f27565b60200260200101515b905087602001518481518110611ab757611ab7613f27565b602002602001015173ffffffffffffffffffffffffffffffffffffffff1663022c0d9f83611afe57868581518110611af157611af1613f27565b6020026020010151611b01565b60005b84611b0d576000611b28565b878681518110611b1f57611b1f613f27565b60200260200101515b6040517fffffffff0000000000000000000000000000000000000000000000000000000060e085901b1681526004810192909252602482015273ffffffffffffffffffffffffffffffffffffffff84166044820152608060648201526000608482015260a401600060405180830381600087803b158015611ba857600080fd5b505af1158015611bbc573d6000803e3d6000fd5b5050600190950194506119ce9350505050565b50600084600001518481518110611be857611be8613f27565b60209081029190910101516040517f70a0823100000000000000000000000000000000000000000000000000000000815230600482015273ffffffffffffffffffffffffffffffffffffffff909116906370a0823190602401602060405180830381865afa158015611c5e573d6000803e3d6000fd5b505050506040513d601f19601f82011682018060405250810190611c829190613ee8565b90508160018351611c939190613f14565b81518110611ca357611ca3613f27565b6020908102919091010151875282811080611cc857508651611cc59084613f01565b81105b15611cff576040517f946beb5300000000000000000000000000000000000000000000000000000000815260040160405180910390fd5b8451805185908110611d1357611d13613f27565b602090810291909101015173ffffffffffffffffffffffffffffffffffffffff16604088015250949695505050505050565b6040805160808101825260008082526020820181905291810182905260608101919091526040805160808101825260008082526020820181905291810182905260608101919091528351601401805190855273ffffffffffffffffffffffffffffffffffffffff1681528351601401805190855273ffffffffffffffffffffffffffffffffffffffff9081166020830152604084015116611e12576040517f767836b800000000000000000000000000000000000000000000000000000000815260040160405180910390fd5b80516040517f70a0823100000000000000000000000000000000000000000000000000000000815230600482015260009173ffffffffffffffffffffffffffffffffffffffff16906370a0823190602401602060405180830381865afa158015611e80573d6000803e3d6000fd5b505050506040513d601f19601f82011682018060405250810190611ea49190613ee8565b90506000826000015173ffffffffffffffffffffffffffffffffffffffff16856040015173ffffffffffffffffffffffffffffffffffffffff16109050611f3c604051806060016040528087600001518152602001876020015173ffffffffffffffffffffffffffffffffffffffff168152602001876040015173ffffffffffffffffffffffffffffffffffffffff16815250613024565b801561201857602083015185516040517f128acb08000000000000000000000000000000000000000000000000000000008152306004820152831515602482015260448101919091526401000276a4606482015260a06084820152600060a482018190529173ffffffffffffffffffffffffffffffffffffffff169063128acb089060c40160408051808303816000875af1158015611fdf573d6000803e3d6000fd5b505050506040513d601f19601f820116820180604052508101906120039190613f56565b9150508061201090613f7a565b8652506120f8565b602083015185516040517f128acb080000000000000000000000000000000000000000000000000000000081523060048201528315156024820152604481019190915273fffd8963efd1fc6a506488495d951d5263988d25606482015260a06084820152600060a482018190529173ffffffffffffffffffffffffffffffffffffffff169063128acb089060c40160408051808303816000875af11580156120c4573d6000803e3d6000fd5b505050506040513d601f19601f820116820180604052508101906120e89190613f56565b5090506120f481613f7a565b8652505b61210061318d565b82516040517f70a0823100000000000000000000000000000000000000000000000000000000815230600482015260009173ffffffffffffffffffffffffffffffffffffffff16906370a0823190602401602060405180830381865afa15801561216e573d6000803e3d6000fd5b505050506040513d601f19601f820116820180604052508101906121929190613ee8565b9050828110806121ac575085516121a99084613f01565b81105b156121e3576040517f946beb5300000000000000000000000000000000000000000000000000000000815260040160405180910390fd5b5050905173ffffffffffffffffffffffffffffffffffffffff1660408401525050306020820152919050565b60408051608081018252600080825260208201819052918101829052606081019190915261225760405180606001604052806060815260200160608152602001606081525090565b60006122698580516001018051915290565b60ff1690506122788582612cc4565b82526122848582612cc4565b60208301528151600090612299600184613f14565b815181106122a9576122a9613f27565b60209081029190910101516040517f70a0823100000000000000000000000000000000000000000000000000000000815230600482015290915060009073ffffffffffffffffffffffffffffffffffffffff8316906370a0823190602401602060405180830381865afa158015612324573d6000803e3d6000fd5b505050506040513d601f19601f820116820180604052508101906123489190613ee8565b905060005b838110156125f6576000811561238757855161236a600184613f14565b8151811061237a5761237a613f27565b602002602001015161238d565b87604001515b9050856000015182815181106123a5576123a5613f27565b60209081029190910181015173ffffffffffffffffffffffffffffffffffffffff9081166040808c0182905280516060810182528c5181528c85015184169481019490945291841691830182905211906123fe90613024565b8260000361240d573060208a01525b60008760200151848151811061242557612425613f27565b6020026020010151905081156125075789516040517f128acb08000000000000000000000000000000000000000000000000000000008152306004820152831515602482015260448101919091526401000276a4606482015260a06084820152600060a482018190529073ffffffffffffffffffffffffffffffffffffffff83169063128acb089060c40160408051808303816000875af11580156124ce573d6000803e3d6000fd5b505050506040513d601f19601f820116820180604052508101906124f29190613f56565b915050806124ff90613f7a565b8b52506125e3565b89516040517f128acb080000000000000000000000000000000000000000000000000000000081523060048201528315156024820152604481019190915273fffd8963efd1fc6a506488495d951d5263988d25606482015260a06084820152600060a482018190529073ffffffffffffffffffffffffffffffffffffffff83169063128acb089060c40160408051808303816000875af11580156125af573d6000803e3d6000fd5b505050506040513d601f19601f820116820180604052508101906125d39190613f56565b5090506125df81613f7a565b8b52505b6125eb61318d565b50505060010161234d565b5060408087015190517f70a0823100000000000000000000000000000000000000000000000000000000815230600482015260009173ffffffffffffffffffffffffffffffffffffffff16906370a0823190602401602060405180830381865afa158015612668573d6000803e3d6000fd5b505050506040513d601f19601f8201168201806040525081019061268c9190613ee8565b9050818110806126a6575086516126a39083613f01565b81105b156126dd576040517f946beb5300000000000000000000000000000000000000000000000000000000815260040160405180910390fd5b50949695505050505050565b6040805160808101825260008082526020820181905291810182905260608101919091526040805160c081018252600080825260208201819052918101829052606081018290526080810182905260a08101919091528351601401805190855273ffffffffffffffffffffffffffffffffffffffff1681528351601401805190855273ffffffffffffffffffffffffffffffffffffffff1660208201528351600101805190855260ff1660408201528351600101805190855260ff1660608201528351600101805190855260ff1660808201528351600101805190855260ff1660011460a082015260408301518151602085015173ffffffffffffffffffffffffffffffffffffffff92831615929182161591309116146128d2577f1c1cf3c8827d48db80e17913589584c81d7f8da7f2100c9a87a7bf64829a0e10600101546020860151865160408089015190517f36c7851600000000000000000000000000000000000000000000000000000000815273ffffffffffffffffffffffffffffffffffffffff93841660048201523060248201529183166044830152821660648201529116906336c7851690608401600060405180830381600087803b1580156128b357600080fd5b505af11580156128c7573d6000803e3d6000fd5b505030602088015250505b60008161296f5783516040517f70a0823100000000000000000000000000000000000000000000000000000000815230600482015273ffffffffffffffffffffffffffffffffffffffff909116906370a0823190602401602060405180830381865afa158015612946573d6000803e3d6000fd5b505050506040513d601f19601f8201168201806040525081019061296a9190613ee8565b612971565b475b9050826129a6576020840151865160408801516129a69273ffffffffffffffffffffffffffffffffffffffff909116916131ed565b6129da84608001518560a001518660200151866129c45760006129c7565b89515b604089015160608a01518c5160006132e3565b600082612a775784516040517f70a0823100000000000000000000000000000000000000000000000000000000815230600482015273ffffffffffffffffffffffffffffffffffffffff909116906370a0823190602401602060405180830381865afa158015612a4e573d6000803e3d6000fd5b505050506040513d601f19601f82011682018060405250810190612a729190613ee8565b612a79565b475b855173ffffffffffffffffffffffffffffffffffffffff1660408901529050612aa28282613f14565b875250949695505050505050565b7f4edbd34b5b006870ab724677d99b508debf8dcac0dc8134c9c43b93f8afe50f073ffffffffffffffffffffffffffffffffffffffff841615612b205773ffffffffffffffffffffffffffffffffffffffff851660009081526002820160205260409020612b1e9085613678565b505b612b2a8186613678565b5073ffffffffffffffffffffffffffffffffffffffff858116600081815260038401602090815260408083209489168084529482528083208054890190556004860182529182902080548801905581518781529081018690527fb9c71741297b7329823b5575aa676062720448277d6da61cf68eb0fed6c4baf4910160405180910390a35050505050565b6000612c17826040518060400160405280602081526020017f5361666545524332303a206c6f772d6c6576656c2063616c6c206661696c65648152508573ffffffffffffffffffffffffffffffffffffffff1661369a9092919063ffffffff16565b9050805160001480612c38575080806020019051810190612c389190613fb2565b610a41576040517f08c379a000000000000000000000000000000000000000000000000000000000815260206004820152602a60248201527f5361666545524332303a204552433230206f7065726174696f6e20646964206e60448201527f6f7420737563636565640000000000000000000000000000000000000000000060648201526084016108ee565b60608167ffffffffffffffff811115612cdf57612cdf6139b9565b604051908082528060200260200182016040528015612d08578160200160208202803683370190505b50905060005b82811015612d5f5783516014018051908552828281518110612d3257612d32613f27565b73ffffffffffffffffffffffffffffffffffffffff90921660209283029190910190910152600101612d0e565b5092915050565b60608167ffffffffffffffff811115612d8157612d816139b9565b604051908082528060200260200182016040528015612daa578160200160208202803683370190505b50905060005b82811015612d5f5783516002018051908552828281518110612dd457612dd4613f27565b61ffff90921660209283029190910190910152600101612db0565b805182516060919067ffffffffffffffff811115612e0f57612e0f6139b9565b604051908082528060200260200182016040528015612e38578160200160208202803683370190505b5091508482600081518110612e4f57612e4f613f27565b60200260200101818152505060005b8181101561301a576000858281518110612e7a57612e7a613f27565b60200260200101519050600086836001612e949190613f01565b81518110612ea457612ea4613f27565b602002602001015190506000898481518110612ec257612ec2613f27565b6020026020010151612710612ed79190613dde565b61ffff169050600080888681518110612ef257612ef2613f27565b602002602001015173ffffffffffffffffffffffffffffffffffffffff16630902f1ac6040518163ffffffff1660e01b8152600401606060405180830381865afa158015612f44573d6000803e3d6000fd5b505050506040513d601f19601f82011682018060405250810190612f689190613e98565b506dffffffffffffffffffffffffffff1691506dffffffffffffffffffffffffffff1691508373ffffffffffffffffffffffffffffffffffffffff168573ffffffffffffffffffffffffffffffffffffffff161115612fc357905b828b0282612710020181848d020281612fde57612fde613e10565b049a508a88612fee886001613f01565b81518110612ffe57612ffe613f27565b6020908102919091010152505060019093019250612e5e915050565b5050949350505050565b7f3029b773e586da235d6a0709bacd2cb14a2e6562f997f3c8684513a487bcbf7a5460ff16600103613082576040517f65d4e04900000000000000000000000000000000000000000000000000000000815260040160405180910390fd5b7f3029b773e586da235d6a0709bacd2cb14a2e6562f997f3c8684513a487bcbf7a805460017fffffffffffffffffffffffffffffffffffffffffffffffffffffffffffffff0090911617905580517f3029b773e586da235d6a0709bacd2cb14a2e6562f997f3c8684513a487bcbf7b5560208101517f3029b773e586da235d6a0709bacd2cb14a2e6562f997f3c8684513a487bcbf7c80547fffffffffffffffffffffffff000000000000000000000000000000000000000090811673ffffffffffffffffffffffffffffffffffffffff938416179091556040909201517f3029b773e586da235d6a0709bacd2cb14a2e6562f997f3c8684513a487bcbf7d80549093169116179055565b7f3029b773e586da235d6a0709bacd2cb14a2e6562f997f3c8684513a487bcbf7a5460ff166001036131eb576040517f129c8cdb00000000000000000000000000000000000000000000000000000000815260040160405180910390fd5b565b6040805173ffffffffffffffffffffffffffffffffffffffff8416602482015260448082018490528251808303909101815260649091019091526020810180517bffffffffffffffffffffffffffffffffffffffffffffffffffffffff167f095ea7b30000000000000000000000000000000000000000000000000000000017905261327984826136b1565b6132dd5760405173ffffffffffffffffffffffffffffffffffffffff84166024820152600060448201526132d39085907f095ea7b300000000000000000000000000000000000000000000000000000000906064016109bf565b6132dd8482612bb5565b50505050565b8760ff1660010361341157861561339c576040517fa6417ed600000000000000000000000000000000000000000000000000000000815260ff808616600f90810b6004840152908516900b6024820152604481018390526064810182905273ffffffffffffffffffffffffffffffffffffffff87169063a6417ed69087906084015b6000604051808303818588803b15801561337e57600080fd5b505af1158015613392573d6000803e3d6000fd5b505050505061366e565b6040517f3df0212400000000000000000000000000000000000000000000000000000000815260ff808616600f90810b6004840152908516900b6024820152604481018390526064810182905273ffffffffffffffffffffffffffffffffffffffff871690633df02124908790608401613365565b8760ff166002036135515786156134dc576040517fa6417ed600000000000000000000000000000000000000000000000000000000815260ff808616600f90810b6004840152908516900b6024820152604481018390526064810182905273ffffffffffffffffffffffffffffffffffffffff87169063a6417ed69087906084015b60206040518083038185885af11580156134b1573d6000803e3d6000fd5b50505050506040513d601f19601f820116820180604052508101906134d69190613ee8565b5061366e565b6040517f3df0212400000000000000000000000000000000000000000000000000000000815260ff808616600f90810b6004840152908516900b6024820152604481018390526064810182905273ffffffffffffffffffffffffffffffffffffffff871690633df02124908790608401613493565b8760ff1660030361363c5786156135cf576040517f65b2489b00000000000000000000000000000000000000000000000000000000815260ff808616600483015284166024820152604481018390526064810182905273ffffffffffffffffffffffffffffffffffffffff8716906365b2489b908790608401613493565b6040517f5b41b90800000000000000000000000000000000000000000000000000000000815260ff808616600483015284166024820152604481018390526064810182905273ffffffffffffffffffffffffffffffffffffffff871690635b41b908908790608401613493565b6040517ff1c43ede00000000000000000000000000000000000000000000000000000000815260040160405180910390fd5b5050505050505050565b60006108a58373ffffffffffffffffffffffffffffffffffffffff8416613772565b60606136a984846000856137c1565b949350505050565b60008060008473ffffffffffffffffffffffffffffffffffffffff16846040516136db9190613ff8565b6000604051808303816000865af19150503d8060008114613718576040519150601f19603f3d011682016040523d82523d6000602084013e61371d565b606091505b50915091508180156137475750805115806137475750808060200190518101906137479190613fb2565b8015613769575073ffffffffffffffffffffffffffffffffffffffff85163b15155b95945050505050565b60008181526001830160205260408120546137b957508154600181810184556000848152602080822090930184905584548482528286019093526040902091909155610878565b506000610878565b606082471015613853576040517f08c379a000000000000000000000000000000000000000000000000000000000815260206004820152602660248201527f416464726573733a20696e73756666696369656e742062616c616e636520666f60448201527f722063616c6c000000000000000000000000000000000000000000000000000060648201526084016108ee565b6000808673ffffffffffffffffffffffffffffffffffffffff16858760405161387c9190613ff8565b60006040518083038185875af1925050503d80600081146138b9576040519150601f19603f3d011682016040523d82523d6000602084013e6138be565b606091505b50915091506138cf878383876138da565b979650505050505050565b606083156139705782516000036139695773ffffffffffffffffffffffffffffffffffffffff85163b613969576040517f08c379a000000000000000000000000000000000000000000000000000000000815260206004820152601d60248201527f416464726573733a2063616c6c20746f206e6f6e2d636f6e747261637400000060448201526064016108ee565b50816136a9565b6136a983838151156139855781518083602001fd5b806040517f08c379a00000000000000000000000000000000000000000000000000000000081526004016108ee9190614014565b7f4e487b7100000000000000000000000000000000000000000000000000000000600052604160045260246000fd5b604051610140810167ffffffffffffffff81118282101715613a0c57613a0c6139b9565b60405290565b803573ffffffffffffffffffffffffffffffffffffffff81168114613a3657600080fd5b919050565b803561ffff81168114613a3657600080fd5b803565ffffffffffff81168114613a3657600080fd5b600082601f830112613a7457600080fd5b813567ffffffffffffffff80821115613a8f57613a8f6139b9565b604051601f83017fffffffffffffffffffffffffffffffffffffffffffffffffffffffffffffffe0908116603f01168101908282118183101715613ad557613ad56139b9565b81604052838152866020858801011115613aee57600080fd5b836020870160208301376000602085830101528094505050505092915050565b600060408284031215613b2057600080fd5b50919050565b60008060408385031215613b3957600080fd5b823567ffffffffffffffff80821115613b5157600080fd5b908401906101408287031215613b6657600080fd5b613b6e6139e8565b613b7783613a12565b8152613b8560208401613a3b565b6020820152613b9660408401613a3b565b6040820152613ba760608401613a12565b6060820152613bb860808401613a12565b6080820152613bc960a08401613a12565b60a082015260c083013560c082015260e083013560e0820152610100613bf0818501613a4d565b908201526101208381013583811115613c0857600080fd5b613c1489828701613a63565b828401525050809450506020850135915080821115613c3257600080fd5b50613c3f85828601613b0e565b9150509250929050565b60008083357fffffffffffffffffffffffffffffffffffffffffffffffffffffffffffffffe1843603018112613c7e57600080fd5b83018035915067ffffffffffffffff821115613c9957600080fd5b602001915036819003821315613cae57600080fd5b9250929050565b600061010073ffffffffffffffffffffffffffffffffffffffff80881684528651818151166020860152816020820151166040860152604081015165ffffffffffff80821660608801528060608401511660808801525050508060208801511660a085015250604086015160c08401528060e08401528381840152506101208385828501376000838501820152601f9093017fffffffffffffffffffffffffffffffffffffffffffffffffffffffffffffffe016909101909101949350505050565b7f4e487b7100000000000000000000000000000000000000000000000000000000600052601160045260246000fd5b60007fffffffffffffffffffffffffffffffffffffffffffffffffffffffffffffffff8203613dd757613dd7613d77565b5060010190565b61ffff828116828216039080821115612d5f57612d5f613d77565b808202811582820484141761087857610878613d77565b7f4e487b7100000000000000000000000000000000000000000000000000000000600052601260045260246000fd5b600082613e75577f4e487b7100000000000000000000000000000000000000000000000000000000600052601260045260246000fd5b500490565b80516dffffffffffffffffffffffffffff81168114613a3657600080fd5b600080600060608486031215613ead57600080fd5b613eb684613e7a565b9250613ec460208501613e7a565b9150604084015163ffffffff81168114613edd57600080fd5b809150509250925092565b600060208284031215613efa57600080fd5b5051919050565b8082018082111561087857610878613d77565b8181038181111561087857610878613d77565b7f4e487b7100000000000000000000000000000000000000000000000000000000600052603260045260246000fd5b60008060408385031215613f6957600080fd5b505080516020909101519092909150565b60007f80000000000000000000000000000000000000000000000000000000000000008203613fab57613fab613d77565b5060000390565b600060208284031215613fc457600080fd5b815180151581146108a557600080fd5b60005b83811015613fef578181015183820152602001613fd7565b50506000910152565b6000825161400a818460208701613fd4565b9190910192915050565b6020815260008251806020840152614033816040850160208701613fd4565b601f017fffffffffffffffffffffffffffffffffffffffffffffffffffffffffffffffe016919091016040019291505056fea26469706673582212205309891b9d7f52fb5ac1515108e4fa9d95d02adf4d52127c5e5fe98ccb0f93e664736f6c63430008130033",
  "devdoc": {
    "kind": "dev",
    "methods": {},
    "version": 1
  },
  "userdoc": {
    "errors": {
      "FeeTooHigh(uint16)": [
        {
          "notice": "The swap fee is over the maximum allowed"
        }
      ]
    },
    "kind": "user",
    "methods": {},
    "version": 1
  },
  "storageLayout": {
    "storage": [],
    "types": null
  }
}