{
  "address": "0x12Ad749fbdCF48bBc2D4aDcD00f95BA99bd13b63",
  "abi": [
    {
      "inputs": [],
      "name": "CallbackAlreadyActive",
      "type": "error"
    },
    {
      "inputs": [],
      "name": "CallbackStillActive",
      "type": "error"
    },
    {
      "inputs": [],
      "name": "DeadlineExpired",
      "type": "error"
    },
    {
      "inputs": [
        {
          "internalType": "uint16",
          "name": "maxFeeBps",
          "type": "uint16"
        }
      ],
      "name": "FeeTooHigh",
      "type": "error"
    },
    {
      "inputs": [],
      "name": "IllegalJumpInSplit",
      "type": "error"
    },
    {
      "inputs": [],
      "name": "InconsistentPartPayerOut",
      "type": "error"
    },
    {
      "inputs": [],
      "name": "InconsistentPartTokenOut",
      "type": "error"
    },
    {
      "inputs": [],
      "name": "InsufficientAmountRemaining",
      "type": "error"
    },
    {
      "inputs": [],
      "name": "InsufficientEthValue",
      "type": "error"
    },
    {
      "inputs": [],
      "name": "InsufficientOutputAmount",
      "type": "error"
    },
    {
      "inputs": [],
      "name": "InsufficientTokensDelivered",
      "type": "error"
    },
    {
      "inputs": [],
      "name": "JumpMustBeLastCommand",
      "type": "error"
    },
    {
      "inputs": [],
      "name": "NativeTokenNotSupported",
      "type": "error"
    },
    {
      "inputs": [],
      "name": "NotEnoughParts",
      "type": "error"
    },
    {
      "inputs": [],
      "name": "UnexpectedPayerForWrap",
      "type": "error"
    },
    {
      "inputs": [],
      "name": "UnexpectedTokenForUnwrap",
      "type": "error"
    },
    {
      "inputs": [],
      "name": "UnexpectedTokenForWrap",
      "type": "error"
    },
    {
      "inputs": [],
      "name": "UnexpectedTokenOut",
      "type": "error"
    },
    {
      "inputs": [],
      "name": "UnhandledCommand",
      "type": "error"
    },
    {
      "inputs": [],
      "name": "UnhandledPoolKind",
      "type": "error"
    },
    {
      "inputs": [
        {
          "components": [
            {
              "internalType": "address",
              "name": "partner",
              "type": "address"
            },
            {
              "internalType": "uint16",
              "name": "feeBps",
              "type": "uint16"
            },
            {
              "internalType": "uint16",
              "name": "slippageBps",
              "type": "uint16"
            },
            {
              "internalType": "address",
              "name": "recipient",
              "type": "address"
            },
            {
              "internalType": "address",
              "name": "tokenIn",
              "type": "address"
            },
            {
              "internalType": "address",
              "name": "tokenOut",
              "type": "address"
            },
            {
              "internalType": "uint256",
              "name": "amountIn",
              "type": "uint256"
            },
            {
              "internalType": "uint256",
              "name": "amountOut",
              "type": "uint256"
            },
            {
              "internalType": "uint48",
              "name": "deadline",
              "type": "uint48"
            },
            {
              "internalType": "bytes",
              "name": "commands",
              "type": "bytes"
            }
          ],
          "internalType": "struct IWarpLink.Params",
          "name": "params",
          "type": "tuple"
        },
        {
          "components": [
            {
              "internalType": "uint256",
              "name": "nonce",
              "type": "uint256"
            },
            {
              "internalType": "bytes",
              "name": "signature",
              "type": "bytes"
            }
          ],
          "internalType": "struct PermitParams",
          "name": "permit",
          "type": "tuple"
        }
      ],
      "name": "warpLinkEngage",
      "outputs": [],
      "stateMutability": "payable",
      "type": "function"
    }
  ],
  "transactionHash": "0x6188175d3952b8b34b6194be87cb079cb90b46b567eecb275893c7b969d08f1a",
  "args": [],
  "numDeployments": 3,
  "solcInputHash": "df6263755b6a66e75866b356448256e7",
  "bytecode": "0x608060405234801561001057600080fd5b50614669806100206000396000f3fe60806040526004361061001e5760003560e01c8063dc7b39db14610023575b600080fd5b61003661003136600461403f565b610038565b005b81610100015165ffffffffffff1642111561007f576040517f1ab7da6b00000000000000000000000000000000000000000000000000000000815260040160405180910390fd5b6040805161016081018252600080825260208083018281529383018281526060808501848152608080870186905260a0870186815260c080890188905260e0808a01898152610100808c018b81526101208d018c90526101408d019b909b528e5173ffffffffffffffffffffffffffffffffffffffff9081168d52998f015161ffff16909c52958d01518816909652948b0151909252928901519052908701805183169091529386015165ffffffffffff16909152915190911661019b578260c0015134101561017b576040517f1985c73500000000000000000000000000000000000000000000000000000000815260040160405180910390fd5b60c083015161018a9034614191565b6101408201523060c0820152610316565b3360c0820152346101408201527f1c1cf3c8827d48db80e17913589584c81d7f8da7f2100c9a87a7bf64829a0e1060010160009054906101000a900473ffffffffffffffffffffffffffffffffffffffff1673ffffffffffffffffffffffffffffffffffffffff16632b67b5703360405180606001604052806040518060800160405280896080015173ffffffffffffffffffffffffffffffffffffffff1681526020018960c0015173ffffffffffffffffffffffffffffffffffffffff16815260200189610100015165ffffffffffff168152602001886000013565ffffffffffff1681525081526020013073ffffffffffffffffffffffffffffffffffffffff16815260200187610100015165ffffffffffff168152508580602001906102c491906141a4565b6040518563ffffffff1660e01b81526004016102e39493929190614210565b600060405180830381600087803b1580156102fd57600080fd5b505af1158015610311573d6000803e3d6000fd5b505050505b600061033b846101200151604080518082019091528181528151909101602082015290565b90506103478183610502565b60a08082015160e0830151918701519294509173ffffffffffffffffffffffffffffffffffffffff8083169116146103ab576040517fae39073000000000000000000000000000000000000000000000000000000000815260040160405180910390fd5b6103bd8660e0015187604001516106cf565b8210156103f6576040517f42301c2300000000000000000000000000000000000000000000000000000000815260040160405180910390fd5b6101408401511561043457610140840151604051339180156108fc02916000818181858888f19350505050158015610432573d6000803e3d6000fd5b505b83610120015160010361044957505050505050565b61046686600001518760a0015188602001518960e00151866106fd565b915073ffffffffffffffffffffffffffffffffffffffff81166104d357856060015173ffffffffffffffffffffffffffffffffffffffff166108fc839081150290604051600060405180830381858888f193505050501580156104cd573d6000803e3d6000fd5b506104fa565b60608601516104fa9073ffffffffffffffffffffffffffffffffffffffff831690846107be565b505050505050565b6040805161016081018252600080825260208201819052918101829052606081018290526080810182905260a0810182905260c0810182905260e0810182905261010081018290526101208101829052610140810191909152600061056d8480516001018051915290565b60ff16905060005b818110156106c357600061058f8680516001018051915290565b60ff169050600181036105ac576105a585610897565b94506106b0565b600281036105bd576105a585610a4c565b600381036105cf576105a58686610c95565b600481036105e1576105a58686611255565b600581036105f3576105a586866115b2565b60068103610605576105a58686611d44565b60078103610617576105a58686612256565b60088103610629576105a5868661277d565b6009810361067e5761063c600184614191565b8214610674576040517fe31c95e900000000000000000000000000000000000000000000000000000000815260040160405180910390fd5b6105a58686612b8e565b6040517f8ccd166700000000000000000000000000000000000000000000000000000000815260040160405180910390fd5b50806106bb816142d2565b915050610575565b50829150505b92915050565b60006127106106de838261430a565b6106ec9061ffff1685614325565b6106f6919061436b565b9392505050565b60006107d061ffff85161115610748576040517f8ea70c070000000000000000000000000000000000000000000000000000000081526107d060048201526024015b60405180910390fd5b6000828481111561075a575050828203835b61271061ffff87168202049190910190600073ffffffffffffffffffffffffffffffffffffffff8916156107945760646032840204610797565b60005b90508083038382146107af576107af8a8a8484612fc9565b50505090910395945050505050565b60405173ffffffffffffffffffffffffffffffffffffffff83166024820152604481018290526108929084907fa9059cbb00000000000000000000000000000000000000000000000000000000906064015b604080517fffffffffffffffffffffffffffffffffffffffffffffffffffffffffffffffe08184030181529190526020810180517bffffffffffffffffffffffffffffffffffffffffffffffffffffffff167fffffffff00000000000000000000000000000000000000000000000000000000909316929092179091526130ce565b505050565b6040805161016081018252600080825260208201819052918101829052606081018290526080810182905260a0810182905260c0810182905260e080820183905261010082018390526101208201839052610140820192909252908201517f1c1cf3c8827d48db80e17913589584c81d7f8da7f2100c9a87a7bf64829a0e109073ffffffffffffffffffffffffffffffffffffffff1615610964576040517f45369fbb00000000000000000000000000000000000000000000000000000000815260040160405180910390fd5b60c083015173ffffffffffffffffffffffffffffffffffffffff1630146109b7576040517f32d40df100000000000000000000000000000000000000000000000000000000815260040160405180910390fd5b805473ffffffffffffffffffffffffffffffffffffffff1660e0840181905260a0840151604080517fd0e30db0000000000000000000000000000000000000000000000000000000008152905163d0e30db0929160048082019260009290919082900301818588803b158015610a2c57600080fd5b505af1158015610a40573d6000803e3d6000fd5b50959695505050505050565b6040805161016081018252600080825260208201819052918101829052606081018290526080810182905260a0810182905260c0810182905260e08101829052610100810182905261012081018290526101408101829052907f1c1cf3c8827d48db80e17913589584c81d7f8da7f2100c9a87a7bf64829a0e10805460e085015191925073ffffffffffffffffffffffffffffffffffffffff918216911614610b21576040517fb2ee070800000000000000000000000000000000000000000000000000000000815260040160405180910390fd5b60c083015173ffffffffffffffffffffffffffffffffffffffff81163014801590610b4d573060c08601525b600060e08601528015610bfe57600183015460a086015184546040517f36c7851600000000000000000000000000000000000000000000000000000000815273ffffffffffffffffffffffffffffffffffffffff8681166004830152306024830152928316604482015290821660648201529116906336c7851690608401600060405180830381600087803b158015610be557600080fd5b505af1158015610bf9573d6000803e3d6000fd5b505050505b825460a08601516040517f2e1a7d4d00000000000000000000000000000000000000000000000000000000815273ffffffffffffffffffffffffffffffffffffffff90921691632e1a7d4d91610c5a9160040190815260200190565b600060405180830381600087803b158015610c7457600080fd5b505af1158015610c88573d6000803e3d6000fd5b5096979650505050505050565b6040805161016081018252600080825260208201819052918101829052606081018290526080810182905260a0810182905260c0810182905260e081018290526101008101829052610120810182905261014081019190915260e082015173ffffffffffffffffffffffffffffffffffffffff16610d3f576040517fb10b947e00000000000000000000000000000000000000000000000000000000815260040160405180910390fd5b6040805160808101825260008082526020820181905291810182905260608101919091528351601401805190855273ffffffffffffffffffffffffffffffffffffffff1681528351601401805190855273ffffffffffffffffffffffffffffffffffffffff1660208201528351600101805190855260ff1660011460408201528351600201805190855261ffff16606082015260c08301513073ffffffffffffffffffffffffffffffffffffffff90911603610e3157610e2c81602001518460a001518560e0015173ffffffffffffffffffffffffffffffffffffffff166107be9092919063ffffffff16565b610f09565b7f1c1cf3c8827d48db80e17913589584c81d7f8da7f2100c9a87a7bf64829a0e106001015460c0840151602083015160a086015160e08701516040517f36c7851600000000000000000000000000000000000000000000000000000000815273ffffffffffffffffffffffffffffffffffffffff948516600482015292841660248401529083166044830152821660648201529116906336c7851690608401600060405180830381600087803b158015610eea57600080fd5b505af1158015610efe573d6000803e3d6000fd5b50503060c086015250505b600080826020015173ffffffffffffffffffffffffffffffffffffffff16630902f1ac6040518163ffffffff1660e01b8152600401606060405180830381865afa158015610f5b573d6000803e3d6000fd5b505050506040513d601f19601f82011682018060405250810190610f7f91906143c4565b506dffffffffffffffffffffffffffff1691506dffffffffffffffffffffffffffff1691508260400151610faf57905b606083015160a086015161ffff6127109283031691840290820290810190830281610fdc57610fdc61433c565b0460a08701525082516040517f70a0823100000000000000000000000000000000000000000000000000000000815230600482015260009173ffffffffffffffffffffffffffffffffffffffff16906370a0823190602401602060405180830381865afa158015611051573d6000803e3d6000fd5b505050506040513d601f19601f820116820180604052508101906110759190614414565b9050836020015173ffffffffffffffffffffffffffffffffffffffff1663022c0d9f85604001516110aa578760a001516110ad565b60005b86604001516110bd5760006110c3565b8860a001515b6040517fffffffff0000000000000000000000000000000000000000000000000000000060e085901b16815260048101929092526024820152306044820152608060648201526000608482015260a401600060405180830381600087803b15801561112d57600080fd5b505af1158015611141573d6000803e3d6000fd5b505085516040517f70a082310000000000000000000000000000000000000000000000000000000081523060048201526000935073ffffffffffffffffffffffffffffffffffffffff90911691506370a0823190602401602060405180830381865afa1580156111b5573d6000803e3d6000fd5b505050506040513d601f19601f820116820180604052508101906111d99190614414565b9050818110806111f6575060a08701516111f3908361442d565b81105b1561122d576040517f946beb5300000000000000000000000000000000000000000000000000000000815260040160405180910390fd5b5050915173ffffffffffffffffffffffffffffffffffffffff1660e085015250919392505050565b6040805161016081018252600080825260208201819052918101829052606081018290526080810182905260a0810182905260c0810182905260e081018290526101008101829052610120810182905261014081019190915260006112c08480516001018051915290565b60ff16905060008360a0015190506000600283101561130b576040517f1d6beb5700000000000000000000000000000000000000000000000000000000815260040160405180910390fd5b60008060005b85811015611580576000611326600188614191565b82106113325785611362565b6127106113458b80516002018051915290565b61ffff168a60a001516113589190614325565b611362919061436b565b90508581111561139e576040517f0f24c51700000000000000000000000000000000000000000000000000000000815260040160405180910390fd5b6113a88187614191565b6040805161016081018252600080825260208201819052918101829052606081018290526080810182905260c080820183815260e08084018581526101008501869052610120850186905261014085019590955260a08401879052918e015173ffffffffffffffffffffffffffffffffffffffff908116909152908d0151169091529096506114378b82610502565b9050806101200151600103611478576040517fd35869f800000000000000000000000000000000000000000000000000000000815260040160405180910390fd5b82600003611493578060c0015193508060e001519450611565565b8473ffffffffffffffffffffffffffffffffffffffff168160e0015173ffffffffffffffffffffffffffffffffffffffff16146114fc576040517fd7af48f200000000000000000000000000000000000000000000000000000000815260040160405180910390fd5b8373ffffffffffffffffffffffffffffffffffffffff168160c0015173ffffffffffffffffffffffffffffffffffffffff1614611565576040517f51a769fd00000000000000000000000000000000000000000000000000000000815260040160405180910390fd5b60a0810151611574908761442d565b95505050600101611311565b5073ffffffffffffffffffffffffffffffffffffffff90811660c08801521660e086015260a085015250919392505050565b6040805161016081018252600080825260208201819052918101829052606081018290526080810182905260a0810182905260c0810182905260e081018290526101008101829052610120810182905261014081019190915261162f60405180606001604052806060815260200160608152602001606081525090565b60006116418580516001018051915290565b60ff16905061165181600161442d565b67ffffffffffffffff81111561166957611669613ed2565b604051908082528060200260200182016040528015611692578160200160208202803683370190505b5080835260e085015181519091906000906116af576116af614440565b602002602001019073ffffffffffffffffffffffffffffffffffffffff16908173ffffffffffffffffffffffffffffffffffffffff168152505060005b818110156117485785516014018051908752835161170b83600161442d565b8151811061171b5761171b614440565b73ffffffffffffffffffffffffffffffffffffffff909216602092830291909101909101526001016116ec565b5061175385826131dd565b6020830152611762858261327f565b604083015281518051600091908390811061177f5761177f614440565b60209081029190910101516040517f70a0823100000000000000000000000000000000000000000000000000000000815230600482015273ffffffffffffffffffffffffffffffffffffffff909116906370a0823190602401602060405180830381865afa1580156117f5573d6000803e3d6000fd5b505050506040513d601f19601f820116820180604052508101906118199190614414565b9050600061183984604001518760a0015186600001518760200151613308565b90503073ffffffffffffffffffffffffffffffffffffffff168660c0015173ffffffffffffffffffffffffffffffffffffffff16036118c8576118c3846020015160008151811061188c5761188c614440565b60200260200101518760a001518860e0015173ffffffffffffffffffffffffffffffffffffffff166107be9092919063ffffffff16565b6119c3565b7f1c1cf3c8827d48db80e17913589584c81d7f8da7f2100c9a87a7bf64829a0e115460c08701516020860151805173ffffffffffffffffffffffffffffffffffffffff909316926336c7851692919060009061192657611926614440565b60200260200101518960a001518a60e001516040518563ffffffff1660e01b815260040161198a949392919073ffffffffffffffffffffffffffffffffffffffff948516815292841660208401529083166040830152909116606082015260800190565b600060405180830381600087803b1580156119a457600080fd5b505af11580156119b8573d6000803e3d6000fd5b50503060c089015250505b60005b83811015611bc75760006119db82600161442d565b90506000866000015182815181106119f5576119f5614440565b602002602001015173ffffffffffffffffffffffffffffffffffffffff1687600001518481518110611a2957611a29614440565b602002602001015173ffffffffffffffffffffffffffffffffffffffff1610611a53576000611a56565b60015b905060006002886000015151611a6c9190614191565b8410611a785730611a97565b87602001518381518110611a8e57611a8e614440565b60200260200101515b905087602001518481518110611aaf57611aaf614440565b602002602001015173ffffffffffffffffffffffffffffffffffffffff1663022c0d9f83611af657868581518110611ae957611ae9614440565b6020026020010151611af9565b60005b84611b05576000611b20565b878681518110611b1757611b17614440565b60200260200101515b6040517fffffffff0000000000000000000000000000000000000000000000000000000060e085901b1681526004810192909252602482015273ffffffffffffffffffffffffffffffffffffffff84166044820152608060648201526000608482015260a401600060405180830381600087803b158015611ba057600080fd5b505af1158015611bb4573d6000803e3d6000fd5b5050600190950194506119c69350505050565b50600084600001518481518110611be057611be0614440565b60209081029190910101516040517f70a0823100000000000000000000000000000000000000000000000000000000815230600482015273ffffffffffffffffffffffffffffffffffffffff909116906370a0823190602401602060405180830381865afa158015611c56573d6000803e3d6000fd5b505050506040513d601f19601f82011682018060405250810190611c7a9190614414565b90508160018351611c8b9190614191565b81518110611c9b57611c9b614440565b60200260200101518760a001818152505082811080611cc7575060a0870151611cc4908461442d565b81105b15611cfe576040517f946beb5300000000000000000000000000000000000000000000000000000000815260040160405180910390fd5b8451805185908110611d1257611d12614440565b602090810291909101015173ffffffffffffffffffffffffffffffffffffffff1660e088015250949695505050505050565b6040805161016081018252600080825260208201819052918101829052606081018290526080810182905260a0810182905260c0810182905260e08101829052610100810182905261012081018290526101408101919091526040805160808101825260008082526020820181905291810182905260608101919091528351601401805190855273ffffffffffffffffffffffffffffffffffffffff1681528351601401805190855273ffffffffffffffffffffffffffffffffffffffff908116602083015260e084015116611e46576040517fb10b947e00000000000000000000000000000000000000000000000000000000815260040160405180910390fd5b80516040517f70a0823100000000000000000000000000000000000000000000000000000000815230600482015260009173ffffffffffffffffffffffffffffffffffffffff16906370a0823190602401602060405180830381865afa158015611eb4573d6000803e3d6000fd5b505050506040513d601f19601f82011682018060405250810190611ed89190614414565b90506000826000015173ffffffffffffffffffffffffffffffffffffffff168560e0015173ffffffffffffffffffffffffffffffffffffffff16109050611f7060405180606001604052808760a0015181526020018760c0015173ffffffffffffffffffffffffffffffffffffffff1681526020018760e0015173ffffffffffffffffffffffffffffffffffffffff1681525061353d565b801561205457602083015160a0868101516040517f128acb08000000000000000000000000000000000000000000000000000000008152306004820152841515602482015260448101919091526401000276a460648201526084810191909152600060a482018190529173ffffffffffffffffffffffffffffffffffffffff169063128acb089060c40160408051808303816000875af1158015612018573d6000803e3d6000fd5b505050506040513d601f19601f8201168201806040525081019061203c919061446f565b9150508061204990614493565b60a08701525061213c565b602083015160a0868101516040517f128acb080000000000000000000000000000000000000000000000000000000081523060048201528415156024820152604481019190915273fffd8963efd1fc6a506488495d951d5263988d2560648201526084810191909152600060a482018190529173ffffffffffffffffffffffffffffffffffffffff169063128acb089060c40160408051808303816000875af1158015612105573d6000803e3d6000fd5b505050506040513d601f19601f82011682018060405250810190612129919061446f565b50905061213581614493565b60a0870152505b6121446136a6565b82516040517f70a0823100000000000000000000000000000000000000000000000000000000815230600482015260009173ffffffffffffffffffffffffffffffffffffffff16906370a0823190602401602060405180830381865afa1580156121b2573d6000803e3d6000fd5b505050506040513d601f19601f820116820180604052508101906121d69190614414565b9050828110806121f3575060a08601516121f0908461442d565b81105b1561222a576040517f946beb5300000000000000000000000000000000000000000000000000000000815260040160405180910390fd5b5050905173ffffffffffffffffffffffffffffffffffffffff1660e084015250503060c0820152919050565b6040805161016081018252600080825260208201819052918101829052606081018290526080810182905260a0810182905260c0810182905260e08101829052610100810182905261012081018290526101408101919091526122d360405180606001604052806060815260200160608152602001606081525090565b60006122e58580516001018051915290565b60ff1690506122f485826131dd565b825261230085826131dd565b60208301528151600090612315600184614191565b8151811061232557612325614440565b60209081029190910101516040517f70a0823100000000000000000000000000000000000000000000000000000000815230600482015290915060009073ffffffffffffffffffffffffffffffffffffffff8316906370a0823190602401602060405180830381865afa1580156123a0573d6000803e3d6000fd5b505050506040513d601f19601f820116820180604052508101906123c49190614414565b905060005b8381101561268757600081156124035785516123e6600184614191565b815181106123f6576123f6614440565b6020026020010151612409565b8760e001515b90508560000151828151811061242157612421614440565b60209081029190910181015173ffffffffffffffffffffffffffffffffffffffff90811660e08b018190526040805160608101825260a08d0151815260c08d0151841694810194909452918416918301829052119061247f9061353d565b8260000361248e573060c08a01525b6000876020015184815181106124a6576124a6614440565b6020026020010151905081156125905760a08a8101516040517f128acb08000000000000000000000000000000000000000000000000000000008152306004820152841515602482015260448101919091526401000276a460648201526084810191909152600060a482018190529073ffffffffffffffffffffffffffffffffffffffff83169063128acb089060c40160408051808303816000875af1158015612554573d6000803e3d6000fd5b505050506040513d601f19601f82011682018060405250810190612578919061446f565b9150508061258590614493565b60a08c015250612674565b60a08a8101516040517f128acb080000000000000000000000000000000000000000000000000000000081523060048201528415156024820152604481019190915273fffd8963efd1fc6a506488495d951d5263988d2560648201526084810191909152600060a482018190529073ffffffffffffffffffffffffffffffffffffffff83169063128acb089060c40160408051808303816000875af115801561263d573d6000803e3d6000fd5b505050506040513d601f19601f82011682018060405250810190612661919061446f565b50905061266d81614493565b60a08c0152505b61267c6136a6565b5050506001016123c9565b5060e08601516040517f70a0823100000000000000000000000000000000000000000000000000000000815230600482015260009173ffffffffffffffffffffffffffffffffffffffff16906370a0823190602401602060405180830381865afa1580156126f9573d6000803e3d6000fd5b505050506040513d601f19601f8201168201806040525081019061271d9190614414565b90508181108061273a575060a0870151612737908361442d565b81105b15612771576040517f946beb5300000000000000000000000000000000000000000000000000000000815260040160405180910390fd5b50949695505050505050565b6040805161016081018252600080825260208201819052918101829052606081018290526080810182905260a0810182905260c0810182905260e08101829052610100810182905261012081018290526101408101919091526040805160c081018252600080825260208201819052918101829052606081018290526080810182905260a08101919091528351601401805190855273ffffffffffffffffffffffffffffffffffffffff1681528351601401805190855273ffffffffffffffffffffffffffffffffffffffff1660208201528351600101805190855260ff1660408201528351600101805190855260ff1660608201528351600101805190855260ff1660808201528351600101805190855260ff1660011460a082015260e0830151815160c085015173ffffffffffffffffffffffffffffffffffffffff928316159291821615913091161461299e577f1c1cf3c8827d48db80e17913589584c81d7f8da7f2100c9a87a7bf64829a0e106001015460c086015160a087015160e08801516040517f36c7851600000000000000000000000000000000000000000000000000000000815273ffffffffffffffffffffffffffffffffffffffff93841660048201523060248201529183166044830152821660648201529116906336c7851690608401600060405180830381600087803b15801561297f57600080fd5b505af1158015612993573d6000803e3d6000fd5b50503060c088015250505b600081612a3b5783516040517f70a0823100000000000000000000000000000000000000000000000000000000815230600482015273ffffffffffffffffffffffffffffffffffffffff909116906370a0823190602401602060405180830381865afa158015612a12573d6000803e3d6000fd5b505050506040513d601f19601f82011682018060405250810190612a369190614414565b612a3d565b475b905082612a7b57612a7b84602001518760a001518860e0015173ffffffffffffffffffffffffffffffffffffffff166137069092919063ffffffff16565b612ab584608001518560a00151866020015186612a99576000612a9f565b8960a001515b886040015189606001518c60a0015160006137fc565b600082612b525784516040517f70a0823100000000000000000000000000000000000000000000000000000000815230600482015273ffffffffffffffffffffffffffffffffffffffff909116906370a0823190602401602060405180830381865afa158015612b29573d6000803e3d6000fd5b505050506040513d601f19601f82011682018060405250810190612b4d9190614414565b612b54565b475b855173ffffffffffffffffffffffffffffffffffffffff1660e08901529050612b7d8282614191565b60a088015250949695505050505050565b6040805161016081018252600080825260208201819052918101829052606081018290526080810182905260a0810182905260c0810182905260e081018290526101008101829052610120810182905261014081019190915260e082015173ffffffffffffffffffffffffffffffffffffffff16612c38576040517fb10b947e00000000000000000000000000000000000000000000000000000000815260040160405180910390fd5b612c606040518060600160405280600061ffff16815260200160008152602001600081525090565b8351600201805190855261ffff1681528351600101805190855260ff1660208201528351600101805190855260ff166040820152825160e0840151602085015160a0860151612cb293929190806106fd565b60a084015260608301516080840151612ccb91906106cf565b8360a001511015612d08576040517f42301c2300000000000000000000000000000000000000000000000000000000815260040160405180910390fd5b60e083015173ffffffffffffffffffffffffffffffffffffffff1615612e6c5760c083015173ffffffffffffffffffffffffffffffffffffffff163014612e1a577f1c1cf3c8827d48db80e17913589584c81d7f8da7f2100c9a87a7bf64829a0e106001015460c084015160a085015160e08601516040517f36c7851600000000000000000000000000000000000000000000000000000000815273ffffffffffffffffffffffffffffffffffffffff93841660048201523060248201529183166044830152821660648201529116906336c7851690608401600060405180830381600087803b158015612dfb57600080fd5b505af1158015612e0f573d6000803e3d6000fd5b50503060c086015250505b612e6c7f1c1cf3c8827d48db80e17913589584c81d7f8da7f2100c9a87a7bf64829a0e106002015460a085015160e086015173ffffffffffffffffffffffffffffffffffffffff908116921690613706565b60016101208401527f1c1cf3c8827d48db80e17913589584c81d7f8da7f2100c9a87a7bf64829a0e125461014084015182516020840151604085015160a088015173ffffffffffffffffffffffffffffffffffffffff90951694639fbf10fc949392919030906064612edf82605f614325565b612ee9919061436b565b60405180606001604052806000815260200160008152602001604051806020016040528060008152508152508c60400151604051602001612f55919060609190911b7fffffffffffffffffffffffffffffffffffffffff00000000000000000000000016815260140190565b6040516020818303038152906040526040518a63ffffffff1660e01b8152600401612f87989796959493929190614539565b6000604051808303818588803b158015612fa057600080fd5b505af1158015612fb4573d6000803e3d6000fd5b50506000610140870152509395945050505050565b7f4edbd34b5b006870ab724677d99b508debf8dcac0dc8134c9c43b93f8afe50f073ffffffffffffffffffffffffffffffffffffffff8416156130395773ffffffffffffffffffffffffffffffffffffffff8516600090815260028201602052604090206130379085613b91565b505b6130438186613b91565b5073ffffffffffffffffffffffffffffffffffffffff858116600081815260038401602090815260408083209489168084529482528083208054890190556004860182529182902080548801905581518781529081018690527fb9c71741297b7329823b5575aa676062720448277d6da61cf68eb0fed6c4baf4910160405180910390a35050505050565b6000613130826040518060400160405280602081526020017f5361666545524332303a206c6f772d6c6576656c2063616c6c206661696c65648152508573ffffffffffffffffffffffffffffffffffffffff16613bb39092919063ffffffff16565b905080516000148061315157508080602001905181019061315191906145e2565b610892576040517f08c379a000000000000000000000000000000000000000000000000000000000815260206004820152602a60248201527f5361666545524332303a204552433230206f7065726174696f6e20646964206e60448201527f6f74207375636365656400000000000000000000000000000000000000000000606482015260840161073f565b60608167ffffffffffffffff8111156131f8576131f8613ed2565b604051908082528060200260200182016040528015613221578160200160208202803683370190505b50905060005b82811015613278578351601401805190855282828151811061324b5761324b614440565b73ffffffffffffffffffffffffffffffffffffffff90921660209283029190910190910152600101613227565b5092915050565b60608167ffffffffffffffff81111561329a5761329a613ed2565b6040519080825280602002602001820160405280156132c3578160200160208202803683370190505b50905060005b8281101561327857835160020180519085528282815181106132ed576132ed614440565b61ffff909216602092830291909101909101526001016132c9565b805182516060919067ffffffffffffffff81111561332857613328613ed2565b604051908082528060200260200182016040528015613351578160200160208202803683370190505b509150848260008151811061336857613368614440565b60200260200101818152505060005b8181101561353357600085828151811061339357613393614440565b602002602001015190506000868360016133ad919061442d565b815181106133bd576133bd614440565b6020026020010151905060008984815181106133db576133db614440565b60200260200101516127106133f0919061430a565b61ffff16905060008088868151811061340b5761340b614440565b602002602001015173ffffffffffffffffffffffffffffffffffffffff16630902f1ac6040518163ffffffff1660e01b8152600401606060405180830381865afa15801561345d573d6000803e3d6000fd5b505050506040513d601f19601f8201168201806040525081019061348191906143c4565b506dffffffffffffffffffffffffffff1691506dffffffffffffffffffffffffffff1691508373ffffffffffffffffffffffffffffffffffffffff168573ffffffffffffffffffffffffffffffffffffffff1611156134dc57905b828b0282612710020181848d0202816134f7576134f761433c565b049a508a8861350788600161442d565b8151811061351757613517614440565b6020908102919091010152505060019093019250613377915050565b5050949350505050565b7f3029b773e586da235d6a0709bacd2cb14a2e6562f997f3c8684513a487bcbf7a5460ff1660010361359b576040517f65d4e04900000000000000000000000000000000000000000000000000000000815260040160405180910390fd5b7f3029b773e586da235d6a0709bacd2cb14a2e6562f997f3c8684513a487bcbf7a805460017fffffffffffffffffffffffffffffffffffffffffffffffffffffffffffffff0090911617905580517f3029b773e586da235d6a0709bacd2cb14a2e6562f997f3c8684513a487bcbf7b5560208101517f3029b773e586da235d6a0709bacd2cb14a2e6562f997f3c8684513a487bcbf7c80547fffffffffffffffffffffffff000000000000000000000000000000000000000090811673ffffffffffffffffffffffffffffffffffffffff938416179091556040909201517f3029b773e586da235d6a0709bacd2cb14a2e6562f997f3c8684513a487bcbf7d80549093169116179055565b7f3029b773e586da235d6a0709bacd2cb14a2e6562f997f3c8684513a487bcbf7a5460ff16600103613704576040517f129c8cdb00000000000000000000000000000000000000000000000000000000815260040160405180910390fd5b565b6040805173ffffffffffffffffffffffffffffffffffffffff8416602482015260448082018490528251808303909101815260649091019091526020810180517bffffffffffffffffffffffffffffffffffffffffffffffffffffffff167f095ea7b3000000000000000000000000000000000000000000000000000000001790526137928482613bca565b6137f65760405173ffffffffffffffffffffffffffffffffffffffff84166024820152600060448201526137ec9085907f095ea7b30000000000000000000000000000000000000000000000000000000090606401610810565b6137f684826130ce565b50505050565b8760ff1660010361392a5786156138b5576040517fa6417ed600000000000000000000000000000000000000000000000000000000815260ff808616600f90810b6004840152908516900b6024820152604481018390526064810182905273ffffffffffffffffffffffffffffffffffffffff87169063a6417ed69087906084015b6000604051808303818588803b15801561389757600080fd5b505af11580156138ab573d6000803e3d6000fd5b5050505050613b87565b6040517f3df0212400000000000000000000000000000000000000000000000000000000815260ff808616600f90810b6004840152908516900b6024820152604481018390526064810182905273ffffffffffffffffffffffffffffffffffffffff871690633df0212490879060840161387e565b8760ff16600203613a6a5786156139f5576040517fa6417ed600000000000000000000000000000000000000000000000000000000815260ff808616600f90810b6004840152908516900b6024820152604481018390526064810182905273ffffffffffffffffffffffffffffffffffffffff87169063a6417ed69087906084015b60206040518083038185885af11580156139ca573d6000803e3d6000fd5b50505050506040513d601f19601f820116820180604052508101906139ef9190614414565b50613b87565b6040517f3df0212400000000000000000000000000000000000000000000000000000000815260ff808616600f90810b6004840152908516900b6024820152604481018390526064810182905273ffffffffffffffffffffffffffffffffffffffff871690633df021249087906084016139ac565b8760ff16600303613b55578615613ae8576040517f65b2489b00000000000000000000000000000000000000000000000000000000815260ff808616600483015284166024820152604481018390526064810182905273ffffffffffffffffffffffffffffffffffffffff8716906365b2489b9087906084016139ac565b6040517f5b41b90800000000000000000000000000000000000000000000000000000000815260ff808616600483015284166024820152604481018390526064810182905273ffffffffffffffffffffffffffffffffffffffff871690635b41b9089087906084016139ac565b6040517ff1c43ede00000000000000000000000000000000000000000000000000000000815260040160405180910390fd5b5050505050505050565b60006106f68373ffffffffffffffffffffffffffffffffffffffff8416613c8b565b6060613bc28484600085613cda565b949350505050565b60008060008473ffffffffffffffffffffffffffffffffffffffff1684604051613bf49190614604565b6000604051808303816000865af19150503d8060008114613c31576040519150601f19603f3d011682016040523d82523d6000602084013e613c36565b606091505b5091509150818015613c60575080511580613c60575080806020019051810190613c6091906145e2565b8015613c82575073ffffffffffffffffffffffffffffffffffffffff85163b15155b95945050505050565b6000818152600183016020526040812054613cd2575081546001818101845560008481526020808220909301849055845484825282860190935260409020919091556106c9565b5060006106c9565b606082471015613d6c576040517f08c379a000000000000000000000000000000000000000000000000000000000815260206004820152602660248201527f416464726573733a20696e73756666696369656e742062616c616e636520666f60448201527f722063616c6c0000000000000000000000000000000000000000000000000000606482015260840161073f565b6000808673ffffffffffffffffffffffffffffffffffffffff168587604051613d959190614604565b60006040518083038185875af1925050503d8060008114613dd2576040519150601f19603f3d011682016040523d82523d6000602084013e613dd7565b606091505b5091509150613de887838387613df3565b979650505050505050565b60608315613e89578251600003613e825773ffffffffffffffffffffffffffffffffffffffff85163b613e82576040517f08c379a000000000000000000000000000000000000000000000000000000000815260206004820152601d60248201527f416464726573733a2063616c6c20746f206e6f6e2d636f6e7472616374000000604482015260640161073f565b5081613bc2565b613bc28383815115613e9e5781518083602001fd5b806040517f08c379a000000000000000000000000000000000000000000000000000000000815260040161073f9190614620565b7f4e487b7100000000000000000000000000000000000000000000000000000000600052604160045260246000fd5b604051610140810167ffffffffffffffff81118282101715613f2557613f25613ed2565b60405290565b803573ffffffffffffffffffffffffffffffffffffffff81168114613f4f57600080fd5b919050565b803561ffff81168114613f4f57600080fd5b803565ffffffffffff81168114613f4f57600080fd5b600082601f830112613f8d57600080fd5b813567ffffffffffffffff80821115613fa857613fa8613ed2565b604051601f83017fffffffffffffffffffffffffffffffffffffffffffffffffffffffffffffffe0908116603f01168101908282118183101715613fee57613fee613ed2565b8160405283815286602085880101111561400757600080fd5b836020870160208301376000602085830101528094505050505092915050565b60006040828403121561403957600080fd5b50919050565b6000806040838503121561405257600080fd5b823567ffffffffffffffff8082111561406a57600080fd5b90840190610140828703121561407f57600080fd5b614087613f01565b61409083613f2b565b815261409e60208401613f54565b60208201526140af60408401613f54565b60408201526140c060608401613f2b565b60608201526140d160808401613f2b565b60808201526140e260a08401613f2b565b60a082015260c083013560c082015260e083013560e0820152610100614109818501613f66565b90820152610120838101358381111561412157600080fd5b61412d89828701613f7c565b82840152505080945050602085013591508082111561414b57600080fd5b5061415885828601614027565b9150509250929050565b7f4e487b7100000000000000000000000000000000000000000000000000000000600052601160045260246000fd5b818103818111156106c9576106c9614162565b60008083357fffffffffffffffffffffffffffffffffffffffffffffffffffffffffffffffe18436030181126141d957600080fd5b83018035915067ffffffffffffffff8211156141f457600080fd5b60200191503681900382131561420957600080fd5b9250929050565b600061010073ffffffffffffffffffffffffffffffffffffffff80881684528651818151166020860152816020820151166040860152604081015165ffffffffffff80821660608801528060608401511660808801525050508060208801511660a085015250604086015160c08401528060e08401528381840152506101208385828501376000838501820152601f9093017fffffffffffffffffffffffffffffffffffffffffffffffffffffffffffffffe016909101909101949350505050565b60007fffffffffffffffffffffffffffffffffffffffffffffffffffffffffffffffff820361430357614303614162565b5060010190565b61ffff82811682821603908082111561327857613278614162565b80820281158282048414176106c9576106c9614162565b7f4e487b7100000000000000000000000000000000000000000000000000000000600052601260045260246000fd5b6000826143a1577f4e487b7100000000000000000000000000000000000000000000000000000000600052601260045260246000fd5b500490565b80516dffffffffffffffffffffffffffff81168114613f4f57600080fd5b6000806000606084860312156143d957600080fd5b6143e2846143a6565b92506143f0602085016143a6565b9150604084015163ffffffff8116811461440957600080fd5b809150509250925092565b60006020828403121561442657600080fd5b5051919050565b808201808211156106c9576106c9614162565b7f4e487b7100000000000000000000000000000000000000000000000000000000600052603260045260246000fd5b6000806040838503121561448257600080fd5b505080516020909101519092909150565b60007f800000000000000000000000000000000000000000000000000000000000000082036144c4576144c4614162565b5060000390565b60005b838110156144e65781810151838201526020016144ce565b50506000910152565b600081518084526145078160208601602086016144cb565b601f017fffffffffffffffffffffffffffffffffffffffffffffffffffffffffffffffe0169290920160200192915050565b600061012061ffff8b16835289602084015288604084015273ffffffffffffffffffffffffffffffffffffffff881660608401528660808401528560a08401528060c0840152845181840152506020840151610140830152604084015160606101608401526145ac6101808401826144ef565b905082810360e08401526145c081856144ef565b838103610100850152600081529050602081019b9a5050505050505050505050565b6000602082840312156145f457600080fd5b815180151581146106f657600080fd5b600082516146168184602087016144cb565b9190910192915050565b6020815260006106f660208301846144ef56fea26469706673582212207984511f782cf083daed8a29b308c3ee2151db78fe3c841e6f30cde50199616064736f6c63430008130033",
  "devdoc": {
    "kind": "dev",
    "methods": {},
    "version": 1
  },
  "userdoc": {
    "errors": {
      "FeeTooHigh(uint16)": [
        {
          "notice": "The swap fee is over the maximum allowed"
        }
      ]
    },
    "kind": "user",
    "methods": {},
    "version": 1
  },
  "storageLayout": {
    "storage": [],
    "types": null
  }
}