{
  "address": "0x3f66B2dc60e1E137273813dCe54F28260A1CB5Da",
  "abi": [
    {
      "inputs": [],
      "name": "CallbackAlreadyActive",
      "type": "error"
    },
    {
      "inputs": [],
      "name": "CallbackAlreadyActive",
      "type": "error"
    },
    {
      "inputs": [],
      "name": "CallbackStillActive",
      "type": "error"
    },
    {
      "inputs": [],
      "name": "CallbackStillActive",
      "type": "error"
    },
    {
      "inputs": [],
      "name": "DeadlineExpired",
      "type": "error"
    },
    {
      "inputs": [],
      "name": "EthTransferFailed",
      "type": "error"
    },
    {
      "inputs": [
        {
          "internalType": "uint256",
          "name": "maxFeeBps",
          "type": "uint256"
        }
      ],
      "name": "FeeTooHigh",
      "type": "error"
    },
    {
      "inputs": [
        {
          "internalType": "uint256",
          "name": "maxFeeBps",
          "type": "uint256"
        }
      ],
      "name": "FeeTooHigh",
      "type": "error"
    },
    {
      "inputs": [],
      "name": "IncorrectEthValue",
      "type": "error"
    },
    {
      "inputs": [],
      "name": "InsufficienTokensDelivered",
      "type": "error"
    },
    {
      "inputs": [],
      "name": "InsufficientOutputAmount",
      "type": "error"
    },
    {
      "anonymous": false,
      "inputs": [
        {
          "indexed": true,
          "internalType": "address",
          "name": "partner",
          "type": "address"
        },
        {
          "indexed": true,
          "internalType": "address",
          "name": "token",
          "type": "address"
        },
        {
          "indexed": false,
          "internalType": "uint256",
          "name": "partnerFee",
          "type": "uint256"
        },
        {
          "indexed": false,
          "internalType": "uint256",
          "name": "protocolFee",
          "type": "uint256"
        }
      ],
      "name": "Fee",
      "type": "event"
    },
    {
      "anonymous": false,
      "inputs": [
        {
          "indexed": true,
          "internalType": "address",
          "name": "partner",
          "type": "address"
        },
        {
          "indexed": true,
          "internalType": "address",
          "name": "tokenIn",
          "type": "address"
        },
        {
          "indexed": true,
          "internalType": "address",
          "name": "tokenOut",
          "type": "address"
        },
        {
          "indexed": false,
          "internalType": "uint256",
          "name": "amountIn",
          "type": "uint256"
        },
        {
          "indexed": false,
          "internalType": "uint256",
          "name": "amountOut",
          "type": "uint256"
        }
      ],
      "name": "Warp",
      "type": "event"
    },
    {
      "inputs": [
        {
          "components": [
            {
              "internalType": "uint256",
              "name": "amountIn",
              "type": "uint256"
            },
            {
              "internalType": "uint256",
              "name": "amountOut",
              "type": "uint256"
            },
            {
              "internalType": "address",
              "name": "recipient",
              "type": "address"
            },
            {
              "internalType": "uint16",
              "name": "slippageBps",
              "type": "uint16"
            },
            {
              "internalType": "uint16",
              "name": "feeBps",
              "type": "uint16"
            },
            {
              "internalType": "uint48",
              "name": "deadline",
              "type": "uint48"
            },
            {
              "internalType": "address",
              "name": "partner",
              "type": "address"
            },
            {
              "internalType": "address[]",
              "name": "tokens",
              "type": "address[]"
            },
            {
              "internalType": "address[]",
              "name": "pools",
              "type": "address[]"
            }
          ],
          "internalType": "struct IUniV3Like.ExactInputParams",
          "name": "params",
          "type": "tuple"
        }
      ],
      "name": "uniswapV3LikeExactInput",
      "outputs": [
        {
          "internalType": "uint256",
          "name": "amountOut",
          "type": "uint256"
        }
      ],
      "stateMutability": "payable",
      "type": "function"
    },
    {
      "inputs": [
        {
          "components": [
            {
              "internalType": "uint256",
              "name": "amountIn",
              "type": "uint256"
            },
            {
              "internalType": "uint256",
              "name": "amountOut",
              "type": "uint256"
            },
            {
              "internalType": "address",
              "name": "recipient",
              "type": "address"
            },
            {
              "internalType": "uint16",
              "name": "slippageBps",
              "type": "uint16"
            },
            {
              "internalType": "uint16",
              "name": "feeBps",
              "type": "uint16"
            },
            {
              "internalType": "uint48",
              "name": "deadline",
              "type": "uint48"
            },
            {
              "internalType": "address",
              "name": "partner",
              "type": "address"
            },
            {
              "internalType": "address[]",
              "name": "tokens",
              "type": "address[]"
            },
            {
              "internalType": "address[]",
              "name": "pools",
              "type": "address[]"
            }
          ],
          "internalType": "struct IUniV3Like.ExactInputParams",
          "name": "params",
          "type": "tuple"
        },
        {
          "components": [
            {
              "internalType": "uint256",
              "name": "nonce",
              "type": "uint256"
            },
            {
              "internalType": "bytes",
              "name": "signature",
              "type": "bytes"
            }
          ],
          "internalType": "struct PermitParams",
          "name": "permit",
          "type": "tuple"
        }
      ],
      "name": "uniswapV3LikeExactInputPermit",
      "outputs": [
        {
          "internalType": "uint256",
          "name": "amountOut",
          "type": "uint256"
        }
      ],
      "stateMutability": "nonpayable",
      "type": "function"
    },
    {
      "inputs": [
        {
          "components": [
            {
              "internalType": "address",
              "name": "recipient",
              "type": "address"
            },
            {
              "internalType": "address",
              "name": "partner",
              "type": "address"
            },
            {
              "internalType": "uint16",
              "name": "feeBps",
              "type": "uint16"
            },
            {
              "internalType": "uint16",
              "name": "slippageBps",
              "type": "uint16"
            },
            {
              "internalType": "uint256",
              "name": "amountIn",
              "type": "uint256"
            },
            {
              "internalType": "uint48",
              "name": "deadline",
              "type": "uint48"
            },
            {
              "internalType": "address",
              "name": "tokenIn",
              "type": "address"
            },
            {
              "internalType": "address",
              "name": "tokenOut",
              "type": "address"
            },
            {
              "internalType": "uint256",
              "name": "amountOut",
              "type": "uint256"
            },
            {
              "internalType": "address",
              "name": "pool",
              "type": "address"
            }
          ],
          "internalType": "struct IUniV3Like.ExactInputSingleParams",
          "name": "params",
          "type": "tuple"
        }
      ],
      "name": "uniswapV3LikeExactInputSingle",
      "outputs": [
        {
          "internalType": "uint256",
          "name": "amountOut",
          "type": "uint256"
        }
      ],
      "stateMutability": "payable",
      "type": "function"
    },
    {
      "inputs": [
        {
          "components": [
            {
              "internalType": "address",
              "name": "recipient",
              "type": "address"
            },
            {
              "internalType": "address",
              "name": "partner",
              "type": "address"
            },
            {
              "internalType": "uint16",
              "name": "feeBps",
              "type": "uint16"
            },
            {
              "internalType": "uint16",
              "name": "slippageBps",
              "type": "uint16"
            },
            {
              "internalType": "uint256",
              "name": "amountIn",
              "type": "uint256"
            },
            {
              "internalType": "uint48",
              "name": "deadline",
              "type": "uint48"
            },
            {
              "internalType": "address",
              "name": "tokenIn",
              "type": "address"
            },
            {
              "internalType": "address",
              "name": "tokenOut",
              "type": "address"
            },
            {
              "internalType": "uint256",
              "name": "amountOut",
              "type": "uint256"
            },
            {
              "internalType": "address",
              "name": "pool",
              "type": "address"
            }
          ],
          "internalType": "struct IUniV3Like.ExactInputSingleParams",
          "name": "params",
          "type": "tuple"
        },
        {
          "components": [
            {
              "internalType": "uint256",
              "name": "nonce",
              "type": "uint256"
            },
            {
              "internalType": "bytes",
              "name": "signature",
              "type": "bytes"
            }
          ],
          "internalType": "struct PermitParams",
          "name": "permit",
          "type": "tuple"
        }
      ],
      "name": "uniswapV3LikeExactInputSinglePermit",
      "outputs": [
        {
          "internalType": "uint256",
          "name": "amountOut",
          "type": "uint256"
        }
      ],
      "stateMutability": "nonpayable",
      "type": "function"
    }
  ],
  "transactionHash": "0x231635cf17979bc226001978ed94d700af285e0d19ce6a49f56dd5aa7a544530",
  "args": [],
  "numDeployments": 6,
  "solcInputHash": "0d6df50f9cbe5b402a0893d8bb42a4b7",
  "bytecode": "0x608060405234801561001057600080fd5b506125e1806100206000396000f3fe60806040526004361061003e5760003560e01c80626ee8b6146100435780635576abd114610068578063a33aea141461007b578063cda932d11461009b575b600080fd5b610056610051366004612064565b6100bb565b60405190815260200160405180910390f35b6100566100763660046120ac565b61024f565b34801561008757600080fd5b506100566100963660046120db565b6103b2565b3480156100a757600080fd5b506100566100b636600461212c565b6104fc565b60006100cd60c0830160a08401612186565b65ffffffffffff1642111561010e576040517f1ab7da6b00000000000000000000000000000000000000000000000000000000815260040160405180910390fd5b600061011d60e08401846121ae565b600081811061012e5761012e61221d565b9050602002016020810190610143919061224c565b73ffffffffffffffffffffffffffffffffffffffff160361023e5734823514610198576040517fab0a033b00000000000000000000000000000000000000000000000000000000815260040160405180910390fd5b7f1c1cf3c8827d48db80e17913589584c81d7f8da7f2100c9a87a7bf64829a0e1054604080517fd0e30db0000000000000000000000000000000000000000000000000000000008152905173ffffffffffffffffffffffffffffffffffffffff9092169163d0e30db0913491600480830192600092919082900301818588803b15801561022457600080fd5b505af1158015610238573d6000803e3d6000fd5b50505050505b61024982600061065b565b92915050565b600061026160c0830160a08401612186565b65ffffffffffff164211156102a2576040517f1ab7da6b00000000000000000000000000000000000000000000000000000000815260040160405180910390fd5b60006102b460e0840160c0850161224c565b73ffffffffffffffffffffffffffffffffffffffff16036103a7577f1c1cf3c8827d48db80e17913589584c81d7f8da7f2100c9a87a7bf64829a0e105473ffffffffffffffffffffffffffffffffffffffff1660808301353414610344576040517fab0a033b00000000000000000000000000000000000000000000000000000000815260040160405180910390fd5b8073ffffffffffffffffffffffffffffffffffffffff1663d0e30db0346040518263ffffffff1660e01b81526004016000604051808303818588803b15801561038c57600080fd5b505af11580156103a0573d6000803e3d6000fd5b5050505050505b610249826000611118565b7f1c1cf3c8827d48db80e17913589584c81d7f8da7f2100c9a87a7bf64829a0e11546040805160e080820190925260009273ffffffffffffffffffffffffffffffffffffffff1691632b67b57091339181906060820190819061041a908b0160c08c0161224c565b73ffffffffffffffffffffffffffffffffffffffff908116825260808b013516602082015260400161045260c08b0160a08c01612186565b65ffffffffffff9081168252893516602091820152908252309082015260400161048260c0890160a08a01612186565b65ffffffffffff1690526104996020870187612282565b6040518563ffffffff1660e01b81526004016104b894939291906122e7565b600060405180830381600087803b1580156104d257600080fd5b505af11580156104e6573d6000803e3d6000fd5b505050506104f5836001611118565b9392505050565b7f1c1cf3c8827d48db80e17913589584c81d7f8da7f2100c9a87a7bf64829a0e11546040805160e080820190925260009273ffffffffffffffffffffffffffffffffffffffff1691632b67b570913391819060608201908190610561908b018b6121ae565b60008181106105725761057261221d565b9050602002016020810190610587919061224c565b73ffffffffffffffffffffffffffffffffffffffff90811682528a351660208201526040016105bc60c08b0160a08c01612186565b65ffffffffffff908116825289351660209182015290825230908201526040016105ec60c0890160a08a01612186565b65ffffffffffff1690526106036020870187612282565b6040518563ffffffff1660e01b815260040161062294939291906122e7565b600060405180830381600087803b15801561063c57600080fd5b505af1158015610650573d6000803e3d6000fd5b505050506104f58360015b60008061066c6101008501856121ae565b9150600090508061068060e08701876121ae565b60008181106106915761069161221d565b90506020020160208101906106a6919061224c565b73ffffffffffffffffffffffffffffffffffffffff16146106c757336106c9565b305b905060006106da60e08701876121ae565b80806020026020016040519081016040528093929190818152602001838360200280828437600092018290525093945061071b9250505060e08801886121ae565b600081811061072c5761072c61221d565b9050602002016020810190610741919061224c565b73ffffffffffffffffffffffffffffffffffffffff16036107e5577f1c1cf3c8827d48db80e17913589584c81d7f8da7f2100c9a87a7bf64829a0e1054815173ffffffffffffffffffffffffffffffffffffffff9091169082906000906107aa576107aa61221d565b602002602001019073ffffffffffffffffffffffffffffffffffffffff16908173ffffffffffffffffffffffffffffffffffffffff16815250505b60006107f460e08801886121ae565b858181106108045761080461221d565b9050602002016020810190610819919061224c565b73ffffffffffffffffffffffffffffffffffffffff16036108be577f1c1cf3c8827d48db80e17913589584c81d7f8da7f2100c9a87a7bf64829a0e1054815173ffffffffffffffffffffffffffffffffffffffff909116908290859081106108835761088361221d565b602002602001019073ffffffffffffffffffffffffffffffffffffffff16908173ffffffffffffffffffffffffffffffffffffffff16815250505b60008184815181106108d2576108d261221d565b60209081029190910101516040517f70a0823100000000000000000000000000000000000000000000000000000000815230600482015273ffffffffffffffffffffffffffffffffffffffff909116906370a0823190602401602060405180830381865afa158015610948573d6000803e3d6000fd5b505050506040513d601f19601f8201168201806040525081019061096c91906123a9565b87359550905060005b84811015610c8157600081600101905060008482815181106109995761099961221d565b602002602001015173ffffffffffffffffffffffffffffffffffffffff168584815181106109c9576109c961221d565b602002602001015173ffffffffffffffffffffffffffffffffffffffff16109050610a5860405180608001604052808a81526020018873ffffffffffffffffffffffffffffffffffffffff168152602001878681518110610a2c57610a2c61221d565b602002602001015173ffffffffffffffffffffffffffffffffffffffff1681526020018b815250611904565b8015610b61576000610a6e6101008c018c6121ae565b85818110610a7e57610a7e61221d565b9050602002016020810190610a93919061224c565b6040517f128acb080000000000000000000000000000000000000000000000000000000081523060048201528315156024820152604481018b90526401000276a4606482015260a06084820152600060a482015273ffffffffffffffffffffffffffffffffffffffff919091169063128acb089060c40160408051808303816000875af1158015610b28573d6000803e3d6000fd5b505050506040513d601f19601f82011682018060405250810190610b4c91906123c2565b91505080610b5990612415565b985050610c6e565b6000610b716101008c018c6121ae565b85818110610b8157610b8161221d565b9050602002016020810190610b96919061224c565b6040517f128acb080000000000000000000000000000000000000000000000000000000081523060048201528315156024820152604481018b905273fffd8963efd1fc6a506488495d951d5263988d25606482015260a06084820152600060a482015273ffffffffffffffffffffffffffffffffffffffff919091169063128acb089060c40160408051808303816000875af1158015610c3a573d6000803e3d6000fd5b505050506040513d601f19601f82011682018060405250810190610c5e91906123c2565b509050610c6a81612415565b9850505b610c76611a93565b503094509050610975565b50610c9b85610c9660808a0160608b0161244d565b611af3565b851015610cd4576040517f42301c2300000000000000000000000000000000000000000000000000000000815260040160405180910390fd5b6000828581518110610ce857610ce861221d565b60209081029190910101516040517f70a0823100000000000000000000000000000000000000000000000000000000815230600482015273ffffffffffffffffffffffffffffffffffffffff909116906370a0823190602401602060405180830381865afa158015610d5e573d6000803e3d6000fd5b505050506040513d601f19601f82011682018060405250810190610d8291906123a9565b905081811080610d9a5750610d978683612471565b81105b15610dd1576040517f883d583b00000000000000000000000000000000000000000000000000000000815260040160405180910390fd5b610e20610de460e08a0160c08b0161224c565b848781518110610df657610df661221d565b60200260200101518a6080016020810190610e11919061244d565b61ffff168b602001358a611b1a565b95506000610e3160e08a018a6121ae565b87818110610e4157610e4161221d565b9050602002016020810190610e56919061224c565b73ffffffffffffffffffffffffffffffffffffffff1603610fc5577f1c1cf3c8827d48db80e17913589584c81d7f8da7f2100c9a87a7bf64829a0e10546040517f2e1a7d4d0000000000000000000000000000000000000000000000000000000081526004810188905273ffffffffffffffffffffffffffffffffffffffff90911690632e1a7d4d90602401600060405180830381600087803b158015610efc57600080fd5b505af1158015610f10573d6000803e3d6000fd5b5060009250610f2891505060608a0160408b0161224c565b73ffffffffffffffffffffffffffffffffffffffff168760405160006040518083038185875af1925050503d8060008114610f7f576040519150601f19603f3d011682016040523d82523d6000602084013e610f84565b606091505b5050905080610fbf576040517f6d963f8800000000000000000000000000000000000000000000000000000000815260040160405180910390fd5b50611018565b611018610fd860608a0160408b0161224c565b87858881518110610feb57610feb61221d565b602002602001015173ffffffffffffffffffffffffffffffffffffffff16611bd39092919063ffffffff16565b61102560e08901896121ae565b868181106110355761103561221d565b905060200201602081019061104a919061224c565b73ffffffffffffffffffffffffffffffffffffffff1661106d60e08a018a6121ae565b600081811061107e5761107e61221d565b9050602002016020810190611093919061224c565b73ffffffffffffffffffffffffffffffffffffffff166110b960e08b0160c08c0161224c565b604080518c358152602081018b905273ffffffffffffffffffffffffffffffffffffffff92909216917f1d81b4318b379c644b5546ae9cf37d861a5c7547bf3dae6cfaecffa12f8748f3910160405180910390a4505050505092915050565b6000808061112c60e0860160c0870161224c565b73ffffffffffffffffffffffffffffffffffffffff161490506000816111615761115c60e0860160c0870161224c565b61119a565b7f1c1cf3c8827d48db80e17913589584c81d7f8da7f2100c9a87a7bf64829a0e105473ffffffffffffffffffffffffffffffffffffffff165b90506000806111b0610100880160e0890161224c565b73ffffffffffffffffffffffffffffffffffffffff16146111e1576111dc610100870160e0880161224c565b61121a565b7f1c1cf3c8827d48db80e17913589584c81d7f8da7f2100c9a87a7bf64829a0e105473ffffffffffffffffffffffffffffffffffffffff165b6040517f70a0823100000000000000000000000000000000000000000000000000000000815230600482015290915060009073ffffffffffffffffffffffffffffffffffffffff8316906370a0823190602401602060405180830381865afa15801561128a573d6000803e3d6000fd5b505050506040513d601f19601f820116820180604052508101906112ae91906123a9565b905060008273ffffffffffffffffffffffffffffffffffffffff168473ffffffffffffffffffffffffffffffffffffffff1610905061134860405180608001604052808a608001358152602001876113065733611308565b305b73ffffffffffffffffffffffffffffffffffffffff1681526020018673ffffffffffffffffffffffffffffffffffffffff16815260200189815250611904565b80156114335760006113626101408a016101208b0161224c565b6040517f128acb08000000000000000000000000000000000000000000000000000000008152306004820152831515602482015260808b013560448201526401000276a4606482015260a06084820152600060a482015273ffffffffffffffffffffffffffffffffffffffff919091169063128acb089060c40160408051808303816000875af11580156113fa573d6000803e3d6000fd5b505050506040513d601f19601f8201168201806040525081019061141e91906123c2565b9150508061142b90612415565b965050611522565b60006114476101408a016101208b0161224c565b6040517f128acb08000000000000000000000000000000000000000000000000000000008152306004820152831515602482015260808b0135604482015273fffd8963efd1fc6a506488495d951d5263988d25606482015260a06084820152600060a482015273ffffffffffffffffffffffffffffffffffffffff919091169063128acb089060c40160408051808303816000875af11580156114ee573d6000803e3d6000fd5b505050506040513d601f19601f8201168201806040525081019061151291906123c2565b50905061151e81612415565b9650505b61152a611a93565b611543610100890135610c9660808b0160608c0161244d565b86101561157c576040517f42301c2300000000000000000000000000000000000000000000000000000000815260040160405180910390fd5b6040517f70a0823100000000000000000000000000000000000000000000000000000000815230600482015260009073ffffffffffffffffffffffffffffffffffffffff8516906370a0823190602401602060405180830381865afa1580156115e9573d6000803e3d6000fd5b505050506040513d601f19601f8201168201806040525081019061160d91906123a9565b90508281108061162557506116228784612471565b81105b1561165c576040517f883d583b00000000000000000000000000000000000000000000000000000000815260040160405180910390fd5b61169061166f60408b0160208c0161224c565b8561168060608d0160408e0161244d565b61ffff168c61010001358b611b1a565b965060006116a56101008b0160e08c0161224c565b73ffffffffffffffffffffffffffffffffffffffff1603611811577f1c1cf3c8827d48db80e17913589584c81d7f8da7f2100c9a87a7bf64829a0e10546040517f2e1a7d4d0000000000000000000000000000000000000000000000000000000081526004810189905273ffffffffffffffffffffffffffffffffffffffff90911690632e1a7d4d90602401600060405180830381600087803b15801561174b57600080fd5b505af115801561175f573d6000803e3d6000fd5b506000925061177491505060208b018b61224c565b73ffffffffffffffffffffffffffffffffffffffff168860405160006040518083038185875af1925050503d80600081146117cb576040519150601f19603f3d011682016040523d82523d6000602084013e6117d0565b606091505b505090508061180b576040517f6d963f8800000000000000000000000000000000000000000000000000000000815260040160405180910390fd5b5061183f565b61183f61182160208b018b61224c565b73ffffffffffffffffffffffffffffffffffffffff86169089611bd3565b6118506101008a0160e08b0161224c565b73ffffffffffffffffffffffffffffffffffffffff1661187660e08b0160c08c0161224c565b73ffffffffffffffffffffffffffffffffffffffff1661189c60408c0160208d0161224c565b73ffffffffffffffffffffffffffffffffffffffff167f1d81b4318b379c644b5546ae9cf37d861a5c7547bf3dae6cfaecffa12f8748f38c608001358b6040516118f0929190918252602082015260400190565b60405180910390a450505050505092915050565b7f3029b773e586da235d6a0709bacd2cb14a2e6562f997f3c8684513a487bcbf7a5460ff16600103611962576040517f65d4e04900000000000000000000000000000000000000000000000000000000815260040160405180910390fd5b7f3029b773e586da235d6a0709bacd2cb14a2e6562f997f3c8684513a487bcbf7a80547fffffffffffffffffffffffffffffffffffffffffffffffffffffffffffffff0016600117905580517f3029b773e586da235d6a0709bacd2cb14a2e6562f997f3c8684513a487bcbf7b5560208101517f3029b773e586da235d6a0709bacd2cb14a2e6562f997f3c8684513a487bcbf7c80547fffffffffffffffffffffffff000000000000000000000000000000000000000090811673ffffffffffffffffffffffffffffffffffffffff9384161790915560408301517f3029b773e586da235d6a0709bacd2cb14a2e6562f997f3c8684513a487bcbf7d80549092169216919091179055606001517f3029b773e586da235d6a0709bacd2cb14a2e6562f997f3c8684513a487bcbf7e55565b7f3029b773e586da235d6a0709bacd2cb14a2e6562f997f3c8684513a487bcbf7a5460ff16600103611af1576040517f129c8cdb00000000000000000000000000000000000000000000000000000000815260040160405180910390fd5b565b6000612710611b028382612484565b611b109061ffff16856124a6565b6104f591906124bd565b60006107d0841115611b61576040517f7b9314200000000000000000000000000000000000000000000000000000000081526107d060048201526024015b60405180910390fd5b60008284811115611b73575050828203835b612710818702049190910190600073ffffffffffffffffffffffffffffffffffffffff891615611ba95760646032840204611bac565b60005b9050808303838214611bc457611bc48a8a8484611c65565b50505090910395945050505050565b6040805173ffffffffffffffffffffffffffffffffffffffff8416602482015260448082018490528251808303909101815260649091019091526020810180517bffffffffffffffffffffffffffffffffffffffffffffffffffffffff167fa9059cbb00000000000000000000000000000000000000000000000000000000179052611c60908490611d2d565b505050565b73ffffffffffffffffffffffffffffffffffffffff84811660008181527f77fbd1c38a5ead50a5764a860fef6b91e5432a95f91228e67197edaf911cfc90602081815260408084209589168085529582528084208054890190557f77fbd1c38a5ead50a5764a860fef6b91e5432a95f91228e67197edaf911cfc9182529283902080548801905582518781529081018690528251919493927f3d2a5b5aa3c9e4a41eed8ae2e9e470c5cfb96fa51eb0935c607c0fd8ec3f3f5792918290030190a35050505050565b6000611d8f826040518060400160405280602081526020017f5361666545524332303a206c6f772d6c6576656c2063616c6c206661696c65648152508573ffffffffffffffffffffffffffffffffffffffff16611e3c9092919063ffffffff16565b9050805160001480611db0575080806020019051810190611db091906124f8565b611c60576040517f08c379a000000000000000000000000000000000000000000000000000000000815260206004820152602a60248201527f5361666545524332303a204552433230206f7065726174696f6e20646964206e60448201527f6f742073756363656564000000000000000000000000000000000000000000006064820152608401611b58565b6060611e4b8484600085611e53565b949350505050565b606082471015611ee5576040517f08c379a000000000000000000000000000000000000000000000000000000000815260206004820152602660248201527f416464726573733a20696e73756666696369656e742062616c616e636520666f60448201527f722063616c6c00000000000000000000000000000000000000000000000000006064820152608401611b58565b6000808673ffffffffffffffffffffffffffffffffffffffff168587604051611f0e919061253e565b60006040518083038185875af1925050503d8060008114611f4b576040519150601f19603f3d011682016040523d82523d6000602084013e611f50565b606091505b5091509150611f6187838387611f6c565b979650505050505050565b60608315612002578251600003611ffb5773ffffffffffffffffffffffffffffffffffffffff85163b611ffb576040517f08c379a000000000000000000000000000000000000000000000000000000000815260206004820152601d60248201527f416464726573733a2063616c6c20746f206e6f6e2d636f6e74726163740000006044820152606401611b58565b5081611e4b565b611e4b83838151156120175781518083602001fd5b806040517f08c379a0000000000000000000000000000000000000000000000000000000008152600401611b58919061255a565b6000610120828403121561205e57600080fd5b50919050565b60006020828403121561207657600080fd5b813567ffffffffffffffff81111561208d57600080fd5b611e4b8482850161204b565b6000610140828403121561205e57600080fd5b600061014082840312156120bf57600080fd5b6104f58383612099565b60006040828403121561205e57600080fd5b60008061016083850312156120ef57600080fd5b6120f98484612099565b915061014083013567ffffffffffffffff81111561211657600080fd5b612122858286016120c9565b9150509250929050565b6000806040838503121561213f57600080fd5b823567ffffffffffffffff8082111561215757600080fd5b6121638683870161204b565b9350602085013591508082111561217957600080fd5b50612122858286016120c9565b60006020828403121561219857600080fd5b813565ffffffffffff811681146104f557600080fd5b60008083357fffffffffffffffffffffffffffffffffffffffffffffffffffffffffffffffe18436030181126121e357600080fd5b83018035915067ffffffffffffffff8211156121fe57600080fd5b6020019150600581901b360382131561221657600080fd5b9250929050565b7f4e487b7100000000000000000000000000000000000000000000000000000000600052603260045260246000fd5b60006020828403121561225e57600080fd5b813573ffffffffffffffffffffffffffffffffffffffff811681146104f557600080fd5b60008083357fffffffffffffffffffffffffffffffffffffffffffffffffffffffffffffffe18436030181126122b757600080fd5b83018035915067ffffffffffffffff8211156122d257600080fd5b60200191503681900382131561221657600080fd5b600061010073ffffffffffffffffffffffffffffffffffffffff80881684528651818151166020860152816020820151166040860152604081015165ffffffffffff80821660608801528060608401511660808801525050508060208801511660a085015250604086015160c08401528060e08401528381840152506101208385828501376000838501820152601f9093017fffffffffffffffffffffffffffffffffffffffffffffffffffffffffffffffe016909101909101949350505050565b6000602082840312156123bb57600080fd5b5051919050565b600080604083850312156123d557600080fd5b505080516020909101519092909150565b7f4e487b7100000000000000000000000000000000000000000000000000000000600052601160045260246000fd5b60007f80000000000000000000000000000000000000000000000000000000000000008203612446576124466123e6565b5060000390565b60006020828403121561245f57600080fd5b813561ffff811681146104f557600080fd5b80820180821115610249576102496123e6565b61ffff82811682821603908082111561249f5761249f6123e6565b5092915050565b8082028115828204841417610249576102496123e6565b6000826124f3577f4e487b7100000000000000000000000000000000000000000000000000000000600052601260045260246000fd5b500490565b60006020828403121561250a57600080fd5b815180151581146104f557600080fd5b60005b8381101561253557818101518382015260200161251d565b50506000910152565b6000825161255081846020870161251a565b9190910192915050565b602081526000825180602084015261257981604085016020870161251a565b601f017fffffffffffffffffffffffffffffffffffffffffffffffffffffffffffffffe016919091016040019291505056fea2646970667358221220b273957a258529e02794310d95f3db461b2c1de8308b23ac5052085b95c4e03364736f6c63430008130033",
  "devdoc": {
    "kind": "dev",
    "methods": {},
    "version": 1
  },
  "userdoc": {
    "errors": {
      "FeeTooHigh(uint256)": [
        {
          "notice": "The swap fee is over the maximum allowed"
        },
        {
          "notice": "The swap fee is over the maximum allowed"
        }
      ]
    },
    "kind": "user",
    "methods": {},
    "notice": "A router for any Uniswap V3 fork The pools are not trusted to deliver the correct amount of tokens, so the router verifies this. The pool addresses passed in as a parameter instead of being looked up from the factory. The caller may use `getPair` on the factory to calculate pool addresses.",
    "version": 1
  },
  "storageLayout": {
    "storage": [],
    "types": null
  }
}