{
  "address": "0x71e0BD402c5C0B61dE1D224824c551fE0D623065",
  "abi": [
    {
      "inputs": [
        {
          "internalType": "uint256",
          "name": "_addressesLength",
          "type": "uint256"
        },
        {
          "internalType": "uint256",
          "name": "_calldataLength",
          "type": "uint256"
        }
      ],
      "name": "AddressAndCalldataLengthDoNotMatch",
      "type": "error"
    },
    {
      "inputs": [
        {
          "internalType": "address",
          "name": "_initializationContractAddress",
          "type": "address"
        },
        {
          "internalType": "bytes",
          "name": "_calldata",
          "type": "bytes"
        }
      ],
      "name": "InitializationFunctionReverted",
      "type": "error"
    },
    {
      "inputs": [
        {
          "internalType": "address[]",
          "name": "_addresses",
          "type": "address[]"
        },
        {
          "internalType": "bytes[]",
          "name": "_calldata",
          "type": "bytes[]"
        }
      ],
      "name": "multiInit",
      "outputs": [],
      "stateMutability": "nonpayable",
      "type": "function"
    }
  ],
  "transactionHash": "0xf837971828e95336e14cd639507eb51b909690cfe8021c7ae94deca3a9a44dd2",
  "args": [],
  "numDeployments": 2,
  "solcInputHash": "4bd33b0efaadcd28492d25c3625ab942",
  "bytecode": "0x608060405234801561001057600080fd5b5061058d806100206000396000f3fe608060405234801561001057600080fd5b506004361061002b5760003560e01c80636e02fa3c14610030575b600080fd5b61004361003e3660046102bf565b610045565b005b82811461008d576040517f7340e16600000000000000000000000000000000000000000000000000000000815260048101849052602481018290526044015b60405180910390fd5b60005b83811015610132576101208585838181106100ad576100ad61032b565b90506020020160208101906100c2919061035a565b8484848181106100d4576100d461032b565b90506020028101906100e69190610397565b8080601f01602080910402602001604051908101604052809392919081815260200183838082843760009201919091525061013992505050565b8061012a816103fc565b915050610090565b5050505050565b73ffffffffffffffffffffffffffffffffffffffff8216610158575050565b61017a8260405180606001604052806028815260200161053060289139610238565b6000808373ffffffffffffffffffffffffffffffffffffffff16836040516101a2919061047f565b600060405180830381855af49150503d80600081146101dd576040519150601f19603f3d011682016040523d82523d6000602084013e6101e2565b606091505b509150915081610232578051156101fc5780518082602001fd5b83836040517f192105d70000000000000000000000000000000000000000000000000000000081526004016100849291906104e5565b50505050565b813b8181610232576040517f08c379a0000000000000000000000000000000000000000000000000000000008152600401610084919061051c565b60008083601f84011261028557600080fd5b50813567ffffffffffffffff81111561029d57600080fd5b6020830191508360208260051b85010111156102b857600080fd5b9250929050565b600080600080604085870312156102d557600080fd5b843567ffffffffffffffff808211156102ed57600080fd5b6102f988838901610273565b9096509450602087013591508082111561031257600080fd5b5061031f87828801610273565b95989497509550505050565b7f4e487b7100000000000000000000000000000000000000000000000000000000600052603260045260246000fd5b60006020828403121561036c57600080fd5b813573ffffffffffffffffffffffffffffffffffffffff8116811461039057600080fd5b9392505050565b60008083357fffffffffffffffffffffffffffffffffffffffffffffffffffffffffffffffe18436030181126103cc57600080fd5b83018035915067ffffffffffffffff8211156103e757600080fd5b6020019150368190038213156102b857600080fd5b60007fffffffffffffffffffffffffffffffffffffffffffffffffffffffffffffffff8203610454577f4e487b7100000000000000000000000000000000000000000000000000000000600052601160045260246000fd5b5060010190565b60005b8381101561047657818101518382015260200161045e565b50506000910152565b6000825161049181846020870161045b565b9190910192915050565b600081518084526104b381602086016020860161045b565b601f017fffffffffffffffffffffffffffffffffffffffffffffffffffffffffffffffe0169290920160200192915050565b73ffffffffffffffffffffffffffffffffffffffff83168152604060208201526000610514604083018461049b565b949350505050565b602081526000610390602083018461049b56fe4c69624469616d6f6e644375743a205f696e6974206164647265737320686173206e6f20636f6465a26469706673582212207217874a568487a84b449cfcde224e682e91046cff0b82dce5306796edc09e1864736f6c63430008130033",
  "devdoc": {
    "kind": "dev",
    "methods": {},
    "version": 1
  },
  "userdoc": {
    "kind": "user",
    "methods": {},
    "version": 1
  },
  "storageLayout": {
    "storage": [],
    "types": null
  }
}