{
  "address": "0xe50AE9D11aA38C7fC48D1277D19C096f40c8Bad9",
  "abi": [
    {
      "inputs": [
        {
          "internalType": "address",
          "name": "weth",
          "type": "address"
        },
        {
          "internalType": "address",
          "name": "permit2",
          "type": "address"
        }
      ],
      "name": "init",
      "outputs": [],
      "stateMutability": "nonpayable",
      "type": "function"
    }
  ],
  "transactionHash": "0xd798fdb767c33fc330247f042a384015e08c1bfb3bb0bde4da72551ed22c2580",
  "args": [],
  "numDeployments": 2,
  "solcInputHash": "67dda12c87973688d0861d0d4554c2ee",
  "bytecode": "0x608060405234801561001057600080fd5b50610163806100206000396000f3fe608060405234801561001057600080fd5b506004361061002b5760003560e01c8063f09a401614610030575b600080fd5b6100cf61003e3660046100fa565b7f1c1cf3c8827d48db80e17913589584c81d7f8da7f2100c9a87a7bf64829a0e10805473ffffffffffffffffffffffffffffffffffffffff9384167fffffffffffffffffffffffff0000000000000000000000000000000000000000918216179091557f1c1cf3c8827d48db80e17913589584c81d7f8da7f2100c9a87a7bf64829a0e118054929093169116179055565b005b803573ffffffffffffffffffffffffffffffffffffffff811681146100f557600080fd5b919050565b6000806040838503121561010d57600080fd5b610116836100d1565b9150610124602084016100d1565b9050925092905056fea26469706673582212207bfdffebdade222d067e9a73381caaab8a3d4b662f9706adfcc4b31f7b9a8eb864736f6c63430008130033",
  "devdoc": {
    "kind": "dev",
    "methods": {},
    "version": 1
  },
  "userdoc": {
    "kind": "user",
    "methods": {},
    "version": 1
  },
  "storageLayout": {
    "storage": [],
    "types": null
  }
}