{
  "address": "0x1352Dad24CfA6c89893db159A50d3F4afF869B61",
  "abi": [
    {
      "inputs": [
        {
          "internalType": "address",
          "name": "weth",
          "type": "address"
        },
        {
          "internalType": "address",
          "name": "permit2",
          "type": "address"
        },
        {
          "internalType": "address",
          "name": "stargateComposer",
          "type": "address"
        }
      ],
      "name": "init",
      "outputs": [],
      "stateMutability": "nonpayable",
      "type": "function"
    }
  ],
  "transactionHash": "0x683b8f2615422c435904e790801cdfdc0040e73224c0ffba51e90e9825c1431f",
  "args": [],
  "numDeployments": 8,
  "solcInputHash": "109792ad932d81938f372f5fdbf353a0",
  "bytecode": "0x608060405234801561001057600080fd5b506116c5806100206000396000f3fe608060405234801561001057600080fd5b506004361061002b5760003560e01c8063184b955914610030575b600080fd5b61004361003e3660046101d6565b610045565b005b7f1c1cf3c8827d48db80e17913589584c81d7f8da7f2100c9a87a7bf64829a0e1080547fffffffffffffffffffffffff000000000000000000000000000000000000000090811673ffffffffffffffffffffffffffffffffffffffff8681169190911783557f1c1cf3c8827d48db80e17913589584c81d7f8da7f2100c9a87a7bf64829a0e11805483168683161790557f1c1cf3c8827d48db80e17913589584c81d7f8da7f2100c9a87a7bf64829a0e128054909216848216179091557f1c1cf3c8827d48db80e17913589584c81d7f8da7f2100c9a87a7bf64829a0e14541661019a57604051610135906101a0565b604051809103906000f080158015610151573d6000803e3d6000fd5b506004820180547fffffffffffffffffffffffff00000000000000000000000000000000000000001673ffffffffffffffffffffffffffffffffffffffff929092169190911790555b50505050565b6114768061021a83390190565b803573ffffffffffffffffffffffffffffffffffffffff811681146101d157600080fd5b919050565b6000806000606084860312156101eb57600080fd5b6101f4846101ad565b9250610202602085016101ad565b9150610210604085016101ad565b9050925092509256fe608060405234801561001057600080fd5b5061001a3361001f565b61006f565b600080546001600160a01b038381166001600160a01b0319831681178455604051919092169283917f8be0079c531659141344cd1fd0a4f28419497f9722a3daafe3b4186f6b6457e09190a35050565b6113f88061007e6000396000f3fe6080604052600436106100695760003560e01c80638da5cb5b116100435780638da5cb5b146100c5578063ece53132146100fa578063f2fde38b1461011a57600080fd5b80635321fbe514610075578063616afc151461009b578063715018a6146100ae57600080fd5b3661007057005b600080fd5b61008861008336600461110a565b61013a565b6040519081526020015b60405180910390f35b6100886100a936600461114c565b61055f565b3480156100ba57600080fd5b506100c36109e3565b005b3480156100d157600080fd5b5060005460405173ffffffffffffffffffffffffffffffffffffffff9091168152602001610092565b34801561010657600080fd5b506100c3610115366004611187565b6109f7565b34801561012657600080fd5b506100c3610135366004611187565b610b55565b60008061014d60808401606085016111cb565b156102245760006101616020850185611187565b73ffffffffffffffffffffffffffffffffffffffff161461021e576101896020840184611187565b6040517f70a0823100000000000000000000000000000000000000000000000000000000815233600482015273ffffffffffffffffffffffffffffffffffffffff91909116906370a0823190602401602060405180830381865afa1580156101f5573d6000803e3d6000fd5b505050506040513d601f19601f8201168201806040525081019061021991906111e8565b610221565b33315b90505b60006102366040850160208601611187565b73ffffffffffffffffffffffffffffffffffffffff163461025a6040870187611201565b60405161026892919061126d565b60006040518083038185875af1925050503d80600081146102a5576040519150601f19603f3d011682016040523d82523d6000602084013e6102aa565b606091505b50509050806102e5576040517f3204506f00000000000000000000000000000000000000000000000000000000815260040160405180910390fd5b6102f560808501606086016111cb565b156103d55760006103096020860186611187565b73ffffffffffffffffffffffffffffffffffffffff16146103c857816103326020860186611187565b6040517f70a0823100000000000000000000000000000000000000000000000000000000815233600482015273ffffffffffffffffffffffffffffffffffffffff91909116906370a0823190602401602060405180830381865afa15801561039e573d6000803e3d6000fd5b505050506040513d601f19601f820116820180604052508101906103c291906111e8565b036103ce565b33318290035b9250610558565b60006103e46020860186611187565b73ffffffffffffffffffffffffffffffffffffffff160361048a57604051479350600090339085908381818185875af1925050503d8060008114610444576040519150601f19603f3d011682016040523d82523d6000602084013e610449565b606091505b5050905080610484576040517f6d963f8800000000000000000000000000000000000000000000000000000000815260040160405180910390fd5b50610558565b6104976020850185611187565b6040517f70a0823100000000000000000000000000000000000000000000000000000000815230600482015273ffffffffffffffffffffffffffffffffffffffff91909116906370a0823190602401602060405180830381865afa158015610503573d6000803e3d6000fd5b505050506040513d601f19601f8201168201806040525081019061052791906111e8565b9250610558338461053b6020880188611187565b73ffffffffffffffffffffffffffffffffffffffff169190610c0e565b5050919050565b60008061057260a08401608085016111cb565b156106495760006105866020850185611187565b73ffffffffffffffffffffffffffffffffffffffff1614610643576105ae6020840184611187565b6040517f70a0823100000000000000000000000000000000000000000000000000000000815233600482015273ffffffffffffffffffffffffffffffffffffffff91909116906370a0823190602401602060405180830381865afa15801561061a573d6000803e3d6000fd5b505050506040513d601f19601f8201168201806040525081019061063e91906111e8565b610646565b33315b90505b60005b610659602085018561127d565b9050811015610786576000811561069657610677606086018661127d565b6001840381811061068a5761068a6112e5565b90506020020135610699565b60005b905061077d6106ab602087018761127d565b848181106106bb576106bb6112e5565b90506020020160208101906106d09190611187565b83156106dd5760006106df565b345b6106ec6040890189611201565b8080601f01602080910402602001604051908101604052809392919081815260200183838082843760009201919091525087925060019150610733905060208c018c61127d565b9050038714610767578561074a60608c018c61127d565b8981811061075a5761075a6112e5565b9050602002013503610ca0565b8561077560408c018c611201565b905003610ca0565b5060010161064c565b5061079760a08401608085016111cb565b156108775760006107ab6020850185611187565b73ffffffffffffffffffffffffffffffffffffffff161461086a57806107d46020850185611187565b6040517f70a0823100000000000000000000000000000000000000000000000000000000815233600482015273ffffffffffffffffffffffffffffffffffffffff91909116906370a0823190602401602060405180830381865afa158015610840573d6000803e3d6000fd5b505050506040513d601f19601f8201168201806040525081019061086491906111e8565b03610870565b33318190035b91506109dd565b60006108866020850185611187565b73ffffffffffffffffffffffffffffffffffffffff160361092c57604051479250600090339084908381818185875af1925050503d80600081146108e6576040519150601f19603f3d011682016040523d82523d6000602084013e6108eb565b606091505b5050905080610926576040517f6d963f8800000000000000000000000000000000000000000000000000000000815260040160405180910390fd5b506109dd565b6109396020840184611187565b6040517f70a0823100000000000000000000000000000000000000000000000000000000815230600482015273ffffffffffffffffffffffffffffffffffffffff91909116906370a0823190602401602060405180830381865afa1580156109a5573d6000803e3d6000fd5b505050506040513d601f19601f820116820180604052508101906109c991906111e8565b91506109dd338361053b6020870187611187565b50919050565b6109eb610cf6565b6109f56000610d77565b565b6109ff610cf6565b73ffffffffffffffffffffffffffffffffffffffff8116610aa057604051600090339047908381818185875af1925050503d8060008114610a5c576040519150601f19603f3d011682016040523d82523d6000602084013e610a61565b606091505b5050905080610a9c576040517f6d963f8800000000000000000000000000000000000000000000000000000000815260040160405180910390fd5b5050565b6040517f70a08231000000000000000000000000000000000000000000000000000000008152306004820152610b5290339073ffffffffffffffffffffffffffffffffffffffff8416906370a0823190602401602060405180830381865afa158015610b10573d6000803e3d6000fd5b505050506040513d601f19601f82011682018060405250810190610b3491906111e8565b73ffffffffffffffffffffffffffffffffffffffff84169190610c0e565b50565b610b5d610cf6565b73ffffffffffffffffffffffffffffffffffffffff8116610c05576040517f08c379a000000000000000000000000000000000000000000000000000000000815260206004820152602660248201527f4f776e61626c653a206e6577206f776e657220697320746865207a65726f206160448201527f646472657373000000000000000000000000000000000000000000000000000060648201526084015b60405180910390fd5b610b5281610d77565b6040805173ffffffffffffffffffffffffffffffffffffffff8416602482015260448082018490528251808303909101815260649091019091526020810180517bffffffffffffffffffffffffffffffffffffffffffffffffffffffff167fa9059cbb00000000000000000000000000000000000000000000000000000000179052610c9b908490610dec565b505050565b60008060405183856020880101888a6187965a03f1905080610cee576040517f3204506f00000000000000000000000000000000000000000000000000000000815260040160405180910390fd5b505050505050565b60005473ffffffffffffffffffffffffffffffffffffffff1633146109f5576040517f08c379a000000000000000000000000000000000000000000000000000000000815260206004820181905260248201527f4f776e61626c653a2063616c6c6572206973206e6f7420746865206f776e65726044820152606401610bfc565b6000805473ffffffffffffffffffffffffffffffffffffffff8381167fffffffffffffffffffffffff0000000000000000000000000000000000000000831681178455604051919092169283917f8be0079c531659141344cd1fd0a4f28419497f9722a3daafe3b4186f6b6457e09190a35050565b6000610e4e826040518060400160405280602081526020017f5361666545524332303a206c6f772d6c6576656c2063616c6c206661696c65648152508573ffffffffffffffffffffffffffffffffffffffff16610efb9092919063ffffffff16565b9050805160001480610e6f575080806020019051810190610e6f9190611314565b610c9b576040517f08c379a000000000000000000000000000000000000000000000000000000000815260206004820152602a60248201527f5361666545524332303a204552433230206f7065726174696f6e20646964206e60448201527f6f742073756363656564000000000000000000000000000000000000000000006064820152608401610bfc565b6060610f0a8484600085610f12565b949350505050565b606082471015610fa4576040517f08c379a000000000000000000000000000000000000000000000000000000000815260206004820152602660248201527f416464726573733a20696e73756666696369656e742062616c616e636520666f60448201527f722063616c6c00000000000000000000000000000000000000000000000000006064820152608401610bfc565b6000808673ffffffffffffffffffffffffffffffffffffffff168587604051610fcd9190611355565b60006040518083038185875af1925050503d806000811461100a576040519150601f19603f3d011682016040523d82523d6000602084013e61100f565b606091505b50915091506110208783838761102b565b979650505050505050565b606083156110c15782516000036110ba5773ffffffffffffffffffffffffffffffffffffffff85163b6110ba576040517f08c379a000000000000000000000000000000000000000000000000000000000815260206004820152601d60248201527f416464726573733a2063616c6c20746f206e6f6e2d636f6e74726163740000006044820152606401610bfc565b5081610f0a565b610f0a83838151156110d65781518083602001fd5b806040517f08c379a0000000000000000000000000000000000000000000000000000000008152600401610bfc9190611371565b60006020828403121561111c57600080fd5b813567ffffffffffffffff81111561113357600080fd5b82016080818503121561114557600080fd5b9392505050565b60006020828403121561115e57600080fd5b813567ffffffffffffffff81111561117557600080fd5b820160a0818503121561114557600080fd5b60006020828403121561119957600080fd5b813573ffffffffffffffffffffffffffffffffffffffff8116811461114557600080fd5b8015158114610b5257600080fd5b6000602082840312156111dd57600080fd5b8135611145816111bd565b6000602082840312156111fa57600080fd5b5051919050565b60008083357fffffffffffffffffffffffffffffffffffffffffffffffffffffffffffffffe184360301811261123657600080fd5b83018035915067ffffffffffffffff82111561125157600080fd5b60200191503681900382131561126657600080fd5b9250929050565b8183823760009101908152919050565b60008083357fffffffffffffffffffffffffffffffffffffffffffffffffffffffffffffffe18436030181126112b257600080fd5b83018035915067ffffffffffffffff8211156112cd57600080fd5b6020019150600581901b360382131561126657600080fd5b7f4e487b7100000000000000000000000000000000000000000000000000000000600052603260045260246000fd5b60006020828403121561132657600080fd5b8151611145816111bd565b60005b8381101561134c578181015183820152602001611334565b50506000910152565b60008251611367818460208701611331565b9190910192915050565b6020815260008251806020840152611390816040850160208701611331565b601f017fffffffffffffffffffffffffffffffffffffffffffffffffffffffffffffffe016919091016040019291505056fea2646970667358221220d802caf366dd9cdb9b8cb98576e808170fe81480ca4739a92cdb150ffcfe7b2a64736f6c63430008130033a2646970667358221220d83dd71899ea23b847a6d64dc8b9660d07d7bc9b823cd84ac6941265e391f7d864736f6c63430008130033",
  "devdoc": {
    "kind": "dev",
    "methods": {},
    "version": 1
  },
  "userdoc": {
    "kind": "user",
    "methods": {},
    "version": 1
  },
  "storageLayout": {
    "storage": [],
    "types": null
  }
}