{
  "address": "0x6621C372687C6bdb992Be6a3D5722BD1C40825f2",
  "abi": [
    {
      "inputs": [],
      "name": "CallbackAlreadyActive",
      "type": "error"
    },
    {
      "inputs": [],
      "name": "CallbackStillActive",
      "type": "error"
    },
    {
      "inputs": [],
      "name": "DeadlineExpired",
      "type": "error"
    },
    {
      "inputs": [],
      "name": "EthNotSupportedForWarp",
      "type": "error"
    },
    {
      "inputs": [
        {
          "internalType": "uint16",
          "name": "maxFeeBps",
          "type": "uint16"
        }
      ],
      "name": "FeeTooHigh",
      "type": "error"
    },
    {
      "inputs": [],
      "name": "InconsistentPartPayerOut",
      "type": "error"
    },
    {
      "inputs": [],
      "name": "InconsistentPartTokenOut",
      "type": "error"
    },
    {
      "inputs": [],
      "name": "IncorrectEthValue",
      "type": "error"
    },
    {
      "inputs": [],
      "name": "InsufficientAmountRemaining",
      "type": "error"
    },
    {
      "inputs": [],
      "name": "InsufficientOutputAmount",
      "type": "error"
    },
    {
      "inputs": [],
      "name": "InsufficientTokensDelivered",
      "type": "error"
    },
    {
      "inputs": [],
      "name": "NotEnoughParts",
      "type": "error"
    },
    {
      "inputs": [],
      "name": "UnexpectedPayerForWrap",
      "type": "error"
    },
    {
      "inputs": [],
      "name": "UnexpectedTokenForUnwrap",
      "type": "error"
    },
    {
      "inputs": [],
      "name": "UnexpectedTokenForWrap",
      "type": "error"
    },
    {
      "inputs": [],
      "name": "UnexpectedTokenOut",
      "type": "error"
    },
    {
      "inputs": [],
      "name": "UnexpectedValueAndTokenCombination",
      "type": "error"
    },
    {
      "inputs": [],
      "name": "UnhandledCommand",
      "type": "error"
    },
    {
      "inputs": [],
      "name": "UnhandledPoolKind",
      "type": "error"
    },
    {
      "inputs": [],
      "name": "COMMAND_TYPE_SPLIT",
      "outputs": [
        {
          "internalType": "uint256",
          "name": "",
          "type": "uint256"
        }
      ],
      "stateMutability": "view",
      "type": "function"
    },
    {
      "inputs": [],
      "name": "COMMAND_TYPE_UNWRAP",
      "outputs": [
        {
          "internalType": "uint256",
          "name": "",
          "type": "uint256"
        }
      ],
      "stateMutability": "view",
      "type": "function"
    },
    {
      "inputs": [],
      "name": "COMMAND_TYPE_WARP_CURVE_EXACT_INPUT_SINGLE",
      "outputs": [
        {
          "internalType": "uint256",
          "name": "",
          "type": "uint256"
        }
      ],
      "stateMutability": "view",
      "type": "function"
    },
    {
      "inputs": [],
      "name": "COMMAND_TYPE_WARP_UNI_V2_LIKE_EXACT_INPUT",
      "outputs": [
        {
          "internalType": "uint256",
          "name": "",
          "type": "uint256"
        }
      ],
      "stateMutability": "view",
      "type": "function"
    },
    {
      "inputs": [],
      "name": "COMMAND_TYPE_WARP_UNI_V2_LIKE_EXACT_INPUT_SINGLE",
      "outputs": [
        {
          "internalType": "uint256",
          "name": "",
          "type": "uint256"
        }
      ],
      "stateMutability": "view",
      "type": "function"
    },
    {
      "inputs": [],
      "name": "COMMAND_TYPE_WARP_UNI_V3_LIKE_EXACT_INPUT",
      "outputs": [
        {
          "internalType": "uint256",
          "name": "",
          "type": "uint256"
        }
      ],
      "stateMutability": "view",
      "type": "function"
    },
    {
      "inputs": [],
      "name": "COMMAND_TYPE_WARP_UNI_V3_LIKE_EXACT_INPUT_SINGLE",
      "outputs": [
        {
          "internalType": "uint256",
          "name": "",
          "type": "uint256"
        }
      ],
      "stateMutability": "view",
      "type": "function"
    },
    {
      "inputs": [],
      "name": "COMMAND_TYPE_WRAP",
      "outputs": [
        {
          "internalType": "uint256",
          "name": "",
          "type": "uint256"
        }
      ],
      "stateMutability": "view",
      "type": "function"
    },
    {
      "inputs": [],
      "name": "commandTypeSplit",
      "outputs": [
        {
          "internalType": "uint256",
          "name": "",
          "type": "uint256"
        }
      ],
      "stateMutability": "pure",
      "type": "function"
    },
    {
      "inputs": [],
      "name": "commandTypeUnwrap",
      "outputs": [
        {
          "internalType": "uint256",
          "name": "",
          "type": "uint256"
        }
      ],
      "stateMutability": "pure",
      "type": "function"
    },
    {
      "inputs": [],
      "name": "commandTypeWarpCurveExactInputSingle",
      "outputs": [
        {
          "internalType": "uint256",
          "name": "",
          "type": "uint256"
        }
      ],
      "stateMutability": "pure",
      "type": "function"
    },
    {
      "inputs": [],
      "name": "commandTypeWarpUniV2LikeExactInput",
      "outputs": [
        {
          "internalType": "uint256",
          "name": "",
          "type": "uint256"
        }
      ],
      "stateMutability": "pure",
      "type": "function"
    },
    {
      "inputs": [],
      "name": "commandTypeWarpUniV2LikeExactInputSingle",
      "outputs": [
        {
          "internalType": "uint256",
          "name": "",
          "type": "uint256"
        }
      ],
      "stateMutability": "pure",
      "type": "function"
    },
    {
      "inputs": [],
      "name": "commandTypeWarpUniV3LikeExactInput",
      "outputs": [
        {
          "internalType": "uint256",
          "name": "",
          "type": "uint256"
        }
      ],
      "stateMutability": "pure",
      "type": "function"
    },
    {
      "inputs": [],
      "name": "commandTypeWarpUniV3LikeExactInputSingle",
      "outputs": [
        {
          "internalType": "uint256",
          "name": "",
          "type": "uint256"
        }
      ],
      "stateMutability": "pure",
      "type": "function"
    },
    {
      "inputs": [],
      "name": "commandTypeWrap",
      "outputs": [
        {
          "internalType": "uint256",
          "name": "",
          "type": "uint256"
        }
      ],
      "stateMutability": "pure",
      "type": "function"
    },
    {
      "inputs": [
        {
          "components": [
            {
              "internalType": "address",
              "name": "partner",
              "type": "address"
            },
            {
              "internalType": "uint16",
              "name": "feeBps",
              "type": "uint16"
            },
            {
              "internalType": "uint16",
              "name": "slippageBps",
              "type": "uint16"
            },
            {
              "internalType": "address",
              "name": "recipient",
              "type": "address"
            },
            {
              "internalType": "address",
              "name": "tokenIn",
              "type": "address"
            },
            {
              "internalType": "address",
              "name": "tokenOut",
              "type": "address"
            },
            {
              "internalType": "uint256",
              "name": "amountIn",
              "type": "uint256"
            },
            {
              "internalType": "uint256",
              "name": "amountOut",
              "type": "uint256"
            },
            {
              "internalType": "uint48",
              "name": "deadline",
              "type": "uint48"
            },
            {
              "internalType": "bytes",
              "name": "commands",
              "type": "bytes"
            }
          ],
          "internalType": "struct IWarpLink.Params",
          "name": "params",
          "type": "tuple"
        }
      ],
      "name": "warpLinkEngage",
      "outputs": [],
      "stateMutability": "payable",
      "type": "function"
    }
  ],
  "transactionHash": "0x90f6271162e7f143d9128f83b678fa8703e905459d60fcf41d8166f134e5a3c6",
  "args": [],
  "numDeployments": 1,
  "solcInputHash": "0543f1b9a307b6e645ab4a866306bf25",
  "bytecode": "0x608060405234801561001057600080fd5b50613b92806100206000396000f3fe60806040526004361061010e5760003560e01c8063cd98504c116100a5578063dcc4555111610074578063e92a6f0511610059578063e92a6f0514610240578063eb2b767714610255578063fa31c9c01461026a57600080fd5b8063dcc4555114610216578063e67cbdb81461022b57600080fd5b8063cd98504c146101c4578063cedf0d18146101d9578063d267733d146101ed578063dc76f8721461020257600080fd5b806391f46532116100e157806391f465321461017357806393a4c0cb14610187578063ad5d50261461019b578063b41e3c2c146101b057600080fd5b80632cad76e81461011357806344b14b811461013557806367ec524c1461014a57806372c30b061461015e575b600080fd5b34801561011f57600080fd5b5060085b60405190815260200160405180910390f35b34801561014157600080fd5b50610123600181565b34801561015657600080fd5b506007610123565b34801561016a57600080fd5b50610123600881565b34801561017f57600080fd5b506004610123565b34801561019357600080fd5b506003610123565b3480156101a757600080fd5b50610123600781565b3480156101bc57600080fd5b506006610123565b3480156101d057600080fd5b50610123600681565b3480156101e557600080fd5b506005610123565b3480156101f957600080fd5b50610123600281565b34801561020e57600080fd5b506002610123565b610229610224366004613770565b61027e565b005b34801561023757600080fd5b50610123600381565b34801561024c57600080fd5b50610123600481565b34801561026157600080fd5b50610123600581565b34801561027657600080fd5b506001610123565b80610100015165ffffffffffff164211156102c5576040517f1ab7da6b00000000000000000000000000000000000000000000000000000000815260040160405180910390fd5b6040805160608101825260008082526020820181905291810182815260c08401518252608084015173ffffffffffffffffffffffffffffffffffffffff1690529034900361036957608082015173ffffffffffffffffffffffffffffffffffffffff1661035e576040517fd34bde3a00000000000000000000000000000000000000000000000000000000815260040160405180910390fd5b3360208201526103ff565b608082015173ffffffffffffffffffffffffffffffffffffffff16156103bb576040517fd34bde3a00000000000000000000000000000000000000000000000000000000815260040160405180910390fd5b8160c0015134146103f8576040517fab0a033b00000000000000000000000000000000000000000000000000000000815260040160405180910390fd5b3060208201525b6000610424836101200151604080518082019091528181528151909101602082015290565b90506104308183610595565b8051604082015160a0860151929450909173ffffffffffffffffffffffffffffffffffffffff808316911614610492576040517fae39073000000000000000000000000000000000000000000000000000000000815260040160405180910390fd5b6104a48560e0015186604001516106d1565b8210156104dd576040517f42301c2300000000000000000000000000000000000000000000000000000000815260040160405180910390fd5b6104fa85600001518660a0015187602001518860e00151866106ff565b915073ffffffffffffffffffffffffffffffffffffffff811661056757846060015173ffffffffffffffffffffffffffffffffffffffff166108fc839081150290604051600060405180830381858888f19350505050158015610561573d6000803e3d6000fd5b5061058e565b606085015161058e9073ffffffffffffffffffffffffffffffffffffffff831690846107c0565b5050505050565b604080516060810182526000808252602082018190529181019190915260006105c48480516001018051915290565b60ff16905060005b818110156106c55760006105e68680516001018051915290565b60ff16905060018103610603576105fc85610899565b94506106b2565b60028103610614576105fc85610a09565b60038103610626576105fc8686610be0565b60048103610638576105fc86866110b4565b6005810361064a576105fc868661134d565b6006810361065c576105fc86866119ff565b6007810361066e576105fc8686611ebd565b60088103610680576105fc8686612390565b6040517f8ccd166700000000000000000000000000000000000000000000000000000000815260040160405180910390fd5b50806106bd8161389d565b9150506105cc565b50829150505b92915050565b60006127106106e083826138d5565b6106ee9061ffff16856138f0565b6106f89190613936565b9392505050565b60006107d061ffff8516111561074a576040517f8ea70c070000000000000000000000000000000000000000000000000000000081526107d060048201526024015b60405180910390fd5b6000828481111561075c575050828203835b61271061ffff87168202049190910190600073ffffffffffffffffffffffffffffffffffffffff8916156107965760646032840204610799565b60005b90508083038382146107b1576107b18a8a84846126b4565b50505090910395945050505050565b60405173ffffffffffffffffffffffffffffffffffffffff83166024820152604481018290526108949084907fa9059cbb00000000000000000000000000000000000000000000000000000000906064015b604080517fffffffffffffffffffffffffffffffffffffffffffffffffffffffffffffffe08184030181529190526020810180517bffffffffffffffffffffffffffffffffffffffffffffffffffffffff167fffffffff00000000000000000000000000000000000000000000000000000000909316929092179091526127b9565b505050565b6040805160608101825260008082526020820181905281830152908201517f1c1cf3c8827d48db80e17913589584c81d7f8da7f2100c9a87a7bf64829a0e109073ffffffffffffffffffffffffffffffffffffffff1615610926576040517f45369fbb00000000000000000000000000000000000000000000000000000000815260040160405180910390fd5b602083015173ffffffffffffffffffffffffffffffffffffffff163014610979576040517f32d40df100000000000000000000000000000000000000000000000000000000815260040160405180910390fd5b805473ffffffffffffffffffffffffffffffffffffffff166040808501829052845181517fd0e30db0000000000000000000000000000000000000000000000000000000008152915163d0e30db09260048082019260009290919082900301818588803b1580156109e957600080fd5b505af11580156109fd573d6000803e3d6000fd5b50959695505050505050565b60408051606081018252600080825260208201819052818301527f1c1cf3c8827d48db80e17913589584c81d7f8da7f2100c9a87a7bf64829a0e108054928401519192909173ffffffffffffffffffffffffffffffffffffffff918216911614610a9f576040517fb2ee070800000000000000000000000000000000000000000000000000000000815260040160405180910390fd5b602083015173ffffffffffffffffffffffffffffffffffffffff81163014801590610acb573060208601525b600060408601528015610b025784518354610b029173ffffffffffffffffffffffffffffffffffffffff90911690849030906128c8565b825485516040517f2e1a7d4d00000000000000000000000000000000000000000000000000000000815273ffffffffffffffffffffffffffffffffffffffff90921691632e1a7d4d91610b5b9160040190815260200190565b600060405180830381600087803b158015610b7557600080fd5b505af1158015610b89573d6000803e3d6000fd5b5050506020860151865160405173ffffffffffffffffffffffffffffffffffffffff909216925080156108fc02916000818181858888f19350505050158015610bd6573d6000803e3d6000fd5b5093949350505050565b60408051606081018252600080825260208201819052818301529082015173ffffffffffffffffffffffffffffffffffffffff16610c4a576040517f767836b800000000000000000000000000000000000000000000000000000000815260040160405180910390fd5b6040805160808101825260008082526020820181905291810182905260608101919091528351601401805190855273ffffffffffffffffffffffffffffffffffffffff1681528351601401805190855273ffffffffffffffffffffffffffffffffffffffff1660208201528351600101805190855260ff1660011460408201528351600201805190855261ffff16606082015260208301513073ffffffffffffffffffffffffffffffffffffffff90911603610d3357602081015183516040850151610d2e9273ffffffffffffffffffffffffffffffffffffffff909116916107c0565b610d77565b610d70836020015182602001518560000151866040015173ffffffffffffffffffffffffffffffffffffffff166128c8909392919063ffffffff16565b3060208401525b600080826020015173ffffffffffffffffffffffffffffffffffffffff16630902f1ac6040518163ffffffff1660e01b8152600401606060405180830381865afa158015610dc9573d6000803e3d6000fd5b505050506040513d601f19601f82011682018060405250810190610ded919061398f565b506dffffffffffffffffffffffffffff1691506dffffffffffffffffffffffffffff1691508260400151610e1d57905b6060830151855161ffff6127109283031691840290820290810190830281610e4757610e47613907565b0486525082516040517f70a0823100000000000000000000000000000000000000000000000000000000815230600482015260009173ffffffffffffffffffffffffffffffffffffffff16906370a0823190602401602060405180830381865afa158015610eb9573d6000803e3d6000fd5b505050506040513d601f19601f82011682018060405250810190610edd91906139df565b9050836020015173ffffffffffffffffffffffffffffffffffffffff1663022c0d9f8560400151610f0f578751610f12565b60005b8660400151610f22576000610f25565b88515b6040517fffffffff0000000000000000000000000000000000000000000000000000000060e085901b16815260048101929092526024820152306044820152608060648201526000608482015260a401600060405180830381600087803b158015610f8f57600080fd5b505af1158015610fa3573d6000803e3d6000fd5b505085516040517f70a082310000000000000000000000000000000000000000000000000000000081523060048201526000935073ffffffffffffffffffffffffffffffffffffffff90911691506370a0823190602401602060405180830381865afa158015611017573d6000803e3d6000fd5b505050506040513d601f19601f8201168201806040525081019061103b91906139df565b9050818110806110555750865161105290836139f8565b81105b1561108c576040517f946beb5300000000000000000000000000000000000000000000000000000000815260040160405180910390fd5b5050915173ffffffffffffffffffffffffffffffffffffffff16604085015250919392505050565b604080516060810182526000808252602082018190529181019190915260006110e38480516001018051915290565b835160ff9190911691506000600283101561112a576040517f1d6beb5700000000000000000000000000000000000000000000000000000000815260040160405180910390fd5b60008060005b8581101561131e576000611145600188613a0b565b8210611151578561117e565b6127106111648b80516002018051915290565b8a516111749161ffff16906138f0565b61117e9190613936565b9050858111156111ba576040517f0f24c51700000000000000000000000000000000000000000000000000000000815260040160405180910390fd5b6111c48187613a0b565b6040805160608101825260006020808301828152838501928352868452908e015173ffffffffffffffffffffffffffffffffffffffff908116909152928d01519092169091529096506112178b82610595565b905082600003611234578060200151935080604001519450611306565b8473ffffffffffffffffffffffffffffffffffffffff16816040015173ffffffffffffffffffffffffffffffffffffffff161461129d576040517fd7af48f200000000000000000000000000000000000000000000000000000000815260040160405180910390fd5b8373ffffffffffffffffffffffffffffffffffffffff16816020015173ffffffffffffffffffffffffffffffffffffffff1614611306576040517f51a769fd00000000000000000000000000000000000000000000000000000000815260040160405180910390fd5b805161131290876139f8565b95505050600101611130565b5073ffffffffffffffffffffffffffffffffffffffff9081166020880152166040860152845250919392505050565b604080516060810182526000808252602082018190529181019190915261138e60405180606001604052806060815260200160608152602001606081525090565b60006113a08580516001018051915290565b60ff1690506113b08160016139f8565b67ffffffffffffffff8111156113c8576113c861361b565b6040519080825280602002602001820160405280156113f1578160200160208202803683370190505b508083526040850151815190919060009061140e5761140e613a1e565b602002602001019073ffffffffffffffffffffffffffffffffffffffff16908173ffffffffffffffffffffffffffffffffffffffff168152505060005b818110156114a75785516014018051908752835161146a8360016139f8565b8151811061147a5761147a613a1e565b73ffffffffffffffffffffffffffffffffffffffff9092166020928302919091019091015260010161144b565b506114b2858261292c565b60208301526114c185826129ce565b60408301528151805160009190839081106114de576114de613a1e565b60209081029190910101516040517f70a0823100000000000000000000000000000000000000000000000000000000815230600482015273ffffffffffffffffffffffffffffffffffffffff909116906370a0823190602401602060405180830381865afa158015611554573d6000803e3d6000fd5b505050506040513d601f19601f8201168201806040525081019061157891906139df565b905060006115988460400151876000015186600001518760200151612a57565b90503073ffffffffffffffffffffffffffffffffffffffff16866020015173ffffffffffffffffffffffffffffffffffffffff16036116275761162284602001516000815181106115eb576115eb613a1e565b60200260200101518760000151886040015173ffffffffffffffffffffffffffffffffffffffff166107c09092919063ffffffff16565b611685565b61167e8660200151856020015160008151811061164657611646613a1e565b60200260200101518860000151896040015173ffffffffffffffffffffffffffffffffffffffff166128c8909392919063ffffffff16565b3060208701525b60005b8381101561188957600061169d8260016139f8565b90506000866000015182815181106116b7576116b7613a1e565b602002602001015173ffffffffffffffffffffffffffffffffffffffff16876000015184815181106116eb576116eb613a1e565b602002602001015173ffffffffffffffffffffffffffffffffffffffff1610611715576000611718565b60015b90506000600288600001515161172e9190613a0b565b841061173a5730611759565b8760200151838151811061175057611750613a1e565b60200260200101515b90508760200151848151811061177157611771613a1e565b602002602001015173ffffffffffffffffffffffffffffffffffffffff1663022c0d9f836117b8578685815181106117ab576117ab613a1e565b60200260200101516117bb565b60005b846117c75760006117e2565b8786815181106117d9576117d9613a1e565b60200260200101515b6040517fffffffff0000000000000000000000000000000000000000000000000000000060e085901b1681526004810192909252602482015273ffffffffffffffffffffffffffffffffffffffff84166044820152608060648201526000608482015260a401600060405180830381600087803b15801561186257600080fd5b505af1158015611876573d6000803e3d6000fd5b5050600190950194506116889350505050565b506000846000015184815181106118a2576118a2613a1e565b60209081029190910101516040517f70a0823100000000000000000000000000000000000000000000000000000000815230600482015273ffffffffffffffffffffffffffffffffffffffff909116906370a0823190602401602060405180830381865afa158015611918573d6000803e3d6000fd5b505050506040513d601f19601f8201168201806040525081019061193c91906139df565b9050816001835161194d9190613a0b565b8151811061195d5761195d613a1e565b60209081029190910101518752828110806119825750865161197f90846139f8565b81105b156119b9576040517f946beb5300000000000000000000000000000000000000000000000000000000815260040160405180910390fd5b84518051859081106119cd576119cd613a1e565b602090810291909101015173ffffffffffffffffffffffffffffffffffffffff16604088015250949695505050505050565b6040805160608082018352600080835260208084018290528385018290528451608081018652828152908101829052938401819052908301528351601401805190855290919073ffffffffffffffffffffffffffffffffffffffff1681528351601401805190855273ffffffffffffffffffffffffffffffffffffffff9081166020830152604084015116611ac0576040517f767836b800000000000000000000000000000000000000000000000000000000815260040160405180910390fd5b80516040517f70a0823100000000000000000000000000000000000000000000000000000000815230600482015260009173ffffffffffffffffffffffffffffffffffffffff16906370a0823190602401602060405180830381865afa158015611b2e573d6000803e3d6000fd5b505050506040513d601f19601f82011682018060405250810190611b5291906139df565b90506000826000015173ffffffffffffffffffffffffffffffffffffffff16856040015173ffffffffffffffffffffffffffffffffffffffff16109050611bea604051806060016040528087600001518152602001876020015173ffffffffffffffffffffffffffffffffffffffff168152602001876040015173ffffffffffffffffffffffffffffffffffffffff16815250612c8c565b8015611cc657602083015185516040517f128acb08000000000000000000000000000000000000000000000000000000008152306004820152831515602482015260448101919091526401000276a4606482015260a06084820152600060a482018190529173ffffffffffffffffffffffffffffffffffffffff169063128acb089060c40160408051808303816000875af1158015611c8d573d6000803e3d6000fd5b505050506040513d601f19601f82011682018060405250810190611cb19190613a4d565b91505080611cbe90613a71565b865250611da6565b602083015185516040517f128acb080000000000000000000000000000000000000000000000000000000081523060048201528315156024820152604481019190915273fffd8963efd1fc6a506488495d951d5263988d25606482015260a06084820152600060a482018190529173ffffffffffffffffffffffffffffffffffffffff169063128acb089060c40160408051808303816000875af1158015611d72573d6000803e3d6000fd5b505050506040513d601f19601f82011682018060405250810190611d969190613a4d565b509050611da281613a71565b8652505b611dae612df5565b82516040517f70a0823100000000000000000000000000000000000000000000000000000000815230600482015260009173ffffffffffffffffffffffffffffffffffffffff16906370a0823190602401602060405180830381865afa158015611e1c573d6000803e3d6000fd5b505050506040513d601f19601f82011682018060405250810190611e4091906139df565b905082811080611e5a57508551611e5790846139f8565b81105b15611e91576040517f946beb5300000000000000000000000000000000000000000000000000000000815260040160405180910390fd5b5050905173ffffffffffffffffffffffffffffffffffffffff1660408401525050306020820152919050565b6040805160608101825260008082526020820181905291810191909152611efe60405180606001604052806060815260200160608152602001606081525090565b6000611f108580516001018051915290565b60ff169050611f1f858261292c565b8252611f2b858261292c565b60208301528151600090611f40600184613a0b565b81518110611f5057611f50613a1e565b60209081029190910101516040517f70a0823100000000000000000000000000000000000000000000000000000000815230600482015290915060009073ffffffffffffffffffffffffffffffffffffffff8316906370a0823190602401602060405180830381865afa158015611fcb573d6000803e3d6000fd5b505050506040513d601f19601f82011682018060405250810190611fef91906139df565b905060005b8381101561229d576000811561202e578551612011600184613a0b565b8151811061202157612021613a1e565b6020026020010151612034565b87604001515b90508560000151828151811061204c5761204c613a1e565b60209081029190910181015173ffffffffffffffffffffffffffffffffffffffff9081166040808c0182905280516060810182528c5181528c85015184169481019490945291841691830182905211906120a590612c8c565b826000036120b4573060208a01525b6000876020015184815181106120cc576120cc613a1e565b6020026020010151905081156121ae5789516040517f128acb08000000000000000000000000000000000000000000000000000000008152306004820152831515602482015260448101919091526401000276a4606482015260a06084820152600060a482018190529073ffffffffffffffffffffffffffffffffffffffff83169063128acb089060c40160408051808303816000875af1158015612175573d6000803e3d6000fd5b505050506040513d601f19601f820116820180604052508101906121999190613a4d565b915050806121a690613a71565b8b525061228a565b89516040517f128acb080000000000000000000000000000000000000000000000000000000081523060048201528315156024820152604481019190915273fffd8963efd1fc6a506488495d951d5263988d25606482015260a06084820152600060a482018190529073ffffffffffffffffffffffffffffffffffffffff83169063128acb089060c40160408051808303816000875af1158015612256573d6000803e3d6000fd5b505050506040513d601f19601f8201168201806040525081019061227a9190613a4d565b50905061228681613a71565b8b52505b612292612df5565b505050600101611ff4565b5060408087015190517f70a0823100000000000000000000000000000000000000000000000000000000815230600482015260009173ffffffffffffffffffffffffffffffffffffffff16906370a0823190602401602060405180830381865afa15801561230f573d6000803e3d6000fd5b505050506040513d601f19601f8201168201806040525081019061233391906139df565b90508181108061234d5750865161234a90836139f8565b81105b15612384576040517f946beb5300000000000000000000000000000000000000000000000000000000815260040160405180910390fd5b50949695505050505050565b604080516060808201835260008083526020808401829052838501829052845160c0810186528281529081018290529384018190529083018190526080830181905260a08301528351601401805190855290919073ffffffffffffffffffffffffffffffffffffffff1681528351601401805190855273ffffffffffffffffffffffffffffffffffffffff1660208201528351600101805190855260ff1660408201528351600101805190855260ff1660608201528351600101805190855260ff1660808201528351600101805190855260ff1660011460a082015260408301518151602085015173ffffffffffffffffffffffffffffffffffffffff92831615929182161591309116146124d6576020850151855160408701516124cf9273ffffffffffffffffffffffffffffffffffffffff9091169130906128c8565b3060208601525b6000816125735783516040517f70a0823100000000000000000000000000000000000000000000000000000000815230600482015273ffffffffffffffffffffffffffffffffffffffff909116906370a0823190602401602060405180830381865afa15801561254a573d6000803e3d6000fd5b505050506040513d601f19601f8201168201806040525081019061256e91906139df565b612575565b475b9050826125aa576020840151865160408801516125aa9273ffffffffffffffffffffffffffffffffffffffff90911691612e55565b6125de84608001518560a001518660200151866125c85760006125cb565b89515b604089015160608a01518c516000612f45565b60008261267b5784516040517f70a0823100000000000000000000000000000000000000000000000000000000815230600482015273ffffffffffffffffffffffffffffffffffffffff909116906370a0823190602401602060405180830381865afa158015612652573d6000803e3d6000fd5b505050506040513d601f19601f8201168201806040525081019061267691906139df565b61267d565b475b855173ffffffffffffffffffffffffffffffffffffffff16604089015290506126a68282613a0b565b875250949695505050505050565b7f4edbd34b5b006870ab724677d99b508debf8dcac0dc8134c9c43b93f8afe50f073ffffffffffffffffffffffffffffffffffffffff8416156127245773ffffffffffffffffffffffffffffffffffffffff85166000908152600282016020526040902061272290856132da565b505b61272e81866132da565b5073ffffffffffffffffffffffffffffffffffffffff858116600081815260038401602090815260408083209489168084529482528083208054890190556004860182529182902080548801905581518781529081018690527fb9c71741297b7329823b5575aa676062720448277d6da61cf68eb0fed6c4baf4910160405180910390a35050505050565b600061281b826040518060400160405280602081526020017f5361666545524332303a206c6f772d6c6576656c2063616c6c206661696c65648152508573ffffffffffffffffffffffffffffffffffffffff166132fc9092919063ffffffff16565b905080516000148061283c57508080602001905181019061283c9190613aa9565b610894576040517f08c379a000000000000000000000000000000000000000000000000000000000815260206004820152602a60248201527f5361666545524332303a204552433230206f7065726174696f6e20646964206e60448201527f6f742073756363656564000000000000000000000000000000000000000000006064820152608401610741565b60405173ffffffffffffffffffffffffffffffffffffffff808516602483015283166044820152606481018290526129269085907f23b872dd0000000000000000000000000000000000000000000000000000000090608401610812565b50505050565b60608167ffffffffffffffff8111156129475761294761361b565b604051908082528060200260200182016040528015612970578160200160208202803683370190505b50905060005b828110156129c7578351601401805190855282828151811061299a5761299a613a1e565b73ffffffffffffffffffffffffffffffffffffffff90921660209283029190910190910152600101612976565b5092915050565b60608167ffffffffffffffff8111156129e9576129e961361b565b604051908082528060200260200182016040528015612a12578160200160208202803683370190505b50905060005b828110156129c75783516002018051908552828281518110612a3c57612a3c613a1e565b61ffff90921660209283029190910190910152600101612a18565b805182516060919067ffffffffffffffff811115612a7757612a7761361b565b604051908082528060200260200182016040528015612aa0578160200160208202803683370190505b5091508482600081518110612ab757612ab7613a1e565b60200260200101818152505060005b81811015612c82576000858281518110612ae257612ae2613a1e565b60200260200101519050600086836001612afc91906139f8565b81518110612b0c57612b0c613a1e565b602002602001015190506000898481518110612b2a57612b2a613a1e565b6020026020010151612710612b3f91906138d5565b61ffff169050600080888681518110612b5a57612b5a613a1e565b602002602001015173ffffffffffffffffffffffffffffffffffffffff16630902f1ac6040518163ffffffff1660e01b8152600401606060405180830381865afa158015612bac573d6000803e3d6000fd5b505050506040513d601f19601f82011682018060405250810190612bd0919061398f565b506dffffffffffffffffffffffffffff1691506dffffffffffffffffffffffffffff1691508373ffffffffffffffffffffffffffffffffffffffff168573ffffffffffffffffffffffffffffffffffffffff161115612c2b57905b828b0282612710020181848d020281612c4657612c46613907565b049a508a88612c568860016139f8565b81518110612c6657612c66613a1e565b6020908102919091010152505060019093019250612ac6915050565b5050949350505050565b7f3029b773e586da235d6a0709bacd2cb14a2e6562f997f3c8684513a487bcbf7a5460ff16600103612cea576040517f65d4e04900000000000000000000000000000000000000000000000000000000815260040160405180910390fd5b7f3029b773e586da235d6a0709bacd2cb14a2e6562f997f3c8684513a487bcbf7a805460017fffffffffffffffffffffffffffffffffffffffffffffffffffffffffffffff0090911617905580517f3029b773e586da235d6a0709bacd2cb14a2e6562f997f3c8684513a487bcbf7b5560208101517f3029b773e586da235d6a0709bacd2cb14a2e6562f997f3c8684513a487bcbf7c80547fffffffffffffffffffffffff000000000000000000000000000000000000000090811673ffffffffffffffffffffffffffffffffffffffff938416179091556040909201517f3029b773e586da235d6a0709bacd2cb14a2e6562f997f3c8684513a487bcbf7d80549093169116179055565b7f3029b773e586da235d6a0709bacd2cb14a2e6562f997f3c8684513a487bcbf7a5460ff16600103612e53576040517f129c8cdb00000000000000000000000000000000000000000000000000000000815260040160405180910390fd5b565b6040805173ffffffffffffffffffffffffffffffffffffffff8416602482015260448082018490528251808303909101815260649091019091526020810180517bffffffffffffffffffffffffffffffffffffffffffffffffffffffff167f095ea7b300000000000000000000000000000000000000000000000000000000179052612ee18482613313565b6129265760405173ffffffffffffffffffffffffffffffffffffffff8416602482015260006044820152612f3b9085907f095ea7b30000000000000000000000000000000000000000000000000000000090606401610812565b61292684826127b9565b8760ff16600103613073578615612ffe576040517fa6417ed600000000000000000000000000000000000000000000000000000000815260ff808616600f90810b6004840152908516900b6024820152604481018390526064810182905273ffffffffffffffffffffffffffffffffffffffff87169063a6417ed69087906084015b6000604051808303818588803b158015612fe057600080fd5b505af1158015612ff4573d6000803e3d6000fd5b50505050506132d0565b6040517f3df0212400000000000000000000000000000000000000000000000000000000815260ff808616600f90810b6004840152908516900b6024820152604481018390526064810182905273ffffffffffffffffffffffffffffffffffffffff871690633df02124908790608401612fc7565b8760ff166002036131b357861561313e576040517fa6417ed600000000000000000000000000000000000000000000000000000000815260ff808616600f90810b6004840152908516900b6024820152604481018390526064810182905273ffffffffffffffffffffffffffffffffffffffff87169063a6417ed69087906084015b60206040518083038185885af1158015613113573d6000803e3d6000fd5b50505050506040513d601f19601f8201168201806040525081019061313891906139df565b506132d0565b6040517f3df0212400000000000000000000000000000000000000000000000000000000815260ff808616600f90810b6004840152908516900b6024820152604481018390526064810182905273ffffffffffffffffffffffffffffffffffffffff871690633df021249087906084016130f5565b8760ff1660030361329e578615613231576040517f65b2489b00000000000000000000000000000000000000000000000000000000815260ff808616600483015284166024820152604481018390526064810182905273ffffffffffffffffffffffffffffffffffffffff8716906365b2489b9087906084016130f5565b6040517f5b41b90800000000000000000000000000000000000000000000000000000000815260ff808616600483015284166024820152604481018390526064810182905273ffffffffffffffffffffffffffffffffffffffff871690635b41b9089087906084016130f5565b6040517ff1c43ede00000000000000000000000000000000000000000000000000000000815260040160405180910390fd5b5050505050505050565b60006106f88373ffffffffffffffffffffffffffffffffffffffff84166133d4565b606061330b8484600085613423565b949350505050565b60008060008473ffffffffffffffffffffffffffffffffffffffff168460405161333d9190613aef565b6000604051808303816000865af19150503d806000811461337a576040519150601f19603f3d011682016040523d82523d6000602084013e61337f565b606091505b50915091508180156133a95750805115806133a95750808060200190518101906133a99190613aa9565b80156133cb575073ffffffffffffffffffffffffffffffffffffffff85163b15155b95945050505050565b600081815260018301602052604081205461341b575081546001818101845560008481526020808220909301849055845484825282860190935260409020919091556106cb565b5060006106cb565b6060824710156134b5576040517f08c379a000000000000000000000000000000000000000000000000000000000815260206004820152602660248201527f416464726573733a20696e73756666696369656e742062616c616e636520666f60448201527f722063616c6c00000000000000000000000000000000000000000000000000006064820152608401610741565b6000808673ffffffffffffffffffffffffffffffffffffffff1685876040516134de9190613aef565b60006040518083038185875af1925050503d806000811461351b576040519150601f19603f3d011682016040523d82523d6000602084013e613520565b606091505b50915091506135318783838761353c565b979650505050505050565b606083156135d25782516000036135cb5773ffffffffffffffffffffffffffffffffffffffff85163b6135cb576040517f08c379a000000000000000000000000000000000000000000000000000000000815260206004820152601d60248201527f416464726573733a2063616c6c20746f206e6f6e2d636f6e74726163740000006044820152606401610741565b508161330b565b61330b83838151156135e75781518083602001fd5b806040517f08c379a00000000000000000000000000000000000000000000000000000000081526004016107419190613b0b565b7f4e487b7100000000000000000000000000000000000000000000000000000000600052604160045260246000fd5b604051610140810167ffffffffffffffff8111828210171561366e5761366e61361b565b60405290565b803573ffffffffffffffffffffffffffffffffffffffff8116811461369857600080fd5b919050565b803561ffff8116811461369857600080fd5b803565ffffffffffff8116811461369857600080fd5b600082601f8301126136d657600080fd5b813567ffffffffffffffff808211156136f1576136f161361b565b604051601f83017fffffffffffffffffffffffffffffffffffffffffffffffffffffffffffffffe0908116603f011681019082821181831017156137375761373761361b565b8160405283815286602085880101111561375057600080fd5b836020870160208301376000602085830101528094505050505092915050565b60006020828403121561378257600080fd5b813567ffffffffffffffff8082111561379a57600080fd5b9083019061014082860312156137af57600080fd5b6137b761364a565b6137c083613674565b81526137ce6020840161369d565b60208201526137df6040840161369d565b60408201526137f060608401613674565b606082015261380160808401613674565b608082015261381260a08401613674565b60a082015260c083013560c082015260e083013560e08201526101006138398185016136af565b90820152610120838101358381111561385157600080fd5b61385d888287016136c5565b918301919091525095945050505050565b7f4e487b7100000000000000000000000000000000000000000000000000000000600052601160045260246000fd5b60007fffffffffffffffffffffffffffffffffffffffffffffffffffffffffffffffff82036138ce576138ce61386e565b5060010190565b61ffff8281168282160390808211156129c7576129c761386e565b80820281158282048414176106cb576106cb61386e565b7f4e487b7100000000000000000000000000000000000000000000000000000000600052601260045260246000fd5b60008261396c577f4e487b7100000000000000000000000000000000000000000000000000000000600052601260045260246000fd5b500490565b80516dffffffffffffffffffffffffffff8116811461369857600080fd5b6000806000606084860312156139a457600080fd5b6139ad84613971565b92506139bb60208501613971565b9150604084015163ffffffff811681146139d457600080fd5b809150509250925092565b6000602082840312156139f157600080fd5b5051919050565b808201808211156106cb576106cb61386e565b818103818111156106cb576106cb61386e565b7f4e487b7100000000000000000000000000000000000000000000000000000000600052603260045260246000fd5b60008060408385031215613a6057600080fd5b505080516020909101519092909150565b60007f80000000000000000000000000000000000000000000000000000000000000008203613aa257613aa261386e565b5060000390565b600060208284031215613abb57600080fd5b815180151581146106f857600080fd5b60005b83811015613ae6578181015183820152602001613ace565b50506000910152565b60008251613b01818460208701613acb565b9190910192915050565b6020815260008251806020840152613b2a816040850160208701613acb565b601f017fffffffffffffffffffffffffffffffffffffffffffffffffffffffffffffffe016919091016040019291505056fea2646970667358221220fb69930a9857960355cf62635f458609e32009d8e98b878f9885a5f0cec97cb764736f6c63430008130033",
  "devdoc": {
    "kind": "dev",
    "methods": {},
    "version": 1
  },
  "userdoc": {
    "errors": {
      "FeeTooHigh(uint16)": [
        {
          "notice": "The swap fee is over the maximum allowed"
        }
      ]
    },
    "kind": "user",
    "methods": {},
    "version": 1
  },
  "storageLayout": {
    "storage": [],
    "types": null
  }
}