{
  "address": "0xd153380b0d297eB44984d9D6cB9A4b9Eae03FCc0",
  "abi": [
    {
      "inputs": [],
      "name": "DeadlineExpired",
      "type": "error"
    },
    {
      "inputs": [],
      "name": "EthTransferFailed",
      "type": "error"
    },
    {
      "inputs": [
        {
          "internalType": "uint256",
          "name": "maxFeeBps",
          "type": "uint256"
        }
      ],
      "name": "FeeTooHigh",
      "type": "error"
    },
    {
      "inputs": [
        {
          "internalType": "uint256",
          "name": "maxFeeBps",
          "type": "uint256"
        }
      ],
      "name": "FeeTooHigh",
      "type": "error"
    },
    {
      "inputs": [],
      "name": "IncorrectEthValue",
      "type": "error"
    },
    {
      "inputs": [],
      "name": "InsufficienTokensDelivered",
      "type": "error"
    },
    {
      "inputs": [],
      "name": "InsufficientOutputAmount",
      "type": "error"
    },
    {
      "anonymous": false,
      "inputs": [
        {
          "indexed": true,
          "internalType": "address",
          "name": "partner",
          "type": "address"
        },
        {
          "indexed": true,
          "internalType": "address",
          "name": "token",
          "type": "address"
        },
        {
          "indexed": false,
          "internalType": "uint256",
          "name": "partnerFee",
          "type": "uint256"
        },
        {
          "indexed": false,
          "internalType": "uint256",
          "name": "protocolFee",
          "type": "uint256"
        }
      ],
      "name": "Fee",
      "type": "event"
    },
    {
      "anonymous": false,
      "inputs": [
        {
          "indexed": true,
          "internalType": "address",
          "name": "partner",
          "type": "address"
        },
        {
          "indexed": true,
          "internalType": "address",
          "name": "tokenIn",
          "type": "address"
        },
        {
          "indexed": true,
          "internalType": "address",
          "name": "tokenOut",
          "type": "address"
        },
        {
          "indexed": false,
          "internalType": "uint256",
          "name": "amountIn",
          "type": "uint256"
        },
        {
          "indexed": false,
          "internalType": "uint256",
          "name": "amountOut",
          "type": "uint256"
        }
      ],
      "name": "Warp",
      "type": "event"
    },
    {
      "inputs": [
        {
          "components": [
            {
              "internalType": "uint256",
              "name": "amountIn",
              "type": "uint256"
            },
            {
              "internalType": "uint256",
              "name": "amountOut",
              "type": "uint256"
            },
            {
              "internalType": "uint16[]",
              "name": "poolFeesBps",
              "type": "uint16[]"
            },
            {
              "internalType": "address",
              "name": "recipient",
              "type": "address"
            },
            {
              "internalType": "uint16",
              "name": "slippageBps",
              "type": "uint16"
            },
            {
              "internalType": "uint16",
              "name": "feeBps",
              "type": "uint16"
            },
            {
              "internalType": "uint48",
              "name": "deadline",
              "type": "uint48"
            },
            {
              "internalType": "address",
              "name": "partner",
              "type": "address"
            },
            {
              "internalType": "address[]",
              "name": "tokens",
              "type": "address[]"
            },
            {
              "internalType": "address[]",
              "name": "pools",
              "type": "address[]"
            }
          ],
          "internalType": "struct IUniV2Like.ExactInputParams",
          "name": "params",
          "type": "tuple"
        }
      ],
      "name": "uniswapV2LikeExactInput",
      "outputs": [
        {
          "internalType": "uint256",
          "name": "amountOut",
          "type": "uint256"
        }
      ],
      "stateMutability": "payable",
      "type": "function"
    },
    {
      "inputs": [
        {
          "components": [
            {
              "internalType": "uint256",
              "name": "amountIn",
              "type": "uint256"
            },
            {
              "internalType": "uint256",
              "name": "amountOut",
              "type": "uint256"
            },
            {
              "internalType": "uint16[]",
              "name": "poolFeesBps",
              "type": "uint16[]"
            },
            {
              "internalType": "address",
              "name": "recipient",
              "type": "address"
            },
            {
              "internalType": "uint16",
              "name": "slippageBps",
              "type": "uint16"
            },
            {
              "internalType": "uint16",
              "name": "feeBps",
              "type": "uint16"
            },
            {
              "internalType": "uint48",
              "name": "deadline",
              "type": "uint48"
            },
            {
              "internalType": "address",
              "name": "partner",
              "type": "address"
            },
            {
              "internalType": "address[]",
              "name": "tokens",
              "type": "address[]"
            },
            {
              "internalType": "address[]",
              "name": "pools",
              "type": "address[]"
            }
          ],
          "internalType": "struct IUniV2Like.ExactInputParams",
          "name": "params",
          "type": "tuple"
        },
        {
          "components": [
            {
              "internalType": "uint256",
              "name": "nonce",
              "type": "uint256"
            },
            {
              "internalType": "bytes",
              "name": "signature",
              "type": "bytes"
            }
          ],
          "internalType": "struct PermitParams",
          "name": "permit",
          "type": "tuple"
        }
      ],
      "name": "uniswapV2LikeExactInputPermit",
      "outputs": [
        {
          "internalType": "uint256",
          "name": "amountOut",
          "type": "uint256"
        }
      ],
      "stateMutability": "nonpayable",
      "type": "function"
    },
    {
      "inputs": [
        {
          "components": [
            {
              "internalType": "uint256",
              "name": "amountIn",
              "type": "uint256"
            },
            {
              "internalType": "uint256",
              "name": "amountOut",
              "type": "uint256"
            },
            {
              "internalType": "address",
              "name": "recipient",
              "type": "address"
            },
            {
              "internalType": "address",
              "name": "pool",
              "type": "address"
            },
            {
              "internalType": "uint16",
              "name": "feeBps",
              "type": "uint16"
            },
            {
              "internalType": "uint16",
              "name": "slippageBps",
              "type": "uint16"
            },
            {
              "internalType": "address",
              "name": "partner",
              "type": "address"
            },
            {
              "internalType": "address",
              "name": "tokenIn",
              "type": "address"
            },
            {
              "internalType": "address",
              "name": "tokenOut",
              "type": "address"
            },
            {
              "internalType": "uint16",
              "name": "poolFeeBps",
              "type": "uint16"
            },
            {
              "internalType": "uint48",
              "name": "deadline",
              "type": "uint48"
            }
          ],
          "internalType": "struct IUniV2Like.ExactInputSingleParams",
          "name": "params",
          "type": "tuple"
        }
      ],
      "name": "uniswapV2LikeExactInputSingle",
      "outputs": [
        {
          "internalType": "uint256",
          "name": "amountOut",
          "type": "uint256"
        }
      ],
      "stateMutability": "payable",
      "type": "function"
    },
    {
      "inputs": [
        {
          "components": [
            {
              "internalType": "uint256",
              "name": "amountIn",
              "type": "uint256"
            },
            {
              "internalType": "uint256",
              "name": "amountOut",
              "type": "uint256"
            },
            {
              "internalType": "address",
              "name": "recipient",
              "type": "address"
            },
            {
              "internalType": "address",
              "name": "pool",
              "type": "address"
            },
            {
              "internalType": "uint16",
              "name": "feeBps",
              "type": "uint16"
            },
            {
              "internalType": "uint16",
              "name": "slippageBps",
              "type": "uint16"
            },
            {
              "internalType": "address",
              "name": "partner",
              "type": "address"
            },
            {
              "internalType": "address",
              "name": "tokenIn",
              "type": "address"
            },
            {
              "internalType": "address",
              "name": "tokenOut",
              "type": "address"
            },
            {
              "internalType": "uint16",
              "name": "poolFeeBps",
              "type": "uint16"
            },
            {
              "internalType": "uint48",
              "name": "deadline",
              "type": "uint48"
            }
          ],
          "internalType": "struct IUniV2Like.ExactInputSingleParams",
          "name": "params",
          "type": "tuple"
        },
        {
          "components": [
            {
              "internalType": "uint256",
              "name": "nonce",
              "type": "uint256"
            },
            {
              "internalType": "bytes",
              "name": "signature",
              "type": "bytes"
            }
          ],
          "internalType": "struct PermitParams",
          "name": "permit",
          "type": "tuple"
        }
      ],
      "name": "uniswapV2LikeExactInputSinglePermit",
      "outputs": [
        {
          "internalType": "uint256",
          "name": "amountOut",
          "type": "uint256"
        }
      ],
      "stateMutability": "nonpayable",
      "type": "function"
    }
  ],
  "transactionHash": "0xd26a910bfa5dd9b5708ad4c0ec5b4b7598c18de7ab915ba72e2053b81535e96e",
  "args": [],
  "numDeployments": 1,
  "solcInputHash": "0d6df50f9cbe5b402a0893d8bb42a4b7",
  "bytecode": "0x608060405234801561001057600080fd5b5061299a806100206000396000f3fe60806040526004361061003f5760003560e01c806311f1fdef14610044578063baa8ed3514610076578063c83ee48414610089578063d1b72bc41461009c575b600080fd5b34801561005057600080fd5b5061006461005f366004612268565b6100bc565b60405190815260200160405180910390f35b6100646100843660046122b9565b610319565b6100646100973660046122e9565b61052d565b3480156100a857600080fd5b506100646100b736600461231e565b610766565b7f1c1cf3c8827d48db80e17913589584c81d7f8da7f2100c9a87a7bf64829a0e11546040805160e080820190925260009273ffffffffffffffffffffffffffffffffffffffff1691632b67b570913391819060608201908190610126906101008c01908c016123a1565b73ffffffffffffffffffffffffffffffffffffffff90811682528a3516602082015260400161015d6101608b016101408c016123d2565b65ffffffffffff9081168252893516602091820152908252309082015260400161018f61016089016101408a016123d2565b65ffffffffffff1690526101a660208701876123ed565b6040518563ffffffff1660e01b81526004016101c59493929190612459565b600060405180830381600087803b1580156101df57600080fd5b505af11580156101f3573d6000803e3d6000fd5b5050505061021e7f1c1cf3c8827d48db80e17913589584c81d7f8da7f2100c9a87a7bf64829a0e1090565b6001015473ffffffffffffffffffffffffffffffffffffffff166336c785163361024e60808701606088016123a1565b8635610261610100890160e08a016123a1565b60405160e086901b7fffffffff0000000000000000000000000000000000000000000000000000000016815273ffffffffffffffffffffffffffffffffffffffff9485166004820152928416602484015290831660448301529091166064820152608401600060405180830381600087803b1580156102df57600080fd5b505af11580156102f3573d6000803e3d6000fd5b505050506103108380360381019061030b91906125ad565b610a0c565b90505b92915050565b600061032d610160830161014084016123d2565b65ffffffffffff1642111561036e576040517f1ab7da6b00000000000000000000000000000000000000000000000000000000815260040160405180910390fd5b6000610381610100840160e085016123a1565b73ffffffffffffffffffffffffffffffffffffffff16036104d657348235146103d6576040517fab0a033b00000000000000000000000000000000000000000000000000000000815260040160405180910390fd5b7f1c1cf3c8827d48db80e17913589584c81d7f8da7f2100c9a87a7bf64829a0e1054604080517fd0e30db0000000000000000000000000000000000000000000000000000000008152905173ffffffffffffffffffffffffffffffffffffffff9092169163d0e30db0913491600480830192600092919082900301818588803b15801561046257600080fd5b505af1158015610476573d6000803e3d6000fd5b50505050506104d182606001602081019061049191906123a1565b7f1c1cf3c8827d48db80e17913589584c81d7f8da7f2100c9a87a7bf64829a0e105473ffffffffffffffffffffffffffffffffffffffff169084356110ca565b61051b565b61051b336104ea60808501606086016123a1565b84356104fd610100870160e088016123a1565b73ffffffffffffffffffffffffffffffffffffffff169291906111a3565b61031361030b368490038401846125ad565b600061053f60e0830160c084016123d2565b65ffffffffffff16421115610580576040517f1ab7da6b00000000000000000000000000000000000000000000000000000000815260040160405180910390fd5b6000610590610100840184612679565b60008181106105a1576105a16126e1565b90506020020160208101906105b691906123a1565b73ffffffffffffffffffffffffffffffffffffffff16036106ef573482351461060b576040517fab0a033b00000000000000000000000000000000000000000000000000000000815260040160405180910390fd5b7f1c1cf3c8827d48db80e17913589584c81d7f8da7f2100c9a87a7bf64829a0e1054604080517fd0e30db0000000000000000000000000000000000000000000000000000000008152905173ffffffffffffffffffffffffffffffffffffffff9092169163d0e30db0913491600480830192600092919082900301818588803b15801561069757600080fd5b505af11580156106ab573d6000803e3d6000fd5b50505050506106ea828061012001906106c49190612679565b60008181106106d5576106d56126e1565b905060200201602081019061049191906123a1565b61075d565b61075d33610701610120850185612679565b6000818110610712576107126126e1565b905060200201602081019061072791906123a1565b8435610737610100870187612679565b6000818110610748576107486126e1565b90506020020160208101906104fd91906123a1565b61031382611207565b7f1c1cf3c8827d48db80e17913589584c81d7f8da7f2100c9a87a7bf64829a0e11546040805160e0810190915260009173ffffffffffffffffffffffffffffffffffffffff1690632b67b5709033908060608101806107c96101008b018b612679565b60008181106107da576107da6126e1565b90506020020160208101906107ef91906123a1565b73ffffffffffffffffffffffffffffffffffffffff90811682528a3516602082015260400161082460e08b0160c08c016123d2565b65ffffffffffff9081168252893516602091820152908252309082015260400161085460e0890160c08a016123d2565b65ffffffffffff16905261086b60208701876123ed565b6040518563ffffffff1660e01b815260040161088a9493929190612459565b600060405180830381600087803b1580156108a457600080fd5b505af11580156108b8573d6000803e3d6000fd5b505050506108e37f1c1cf3c8827d48db80e17913589584c81d7f8da7f2100c9a87a7bf64829a0e1090565b6001015473ffffffffffffffffffffffffffffffffffffffff166336c7851633610911610120870187612679565b6000818110610922576109226126e1565b905060200201602081019061093791906123a1565b8635610947610100890189612679565b6000818110610958576109586126e1565b905060200201602081019061096d91906123a1565b60405160e086901b7fffffffff0000000000000000000000000000000000000000000000000000000016815273ffffffffffffffffffffffffffffffffffffffff9485166004820152928416602484015290831660448301529091166064820152608401600060405180830381600087803b1580156109eb57600080fd5b505af11580156109ff573d6000803e3d6000fd5b5050505061031083611207565b60e08101516101008201516000917f1c1cf3c8827d48db80e17913589584c81d7f8da7f2100c9a87a7bf64829a0e109173ffffffffffffffffffffffffffffffffffffffff918216159116158381610af8576101008601516040517f70a0823100000000000000000000000000000000000000000000000000000000815230600482015273ffffffffffffffffffffffffffffffffffffffff909116906370a0823190602401602060405180830381865afa158015610acf573d6000803e3d6000fd5b505050506040513d601f19601f82011682018060405250810190610af39190612710565b610afa565b475b90508215610b2057835473ffffffffffffffffffffffffffffffffffffffff1660e08701525b8115610b4557835473ffffffffffffffffffffffffffffffffffffffff166101008701525b600080876060015173ffffffffffffffffffffffffffffffffffffffff16630902f1ac6040518163ffffffff1660e01b8152600401606060405180830381865afa158015610b97573d6000803e3d6000fd5b505050506040513d601f19601f82011682018060405250810190610bbb9190612747565b506dffffffffffffffffffffffffffff1691506dffffffffffffffffffffffffffff16915087610100015173ffffffffffffffffffffffffffffffffffffffff168860e0015173ffffffffffffffffffffffffffffffffffffffff161115610c1f57905b610120880151885161ffff6127109283031691840290820290810190830281610c4a57610c4a612797565b04975050610c6088602001518960a00151611b42565b871015610c99576040517f42301c2300000000000000000000000000000000000000000000000000000000815260040160405180910390fd5b600088610100015173ffffffffffffffffffffffffffffffffffffffff168960e0015173ffffffffffffffffffffffffffffffffffffffff1610610cde576000610ce1565b60015b9050886060015173ffffffffffffffffffffffffffffffffffffffff1663022c0d9f82610d0e5789610d11565b60005b83610d1d576000610d1f565b8a5b6040517fffffffff0000000000000000000000000000000000000000000000000000000060e085901b16815260048101929092526024820152306044820152608060648201526000608482015260a401600060405180830381600087803b158015610d8957600080fd5b505af1158015610d9d573d6000803e3d6000fd5b505050506101008901516040517f70a0823100000000000000000000000000000000000000000000000000000000815230600482015260009173ffffffffffffffffffffffffffffffffffffffff16906370a0823190602401602060405180830381865afa158015610e13573d6000803e3d6000fd5b505050506040513d601f19601f82011682018060405250810190610e379190612710565b905084811080610e4f5750610e4c89866127f5565b81105b15610e86576040517f883d583b00000000000000000000000000000000000000000000000000000000815260040160405180910390fd5b610ea88a60c001518b61010001518c6080015161ffff168d602001518d611b69565b98508515610fd75787546040517f2e1a7d4d000000000000000000000000000000000000000000000000000000008152600481018b905273ffffffffffffffffffffffffffffffffffffffff90911690632e1a7d4d90602401600060405180830381600087803b158015610f1b57600080fd5b505af1158015610f2f573d6000803e3d6000fd5b5050505060008a6040015173ffffffffffffffffffffffffffffffffffffffff168a60405160006040518083038185875af1925050503d8060008114610f91576040519150601f19603f3d011682016040523d82523d6000602084013e610f96565b606091505b5050905080610fd1576040517f6d963f8800000000000000000000000000000000000000000000000000000000815260040160405180910390fd5b5061100b565b61100b8a604001518a8c610100015173ffffffffffffffffffffffffffffffffffffffff166110ca9092919063ffffffff16565b8561101b5789610100015161101e565b60005b73ffffffffffffffffffffffffffffffffffffffff1687611043578a60e00151611046565b60005b73ffffffffffffffffffffffffffffffffffffffff168b60c0015173ffffffffffffffffffffffffffffffffffffffff167f1d81b4318b379c644b5546ae9cf37d861a5c7547bf3dae6cfaecffa12f8748f38d600001518d6040516110b5929190918252602082015260400190565b60405180910390a45050505050505050919050565b60405173ffffffffffffffffffffffffffffffffffffffff831660248201526044810182905261119e9084907fa9059cbb00000000000000000000000000000000000000000000000000000000906064015b604080517fffffffffffffffffffffffffffffffffffffffffffffffffffffffffffffffe08184030181529190526020810180517bffffffffffffffffffffffffffffffffffffffffffffffffffffffff167fffffffff0000000000000000000000000000000000000000000000000000000090931692909217909152611c22565b505050565b60405173ffffffffffffffffffffffffffffffffffffffff808516602483015283166044820152606481018290526112019085907f23b872dd000000000000000000000000000000000000000000000000000000009060840161111c565b50505050565b60007f1c1cf3c8827d48db80e17913589584c81d7f8da7f2100c9a87a7bf64829a0e1081611239610100850185612679565b80806020026020016040519081016040528093929190818152602001838360200280828437600092018290525093945061127b92505050610120860186612679565b9050905060008073ffffffffffffffffffffffffffffffffffffffff16836000815181106112ab576112ab6126e1565b602002602001015173ffffffffffffffffffffffffffffffffffffffff1614905060008073ffffffffffffffffffffffffffffffffffffffff168484815181106112f7576112f76126e1565b602002602001015173ffffffffffffffffffffffffffffffffffffffff161490508115611387578454845173ffffffffffffffffffffffffffffffffffffffff90911690859060009061134c5761134c6126e1565b602002602001019073ffffffffffffffffffffffffffffffffffffffff16908173ffffffffffffffffffffffffffffffffffffffff16815250505b60008161143f578484815181106113a0576113a06126e1565b60209081029190910101516040517f70a0823100000000000000000000000000000000000000000000000000000000815230600482015273ffffffffffffffffffffffffffffffffffffffff909116906370a0823190602401602060405180830381865afa158015611416573d6000803e3d6000fd5b505050506040513d601f19601f8201168201806040525081019061143a9190612710565b611441565b475b905060006114d061145560408b018b612679565b80806020026020016040519081016040528093929190818152602001838360200280828437600092019190915250508c3591508990506114996101208e018e612679565b80806020026020016040519081016040528093929190818152602001838360200280828437600092019190915250611d3192505050565b90506114ef60208a01356114ea60a08c0160808d01612808565b611b42565b81600183516114fe9190612823565b8151811061150e5761150e6126e1565b6020026020010151101561154e576040517f42301c2300000000000000000000000000000000000000000000000000000000815260040160405180910390fd5b60005b8581101561176f5760006115668260016127f5565b9050600088828151811061157c5761157c6126e1565b602002602001015173ffffffffffffffffffffffffffffffffffffffff168984815181106115ac576115ac6126e1565b602002602001015173ffffffffffffffffffffffffffffffffffffffff16106115d65760006115d9565b60015b9050600060028a516115eb9190612823565b84106115f7573061162a565b6116056101208e018e612679565b84818110611615576116156126e1565b905060200201602081019061162a91906123a1565b905061163a6101208e018e612679565b8581811061164a5761164a6126e1565b905060200201602081019061165f91906123a1565b73ffffffffffffffffffffffffffffffffffffffff1663022c0d9f8361169e57868581518110611691576116916126e1565b60200260200101516116a1565b60005b846116ad5760006116c8565b8786815181106116bf576116bf6126e1565b60200260200101515b6040517fffffffff0000000000000000000000000000000000000000000000000000000060e085901b1681526004810192909252602482015273ffffffffffffffffffffffffffffffffffffffff84166044820152608060648201526000608482015260a401600060405180830381600087803b15801561174857600080fd5b505af115801561175c573d6000803e3d6000fd5b5050600190950194506115519350505050565b506000868681518110611784576117846126e1565b60209081029190910101516040517f70a0823100000000000000000000000000000000000000000000000000000000815230600482015273ffffffffffffffffffffffffffffffffffffffff909116906370a0823190602401602060405180830381865afa1580156117fa573d6000803e3d6000fd5b505050506040513d601f19601f8201168201806040525081019061181e9190612710565b905082811080611836575061183389846127f5565b81105b1561186d576040517f883d583b00000000000000000000000000000000000000000000000000000000815260040160405180910390fd5b6118d66118816101008c0160e08d016123a1565b888881518110611893576118936126e1565b60200260200101518c60a00160208101906118ae9190612808565b61ffff168d60200135868b815181106118c9576118c96126e1565b6020026020010151611b69565b98508315611a125787546040517f2e1a7d4d000000000000000000000000000000000000000000000000000000008152600481018b905273ffffffffffffffffffffffffffffffffffffffff90911690632e1a7d4d90602401600060405180830381600087803b15801561194957600080fd5b505af115801561195d573d6000803e3d6000fd5b506000925061197591505060808c0160608d016123a1565b73ffffffffffffffffffffffffffffffffffffffff168a60405160006040518083038185875af1925050503d80600081146119cc576040519150601f19603f3d011682016040523d82523d6000602084013e6119d1565b606091505b5050905080611a0c576040517f6d963f8800000000000000000000000000000000000000000000000000000000815260040160405180910390fd5b50611a65565b611a65611a2560808c0160608d016123a1565b8a898981518110611a3857611a386126e1565b602002602001015173ffffffffffffffffffffffffffffffffffffffff166110ca9092919063ffffffff16565b83611a8957868681518110611a7c57611a7c6126e1565b6020026020010151611a8c565b60005b73ffffffffffffffffffffffffffffffffffffffff1685611ac75787600081518110611aba57611aba6126e1565b6020026020010151611aca565b60005b73ffffffffffffffffffffffffffffffffffffffff16611af16101008d0160e08e016123a1565b604080518e358152602081018e905273ffffffffffffffffffffffffffffffffffffffff92909216917f1d81b4318b379c644b5546ae9cf37d861a5c7547bf3dae6cfaecffa12f8748f391016110b5565b6000612710611b518382612836565b611b5f9061ffff1685612858565b610310919061286f565b60006107d0841115611bb0576040517f7b9314200000000000000000000000000000000000000000000000000000000081526107d060048201526024015b60405180910390fd5b60008284811115611bc2575050828203835b612710818702049190910190600073ffffffffffffffffffffffffffffffffffffffff891615611bf85760646032840204611bfb565b60005b9050808303838214611c1357611c138a8a8484611f66565b50505090910395945050505050565b6000611c84826040518060400160405280602081526020017f5361666545524332303a206c6f772d6c6576656c2063616c6c206661696c65648152508573ffffffffffffffffffffffffffffffffffffffff1661202e9092919063ffffffff16565b9050805160001480611ca5575080806020019051810190611ca591906128aa565b61119e576040517f08c379a000000000000000000000000000000000000000000000000000000000815260206004820152602a60248201527f5361666545524332303a204552433230206f7065726174696f6e20646964206e60448201527f6f742073756363656564000000000000000000000000000000000000000000006064820152608401611ba7565b805182516060919067ffffffffffffffff811115611d5157611d5161251b565b604051908082528060200260200182016040528015611d7a578160200160208202803683370190505b5091508482600081518110611d9157611d916126e1565b60200260200101818152505060005b81811015611f5c576000858281518110611dbc57611dbc6126e1565b60200260200101519050600086836001611dd691906127f5565b81518110611de657611de66126e1565b602002602001015190506000898481518110611e0457611e046126e1565b6020026020010151612710611e199190612836565b61ffff169050600080888681518110611e3457611e346126e1565b602002602001015173ffffffffffffffffffffffffffffffffffffffff16630902f1ac6040518163ffffffff1660e01b8152600401606060405180830381865afa158015611e86573d6000803e3d6000fd5b505050506040513d601f19601f82011682018060405250810190611eaa9190612747565b506dffffffffffffffffffffffffffff1691506dffffffffffffffffffffffffffff1691508373ffffffffffffffffffffffffffffffffffffffff168573ffffffffffffffffffffffffffffffffffffffff161115611f0557905b828b0282612710020181848d020281611f2057611f20612797565b049a508a88611f308860016127f5565b81518110611f4057611f406126e1565b6020908102919091010152505060019093019250611da0915050565b5050949350505050565b73ffffffffffffffffffffffffffffffffffffffff84811660008181527f77fbd1c38a5ead50a5764a860fef6b91e5432a95f91228e67197edaf911cfc90602081815260408084209589168085529582528084208054890190557f77fbd1c38a5ead50a5764a860fef6b91e5432a95f91228e67197edaf911cfc9182529283902080548801905582518781529081018690528251919493927f3d2a5b5aa3c9e4a41eed8ae2e9e470c5cfb96fa51eb0935c607c0fd8ec3f3f5792918290030190a35050505050565b606061203d8484600085612045565b949350505050565b6060824710156120d7576040517f08c379a000000000000000000000000000000000000000000000000000000000815260206004820152602660248201527f416464726573733a20696e73756666696369656e742062616c616e636520666f60448201527f722063616c6c00000000000000000000000000000000000000000000000000006064820152608401611ba7565b6000808673ffffffffffffffffffffffffffffffffffffffff16858760405161210091906128f7565b60006040518083038185875af1925050503d806000811461213d576040519150601f19603f3d011682016040523d82523d6000602084013e612142565b606091505b50915091506121538783838761215e565b979650505050505050565b606083156121f45782516000036121ed5773ffffffffffffffffffffffffffffffffffffffff85163b6121ed576040517f08c379a000000000000000000000000000000000000000000000000000000000815260206004820152601d60248201527f416464726573733a2063616c6c20746f206e6f6e2d636f6e74726163740000006044820152606401611ba7565b508161203d565b61203d83838151156122095781518083602001fd5b806040517f08c379a0000000000000000000000000000000000000000000000000000000008152600401611ba79190612913565b6000610160828403121561225057600080fd5b50919050565b60006040828403121561225057600080fd5b600080610180838503121561227c57600080fd5b612286848461223d565b915061016083013567ffffffffffffffff8111156122a357600080fd5b6122af85828601612256565b9150509250929050565b600061016082840312156122cc57600080fd5b610310838361223d565b6000610140828403121561225057600080fd5b6000602082840312156122fb57600080fd5b813567ffffffffffffffff81111561231257600080fd5b61203d848285016122d6565b6000806040838503121561233157600080fd5b823567ffffffffffffffff8082111561234957600080fd5b612355868387016122d6565b9350602085013591508082111561236b57600080fd5b506122af85828601612256565b803573ffffffffffffffffffffffffffffffffffffffff8116811461239c57600080fd5b919050565b6000602082840312156123b357600080fd5b61031082612378565b803565ffffffffffff8116811461239c57600080fd5b6000602082840312156123e457600080fd5b610310826123bc565b60008083357fffffffffffffffffffffffffffffffffffffffffffffffffffffffffffffffe184360301811261242257600080fd5b83018035915067ffffffffffffffff82111561243d57600080fd5b60200191503681900382131561245257600080fd5b9250929050565b600061010073ffffffffffffffffffffffffffffffffffffffff80881684528651818151166020860152816020820151166040860152604081015165ffffffffffff80821660608801528060608401511660808801525050508060208801511660a085015250604086015160c08401528060e08401528381840152506101208385828501376000838501820152601f9093017fffffffffffffffffffffffffffffffffffffffffffffffffffffffffffffffe016909101909101949350505050565b7f4e487b7100000000000000000000000000000000000000000000000000000000600052604160045260246000fd5b604051610160810167ffffffffffffffff81118282101715612595577f4e487b7100000000000000000000000000000000000000000000000000000000600052604160045260246000fd5b60405290565b803561ffff8116811461239c57600080fd5b600061016082840312156125c057600080fd5b6125c861254a565b82358152602083013560208201526125e260408401612378565b60408201526125f360608401612378565b60608201526126046080840161259b565b608082015261261560a0840161259b565b60a082015261262660c08401612378565b60c082015261263760e08401612378565b60e082015261010061264a818501612378565b9082015261012061265c84820161259b565b9082015261014061266e8482016123bc565b908201529392505050565b60008083357fffffffffffffffffffffffffffffffffffffffffffffffffffffffffffffffe18436030181126126ae57600080fd5b83018035915067ffffffffffffffff8211156126c957600080fd5b6020019150600581901b360382131561245257600080fd5b7f4e487b7100000000000000000000000000000000000000000000000000000000600052603260045260246000fd5b60006020828403121561272257600080fd5b5051919050565b80516dffffffffffffffffffffffffffff8116811461239c57600080fd5b60008060006060848603121561275c57600080fd5b61276584612729565b925061277360208501612729565b9150604084015163ffffffff8116811461278c57600080fd5b809150509250925092565b7f4e487b7100000000000000000000000000000000000000000000000000000000600052601260045260246000fd5b7f4e487b7100000000000000000000000000000000000000000000000000000000600052601160045260246000fd5b80820180821115610313576103136127c6565b60006020828403121561281a57600080fd5b6103108261259b565b81810381811115610313576103136127c6565b61ffff828116828216039080821115612851576128516127c6565b5092915050565b8082028115828204841417610313576103136127c6565b6000826128a5577f4e487b7100000000000000000000000000000000000000000000000000000000600052601260045260246000fd5b500490565b6000602082840312156128bc57600080fd5b815180151581146128cc57600080fd5b9392505050565b60005b838110156128ee5781810151838201526020016128d6565b50506000910152565b600082516129098184602087016128d3565b9190910192915050565b60208152600082518060208401526129328160408501602087016128d3565b601f017fffffffffffffffffffffffffffffffffffffffffffffffffffffffffffffffe016919091016040019291505056fea264697066735822122076650e333f70d4d517193a4854fe6da67a09abf7f0aaea5949bff0540d4d3be764736f6c63430008130033",
  "devdoc": {
    "kind": "dev",
    "methods": {},
    "version": 1
  },
  "userdoc": {
    "errors": {
      "FeeTooHigh(uint256)": [
        {
          "notice": "The swap fee is over the maximum allowed"
        },
        {
          "notice": "The swap fee is over the maximum allowed"
        }
      ]
    },
    "kind": "user",
    "methods": {},
    "notice": "A router for any Uniswap V2 fork The pools are not trusted to deliver the correct amount of tokens, so the router verifies this. The pool addresses passed in as a parameter instead of being looked up from the factory. The caller may use `getPair` on the factory to calculate pool addresses. Fees may vary from Uniswap V2's 0.3% (30 bps) and are passed in as `poolFeeBps`. Inspired by https://github.com/sushiswap/sushiswap/blob/master/protocols/route-processor/contracts/RouteProcessor4.sol#L323",
    "version": 1
  },
  "storageLayout": {
    "storage": [],
    "types": null
  }
}